{
	"HumAidToken.sol": {
		"HumAid": {
			"abi": [
				{
					"inputs": [],
					"stateMutability": "nonpayable",
					"type": "constructor"
				},
				{
					"inputs": [
						{
							"internalType": "address",
							"name": "spender",
							"type": "address"
						},
						{
							"internalType": "uint256",
							"name": "allowance",
							"type": "uint256"
						},
						{
							"internalType": "uint256",
							"name": "needed",
							"type": "uint256"
						}
					],
					"name": "ERC20InsufficientAllowance",
					"type": "error"
				},
				{
					"inputs": [
						{
							"internalType": "address",
							"name": "sender",
							"type": "address"
						},
						{
							"internalType": "uint256",
							"name": "balance",
							"type": "uint256"
						},
						{
							"internalType": "uint256",
							"name": "needed",
							"type": "uint256"
						}
					],
					"name": "ERC20InsufficientBalance",
					"type": "error"
				},
				{
					"inputs": [
						{
							"internalType": "address",
							"name": "approver",
							"type": "address"
						}
					],
					"name": "ERC20InvalidApprover",
					"type": "error"
				},
				{
					"inputs": [
						{
							"internalType": "address",
							"name": "receiver",
							"type": "address"
						}
					],
					"name": "ERC20InvalidReceiver",
					"type": "error"
				},
				{
					"inputs": [
						{
							"internalType": "address",
							"name": "sender",
							"type": "address"
						}
					],
					"name": "ERC20InvalidSender",
					"type": "error"
				},
				{
					"inputs": [
						{
							"internalType": "address",
							"name": "spender",
							"type": "address"
						}
					],
					"name": "ERC20InvalidSpender",
					"type": "error"
				},
				{
					"inputs": [
						{
							"internalType": "address",
							"name": "owner",
							"type": "address"
						}
					],
					"name": "OwnableInvalidOwner",
					"type": "error"
				},
				{
					"inputs": [
						{
							"internalType": "address",
							"name": "account",
							"type": "address"
						}
					],
					"name": "OwnableUnauthorizedAccount",
					"type": "error"
				},
				{
					"anonymous": false,
					"inputs": [
						{
							"indexed": true,
							"internalType": "address",
							"name": "owner",
							"type": "address"
						},
						{
							"indexed": true,
							"internalType": "address",
							"name": "spender",
							"type": "address"
						},
						{
							"indexed": false,
							"internalType": "uint256",
							"name": "value",
							"type": "uint256"
						}
					],
					"name": "Approval",
					"type": "event"
				},
				{
					"anonymous": false,
					"inputs": [
						{
							"indexed": false,
							"internalType": "string",
							"name": "name",
							"type": "string"
						},
						{
							"indexed": false,
							"internalType": "address",
							"name": "ngo",
							"type": "address"
						}
					],
					"name": "NGORegistered",
					"type": "event"
				},
				{
					"anonymous": false,
					"inputs": [
						{
							"indexed": false,
							"internalType": "string",
							"name": "name",
							"type": "string"
						},
						{
							"indexed": false,
							"internalType": "address",
							"name": "ngo",
							"type": "address"
						}
					],
					"name": "NGOUnregistered",
					"type": "event"
				},
				{
					"anonymous": false,
					"inputs": [
						{
							"indexed": true,
							"internalType": "address",
							"name": "previousOwner",
							"type": "address"
						},
						{
							"indexed": true,
							"internalType": "address",
							"name": "newOwner",
							"type": "address"
						}
					],
					"name": "OwnershipTransferred",
					"type": "event"
				},
				{
					"anonymous": false,
					"inputs": [
						{
							"indexed": true,
							"internalType": "address",
							"name": "from",
							"type": "address"
						},
						{
							"indexed": true,
							"internalType": "address",
							"name": "to",
							"type": "address"
						},
						{
							"indexed": false,
							"internalType": "uint256",
							"name": "value",
							"type": "uint256"
						}
					],
					"name": "Transfer",
					"type": "event"
				},
				{
					"inputs": [
						{
							"internalType": "address",
							"name": "owner",
							"type": "address"
						},
						{
							"internalType": "address",
							"name": "spender",
							"type": "address"
						}
					],
					"name": "allowance",
					"outputs": [
						{
							"internalType": "uint256",
							"name": "",
							"type": "uint256"
						}
					],
					"stateMutability": "view",
					"type": "function"
				},
				{
					"inputs": [
						{
							"internalType": "address",
							"name": "spender",
							"type": "address"
						},
						{
							"internalType": "uint256",
							"name": "value",
							"type": "uint256"
						}
					],
					"name": "approve",
					"outputs": [
						{
							"internalType": "bool",
							"name": "",
							"type": "bool"
						}
					],
					"stateMutability": "nonpayable",
					"type": "function"
				},
				{
					"inputs": [
						{
							"internalType": "address",
							"name": "account",
							"type": "address"
						}
					],
					"name": "balanceOf",
					"outputs": [
						{
							"internalType": "uint256",
							"name": "",
							"type": "uint256"
						}
					],
					"stateMutability": "view",
					"type": "function"
				},
				{
					"inputs": [
						{
							"internalType": "uint256",
							"name": "amount",
							"type": "uint256"
						}
					],
					"name": "burn",
					"outputs": [],
					"stateMutability": "nonpayable",
					"type": "function"
				},
				{
					"inputs": [],
					"name": "decimals",
					"outputs": [
						{
							"internalType": "uint8",
							"name": "",
							"type": "uint8"
						}
					],
					"stateMutability": "view",
					"type": "function"
				},
				{
					"inputs": [],
					"name": "distributeTreasuryToNGOs",
					"outputs": [],
					"stateMutability": "nonpayable",
					"type": "function"
				},
				{
					"inputs": [
						{
							"internalType": "address",
							"name": "account",
							"type": "address"
						},
						{
							"internalType": "bool",
							"name": "excluded",
							"type": "bool"
						}
					],
					"name": "excludeFromFee",
					"outputs": [],
					"stateMutability": "nonpayable",
					"type": "function"
				},
				{
					"inputs": [],
					"name": "feePercent",
					"outputs": [
						{
							"internalType": "uint256",
							"name": "",
							"type": "uint256"
						}
					],
					"stateMutability": "view",
					"type": "function"
				},
				{
					"inputs": [
						{
							"internalType": "address",
							"name": "account",
							"type": "address"
						}
					],
					"name": "isExcludedFromFee",
					"outputs": [
						{
							"internalType": "bool",
							"name": "",
							"type": "bool"
						}
					],
					"stateMutability": "view",
					"type": "function"
				},
				{
					"inputs": [],
					"name": "name",
					"outputs": [
						{
							"internalType": "string",
							"name": "",
							"type": "string"
						}
					],
					"stateMutability": "view",
					"type": "function"
				},
				{
					"inputs": [
						{
							"internalType": "address",
							"name": "",
							"type": "address"
						}
					],
					"name": "ngoNames",
					"outputs": [
						{
							"internalType": "string",
							"name": "",
							"type": "string"
						}
					],
					"stateMutability": "view",
					"type": "function"
				},
				{
					"inputs": [
						{
							"internalType": "uint256",
							"name": "",
							"type": "uint256"
						}
					],
					"name": "ngoWallets",
					"outputs": [
						{
							"internalType": "address",
							"name": "",
							"type": "address"
						}
					],
					"stateMutability": "view",
					"type": "function"
				},
				{
					"inputs": [],
					"name": "owner",
					"outputs": [
						{
							"internalType": "address",
							"name": "",
							"type": "address"
						}
					],
					"stateMutability": "view",
					"type": "function"
				},
				{
					"inputs": [
						{
							"internalType": "string",
							"name": "_ngoName",
							"type": "string"
						},
						{
							"internalType": "address",
							"name": "_ngoAddress",
							"type": "address"
						}
					],
					"name": "registerNGO",
					"outputs": [
						{
							"internalType": "bool",
							"name": "",
							"type": "bool"
						}
					],
					"stateMutability": "nonpayable",
					"type": "function"
				},
				{
					"inputs": [],
					"name": "renounceOwnership",
					"outputs": [],
					"stateMutability": "nonpayable",
					"type": "function"
				},
				{
					"inputs": [
						{
							"internalType": "uint256",
							"name": "_feePercent",
							"type": "uint256"
						}
					],
					"name": "setFeePercent",
					"outputs": [],
					"stateMutability": "nonpayable",
					"type": "function"
				},
				{
					"inputs": [
						{
							"internalType": "address",
							"name": "_treasuryWallet",
							"type": "address"
						}
					],
					"name": "setTreasuryWallet",
					"outputs": [],
					"stateMutability": "nonpayable",
					"type": "function"
				},
				{
					"inputs": [],
					"name": "symbol",
					"outputs": [
						{
							"internalType": "string",
							"name": "",
							"type": "string"
						}
					],
					"stateMutability": "view",
					"type": "function"
				},
				{
					"inputs": [],
					"name": "totalSupply",
					"outputs": [
						{
							"internalType": "uint256",
							"name": "",
							"type": "uint256"
						}
					],
					"stateMutability": "view",
					"type": "function"
				},
				{
					"inputs": [
						{
							"internalType": "address",
							"name": "to",
							"type": "address"
						},
						{
							"internalType": "uint256",
							"name": "value",
							"type": "uint256"
						}
					],
					"name": "transfer",
					"outputs": [
						{
							"internalType": "bool",
							"name": "",
							"type": "bool"
						}
					],
					"stateMutability": "nonpayable",
					"type": "function"
				},
				{
					"inputs": [
						{
							"internalType": "address",
							"name": "from",
							"type": "address"
						},
						{
							"internalType": "address",
							"name": "to",
							"type": "address"
						},
						{
							"internalType": "uint256",
							"name": "value",
							"type": "uint256"
						}
					],
					"name": "transferFrom",
					"outputs": [
						{
							"internalType": "bool",
							"name": "",
							"type": "bool"
						}
					],
					"stateMutability": "nonpayable",
					"type": "function"
				},
				{
					"inputs": [
						{
							"internalType": "address",
							"name": "newOwner",
							"type": "address"
						}
					],
					"name": "transferOwnership",
					"outputs": [],
					"stateMutability": "nonpayable",
					"type": "function"
				},
				{
					"inputs": [],
					"name": "treasuryWallet",
					"outputs": [
						{
							"internalType": "address",
							"name": "",
							"type": "address"
						}
					],
					"stateMutability": "view",
					"type": "function"
				},
				{
					"inputs": [
						{
							"internalType": "string",
							"name": "_ngoName",
							"type": "string"
						}
					],
					"name": "unregisterNGO",
					"outputs": [
						{
							"internalType": "bool",
							"name": "",
							"type": "bool"
						}
					],
					"stateMutability": "nonpayable",
					"type": "function"
				}
			],
			"devdoc": {
				"errors": {
					"ERC20InsufficientAllowance(address,uint256,uint256)": [
						{
							"details": "Indicates a failure with the `spender`’s `allowance`. Used in transfers.",
							"params": {
								"allowance": "Amount of tokens a `spender` is allowed to operate with.",
								"needed": "Minimum amount required to perform a transfer.",
								"spender": "Address that may be allowed to operate on tokens without being their owner."
							}
						}
					],
					"ERC20InsufficientBalance(address,uint256,uint256)": [
						{
							"details": "Indicates an error related to the current `balance` of a `sender`. Used in transfers.",
							"params": {
								"balance": "Current balance for the interacting account.",
								"needed": "Minimum amount required to perform a transfer.",
								"sender": "Address whose tokens are being transferred."
							}
						}
					],
					"ERC20InvalidApprover(address)": [
						{
							"details": "Indicates a failure with the `approver` of a token to be approved. Used in approvals.",
							"params": {
								"approver": "Address initiating an approval operation."
							}
						}
					],
					"ERC20InvalidReceiver(address)": [
						{
							"details": "Indicates a failure with the token `receiver`. Used in transfers.",
							"params": {
								"receiver": "Address to which tokens are being transferred."
							}
						}
					],
					"ERC20InvalidSender(address)": [
						{
							"details": "Indicates a failure with the token `sender`. Used in transfers.",
							"params": {
								"sender": "Address whose tokens are being transferred."
							}
						}
					],
					"ERC20InvalidSpender(address)": [
						{
							"details": "Indicates a failure with the `spender` to be approved. Used in approvals.",
							"params": {
								"spender": "Address that may be allowed to operate on tokens without being their owner."
							}
						}
					],
					"OwnableInvalidOwner(address)": [
						{
							"details": "The owner is not a valid owner account. (eg. `address(0)`)"
						}
					],
					"OwnableUnauthorizedAccount(address)": [
						{
							"details": "The caller account is not authorized to perform an operation."
						}
					]
				},
				"events": {
					"Approval(address,address,uint256)": {
						"details": "Emitted when the allowance of a `spender` for an `owner` is set by a call to {approve}. `value` is the new allowance."
					},
					"Transfer(address,address,uint256)": {
						"details": "Emitted when `value` tokens are moved from one account (`from`) to another (`to`). Note that `value` may be zero."
					}
				},
				"kind": "dev",
				"methods": {
					"allowance(address,address)": {
						"details": "See {IERC20-allowance}."
					},
					"approve(address,uint256)": {
						"details": "See {IERC20-approve}. NOTE: If `value` is the maximum `uint256`, the allowance is not updated on `transferFrom`. This is semantically equivalent to an infinite approval. Requirements: - `spender` cannot be the zero address."
					},
					"balanceOf(address)": {
						"details": "See {IERC20-balanceOf}."
					},
					"decimals()": {
						"details": "Returns the number of decimals used to get its user representation. For example, if `decimals` equals `2`, a balance of `505` tokens should be displayed to a user as `5.05` (`505 / 10 ** 2`). Tokens usually opt for a value of 18, imitating the relationship between Ether and Wei. This is the default value returned by this function, unless it's overridden. NOTE: This information is only used for _display_ purposes: it in no way affects any of the arithmetic of the contract, including {IERC20-balanceOf} and {IERC20-transfer}."
					},
					"name()": {
						"details": "Returns the name of the token."
					},
					"owner()": {
						"details": "Returns the address of the current owner."
					},
					"renounceOwnership()": {
						"details": "Leaves the contract without owner. It will not be possible to call `onlyOwner` functions. Can only be called by the current owner. NOTE: Renouncing ownership will leave the contract without an owner, thereby disabling any functionality that is only available to the owner."
					},
					"symbol()": {
						"details": "Returns the symbol of the token, usually a shorter version of the name."
					},
					"totalSupply()": {
						"details": "See {IERC20-totalSupply}."
					},
					"transfer(address,uint256)": {
						"details": "See {IERC20-transfer}. Requirements: - `to` cannot be the zero address. - the caller must have a balance of at least `value`."
					},
					"transferFrom(address,address,uint256)": {
						"details": "See {IERC20-transferFrom}. Skips emitting an {Approval} event indicating an allowance update. This is not required by the ERC. See {xref-ERC20-_approve-address-address-uint256-bool-}[_approve]. NOTE: Does not update the allowance if the current allowance is the maximum `uint256`. Requirements: - `from` and `to` cannot be the zero address. - `from` must have a balance of at least `value`. - the caller must have allowance for ``from``'s tokens of at least `value`."
					},
					"transferOwnership(address)": {
						"details": "Transfers ownership of the contract to a new account (`newOwner`). Can only be called by the current owner."
					}
				},
				"version": 1
			},
			"evm": {
				"assembly": "    /* \"HumAidToken.sol\":174:5471  contract HumAid is ERC20, Ownable(address(msg.sender)) {... */\n  mstore(0x40, 0x80)\n    /* \"HumAidToken.sol\":264:265  5 */\n  0x05\n    /* \"HumAidToken.sol\":236:265  uint256 public feePercent = 5 */\n  0x06\n  sstore\n    /* \"HumAidToken.sol\":477:681  constructor() ERC20(\"HumAid\", \"HUM\") {... */\n  callvalue\n  dup1\n  iszero\n  tag_1\n  jumpi\n  0x00\n  dup1\n  revert\ntag_1:\n  pop\n    /* \"HumAidToken.sol\":216:226  msg.sender */\n  caller\n    /* \"@openzeppelin/contracts/token/ERC20/ERC20.sol\":1582:1695  constructor(string memory name_, string memory symbol_) {... */\n  mload(0x40)\n  dup1\n  0x40\n  add\n  0x40\n  mstore\n  dup1\n  0x06\n  dup2\n  mstore\n  0x20\n  add\n  0x48756d4169640000000000000000000000000000000000000000000000000000\n  dup2\n  mstore\n  pop\n  mload(0x40)\n  dup1\n  0x40\n  add\n  0x40\n  mstore\n  dup1\n  0x03\n  dup2\n  mstore\n  0x20\n  add\n  0x48554d0000000000000000000000000000000000000000000000000000000000\n  dup2\n  mstore\n  pop\n    /* \"@openzeppelin/contracts/token/ERC20/ERC20.sol\":1656:1661  name_ */\n  dup2\n    /* \"@openzeppelin/contracts/token/ERC20/ERC20.sol\":1648:1653  _name */\n  0x03\n    /* \"@openzeppelin/contracts/token/ERC20/ERC20.sol\":1648:1661  _name = name_ */\n  swap1\n  dup2\n  tag_6\n  swap2\n  swap1\n  tag_7\n  jump\t// in\ntag_6:\n  pop\n    /* \"@openzeppelin/contracts/token/ERC20/ERC20.sol\":1681:1688  symbol_ */\n  dup1\n    /* \"@openzeppelin/contracts/token/ERC20/ERC20.sol\":1671:1678  _symbol */\n  0x04\n    /* \"@openzeppelin/contracts/token/ERC20/ERC20.sol\":1671:1688  _symbol = symbol_ */\n  swap1\n  dup2\n  tag_8\n  swap2\n  swap1\n  tag_7\n  jump\t// in\ntag_8:\n  pop\n    /* \"@openzeppelin/contracts/token/ERC20/ERC20.sol\":1582:1695  constructor(string memory name_, string memory symbol_) {... */\n  pop\n  pop\n    /* \"@openzeppelin/contracts/access/Ownable.sol\":1297:1298  0 */\n  0x00\n    /* \"@openzeppelin/contracts/access/Ownable.sol\":1273:1299  initialOwner == address(0) */\n  0xffffffffffffffffffffffffffffffffffffffff\n  and\n    /* \"@openzeppelin/contracts/access/Ownable.sol\":1273:1285  initialOwner */\n  dup2\n    /* \"@openzeppelin/contracts/access/Ownable.sol\":1273:1299  initialOwner == address(0) */\n  0xffffffffffffffffffffffffffffffffffffffff\n  and\n  sub\n    /* \"@openzeppelin/contracts/access/Ownable.sol\":1269:1364  if (initialOwner == address(0)) {... */\n  tag_10\n  jumpi\n    /* \"@openzeppelin/contracts/access/Ownable.sol\":1350:1351  0 */\n  0x00\n    /* \"@openzeppelin/contracts/access/Ownable.sol\":1322:1353  OwnableInvalidOwner(address(0)) */\n  mload(0x40)\n  0x1e4fbdf700000000000000000000000000000000000000000000000000000000\n  dup2\n  mstore\n  0x04\n  add\n  tag_11\n  swap2\n  swap1\n  tag_12\n  jump\t// in\ntag_11:\n  mload(0x40)\n  dup1\n  swap2\n  sub\n  swap1\n  revert\n    /* \"@openzeppelin/contracts/access/Ownable.sol\":1269:1364  if (initialOwner == address(0)) {... */\ntag_10:\n    /* \"@openzeppelin/contracts/access/Ownable.sol\":1373:1405  _transferOwnership(initialOwner) */\n  tag_13\n    /* \"@openzeppelin/contracts/access/Ownable.sol\":1392:1404  initialOwner */\n  dup2\n    /* \"@openzeppelin/contracts/access/Ownable.sol\":1373:1391  _transferOwnership */\n  shl(0x20, tag_14)\n    /* \"@openzeppelin/contracts/access/Ownable.sol\":1373:1405  _transferOwnership(initialOwner) */\n  0x20\n  shr\n  jump\t// in\ntag_13:\n    /* \"@openzeppelin/contracts/access/Ownable.sol\":1225:1412  constructor(address initialOwner) {... */\n  pop\n    /* \"HumAidToken.sol\":558:562  true */\n  0x01\n    /* \"HumAidToken.sol\":525:543  _isExcludedFromFee */\n  0x09\n    /* \"HumAidToken.sol\":525:555  _isExcludedFromFee[msg.sender] */\n  0x00\n    /* \"HumAidToken.sol\":544:554  msg.sender */\n  caller\n    /* \"HumAidToken.sol\":525:555  _isExcludedFromFee[msg.sender] */\n  0xffffffffffffffffffffffffffffffffffffffff\n  and\n  0xffffffffffffffffffffffffffffffffffffffff\n  and\n  dup2\n  mstore\n  0x20\n  add\n  swap1\n  dup2\n  mstore\n  0x20\n  add\n  0x00\n  keccak256\n  0x00\n    /* \"HumAidToken.sol\":525:562  _isExcludedFromFee[msg.sender] = true */\n  0x0100\n  exp\n  dup2\n  sload\n  dup2\n  0xff\n  mul\n  not\n  and\n  swap1\n  dup4\n  iszero\n  iszero\n  mul\n  or\n  swap1\n  sstore\n  pop\n    /* \"HumAidToken.sol\":622:673  _mint(msg.sender, 1_000_000_000 * 10 ** decimals()) */\n  tag_16\n    /* \"HumAidToken.sol\":628:638  msg.sender */\n  caller\n    /* \"HumAidToken.sol\":662:672  decimals() */\n  tag_17\n    /* \"HumAidToken.sol\":662:670  decimals */\n  shl(0x20, tag_18)\n    /* \"HumAidToken.sol\":662:672  decimals() */\n  0x20\n  shr\n  jump\t// in\ntag_17:\n    /* \"HumAidToken.sol\":656:658  10 */\n  0x0a\n    /* \"HumAidToken.sol\":656:672  10 ** decimals() */\n  tag_19\n  swap2\n  swap1\n  tag_20\n  jump\t// in\ntag_19:\n    /* \"HumAidToken.sol\":640:653  1_000_000_000 */\n  0x3b9aca00\n    /* \"HumAidToken.sol\":640:672  1_000_000_000 * 10 ** decimals() */\n  tag_21\n  swap2\n  swap1\n  tag_22\n  jump\t// in\ntag_21:\n    /* \"HumAidToken.sol\":622:627  _mint */\n  shl(0x20, tag_23)\n    /* \"HumAidToken.sol\":622:673  _mint(msg.sender, 1_000_000_000 * 10 ** decimals()) */\n  0x20\n  shr\n  jump\t// in\ntag_16:\n    /* \"HumAidToken.sol\":174:5471  contract HumAid is ERC20, Ownable(address(msg.sender)) {... */\n  jump(tag_24)\n    /* \"@openzeppelin/contracts/access/Ownable.sol\":2912:3099  function _transferOwnership(address newOwner) internal virtual {... */\ntag_14:\n    /* \"@openzeppelin/contracts/access/Ownable.sol\":2985:3001  address oldOwner */\n  0x00\n    /* \"@openzeppelin/contracts/access/Ownable.sol\":3004:3010  _owner */\n  0x05\n  0x00\n  swap1\n  sload\n  swap1\n  0x0100\n  exp\n  swap1\n  div\n  0xffffffffffffffffffffffffffffffffffffffff\n  and\n    /* \"@openzeppelin/contracts/access/Ownable.sol\":2985:3010  address oldOwner = _owner */\n  swap1\n  pop\n    /* \"@openzeppelin/contracts/access/Ownable.sol\":3029:3037  newOwner */\n  dup2\n    /* \"@openzeppelin/contracts/access/Ownable.sol\":3020:3026  _owner */\n  0x05\n  0x00\n    /* \"@openzeppelin/contracts/access/Ownable.sol\":3020:3037  _owner = newOwner */\n  0x0100\n  exp\n  dup2\n  sload\n  dup2\n  0xffffffffffffffffffffffffffffffffffffffff\n  mul\n  not\n  and\n  swap1\n  dup4\n  0xffffffffffffffffffffffffffffffffffffffff\n  and\n  mul\n  or\n  swap1\n  sstore\n  pop\n    /* \"@openzeppelin/contracts/access/Ownable.sol\":3083:3091  newOwner */\n  dup2\n    /* \"@openzeppelin/contracts/access/Ownable.sol\":3052:3092  OwnershipTransferred(oldOwner, newOwner) */\n  0xffffffffffffffffffffffffffffffffffffffff\n  and\n    /* \"@openzeppelin/contracts/access/Ownable.sol\":3073:3081  oldOwner */\n  dup2\n    /* \"@openzeppelin/contracts/access/Ownable.sol\":3052:3092  OwnershipTransferred(oldOwner, newOwner) */\n  0xffffffffffffffffffffffffffffffffffffffff\n  and\n  0x8be0079c531659141344cd1fd0a4f28419497f9722a3daafe3b4186f6b6457e0\n  mload(0x40)\n  mload(0x40)\n  dup1\n  swap2\n  sub\n  swap1\n  log3\n    /* \"@openzeppelin/contracts/access/Ownable.sol\":2975:3099  {... */\n  pop\n    /* \"@openzeppelin/contracts/access/Ownable.sol\":2912:3099  function _transferOwnership(address newOwner) internal virtual {... */\n  pop\n  jump\t// out\n    /* \"@openzeppelin/contracts/token/ERC20/ERC20.sol\":2688:2770  function decimals() public view virtual returns (uint8) {... */\ntag_18:\n    /* \"@openzeppelin/contracts/token/ERC20/ERC20.sol\":2737:2742  uint8 */\n  0x00\n    /* \"@openzeppelin/contracts/token/ERC20/ERC20.sol\":2761:2763  18 */\n  0x12\n    /* \"@openzeppelin/contracts/token/ERC20/ERC20.sol\":2754:2763  return 18 */\n  swap1\n  pop\n    /* \"@openzeppelin/contracts/token/ERC20/ERC20.sol\":2688:2770  function decimals() public view virtual returns (uint8) {... */\n  swap1\n  jump\t// out\n    /* \"@openzeppelin/contracts/token/ERC20/ERC20.sol\":7439:7647  function _mint(address account, uint256 value) internal {... */\ntag_23:\n    /* \"@openzeppelin/contracts/token/ERC20/ERC20.sol\":7528:7529  0 */\n  0x00\n    /* \"@openzeppelin/contracts/token/ERC20/ERC20.sol\":7509:7530  account == address(0) */\n  0xffffffffffffffffffffffffffffffffffffffff\n  and\n    /* \"@openzeppelin/contracts/token/ERC20/ERC20.sol\":7509:7516  account */\n  dup3\n    /* \"@openzeppelin/contracts/token/ERC20/ERC20.sol\":7509:7530  account == address(0) */\n  0xffffffffffffffffffffffffffffffffffffffff\n  and\n  sub\n    /* \"@openzeppelin/contracts/token/ERC20/ERC20.sol\":7505:7596  if (account == address(0)) {... */\n  tag_28\n  jumpi\n    /* \"@openzeppelin/contracts/token/ERC20/ERC20.sol\":7582:7583  0 */\n  0x00\n    /* \"@openzeppelin/contracts/token/ERC20/ERC20.sol\":7553:7585  ERC20InvalidReceiver(address(0)) */\n  mload(0x40)\n  0xec442f0500000000000000000000000000000000000000000000000000000000\n  dup2\n  mstore\n  0x04\n  add\n  tag_29\n  swap2\n  swap1\n  tag_12\n  jump\t// in\ntag_29:\n  mload(0x40)\n  dup1\n  swap2\n  sub\n  swap1\n  revert\n    /* \"@openzeppelin/contracts/token/ERC20/ERC20.sol\":7505:7596  if (account == address(0)) {... */\ntag_28:\n    /* \"@openzeppelin/contracts/token/ERC20/ERC20.sol\":7605:7640  _update(address(0), account, value) */\n  tag_30\n    /* \"@openzeppelin/contracts/token/ERC20/ERC20.sol\":7621:7622  0 */\n  0x00\n    /* \"@openzeppelin/contracts/token/ERC20/ERC20.sol\":7625:7632  account */\n  dup4\n    /* \"@openzeppelin/contracts/token/ERC20/ERC20.sol\":7634:7639  value */\n  dup4\n    /* \"@openzeppelin/contracts/token/ERC20/ERC20.sol\":7605:7612  _update */\n  shl(0x20, tag_31)\n    /* \"@openzeppelin/contracts/token/ERC20/ERC20.sol\":7605:7640  _update(address(0), account, value) */\n  0x20\n  shr\n  jump\t// in\ntag_30:\n    /* \"@openzeppelin/contracts/token/ERC20/ERC20.sol\":7439:7647  function _mint(address account, uint256 value) internal {... */\n  pop\n  pop\n  jump\t// out\n    /* \"HumAidToken.sol\":4657:5468  function _update(address from, address to, uint256 value) internal override {... */\ntag_31:\n    /* \"HumAidToken.sol\":4748:4766  _isExcludedFromFee */\n  0x09\n    /* \"HumAidToken.sol\":4748:4772  _isExcludedFromFee[from] */\n  0x00\n    /* \"HumAidToken.sol\":4767:4771  from */\n  dup5\n    /* \"HumAidToken.sol\":4748:4772  _isExcludedFromFee[from] */\n  0xffffffffffffffffffffffffffffffffffffffff\n  and\n  0xffffffffffffffffffffffffffffffffffffffff\n  and\n  dup2\n  mstore\n  0x20\n  add\n  swap1\n  dup2\n  mstore\n  0x20\n  add\n  0x00\n  keccak256\n  0x00\n  swap1\n  sload\n  swap1\n  0x0100\n  exp\n  swap1\n  div\n  0xff\n  and\n    /* \"HumAidToken.sol\":4748:4798  _isExcludedFromFee[from] || _isExcludedFromFee[to] */\n  dup1\n  tag_33\n  jumpi\n  pop\n    /* \"HumAidToken.sol\":4776:4794  _isExcludedFromFee */\n  0x09\n    /* \"HumAidToken.sol\":4776:4798  _isExcludedFromFee[to] */\n  0x00\n    /* \"HumAidToken.sol\":4795:4797  to */\n  dup4\n    /* \"HumAidToken.sol\":4776:4798  _isExcludedFromFee[to] */\n  0xffffffffffffffffffffffffffffffffffffffff\n  and\n  0xffffffffffffffffffffffffffffffffffffffff\n  and\n  dup2\n  mstore\n  0x20\n  add\n  swap1\n  dup2\n  mstore\n  0x20\n  add\n  0x00\n  keccak256\n  0x00\n  swap1\n  sload\n  swap1\n  0x0100\n  exp\n  swap1\n  div\n  0xff\n  and\n    /* \"HumAidToken.sol\":4748:4798  _isExcludedFromFee[from] || _isExcludedFromFee[to] */\ntag_33:\n    /* \"HumAidToken.sol\":4748:4817  _isExcludedFromFee[from] || _isExcludedFromFee[to] || feePercent == 0 */\n  dup1\n  tag_34\n  jumpi\n  pop\n    /* \"HumAidToken.sol\":4816:4817  0 */\n  0x00\n    /* \"HumAidToken.sol\":4802:4812  feePercent */\n  sload(0x06)\n    /* \"HumAidToken.sol\":4802:4817  feePercent == 0 */\n  eq\n    /* \"HumAidToken.sol\":4748:4817  _isExcludedFromFee[from] || _isExcludedFromFee[to] || feePercent == 0 */\ntag_34:\n    /* \"HumAidToken.sol\":4744:5461  if (_isExcludedFromFee[from] || _isExcludedFromFee[to] || feePercent == 0) {... */\n  iszero\n  tag_35\n  jumpi\n    /* \"HumAidToken.sol\":4834:4864  super._update(from, to, value) */\n  tag_36\n    /* \"HumAidToken.sol\":4848:4852  from */\n  dup4\n    /* \"HumAidToken.sol\":4854:4856  to */\n  dup4\n    /* \"HumAidToken.sol\":4858:4863  value */\n  dup4\n    /* \"HumAidToken.sol\":4834:4847  super._update */\n  shl(0x20, tag_37)\n    /* \"HumAidToken.sol\":4834:4864  super._update(from, to, value) */\n  0x20\n  shr\n  jump\t// in\ntag_36:\n    /* \"HumAidToken.sol\":4744:5461  if (_isExcludedFromFee[from] || _isExcludedFromFee[to] || feePercent == 0) {... */\n  jump(tag_38)\ntag_35:\n    /* \"HumAidToken.sol\":4897:4908  uint256 fee */\n  0x00\n    /* \"HumAidToken.sol\":4934:4938  1000 */\n  0x03e8\n    /* \"HumAidToken.sol\":4920:4930  feePercent */\n  sload(0x06)\n    /* \"HumAidToken.sol\":4912:4917  value */\n  dup4\n    /* \"HumAidToken.sol\":4912:4930  value * feePercent */\n  tag_39\n  swap2\n  swap1\n  tag_22\n  jump\t// in\ntag_39:\n    /* \"HumAidToken.sol\":4911:4938  (value * feePercent) / 1000 */\n  tag_40\n  swap2\n  swap1\n  tag_41\n  jump\t// in\ntag_40:\n    /* \"HumAidToken.sol\":4897:4938  uint256 fee = (value * feePercent) / 1000 */\n  swap1\n  pop\n    /* \"HumAidToken.sol\":4953:4975  uint256 amountAfterFee */\n  0x00\n    /* \"HumAidToken.sol\":4986:4989  fee */\n  dup2\n    /* \"HumAidToken.sol\":4978:4983  value */\n  dup4\n    /* \"HumAidToken.sol\":4978:4989  value - fee */\n  tag_42\n  swap2\n  swap1\n  tag_43\n  jump\t// in\ntag_42:\n    /* \"HumAidToken.sol\":4953:4989  uint256 amountAfterFee = value - fee */\n  swap1\n  pop\n    /* \"HumAidToken.sol\":5004:5017  uint256 share */\n  0x00\n    /* \"HumAidToken.sol\":5041:5042  0 */\n  dup1\n    /* \"HumAidToken.sol\":5020:5030  ngoWallets */\n  0x08\n    /* \"HumAidToken.sol\":5020:5037  ngoWallets.length */\n  dup1\n  sload\n  swap1\n  pop\n    /* \"HumAidToken.sol\":5020:5042  ngoWallets.length != 0 */\n  sub\n    /* \"HumAidToken.sol\":5020:5072  ngoWallets.length != 0 ? fee / ngoWallets.length : 1 */\n  tag_44\n  jumpi\n    /* \"HumAidToken.sol\":5071:5072  1 */\n  0x01\n    /* \"HumAidToken.sol\":5020:5072  ngoWallets.length != 0 ? fee / ngoWallets.length : 1 */\n  jump(tag_45)\ntag_44:\n    /* \"HumAidToken.sol\":5051:5061  ngoWallets */\n  0x08\n    /* \"HumAidToken.sol\":5051:5068  ngoWallets.length */\n  dup1\n  sload\n  swap1\n  pop\n    /* \"HumAidToken.sol\":5045:5048  fee */\n  dup4\n    /* \"HumAidToken.sol\":5045:5068  fee / ngoWallets.length */\n  tag_46\n  swap2\n  swap1\n  tag_41\n  jump\t// in\ntag_46:\n    /* \"HumAidToken.sol\":5020:5072  ngoWallets.length != 0 ? fee / ngoWallets.length : 1 */\ntag_45:\n    /* \"HumAidToken.sol\":5004:5072  uint256 share = ngoWallets.length != 0 ? fee / ngoWallets.length : 1 */\n  swap1\n  pop\n    /* \"HumAidToken.sol\":5087:5104  uint256 remainder */\n  0x00\n    /* \"HumAidToken.sol\":5122:5132  ngoWallets */\n  0x08\n    /* \"HumAidToken.sol\":5122:5139  ngoWallets.length */\n  dup1\n  sload\n  swap1\n  pop\n    /* \"HumAidToken.sol\":5114:5119  share */\n  dup3\n    /* \"HumAidToken.sol\":5114:5139  share * ngoWallets.length */\n  tag_47\n  swap2\n  swap1\n  tag_22\n  jump\t// in\ntag_47:\n    /* \"HumAidToken.sol\":5107:5110  fee */\n  dup5\n    /* \"HumAidToken.sol\":5107:5140  fee - (share * ngoWallets.length) */\n  tag_48\n  swap2\n  swap1\n  tag_43\n  jump\t// in\ntag_48:\n    /* \"HumAidToken.sol\":5087:5140  uint256 remainder = fee - (share * ngoWallets.length) */\n  swap1\n  pop\n    /* \"HumAidToken.sol\":5162:5168  uint i */\n  0x00\n    /* \"HumAidToken.sol\":5157:5278  for (uint i = 0; i < ngoWallets.length; ++i) {... */\ntag_49:\n    /* \"HumAidToken.sol\":5178:5188  ngoWallets */\n  0x08\n    /* \"HumAidToken.sol\":5178:5195  ngoWallets.length */\n  dup1\n  sload\n  swap1\n  pop\n    /* \"HumAidToken.sol\":5174:5175  i */\n  dup2\n    /* \"HumAidToken.sol\":5174:5195  i < ngoWallets.length */\n  lt\n    /* \"HumAidToken.sol\":5157:5278  for (uint i = 0; i < ngoWallets.length; ++i) {... */\n  iszero\n  tag_50\n  jumpi\n    /* \"HumAidToken.sol\":5221:5262  super._update(from, ngoWallets[i], share) */\n  tag_52\n    /* \"HumAidToken.sol\":5235:5239  from */\n  dup9\n    /* \"HumAidToken.sol\":5241:5251  ngoWallets */\n  0x08\n    /* \"HumAidToken.sol\":5252:5253  i */\n  dup4\n    /* \"HumAidToken.sol\":5241:5254  ngoWallets[i] */\n  dup2\n  sload\n  dup2\n  lt\n  tag_53\n  jumpi\n  tag_54\n  tag_55\n  jump\t// in\ntag_54:\ntag_53:\n  swap1\n  0x00\n  mstore\n  keccak256(0x00, 0x20)\n  add\n  0x00\n  swap1\n  sload\n  swap1\n  0x0100\n  exp\n  swap1\n  div\n  0xffffffffffffffffffffffffffffffffffffffff\n  and\n    /* \"HumAidToken.sol\":5256:5261  share */\n  dup6\n    /* \"HumAidToken.sol\":5221:5234  super._update */\n  shl(0x20, tag_37)\n    /* \"HumAidToken.sol\":5221:5262  super._update(from, ngoWallets[i], share) */\n  0x20\n  shr\n  jump\t// in\ntag_52:\n    /* \"HumAidToken.sol\":5197:5200  ++i */\n  dup1\n  0x01\n  add\n  swap1\n  pop\n    /* \"HumAidToken.sol\":5157:5278  for (uint i = 0; i < ngoWallets.length; ++i) {... */\n  jump(tag_49)\ntag_50:\n  pop\n    /* \"HumAidToken.sol\":5310:5311  0 */\n  0x00\n    /* \"HumAidToken.sol\":5298:5307  remainder */\n  dup2\n    /* \"HumAidToken.sol\":5298:5311  remainder > 0 */\n  gt\n    /* \"HumAidToken.sol\":5294:5394  if (remainder > 0) {... */\n  iszero\n  tag_57\n  jumpi\n    /* \"HumAidToken.sol\":5332:5378  super._update(from, treasuryWallet, remainder) */\n  tag_58\n    /* \"HumAidToken.sol\":5346:5350  from */\n  dup8\n    /* \"HumAidToken.sol\":5352:5366  treasuryWallet */\n  0x0a\n  0x00\n  swap1\n  sload\n  swap1\n  0x0100\n  exp\n  swap1\n  div\n  0xffffffffffffffffffffffffffffffffffffffff\n  and\n    /* \"HumAidToken.sol\":5368:5377  remainder */\n  dup4\n    /* \"HumAidToken.sol\":5332:5345  super._update */\n  shl(0x20, tag_37)\n    /* \"HumAidToken.sol\":5332:5378  super._update(from, treasuryWallet, remainder) */\n  0x20\n  shr\n  jump\t// in\ntag_58:\n    /* \"HumAidToken.sol\":5294:5394  if (remainder > 0) {... */\ntag_57:\n    /* \"HumAidToken.sol\":5410:5449  super._update(from, to, amountAfterFee) */\n  tag_59\n    /* \"HumAidToken.sol\":5424:5428  from */\n  dup8\n    /* \"HumAidToken.sol\":5430:5432  to */\n  dup8\n    /* \"HumAidToken.sol\":5434:5448  amountAfterFee */\n  dup6\n    /* \"HumAidToken.sol\":5410:5423  super._update */\n  shl(0x20, tag_37)\n    /* \"HumAidToken.sol\":5410:5449  super._update(from, to, amountAfterFee) */\n  0x20\n  shr\n  jump\t// in\ntag_59:\n    /* \"HumAidToken.sol\":4882:5461  {... */\n  pop\n  pop\n  pop\n  pop\n    /* \"HumAidToken.sol\":4744:5461  if (_isExcludedFromFee[from] || _isExcludedFromFee[to] || feePercent == 0) {... */\ntag_38:\n    /* \"HumAidToken.sol\":4657:5468  function _update(address from, address to, uint256 value) internal override {... */\n  pop\n  pop\n  pop\n  jump\t// out\n    /* \"@openzeppelin/contracts/token/ERC20/ERC20.sol\":5989:7096  function _update(address from, address to, uint256 value) internal virtual {... */\ntag_37:\n    /* \"@openzeppelin/contracts/token/ERC20/ERC20.sol\":6094:6095  0 */\n  0x00\n    /* \"@openzeppelin/contracts/token/ERC20/ERC20.sol\":6078:6096  from == address(0) */\n  0xffffffffffffffffffffffffffffffffffffffff\n  and\n    /* \"@openzeppelin/contracts/token/ERC20/ERC20.sol\":6078:6082  from */\n  dup4\n    /* \"@openzeppelin/contracts/token/ERC20/ERC20.sol\":6078:6096  from == address(0) */\n  0xffffffffffffffffffffffffffffffffffffffff\n  and\n  sub\n    /* \"@openzeppelin/contracts/token/ERC20/ERC20.sol\":6074:6614  if (from == address(0)) {... */\n  tag_61\n  jumpi\n    /* \"@openzeppelin/contracts/token/ERC20/ERC20.sol\":6230:6235  value */\n  dup1\n    /* \"@openzeppelin/contracts/token/ERC20/ERC20.sol\":6214:6226  _totalSupply */\n  0x02\n  0x00\n    /* \"@openzeppelin/contracts/token/ERC20/ERC20.sol\":6214:6235  _totalSupply += value */\n  dup3\n  dup3\n  sload\n  tag_62\n  swap2\n  swap1\n  tag_63\n  jump\t// in\ntag_62:\n  swap3\n  pop\n  pop\n  dup2\n  swap1\n  sstore\n  pop\n    /* \"@openzeppelin/contracts/token/ERC20/ERC20.sol\":6074:6614  if (from == address(0)) {... */\n  jump(tag_64)\ntag_61:\n    /* \"@openzeppelin/contracts/token/ERC20/ERC20.sol\":6266:6285  uint256 fromBalance */\n  0x00\n    /* \"@openzeppelin/contracts/token/ERC20/ERC20.sol\":6288:6297  _balances */\n  dup1\n    /* \"@openzeppelin/contracts/token/ERC20/ERC20.sol\":6288:6303  _balances[from] */\n  0x00\n    /* \"@openzeppelin/contracts/token/ERC20/ERC20.sol\":6298:6302  from */\n  dup6\n    /* \"@openzeppelin/contracts/token/ERC20/ERC20.sol\":6288:6303  _balances[from] */\n  0xffffffffffffffffffffffffffffffffffffffff\n  and\n  0xffffffffffffffffffffffffffffffffffffffff\n  and\n  dup2\n  mstore\n  0x20\n  add\n  swap1\n  dup2\n  mstore\n  0x20\n  add\n  0x00\n  keccak256\n  sload\n    /* \"@openzeppelin/contracts/token/ERC20/ERC20.sol\":6266:6303  uint256 fromBalance = _balances[from] */\n  swap1\n  pop\n    /* \"@openzeppelin/contracts/token/ERC20/ERC20.sol\":6335:6340  value */\n  dup2\n    /* \"@openzeppelin/contracts/token/ERC20/ERC20.sol\":6321:6332  fromBalance */\n  dup2\n    /* \"@openzeppelin/contracts/token/ERC20/ERC20.sol\":6321:6340  fromBalance < value */\n  lt\n    /* \"@openzeppelin/contracts/token/ERC20/ERC20.sol\":6317:6432  if (fromBalance < value) {... */\n  iszero\n  tag_65\n  jumpi\n    /* \"@openzeppelin/contracts/token/ERC20/ERC20.sol\":6392:6396  from */\n  dup4\n    /* \"@openzeppelin/contracts/token/ERC20/ERC20.sol\":6398:6409  fromBalance */\n  dup2\n    /* \"@openzeppelin/contracts/token/ERC20/ERC20.sol\":6411:6416  value */\n  dup4\n    /* \"@openzeppelin/contracts/token/ERC20/ERC20.sol\":6367:6417  ERC20InsufficientBalance(from, fromBalance, value) */\n  mload(0x40)\n  0xe450d38c00000000000000000000000000000000000000000000000000000000\n  dup2\n  mstore\n  0x04\n  add\n  tag_66\n  swap4\n  swap3\n  swap2\n  swap1\n  tag_67\n  jump\t// in\ntag_66:\n  mload(0x40)\n  dup1\n  swap2\n  sub\n  swap1\n  revert\n    /* \"@openzeppelin/contracts/token/ERC20/ERC20.sol\":6317:6432  if (fromBalance < value) {... */\ntag_65:\n    /* \"@openzeppelin/contracts/token/ERC20/ERC20.sol\":6584:6589  value */\n  dup2\n    /* \"@openzeppelin/contracts/token/ERC20/ERC20.sol\":6570:6581  fromBalance */\n  dup2\n    /* \"@openzeppelin/contracts/token/ERC20/ERC20.sol\":6570:6589  fromBalance - value */\n  sub\n    /* \"@openzeppelin/contracts/token/ERC20/ERC20.sol\":6552:6561  _balances */\n  0x00\n    /* \"@openzeppelin/contracts/token/ERC20/ERC20.sol\":6552:6567  _balances[from] */\n  dup1\n    /* \"@openzeppelin/contracts/token/ERC20/ERC20.sol\":6562:6566  from */\n  dup7\n    /* \"@openzeppelin/contracts/token/ERC20/ERC20.sol\":6552:6567  _balances[from] */\n  0xffffffffffffffffffffffffffffffffffffffff\n  and\n  0xffffffffffffffffffffffffffffffffffffffff\n  and\n  dup2\n  mstore\n  0x20\n  add\n  swap1\n  dup2\n  mstore\n  0x20\n  add\n  0x00\n  keccak256\n    /* \"@openzeppelin/contracts/token/ERC20/ERC20.sol\":6552:6589  _balances[from] = fromBalance - value */\n  dup2\n  swap1\n  sstore\n  pop\n    /* \"@openzeppelin/contracts/token/ERC20/ERC20.sol\":6252:6614  {... */\n  pop\n    /* \"@openzeppelin/contracts/token/ERC20/ERC20.sol\":6074:6614  if (from == address(0)) {... */\ntag_64:\n    /* \"@openzeppelin/contracts/token/ERC20/ERC20.sol\":6642:6643  0 */\n  0x00\n    /* \"@openzeppelin/contracts/token/ERC20/ERC20.sol\":6628:6644  to == address(0) */\n  0xffffffffffffffffffffffffffffffffffffffff\n  and\n    /* \"@openzeppelin/contracts/token/ERC20/ERC20.sol\":6628:6630  to */\n  dup3\n    /* \"@openzeppelin/contracts/token/ERC20/ERC20.sol\":6628:6644  to == address(0) */\n  0xffffffffffffffffffffffffffffffffffffffff\n  and\n  sub\n    /* \"@openzeppelin/contracts/token/ERC20/ERC20.sol\":6624:7049  if (to == address(0)) {... */\n  tag_68\n  jumpi\n    /* \"@openzeppelin/contracts/token/ERC20/ERC20.sol\":6807:6812  value */\n  dup1\n    /* \"@openzeppelin/contracts/token/ERC20/ERC20.sol\":6791:6803  _totalSupply */\n  0x02\n  0x00\n    /* \"@openzeppelin/contracts/token/ERC20/ERC20.sol\":6791:6812  _totalSupply -= value */\n  dup3\n  dup3\n  sload\n  sub\n  swap3\n  pop\n  pop\n  dup2\n  swap1\n  sstore\n  pop\n    /* \"@openzeppelin/contracts/token/ERC20/ERC20.sol\":6624:7049  if (to == address(0)) {... */\n  jump(tag_69)\ntag_68:\n    /* \"@openzeppelin/contracts/token/ERC20/ERC20.sol\":7019:7024  value */\n  dup1\n    /* \"@openzeppelin/contracts/token/ERC20/ERC20.sol\":7002:7011  _balances */\n  0x00\n    /* \"@openzeppelin/contracts/token/ERC20/ERC20.sol\":7002:7015  _balances[to] */\n  dup1\n    /* \"@openzeppelin/contracts/token/ERC20/ERC20.sol\":7012:7014  to */\n  dup5\n    /* \"@openzeppelin/contracts/token/ERC20/ERC20.sol\":7002:7015  _balances[to] */\n  0xffffffffffffffffffffffffffffffffffffffff\n  and\n  0xffffffffffffffffffffffffffffffffffffffff\n  and\n  dup2\n  mstore\n  0x20\n  add\n  swap1\n  dup2\n  mstore\n  0x20\n  add\n  0x00\n  keccak256\n  0x00\n    /* \"@openzeppelin/contracts/token/ERC20/ERC20.sol\":7002:7024  _balances[to] += value */\n  dup3\n  dup3\n  sload\n  add\n  swap3\n  pop\n  pop\n  dup2\n  swap1\n  sstore\n  pop\n    /* \"@openzeppelin/contracts/token/ERC20/ERC20.sol\":6624:7049  if (to == address(0)) {... */\ntag_69:\n    /* \"@openzeppelin/contracts/token/ERC20/ERC20.sol\":7079:7081  to */\n  dup2\n    /* \"@openzeppelin/contracts/token/ERC20/ERC20.sol\":7064:7089  Transfer(from, to, value) */\n  0xffffffffffffffffffffffffffffffffffffffff\n  and\n    /* \"@openzeppelin/contracts/token/ERC20/ERC20.sol\":7073:7077  from */\n  dup4\n    /* \"@openzeppelin/contracts/token/ERC20/ERC20.sol\":7064:7089  Transfer(from, to, value) */\n  0xffffffffffffffffffffffffffffffffffffffff\n  and\n  0xddf252ad1be2c89b69c2b068fc378daa952ba7f163c4a11628f55a4df523b3ef\n    /* \"@openzeppelin/contracts/token/ERC20/ERC20.sol\":7083:7088  value */\n  dup4\n    /* \"@openzeppelin/contracts/token/ERC20/ERC20.sol\":7064:7089  Transfer(from, to, value) */\n  mload(0x40)\n  tag_70\n  swap2\n  swap1\n  tag_71\n  jump\t// in\ntag_70:\n  mload(0x40)\n  dup1\n  swap2\n  sub\n  swap1\n  log3\n    /* \"@openzeppelin/contracts/token/ERC20/ERC20.sol\":5989:7096  function _update(address from, address to, uint256 value) internal virtual {... */\n  pop\n  pop\n  pop\n  jump\t// out\n    /* \"#utility.yul\":7:106   */\ntag_72:\n    /* \"#utility.yul\":59:65   */\n  0x00\n    /* \"#utility.yul\":93:98   */\n  dup2\n    /* \"#utility.yul\":87:99   */\n  mload\n    /* \"#utility.yul\":77:99   */\n  swap1\n  pop\n    /* \"#utility.yul\":7:106   */\n  swap2\n  swap1\n  pop\n  jump\t// out\n    /* \"#utility.yul\":112:292   */\ntag_73:\n    /* \"#utility.yul\":160:237   */\n  0x4e487b7100000000000000000000000000000000000000000000000000000000\n    /* \"#utility.yul\":157:158   */\n  0x00\n    /* \"#utility.yul\":150:238   */\n  mstore\n    /* \"#utility.yul\":257:261   */\n  0x41\n    /* \"#utility.yul\":254:255   */\n  0x04\n    /* \"#utility.yul\":247:262   */\n  mstore\n    /* \"#utility.yul\":281:285   */\n  0x24\n    /* \"#utility.yul\":278:279   */\n  0x00\n    /* \"#utility.yul\":271:286   */\n  revert\n    /* \"#utility.yul\":298:478   */\ntag_74:\n    /* \"#utility.yul\":346:423   */\n  0x4e487b7100000000000000000000000000000000000000000000000000000000\n    /* \"#utility.yul\":343:344   */\n  0x00\n    /* \"#utility.yul\":336:424   */\n  mstore\n    /* \"#utility.yul\":443:447   */\n  0x22\n    /* \"#utility.yul\":440:441   */\n  0x04\n    /* \"#utility.yul\":433:448   */\n  mstore\n    /* \"#utility.yul\":467:471   */\n  0x24\n    /* \"#utility.yul\":464:465   */\n  0x00\n    /* \"#utility.yul\":457:472   */\n  revert\n    /* \"#utility.yul\":484:804   */\ntag_75:\n    /* \"#utility.yul\":528:534   */\n  0x00\n    /* \"#utility.yul\":565:566   */\n  0x02\n    /* \"#utility.yul\":559:563   */\n  dup3\n    /* \"#utility.yul\":555:567   */\n  div\n    /* \"#utility.yul\":545:567   */\n  swap1\n  pop\n    /* \"#utility.yul\":612:613   */\n  0x01\n    /* \"#utility.yul\":606:610   */\n  dup3\n    /* \"#utility.yul\":602:614   */\n  and\n    /* \"#utility.yul\":633:651   */\n  dup1\n    /* \"#utility.yul\":623:704   */\n  tag_107\n  jumpi\n    /* \"#utility.yul\":689:693   */\n  0x7f\n    /* \"#utility.yul\":681:687   */\n  dup3\n    /* \"#utility.yul\":677:694   */\n  and\n    /* \"#utility.yul\":667:694   */\n  swap2\n  pop\n    /* \"#utility.yul\":623:704   */\ntag_107:\n    /* \"#utility.yul\":751:753   */\n  0x20\n    /* \"#utility.yul\":743:749   */\n  dup3\n    /* \"#utility.yul\":740:754   */\n  lt\n    /* \"#utility.yul\":720:738   */\n  dup2\n    /* \"#utility.yul\":717:755   */\n  sub\n    /* \"#utility.yul\":714:798   */\n  tag_108\n  jumpi\n    /* \"#utility.yul\":770:788   */\n  tag_109\n  tag_74\n  jump\t// in\ntag_109:\n    /* \"#utility.yul\":714:798   */\ntag_108:\n    /* \"#utility.yul\":535:804   */\n  pop\n    /* \"#utility.yul\":484:804   */\n  swap2\n  swap1\n  pop\n  jump\t// out\n    /* \"#utility.yul\":810:951   */\ntag_76:\n    /* \"#utility.yul\":859:863   */\n  0x00\n    /* \"#utility.yul\":882:885   */\n  dup2\n    /* \"#utility.yul\":874:885   */\n  swap1\n  pop\n    /* \"#utility.yul\":905:908   */\n  dup2\n    /* \"#utility.yul\":902:903   */\n  0x00\n    /* \"#utility.yul\":895:909   */\n  mstore\n    /* \"#utility.yul\":939:943   */\n  0x20\n    /* \"#utility.yul\":936:937   */\n  0x00\n    /* \"#utility.yul\":926:944   */\n  keccak256\n    /* \"#utility.yul\":918:944   */\n  swap1\n  pop\n    /* \"#utility.yul\":810:951   */\n  swap2\n  swap1\n  pop\n  jump\t// out\n    /* \"#utility.yul\":957:1050   */\ntag_77:\n    /* \"#utility.yul\":994:1000   */\n  0x00\n    /* \"#utility.yul\":1041:1043   */\n  0x20\n    /* \"#utility.yul\":1036:1038   */\n  0x1f\n    /* \"#utility.yul\":1029:1034   */\n  dup4\n    /* \"#utility.yul\":1025:1039   */\n  add\n    /* \"#utility.yul\":1021:1044   */\n  div\n    /* \"#utility.yul\":1011:1044   */\n  swap1\n  pop\n    /* \"#utility.yul\":957:1050   */\n  swap2\n  swap1\n  pop\n  jump\t// out\n    /* \"#utility.yul\":1056:1163   */\ntag_78:\n    /* \"#utility.yul\":1100:1108   */\n  0x00\n    /* \"#utility.yul\":1150:1155   */\n  dup3\n    /* \"#utility.yul\":1144:1148   */\n  dup3\n    /* \"#utility.yul\":1140:1156   */\n  shl\n    /* \"#utility.yul\":1119:1156   */\n  swap1\n  pop\n    /* \"#utility.yul\":1056:1163   */\n  swap3\n  swap2\n  pop\n  pop\n  jump\t// out\n    /* \"#utility.yul\":1169:1562   */\ntag_79:\n    /* \"#utility.yul\":1238:1244   */\n  0x00\n    /* \"#utility.yul\":1288:1289   */\n  0x08\n    /* \"#utility.yul\":1276:1286   */\n  dup4\n    /* \"#utility.yul\":1272:1290   */\n  mul\n    /* \"#utility.yul\":1311:1408   */\n  tag_114\n    /* \"#utility.yul\":1341:1407   */\n  0xffffffffffffffffffffffffffffffffffffffffffffffffffffffffffffffff\n    /* \"#utility.yul\":1330:1339   */\n  dup3\n    /* \"#utility.yul\":1311:1408   */\n  tag_78\n  jump\t// in\ntag_114:\n    /* \"#utility.yul\":1429:1468   */\n  tag_115\n    /* \"#utility.yul\":1459:1467   */\n  dup7\n    /* \"#utility.yul\":1448:1457   */\n  dup4\n    /* \"#utility.yul\":1429:1468   */\n  tag_78\n  jump\t// in\ntag_115:\n    /* \"#utility.yul\":1417:1468   */\n  swap6\n  pop\n    /* \"#utility.yul\":1501:1505   */\n  dup1\n    /* \"#utility.yul\":1497:1506   */\n  not\n    /* \"#utility.yul\":1490:1495   */\n  dup5\n    /* \"#utility.yul\":1486:1507   */\n  and\n    /* \"#utility.yul\":1477:1507   */\n  swap4\n  pop\n    /* \"#utility.yul\":1550:1554   */\n  dup1\n    /* \"#utility.yul\":1540:1548   */\n  dup7\n    /* \"#utility.yul\":1536:1555   */\n  and\n    /* \"#utility.yul\":1529:1534   */\n  dup5\n    /* \"#utility.yul\":1526:1556   */\n  or\n    /* \"#utility.yul\":1516:1556   */\n  swap3\n  pop\n    /* \"#utility.yul\":1245:1562   */\n  pop\n  pop\n    /* \"#utility.yul\":1169:1562   */\n  swap4\n  swap3\n  pop\n  pop\n  pop\n  jump\t// out\n    /* \"#utility.yul\":1568:1645   */\ntag_80:\n    /* \"#utility.yul\":1605:1612   */\n  0x00\n    /* \"#utility.yul\":1634:1639   */\n  dup2\n    /* \"#utility.yul\":1623:1639   */\n  swap1\n  pop\n    /* \"#utility.yul\":1568:1645   */\n  swap2\n  swap1\n  pop\n  jump\t// out\n    /* \"#utility.yul\":1651:1711   */\ntag_81:\n    /* \"#utility.yul\":1679:1682   */\n  0x00\n    /* \"#utility.yul\":1700:1705   */\n  dup2\n    /* \"#utility.yul\":1693:1705   */\n  swap1\n  pop\n    /* \"#utility.yul\":1651:1711   */\n  swap2\n  swap1\n  pop\n  jump\t// out\n    /* \"#utility.yul\":1717:1859   */\ntag_82:\n    /* \"#utility.yul\":1767:1776   */\n  0x00\n    /* \"#utility.yul\":1800:1853   */\n  tag_119\n    /* \"#utility.yul\":1818:1852   */\n  tag_120\n    /* \"#utility.yul\":1827:1851   */\n  tag_121\n    /* \"#utility.yul\":1845:1850   */\n  dup5\n    /* \"#utility.yul\":1827:1851   */\n  tag_80\n  jump\t// in\ntag_121:\n    /* \"#utility.yul\":1818:1852   */\n  tag_81\n  jump\t// in\ntag_120:\n    /* \"#utility.yul\":1800:1853   */\n  tag_80\n  jump\t// in\ntag_119:\n    /* \"#utility.yul\":1787:1853   */\n  swap1\n  pop\n    /* \"#utility.yul\":1717:1859   */\n  swap2\n  swap1\n  pop\n  jump\t// out\n    /* \"#utility.yul\":1865:1940   */\ntag_83:\n    /* \"#utility.yul\":1908:1911   */\n  0x00\n    /* \"#utility.yul\":1929:1934   */\n  dup2\n    /* \"#utility.yul\":1922:1934   */\n  swap1\n  pop\n    /* \"#utility.yul\":1865:1940   */\n  swap2\n  swap1\n  pop\n  jump\t// out\n    /* \"#utility.yul\":1946:2215   */\ntag_84:\n    /* \"#utility.yul\":2056:2095   */\n  tag_124\n    /* \"#utility.yul\":2087:2094   */\n  dup4\n    /* \"#utility.yul\":2056:2095   */\n  tag_82\n  jump\t// in\ntag_124:\n    /* \"#utility.yul\":2117:2208   */\n  tag_125\n    /* \"#utility.yul\":2166:2207   */\n  tag_126\n    /* \"#utility.yul\":2190:2206   */\n  dup3\n    /* \"#utility.yul\":2166:2207   */\n  tag_83\n  jump\t// in\ntag_126:\n    /* \"#utility.yul\":2158:2164   */\n  dup5\n    /* \"#utility.yul\":2151:2155   */\n  dup5\n    /* \"#utility.yul\":2145:2156   */\n  sload\n    /* \"#utility.yul\":2117:2208   */\n  tag_79\n  jump\t// in\ntag_125:\n    /* \"#utility.yul\":2111:2115   */\n  dup3\n    /* \"#utility.yul\":2104:2209   */\n  sstore\n    /* \"#utility.yul\":2022:2215   */\n  pop\n    /* \"#utility.yul\":1946:2215   */\n  pop\n  pop\n  pop\n  jump\t// out\n    /* \"#utility.yul\":2221:2294   */\ntag_85:\n    /* \"#utility.yul\":2266:2269   */\n  0x00\n    /* \"#utility.yul\":2221:2294   */\n  swap1\n  jump\t// out\n    /* \"#utility.yul\":2300:2489   */\ntag_86:\n    /* \"#utility.yul\":2377:2409   */\n  tag_129\n  tag_85\n  jump\t// in\ntag_129:\n    /* \"#utility.yul\":2418:2483   */\n  tag_130\n    /* \"#utility.yul\":2476:2482   */\n  dup2\n    /* \"#utility.yul\":2468:2474   */\n  dup5\n    /* \"#utility.yul\":2462:2466   */\n  dup5\n    /* \"#utility.yul\":2418:2483   */\n  tag_84\n  jump\t// in\ntag_130:\n    /* \"#utility.yul\":2353:2489   */\n  pop\n    /* \"#utility.yul\":2300:2489   */\n  pop\n  pop\n  jump\t// out\n    /* \"#utility.yul\":2495:2681   */\ntag_87:\n    /* \"#utility.yul\":2555:2675   */\ntag_132:\n    /* \"#utility.yul\":2572:2575   */\n  dup2\n    /* \"#utility.yul\":2565:2570   */\n  dup2\n    /* \"#utility.yul\":2562:2576   */\n  lt\n    /* \"#utility.yul\":2555:2675   */\n  iszero\n  tag_134\n  jumpi\n    /* \"#utility.yul\":2626:2665   */\n  tag_135\n    /* \"#utility.yul\":2663:2664   */\n  0x00\n    /* \"#utility.yul\":2656:2661   */\n  dup3\n    /* \"#utility.yul\":2626:2665   */\n  tag_86\n  jump\t// in\ntag_135:\n    /* \"#utility.yul\":2599:2600   */\n  0x01\n    /* \"#utility.yul\":2592:2597   */\n  dup2\n    /* \"#utility.yul\":2588:2601   */\n  add\n    /* \"#utility.yul\":2579:2601   */\n  swap1\n  pop\n    /* \"#utility.yul\":2555:2675   */\n  jump(tag_132)\ntag_134:\n    /* \"#utility.yul\":2495:2681   */\n  pop\n  pop\n  jump\t// out\n    /* \"#utility.yul\":2687:3230   */\ntag_88:\n    /* \"#utility.yul\":2788:2790   */\n  0x1f\n    /* \"#utility.yul\":2783:2786   */\n  dup3\n    /* \"#utility.yul\":2780:2791   */\n  gt\n    /* \"#utility.yul\":2777:3223   */\n  iszero\n  tag_137\n  jumpi\n    /* \"#utility.yul\":2822:2860   */\n  tag_138\n    /* \"#utility.yul\":2854:2859   */\n  dup2\n    /* \"#utility.yul\":2822:2860   */\n  tag_76\n  jump\t// in\ntag_138:\n    /* \"#utility.yul\":2906:2935   */\n  tag_139\n    /* \"#utility.yul\":2924:2934   */\n  dup5\n    /* \"#utility.yul\":2906:2935   */\n  tag_77\n  jump\t// in\ntag_139:\n    /* \"#utility.yul\":2896:2904   */\n  dup2\n    /* \"#utility.yul\":2892:2936   */\n  add\n    /* \"#utility.yul\":3089:3091   */\n  0x20\n    /* \"#utility.yul\":3077:3087   */\n  dup6\n    /* \"#utility.yul\":3074:3092   */\n  lt\n    /* \"#utility.yul\":3071:3120   */\n  iszero\n  tag_140\n  jumpi\n    /* \"#utility.yul\":3110:3118   */\n  dup2\n    /* \"#utility.yul\":3095:3118   */\n  swap1\n  pop\n    /* \"#utility.yul\":3071:3120   */\ntag_140:\n    /* \"#utility.yul\":3133:3213   */\n  tag_141\n    /* \"#utility.yul\":3189:3211   */\n  tag_142\n    /* \"#utility.yul\":3207:3210   */\n  dup6\n    /* \"#utility.yul\":3189:3211   */\n  tag_77\n  jump\t// in\ntag_142:\n    /* \"#utility.yul\":3179:3187   */\n  dup4\n    /* \"#utility.yul\":3175:3212   */\n  add\n    /* \"#utility.yul\":3162:3173   */\n  dup3\n    /* \"#utility.yul\":3133:3213   */\n  tag_87\n  jump\t// in\ntag_141:\n    /* \"#utility.yul\":2792:3223   */\n  pop\n  pop\n    /* \"#utility.yul\":2777:3223   */\ntag_137:\n    /* \"#utility.yul\":2687:3230   */\n  pop\n  pop\n  pop\n  jump\t// out\n    /* \"#utility.yul\":3236:3353   */\ntag_89:\n    /* \"#utility.yul\":3290:3298   */\n  0x00\n    /* \"#utility.yul\":3340:3345   */\n  dup3\n    /* \"#utility.yul\":3334:3338   */\n  dup3\n    /* \"#utility.yul\":3330:3346   */\n  shr\n    /* \"#utility.yul\":3309:3346   */\n  swap1\n  pop\n    /* \"#utility.yul\":3236:3353   */\n  swap3\n  swap2\n  pop\n  pop\n  jump\t// out\n    /* \"#utility.yul\":3359:3528   */\ntag_90:\n    /* \"#utility.yul\":3403:3409   */\n  0x00\n    /* \"#utility.yul\":3436:3487   */\n  tag_145\n    /* \"#utility.yul\":3484:3485   */\n  0x00\n    /* \"#utility.yul\":3480:3486   */\n  not\n    /* \"#utility.yul\":3472:3477   */\n  dup5\n    /* \"#utility.yul\":3469:3470   */\n  0x08\n    /* \"#utility.yul\":3465:3478   */\n  mul\n    /* \"#utility.yul\":3436:3487   */\n  tag_89\n  jump\t// in\ntag_145:\n    /* \"#utility.yul\":3432:3488   */\n  not\n    /* \"#utility.yul\":3517:3521   */\n  dup1\n    /* \"#utility.yul\":3511:3515   */\n  dup4\n    /* \"#utility.yul\":3507:3522   */\n  and\n    /* \"#utility.yul\":3497:3522   */\n  swap2\n  pop\n    /* \"#utility.yul\":3410:3528   */\n  pop\n    /* \"#utility.yul\":3359:3528   */\n  swap3\n  swap2\n  pop\n  pop\n  jump\t// out\n    /* \"#utility.yul\":3533:3828   */\ntag_91:\n    /* \"#utility.yul\":3609:3613   */\n  0x00\n    /* \"#utility.yul\":3755:3784   */\n  tag_147\n    /* \"#utility.yul\":3780:3783   */\n  dup4\n    /* \"#utility.yul\":3774:3778   */\n  dup4\n    /* \"#utility.yul\":3755:3784   */\n  tag_90\n  jump\t// in\ntag_147:\n    /* \"#utility.yul\":3747:3784   */\n  swap2\n  pop\n    /* \"#utility.yul\":3817:3820   */\n  dup3\n    /* \"#utility.yul\":3814:3815   */\n  0x02\n    /* \"#utility.yul\":3810:3821   */\n  mul\n    /* \"#utility.yul\":3804:3808   */\n  dup3\n    /* \"#utility.yul\":3801:3822   */\n  or\n    /* \"#utility.yul\":3793:3822   */\n  swap1\n  pop\n    /* \"#utility.yul\":3533:3828   */\n  swap3\n  swap2\n  pop\n  pop\n  jump\t// out\n    /* \"#utility.yul\":3833:5228   */\ntag_7:\n    /* \"#utility.yul\":3950:3987   */\n  tag_149\n    /* \"#utility.yul\":3983:3986   */\n  dup3\n    /* \"#utility.yul\":3950:3987   */\n  tag_72\n  jump\t// in\ntag_149:\n    /* \"#utility.yul\":4052:4070   */\n  0xffffffffffffffff\n    /* \"#utility.yul\":4044:4050   */\n  dup2\n    /* \"#utility.yul\":4041:4071   */\n  gt\n    /* \"#utility.yul\":4038:4094   */\n  iszero\n  tag_150\n  jumpi\n    /* \"#utility.yul\":4074:4092   */\n  tag_151\n  tag_73\n  jump\t// in\ntag_151:\n    /* \"#utility.yul\":4038:4094   */\ntag_150:\n    /* \"#utility.yul\":4118:4156   */\n  tag_152\n    /* \"#utility.yul\":4150:4154   */\n  dup3\n    /* \"#utility.yul\":4144:4155   */\n  sload\n    /* \"#utility.yul\":4118:4156   */\n  tag_75\n  jump\t// in\ntag_152:\n    /* \"#utility.yul\":4203:4270   */\n  tag_153\n    /* \"#utility.yul\":4263:4269   */\n  dup3\n    /* \"#utility.yul\":4255:4261   */\n  dup3\n    /* \"#utility.yul\":4249:4253   */\n  dup6\n    /* \"#utility.yul\":4203:4270   */\n  tag_88\n  jump\t// in\ntag_153:\n    /* \"#utility.yul\":4297:4298   */\n  0x00\n    /* \"#utility.yul\":4321:4325   */\n  0x20\n    /* \"#utility.yul\":4308:4325   */\n  swap1\n  pop\n    /* \"#utility.yul\":4353:4355   */\n  0x1f\n    /* \"#utility.yul\":4345:4351   */\n  dup4\n    /* \"#utility.yul\":4342:4356   */\n  gt\n    /* \"#utility.yul\":4370:4371   */\n  0x01\n    /* \"#utility.yul\":4365:4983   */\n  dup2\n  eq\n  tag_155\n  jumpi\n    /* \"#utility.yul\":5027:5028   */\n  0x00\n    /* \"#utility.yul\":5044:5050   */\n  dup5\n    /* \"#utility.yul\":5041:5118   */\n  iszero\n  tag_156\n  jumpi\n    /* \"#utility.yul\":5093:5102   */\n  dup3\n    /* \"#utility.yul\":5088:5091   */\n  dup8\n    /* \"#utility.yul\":5084:5103   */\n  add\n    /* \"#utility.yul\":5078:5104   */\n  mload\n    /* \"#utility.yul\":5069:5104   */\n  swap1\n  pop\n    /* \"#utility.yul\":5041:5118   */\ntag_156:\n    /* \"#utility.yul\":5144:5211   */\n  tag_157\n    /* \"#utility.yul\":5204:5210   */\n  dup6\n    /* \"#utility.yul\":5197:5202   */\n  dup3\n    /* \"#utility.yul\":5144:5211   */\n  tag_91\n  jump\t// in\ntag_157:\n    /* \"#utility.yul\":5138:5142   */\n  dup7\n    /* \"#utility.yul\":5131:5212   */\n  sstore\n    /* \"#utility.yul\":5000:5222   */\n  pop\n    /* \"#utility.yul\":4335:5222   */\n  jump(tag_154)\n    /* \"#utility.yul\":4365:4983   */\ntag_155:\n    /* \"#utility.yul\":4417:4421   */\n  0x1f\n    /* \"#utility.yul\":4413:4422   */\n  not\n    /* \"#utility.yul\":4405:4411   */\n  dup5\n    /* \"#utility.yul\":4401:4423   */\n  and\n    /* \"#utility.yul\":4451:4488   */\n  tag_158\n    /* \"#utility.yul\":4483:4487   */\n  dup7\n    /* \"#utility.yul\":4451:4488   */\n  tag_76\n  jump\t// in\ntag_158:\n    /* \"#utility.yul\":4510:4511   */\n  0x00\n    /* \"#utility.yul\":4524:4732   */\ntag_159:\n    /* \"#utility.yul\":4538:4545   */\n  dup3\n    /* \"#utility.yul\":4535:4536   */\n  dup2\n    /* \"#utility.yul\":4532:4546   */\n  lt\n    /* \"#utility.yul\":4524:4732   */\n  iszero\n  tag_161\n  jumpi\n    /* \"#utility.yul\":4617:4626   */\n  dup5\n    /* \"#utility.yul\":4612:4615   */\n  dup10\n    /* \"#utility.yul\":4608:4627   */\n  add\n    /* \"#utility.yul\":4602:4628   */\n  mload\n    /* \"#utility.yul\":4594:4600   */\n  dup3\n    /* \"#utility.yul\":4587:4629   */\n  sstore\n    /* \"#utility.yul\":4668:4669   */\n  0x01\n    /* \"#utility.yul\":4660:4666   */\n  dup3\n    /* \"#utility.yul\":4656:4670   */\n  add\n    /* \"#utility.yul\":4646:4670   */\n  swap2\n  pop\n    /* \"#utility.yul\":4715:4717   */\n  0x20\n    /* \"#utility.yul\":4704:4713   */\n  dup6\n    /* \"#utility.yul\":4700:4718   */\n  add\n    /* \"#utility.yul\":4687:4718   */\n  swap5\n  pop\n    /* \"#utility.yul\":4561:4565   */\n  0x20\n    /* \"#utility.yul\":4558:4559   */\n  dup2\n    /* \"#utility.yul\":4554:4566   */\n  add\n    /* \"#utility.yul\":4549:4566   */\n  swap1\n  pop\n    /* \"#utility.yul\":4524:4732   */\n  jump(tag_159)\ntag_161:\n    /* \"#utility.yul\":4760:4766   */\n  dup7\n    /* \"#utility.yul\":4751:4758   */\n  dup4\n    /* \"#utility.yul\":4748:4767   */\n  lt\n    /* \"#utility.yul\":4745:4924   */\n  iszero\n  tag_162\n  jumpi\n    /* \"#utility.yul\":4818:4827   */\n  dup5\n    /* \"#utility.yul\":4813:4816   */\n  dup10\n    /* \"#utility.yul\":4809:4828   */\n  add\n    /* \"#utility.yul\":4803:4829   */\n  mload\n    /* \"#utility.yul\":4861:4909   */\n  tag_163\n    /* \"#utility.yul\":4903:4907   */\n  0x1f\n    /* \"#utility.yul\":4895:4901   */\n  dup10\n    /* \"#utility.yul\":4891:4908   */\n  and\n    /* \"#utility.yul\":4880:4889   */\n  dup3\n    /* \"#utility.yul\":4861:4909   */\n  tag_90\n  jump\t// in\ntag_163:\n    /* \"#utility.yul\":4853:4859   */\n  dup4\n    /* \"#utility.yul\":4846:4910   */\n  sstore\n    /* \"#utility.yul\":4768:4924   */\n  pop\n    /* \"#utility.yul\":4745:4924   */\ntag_162:\n    /* \"#utility.yul\":4970:4971   */\n  0x01\n    /* \"#utility.yul\":4966:4967   */\n  0x02\n    /* \"#utility.yul\":4958:4964   */\n  dup9\n    /* \"#utility.yul\":4954:4968   */\n  mul\n    /* \"#utility.yul\":4950:4972   */\n  add\n    /* \"#utility.yul\":4944:4948   */\n  dup9\n    /* \"#utility.yul\":4937:4973   */\n  sstore\n    /* \"#utility.yul\":4372:4983   */\n  pop\n  pop\n  pop\n    /* \"#utility.yul\":4335:5222   */\ntag_154:\n  pop\n    /* \"#utility.yul\":3925:5228   */\n  pop\n  pop\n  pop\n    /* \"#utility.yul\":3833:5228   */\n  pop\n  pop\n  jump\t// out\n    /* \"#utility.yul\":5234:5360   */\ntag_92:\n    /* \"#utility.yul\":5271:5278   */\n  0x00\n    /* \"#utility.yul\":5311:5353   */\n  0xffffffffffffffffffffffffffffffffffffffff\n    /* \"#utility.yul\":5304:5309   */\n  dup3\n    /* \"#utility.yul\":5300:5354   */\n  and\n    /* \"#utility.yul\":5289:5354   */\n  swap1\n  pop\n    /* \"#utility.yul\":5234:5360   */\n  swap2\n  swap1\n  pop\n  jump\t// out\n    /* \"#utility.yul\":5366:5462   */\ntag_93:\n    /* \"#utility.yul\":5403:5410   */\n  0x00\n    /* \"#utility.yul\":5432:5456   */\n  tag_166\n    /* \"#utility.yul\":5450:5455   */\n  dup3\n    /* \"#utility.yul\":5432:5456   */\n  tag_92\n  jump\t// in\ntag_166:\n    /* \"#utility.yul\":5421:5456   */\n  swap1\n  pop\n    /* \"#utility.yul\":5366:5462   */\n  swap2\n  swap1\n  pop\n  jump\t// out\n    /* \"#utility.yul\":5468:5586   */\ntag_94:\n    /* \"#utility.yul\":5555:5579   */\n  tag_168\n    /* \"#utility.yul\":5573:5578   */\n  dup2\n    /* \"#utility.yul\":5555:5579   */\n  tag_93\n  jump\t// in\ntag_168:\n    /* \"#utility.yul\":5550:5553   */\n  dup3\n    /* \"#utility.yul\":5543:5580   */\n  mstore\n    /* \"#utility.yul\":5468:5586   */\n  pop\n  pop\n  jump\t// out\n    /* \"#utility.yul\":5592:5814   */\ntag_12:\n    /* \"#utility.yul\":5685:5689   */\n  0x00\n    /* \"#utility.yul\":5723:5725   */\n  0x20\n    /* \"#utility.yul\":5712:5721   */\n  dup3\n    /* \"#utility.yul\":5708:5726   */\n  add\n    /* \"#utility.yul\":5700:5726   */\n  swap1\n  pop\n    /* \"#utility.yul\":5736:5807   */\n  tag_170\n    /* \"#utility.yul\":5804:5805   */\n  0x00\n    /* \"#utility.yul\":5793:5802   */\n  dup4\n    /* \"#utility.yul\":5789:5806   */\n  add\n    /* \"#utility.yul\":5780:5786   */\n  dup5\n    /* \"#utility.yul\":5736:5807   */\n  tag_94\n  jump\t// in\ntag_170:\n    /* \"#utility.yul\":5592:5814   */\n  swap3\n  swap2\n  pop\n  pop\n  jump\t// out\n    /* \"#utility.yul\":5820:6000   */\ntag_95:\n    /* \"#utility.yul\":5868:5945   */\n  0x4e487b7100000000000000000000000000000000000000000000000000000000\n    /* \"#utility.yul\":5865:5866   */\n  0x00\n    /* \"#utility.yul\":5858:5946   */\n  mstore\n    /* \"#utility.yul\":5965:5969   */\n  0x11\n    /* \"#utility.yul\":5962:5963   */\n  0x04\n    /* \"#utility.yul\":5955:5970   */\n  mstore\n    /* \"#utility.yul\":5989:5993   */\n  0x24\n    /* \"#utility.yul\":5986:5987   */\n  0x00\n    /* \"#utility.yul\":5979:5994   */\n  revert\n    /* \"#utility.yul\":6006:6108   */\ntag_96:\n    /* \"#utility.yul\":6048:6056   */\n  0x00\n    /* \"#utility.yul\":6095:6100   */\n  dup2\n    /* \"#utility.yul\":6092:6093   */\n  0x01\n    /* \"#utility.yul\":6088:6101   */\n  shr\n    /* \"#utility.yul\":6067:6101   */\n  swap1\n  pop\n    /* \"#utility.yul\":6006:6108   */\n  swap2\n  swap1\n  pop\n  jump\t// out\n    /* \"#utility.yul\":6114:6962   */\ntag_97:\n    /* \"#utility.yul\":6175:6180   */\n  0x00\n    /* \"#utility.yul\":6182:6186   */\n  dup1\n    /* \"#utility.yul\":6206:6212   */\n  dup3\n    /* \"#utility.yul\":6197:6212   */\n  swap2\n  pop\n    /* \"#utility.yul\":6230:6235   */\n  dup4\n    /* \"#utility.yul\":6221:6235   */\n  swap1\n  pop\n    /* \"#utility.yul\":6244:6956   */\ntag_174:\n    /* \"#utility.yul\":6265:6266   */\n  0x01\n    /* \"#utility.yul\":6255:6263   */\n  dup6\n    /* \"#utility.yul\":6252:6267   */\n  gt\n    /* \"#utility.yul\":6244:6956   */\n  iszero\n  tag_176\n  jumpi\n    /* \"#utility.yul\":6360:6364   */\n  dup1\n    /* \"#utility.yul\":6355:6358   */\n  dup7\n    /* \"#utility.yul\":6351:6365   */\n  div\n    /* \"#utility.yul\":6345:6349   */\n  dup2\n    /* \"#utility.yul\":6342:6366   */\n  gt\n    /* \"#utility.yul\":6339:6389   */\n  iszero\n  tag_177\n  jumpi\n    /* \"#utility.yul\":6369:6387   */\n  tag_178\n  tag_95\n  jump\t// in\ntag_178:\n    /* \"#utility.yul\":6339:6389   */\ntag_177:\n    /* \"#utility.yul\":6419:6420   */\n  0x01\n    /* \"#utility.yul\":6409:6417   */\n  dup6\n    /* \"#utility.yul\":6405:6421   */\n  and\n    /* \"#utility.yul\":6402:6853   */\n  iszero\n  tag_179\n  jumpi\n    /* \"#utility.yul\":6834:6838   */\n  dup1\n    /* \"#utility.yul\":6827:6832   */\n  dup3\n    /* \"#utility.yul\":6823:6839   */\n  mul\n    /* \"#utility.yul\":6814:6839   */\n  swap2\n  pop\n    /* \"#utility.yul\":6402:6853   */\ntag_179:\n    /* \"#utility.yul\":6884:6888   */\n  dup1\n    /* \"#utility.yul\":6878:6882   */\n  dup2\n    /* \"#utility.yul\":6874:6889   */\n  mul\n    /* \"#utility.yul\":6866:6889   */\n  swap1\n  pop\n    /* \"#utility.yul\":6914:6946   */\n  tag_180\n    /* \"#utility.yul\":6937:6945   */\n  dup6\n    /* \"#utility.yul\":6914:6946   */\n  tag_96\n  jump\t// in\ntag_180:\n    /* \"#utility.yul\":6902:6946   */\n  swap5\n  pop\n    /* \"#utility.yul\":6244:6956   */\n  jump(tag_174)\ntag_176:\n    /* \"#utility.yul\":6114:6962   */\n  swap5\n  pop\n  swap5\n  swap3\n  pop\n  pop\n  pop\n  jump\t// out\n    /* \"#utility.yul\":6968:8041   */\ntag_98:\n    /* \"#utility.yul\":7022:7027   */\n  0x00\n    /* \"#utility.yul\":7213:7221   */\n  dup3\n    /* \"#utility.yul\":7203:7243   */\n  tag_182\n  jumpi\n    /* \"#utility.yul\":7234:7235   */\n  0x01\n    /* \"#utility.yul\":7225:7235   */\n  swap1\n  pop\n    /* \"#utility.yul\":7236:7241   */\n  jump(tag_181)\n    /* \"#utility.yul\":7203:7243   */\ntag_182:\n    /* \"#utility.yul\":7262:7266   */\n  dup2\n    /* \"#utility.yul\":7252:7288   */\n  tag_183\n  jumpi\n    /* \"#utility.yul\":7279:7280   */\n  0x00\n    /* \"#utility.yul\":7270:7280   */\n  swap1\n  pop\n    /* \"#utility.yul\":7281:7286   */\n  jump(tag_181)\n    /* \"#utility.yul\":7252:7288   */\ntag_183:\n    /* \"#utility.yul\":7348:7352   */\n  dup2\n    /* \"#utility.yul\":7396:7397   */\n  0x01\n    /* \"#utility.yul\":7391:7418   */\n  dup2\n  eq\n  tag_185\n  jumpi\n    /* \"#utility.yul\":7432:7433   */\n  0x02\n    /* \"#utility.yul\":7427:7618   */\n  dup2\n  eq\n  tag_186\n  jumpi\n    /* \"#utility.yul\":7341:7618   */\n  jump(tag_184)\n    /* \"#utility.yul\":7391:7418   */\ntag_185:\n    /* \"#utility.yul\":7409:7410   */\n  0x01\n    /* \"#utility.yul\":7400:7410   */\n  swap2\n  pop\n    /* \"#utility.yul\":7411:7416   */\n  pop\n  jump(tag_181)\n    /* \"#utility.yul\":7427:7618   */\ntag_186:\n    /* \"#utility.yul\":7472:7475   */\n  0xff\n    /* \"#utility.yul\":7462:7470   */\n  dup5\n    /* \"#utility.yul\":7459:7476   */\n  gt\n    /* \"#utility.yul\":7456:7499   */\n  iszero\n  tag_187\n  jumpi\n    /* \"#utility.yul\":7479:7497   */\n  tag_188\n  tag_95\n  jump\t// in\ntag_188:\n    /* \"#utility.yul\":7456:7499   */\ntag_187:\n    /* \"#utility.yul\":7528:7536   */\n  dup4\n    /* \"#utility.yul\":7525:7526   */\n  0x02\n    /* \"#utility.yul\":7521:7537   */\n  exp\n    /* \"#utility.yul\":7512:7537   */\n  swap2\n  pop\n    /* \"#utility.yul\":7563:7566   */\n  dup5\n    /* \"#utility.yul\":7556:7561   */\n  dup3\n    /* \"#utility.yul\":7553:7567   */\n  gt\n    /* \"#utility.yul\":7550:7590   */\n  iszero\n  tag_189\n  jumpi\n    /* \"#utility.yul\":7570:7588   */\n  tag_190\n  tag_95\n  jump\t// in\ntag_190:\n    /* \"#utility.yul\":7550:7590   */\ntag_189:\n    /* \"#utility.yul\":7603:7608   */\n  pop\n  jump(tag_181)\n    /* \"#utility.yul\":7341:7618   */\ntag_184:\n  pop\n    /* \"#utility.yul\":7727:7729   */\n  0x20\n    /* \"#utility.yul\":7717:7725   */\n  dup4\n    /* \"#utility.yul\":7714:7730   */\n  lt\n    /* \"#utility.yul\":7708:7711   */\n  0x0133\n    /* \"#utility.yul\":7702:7706   */\n  dup4\n    /* \"#utility.yul\":7699:7712   */\n  lt\n    /* \"#utility.yul\":7695:7731   */\n  and\n    /* \"#utility.yul\":7677:7679   */\n  0x4e\n    /* \"#utility.yul\":7667:7675   */\n  dup5\n    /* \"#utility.yul\":7664:7680   */\n  lt\n    /* \"#utility.yul\":7659:7661   */\n  0x0b\n    /* \"#utility.yul\":7653:7657   */\n  dup5\n    /* \"#utility.yul\":7650:7662   */\n  lt\n    /* \"#utility.yul\":7646:7681   */\n  and\n    /* \"#utility.yul\":7630:7741   */\n  or\n    /* \"#utility.yul\":7627:7873   */\n  iszero\n  tag_191\n  jumpi\n    /* \"#utility.yul\":7783:7791   */\n  dup3\n    /* \"#utility.yul\":7777:7781   */\n  dup3\n    /* \"#utility.yul\":7773:7792   */\n  exp\n    /* \"#utility.yul\":7764:7792   */\n  swap1\n  pop\n    /* \"#utility.yul\":7818:7821   */\n  dup4\n    /* \"#utility.yul\":7811:7816   */\n  dup2\n    /* \"#utility.yul\":7808:7822   */\n  gt\n    /* \"#utility.yul\":7805:7845   */\n  iszero\n  tag_192\n  jumpi\n    /* \"#utility.yul\":7825:7843   */\n  tag_193\n  tag_95\n  jump\t// in\ntag_193:\n    /* \"#utility.yul\":7805:7845   */\ntag_192:\n    /* \"#utility.yul\":7858:7863   */\n  jump(tag_181)\n    /* \"#utility.yul\":7627:7873   */\ntag_191:\n    /* \"#utility.yul\":7898:7940   */\n  tag_194\n    /* \"#utility.yul\":7936:7939   */\n  dup5\n    /* \"#utility.yul\":7926:7934   */\n  dup5\n    /* \"#utility.yul\":7920:7924   */\n  dup5\n    /* \"#utility.yul\":7917:7918   */\n  0x01\n    /* \"#utility.yul\":7898:7940   */\n  tag_97\n  jump\t// in\ntag_194:\n    /* \"#utility.yul\":7883:7940   */\n  swap3\n  pop\n  swap1\n  pop\n    /* \"#utility.yul\":7972:7976   */\n  dup2\n    /* \"#utility.yul\":7967:7970   */\n  dup5\n    /* \"#utility.yul\":7963:7977   */\n  div\n    /* \"#utility.yul\":7956:7961   */\n  dup2\n    /* \"#utility.yul\":7953:7978   */\n  gt\n    /* \"#utility.yul\":7950:8001   */\n  iszero\n  tag_195\n  jumpi\n    /* \"#utility.yul\":7981:7999   */\n  tag_196\n  tag_95\n  jump\t// in\ntag_196:\n    /* \"#utility.yul\":7950:8001   */\ntag_195:\n    /* \"#utility.yul\":8030:8034   */\n  dup2\n    /* \"#utility.yul\":8023:8028   */\n  dup2\n    /* \"#utility.yul\":8019:8035   */\n  mul\n    /* \"#utility.yul\":8010:8035   */\n  swap1\n  pop\n    /* \"#utility.yul\":6968:8041   */\ntag_181:\n  swap4\n  swap3\n  pop\n  pop\n  pop\n  jump\t// out\n    /* \"#utility.yul\":8047:8133   */\ntag_99:\n    /* \"#utility.yul\":8082:8089   */\n  0x00\n    /* \"#utility.yul\":8122:8126   */\n  0xff\n    /* \"#utility.yul\":8115:8120   */\n  dup3\n    /* \"#utility.yul\":8111:8127   */\n  and\n    /* \"#utility.yul\":8100:8127   */\n  swap1\n  pop\n    /* \"#utility.yul\":8047:8133   */\n  swap2\n  swap1\n  pop\n  jump\t// out\n    /* \"#utility.yul\":8139:8420   */\ntag_20:\n    /* \"#utility.yul\":8197:8202   */\n  0x00\n    /* \"#utility.yul\":8221:8244   */\n  tag_199\n    /* \"#utility.yul\":8239:8243   */\n  dup3\n    /* \"#utility.yul\":8221:8244   */\n  tag_80\n  jump\t// in\ntag_199:\n    /* \"#utility.yul\":8213:8244   */\n  swap2\n  pop\n    /* \"#utility.yul\":8265:8290   */\n  tag_200\n    /* \"#utility.yul\":8281:8289   */\n  dup4\n    /* \"#utility.yul\":8265:8290   */\n  tag_99\n  jump\t// in\ntag_200:\n    /* \"#utility.yul\":8253:8290   */\n  swap3\n  pop\n    /* \"#utility.yul\":8309:8413   */\n  tag_201\n    /* \"#utility.yul\":8346:8412   */\n  0xffffffffffffffffffffffffffffffffffffffffffffffffffffffffffffffff\n    /* \"#utility.yul\":8336:8344   */\n  dup5\n    /* \"#utility.yul\":8330:8334   */\n  dup5\n    /* \"#utility.yul\":8309:8413   */\n  tag_98\n  jump\t// in\ntag_201:\n    /* \"#utility.yul\":8300:8413   */\n  swap1\n  pop\n    /* \"#utility.yul\":8139:8420   */\n  swap3\n  swap2\n  pop\n  pop\n  jump\t// out\n    /* \"#utility.yul\":8426:8836   */\ntag_22:\n    /* \"#utility.yul\":8466:8473   */\n  0x00\n    /* \"#utility.yul\":8489:8509   */\n  tag_203\n    /* \"#utility.yul\":8507:8508   */\n  dup3\n    /* \"#utility.yul\":8489:8509   */\n  tag_80\n  jump\t// in\ntag_203:\n    /* \"#utility.yul\":8484:8509   */\n  swap2\n  pop\n    /* \"#utility.yul\":8523:8543   */\n  tag_204\n    /* \"#utility.yul\":8541:8542   */\n  dup4\n    /* \"#utility.yul\":8523:8543   */\n  tag_80\n  jump\t// in\ntag_204:\n    /* \"#utility.yul\":8518:8543   */\n  swap3\n  pop\n    /* \"#utility.yul\":8578:8579   */\n  dup3\n    /* \"#utility.yul\":8575:8576   */\n  dup3\n    /* \"#utility.yul\":8571:8580   */\n  mul\n    /* \"#utility.yul\":8600:8630   */\n  tag_205\n    /* \"#utility.yul\":8618:8629   */\n  dup2\n    /* \"#utility.yul\":8600:8630   */\n  tag_80\n  jump\t// in\ntag_205:\n    /* \"#utility.yul\":8589:8630   */\n  swap2\n  pop\n    /* \"#utility.yul\":8779:8780   */\n  dup3\n    /* \"#utility.yul\":8770:8777   */\n  dup3\n    /* \"#utility.yul\":8766:8781   */\n  div\n    /* \"#utility.yul\":8763:8764   */\n  dup5\n    /* \"#utility.yul\":8760:8782   */\n  eq\n    /* \"#utility.yul\":8740:8741   */\n  dup4\n    /* \"#utility.yul\":8733:8742   */\n  iszero\n    /* \"#utility.yul\":8713:8796   */\n  or\n    /* \"#utility.yul\":8690:8829   */\n  tag_206\n  jumpi\n    /* \"#utility.yul\":8809:8827   */\n  tag_207\n  tag_95\n  jump\t// in\ntag_207:\n    /* \"#utility.yul\":8690:8829   */\ntag_206:\n    /* \"#utility.yul\":8474:8836   */\n  pop\n    /* \"#utility.yul\":8426:8836   */\n  swap3\n  swap2\n  pop\n  pop\n  jump\t// out\n    /* \"#utility.yul\":8842:9022   */\ntag_100:\n    /* \"#utility.yul\":8890:8967   */\n  0x4e487b7100000000000000000000000000000000000000000000000000000000\n    /* \"#utility.yul\":8887:8888   */\n  0x00\n    /* \"#utility.yul\":8880:8968   */\n  mstore\n    /* \"#utility.yul\":8987:8991   */\n  0x12\n    /* \"#utility.yul\":8984:8985   */\n  0x04\n    /* \"#utility.yul\":8977:8992   */\n  mstore\n    /* \"#utility.yul\":9011:9015   */\n  0x24\n    /* \"#utility.yul\":9008:9009   */\n  0x00\n    /* \"#utility.yul\":9001:9016   */\n  revert\n    /* \"#utility.yul\":9028:9213   */\ntag_41:\n    /* \"#utility.yul\":9068:9069   */\n  0x00\n    /* \"#utility.yul\":9085:9105   */\n  tag_210\n    /* \"#utility.yul\":9103:9104   */\n  dup3\n    /* \"#utility.yul\":9085:9105   */\n  tag_80\n  jump\t// in\ntag_210:\n    /* \"#utility.yul\":9080:9105   */\n  swap2\n  pop\n    /* \"#utility.yul\":9119:9139   */\n  tag_211\n    /* \"#utility.yul\":9137:9138   */\n  dup4\n    /* \"#utility.yul\":9119:9139   */\n  tag_80\n  jump\t// in\ntag_211:\n    /* \"#utility.yul\":9114:9139   */\n  swap3\n  pop\n    /* \"#utility.yul\":9158:9159   */\n  dup3\n    /* \"#utility.yul\":9148:9183   */\n  tag_212\n  jumpi\n    /* \"#utility.yul\":9163:9181   */\n  tag_213\n  tag_100\n  jump\t// in\ntag_213:\n    /* \"#utility.yul\":9148:9183   */\ntag_212:\n    /* \"#utility.yul\":9205:9206   */\n  dup3\n    /* \"#utility.yul\":9202:9203   */\n  dup3\n    /* \"#utility.yul\":9198:9207   */\n  div\n    /* \"#utility.yul\":9193:9207   */\n  swap1\n  pop\n    /* \"#utility.yul\":9028:9213   */\n  swap3\n  swap2\n  pop\n  pop\n  jump\t// out\n    /* \"#utility.yul\":9219:9413   */\ntag_43:\n    /* \"#utility.yul\":9259:9263   */\n  0x00\n    /* \"#utility.yul\":9279:9299   */\n  tag_215\n    /* \"#utility.yul\":9297:9298   */\n  dup3\n    /* \"#utility.yul\":9279:9299   */\n  tag_80\n  jump\t// in\ntag_215:\n    /* \"#utility.yul\":9274:9299   */\n  swap2\n  pop\n    /* \"#utility.yul\":9313:9333   */\n  tag_216\n    /* \"#utility.yul\":9331:9332   */\n  dup4\n    /* \"#utility.yul\":9313:9333   */\n  tag_80\n  jump\t// in\ntag_216:\n    /* \"#utility.yul\":9308:9333   */\n  swap3\n  pop\n    /* \"#utility.yul\":9357:9358   */\n  dup3\n    /* \"#utility.yul\":9354:9355   */\n  dup3\n    /* \"#utility.yul\":9350:9359   */\n  sub\n    /* \"#utility.yul\":9342:9359   */\n  swap1\n  pop\n    /* \"#utility.yul\":9381:9382   */\n  dup2\n    /* \"#utility.yul\":9375:9379   */\n  dup2\n    /* \"#utility.yul\":9372:9383   */\n  gt\n    /* \"#utility.yul\":9369:9406   */\n  iszero\n  tag_217\n  jumpi\n    /* \"#utility.yul\":9386:9404   */\n  tag_218\n  tag_95\n  jump\t// in\ntag_218:\n    /* \"#utility.yul\":9369:9406   */\ntag_217:\n    /* \"#utility.yul\":9219:9413   */\n  swap3\n  swap2\n  pop\n  pop\n  jump\t// out\n    /* \"#utility.yul\":9419:9599   */\ntag_55:\n    /* \"#utility.yul\":9467:9544   */\n  0x4e487b7100000000000000000000000000000000000000000000000000000000\n    /* \"#utility.yul\":9464:9465   */\n  0x00\n    /* \"#utility.yul\":9457:9545   */\n  mstore\n    /* \"#utility.yul\":9564:9568   */\n  0x32\n    /* \"#utility.yul\":9561:9562   */\n  0x04\n    /* \"#utility.yul\":9554:9569   */\n  mstore\n    /* \"#utility.yul\":9588:9592   */\n  0x24\n    /* \"#utility.yul\":9585:9586   */\n  0x00\n    /* \"#utility.yul\":9578:9593   */\n  revert\n    /* \"#utility.yul\":9605:9796   */\ntag_63:\n    /* \"#utility.yul\":9645:9648   */\n  0x00\n    /* \"#utility.yul\":9664:9684   */\n  tag_221\n    /* \"#utility.yul\":9682:9683   */\n  dup3\n    /* \"#utility.yul\":9664:9684   */\n  tag_80\n  jump\t// in\ntag_221:\n    /* \"#utility.yul\":9659:9684   */\n  swap2\n  pop\n    /* \"#utility.yul\":9698:9718   */\n  tag_222\n    /* \"#utility.yul\":9716:9717   */\n  dup4\n    /* \"#utility.yul\":9698:9718   */\n  tag_80\n  jump\t// in\ntag_222:\n    /* \"#utility.yul\":9693:9718   */\n  swap3\n  pop\n    /* \"#utility.yul\":9741:9742   */\n  dup3\n    /* \"#utility.yul\":9738:9739   */\n  dup3\n    /* \"#utility.yul\":9734:9743   */\n  add\n    /* \"#utility.yul\":9727:9743   */\n  swap1\n  pop\n    /* \"#utility.yul\":9762:9765   */\n  dup1\n    /* \"#utility.yul\":9759:9760   */\n  dup3\n    /* \"#utility.yul\":9756:9766   */\n  gt\n    /* \"#utility.yul\":9753:9789   */\n  iszero\n  tag_223\n  jumpi\n    /* \"#utility.yul\":9769:9787   */\n  tag_224\n  tag_95\n  jump\t// in\ntag_224:\n    /* \"#utility.yul\":9753:9789   */\ntag_223:\n    /* \"#utility.yul\":9605:9796   */\n  swap3\n  swap2\n  pop\n  pop\n  jump\t// out\n    /* \"#utility.yul\":9802:9920   */\ntag_101:\n    /* \"#utility.yul\":9889:9913   */\n  tag_226\n    /* \"#utility.yul\":9907:9912   */\n  dup2\n    /* \"#utility.yul\":9889:9913   */\n  tag_80\n  jump\t// in\ntag_226:\n    /* \"#utility.yul\":9884:9887   */\n  dup3\n    /* \"#utility.yul\":9877:9914   */\n  mstore\n    /* \"#utility.yul\":9802:9920   */\n  pop\n  pop\n  jump\t// out\n    /* \"#utility.yul\":9926:10368   */\ntag_67:\n    /* \"#utility.yul\":10075:10079   */\n  0x00\n    /* \"#utility.yul\":10113:10115   */\n  0x60\n    /* \"#utility.yul\":10102:10111   */\n  dup3\n    /* \"#utility.yul\":10098:10116   */\n  add\n    /* \"#utility.yul\":10090:10116   */\n  swap1\n  pop\n    /* \"#utility.yul\":10126:10197   */\n  tag_228\n    /* \"#utility.yul\":10194:10195   */\n  0x00\n    /* \"#utility.yul\":10183:10192   */\n  dup4\n    /* \"#utility.yul\":10179:10196   */\n  add\n    /* \"#utility.yul\":10170:10176   */\n  dup7\n    /* \"#utility.yul\":10126:10197   */\n  tag_94\n  jump\t// in\ntag_228:\n    /* \"#utility.yul\":10207:10279   */\n  tag_229\n    /* \"#utility.yul\":10275:10277   */\n  0x20\n    /* \"#utility.yul\":10264:10273   */\n  dup4\n    /* \"#utility.yul\":10260:10278   */\n  add\n    /* \"#utility.yul\":10251:10257   */\n  dup6\n    /* \"#utility.yul\":10207:10279   */\n  tag_101\n  jump\t// in\ntag_229:\n    /* \"#utility.yul\":10289:10361   */\n  tag_230\n    /* \"#utility.yul\":10357:10359   */\n  0x40\n    /* \"#utility.yul\":10346:10355   */\n  dup4\n    /* \"#utility.yul\":10342:10360   */\n  add\n    /* \"#utility.yul\":10333:10339   */\n  dup5\n    /* \"#utility.yul\":10289:10361   */\n  tag_101\n  jump\t// in\ntag_230:\n    /* \"#utility.yul\":9926:10368   */\n  swap5\n  swap4\n  pop\n  pop\n  pop\n  pop\n  jump\t// out\n    /* \"#utility.yul\":10374:10596   */\ntag_71:\n    /* \"#utility.yul\":10467:10471   */\n  0x00\n    /* \"#utility.yul\":10505:10507   */\n  0x20\n    /* \"#utility.yul\":10494:10503   */\n  dup3\n    /* \"#utility.yul\":10490:10508   */\n  add\n    /* \"#utility.yul\":10482:10508   */\n  swap1\n  pop\n    /* \"#utility.yul\":10518:10589   */\n  tag_232\n    /* \"#utility.yul\":10586:10587   */\n  0x00\n    /* \"#utility.yul\":10575:10584   */\n  dup4\n    /* \"#utility.yul\":10571:10588   */\n  add\n    /* \"#utility.yul\":10562:10568   */\n  dup5\n    /* \"#utility.yul\":10518:10589   */\n  tag_101\n  jump\t// in\ntag_232:\n    /* \"#utility.yul\":10374:10596   */\n  swap3\n  swap2\n  pop\n  pop\n  jump\t// out\n    /* \"HumAidToken.sol\":174:5471  contract HumAid is ERC20, Ownable(address(msg.sender)) {... */\ntag_24:\n  dataSize(sub_0)\n  dup1\n  dataOffset(sub_0)\n  0x00\n  codecopy\n  0x00\n  return\nstop\n\nsub_0: assembly {\n        /* \"HumAidToken.sol\":174:5471  contract HumAid is ERC20, Ownable(address(msg.sender)) {... */\n      mstore(0x40, 0x80)\n      callvalue\n      dup1\n      iszero\n      tag_1\n      jumpi\n      0x00\n      dup1\n      revert\n    tag_1:\n      pop\n      jumpi(tag_2, lt(calldatasize, 0x04))\n      shr(0xe0, calldataload(0x00))\n      dup1\n      0x7ce3489b\n      gt\n      tag_27\n      jumpi\n      dup1\n      0xa9059cbb\n      gt\n      tag_28\n      jumpi\n      dup1\n      0xa9059cbb\n      eq\n      tag_21\n      jumpi\n      dup1\n      0xae91470d\n      eq\n      tag_22\n      jumpi\n      dup1\n      0xdd62ed3e\n      eq\n      tag_23\n      jumpi\n      dup1\n      0xdf8408fe\n      eq\n      tag_24\n      jumpi\n      dup1\n      0xf2fde38b\n      eq\n      tag_25\n      jumpi\n      dup1\n      0xf9479ffa\n      eq\n      tag_26\n      jumpi\n      jump(tag_2)\n    tag_28:\n      dup1\n      0x7ce3489b\n      eq\n      tag_15\n      jumpi\n      dup1\n      0x7d5b6c60\n      eq\n      tag_16\n      jumpi\n      dup1\n      0x7fd6f15c\n      eq\n      tag_17\n      jumpi\n      dup1\n      0x8da5cb5b\n      eq\n      tag_18\n      jumpi\n      dup1\n      0x95d89b41\n      eq\n      tag_19\n      jumpi\n      dup1\n      0xa8602fea\n      eq\n      tag_20\n      jumpi\n      jump(tag_2)\n    tag_27:\n      dup1\n      0x42966c68\n      gt\n      tag_29\n      jumpi\n      dup1\n      0x42966c68\n      eq\n      tag_9\n      jumpi\n      dup1\n      0x4618f6ac\n      eq\n      tag_10\n      jumpi\n      dup1\n      0x4626402b\n      eq\n      tag_11\n      jumpi\n      dup1\n      0x5342acb4\n      eq\n      tag_12\n      jumpi\n      dup1\n      0x70a08231\n      eq\n      tag_13\n      jumpi\n      dup1\n      0x715018a6\n      eq\n      tag_14\n      jumpi\n      jump(tag_2)\n    tag_29:\n      dup1\n      0x06fdde03\n      eq\n      tag_3\n      jumpi\n      dup1\n      0x095ea7b3\n      eq\n      tag_4\n      jumpi\n      dup1\n      0x18160ddd\n      eq\n      tag_5\n      jumpi\n      dup1\n      0x23b872dd\n      eq\n      tag_6\n      jumpi\n      dup1\n      0x313ce567\n      eq\n      tag_7\n      jumpi\n      dup1\n      0x3539c6b1\n      eq\n      tag_8\n      jumpi\n    tag_2:\n      0x00\n      dup1\n      revert\n        /* \"@openzeppelin/contracts/token/ERC20/ERC20.sol\":1760:1849  function name() public view virtual returns (string memory) {... */\n    tag_3:\n      tag_30\n      tag_31\n      jump\t// in\n    tag_30:\n      mload(0x40)\n      tag_32\n      swap2\n      swap1\n      tag_33\n      jump\t// in\n    tag_32:\n      mload(0x40)\n      dup1\n      swap2\n      sub\n      swap1\n      return\n        /* \"@openzeppelin/contracts/token/ERC20/ERC20.sol\":3979:4165  function approve(address spender, uint256 value) public virtual returns (bool) {... */\n    tag_4:\n      tag_34\n      0x04\n      dup1\n      calldatasize\n      sub\n      dup2\n      add\n      swap1\n      tag_35\n      swap2\n      swap1\n      tag_36\n      jump\t// in\n    tag_35:\n      tag_37\n      jump\t// in\n    tag_34:\n      mload(0x40)\n      tag_38\n      swap2\n      swap1\n      tag_39\n      jump\t// in\n    tag_38:\n      mload(0x40)\n      dup1\n      swap2\n      sub\n      swap1\n      return\n        /* \"@openzeppelin/contracts/token/ERC20/ERC20.sol\":2830:2927  function totalSupply() public view virtual returns (uint256) {... */\n    tag_5:\n      tag_40\n      tag_41\n      jump\t// in\n    tag_40:\n      mload(0x40)\n      tag_42\n      swap2\n      swap1\n      tag_43\n      jump\t// in\n    tag_42:\n      mload(0x40)\n      dup1\n      swap2\n      sub\n      swap1\n      return\n        /* \"@openzeppelin/contracts/token/ERC20/ERC20.sol\":4757:5001  function transferFrom(address from, address to, uint256 value) public virtual returns (bool) {... */\n    tag_6:\n      tag_44\n      0x04\n      dup1\n      calldatasize\n      sub\n      dup2\n      add\n      swap1\n      tag_45\n      swap2\n      swap1\n      tag_46\n      jump\t// in\n    tag_45:\n      tag_47\n      jump\t// in\n    tag_44:\n      mload(0x40)\n      tag_48\n      swap2\n      swap1\n      tag_39\n      jump\t// in\n    tag_48:\n      mload(0x40)\n      dup1\n      swap2\n      sub\n      swap1\n      return\n        /* \"@openzeppelin/contracts/token/ERC20/ERC20.sol\":2688:2770  function decimals() public view virtual returns (uint8) {... */\n    tag_7:\n      tag_49\n      tag_50\n      jump\t// in\n    tag_49:\n      mload(0x40)\n      tag_51\n      swap2\n      swap1\n      tag_52\n      jump\t// in\n    tag_51:\n      mload(0x40)\n      dup1\n      swap2\n      sub\n      swap1\n      return\n        /* \"HumAidToken.sol\":2403:2894  function registerNGO(string memory _ngoName, address _ngoAddress) external onlyOwner returns (bool) {... */\n    tag_8:\n      tag_53\n      0x04\n      dup1\n      calldatasize\n      sub\n      dup2\n      add\n      swap1\n      tag_54\n      swap2\n      swap1\n      tag_55\n      jump\t// in\n    tag_54:\n      tag_56\n      jump\t// in\n    tag_53:\n      mload(0x40)\n      tag_57\n      swap2\n      swap1\n      tag_39\n      jump\t// in\n    tag_57:\n      mload(0x40)\n      dup1\n      swap2\n      sub\n      swap1\n      return\n        /* \"HumAidToken.sol\":1772:1855  function burn(uint256 amount) external {... */\n    tag_9:\n      tag_58\n      0x04\n      dup1\n      calldatasize\n      sub\n      dup2\n      add\n      swap1\n      tag_59\n      swap2\n      swap1\n      tag_60\n      jump\t// in\n    tag_59:\n      tag_61\n      jump\t// in\n    tag_58:\n      stop\n        /* \"HumAidToken.sol\":293:336  mapping (address => string) public ngoNames */\n    tag_10:\n      tag_62\n      0x04\n      dup1\n      calldatasize\n      sub\n      dup2\n      add\n      swap1\n      tag_63\n      swap2\n      swap1\n      tag_64\n      jump\t// in\n    tag_63:\n      tag_65\n      jump\t// in\n    tag_62:\n      mload(0x40)\n      tag_66\n      swap2\n      swap1\n      tag_33\n      jump\t// in\n    tag_66:\n      mload(0x40)\n      dup1\n      swap2\n      sub\n      swap1\n      return\n        /* \"HumAidToken.sol\":439:468  address public treasuryWallet */\n    tag_11:\n      tag_67\n      tag_68\n      jump\t// in\n    tag_67:\n      mload(0x40)\n      tag_69\n      swap2\n      swap1\n      tag_70\n      jump\t// in\n    tag_69:\n      mload(0x40)\n      dup1\n      swap2\n      sub\n      swap1\n      return\n        /* \"HumAidToken.sol\":1638:1764  function isExcludedFromFee(address account) external view returns (bool) {... */\n    tag_12:\n      tag_71\n      0x04\n      dup1\n      calldatasize\n      sub\n      dup2\n      add\n      swap1\n      tag_72\n      swap2\n      swap1\n      tag_64\n      jump\t// in\n    tag_72:\n      tag_73\n      jump\t// in\n    tag_71:\n      mload(0x40)\n      tag_74\n      swap2\n      swap1\n      tag_39\n      jump\t// in\n    tag_74:\n      mload(0x40)\n      dup1\n      swap2\n      sub\n      swap1\n      return\n        /* \"@openzeppelin/contracts/token/ERC20/ERC20.sol\":2985:3101  function balanceOf(address account) public view virtual returns (uint256) {... */\n    tag_13:\n      tag_75\n      0x04\n      dup1\n      calldatasize\n      sub\n      dup2\n      add\n      swap1\n      tag_76\n      swap2\n      swap1\n      tag_64\n      jump\t// in\n    tag_76:\n      tag_77\n      jump\t// in\n    tag_75:\n      mload(0x40)\n      tag_78\n      swap2\n      swap1\n      tag_43\n      jump\t// in\n    tag_78:\n      mload(0x40)\n      dup1\n      swap2\n      sub\n      swap1\n      return\n        /* \"@openzeppelin/contracts/access/Ownable.sol\":2293:2394  function renounceOwnership() public virtual onlyOwner {... */\n    tag_14:\n      tag_79\n      tag_80\n      jump\t// in\n    tag_79:\n      stop\n        /* \"HumAidToken.sol\":1331:1490  function setFeePercent(uint256 _feePercent) external onlyOwner {... */\n    tag_15:\n      tag_81\n      0x04\n      dup1\n      calldatasize\n      sub\n      dup2\n      add\n      swap1\n      tag_82\n      swap2\n      swap1\n      tag_60\n      jump\t// in\n    tag_82:\n      tag_83\n      jump\t// in\n    tag_81:\n      stop\n        /* \"HumAidToken.sol\":343:370  address[] public ngoWallets */\n    tag_16:\n      tag_84\n      0x04\n      dup1\n      calldatasize\n      sub\n      dup2\n      add\n      swap1\n      tag_85\n      swap2\n      swap1\n      tag_60\n      jump\t// in\n    tag_85:\n      tag_86\n      jump\t// in\n    tag_84:\n      mload(0x40)\n      tag_87\n      swap2\n      swap1\n      tag_70\n      jump\t// in\n    tag_87:\n      mload(0x40)\n      dup1\n      swap2\n      sub\n      swap1\n      return\n        /* \"HumAidToken.sol\":236:265  uint256 public feePercent = 5 */\n    tag_17:\n      tag_88\n      tag_89\n      jump\t// in\n    tag_88:\n      mload(0x40)\n      tag_90\n      swap2\n      swap1\n      tag_43\n      jump\t// in\n    tag_90:\n      mload(0x40)\n      dup1\n      swap2\n      sub\n      swap1\n      return\n        /* \"@openzeppelin/contracts/access/Ownable.sol\":1638:1723  function owner() public view virtual returns (address) {... */\n    tag_18:\n      tag_91\n      tag_92\n      jump\t// in\n    tag_91:\n      mload(0x40)\n      tag_93\n      swap2\n      swap1\n      tag_70\n      jump\t// in\n    tag_93:\n      mload(0x40)\n      dup1\n      swap2\n      sub\n      swap1\n      return\n        /* \"@openzeppelin/contracts/token/ERC20/ERC20.sol\":1962:2055  function symbol() public view virtual returns (string memory) {... */\n    tag_19:\n      tag_94\n      tag_95\n      jump\t// in\n    tag_94:\n      mload(0x40)\n      tag_96\n      swap2\n      swap1\n      tag_33\n      jump\t// in\n    tag_96:\n      mload(0x40)\n      dup1\n      swap2\n      sub\n      swap1\n      return\n        /* \"HumAidToken.sol\":689:1059  function setTreasuryWallet(address _treasuryWallet) external onlyOwner {... */\n    tag_20:\n      tag_97\n      0x04\n      dup1\n      calldatasize\n      sub\n      dup2\n      add\n      swap1\n      tag_98\n      swap2\n      swap1\n      tag_64\n      jump\t// in\n    tag_98:\n      tag_99\n      jump\t// in\n    tag_97:\n      stop\n        /* \"@openzeppelin/contracts/token/ERC20/ERC20.sol\":3296:3474  function transfer(address to, uint256 value) public virtual returns (bool) {... */\n    tag_21:\n      tag_100\n      0x04\n      dup1\n      calldatasize\n      sub\n      dup2\n      add\n      swap1\n      tag_101\n      swap2\n      swap1\n      tag_36\n      jump\t// in\n    tag_101:\n      tag_102\n      jump\t// in\n    tag_100:\n      mload(0x40)\n      tag_103\n      swap2\n      swap1\n      tag_39\n      jump\t// in\n    tag_103:\n      mload(0x40)\n      dup1\n      swap2\n      sub\n      swap1\n      return\n        /* \"HumAidToken.sol\":3351:3927  function unregisterNGO(string memory _ngoName) external onlyOwner returns (bool) {... */\n    tag_22:\n      tag_104\n      0x04\n      dup1\n      calldatasize\n      sub\n      dup2\n      add\n      swap1\n      tag_105\n      swap2\n      swap1\n      tag_106\n      jump\t// in\n    tag_105:\n      tag_107\n      jump\t// in\n    tag_104:\n      mload(0x40)\n      tag_108\n      swap2\n      swap1\n      tag_39\n      jump\t// in\n    tag_108:\n      mload(0x40)\n      dup1\n      swap2\n      sub\n      swap1\n      return\n        /* \"@openzeppelin/contracts/token/ERC20/ERC20.sol\":3532:3672  function allowance(address owner, address spender) public view virtual returns (uint256) {... */\n    tag_23:\n      tag_109\n      0x04\n      dup1\n      calldatasize\n      sub\n      dup2\n      add\n      swap1\n      tag_110\n      swap2\n      swap1\n      tag_111\n      jump\t// in\n    tag_110:\n      tag_112\n      jump\t// in\n    tag_109:\n      mload(0x40)\n      tag_113\n      swap2\n      swap1\n      tag_43\n      jump\t// in\n    tag_113:\n      mload(0x40)\n      dup1\n      swap2\n      sub\n      swap1\n      return\n        /* \"HumAidToken.sol\":1498:1630  function excludeFromFee(address account, bool excluded) external onlyOwner {... */\n    tag_24:\n      tag_114\n      0x04\n      dup1\n      calldatasize\n      sub\n      dup2\n      add\n      swap1\n      tag_115\n      swap2\n      swap1\n      tag_116\n      jump\t// in\n    tag_115:\n      tag_117\n      jump\t// in\n    tag_114:\n      stop\n        /* \"@openzeppelin/contracts/access/Ownable.sol\":2543:2758  function transferOwnership(address newOwner) public virtual onlyOwner {... */\n    tag_25:\n      tag_118\n      0x04\n      dup1\n      calldatasize\n      sub\n      dup2\n      add\n      swap1\n      tag_119\n      swap2\n      swap1\n      tag_64\n      jump\t// in\n    tag_119:\n      tag_120\n      jump\t// in\n    tag_118:\n      stop\n        /* \"HumAidToken.sol\":3935:4552  function distributeTreasuryToNGOs() external onlyOwner {... */\n    tag_26:\n      tag_121\n      tag_122\n      jump\t// in\n    tag_121:\n      stop\n        /* \"@openzeppelin/contracts/token/ERC20/ERC20.sol\":1760:1849  function name() public view virtual returns (string memory) {... */\n    tag_31:\n        /* \"@openzeppelin/contracts/token/ERC20/ERC20.sol\":1805:1818  string memory */\n      0x60\n        /* \"@openzeppelin/contracts/token/ERC20/ERC20.sol\":1837:1842  _name */\n      0x03\n        /* \"@openzeppelin/contracts/token/ERC20/ERC20.sol\":1830:1842  return _name */\n      dup1\n      sload\n      tag_124\n      swap1\n      tag_125\n      jump\t// in\n    tag_124:\n      dup1\n      0x1f\n      add\n      0x20\n      dup1\n      swap2\n      div\n      mul\n      0x20\n      add\n      mload(0x40)\n      swap1\n      dup2\n      add\n      0x40\n      mstore\n      dup1\n      swap3\n      swap2\n      swap1\n      dup2\n      dup2\n      mstore\n      0x20\n      add\n      dup3\n      dup1\n      sload\n      tag_126\n      swap1\n      tag_125\n      jump\t// in\n    tag_126:\n      dup1\n      iszero\n      tag_127\n      jumpi\n      dup1\n      0x1f\n      lt\n      tag_128\n      jumpi\n      0x0100\n      dup1\n      dup4\n      sload\n      div\n      mul\n      dup4\n      mstore\n      swap2\n      0x20\n      add\n      swap2\n      jump(tag_127)\n    tag_128:\n      dup3\n      add\n      swap2\n      swap1\n      0x00\n      mstore\n      keccak256(0x00, 0x20)\n      swap1\n    tag_129:\n      dup2\n      sload\n      dup2\n      mstore\n      swap1\n      0x01\n      add\n      swap1\n      0x20\n      add\n      dup1\n      dup4\n      gt\n      tag_129\n      jumpi\n      dup3\n      swap1\n      sub\n      0x1f\n      and\n      dup3\n      add\n      swap2\n    tag_127:\n      pop\n      pop\n      pop\n      pop\n      pop\n      swap1\n      pop\n        /* \"@openzeppelin/contracts/token/ERC20/ERC20.sol\":1760:1849  function name() public view virtual returns (string memory) {... */\n      swap1\n      jump\t// out\n        /* \"@openzeppelin/contracts/token/ERC20/ERC20.sol\":3979:4165  function approve(address spender, uint256 value) public virtual returns (bool) {... */\n    tag_37:\n        /* \"@openzeppelin/contracts/token/ERC20/ERC20.sol\":4052:4056  bool */\n      0x00\n        /* \"@openzeppelin/contracts/token/ERC20/ERC20.sol\":4068:4081  address owner */\n      dup1\n        /* \"@openzeppelin/contracts/token/ERC20/ERC20.sol\":4084:4096  _msgSender() */\n      tag_131\n        /* \"@openzeppelin/contracts/token/ERC20/ERC20.sol\":4084:4094  _msgSender */\n      tag_132\n        /* \"@openzeppelin/contracts/token/ERC20/ERC20.sol\":4084:4096  _msgSender() */\n      jump\t// in\n    tag_131:\n        /* \"@openzeppelin/contracts/token/ERC20/ERC20.sol\":4068:4096  address owner = _msgSender() */\n      swap1\n      pop\n        /* \"@openzeppelin/contracts/token/ERC20/ERC20.sol\":4106:4137  _approve(owner, spender, value) */\n      tag_133\n        /* \"@openzeppelin/contracts/token/ERC20/ERC20.sol\":4115:4120  owner */\n      dup2\n        /* \"@openzeppelin/contracts/token/ERC20/ERC20.sol\":4122:4129  spender */\n      dup6\n        /* \"@openzeppelin/contracts/token/ERC20/ERC20.sol\":4131:4136  value */\n      dup6\n        /* \"@openzeppelin/contracts/token/ERC20/ERC20.sol\":4106:4114  _approve */\n      tag_134\n        /* \"@openzeppelin/contracts/token/ERC20/ERC20.sol\":4106:4137  _approve(owner, spender, value) */\n      jump\t// in\n    tag_133:\n        /* \"@openzeppelin/contracts/token/ERC20/ERC20.sol\":4154:4158  true */\n      0x01\n        /* \"@openzeppelin/contracts/token/ERC20/ERC20.sol\":4147:4158  return true */\n      swap2\n      pop\n      pop\n        /* \"@openzeppelin/contracts/token/ERC20/ERC20.sol\":3979:4165  function approve(address spender, uint256 value) public virtual returns (bool) {... */\n      swap3\n      swap2\n      pop\n      pop\n      jump\t// out\n        /* \"@openzeppelin/contracts/token/ERC20/ERC20.sol\":2830:2927  function totalSupply() public view virtual returns (uint256) {... */\n    tag_41:\n        /* \"@openzeppelin/contracts/token/ERC20/ERC20.sol\":2882:2889  uint256 */\n      0x00\n        /* \"@openzeppelin/contracts/token/ERC20/ERC20.sol\":2908:2920  _totalSupply */\n      sload(0x02)\n        /* \"@openzeppelin/contracts/token/ERC20/ERC20.sol\":2901:2920  return _totalSupply */\n      swap1\n      pop\n        /* \"@openzeppelin/contracts/token/ERC20/ERC20.sol\":2830:2927  function totalSupply() public view virtual returns (uint256) {... */\n      swap1\n      jump\t// out\n        /* \"@openzeppelin/contracts/token/ERC20/ERC20.sol\":4757:5001  function transferFrom(address from, address to, uint256 value) public virtual returns (bool) {... */\n    tag_47:\n        /* \"@openzeppelin/contracts/token/ERC20/ERC20.sol\":4844:4848  bool */\n      0x00\n        /* \"@openzeppelin/contracts/token/ERC20/ERC20.sol\":4860:4875  address spender */\n      dup1\n        /* \"@openzeppelin/contracts/token/ERC20/ERC20.sol\":4878:4890  _msgSender() */\n      tag_137\n        /* \"@openzeppelin/contracts/token/ERC20/ERC20.sol\":4878:4888  _msgSender */\n      tag_132\n        /* \"@openzeppelin/contracts/token/ERC20/ERC20.sol\":4878:4890  _msgSender() */\n      jump\t// in\n    tag_137:\n        /* \"@openzeppelin/contracts/token/ERC20/ERC20.sol\":4860:4890  address spender = _msgSender() */\n      swap1\n      pop\n        /* \"@openzeppelin/contracts/token/ERC20/ERC20.sol\":4900:4937  _spendAllowance(from, spender, value) */\n      tag_138\n        /* \"@openzeppelin/contracts/token/ERC20/ERC20.sol\":4916:4920  from */\n      dup6\n        /* \"@openzeppelin/contracts/token/ERC20/ERC20.sol\":4922:4929  spender */\n      dup3\n        /* \"@openzeppelin/contracts/token/ERC20/ERC20.sol\":4931:4936  value */\n      dup6\n        /* \"@openzeppelin/contracts/token/ERC20/ERC20.sol\":4900:4915  _spendAllowance */\n      tag_139\n        /* \"@openzeppelin/contracts/token/ERC20/ERC20.sol\":4900:4937  _spendAllowance(from, spender, value) */\n      jump\t// in\n    tag_138:\n        /* \"@openzeppelin/contracts/token/ERC20/ERC20.sol\":4947:4973  _transfer(from, to, value) */\n      tag_140\n        /* \"@openzeppelin/contracts/token/ERC20/ERC20.sol\":4957:4961  from */\n      dup6\n        /* \"@openzeppelin/contracts/token/ERC20/ERC20.sol\":4963:4965  to */\n      dup6\n        /* \"@openzeppelin/contracts/token/ERC20/ERC20.sol\":4967:4972  value */\n      dup6\n        /* \"@openzeppelin/contracts/token/ERC20/ERC20.sol\":4947:4956  _transfer */\n      tag_141\n        /* \"@openzeppelin/contracts/token/ERC20/ERC20.sol\":4947:4973  _transfer(from, to, value) */\n      jump\t// in\n    tag_140:\n        /* \"@openzeppelin/contracts/token/ERC20/ERC20.sol\":4990:4994  true */\n      0x01\n        /* \"@openzeppelin/contracts/token/ERC20/ERC20.sol\":4983:4994  return true */\n      swap2\n      pop\n      pop\n        /* \"@openzeppelin/contracts/token/ERC20/ERC20.sol\":4757:5001  function transferFrom(address from, address to, uint256 value) public virtual returns (bool) {... */\n      swap4\n      swap3\n      pop\n      pop\n      pop\n      jump\t// out\n        /* \"@openzeppelin/contracts/token/ERC20/ERC20.sol\":2688:2770  function decimals() public view virtual returns (uint8) {... */\n    tag_50:\n        /* \"@openzeppelin/contracts/token/ERC20/ERC20.sol\":2737:2742  uint8 */\n      0x00\n        /* \"@openzeppelin/contracts/token/ERC20/ERC20.sol\":2761:2763  18 */\n      0x12\n        /* \"@openzeppelin/contracts/token/ERC20/ERC20.sol\":2754:2763  return 18 */\n      swap1\n      pop\n        /* \"@openzeppelin/contracts/token/ERC20/ERC20.sol\":2688:2770  function decimals() public view virtual returns (uint8) {... */\n      swap1\n      jump\t// out\n        /* \"HumAidToken.sol\":2403:2894  function registerNGO(string memory _ngoName, address _ngoAddress) external onlyOwner returns (bool) {... */\n    tag_56:\n        /* \"HumAidToken.sol\":2497:2501  bool */\n      0x00\n        /* \"@openzeppelin/contracts/access/Ownable.sol\":1531:1544  _checkOwner() */\n      tag_144\n        /* \"@openzeppelin/contracts/access/Ownable.sol\":1531:1542  _checkOwner */\n      tag_145\n        /* \"@openzeppelin/contracts/access/Ownable.sol\":1531:1544  _checkOwner() */\n      jump\t// in\n    tag_144:\n        /* \"HumAidToken.sol\":2545:2546  0 */\n      0x00\n        /* \"HumAidToken.sol\":2522:2547  _ngoAddress != address(0) */\n      0xffffffffffffffffffffffffffffffffffffffff\n      and\n        /* \"HumAidToken.sol\":2522:2533  _ngoAddress */\n      dup3\n        /* \"HumAidToken.sol\":2522:2547  _ngoAddress != address(0) */\n      0xffffffffffffffffffffffffffffffffffffffff\n      and\n      sub\n        /* \"HumAidToken.sol\":2514:2571  require(_ngoAddress != address(0), \"Invalid NGO address\") */\n      tag_147\n      jumpi\n      mload(0x40)\n      0x08c379a000000000000000000000000000000000000000000000000000000000\n      dup2\n      mstore\n      0x04\n      add\n      tag_148\n      swap1\n      tag_149\n      jump\t// in\n    tag_148:\n      mload(0x40)\n      dup1\n      swap2\n      sub\n      swap1\n      revert\n    tag_147:\n        /* \"HumAidToken.sol\":2587:2593  uint i */\n      0x00\n        /* \"HumAidToken.sol\":2582:2744  for (uint i = 0; i < ngoWallets.length; ++i){... */\n    tag_150:\n        /* \"HumAidToken.sol\":2603:2613  ngoWallets */\n      0x08\n        /* \"HumAidToken.sol\":2603:2620  ngoWallets.length */\n      dup1\n      sload\n      swap1\n      pop\n        /* \"HumAidToken.sol\":2599:2600  i */\n      dup2\n        /* \"HumAidToken.sol\":2599:2620  i < ngoWallets.length */\n      lt\n        /* \"HumAidToken.sol\":2582:2744  for (uint i = 0; i < ngoWallets.length; ++i){... */\n      iszero\n      tag_151\n      jumpi\n        /* \"HumAidToken.sol\":2708:2716  _ngoName */\n      dup4\n        /* \"HumAidToken.sol\":2691:2718  keccak256(bytes (_ngoName)) */\n      dup1\n      mload\n      swap1\n      0x20\n      add\n      keccak256\n        /* \"HumAidToken.sol\":2662:2670  ngoNames */\n      0x07\n        /* \"HumAidToken.sol\":2662:2685  ngoNames[ngoWallets[i]] */\n      0x00\n        /* \"HumAidToken.sol\":2671:2681  ngoWallets */\n      0x08\n        /* \"HumAidToken.sol\":2682:2683  i */\n      dup5\n        /* \"HumAidToken.sol\":2671:2684  ngoWallets[i] */\n      dup2\n      sload\n      dup2\n      lt\n      tag_153\n      jumpi\n      tag_154\n      tag_155\n      jump\t// in\n    tag_154:\n    tag_153:\n      swap1\n      0x00\n      mstore\n      keccak256(0x00, 0x20)\n      add\n      0x00\n      swap1\n      sload\n      swap1\n      0x0100\n      exp\n      swap1\n      div\n      0xffffffffffffffffffffffffffffffffffffffff\n      and\n        /* \"HumAidToken.sol\":2662:2685  ngoNames[ngoWallets[i]] */\n      0xffffffffffffffffffffffffffffffffffffffff\n      and\n      0xffffffffffffffffffffffffffffffffffffffff\n      and\n      dup2\n      mstore\n      0x20\n      add\n      swap1\n      dup2\n      mstore\n      0x20\n      add\n      0x00\n      keccak256\n        /* \"HumAidToken.sol\":2645:2687  keccak256(bytes (ngoNames[ngoWallets[i]])) */\n      mload(0x40)\n      tag_157\n      swap2\n      swap1\n      tag_158\n      jump\t// in\n    tag_157:\n      mload(0x40)\n      dup1\n      swap2\n      sub\n      swap1\n      keccak256\n        /* \"HumAidToken.sol\":2645:2718  keccak256(bytes (ngoNames[ngoWallets[i]])) == keccak256(bytes (_ngoName)) */\n      sub\n        /* \"HumAidToken.sol\":2641:2732  if (keccak256(bytes (ngoNames[ngoWallets[i]])) == keccak256(bytes (_ngoName))) return false */\n      tag_159\n      jumpi\n        /* \"HumAidToken.sol\":2727:2732  false */\n      0x00\n        /* \"HumAidToken.sol\":2720:2732  return false */\n      swap2\n      pop\n      pop\n      jump(tag_146)\n        /* \"HumAidToken.sol\":2641:2732  if (keccak256(bytes (ngoNames[ngoWallets[i]])) == keccak256(bytes (_ngoName))) return false */\n    tag_159:\n        /* \"HumAidToken.sol\":2622:2625  ++i */\n      dup1\n      0x01\n      add\n      swap1\n      pop\n        /* \"HumAidToken.sol\":2582:2744  for (uint i = 0; i < ngoWallets.length; ++i){... */\n      jump(tag_150)\n    tag_151:\n      pop\n        /* \"HumAidToken.sol\":2778:2786  _ngoName */\n      dup3\n        /* \"HumAidToken.sol\":2754:2762  ngoNames */\n      0x07\n        /* \"HumAidToken.sol\":2754:2775  ngoNames[_ngoAddress] */\n      0x00\n        /* \"HumAidToken.sol\":2763:2774  _ngoAddress */\n      dup5\n        /* \"HumAidToken.sol\":2754:2775  ngoNames[_ngoAddress] */\n      0xffffffffffffffffffffffffffffffffffffffff\n      and\n      0xffffffffffffffffffffffffffffffffffffffff\n      and\n      dup2\n      mstore\n      0x20\n      add\n      swap1\n      dup2\n      mstore\n      0x20\n      add\n      0x00\n      keccak256\n        /* \"HumAidToken.sol\":2754:2786  ngoNames[_ngoAddress] = _ngoName */\n      swap1\n      dup2\n      tag_160\n      swap2\n      swap1\n      tag_161\n      jump\t// in\n    tag_160:\n      pop\n        /* \"HumAidToken.sol\":2802:2838  NGORegistered(_ngoName, _ngoAddress) */\n      0xa06dde3e644f7da70b4461f791ff2766ebeacd8cae66b3e6a98637a9dacbd900\n        /* \"HumAidToken.sol\":2816:2824  _ngoName */\n      dup4\n        /* \"HumAidToken.sol\":2826:2837  _ngoAddress */\n      dup4\n        /* \"HumAidToken.sol\":2802:2838  NGORegistered(_ngoName, _ngoAddress) */\n      mload(0x40)\n      tag_162\n      swap3\n      swap2\n      swap1\n      tag_163\n      jump\t// in\n    tag_162:\n      mload(0x40)\n      dup1\n      swap2\n      sub\n      swap1\n      log1\n        /* \"HumAidToken.sol\":2856:2886  registerNGOWallet(_ngoAddress) */\n      tag_164\n        /* \"HumAidToken.sol\":2874:2885  _ngoAddress */\n      dup3\n        /* \"HumAidToken.sol\":2856:2873  registerNGOWallet */\n      tag_165\n        /* \"HumAidToken.sol\":2856:2886  registerNGOWallet(_ngoAddress) */\n      jump\t// in\n    tag_164:\n        /* \"HumAidToken.sol\":2849:2886  return registerNGOWallet(_ngoAddress) */\n      swap1\n      pop\n        /* \"@openzeppelin/contracts/access/Ownable.sol\":1554:1555  _ */\n    tag_146:\n        /* \"HumAidToken.sol\":2403:2894  function registerNGO(string memory _ngoName, address _ngoAddress) external onlyOwner returns (bool) {... */\n      swap3\n      swap2\n      pop\n      pop\n      jump\t// out\n        /* \"HumAidToken.sol\":1772:1855  function burn(uint256 amount) external {... */\n    tag_61:\n        /* \"HumAidToken.sol\":1822:1847  _burn(msg.sender, amount) */\n      tag_167\n        /* \"HumAidToken.sol\":1828:1838  msg.sender */\n      caller\n        /* \"HumAidToken.sol\":1840:1846  amount */\n      dup3\n        /* \"HumAidToken.sol\":1822:1827  _burn */\n      tag_168\n        /* \"HumAidToken.sol\":1822:1847  _burn(msg.sender, amount) */\n      jump\t// in\n    tag_167:\n        /* \"HumAidToken.sol\":1772:1855  function burn(uint256 amount) external {... */\n      pop\n      jump\t// out\n        /* \"HumAidToken.sol\":293:336  mapping (address => string) public ngoNames */\n    tag_65:\n      mstore(0x20, 0x07)\n      dup1\n      0x00\n      mstore\n      keccak256(0x00, 0x40)\n      0x00\n      swap2\n      pop\n      swap1\n      pop\n      dup1\n      sload\n      tag_169\n      swap1\n      tag_125\n      jump\t// in\n    tag_169:\n      dup1\n      0x1f\n      add\n      0x20\n      dup1\n      swap2\n      div\n      mul\n      0x20\n      add\n      mload(0x40)\n      swap1\n      dup2\n      add\n      0x40\n      mstore\n      dup1\n      swap3\n      swap2\n      swap1\n      dup2\n      dup2\n      mstore\n      0x20\n      add\n      dup3\n      dup1\n      sload\n      tag_170\n      swap1\n      tag_125\n      jump\t// in\n    tag_170:\n      dup1\n      iszero\n      tag_171\n      jumpi\n      dup1\n      0x1f\n      lt\n      tag_172\n      jumpi\n      0x0100\n      dup1\n      dup4\n      sload\n      div\n      mul\n      dup4\n      mstore\n      swap2\n      0x20\n      add\n      swap2\n      jump(tag_171)\n    tag_172:\n      dup3\n      add\n      swap2\n      swap1\n      0x00\n      mstore\n      keccak256(0x00, 0x20)\n      swap1\n    tag_173:\n      dup2\n      sload\n      dup2\n      mstore\n      swap1\n      0x01\n      add\n      swap1\n      0x20\n      add\n      dup1\n      dup4\n      gt\n      tag_173\n      jumpi\n      dup3\n      swap1\n      sub\n      0x1f\n      and\n      dup3\n      add\n      swap2\n    tag_171:\n      pop\n      pop\n      pop\n      pop\n      pop\n      dup2\n      jump\t// out\n        /* \"HumAidToken.sol\":439:468  address public treasuryWallet */\n    tag_68:\n      0x0a\n      0x00\n      swap1\n      sload\n      swap1\n      0x0100\n      exp\n      swap1\n      div\n      0xffffffffffffffffffffffffffffffffffffffff\n      and\n      dup2\n      jump\t// out\n        /* \"HumAidToken.sol\":1638:1764  function isExcludedFromFee(address account) external view returns (bool) {... */\n    tag_73:\n        /* \"HumAidToken.sol\":1705:1709  bool */\n      0x00\n        /* \"HumAidToken.sol\":1729:1747  _isExcludedFromFee */\n      0x09\n        /* \"HumAidToken.sol\":1729:1756  _isExcludedFromFee[account] */\n      0x00\n        /* \"HumAidToken.sol\":1748:1755  account */\n      dup4\n        /* \"HumAidToken.sol\":1729:1756  _isExcludedFromFee[account] */\n      0xffffffffffffffffffffffffffffffffffffffff\n      and\n      0xffffffffffffffffffffffffffffffffffffffff\n      and\n      dup2\n      mstore\n      0x20\n      add\n      swap1\n      dup2\n      mstore\n      0x20\n      add\n      0x00\n      keccak256\n      0x00\n      swap1\n      sload\n      swap1\n      0x0100\n      exp\n      swap1\n      div\n      0xff\n      and\n        /* \"HumAidToken.sol\":1722:1756  return _isExcludedFromFee[account] */\n      swap1\n      pop\n        /* \"HumAidToken.sol\":1638:1764  function isExcludedFromFee(address account) external view returns (bool) {... */\n      swap2\n      swap1\n      pop\n      jump\t// out\n        /* \"@openzeppelin/contracts/token/ERC20/ERC20.sol\":2985:3101  function balanceOf(address account) public view virtual returns (uint256) {... */\n    tag_77:\n        /* \"@openzeppelin/contracts/token/ERC20/ERC20.sol\":3050:3057  uint256 */\n      0x00\n        /* \"@openzeppelin/contracts/token/ERC20/ERC20.sol\":3076:3085  _balances */\n      dup1\n        /* \"@openzeppelin/contracts/token/ERC20/ERC20.sol\":3076:3094  _balances[account] */\n      0x00\n        /* \"@openzeppelin/contracts/token/ERC20/ERC20.sol\":3086:3093  account */\n      dup4\n        /* \"@openzeppelin/contracts/token/ERC20/ERC20.sol\":3076:3094  _balances[account] */\n      0xffffffffffffffffffffffffffffffffffffffff\n      and\n      0xffffffffffffffffffffffffffffffffffffffff\n      and\n      dup2\n      mstore\n      0x20\n      add\n      swap1\n      dup2\n      mstore\n      0x20\n      add\n      0x00\n      keccak256\n      sload\n        /* \"@openzeppelin/contracts/token/ERC20/ERC20.sol\":3069:3094  return _balances[account] */\n      swap1\n      pop\n        /* \"@openzeppelin/contracts/token/ERC20/ERC20.sol\":2985:3101  function balanceOf(address account) public view virtual returns (uint256) {... */\n      swap2\n      swap1\n      pop\n      jump\t// out\n        /* \"@openzeppelin/contracts/access/Ownable.sol\":2293:2394  function renounceOwnership() public virtual onlyOwner {... */\n    tag_80:\n        /* \"@openzeppelin/contracts/access/Ownable.sol\":1531:1544  _checkOwner() */\n      tag_177\n        /* \"@openzeppelin/contracts/access/Ownable.sol\":1531:1542  _checkOwner */\n      tag_145\n        /* \"@openzeppelin/contracts/access/Ownable.sol\":1531:1544  _checkOwner() */\n      jump\t// in\n    tag_177:\n        /* \"@openzeppelin/contracts/access/Ownable.sol\":2357:2387  _transferOwnership(address(0)) */\n      tag_179\n        /* \"@openzeppelin/contracts/access/Ownable.sol\":2384:2385  0 */\n      0x00\n        /* \"@openzeppelin/contracts/access/Ownable.sol\":2357:2375  _transferOwnership */\n      tag_180\n        /* \"@openzeppelin/contracts/access/Ownable.sol\":2357:2387  _transferOwnership(address(0)) */\n      jump\t// in\n    tag_179:\n        /* \"@openzeppelin/contracts/access/Ownable.sol\":2293:2394  function renounceOwnership() public virtual onlyOwner {... */\n      jump\t// out\n        /* \"HumAidToken.sol\":1331:1490  function setFeePercent(uint256 _feePercent) external onlyOwner {... */\n    tag_83:\n        /* \"@openzeppelin/contracts/access/Ownable.sol\":1531:1544  _checkOwner() */\n      tag_182\n        /* \"@openzeppelin/contracts/access/Ownable.sol\":1531:1542  _checkOwner */\n      tag_145\n        /* \"@openzeppelin/contracts/access/Ownable.sol\":1531:1544  _checkOwner() */\n      jump\t// in\n    tag_182:\n        /* \"HumAidToken.sol\":1428:1430  50 */\n      0x32\n        /* \"HumAidToken.sol\":1413:1424  _feePercent */\n      dup2\n        /* \"HumAidToken.sol\":1413:1430  _feePercent <= 50 */\n      gt\n      iszero\n        /* \"HumAidToken.sol\":1405:1447  require(_feePercent <= 50, \"Fee too high\") */\n      tag_184\n      jumpi\n      mload(0x40)\n      0x08c379a000000000000000000000000000000000000000000000000000000000\n      dup2\n      mstore\n      0x04\n      add\n      tag_185\n      swap1\n      tag_186\n      jump\t// in\n    tag_185:\n      mload(0x40)\n      dup1\n      swap2\n      sub\n      swap1\n      revert\n    tag_184:\n        /* \"HumAidToken.sol\":1471:1482  _feePercent */\n      dup1\n        /* \"HumAidToken.sol\":1458:1468  feePercent */\n      0x06\n        /* \"HumAidToken.sol\":1458:1482  feePercent = _feePercent */\n      dup2\n      swap1\n      sstore\n      pop\n        /* \"HumAidToken.sol\":1331:1490  function setFeePercent(uint256 _feePercent) external onlyOwner {... */\n      pop\n      jump\t// out\n        /* \"HumAidToken.sol\":343:370  address[] public ngoWallets */\n    tag_86:\n      0x08\n      dup2\n      dup2\n      sload\n      dup2\n      lt\n      tag_187\n      jumpi\n      0x00\n      dup1\n      revert\n    tag_187:\n      swap1\n      0x00\n      mstore\n      keccak256(0x00, 0x20)\n      add\n      0x00\n      swap2\n      pop\n      sload\n      swap1\n      0x0100\n      exp\n      swap1\n      div\n      0xffffffffffffffffffffffffffffffffffffffff\n      and\n      dup2\n      jump\t// out\n        /* \"HumAidToken.sol\":236:265  uint256 public feePercent = 5 */\n    tag_89:\n      sload(0x06)\n      dup2\n      jump\t// out\n        /* \"@openzeppelin/contracts/access/Ownable.sol\":1638:1723  function owner() public view virtual returns (address) {... */\n    tag_92:\n        /* \"@openzeppelin/contracts/access/Ownable.sol\":1684:1691  address */\n      0x00\n        /* \"@openzeppelin/contracts/access/Ownable.sol\":1710:1716  _owner */\n      0x05\n      0x00\n      swap1\n      sload\n      swap1\n      0x0100\n      exp\n      swap1\n      div\n      0xffffffffffffffffffffffffffffffffffffffff\n      and\n        /* \"@openzeppelin/contracts/access/Ownable.sol\":1703:1716  return _owner */\n      swap1\n      pop\n        /* \"@openzeppelin/contracts/access/Ownable.sol\":1638:1723  function owner() public view virtual returns (address) {... */\n      swap1\n      jump\t// out\n        /* \"@openzeppelin/contracts/token/ERC20/ERC20.sol\":1962:2055  function symbol() public view virtual returns (string memory) {... */\n    tag_95:\n        /* \"@openzeppelin/contracts/token/ERC20/ERC20.sol\":2009:2022  string memory */\n      0x60\n        /* \"@openzeppelin/contracts/token/ERC20/ERC20.sol\":2041:2048  _symbol */\n      0x04\n        /* \"@openzeppelin/contracts/token/ERC20/ERC20.sol\":2034:2048  return _symbol */\n      dup1\n      sload\n      tag_191\n      swap1\n      tag_125\n      jump\t// in\n    tag_191:\n      dup1\n      0x1f\n      add\n      0x20\n      dup1\n      swap2\n      div\n      mul\n      0x20\n      add\n      mload(0x40)\n      swap1\n      dup2\n      add\n      0x40\n      mstore\n      dup1\n      swap3\n      swap2\n      swap1\n      dup2\n      dup2\n      mstore\n      0x20\n      add\n      dup3\n      dup1\n      sload\n      tag_192\n      swap1\n      tag_125\n      jump\t// in\n    tag_192:\n      dup1\n      iszero\n      tag_193\n      jumpi\n      dup1\n      0x1f\n      lt\n      tag_194\n      jumpi\n      0x0100\n      dup1\n      dup4\n      sload\n      div\n      mul\n      dup4\n      mstore\n      swap2\n      0x20\n      add\n      swap2\n      jump(tag_193)\n    tag_194:\n      dup3\n      add\n      swap2\n      swap1\n      0x00\n      mstore\n      keccak256(0x00, 0x20)\n      swap1\n    tag_195:\n      dup2\n      sload\n      dup2\n      mstore\n      swap1\n      0x01\n      add\n      swap1\n      0x20\n      add\n      dup1\n      dup4\n      gt\n      tag_195\n      jumpi\n      dup3\n      swap1\n      sub\n      0x1f\n      and\n      dup3\n      add\n      swap2\n    tag_193:\n      pop\n      pop\n      pop\n      pop\n      pop\n      swap1\n      pop\n        /* \"@openzeppelin/contracts/token/ERC20/ERC20.sol\":1962:2055  function symbol() public view virtual returns (string memory) {... */\n      swap1\n      jump\t// out\n        /* \"HumAidToken.sol\":689:1059  function setTreasuryWallet(address _treasuryWallet) external onlyOwner {... */\n    tag_99:\n        /* \"@openzeppelin/contracts/access/Ownable.sol\":1531:1544  _checkOwner() */\n      tag_197\n        /* \"@openzeppelin/contracts/access/Ownable.sol\":1531:1542  _checkOwner */\n      tag_145\n        /* \"@openzeppelin/contracts/access/Ownable.sol\":1531:1544  _checkOwner() */\n      jump\t// in\n    tag_197:\n        /* \"HumAidToken.sol\":806:807  0 */\n      0x00\n        /* \"HumAidToken.sol\":779:808  _treasuryWallet != address(0) */\n      0xffffffffffffffffffffffffffffffffffffffff\n      and\n        /* \"HumAidToken.sol\":779:794  _treasuryWallet */\n      dup2\n        /* \"HumAidToken.sol\":779:808  _treasuryWallet != address(0) */\n      0xffffffffffffffffffffffffffffffffffffffff\n      and\n      sub\n        /* \"HumAidToken.sol\":771:837  require(_treasuryWallet != address(0), \"Invalid treasury address\") */\n      tag_199\n      jumpi\n      mload(0x40)\n      0x08c379a000000000000000000000000000000000000000000000000000000000\n      dup2\n      mstore\n      0x04\n      add\n      tag_200\n      swap1\n      tag_201\n      jump\t// in\n    tag_200:\n      mload(0x40)\n      dup1\n      swap2\n      sub\n      swap1\n      revert\n    tag_199:\n        /* \"HumAidToken.sol\":880:881  0 */\n      0x00\n        /* \"HumAidToken.sol\":854:882  treasuryWallet != address(0) */\n      0xffffffffffffffffffffffffffffffffffffffff\n      and\n        /* \"HumAidToken.sol\":854:868  treasuryWallet */\n      0x0a\n      0x00\n      swap1\n      sload\n      swap1\n      0x0100\n      exp\n      swap1\n      div\n      0xffffffffffffffffffffffffffffffffffffffff\n      and\n        /* \"HumAidToken.sol\":854:882  treasuryWallet != address(0) */\n      0xffffffffffffffffffffffffffffffffffffffff\n      and\n      eq\n        /* \"HumAidToken.sol\":850:953  if (treasuryWallet != address(0)) {... */\n      tag_202\n      jumpi\n        /* \"HumAidToken.sol\":936:941  false */\n      0x00\n        /* \"HumAidToken.sol\":899:917  _isExcludedFromFee */\n      0x09\n        /* \"HumAidToken.sol\":899:933  _isExcludedFromFee[treasuryWallet] */\n      0x00\n        /* \"HumAidToken.sol\":918:932  treasuryWallet */\n      0x0a\n      0x00\n      swap1\n      sload\n      swap1\n      0x0100\n      exp\n      swap1\n      div\n      0xffffffffffffffffffffffffffffffffffffffff\n      and\n        /* \"HumAidToken.sol\":899:933  _isExcludedFromFee[treasuryWallet] */\n      0xffffffffffffffffffffffffffffffffffffffff\n      and\n      0xffffffffffffffffffffffffffffffffffffffff\n      and\n      dup2\n      mstore\n      0x20\n      add\n      swap1\n      dup2\n      mstore\n      0x20\n      add\n      0x00\n      keccak256\n      0x00\n        /* \"HumAidToken.sol\":899:941  _isExcludedFromFee[treasuryWallet] = false */\n      0x0100\n      exp\n      dup2\n      sload\n      dup2\n      0xff\n      mul\n      not\n      and\n      swap1\n      dup4\n      iszero\n      iszero\n      mul\n      or\n      swap1\n      sstore\n      pop\n        /* \"HumAidToken.sol\":850:953  if (treasuryWallet != address(0)) {... */\n    tag_202:\n        /* \"HumAidToken.sol\":982:997  _treasuryWallet */\n      dup1\n        /* \"HumAidToken.sol\":965:979  treasuryWallet */\n      0x0a\n      0x00\n        /* \"HumAidToken.sol\":965:997  treasuryWallet = _treasuryWallet */\n      0x0100\n      exp\n      dup2\n      sload\n      dup2\n      0xffffffffffffffffffffffffffffffffffffffff\n      mul\n      not\n      and\n      swap1\n      dup4\n      0xffffffffffffffffffffffffffffffffffffffff\n      and\n      mul\n      or\n      swap1\n      sstore\n      pop\n        /* \"HumAidToken.sol\":1047:1051  true */\n      0x01\n        /* \"HumAidToken.sol\":1010:1028  _isExcludedFromFee */\n      0x09\n        /* \"HumAidToken.sol\":1010:1044  _isExcludedFromFee[treasuryWallet] */\n      0x00\n        /* \"HumAidToken.sol\":1029:1043  treasuryWallet */\n      0x0a\n      0x00\n      swap1\n      sload\n      swap1\n      0x0100\n      exp\n      swap1\n      div\n      0xffffffffffffffffffffffffffffffffffffffff\n      and\n        /* \"HumAidToken.sol\":1010:1044  _isExcludedFromFee[treasuryWallet] */\n      0xffffffffffffffffffffffffffffffffffffffff\n      and\n      0xffffffffffffffffffffffffffffffffffffffff\n      and\n      dup2\n      mstore\n      0x20\n      add\n      swap1\n      dup2\n      mstore\n      0x20\n      add\n      0x00\n      keccak256\n      0x00\n        /* \"HumAidToken.sol\":1010:1051  _isExcludedFromFee[treasuryWallet] = true */\n      0x0100\n      exp\n      dup2\n      sload\n      dup2\n      0xff\n      mul\n      not\n      and\n      swap1\n      dup4\n      iszero\n      iszero\n      mul\n      or\n      swap1\n      sstore\n      pop\n        /* \"HumAidToken.sol\":689:1059  function setTreasuryWallet(address _treasuryWallet) external onlyOwner {... */\n      pop\n      jump\t// out\n        /* \"@openzeppelin/contracts/token/ERC20/ERC20.sol\":3296:3474  function transfer(address to, uint256 value) public virtual returns (bool) {... */\n    tag_102:\n        /* \"@openzeppelin/contracts/token/ERC20/ERC20.sol\":3365:3369  bool */\n      0x00\n        /* \"@openzeppelin/contracts/token/ERC20/ERC20.sol\":3381:3394  address owner */\n      dup1\n        /* \"@openzeppelin/contracts/token/ERC20/ERC20.sol\":3397:3409  _msgSender() */\n      tag_204\n        /* \"@openzeppelin/contracts/token/ERC20/ERC20.sol\":3397:3407  _msgSender */\n      tag_132\n        /* \"@openzeppelin/contracts/token/ERC20/ERC20.sol\":3397:3409  _msgSender() */\n      jump\t// in\n    tag_204:\n        /* \"@openzeppelin/contracts/token/ERC20/ERC20.sol\":3381:3409  address owner = _msgSender() */\n      swap1\n      pop\n        /* \"@openzeppelin/contracts/token/ERC20/ERC20.sol\":3419:3446  _transfer(owner, to, value) */\n      tag_205\n        /* \"@openzeppelin/contracts/token/ERC20/ERC20.sol\":3429:3434  owner */\n      dup2\n        /* \"@openzeppelin/contracts/token/ERC20/ERC20.sol\":3436:3438  to */\n      dup6\n        /* \"@openzeppelin/contracts/token/ERC20/ERC20.sol\":3440:3445  value */\n      dup6\n        /* \"@openzeppelin/contracts/token/ERC20/ERC20.sol\":3419:3428  _transfer */\n      tag_141\n        /* \"@openzeppelin/contracts/token/ERC20/ERC20.sol\":3419:3446  _transfer(owner, to, value) */\n      jump\t// in\n    tag_205:\n        /* \"@openzeppelin/contracts/token/ERC20/ERC20.sol\":3463:3467  true */\n      0x01\n        /* \"@openzeppelin/contracts/token/ERC20/ERC20.sol\":3456:3467  return true */\n      swap2\n      pop\n      pop\n        /* \"@openzeppelin/contracts/token/ERC20/ERC20.sol\":3296:3474  function transfer(address to, uint256 value) public virtual returns (bool) {... */\n      swap3\n      swap2\n      pop\n      pop\n      jump\t// out\n        /* \"HumAidToken.sol\":3351:3927  function unregisterNGO(string memory _ngoName) external onlyOwner returns (bool) {... */\n    tag_107:\n        /* \"HumAidToken.sol\":3426:3430  bool */\n      0x00\n        /* \"@openzeppelin/contracts/access/Ownable.sol\":1531:1544  _checkOwner() */\n      tag_207\n        /* \"@openzeppelin/contracts/access/Ownable.sol\":1531:1542  _checkOwner */\n      tag_145\n        /* \"@openzeppelin/contracts/access/Ownable.sol\":1531:1544  _checkOwner() */\n      jump\t// in\n    tag_207:\n        /* \"HumAidToken.sol\":3443:3462  address _ngoAddress */\n      0x00\n        /* \"HumAidToken.sol\":3491:3497  uint i */\n      dup1\n        /* \"HumAidToken.sol\":3486:3721  for (uint i = 0; i < ngoWallets.length; ++i){... */\n    tag_209:\n        /* \"HumAidToken.sol\":3507:3517  ngoWallets */\n      0x08\n        /* \"HumAidToken.sol\":3507:3524  ngoWallets.length */\n      dup1\n      sload\n      swap1\n      pop\n        /* \"HumAidToken.sol\":3503:3504  i */\n      dup2\n        /* \"HumAidToken.sol\":3503:3524  i < ngoWallets.length */\n      lt\n        /* \"HumAidToken.sol\":3486:3721  for (uint i = 0; i < ngoWallets.length; ++i){... */\n      iszero\n      tag_210\n      jumpi\n        /* \"HumAidToken.sol\":3612:3620  _ngoName */\n      dup4\n        /* \"HumAidToken.sol\":3595:3622  keccak256(bytes (_ngoName)) */\n      dup1\n      mload\n      swap1\n      0x20\n      add\n      keccak256\n        /* \"HumAidToken.sol\":3566:3574  ngoNames */\n      0x07\n        /* \"HumAidToken.sol\":3566:3589  ngoNames[ngoWallets[i]] */\n      0x00\n        /* \"HumAidToken.sol\":3575:3585  ngoWallets */\n      0x08\n        /* \"HumAidToken.sol\":3586:3587  i */\n      dup5\n        /* \"HumAidToken.sol\":3575:3588  ngoWallets[i] */\n      dup2\n      sload\n      dup2\n      lt\n      tag_212\n      jumpi\n      tag_213\n      tag_155\n      jump\t// in\n    tag_213:\n    tag_212:\n      swap1\n      0x00\n      mstore\n      keccak256(0x00, 0x20)\n      add\n      0x00\n      swap1\n      sload\n      swap1\n      0x0100\n      exp\n      swap1\n      div\n      0xffffffffffffffffffffffffffffffffffffffff\n      and\n        /* \"HumAidToken.sol\":3566:3589  ngoNames[ngoWallets[i]] */\n      0xffffffffffffffffffffffffffffffffffffffff\n      and\n      0xffffffffffffffffffffffffffffffffffffffff\n      and\n      dup2\n      mstore\n      0x20\n      add\n      swap1\n      dup2\n      mstore\n      0x20\n      add\n      0x00\n      keccak256\n        /* \"HumAidToken.sol\":3549:3591  keccak256(bytes (ngoNames[ngoWallets[i]])) */\n      mload(0x40)\n      tag_215\n      swap2\n      swap1\n      tag_158\n      jump\t// in\n    tag_215:\n      mload(0x40)\n      dup1\n      swap2\n      sub\n      swap1\n      keccak256\n        /* \"HumAidToken.sol\":3549:3622  keccak256(bytes (ngoNames[ngoWallets[i]])) == keccak256(bytes (_ngoName)) */\n      sub\n        /* \"HumAidToken.sol\":3545:3710  if (keccak256(bytes (ngoNames[ngoWallets[i]])) == keccak256(bytes (_ngoName))) {... */\n      tag_216\n      jumpi\n        /* \"HumAidToken.sol\":3657:3667  ngoWallets */\n      0x08\n        /* \"HumAidToken.sol\":3668:3669  i */\n      dup2\n        /* \"HumAidToken.sol\":3657:3670  ngoWallets[i] */\n      dup2\n      sload\n      dup2\n      lt\n      tag_217\n      jumpi\n      tag_218\n      tag_155\n      jump\t// in\n    tag_218:\n    tag_217:\n      swap1\n      0x00\n      mstore\n      keccak256(0x00, 0x20)\n      add\n      0x00\n      swap1\n      sload\n      swap1\n      0x0100\n      exp\n      swap1\n      div\n      0xffffffffffffffffffffffffffffffffffffffff\n      and\n        /* \"HumAidToken.sol\":3643:3670  _ngoAddress = ngoWallets[i] */\n      swap2\n      pop\n        /* \"HumAidToken.sol\":3689:3694  break */\n      jump(tag_210)\n        /* \"HumAidToken.sol\":3545:3710  if (keccak256(bytes (ngoNames[ngoWallets[i]])) == keccak256(bytes (_ngoName))) {... */\n    tag_216:\n        /* \"HumAidToken.sol\":3526:3529  ++i */\n      dup1\n      0x01\n      add\n      swap1\n      pop\n        /* \"HumAidToken.sol\":3486:3721  for (uint i = 0; i < ngoWallets.length; ++i){... */\n      jump(tag_209)\n    tag_210:\n      pop\n        /* \"HumAidToken.sol\":3758:3759  0 */\n      0x00\n        /* \"HumAidToken.sol\":3735:3760  _ngoAddress == address(0) */\n      0xffffffffffffffffffffffffffffffffffffffff\n      and\n        /* \"HumAidToken.sol\":3735:3746  _ngoAddress */\n      dup2\n        /* \"HumAidToken.sol\":3735:3760  _ngoAddress == address(0) */\n      0xffffffffffffffffffffffffffffffffffffffff\n      and\n      sub\n        /* \"HumAidToken.sol\":3731:3774  if (_ngoAddress == address(0)) return false */\n      tag_220\n      jumpi\n        /* \"HumAidToken.sol\":3769:3774  false */\n      0x00\n        /* \"HumAidToken.sol\":3762:3774  return false */\n      swap2\n      pop\n      pop\n      jump(tag_208)\n        /* \"HumAidToken.sol\":3731:3774  if (_ngoAddress == address(0)) return false */\n    tag_220:\n        /* \"HumAidToken.sol\":3794:3802  ngoNames */\n      0x07\n        /* \"HumAidToken.sol\":3794:3815  ngoNames[_ngoAddress] */\n      0x00\n        /* \"HumAidToken.sol\":3803:3814  _ngoAddress */\n      dup3\n        /* \"HumAidToken.sol\":3794:3815  ngoNames[_ngoAddress] */\n      0xffffffffffffffffffffffffffffffffffffffff\n      and\n      0xffffffffffffffffffffffffffffffffffffffff\n      and\n      dup2\n      mstore\n      0x20\n      add\n      swap1\n      dup2\n      mstore\n      0x20\n      add\n      0x00\n      keccak256\n      0x00\n        /* \"HumAidToken.sol\":3787:3815  delete ngoNames[_ngoAddress] */\n      tag_221\n      swap2\n      swap1\n      tag_222\n      jump\t// in\n    tag_221:\n        /* \"HumAidToken.sol\":3831:3869  NGOUnregistered(_ngoName, _ngoAddress) */\n      0xf7ce65b9119570713c55642c7ba09904806c36ec3da8fa5b1a8aa4a223132c2e\n        /* \"HumAidToken.sol\":3847:3855  _ngoName */\n      dup4\n        /* \"HumAidToken.sol\":3857:3868  _ngoAddress */\n      dup3\n        /* \"HumAidToken.sol\":3831:3869  NGOUnregistered(_ngoName, _ngoAddress) */\n      mload(0x40)\n      tag_223\n      swap3\n      swap2\n      swap1\n      tag_163\n      jump\t// in\n    tag_223:\n      mload(0x40)\n      dup1\n      swap2\n      sub\n      swap1\n      log1\n        /* \"HumAidToken.sol\":3887:3919  unregisterNGOWallet(_ngoAddress) */\n      tag_224\n        /* \"HumAidToken.sol\":3907:3918  _ngoAddress */\n      dup2\n        /* \"HumAidToken.sol\":3887:3906  unregisterNGOWallet */\n      tag_225\n        /* \"HumAidToken.sol\":3887:3919  unregisterNGOWallet(_ngoAddress) */\n      jump\t// in\n    tag_224:\n        /* \"HumAidToken.sol\":3880:3919  return unregisterNGOWallet(_ngoAddress) */\n      swap2\n      pop\n      pop\n        /* \"@openzeppelin/contracts/access/Ownable.sol\":1554:1555  _ */\n    tag_208:\n        /* \"HumAidToken.sol\":3351:3927  function unregisterNGO(string memory _ngoName) external onlyOwner returns (bool) {... */\n      swap2\n      swap1\n      pop\n      jump\t// out\n        /* \"@openzeppelin/contracts/token/ERC20/ERC20.sol\":3532:3672  function allowance(address owner, address spender) public view virtual returns (uint256) {... */\n    tag_112:\n        /* \"@openzeppelin/contracts/token/ERC20/ERC20.sol\":3612:3619  uint256 */\n      0x00\n        /* \"@openzeppelin/contracts/token/ERC20/ERC20.sol\":3638:3649  _allowances */\n      0x01\n        /* \"@openzeppelin/contracts/token/ERC20/ERC20.sol\":3638:3656  _allowances[owner] */\n      0x00\n        /* \"@openzeppelin/contracts/token/ERC20/ERC20.sol\":3650:3655  owner */\n      dup5\n        /* \"@openzeppelin/contracts/token/ERC20/ERC20.sol\":3638:3656  _allowances[owner] */\n      0xffffffffffffffffffffffffffffffffffffffff\n      and\n      0xffffffffffffffffffffffffffffffffffffffff\n      and\n      dup2\n      mstore\n      0x20\n      add\n      swap1\n      dup2\n      mstore\n      0x20\n      add\n      0x00\n      keccak256\n        /* \"@openzeppelin/contracts/token/ERC20/ERC20.sol\":3638:3665  _allowances[owner][spender] */\n      0x00\n        /* \"@openzeppelin/contracts/token/ERC20/ERC20.sol\":3657:3664  spender */\n      dup4\n        /* \"@openzeppelin/contracts/token/ERC20/ERC20.sol\":3638:3665  _allowances[owner][spender] */\n      0xffffffffffffffffffffffffffffffffffffffff\n      and\n      0xffffffffffffffffffffffffffffffffffffffff\n      and\n      dup2\n      mstore\n      0x20\n      add\n      swap1\n      dup2\n      mstore\n      0x20\n      add\n      0x00\n      keccak256\n      sload\n        /* \"@openzeppelin/contracts/token/ERC20/ERC20.sol\":3631:3665  return _allowances[owner][spender] */\n      swap1\n      pop\n        /* \"@openzeppelin/contracts/token/ERC20/ERC20.sol\":3532:3672  function allowance(address owner, address spender) public view virtual returns (uint256) {... */\n      swap3\n      swap2\n      pop\n      pop\n      jump\t// out\n        /* \"HumAidToken.sol\":1498:1630  function excludeFromFee(address account, bool excluded) external onlyOwner {... */\n    tag_117:\n        /* \"@openzeppelin/contracts/access/Ownable.sol\":1531:1544  _checkOwner() */\n      tag_228\n        /* \"@openzeppelin/contracts/access/Ownable.sol\":1531:1542  _checkOwner */\n      tag_145\n        /* \"@openzeppelin/contracts/access/Ownable.sol\":1531:1544  _checkOwner() */\n      jump\t// in\n    tag_228:\n        /* \"HumAidToken.sol\":1614:1622  excluded */\n      dup1\n        /* \"HumAidToken.sol\":1584:1602  _isExcludedFromFee */\n      0x09\n        /* \"HumAidToken.sol\":1584:1611  _isExcludedFromFee[account] */\n      0x00\n        /* \"HumAidToken.sol\":1603:1610  account */\n      dup5\n        /* \"HumAidToken.sol\":1584:1611  _isExcludedFromFee[account] */\n      0xffffffffffffffffffffffffffffffffffffffff\n      and\n      0xffffffffffffffffffffffffffffffffffffffff\n      and\n      dup2\n      mstore\n      0x20\n      add\n      swap1\n      dup2\n      mstore\n      0x20\n      add\n      0x00\n      keccak256\n      0x00\n        /* \"HumAidToken.sol\":1584:1622  _isExcludedFromFee[account] = excluded */\n      0x0100\n      exp\n      dup2\n      sload\n      dup2\n      0xff\n      mul\n      not\n      and\n      swap1\n      dup4\n      iszero\n      iszero\n      mul\n      or\n      swap1\n      sstore\n      pop\n        /* \"HumAidToken.sol\":1498:1630  function excludeFromFee(address account, bool excluded) external onlyOwner {... */\n      pop\n      pop\n      jump\t// out\n        /* \"@openzeppelin/contracts/access/Ownable.sol\":2543:2758  function transferOwnership(address newOwner) public virtual onlyOwner {... */\n    tag_120:\n        /* \"@openzeppelin/contracts/access/Ownable.sol\":1531:1544  _checkOwner() */\n      tag_231\n        /* \"@openzeppelin/contracts/access/Ownable.sol\":1531:1542  _checkOwner */\n      tag_145\n        /* \"@openzeppelin/contracts/access/Ownable.sol\":1531:1544  _checkOwner() */\n      jump\t// in\n    tag_231:\n        /* \"@openzeppelin/contracts/access/Ownable.sol\":2647:2648  0 */\n      0x00\n        /* \"@openzeppelin/contracts/access/Ownable.sol\":2627:2649  newOwner == address(0) */\n      0xffffffffffffffffffffffffffffffffffffffff\n      and\n        /* \"@openzeppelin/contracts/access/Ownable.sol\":2627:2635  newOwner */\n      dup2\n        /* \"@openzeppelin/contracts/access/Ownable.sol\":2627:2649  newOwner == address(0) */\n      0xffffffffffffffffffffffffffffffffffffffff\n      and\n      sub\n        /* \"@openzeppelin/contracts/access/Ownable.sol\":2623:2714  if (newOwner == address(0)) {... */\n      tag_233\n      jumpi\n        /* \"@openzeppelin/contracts/access/Ownable.sol\":2700:2701  0 */\n      0x00\n        /* \"@openzeppelin/contracts/access/Ownable.sol\":2672:2703  OwnableInvalidOwner(address(0)) */\n      mload(0x40)\n      0x1e4fbdf700000000000000000000000000000000000000000000000000000000\n      dup2\n      mstore\n      0x04\n      add\n      tag_234\n      swap2\n      swap1\n      tag_70\n      jump\t// in\n    tag_234:\n      mload(0x40)\n      dup1\n      swap2\n      sub\n      swap1\n      revert\n        /* \"@openzeppelin/contracts/access/Ownable.sol\":2623:2714  if (newOwner == address(0)) {... */\n    tag_233:\n        /* \"@openzeppelin/contracts/access/Ownable.sol\":2723:2751  _transferOwnership(newOwner) */\n      tag_235\n        /* \"@openzeppelin/contracts/access/Ownable.sol\":2742:2750  newOwner */\n      dup2\n        /* \"@openzeppelin/contracts/access/Ownable.sol\":2723:2741  _transferOwnership */\n      tag_180\n        /* \"@openzeppelin/contracts/access/Ownable.sol\":2723:2751  _transferOwnership(newOwner) */\n      jump\t// in\n    tag_235:\n        /* \"@openzeppelin/contracts/access/Ownable.sol\":2543:2758  function transferOwnership(address newOwner) public virtual onlyOwner {... */\n      pop\n      jump\t// out\n        /* \"HumAidToken.sol\":3935:4552  function distributeTreasuryToNGOs() external onlyOwner {... */\n    tag_122:\n        /* \"@openzeppelin/contracts/access/Ownable.sol\":1531:1544  _checkOwner() */\n      tag_237\n        /* \"@openzeppelin/contracts/access/Ownable.sol\":1531:1542  _checkOwner */\n      tag_145\n        /* \"@openzeppelin/contracts/access/Ownable.sol\":1531:1544  _checkOwner() */\n      jump\t// in\n    tag_237:\n        /* \"HumAidToken.sol\":4035:4036  0 */\n      0x00\n        /* \"HumAidToken.sol\":4009:4037  treasuryWallet != address(0) */\n      0xffffffffffffffffffffffffffffffffffffffff\n      and\n        /* \"HumAidToken.sol\":4009:4023  treasuryWallet */\n      0x0a\n      0x00\n      swap1\n      sload\n      swap1\n      0x0100\n      exp\n      swap1\n      div\n      0xffffffffffffffffffffffffffffffffffffffff\n      and\n        /* \"HumAidToken.sol\":4009:4037  treasuryWallet != address(0) */\n      0xffffffffffffffffffffffffffffffffffffffff\n      and\n      sub\n        /* \"HumAidToken.sol\":4001:4065  require(treasuryWallet != address(0), \"Treasury wallet not set\") */\n      tag_239\n      jumpi\n      mload(0x40)\n      0x08c379a000000000000000000000000000000000000000000000000000000000\n      dup2\n      mstore\n      0x04\n      add\n      tag_240\n      swap1\n      tag_241\n      jump\t// in\n    tag_240:\n      mload(0x40)\n      dup1\n      swap2\n      sub\n      swap1\n      revert\n    tag_239:\n        /* \"HumAidToken.sol\":4076:4092  uint256 ngoCount */\n      0x00\n        /* \"HumAidToken.sol\":4095:4105  ngoWallets */\n      0x08\n        /* \"HumAidToken.sol\":4095:4112  ngoWallets.length */\n      dup1\n      sload\n      swap1\n      pop\n        /* \"HumAidToken.sol\":4076:4112  uint256 ngoCount = ngoWallets.length */\n      swap1\n      pop\n        /* \"HumAidToken.sol\":4142:4143  0 */\n      0x00\n        /* \"HumAidToken.sol\":4131:4139  ngoCount */\n      dup2\n        /* \"HumAidToken.sol\":4131:4143  ngoCount > 0 */\n      gt\n        /* \"HumAidToken.sol\":4123:4166  require(ngoCount > 0, \"No NGOs registered\") */\n      tag_242\n      jumpi\n      mload(0x40)\n      0x08c379a000000000000000000000000000000000000000000000000000000000\n      dup2\n      mstore\n      0x04\n      add\n      tag_243\n      swap1\n      tag_244\n      jump\t// in\n    tag_243:\n      mload(0x40)\n      dup1\n      swap2\n      sub\n      swap1\n      revert\n    tag_242:\n        /* \"HumAidToken.sol\":4179:4202  uint256 treasuryBalance */\n      0x00\n        /* \"HumAidToken.sol\":4205:4230  balanceOf(treasuryWallet) */\n      tag_245\n        /* \"HumAidToken.sol\":4215:4229  treasuryWallet */\n      0x0a\n      0x00\n      swap1\n      sload\n      swap1\n      0x0100\n      exp\n      swap1\n      div\n      0xffffffffffffffffffffffffffffffffffffffff\n      and\n        /* \"HumAidToken.sol\":4205:4214  balanceOf */\n      tag_77\n        /* \"HumAidToken.sol\":4205:4230  balanceOf(treasuryWallet) */\n      jump\t// in\n    tag_245:\n        /* \"HumAidToken.sol\":4179:4230  uint256 treasuryBalance = balanceOf(treasuryWallet) */\n      swap1\n      pop\n        /* \"HumAidToken.sol\":4267:4268  0 */\n      0x00\n        /* \"HumAidToken.sol\":4249:4264  treasuryBalance */\n      dup2\n        /* \"HumAidToken.sol\":4249:4268  treasuryBalance > 0 */\n      gt\n        /* \"HumAidToken.sol\":4241:4295  require(treasuryBalance > 0, \"No funds to distribute\") */\n      tag_246\n      jumpi\n      mload(0x40)\n      0x08c379a000000000000000000000000000000000000000000000000000000000\n      dup2\n      mstore\n      0x04\n      add\n      tag_247\n      swap1\n      tag_248\n      jump\t// in\n    tag_247:\n      mload(0x40)\n      dup1\n      swap2\n      sub\n      swap1\n      revert\n    tag_246:\n        /* \"HumAidToken.sol\":4308:4321  uint256 share */\n      0x00\n        /* \"HumAidToken.sol\":4342:4350  ngoCount */\n      dup3\n        /* \"HumAidToken.sol\":4324:4339  treasuryBalance */\n      dup3\n        /* \"HumAidToken.sol\":4324:4350  treasuryBalance / ngoCount */\n      tag_249\n      swap2\n      swap1\n      tag_250\n      jump\t// in\n    tag_249:\n        /* \"HumAidToken.sol\":4308:4350  uint256 share = treasuryBalance / ngoCount */\n      swap1\n      pop\n        /* \"HumAidToken.sol\":4377:4378  0 */\n      0x00\n        /* \"HumAidToken.sol\":4369:4374  share */\n      dup2\n        /* \"HumAidToken.sol\":4369:4378  share > 0 */\n      gt\n        /* \"HumAidToken.sol\":4361:4418  require(share > 0, \"Insufficient funds for distribution\") */\n      tag_251\n      jumpi\n      mload(0x40)\n      0x08c379a000000000000000000000000000000000000000000000000000000000\n      dup2\n      mstore\n      0x04\n      add\n      tag_252\n      swap1\n      tag_253\n      jump\t// in\n    tag_252:\n      mload(0x40)\n      dup1\n      swap2\n      sub\n      swap1\n      revert\n    tag_251:\n        /* \"HumAidToken.sol\":4436:4442  uint i */\n      0x00\n        /* \"HumAidToken.sol\":4431:4545  for (uint i = 0; i < ngoCount; ++i) {... */\n    tag_254:\n        /* \"HumAidToken.sol\":4452:4460  ngoCount */\n      dup4\n        /* \"HumAidToken.sol\":4448:4449  i */\n      dup2\n        /* \"HumAidToken.sol\":4448:4460  i < ngoCount */\n      lt\n        /* \"HumAidToken.sol\":4431:4545  for (uint i = 0; i < ngoCount; ++i) {... */\n      iszero\n      tag_255\n      jumpi\n        /* \"HumAidToken.sol\":4482:4533  super._update(treasuryWallet, ngoWallets[i], share) */\n      tag_257\n        /* \"HumAidToken.sol\":4496:4510  treasuryWallet */\n      0x0a\n      0x00\n      swap1\n      sload\n      swap1\n      0x0100\n      exp\n      swap1\n      div\n      0xffffffffffffffffffffffffffffffffffffffff\n      and\n        /* \"HumAidToken.sol\":4512:4522  ngoWallets */\n      0x08\n        /* \"HumAidToken.sol\":4523:4524  i */\n      dup4\n        /* \"HumAidToken.sol\":4512:4525  ngoWallets[i] */\n      dup2\n      sload\n      dup2\n      lt\n      tag_258\n      jumpi\n      tag_259\n      tag_155\n      jump\t// in\n    tag_259:\n    tag_258:\n      swap1\n      0x00\n      mstore\n      keccak256(0x00, 0x20)\n      add\n      0x00\n      swap1\n      sload\n      swap1\n      0x0100\n      exp\n      swap1\n      div\n      0xffffffffffffffffffffffffffffffffffffffff\n      and\n        /* \"HumAidToken.sol\":4527:4532  share */\n      dup5\n        /* \"HumAidToken.sol\":4482:4495  super._update */\n      tag_261\n        /* \"HumAidToken.sol\":4482:4533  super._update(treasuryWallet, ngoWallets[i], share) */\n      jump\t// in\n    tag_257:\n        /* \"HumAidToken.sol\":4462:4465  ++i */\n      dup1\n      0x01\n      add\n      swap1\n      pop\n        /* \"HumAidToken.sol\":4431:4545  for (uint i = 0; i < ngoCount; ++i) {... */\n      jump(tag_254)\n    tag_255:\n      pop\n        /* \"HumAidToken.sol\":3990:4552  {... */\n      pop\n      pop\n      pop\n        /* \"HumAidToken.sol\":3935:4552  function distributeTreasuryToNGOs() external onlyOwner {... */\n      jump\t// out\n        /* \"@openzeppelin/contracts/utils/Context.sol\":656:752  function _msgSender() internal view virtual returns (address) {... */\n    tag_132:\n        /* \"@openzeppelin/contracts/utils/Context.sol\":709:716  address */\n      0x00\n        /* \"@openzeppelin/contracts/utils/Context.sol\":735:745  msg.sender */\n      caller\n        /* \"@openzeppelin/contracts/utils/Context.sol\":728:745  return msg.sender */\n      swap1\n      pop\n        /* \"@openzeppelin/contracts/utils/Context.sol\":656:752  function _msgSender() internal view virtual returns (address) {... */\n      swap1\n      jump\t// out\n        /* \"@openzeppelin/contracts/token/ERC20/ERC20.sol\":8707:8835  function _approve(address owner, address spender, uint256 value) internal {... */\n    tag_134:\n        /* \"@openzeppelin/contracts/token/ERC20/ERC20.sol\":8791:8828  _approve(owner, spender, value, true) */\n      tag_264\n        /* \"@openzeppelin/contracts/token/ERC20/ERC20.sol\":8800:8805  owner */\n      dup4\n        /* \"@openzeppelin/contracts/token/ERC20/ERC20.sol\":8807:8814  spender */\n      dup4\n        /* \"@openzeppelin/contracts/token/ERC20/ERC20.sol\":8816:8821  value */\n      dup4\n        /* \"@openzeppelin/contracts/token/ERC20/ERC20.sol\":8823:8827  true */\n      0x01\n        /* \"@openzeppelin/contracts/token/ERC20/ERC20.sol\":8791:8799  _approve */\n      tag_265\n        /* \"@openzeppelin/contracts/token/ERC20/ERC20.sol\":8791:8828  _approve(owner, spender, value, true) */\n      jump\t// in\n    tag_264:\n        /* \"@openzeppelin/contracts/token/ERC20/ERC20.sol\":8707:8835  function _approve(address owner, address spender, uint256 value) internal {... */\n      pop\n      pop\n      pop\n      jump\t// out\n        /* \"@openzeppelin/contracts/token/ERC20/ERC20.sol\":10396:10872  function _spendAllowance(address owner, address spender, uint256 value) internal virtual {... */\n    tag_139:\n        /* \"@openzeppelin/contracts/token/ERC20/ERC20.sol\":10495:10519  uint256 currentAllowance */\n      0x00\n        /* \"@openzeppelin/contracts/token/ERC20/ERC20.sol\":10522:10547  allowance(owner, spender) */\n      tag_267\n        /* \"@openzeppelin/contracts/token/ERC20/ERC20.sol\":10532:10537  owner */\n      dup5\n        /* \"@openzeppelin/contracts/token/ERC20/ERC20.sol\":10539:10546  spender */\n      dup5\n        /* \"@openzeppelin/contracts/token/ERC20/ERC20.sol\":10522:10531  allowance */\n      tag_112\n        /* \"@openzeppelin/contracts/token/ERC20/ERC20.sol\":10522:10547  allowance(owner, spender) */\n      jump\t// in\n    tag_267:\n        /* \"@openzeppelin/contracts/token/ERC20/ERC20.sol\":10495:10547  uint256 currentAllowance = allowance(owner, spender) */\n      swap1\n      pop\n        /* \"@openzeppelin/contracts/token/ERC20/ERC20.sol\":10580:10597  type(uint256).max */\n      0xffffffffffffffffffffffffffffffffffffffffffffffffffffffffffffffff\n        /* \"@openzeppelin/contracts/token/ERC20/ERC20.sol\":10561:10577  currentAllowance */\n      dup2\n        /* \"@openzeppelin/contracts/token/ERC20/ERC20.sol\":10561:10597  currentAllowance < type(uint256).max */\n      lt\n        /* \"@openzeppelin/contracts/token/ERC20/ERC20.sol\":10557:10866  if (currentAllowance < type(uint256).max) {... */\n      iszero\n      tag_268\n      jumpi\n        /* \"@openzeppelin/contracts/token/ERC20/ERC20.sol\":10636:10641  value */\n      dup2\n        /* \"@openzeppelin/contracts/token/ERC20/ERC20.sol\":10617:10633  currentAllowance */\n      dup2\n        /* \"@openzeppelin/contracts/token/ERC20/ERC20.sol\":10617:10641  currentAllowance < value */\n      lt\n        /* \"@openzeppelin/contracts/token/ERC20/ERC20.sol\":10613:10743  if (currentAllowance < value) {... */\n      iszero\n      tag_269\n      jumpi\n        /* \"@openzeppelin/contracts/token/ERC20/ERC20.sol\":10695:10702  spender */\n      dup3\n        /* \"@openzeppelin/contracts/token/ERC20/ERC20.sol\":10704:10720  currentAllowance */\n      dup2\n        /* \"@openzeppelin/contracts/token/ERC20/ERC20.sol\":10722:10727  value */\n      dup4\n        /* \"@openzeppelin/contracts/token/ERC20/ERC20.sol\":10668:10728  ERC20InsufficientAllowance(spender, currentAllowance, value) */\n      mload(0x40)\n      0xfb8f41b200000000000000000000000000000000000000000000000000000000\n      dup2\n      mstore\n      0x04\n      add\n      tag_270\n      swap4\n      swap3\n      swap2\n      swap1\n      tag_271\n      jump\t// in\n    tag_270:\n      mload(0x40)\n      dup1\n      swap2\n      sub\n      swap1\n      revert\n        /* \"@openzeppelin/contracts/token/ERC20/ERC20.sol\":10613:10743  if (currentAllowance < value) {... */\n    tag_269:\n        /* \"@openzeppelin/contracts/token/ERC20/ERC20.sol\":10784:10841  _approve(owner, spender, currentAllowance - value, false) */\n      tag_272\n        /* \"@openzeppelin/contracts/token/ERC20/ERC20.sol\":10793:10798  owner */\n      dup5\n        /* \"@openzeppelin/contracts/token/ERC20/ERC20.sol\":10800:10807  spender */\n      dup5\n        /* \"@openzeppelin/contracts/token/ERC20/ERC20.sol\":10828:10833  value */\n      dup5\n        /* \"@openzeppelin/contracts/token/ERC20/ERC20.sol\":10809:10825  currentAllowance */\n      dup5\n        /* \"@openzeppelin/contracts/token/ERC20/ERC20.sol\":10809:10833  currentAllowance - value */\n      sub\n        /* \"@openzeppelin/contracts/token/ERC20/ERC20.sol\":10835:10840  false */\n      0x00\n        /* \"@openzeppelin/contracts/token/ERC20/ERC20.sol\":10784:10792  _approve */\n      tag_265\n        /* \"@openzeppelin/contracts/token/ERC20/ERC20.sol\":10784:10841  _approve(owner, spender, currentAllowance - value, false) */\n      jump\t// in\n    tag_272:\n        /* \"@openzeppelin/contracts/token/ERC20/ERC20.sol\":10557:10866  if (currentAllowance < type(uint256).max) {... */\n    tag_268:\n        /* \"@openzeppelin/contracts/token/ERC20/ERC20.sol\":10485:10872  {... */\n      pop\n        /* \"@openzeppelin/contracts/token/ERC20/ERC20.sol\":10396:10872  function _spendAllowance(address owner, address spender, uint256 value) internal virtual {... */\n      pop\n      pop\n      pop\n      jump\t// out\n        /* \"@openzeppelin/contracts/token/ERC20/ERC20.sol\":5374:5674  function _transfer(address from, address to, uint256 value) internal {... */\n    tag_141:\n        /* \"@openzeppelin/contracts/token/ERC20/ERC20.sol\":5473:5474  0 */\n      0x00\n        /* \"@openzeppelin/contracts/token/ERC20/ERC20.sol\":5457:5475  from == address(0) */\n      0xffffffffffffffffffffffffffffffffffffffff\n      and\n        /* \"@openzeppelin/contracts/token/ERC20/ERC20.sol\":5457:5461  from */\n      dup4\n        /* \"@openzeppelin/contracts/token/ERC20/ERC20.sol\":5457:5475  from == address(0) */\n      0xffffffffffffffffffffffffffffffffffffffff\n      and\n      sub\n        /* \"@openzeppelin/contracts/token/ERC20/ERC20.sol\":5453:5539  if (from == address(0)) {... */\n      tag_274\n      jumpi\n        /* \"@openzeppelin/contracts/token/ERC20/ERC20.sol\":5525:5526  0 */\n      0x00\n        /* \"@openzeppelin/contracts/token/ERC20/ERC20.sol\":5498:5528  ERC20InvalidSender(address(0)) */\n      mload(0x40)\n      0x96c6fd1e00000000000000000000000000000000000000000000000000000000\n      dup2\n      mstore\n      0x04\n      add\n      tag_275\n      swap2\n      swap1\n      tag_70\n      jump\t// in\n    tag_275:\n      mload(0x40)\n      dup1\n      swap2\n      sub\n      swap1\n      revert\n        /* \"@openzeppelin/contracts/token/ERC20/ERC20.sol\":5453:5539  if (from == address(0)) {... */\n    tag_274:\n        /* \"@openzeppelin/contracts/token/ERC20/ERC20.sol\":5566:5567  0 */\n      0x00\n        /* \"@openzeppelin/contracts/token/ERC20/ERC20.sol\":5552:5568  to == address(0) */\n      0xffffffffffffffffffffffffffffffffffffffff\n      and\n        /* \"@openzeppelin/contracts/token/ERC20/ERC20.sol\":5552:5554  to */\n      dup3\n        /* \"@openzeppelin/contracts/token/ERC20/ERC20.sol\":5552:5568  to == address(0) */\n      0xffffffffffffffffffffffffffffffffffffffff\n      and\n      sub\n        /* \"@openzeppelin/contracts/token/ERC20/ERC20.sol\":5548:5634  if (to == address(0)) {... */\n      tag_276\n      jumpi\n        /* \"@openzeppelin/contracts/token/ERC20/ERC20.sol\":5620:5621  0 */\n      0x00\n        /* \"@openzeppelin/contracts/token/ERC20/ERC20.sol\":5591:5623  ERC20InvalidReceiver(address(0)) */\n      mload(0x40)\n      0xec442f0500000000000000000000000000000000000000000000000000000000\n      dup2\n      mstore\n      0x04\n      add\n      tag_277\n      swap2\n      swap1\n      tag_70\n      jump\t// in\n    tag_277:\n      mload(0x40)\n      dup1\n      swap2\n      sub\n      swap1\n      revert\n        /* \"@openzeppelin/contracts/token/ERC20/ERC20.sol\":5548:5634  if (to == address(0)) {... */\n    tag_276:\n        /* \"@openzeppelin/contracts/token/ERC20/ERC20.sol\":5643:5667  _update(from, to, value) */\n      tag_278\n        /* \"@openzeppelin/contracts/token/ERC20/ERC20.sol\":5651:5655  from */\n      dup4\n        /* \"@openzeppelin/contracts/token/ERC20/ERC20.sol\":5657:5659  to */\n      dup4\n        /* \"@openzeppelin/contracts/token/ERC20/ERC20.sol\":5661:5666  value */\n      dup4\n        /* \"@openzeppelin/contracts/token/ERC20/ERC20.sol\":5643:5650  _update */\n      tag_279\n        /* \"@openzeppelin/contracts/token/ERC20/ERC20.sol\":5643:5667  _update(from, to, value) */\n      jump\t// in\n    tag_278:\n        /* \"@openzeppelin/contracts/token/ERC20/ERC20.sol\":5374:5674  function _transfer(address from, address to, uint256 value) internal {... */\n      pop\n      pop\n      pop\n      jump\t// out\n        /* \"@openzeppelin/contracts/access/Ownable.sol\":1796:1958  function _checkOwner() internal view virtual {... */\n    tag_145:\n        /* \"@openzeppelin/contracts/access/Ownable.sol\":1866:1878  _msgSender() */\n      tag_281\n        /* \"@openzeppelin/contracts/access/Ownable.sol\":1866:1876  _msgSender */\n      tag_132\n        /* \"@openzeppelin/contracts/access/Ownable.sol\":1866:1878  _msgSender() */\n      jump\t// in\n    tag_281:\n        /* \"@openzeppelin/contracts/access/Ownable.sol\":1855:1878  owner() != _msgSender() */\n      0xffffffffffffffffffffffffffffffffffffffff\n      and\n        /* \"@openzeppelin/contracts/access/Ownable.sol\":1855:1862  owner() */\n      tag_282\n        /* \"@openzeppelin/contracts/access/Ownable.sol\":1855:1860  owner */\n      tag_92\n        /* \"@openzeppelin/contracts/access/Ownable.sol\":1855:1862  owner() */\n      jump\t// in\n    tag_282:\n        /* \"@openzeppelin/contracts/access/Ownable.sol\":1855:1878  owner() != _msgSender() */\n      0xffffffffffffffffffffffffffffffffffffffff\n      and\n      eq\n        /* \"@openzeppelin/contracts/access/Ownable.sol\":1851:1952  if (owner() != _msgSender()) {... */\n      tag_283\n      jumpi\n        /* \"@openzeppelin/contracts/access/Ownable.sol\":1928:1940  _msgSender() */\n      tag_284\n        /* \"@openzeppelin/contracts/access/Ownable.sol\":1928:1938  _msgSender */\n      tag_132\n        /* \"@openzeppelin/contracts/access/Ownable.sol\":1928:1940  _msgSender() */\n      jump\t// in\n    tag_284:\n        /* \"@openzeppelin/contracts/access/Ownable.sol\":1901:1941  OwnableUnauthorizedAccount(_msgSender()) */\n      mload(0x40)\n      0x118cdaa700000000000000000000000000000000000000000000000000000000\n      dup2\n      mstore\n      0x04\n      add\n      tag_285\n      swap2\n      swap1\n      tag_70\n      jump\t// in\n    tag_285:\n      mload(0x40)\n      dup1\n      swap2\n      sub\n      swap1\n      revert\n        /* \"@openzeppelin/contracts/access/Ownable.sol\":1851:1952  if (owner() != _msgSender()) {... */\n    tag_283:\n        /* \"@openzeppelin/contracts/access/Ownable.sol\":1796:1958  function _checkOwner() internal view virtual {... */\n      jump\t// out\n        /* \"HumAidToken.sol\":1915:2395  function registerNGOWallet(address _ngoAddress) private returns (bool){... */\n    tag_165:\n        /* \"HumAidToken.sol\":1980:1984  bool */\n      0x00\n        /* \"HumAidToken.sol\":2027:2028  0 */\n      dup1\n        /* \"HumAidToken.sol\":2004:2029  _ngoAddress != address(0) */\n      0xffffffffffffffffffffffffffffffffffffffff\n      and\n        /* \"HumAidToken.sol\":2004:2015  _ngoAddress */\n      dup3\n        /* \"HumAidToken.sol\":2004:2029  _ngoAddress != address(0) */\n      0xffffffffffffffffffffffffffffffffffffffff\n      and\n      sub\n        /* \"HumAidToken.sol\":1996:2053  require(_ngoAddress != address(0), \"Invalid NGO address\") */\n      tag_287\n      jumpi\n      mload(0x40)\n      0x08c379a000000000000000000000000000000000000000000000000000000000\n      dup2\n      mstore\n      0x04\n      add\n      tag_288\n      swap1\n      tag_149\n      jump\t// in\n    tag_288:\n      mload(0x40)\n      dup1\n      swap2\n      sub\n      swap1\n      revert\n    tag_287:\n        /* \"HumAidToken.sol\":2107:2112  false */\n      0x00\n        /* \"HumAidToken.sol\":2072:2112  _isExcludedFromFee[_ngoAddress] == false */\n      iszero\n      iszero\n        /* \"HumAidToken.sol\":2072:2090  _isExcludedFromFee */\n      0x09\n        /* \"HumAidToken.sol\":2072:2103  _isExcludedFromFee[_ngoAddress] */\n      0x00\n        /* \"HumAidToken.sol\":2091:2102  _ngoAddress */\n      dup5\n        /* \"HumAidToken.sol\":2072:2103  _isExcludedFromFee[_ngoAddress] */\n      0xffffffffffffffffffffffffffffffffffffffff\n      and\n      0xffffffffffffffffffffffffffffffffffffffff\n      and\n      dup2\n      mstore\n      0x20\n      add\n      swap1\n      dup2\n      mstore\n      0x20\n      add\n      0x00\n      keccak256\n      0x00\n      swap1\n      sload\n      swap1\n      0x0100\n      exp\n      swap1\n      div\n      0xff\n      and\n        /* \"HumAidToken.sol\":2072:2112  _isExcludedFromFee[_ngoAddress] == false */\n      iszero\n      iszero\n      eq\n        /* \"HumAidToken.sol\":2064:2150  require(_isExcludedFromFee[_ngoAddress] == false, \"This wallet is already registered\") */\n      tag_289\n      jumpi\n      mload(0x40)\n      0x08c379a000000000000000000000000000000000000000000000000000000000\n      dup2\n      mstore\n      0x04\n      add\n      tag_290\n      swap1\n      tag_291\n      jump\t// in\n    tag_290:\n      mload(0x40)\n      dup1\n      swap2\n      sub\n      swap1\n      revert\n    tag_289:\n        /* \"HumAidToken.sol\":2166:2172  uint i */\n      0x00\n        /* \"HumAidToken.sol\":2161:2277  for (uint i = 0; i < ngoWallets.length; ++i){... */\n    tag_292:\n        /* \"HumAidToken.sol\":2182:2192  ngoWallets */\n      0x08\n        /* \"HumAidToken.sol\":2182:2199  ngoWallets.length */\n      dup1\n      sload\n      swap1\n      pop\n        /* \"HumAidToken.sol\":2178:2179  i */\n      dup2\n        /* \"HumAidToken.sol\":2178:2199  i < ngoWallets.length */\n      lt\n        /* \"HumAidToken.sol\":2161:2277  for (uint i = 0; i < ngoWallets.length; ++i){... */\n      iszero\n      tag_293\n      jumpi\n        /* \"HumAidToken.sol\":2240:2251  _ngoAddress */\n      dup3\n        /* \"HumAidToken.sol\":2223:2251  ngoWallets[i] == _ngoAddress */\n      0xffffffffffffffffffffffffffffffffffffffff\n      and\n        /* \"HumAidToken.sol\":2223:2233  ngoWallets */\n      0x08\n        /* \"HumAidToken.sol\":2234:2235  i */\n      dup3\n        /* \"HumAidToken.sol\":2223:2236  ngoWallets[i] */\n      dup2\n      sload\n      dup2\n      lt\n      tag_295\n      jumpi\n      tag_296\n      tag_155\n      jump\t// in\n    tag_296:\n    tag_295:\n      swap1\n      0x00\n      mstore\n      keccak256(0x00, 0x20)\n      add\n      0x00\n      swap1\n      sload\n      swap1\n      0x0100\n      exp\n      swap1\n      div\n      0xffffffffffffffffffffffffffffffffffffffff\n      and\n        /* \"HumAidToken.sol\":2223:2251  ngoWallets[i] == _ngoAddress */\n      0xffffffffffffffffffffffffffffffffffffffff\n      and\n      sub\n        /* \"HumAidToken.sol\":2220:2265  if(ngoWallets[i] == _ngoAddress) return false */\n      tag_298\n      jumpi\n        /* \"HumAidToken.sol\":2260:2265  false */\n      0x00\n        /* \"HumAidToken.sol\":2253:2265  return false */\n      swap2\n      pop\n      pop\n      jump(tag_286)\n        /* \"HumAidToken.sol\":2220:2265  if(ngoWallets[i] == _ngoAddress) return false */\n    tag_298:\n        /* \"HumAidToken.sol\":2201:2204  ++i */\n      dup1\n      0x01\n      add\n      swap1\n      pop\n        /* \"HumAidToken.sol\":2161:2277  for (uint i = 0; i < ngoWallets.length; ++i){... */\n      jump(tag_292)\n    tag_293:\n      pop\n        /* \"HumAidToken.sol\":2287:2316  pushToNGOWallets(_ngoAddress) */\n      tag_299\n        /* \"HumAidToken.sol\":2304:2315  _ngoAddress */\n      dup3\n        /* \"HumAidToken.sol\":2287:2303  pushToNGOWallets */\n      tag_300\n        /* \"HumAidToken.sol\":2287:2316  pushToNGOWallets(_ngoAddress) */\n      jump\t// in\n    tag_299:\n        /* \"HumAidToken.sol\":2361:2365  true */\n      0x01\n        /* \"HumAidToken.sol\":2327:2345  _isExcludedFromFee */\n      0x09\n        /* \"HumAidToken.sol\":2327:2358  _isExcludedFromFee[_ngoAddress] */\n      0x00\n        /* \"HumAidToken.sol\":2346:2357  _ngoAddress */\n      dup5\n        /* \"HumAidToken.sol\":2327:2358  _isExcludedFromFee[_ngoAddress] */\n      0xffffffffffffffffffffffffffffffffffffffff\n      and\n      0xffffffffffffffffffffffffffffffffffffffff\n      and\n      dup2\n      mstore\n      0x20\n      add\n      swap1\n      dup2\n      mstore\n      0x20\n      add\n      0x00\n      keccak256\n      0x00\n        /* \"HumAidToken.sol\":2327:2365  _isExcludedFromFee[_ngoAddress] = true */\n      0x0100\n      exp\n      dup2\n      sload\n      dup2\n      0xff\n      mul\n      not\n      and\n      swap1\n      dup4\n      iszero\n      iszero\n      mul\n      or\n      swap1\n      sstore\n      pop\n        /* \"HumAidToken.sol\":2383:2387  true */\n      0x01\n        /* \"HumAidToken.sol\":2376:2387  return true */\n      swap1\n      pop\n        /* \"HumAidToken.sol\":1915:2395  function registerNGOWallet(address _ngoAddress) private returns (bool){... */\n    tag_286:\n      swap2\n      swap1\n      pop\n      jump\t// out\n        /* \"@openzeppelin/contracts/token/ERC20/ERC20.sol\":7965:8171  function _burn(address account, uint256 value) internal {... */\n    tag_168:\n        /* \"@openzeppelin/contracts/token/ERC20/ERC20.sol\":8054:8055  0 */\n      0x00\n        /* \"@openzeppelin/contracts/token/ERC20/ERC20.sol\":8035:8056  account == address(0) */\n      0xffffffffffffffffffffffffffffffffffffffff\n      and\n        /* \"@openzeppelin/contracts/token/ERC20/ERC20.sol\":8035:8042  account */\n      dup3\n        /* \"@openzeppelin/contracts/token/ERC20/ERC20.sol\":8035:8056  account == address(0) */\n      0xffffffffffffffffffffffffffffffffffffffff\n      and\n      sub\n        /* \"@openzeppelin/contracts/token/ERC20/ERC20.sol\":8031:8120  if (account == address(0)) {... */\n      tag_302\n      jumpi\n        /* \"@openzeppelin/contracts/token/ERC20/ERC20.sol\":8106:8107  0 */\n      0x00\n        /* \"@openzeppelin/contracts/token/ERC20/ERC20.sol\":8079:8109  ERC20InvalidSender(address(0)) */\n      mload(0x40)\n      0x96c6fd1e00000000000000000000000000000000000000000000000000000000\n      dup2\n      mstore\n      0x04\n      add\n      tag_303\n      swap2\n      swap1\n      tag_70\n      jump\t// in\n    tag_303:\n      mload(0x40)\n      dup1\n      swap2\n      sub\n      swap1\n      revert\n        /* \"@openzeppelin/contracts/token/ERC20/ERC20.sol\":8031:8120  if (account == address(0)) {... */\n    tag_302:\n        /* \"@openzeppelin/contracts/token/ERC20/ERC20.sol\":8129:8164  _update(account, address(0), value) */\n      tag_304\n        /* \"@openzeppelin/contracts/token/ERC20/ERC20.sol\":8137:8144  account */\n      dup3\n        /* \"@openzeppelin/contracts/token/ERC20/ERC20.sol\":8154:8155  0 */\n      0x00\n        /* \"@openzeppelin/contracts/token/ERC20/ERC20.sol\":8158:8163  value */\n      dup4\n        /* \"@openzeppelin/contracts/token/ERC20/ERC20.sol\":8129:8136  _update */\n      tag_279\n        /* \"@openzeppelin/contracts/token/ERC20/ERC20.sol\":8129:8164  _update(account, address(0), value) */\n      jump\t// in\n    tag_304:\n        /* \"@openzeppelin/contracts/token/ERC20/ERC20.sol\":7965:8171  function _burn(address account, uint256 value) internal {... */\n      pop\n      pop\n      jump\t// out\n        /* \"@openzeppelin/contracts/access/Ownable.sol\":2912:3099  function _transferOwnership(address newOwner) internal virtual {... */\n    tag_180:\n        /* \"@openzeppelin/contracts/access/Ownable.sol\":2985:3001  address oldOwner */\n      0x00\n        /* \"@openzeppelin/contracts/access/Ownable.sol\":3004:3010  _owner */\n      0x05\n      0x00\n      swap1\n      sload\n      swap1\n      0x0100\n      exp\n      swap1\n      div\n      0xffffffffffffffffffffffffffffffffffffffff\n      and\n        /* \"@openzeppelin/contracts/access/Ownable.sol\":2985:3010  address oldOwner = _owner */\n      swap1\n      pop\n        /* \"@openzeppelin/contracts/access/Ownable.sol\":3029:3037  newOwner */\n      dup2\n        /* \"@openzeppelin/contracts/access/Ownable.sol\":3020:3026  _owner */\n      0x05\n      0x00\n        /* \"@openzeppelin/contracts/access/Ownable.sol\":3020:3037  _owner = newOwner */\n      0x0100\n      exp\n      dup2\n      sload\n      dup2\n      0xffffffffffffffffffffffffffffffffffffffff\n      mul\n      not\n      and\n      swap1\n      dup4\n      0xffffffffffffffffffffffffffffffffffffffff\n      and\n      mul\n      or\n      swap1\n      sstore\n      pop\n        /* \"@openzeppelin/contracts/access/Ownable.sol\":3083:3091  newOwner */\n      dup2\n        /* \"@openzeppelin/contracts/access/Ownable.sol\":3052:3092  OwnershipTransferred(oldOwner, newOwner) */\n      0xffffffffffffffffffffffffffffffffffffffff\n      and\n        /* \"@openzeppelin/contracts/access/Ownable.sol\":3073:3081  oldOwner */\n      dup2\n        /* \"@openzeppelin/contracts/access/Ownable.sol\":3052:3092  OwnershipTransferred(oldOwner, newOwner) */\n      0xffffffffffffffffffffffffffffffffffffffff\n      and\n      0x8be0079c531659141344cd1fd0a4f28419497f9722a3daafe3b4186f6b6457e0\n      mload(0x40)\n      mload(0x40)\n      dup1\n      swap2\n      sub\n      swap1\n      log3\n        /* \"@openzeppelin/contracts/access/Ownable.sol\":2975:3099  {... */\n      pop\n        /* \"@openzeppelin/contracts/access/Ownable.sol\":2912:3099  function _transferOwnership(address newOwner) internal virtual {... */\n      pop\n      jump\t// out\n        /* \"HumAidToken.sol\":2960:3343  function unregisterNGOWallet(address _ngoAddress) private returns (bool){... */\n    tag_225:\n        /* \"HumAidToken.sol\":3027:3031  bool */\n      0x00\n        /* \"HumAidToken.sol\":3074:3075  0 */\n      dup1\n        /* \"HumAidToken.sol\":3051:3076  _ngoAddress != address(0) */\n      0xffffffffffffffffffffffffffffffffffffffff\n      and\n        /* \"HumAidToken.sol\":3051:3062  _ngoAddress */\n      dup3\n        /* \"HumAidToken.sol\":3051:3076  _ngoAddress != address(0) */\n      0xffffffffffffffffffffffffffffffffffffffff\n      and\n      sub\n        /* \"HumAidToken.sol\":3043:3100  require(_ngoAddress != address(0), \"Invalid NGO address\") */\n      tag_307\n      jumpi\n      mload(0x40)\n      0x08c379a000000000000000000000000000000000000000000000000000000000\n      dup2\n      mstore\n      0x04\n      add\n      tag_308\n      swap1\n      tag_149\n      jump\t// in\n    tag_308:\n      mload(0x40)\n      dup1\n      swap2\n      sub\n      swap1\n      revert\n    tag_307:\n        /* \"HumAidToken.sol\":3116:3124  uint32 i */\n      0x00\n        /* \"HumAidToken.sol\":3111:3313  for (uint32 i = 0; i < ngoWallets.length; ++i) ... */\n    tag_309:\n        /* \"HumAidToken.sol\":3134:3144  ngoWallets */\n      0x08\n        /* \"HumAidToken.sol\":3134:3151  ngoWallets.length */\n      dup1\n      sload\n      swap1\n      pop\n        /* \"HumAidToken.sol\":3130:3131  i */\n      dup2\n        /* \"HumAidToken.sol\":3130:3151  i < ngoWallets.length */\n      0xffffffff\n      and\n      lt\n        /* \"HumAidToken.sol\":3111:3313  for (uint32 i = 0; i < ngoWallets.length; ++i) ... */\n      iszero\n      tag_310\n      jumpi\n        /* \"HumAidToken.sol\":3204:3215  _ngoAddress */\n      dup3\n        /* \"HumAidToken.sol\":3187:3215  ngoWallets[i] == _ngoAddress */\n      0xffffffffffffffffffffffffffffffffffffffff\n      and\n        /* \"HumAidToken.sol\":3187:3197  ngoWallets */\n      0x08\n        /* \"HumAidToken.sol\":3198:3199  i */\n      dup3\n        /* \"HumAidToken.sol\":3187:3200  ngoWallets[i] */\n      0xffffffff\n      and\n      dup2\n      sload\n      dup2\n      lt\n      tag_312\n      jumpi\n      tag_313\n      tag_155\n      jump\t// in\n    tag_313:\n    tag_312:\n      swap1\n      0x00\n      mstore\n      keccak256(0x00, 0x20)\n      add\n      0x00\n      swap1\n      sload\n      swap1\n      0x0100\n      exp\n      swap1\n      div\n      0xffffffffffffffffffffffffffffffffffffffff\n      and\n        /* \"HumAidToken.sol\":3187:3215  ngoWallets[i] == _ngoAddress */\n      0xffffffffffffffffffffffffffffffffffffffff\n      and\n      sub\n        /* \"HumAidToken.sol\":3183:3302  if (ngoWallets[i] == _ngoAddress) {... */\n      tag_315\n      jumpi\n        /* \"HumAidToken.sol\":3236:3256  popFromNGOWallets(i) */\n      tag_316\n        /* \"HumAidToken.sol\":3254:3255  i */\n      dup2\n        /* \"HumAidToken.sol\":3236:3253  popFromNGOWallets */\n      tag_317\n        /* \"HumAidToken.sol\":3236:3256  popFromNGOWallets(i) */\n      jump\t// in\n    tag_316:\n        /* \"HumAidToken.sol\":3282:3286  true */\n      0x01\n        /* \"HumAidToken.sol\":3275:3286  return true */\n      swap2\n      pop\n      pop\n      jump(tag_306)\n        /* \"HumAidToken.sol\":3183:3302  if (ngoWallets[i] == _ngoAddress) {... */\n    tag_315:\n        /* \"HumAidToken.sol\":3153:3156  ++i */\n      dup1\n      tag_318\n      swap1\n      tag_319\n      jump\t// in\n    tag_318:\n      swap1\n      pop\n        /* \"HumAidToken.sol\":3111:3313  for (uint32 i = 0; i < ngoWallets.length; ++i) ... */\n      jump(tag_309)\n    tag_310:\n      pop\n        /* \"HumAidToken.sol\":3330:3335  false */\n      0x00\n        /* \"HumAidToken.sol\":3323:3335  return false */\n      swap1\n      pop\n        /* \"HumAidToken.sol\":2960:3343  function unregisterNGOWallet(address _ngoAddress) private returns (bool){... */\n    tag_306:\n      swap2\n      swap1\n      pop\n      jump\t// out\n        /* \"@openzeppelin/contracts/token/ERC20/ERC20.sol\":5989:7096  function _update(address from, address to, uint256 value) internal virtual {... */\n    tag_261:\n        /* \"@openzeppelin/contracts/token/ERC20/ERC20.sol\":6094:6095  0 */\n      0x00\n        /* \"@openzeppelin/contracts/token/ERC20/ERC20.sol\":6078:6096  from == address(0) */\n      0xffffffffffffffffffffffffffffffffffffffff\n      and\n        /* \"@openzeppelin/contracts/token/ERC20/ERC20.sol\":6078:6082  from */\n      dup4\n        /* \"@openzeppelin/contracts/token/ERC20/ERC20.sol\":6078:6096  from == address(0) */\n      0xffffffffffffffffffffffffffffffffffffffff\n      and\n      sub\n        /* \"@openzeppelin/contracts/token/ERC20/ERC20.sol\":6074:6614  if (from == address(0)) {... */\n      tag_321\n      jumpi\n        /* \"@openzeppelin/contracts/token/ERC20/ERC20.sol\":6230:6235  value */\n      dup1\n        /* \"@openzeppelin/contracts/token/ERC20/ERC20.sol\":6214:6226  _totalSupply */\n      0x02\n      0x00\n        /* \"@openzeppelin/contracts/token/ERC20/ERC20.sol\":6214:6235  _totalSupply += value */\n      dup3\n      dup3\n      sload\n      tag_322\n      swap2\n      swap1\n      tag_323\n      jump\t// in\n    tag_322:\n      swap3\n      pop\n      pop\n      dup2\n      swap1\n      sstore\n      pop\n        /* \"@openzeppelin/contracts/token/ERC20/ERC20.sol\":6074:6614  if (from == address(0)) {... */\n      jump(tag_324)\n    tag_321:\n        /* \"@openzeppelin/contracts/token/ERC20/ERC20.sol\":6266:6285  uint256 fromBalance */\n      0x00\n        /* \"@openzeppelin/contracts/token/ERC20/ERC20.sol\":6288:6297  _balances */\n      dup1\n        /* \"@openzeppelin/contracts/token/ERC20/ERC20.sol\":6288:6303  _balances[from] */\n      0x00\n        /* \"@openzeppelin/contracts/token/ERC20/ERC20.sol\":6298:6302  from */\n      dup6\n        /* \"@openzeppelin/contracts/token/ERC20/ERC20.sol\":6288:6303  _balances[from] */\n      0xffffffffffffffffffffffffffffffffffffffff\n      and\n      0xffffffffffffffffffffffffffffffffffffffff\n      and\n      dup2\n      mstore\n      0x20\n      add\n      swap1\n      dup2\n      mstore\n      0x20\n      add\n      0x00\n      keccak256\n      sload\n        /* \"@openzeppelin/contracts/token/ERC20/ERC20.sol\":6266:6303  uint256 fromBalance = _balances[from] */\n      swap1\n      pop\n        /* \"@openzeppelin/contracts/token/ERC20/ERC20.sol\":6335:6340  value */\n      dup2\n        /* \"@openzeppelin/contracts/token/ERC20/ERC20.sol\":6321:6332  fromBalance */\n      dup2\n        /* \"@openzeppelin/contracts/token/ERC20/ERC20.sol\":6321:6340  fromBalance < value */\n      lt\n        /* \"@openzeppelin/contracts/token/ERC20/ERC20.sol\":6317:6432  if (fromBalance < value) {... */\n      iszero\n      tag_325\n      jumpi\n        /* \"@openzeppelin/contracts/token/ERC20/ERC20.sol\":6392:6396  from */\n      dup4\n        /* \"@openzeppelin/contracts/token/ERC20/ERC20.sol\":6398:6409  fromBalance */\n      dup2\n        /* \"@openzeppelin/contracts/token/ERC20/ERC20.sol\":6411:6416  value */\n      dup4\n        /* \"@openzeppelin/contracts/token/ERC20/ERC20.sol\":6367:6417  ERC20InsufficientBalance(from, fromBalance, value) */\n      mload(0x40)\n      0xe450d38c00000000000000000000000000000000000000000000000000000000\n      dup2\n      mstore\n      0x04\n      add\n      tag_326\n      swap4\n      swap3\n      swap2\n      swap1\n      tag_271\n      jump\t// in\n    tag_326:\n      mload(0x40)\n      dup1\n      swap2\n      sub\n      swap1\n      revert\n        /* \"@openzeppelin/contracts/token/ERC20/ERC20.sol\":6317:6432  if (fromBalance < value) {... */\n    tag_325:\n        /* \"@openzeppelin/contracts/token/ERC20/ERC20.sol\":6584:6589  value */\n      dup2\n        /* \"@openzeppelin/contracts/token/ERC20/ERC20.sol\":6570:6581  fromBalance */\n      dup2\n        /* \"@openzeppelin/contracts/token/ERC20/ERC20.sol\":6570:6589  fromBalance - value */\n      sub\n        /* \"@openzeppelin/contracts/token/ERC20/ERC20.sol\":6552:6561  _balances */\n      0x00\n        /* \"@openzeppelin/contracts/token/ERC20/ERC20.sol\":6552:6567  _balances[from] */\n      dup1\n        /* \"@openzeppelin/contracts/token/ERC20/ERC20.sol\":6562:6566  from */\n      dup7\n        /* \"@openzeppelin/contracts/token/ERC20/ERC20.sol\":6552:6567  _balances[from] */\n      0xffffffffffffffffffffffffffffffffffffffff\n      and\n      0xffffffffffffffffffffffffffffffffffffffff\n      and\n      dup2\n      mstore\n      0x20\n      add\n      swap1\n      dup2\n      mstore\n      0x20\n      add\n      0x00\n      keccak256\n        /* \"@openzeppelin/contracts/token/ERC20/ERC20.sol\":6552:6589  _balances[from] = fromBalance - value */\n      dup2\n      swap1\n      sstore\n      pop\n        /* \"@openzeppelin/contracts/token/ERC20/ERC20.sol\":6252:6614  {... */\n      pop\n        /* \"@openzeppelin/contracts/token/ERC20/ERC20.sol\":6074:6614  if (from == address(0)) {... */\n    tag_324:\n        /* \"@openzeppelin/contracts/token/ERC20/ERC20.sol\":6642:6643  0 */\n      0x00\n        /* \"@openzeppelin/contracts/token/ERC20/ERC20.sol\":6628:6644  to == address(0) */\n      0xffffffffffffffffffffffffffffffffffffffff\n      and\n        /* \"@openzeppelin/contracts/token/ERC20/ERC20.sol\":6628:6630  to */\n      dup3\n        /* \"@openzeppelin/contracts/token/ERC20/ERC20.sol\":6628:6644  to == address(0) */\n      0xffffffffffffffffffffffffffffffffffffffff\n      and\n      sub\n        /* \"@openzeppelin/contracts/token/ERC20/ERC20.sol\":6624:7049  if (to == address(0)) {... */\n      tag_327\n      jumpi\n        /* \"@openzeppelin/contracts/token/ERC20/ERC20.sol\":6807:6812  value */\n      dup1\n        /* \"@openzeppelin/contracts/token/ERC20/ERC20.sol\":6791:6803  _totalSupply */\n      0x02\n      0x00\n        /* \"@openzeppelin/contracts/token/ERC20/ERC20.sol\":6791:6812  _totalSupply -= value */\n      dup3\n      dup3\n      sload\n      sub\n      swap3\n      pop\n      pop\n      dup2\n      swap1\n      sstore\n      pop\n        /* \"@openzeppelin/contracts/token/ERC20/ERC20.sol\":6624:7049  if (to == address(0)) {... */\n      jump(tag_328)\n    tag_327:\n        /* \"@openzeppelin/contracts/token/ERC20/ERC20.sol\":7019:7024  value */\n      dup1\n        /* \"@openzeppelin/contracts/token/ERC20/ERC20.sol\":7002:7011  _balances */\n      0x00\n        /* \"@openzeppelin/contracts/token/ERC20/ERC20.sol\":7002:7015  _balances[to] */\n      dup1\n        /* \"@openzeppelin/contracts/token/ERC20/ERC20.sol\":7012:7014  to */\n      dup5\n        /* \"@openzeppelin/contracts/token/ERC20/ERC20.sol\":7002:7015  _balances[to] */\n      0xffffffffffffffffffffffffffffffffffffffff\n      and\n      0xffffffffffffffffffffffffffffffffffffffff\n      and\n      dup2\n      mstore\n      0x20\n      add\n      swap1\n      dup2\n      mstore\n      0x20\n      add\n      0x00\n      keccak256\n      0x00\n        /* \"@openzeppelin/contracts/token/ERC20/ERC20.sol\":7002:7024  _balances[to] += value */\n      dup3\n      dup3\n      sload\n      add\n      swap3\n      pop\n      pop\n      dup2\n      swap1\n      sstore\n      pop\n        /* \"@openzeppelin/contracts/token/ERC20/ERC20.sol\":6624:7049  if (to == address(0)) {... */\n    tag_328:\n        /* \"@openzeppelin/contracts/token/ERC20/ERC20.sol\":7079:7081  to */\n      dup2\n        /* \"@openzeppelin/contracts/token/ERC20/ERC20.sol\":7064:7089  Transfer(from, to, value) */\n      0xffffffffffffffffffffffffffffffffffffffff\n      and\n        /* \"@openzeppelin/contracts/token/ERC20/ERC20.sol\":7073:7077  from */\n      dup4\n        /* \"@openzeppelin/contracts/token/ERC20/ERC20.sol\":7064:7089  Transfer(from, to, value) */\n      0xffffffffffffffffffffffffffffffffffffffff\n      and\n      0xddf252ad1be2c89b69c2b068fc378daa952ba7f163c4a11628f55a4df523b3ef\n        /* \"@openzeppelin/contracts/token/ERC20/ERC20.sol\":7083:7088  value */\n      dup4\n        /* \"@openzeppelin/contracts/token/ERC20/ERC20.sol\":7064:7089  Transfer(from, to, value) */\n      mload(0x40)\n      tag_329\n      swap2\n      swap1\n      tag_43\n      jump\t// in\n    tag_329:\n      mload(0x40)\n      dup1\n      swap2\n      sub\n      swap1\n      log3\n        /* \"@openzeppelin/contracts/token/ERC20/ERC20.sol\":5989:7096  function _update(address from, address to, uint256 value) internal virtual {... */\n      pop\n      pop\n      pop\n      jump\t// out\n        /* \"@openzeppelin/contracts/token/ERC20/ERC20.sol\":9682:10114  function _approve(address owner, address spender, uint256 value, bool emitEvent) internal virtual {... */\n    tag_265:\n        /* \"@openzeppelin/contracts/token/ERC20/ERC20.sol\":9811:9812  0 */\n      0x00\n        /* \"@openzeppelin/contracts/token/ERC20/ERC20.sol\":9794:9813  owner == address(0) */\n      0xffffffffffffffffffffffffffffffffffffffff\n      and\n        /* \"@openzeppelin/contracts/token/ERC20/ERC20.sol\":9794:9799  owner */\n      dup5\n        /* \"@openzeppelin/contracts/token/ERC20/ERC20.sol\":9794:9813  owner == address(0) */\n      0xffffffffffffffffffffffffffffffffffffffff\n      and\n      sub\n        /* \"@openzeppelin/contracts/token/ERC20/ERC20.sol\":9790:9879  if (owner == address(0)) {... */\n      tag_331\n      jumpi\n        /* \"@openzeppelin/contracts/token/ERC20/ERC20.sol\":9865:9866  0 */\n      0x00\n        /* \"@openzeppelin/contracts/token/ERC20/ERC20.sol\":9836:9868  ERC20InvalidApprover(address(0)) */\n      mload(0x40)\n      0xe602df0500000000000000000000000000000000000000000000000000000000\n      dup2\n      mstore\n      0x04\n      add\n      tag_332\n      swap2\n      swap1\n      tag_70\n      jump\t// in\n    tag_332:\n      mload(0x40)\n      dup1\n      swap2\n      sub\n      swap1\n      revert\n        /* \"@openzeppelin/contracts/token/ERC20/ERC20.sol\":9790:9879  if (owner == address(0)) {... */\n    tag_331:\n        /* \"@openzeppelin/contracts/token/ERC20/ERC20.sol\":9911:9912  0 */\n      0x00\n        /* \"@openzeppelin/contracts/token/ERC20/ERC20.sol\":9892:9913  spender == address(0) */\n      0xffffffffffffffffffffffffffffffffffffffff\n      and\n        /* \"@openzeppelin/contracts/token/ERC20/ERC20.sol\":9892:9899  spender */\n      dup4\n        /* \"@openzeppelin/contracts/token/ERC20/ERC20.sol\":9892:9913  spender == address(0) */\n      0xffffffffffffffffffffffffffffffffffffffff\n      and\n      sub\n        /* \"@openzeppelin/contracts/token/ERC20/ERC20.sol\":9888:9978  if (spender == address(0)) {... */\n      tag_333\n      jumpi\n        /* \"@openzeppelin/contracts/token/ERC20/ERC20.sol\":9964:9965  0 */\n      0x00\n        /* \"@openzeppelin/contracts/token/ERC20/ERC20.sol\":9936:9967  ERC20InvalidSpender(address(0)) */\n      mload(0x40)\n      0x94280d6200000000000000000000000000000000000000000000000000000000\n      dup2\n      mstore\n      0x04\n      add\n      tag_334\n      swap2\n      swap1\n      tag_70\n      jump\t// in\n    tag_334:\n      mload(0x40)\n      dup1\n      swap2\n      sub\n      swap1\n      revert\n        /* \"@openzeppelin/contracts/token/ERC20/ERC20.sol\":9888:9978  if (spender == address(0)) {... */\n    tag_333:\n        /* \"@openzeppelin/contracts/token/ERC20/ERC20.sol\":10017:10022  value */\n      dup2\n        /* \"@openzeppelin/contracts/token/ERC20/ERC20.sol\":9987:9998  _allowances */\n      0x01\n        /* \"@openzeppelin/contracts/token/ERC20/ERC20.sol\":9987:10005  _allowances[owner] */\n      0x00\n        /* \"@openzeppelin/contracts/token/ERC20/ERC20.sol\":9999:10004  owner */\n      dup7\n        /* \"@openzeppelin/contracts/token/ERC20/ERC20.sol\":9987:10005  _allowances[owner] */\n      0xffffffffffffffffffffffffffffffffffffffff\n      and\n      0xffffffffffffffffffffffffffffffffffffffff\n      and\n      dup2\n      mstore\n      0x20\n      add\n      swap1\n      dup2\n      mstore\n      0x20\n      add\n      0x00\n      keccak256\n        /* \"@openzeppelin/contracts/token/ERC20/ERC20.sol\":9987:10014  _allowances[owner][spender] */\n      0x00\n        /* \"@openzeppelin/contracts/token/ERC20/ERC20.sol\":10006:10013  spender */\n      dup6\n        /* \"@openzeppelin/contracts/token/ERC20/ERC20.sol\":9987:10014  _allowances[owner][spender] */\n      0xffffffffffffffffffffffffffffffffffffffff\n      and\n      0xffffffffffffffffffffffffffffffffffffffff\n      and\n      dup2\n      mstore\n      0x20\n      add\n      swap1\n      dup2\n      mstore\n      0x20\n      add\n      0x00\n      keccak256\n        /* \"@openzeppelin/contracts/token/ERC20/ERC20.sol\":9987:10022  _allowances[owner][spender] = value */\n      dup2\n      swap1\n      sstore\n      pop\n        /* \"@openzeppelin/contracts/token/ERC20/ERC20.sol\":10036:10045  emitEvent */\n      dup1\n        /* \"@openzeppelin/contracts/token/ERC20/ERC20.sol\":10032:10108  if (emitEvent) {... */\n      iszero\n      tag_335\n      jumpi\n        /* \"@openzeppelin/contracts/token/ERC20/ERC20.sol\":10082:10089  spender */\n      dup3\n        /* \"@openzeppelin/contracts/token/ERC20/ERC20.sol\":10066:10097  Approval(owner, spender, value) */\n      0xffffffffffffffffffffffffffffffffffffffff\n      and\n        /* \"@openzeppelin/contracts/token/ERC20/ERC20.sol\":10075:10080  owner */\n      dup5\n        /* \"@openzeppelin/contracts/token/ERC20/ERC20.sol\":10066:10097  Approval(owner, spender, value) */\n      0xffffffffffffffffffffffffffffffffffffffff\n      and\n      0x8c5be1e5ebec7d5bd14f71427d1e84f3dd0314c0f7b2291e5b200ac8c7c3b925\n        /* \"@openzeppelin/contracts/token/ERC20/ERC20.sol\":10091:10096  value */\n      dup5\n        /* \"@openzeppelin/contracts/token/ERC20/ERC20.sol\":10066:10097  Approval(owner, spender, value) */\n      mload(0x40)\n      tag_336\n      swap2\n      swap1\n      tag_43\n      jump\t// in\n    tag_336:\n      mload(0x40)\n      dup1\n      swap2\n      sub\n      swap1\n      log3\n        /* \"@openzeppelin/contracts/token/ERC20/ERC20.sol\":10032:10108  if (emitEvent) {... */\n    tag_335:\n        /* \"@openzeppelin/contracts/token/ERC20/ERC20.sol\":9682:10114  function _approve(address owner, address spender, uint256 value, bool emitEvent) internal virtual {... */\n      pop\n      pop\n      pop\n      pop\n      jump\t// out\n        /* \"HumAidToken.sol\":4657:5468  function _update(address from, address to, uint256 value) internal override {... */\n    tag_279:\n        /* \"HumAidToken.sol\":4748:4766  _isExcludedFromFee */\n      0x09\n        /* \"HumAidToken.sol\":4748:4772  _isExcludedFromFee[from] */\n      0x00\n        /* \"HumAidToken.sol\":4767:4771  from */\n      dup5\n        /* \"HumAidToken.sol\":4748:4772  _isExcludedFromFee[from] */\n      0xffffffffffffffffffffffffffffffffffffffff\n      and\n      0xffffffffffffffffffffffffffffffffffffffff\n      and\n      dup2\n      mstore\n      0x20\n      add\n      swap1\n      dup2\n      mstore\n      0x20\n      add\n      0x00\n      keccak256\n      0x00\n      swap1\n      sload\n      swap1\n      0x0100\n      exp\n      swap1\n      div\n      0xff\n      and\n        /* \"HumAidToken.sol\":4748:4798  _isExcludedFromFee[from] || _isExcludedFromFee[to] */\n      dup1\n      tag_338\n      jumpi\n      pop\n        /* \"HumAidToken.sol\":4776:4794  _isExcludedFromFee */\n      0x09\n        /* \"HumAidToken.sol\":4776:4798  _isExcludedFromFee[to] */\n      0x00\n        /* \"HumAidToken.sol\":4795:4797  to */\n      dup4\n        /* \"HumAidToken.sol\":4776:4798  _isExcludedFromFee[to] */\n      0xffffffffffffffffffffffffffffffffffffffff\n      and\n      0xffffffffffffffffffffffffffffffffffffffff\n      and\n      dup2\n      mstore\n      0x20\n      add\n      swap1\n      dup2\n      mstore\n      0x20\n      add\n      0x00\n      keccak256\n      0x00\n      swap1\n      sload\n      swap1\n      0x0100\n      exp\n      swap1\n      div\n      0xff\n      and\n        /* \"HumAidToken.sol\":4748:4798  _isExcludedFromFee[from] || _isExcludedFromFee[to] */\n    tag_338:\n        /* \"HumAidToken.sol\":4748:4817  _isExcludedFromFee[from] || _isExcludedFromFee[to] || feePercent == 0 */\n      dup1\n      tag_339\n      jumpi\n      pop\n        /* \"HumAidToken.sol\":4816:4817  0 */\n      0x00\n        /* \"HumAidToken.sol\":4802:4812  feePercent */\n      sload(0x06)\n        /* \"HumAidToken.sol\":4802:4817  feePercent == 0 */\n      eq\n        /* \"HumAidToken.sol\":4748:4817  _isExcludedFromFee[from] || _isExcludedFromFee[to] || feePercent == 0 */\n    tag_339:\n        /* \"HumAidToken.sol\":4744:5461  if (_isExcludedFromFee[from] || _isExcludedFromFee[to] || feePercent == 0) {... */\n      iszero\n      tag_340\n      jumpi\n        /* \"HumAidToken.sol\":4834:4864  super._update(from, to, value) */\n      tag_341\n        /* \"HumAidToken.sol\":4848:4852  from */\n      dup4\n        /* \"HumAidToken.sol\":4854:4856  to */\n      dup4\n        /* \"HumAidToken.sol\":4858:4863  value */\n      dup4\n        /* \"HumAidToken.sol\":4834:4847  super._update */\n      tag_261\n        /* \"HumAidToken.sol\":4834:4864  super._update(from, to, value) */\n      jump\t// in\n    tag_341:\n        /* \"HumAidToken.sol\":4744:5461  if (_isExcludedFromFee[from] || _isExcludedFromFee[to] || feePercent == 0) {... */\n      jump(tag_342)\n    tag_340:\n        /* \"HumAidToken.sol\":4897:4908  uint256 fee */\n      0x00\n        /* \"HumAidToken.sol\":4934:4938  1000 */\n      0x03e8\n        /* \"HumAidToken.sol\":4920:4930  feePercent */\n      sload(0x06)\n        /* \"HumAidToken.sol\":4912:4917  value */\n      dup4\n        /* \"HumAidToken.sol\":4912:4930  value * feePercent */\n      tag_343\n      swap2\n      swap1\n      tag_344\n      jump\t// in\n    tag_343:\n        /* \"HumAidToken.sol\":4911:4938  (value * feePercent) / 1000 */\n      tag_345\n      swap2\n      swap1\n      tag_250\n      jump\t// in\n    tag_345:\n        /* \"HumAidToken.sol\":4897:4938  uint256 fee = (value * feePercent) / 1000 */\n      swap1\n      pop\n        /* \"HumAidToken.sol\":4953:4975  uint256 amountAfterFee */\n      0x00\n        /* \"HumAidToken.sol\":4986:4989  fee */\n      dup2\n        /* \"HumAidToken.sol\":4978:4983  value */\n      dup4\n        /* \"HumAidToken.sol\":4978:4989  value - fee */\n      tag_346\n      swap2\n      swap1\n      tag_347\n      jump\t// in\n    tag_346:\n        /* \"HumAidToken.sol\":4953:4989  uint256 amountAfterFee = value - fee */\n      swap1\n      pop\n        /* \"HumAidToken.sol\":5004:5017  uint256 share */\n      0x00\n        /* \"HumAidToken.sol\":5041:5042  0 */\n      dup1\n        /* \"HumAidToken.sol\":5020:5030  ngoWallets */\n      0x08\n        /* \"HumAidToken.sol\":5020:5037  ngoWallets.length */\n      dup1\n      sload\n      swap1\n      pop\n        /* \"HumAidToken.sol\":5020:5042  ngoWallets.length != 0 */\n      sub\n        /* \"HumAidToken.sol\":5020:5072  ngoWallets.length != 0 ? fee / ngoWallets.length : 1 */\n      tag_348\n      jumpi\n        /* \"HumAidToken.sol\":5071:5072  1 */\n      0x01\n        /* \"HumAidToken.sol\":5020:5072  ngoWallets.length != 0 ? fee / ngoWallets.length : 1 */\n      jump(tag_349)\n    tag_348:\n        /* \"HumAidToken.sol\":5051:5061  ngoWallets */\n      0x08\n        /* \"HumAidToken.sol\":5051:5068  ngoWallets.length */\n      dup1\n      sload\n      swap1\n      pop\n        /* \"HumAidToken.sol\":5045:5048  fee */\n      dup4\n        /* \"HumAidToken.sol\":5045:5068  fee / ngoWallets.length */\n      tag_350\n      swap2\n      swap1\n      tag_250\n      jump\t// in\n    tag_350:\n        /* \"HumAidToken.sol\":5020:5072  ngoWallets.length != 0 ? fee / ngoWallets.length : 1 */\n    tag_349:\n        /* \"HumAidToken.sol\":5004:5072  uint256 share = ngoWallets.length != 0 ? fee / ngoWallets.length : 1 */\n      swap1\n      pop\n        /* \"HumAidToken.sol\":5087:5104  uint256 remainder */\n      0x00\n        /* \"HumAidToken.sol\":5122:5132  ngoWallets */\n      0x08\n        /* \"HumAidToken.sol\":5122:5139  ngoWallets.length */\n      dup1\n      sload\n      swap1\n      pop\n        /* \"HumAidToken.sol\":5114:5119  share */\n      dup3\n        /* \"HumAidToken.sol\":5114:5139  share * ngoWallets.length */\n      tag_351\n      swap2\n      swap1\n      tag_344\n      jump\t// in\n    tag_351:\n        /* \"HumAidToken.sol\":5107:5110  fee */\n      dup5\n        /* \"HumAidToken.sol\":5107:5140  fee - (share * ngoWallets.length) */\n      tag_352\n      swap2\n      swap1\n      tag_347\n      jump\t// in\n    tag_352:\n        /* \"HumAidToken.sol\":5087:5140  uint256 remainder = fee - (share * ngoWallets.length) */\n      swap1\n      pop\n        /* \"HumAidToken.sol\":5162:5168  uint i */\n      0x00\n        /* \"HumAidToken.sol\":5157:5278  for (uint i = 0; i < ngoWallets.length; ++i) {... */\n    tag_353:\n        /* \"HumAidToken.sol\":5178:5188  ngoWallets */\n      0x08\n        /* \"HumAidToken.sol\":5178:5195  ngoWallets.length */\n      dup1\n      sload\n      swap1\n      pop\n        /* \"HumAidToken.sol\":5174:5175  i */\n      dup2\n        /* \"HumAidToken.sol\":5174:5195  i < ngoWallets.length */\n      lt\n        /* \"HumAidToken.sol\":5157:5278  for (uint i = 0; i < ngoWallets.length; ++i) {... */\n      iszero\n      tag_354\n      jumpi\n        /* \"HumAidToken.sol\":5221:5262  super._update(from, ngoWallets[i], share) */\n      tag_356\n        /* \"HumAidToken.sol\":5235:5239  from */\n      dup9\n        /* \"HumAidToken.sol\":5241:5251  ngoWallets */\n      0x08\n        /* \"HumAidToken.sol\":5252:5253  i */\n      dup4\n        /* \"HumAidToken.sol\":5241:5254  ngoWallets[i] */\n      dup2\n      sload\n      dup2\n      lt\n      tag_357\n      jumpi\n      tag_358\n      tag_155\n      jump\t// in\n    tag_358:\n    tag_357:\n      swap1\n      0x00\n      mstore\n      keccak256(0x00, 0x20)\n      add\n      0x00\n      swap1\n      sload\n      swap1\n      0x0100\n      exp\n      swap1\n      div\n      0xffffffffffffffffffffffffffffffffffffffff\n      and\n        /* \"HumAidToken.sol\":5256:5261  share */\n      dup6\n        /* \"HumAidToken.sol\":5221:5234  super._update */\n      tag_261\n        /* \"HumAidToken.sol\":5221:5262  super._update(from, ngoWallets[i], share) */\n      jump\t// in\n    tag_356:\n        /* \"HumAidToken.sol\":5197:5200  ++i */\n      dup1\n      0x01\n      add\n      swap1\n      pop\n        /* \"HumAidToken.sol\":5157:5278  for (uint i = 0; i < ngoWallets.length; ++i) {... */\n      jump(tag_353)\n    tag_354:\n      pop\n        /* \"HumAidToken.sol\":5310:5311  0 */\n      0x00\n        /* \"HumAidToken.sol\":5298:5307  remainder */\n      dup2\n        /* \"HumAidToken.sol\":5298:5311  remainder > 0 */\n      gt\n        /* \"HumAidToken.sol\":5294:5394  if (remainder > 0) {... */\n      iszero\n      tag_360\n      jumpi\n        /* \"HumAidToken.sol\":5332:5378  super._update(from, treasuryWallet, remainder) */\n      tag_361\n        /* \"HumAidToken.sol\":5346:5350  from */\n      dup8\n        /* \"HumAidToken.sol\":5352:5366  treasuryWallet */\n      0x0a\n      0x00\n      swap1\n      sload\n      swap1\n      0x0100\n      exp\n      swap1\n      div\n      0xffffffffffffffffffffffffffffffffffffffff\n      and\n        /* \"HumAidToken.sol\":5368:5377  remainder */\n      dup4\n        /* \"HumAidToken.sol\":5332:5345  super._update */\n      tag_261\n        /* \"HumAidToken.sol\":5332:5378  super._update(from, treasuryWallet, remainder) */\n      jump\t// in\n    tag_361:\n        /* \"HumAidToken.sol\":5294:5394  if (remainder > 0) {... */\n    tag_360:\n        /* \"HumAidToken.sol\":5410:5449  super._update(from, to, amountAfterFee) */\n      tag_362\n        /* \"HumAidToken.sol\":5424:5428  from */\n      dup8\n        /* \"HumAidToken.sol\":5430:5432  to */\n      dup8\n        /* \"HumAidToken.sol\":5434:5448  amountAfterFee */\n      dup6\n        /* \"HumAidToken.sol\":5410:5423  super._update */\n      tag_261\n        /* \"HumAidToken.sol\":5410:5449  super._update(from, to, amountAfterFee) */\n      jump\t// in\n    tag_362:\n        /* \"HumAidToken.sol\":4882:5461  {... */\n      pop\n      pop\n      pop\n      pop\n        /* \"HumAidToken.sol\":4744:5461  if (_isExcludedFromFee[from] || _isExcludedFromFee[to] || feePercent == 0) {... */\n    tag_342:\n        /* \"HumAidToken.sol\":4657:5468  function _update(address from, address to, uint256 value) internal override {... */\n      pop\n      pop\n      pop\n      jump\t// out\n        /* \"HumAidToken.sol\":1067:1164  function pushToNGOWallets(address _address) private { ... */\n    tag_300:\n        /* \"HumAidToken.sol\":1131:1141  ngoWallets */\n      0x08\n        /* \"HumAidToken.sol\":1147:1155  _address */\n      dup2\n        /* \"HumAidToken.sol\":1131:1156  ngoWallets.push(_address) */\n      swap1\n      dup1\n      0x01\n      dup2\n      sload\n      add\n      dup1\n      dup3\n      sstore\n      dup1\n      swap2\n      pop\n      pop\n      0x01\n      swap1\n      sub\n      swap1\n      0x00\n      mstore\n      keccak256(0x00, 0x20)\n      add\n      0x00\n      swap1\n      swap2\n      swap1\n      swap2\n      swap1\n      swap2\n      0x0100\n      exp\n      dup2\n      sload\n      dup2\n      0xffffffffffffffffffffffffffffffffffffffff\n      mul\n      not\n      and\n      swap1\n      dup4\n      0xffffffffffffffffffffffffffffffffffffffff\n      and\n      mul\n      or\n      swap1\n      sstore\n      pop\n        /* \"HumAidToken.sol\":1067:1164  function pushToNGOWallets(address _address) private { ... */\n      pop\n      jump\t// out\n        /* \"HumAidToken.sol\":1172:1323  function popFromNGOWallets(uint32 _index) private { ... */\n    tag_317:\n        /* \"HumAidToken.sol\":1255:1265  ngoWallets */\n      0x08\n        /* \"HumAidToken.sol\":1286:1287  1 */\n      0x01\n        /* \"HumAidToken.sol\":1266:1276  ngoWallets */\n      0x08\n        /* \"HumAidToken.sol\":1266:1283  ngoWallets.length */\n      dup1\n      sload\n      swap1\n      pop\n        /* \"HumAidToken.sol\":1266:1287  ngoWallets.length - 1 */\n      tag_366\n      swap2\n      swap1\n      tag_347\n      jump\t// in\n    tag_366:\n        /* \"HumAidToken.sol\":1255:1288  ngoWallets[ngoWallets.length - 1] */\n      dup2\n      sload\n      dup2\n      lt\n      tag_367\n      jumpi\n      tag_368\n      tag_155\n      jump\t// in\n    tag_368:\n    tag_367:\n      swap1\n      0x00\n      mstore\n      keccak256(0x00, 0x20)\n      add\n      0x00\n      swap1\n      sload\n      swap1\n      0x0100\n      exp\n      swap1\n      div\n      0xffffffffffffffffffffffffffffffffffffffff\n      and\n        /* \"HumAidToken.sol\":1234:1244  ngoWallets */\n      0x08\n        /* \"HumAidToken.sol\":1245:1251  _index */\n      dup3\n        /* \"HumAidToken.sol\":1234:1252  ngoWallets[_index] */\n      0xffffffff\n      and\n      dup2\n      sload\n      dup2\n      lt\n      tag_370\n      jumpi\n      tag_371\n      tag_155\n      jump\t// in\n    tag_371:\n    tag_370:\n      swap1\n      0x00\n      mstore\n      keccak256(0x00, 0x20)\n      add\n      0x00\n        /* \"HumAidToken.sol\":1234:1288  ngoWallets[_index] = ngoWallets[ngoWallets.length - 1] */\n      0x0100\n      exp\n      dup2\n      sload\n      dup2\n      0xffffffffffffffffffffffffffffffffffffffff\n      mul\n      not\n      and\n      swap1\n      dup4\n      0xffffffffffffffffffffffffffffffffffffffff\n      and\n      mul\n      or\n      swap1\n      sstore\n      pop\n        /* \"HumAidToken.sol\":1299:1309  ngoWallets */\n      0x08\n        /* \"HumAidToken.sol\":1299:1315  ngoWallets.pop() */\n      dup1\n      sload\n      dup1\n      tag_373\n      jumpi\n      tag_374\n      tag_375\n      jump\t// in\n    tag_374:\n    tag_373:\n      0x01\n      swap1\n      sub\n      dup2\n      dup2\n      swap1\n      0x00\n      mstore\n      keccak256(0x00, 0x20)\n      add\n      exp(0x0100, 0x00)\n      dup2\n      sload\n      swap1\n      0xffffffffffffffffffffffffffffffffffffffff\n      mul\n      not\n      and\n      swap1\n      sstore\n      swap1\n      sstore\n        /* \"HumAidToken.sol\":1172:1323  function popFromNGOWallets(uint32 _index) private { ... */\n      pop\n      jump\t// out\n    tag_222:\n      pop\n      dup1\n      sload\n      tag_377\n      swap1\n      tag_125\n      jump\t// in\n    tag_377:\n      0x00\n      dup3\n      sstore\n      dup1\n      0x1f\n      lt\n      tag_379\n      jumpi\n      pop\n      jump(tag_378)\n    tag_379:\n      0x1f\n      add\n      0x20\n      swap1\n      div\n      swap1\n      0x00\n      mstore\n      keccak256(0x00, 0x20)\n      swap1\n      dup2\n      add\n      swap1\n      tag_380\n      swap2\n      swap1\n      tag_381\n      jump\t// in\n    tag_380:\n    tag_378:\n      pop\n      jump\t// out\n    tag_381:\n    tag_382:\n      dup1\n      dup3\n      gt\n      iszero\n      tag_383\n      jumpi\n      0x00\n      dup2\n      0x00\n      swap1\n      sstore\n      pop\n      0x01\n      add\n      jump(tag_382)\n    tag_383:\n      pop\n      swap1\n      jump\t// out\n        /* \"#utility.yul\":7:106   */\n    tag_384:\n        /* \"#utility.yul\":59:65   */\n      0x00\n        /* \"#utility.yul\":93:98   */\n      dup2\n        /* \"#utility.yul\":87:99   */\n      mload\n        /* \"#utility.yul\":77:99   */\n      swap1\n      pop\n        /* \"#utility.yul\":7:106   */\n      swap2\n      swap1\n      pop\n      jump\t// out\n        /* \"#utility.yul\":112:281   */\n    tag_385:\n        /* \"#utility.yul\":196:207   */\n      0x00\n        /* \"#utility.yul\":230:236   */\n      dup3\n        /* \"#utility.yul\":225:228   */\n      dup3\n        /* \"#utility.yul\":218:237   */\n      mstore\n        /* \"#utility.yul\":270:274   */\n      0x20\n        /* \"#utility.yul\":265:268   */\n      dup3\n        /* \"#utility.yul\":261:275   */\n      add\n        /* \"#utility.yul\":246:275   */\n      swap1\n      pop\n        /* \"#utility.yul\":112:281   */\n      swap3\n      swap2\n      pop\n      pop\n      jump\t// out\n        /* \"#utility.yul\":287:533   */\n    tag_386:\n        /* \"#utility.yul\":368:369   */\n      0x00\n        /* \"#utility.yul\":378:491   */\n    tag_458:\n        /* \"#utility.yul\":392:398   */\n      dup4\n        /* \"#utility.yul\":389:390   */\n      dup2\n        /* \"#utility.yul\":386:399   */\n      lt\n        /* \"#utility.yul\":378:491   */\n      iszero\n      tag_460\n      jumpi\n        /* \"#utility.yul\":477:478   */\n      dup1\n        /* \"#utility.yul\":472:475   */\n      dup3\n        /* \"#utility.yul\":468:479   */\n      add\n        /* \"#utility.yul\":462:480   */\n      mload\n        /* \"#utility.yul\":458:459   */\n      dup2\n        /* \"#utility.yul\":453:456   */\n      dup5\n        /* \"#utility.yul\":449:460   */\n      add\n        /* \"#utility.yul\":442:481   */\n      mstore\n        /* \"#utility.yul\":414:416   */\n      0x20\n        /* \"#utility.yul\":411:412   */\n      dup2\n        /* \"#utility.yul\":407:417   */\n      add\n        /* \"#utility.yul\":402:417   */\n      swap1\n      pop\n        /* \"#utility.yul\":378:491   */\n      jump(tag_458)\n    tag_460:\n        /* \"#utility.yul\":525:526   */\n      0x00\n        /* \"#utility.yul\":516:522   */\n      dup5\n        /* \"#utility.yul\":511:514   */\n      dup5\n        /* \"#utility.yul\":507:523   */\n      add\n        /* \"#utility.yul\":500:527   */\n      mstore\n        /* \"#utility.yul\":349:533   */\n      pop\n        /* \"#utility.yul\":287:533   */\n      pop\n      pop\n      pop\n      jump\t// out\n        /* \"#utility.yul\":539:641   */\n    tag_387:\n        /* \"#utility.yul\":580:586   */\n      0x00\n        /* \"#utility.yul\":631:633   */\n      0x1f\n        /* \"#utility.yul\":627:634   */\n      not\n        /* \"#utility.yul\":622:624   */\n      0x1f\n        /* \"#utility.yul\":615:620   */\n      dup4\n        /* \"#utility.yul\":611:625   */\n      add\n        /* \"#utility.yul\":607:635   */\n      and\n        /* \"#utility.yul\":597:635   */\n      swap1\n      pop\n        /* \"#utility.yul\":539:641   */\n      swap2\n      swap1\n      pop\n      jump\t// out\n        /* \"#utility.yul\":647:1024   */\n    tag_388:\n        /* \"#utility.yul\":735:738   */\n      0x00\n        /* \"#utility.yul\":763:802   */\n      tag_463\n        /* \"#utility.yul\":796:801   */\n      dup3\n        /* \"#utility.yul\":763:802   */\n      tag_384\n      jump\t// in\n    tag_463:\n        /* \"#utility.yul\":818:889   */\n      tag_464\n        /* \"#utility.yul\":882:888   */\n      dup2\n        /* \"#utility.yul\":877:880   */\n      dup6\n        /* \"#utility.yul\":818:889   */\n      tag_385\n      jump\t// in\n    tag_464:\n        /* \"#utility.yul\":811:889   */\n      swap4\n      pop\n        /* \"#utility.yul\":898:963   */\n      tag_465\n        /* \"#utility.yul\":956:962   */\n      dup2\n        /* \"#utility.yul\":951:954   */\n      dup6\n        /* \"#utility.yul\":944:948   */\n      0x20\n        /* \"#utility.yul\":937:942   */\n      dup7\n        /* \"#utility.yul\":933:949   */\n      add\n        /* \"#utility.yul\":898:963   */\n      tag_386\n      jump\t// in\n    tag_465:\n        /* \"#utility.yul\":988:1017   */\n      tag_466\n        /* \"#utility.yul\":1010:1016   */\n      dup2\n        /* \"#utility.yul\":988:1017   */\n      tag_387\n      jump\t// in\n    tag_466:\n        /* \"#utility.yul\":983:986   */\n      dup5\n        /* \"#utility.yul\":979:1018   */\n      add\n        /* \"#utility.yul\":972:1018   */\n      swap2\n      pop\n        /* \"#utility.yul\":739:1024   */\n      pop\n        /* \"#utility.yul\":647:1024   */\n      swap3\n      swap2\n      pop\n      pop\n      jump\t// out\n        /* \"#utility.yul\":1030:1343   */\n    tag_33:\n        /* \"#utility.yul\":1143:1147   */\n      0x00\n        /* \"#utility.yul\":1181:1183   */\n      0x20\n        /* \"#utility.yul\":1170:1179   */\n      dup3\n        /* \"#utility.yul\":1166:1184   */\n      add\n        /* \"#utility.yul\":1158:1184   */\n      swap1\n      pop\n        /* \"#utility.yul\":1230:1239   */\n      dup2\n        /* \"#utility.yul\":1224:1228   */\n      dup2\n        /* \"#utility.yul\":1220:1240   */\n      sub\n        /* \"#utility.yul\":1216:1217   */\n      0x00\n        /* \"#utility.yul\":1205:1214   */\n      dup4\n        /* \"#utility.yul\":1201:1218   */\n      add\n        /* \"#utility.yul\":1194:1241   */\n      mstore\n        /* \"#utility.yul\":1258:1336   */\n      tag_468\n        /* \"#utility.yul\":1331:1335   */\n      dup2\n        /* \"#utility.yul\":1322:1328   */\n      dup5\n        /* \"#utility.yul\":1258:1336   */\n      tag_388\n      jump\t// in\n    tag_468:\n        /* \"#utility.yul\":1250:1336   */\n      swap1\n      pop\n        /* \"#utility.yul\":1030:1343   */\n      swap3\n      swap2\n      pop\n      pop\n      jump\t// out\n        /* \"#utility.yul\":1349:1424   */\n    tag_389:\n        /* \"#utility.yul\":1382:1388   */\n      0x00\n        /* \"#utility.yul\":1415:1417   */\n      0x40\n        /* \"#utility.yul\":1409:1418   */\n      mload\n        /* \"#utility.yul\":1399:1418   */\n      swap1\n      pop\n        /* \"#utility.yul\":1349:1424   */\n      swap1\n      jump\t// out\n        /* \"#utility.yul\":1430:1547   */\n    tag_390:\n        /* \"#utility.yul\":1539:1540   */\n      0x00\n        /* \"#utility.yul\":1536:1537   */\n      dup1\n        /* \"#utility.yul\":1529:1541   */\n      revert\n        /* \"#utility.yul\":1553:1670   */\n    tag_391:\n        /* \"#utility.yul\":1662:1663   */\n      0x00\n        /* \"#utility.yul\":1659:1660   */\n      dup1\n        /* \"#utility.yul\":1652:1664   */\n      revert\n        /* \"#utility.yul\":1676:1802   */\n    tag_392:\n        /* \"#utility.yul\":1713:1720   */\n      0x00\n        /* \"#utility.yul\":1753:1795   */\n      0xffffffffffffffffffffffffffffffffffffffff\n        /* \"#utility.yul\":1746:1751   */\n      dup3\n        /* \"#utility.yul\":1742:1796   */\n      and\n        /* \"#utility.yul\":1731:1796   */\n      swap1\n      pop\n        /* \"#utility.yul\":1676:1802   */\n      swap2\n      swap1\n      pop\n      jump\t// out\n        /* \"#utility.yul\":1808:1904   */\n    tag_393:\n        /* \"#utility.yul\":1845:1852   */\n      0x00\n        /* \"#utility.yul\":1874:1898   */\n      tag_474\n        /* \"#utility.yul\":1892:1897   */\n      dup3\n        /* \"#utility.yul\":1874:1898   */\n      tag_392\n      jump\t// in\n    tag_474:\n        /* \"#utility.yul\":1863:1898   */\n      swap1\n      pop\n        /* \"#utility.yul\":1808:1904   */\n      swap2\n      swap1\n      pop\n      jump\t// out\n        /* \"#utility.yul\":1910:2032   */\n    tag_394:\n        /* \"#utility.yul\":1983:2007   */\n      tag_476\n        /* \"#utility.yul\":2001:2006   */\n      dup2\n        /* \"#utility.yul\":1983:2007   */\n      tag_393\n      jump\t// in\n    tag_476:\n        /* \"#utility.yul\":1976:1981   */\n      dup2\n        /* \"#utility.yul\":1973:2008   */\n      eq\n        /* \"#utility.yul\":1963:2026   */\n      tag_477\n      jumpi\n        /* \"#utility.yul\":2022:2023   */\n      0x00\n        /* \"#utility.yul\":2019:2020   */\n      dup1\n        /* \"#utility.yul\":2012:2024   */\n      revert\n        /* \"#utility.yul\":1963:2026   */\n    tag_477:\n        /* \"#utility.yul\":1910:2032   */\n      pop\n      jump\t// out\n        /* \"#utility.yul\":2038:2177   */\n    tag_395:\n        /* \"#utility.yul\":2084:2089   */\n      0x00\n        /* \"#utility.yul\":2122:2128   */\n      dup2\n        /* \"#utility.yul\":2109:2129   */\n      calldataload\n        /* \"#utility.yul\":2100:2129   */\n      swap1\n      pop\n        /* \"#utility.yul\":2138:2171   */\n      tag_479\n        /* \"#utility.yul\":2165:2170   */\n      dup2\n        /* \"#utility.yul\":2138:2171   */\n      tag_394\n      jump\t// in\n    tag_479:\n        /* \"#utility.yul\":2038:2177   */\n      swap3\n      swap2\n      pop\n      pop\n      jump\t// out\n        /* \"#utility.yul\":2183:2260   */\n    tag_396:\n        /* \"#utility.yul\":2220:2227   */\n      0x00\n        /* \"#utility.yul\":2249:2254   */\n      dup2\n        /* \"#utility.yul\":2238:2254   */\n      swap1\n      pop\n        /* \"#utility.yul\":2183:2260   */\n      swap2\n      swap1\n      pop\n      jump\t// out\n        /* \"#utility.yul\":2266:2388   */\n    tag_397:\n        /* \"#utility.yul\":2339:2363   */\n      tag_482\n        /* \"#utility.yul\":2357:2362   */\n      dup2\n        /* \"#utility.yul\":2339:2363   */\n      tag_396\n      jump\t// in\n    tag_482:\n        /* \"#utility.yul\":2332:2337   */\n      dup2\n        /* \"#utility.yul\":2329:2364   */\n      eq\n        /* \"#utility.yul\":2319:2382   */\n      tag_483\n      jumpi\n        /* \"#utility.yul\":2378:2379   */\n      0x00\n        /* \"#utility.yul\":2375:2376   */\n      dup1\n        /* \"#utility.yul\":2368:2380   */\n      revert\n        /* \"#utility.yul\":2319:2382   */\n    tag_483:\n        /* \"#utility.yul\":2266:2388   */\n      pop\n      jump\t// out\n        /* \"#utility.yul\":2394:2533   */\n    tag_398:\n        /* \"#utility.yul\":2440:2445   */\n      0x00\n        /* \"#utility.yul\":2478:2484   */\n      dup2\n        /* \"#utility.yul\":2465:2485   */\n      calldataload\n        /* \"#utility.yul\":2456:2485   */\n      swap1\n      pop\n        /* \"#utility.yul\":2494:2527   */\n      tag_485\n        /* \"#utility.yul\":2521:2526   */\n      dup2\n        /* \"#utility.yul\":2494:2527   */\n      tag_397\n      jump\t// in\n    tag_485:\n        /* \"#utility.yul\":2394:2533   */\n      swap3\n      swap2\n      pop\n      pop\n      jump\t// out\n        /* \"#utility.yul\":2539:3013   */\n    tag_36:\n        /* \"#utility.yul\":2607:2613   */\n      0x00\n        /* \"#utility.yul\":2615:2621   */\n      dup1\n        /* \"#utility.yul\":2664:2666   */\n      0x40\n        /* \"#utility.yul\":2652:2661   */\n      dup4\n        /* \"#utility.yul\":2643:2650   */\n      dup6\n        /* \"#utility.yul\":2639:2662   */\n      sub\n        /* \"#utility.yul\":2635:2667   */\n      slt\n        /* \"#utility.yul\":2632:2751   */\n      iszero\n      tag_487\n      jumpi\n        /* \"#utility.yul\":2670:2749   */\n      tag_488\n      tag_390\n      jump\t// in\n    tag_488:\n        /* \"#utility.yul\":2632:2751   */\n    tag_487:\n        /* \"#utility.yul\":2790:2791   */\n      0x00\n        /* \"#utility.yul\":2815:2868   */\n      tag_489\n        /* \"#utility.yul\":2860:2867   */\n      dup6\n        /* \"#utility.yul\":2851:2857   */\n      dup3\n        /* \"#utility.yul\":2840:2849   */\n      dup7\n        /* \"#utility.yul\":2836:2858   */\n      add\n        /* \"#utility.yul\":2815:2868   */\n      tag_395\n      jump\t// in\n    tag_489:\n        /* \"#utility.yul\":2805:2868   */\n      swap3\n      pop\n        /* \"#utility.yul\":2761:2878   */\n      pop\n        /* \"#utility.yul\":2917:2919   */\n      0x20\n        /* \"#utility.yul\":2943:2996   */\n      tag_490\n        /* \"#utility.yul\":2988:2995   */\n      dup6\n        /* \"#utility.yul\":2979:2985   */\n      dup3\n        /* \"#utility.yul\":2968:2977   */\n      dup7\n        /* \"#utility.yul\":2964:2986   */\n      add\n        /* \"#utility.yul\":2943:2996   */\n      tag_398\n      jump\t// in\n    tag_490:\n        /* \"#utility.yul\":2933:2996   */\n      swap2\n      pop\n        /* \"#utility.yul\":2888:3006   */\n      pop\n        /* \"#utility.yul\":2539:3013   */\n      swap3\n      pop\n      swap3\n      swap1\n      pop\n      jump\t// out\n        /* \"#utility.yul\":3019:3109   */\n    tag_399:\n        /* \"#utility.yul\":3053:3060   */\n      0x00\n        /* \"#utility.yul\":3096:3101   */\n      dup2\n        /* \"#utility.yul\":3089:3102   */\n      iszero\n        /* \"#utility.yul\":3082:3103   */\n      iszero\n        /* \"#utility.yul\":3071:3103   */\n      swap1\n      pop\n        /* \"#utility.yul\":3019:3109   */\n      swap2\n      swap1\n      pop\n      jump\t// out\n        /* \"#utility.yul\":3115:3224   */\n    tag_400:\n        /* \"#utility.yul\":3196:3217   */\n      tag_493\n        /* \"#utility.yul\":3211:3216   */\n      dup2\n        /* \"#utility.yul\":3196:3217   */\n      tag_399\n      jump\t// in\n    tag_493:\n        /* \"#utility.yul\":3191:3194   */\n      dup3\n        /* \"#utility.yul\":3184:3218   */\n      mstore\n        /* \"#utility.yul\":3115:3224   */\n      pop\n      pop\n      jump\t// out\n        /* \"#utility.yul\":3230:3440   */\n    tag_39:\n        /* \"#utility.yul\":3317:3321   */\n      0x00\n        /* \"#utility.yul\":3355:3357   */\n      0x20\n        /* \"#utility.yul\":3344:3353   */\n      dup3\n        /* \"#utility.yul\":3340:3358   */\n      add\n        /* \"#utility.yul\":3332:3358   */\n      swap1\n      pop\n        /* \"#utility.yul\":3368:3433   */\n      tag_495\n        /* \"#utility.yul\":3430:3431   */\n      0x00\n        /* \"#utility.yul\":3419:3428   */\n      dup4\n        /* \"#utility.yul\":3415:3432   */\n      add\n        /* \"#utility.yul\":3406:3412   */\n      dup5\n        /* \"#utility.yul\":3368:3433   */\n      tag_400\n      jump\t// in\n    tag_495:\n        /* \"#utility.yul\":3230:3440   */\n      swap3\n      swap2\n      pop\n      pop\n      jump\t// out\n        /* \"#utility.yul\":3446:3564   */\n    tag_401:\n        /* \"#utility.yul\":3533:3557   */\n      tag_497\n        /* \"#utility.yul\":3551:3556   */\n      dup2\n        /* \"#utility.yul\":3533:3557   */\n      tag_396\n      jump\t// in\n    tag_497:\n        /* \"#utility.yul\":3528:3531   */\n      dup3\n        /* \"#utility.yul\":3521:3558   */\n      mstore\n        /* \"#utility.yul\":3446:3564   */\n      pop\n      pop\n      jump\t// out\n        /* \"#utility.yul\":3570:3792   */\n    tag_43:\n        /* \"#utility.yul\":3663:3667   */\n      0x00\n        /* \"#utility.yul\":3701:3703   */\n      0x20\n        /* \"#utility.yul\":3690:3699   */\n      dup3\n        /* \"#utility.yul\":3686:3704   */\n      add\n        /* \"#utility.yul\":3678:3704   */\n      swap1\n      pop\n        /* \"#utility.yul\":3714:3785   */\n      tag_499\n        /* \"#utility.yul\":3782:3783   */\n      0x00\n        /* \"#utility.yul\":3771:3780   */\n      dup4\n        /* \"#utility.yul\":3767:3784   */\n      add\n        /* \"#utility.yul\":3758:3764   */\n      dup5\n        /* \"#utility.yul\":3714:3785   */\n      tag_401\n      jump\t// in\n    tag_499:\n        /* \"#utility.yul\":3570:3792   */\n      swap3\n      swap2\n      pop\n      pop\n      jump\t// out\n        /* \"#utility.yul\":3798:4417   */\n    tag_46:\n        /* \"#utility.yul\":3875:3881   */\n      0x00\n        /* \"#utility.yul\":3883:3889   */\n      dup1\n        /* \"#utility.yul\":3891:3897   */\n      0x00\n        /* \"#utility.yul\":3940:3942   */\n      0x60\n        /* \"#utility.yul\":3928:3937   */\n      dup5\n        /* \"#utility.yul\":3919:3926   */\n      dup7\n        /* \"#utility.yul\":3915:3938   */\n      sub\n        /* \"#utility.yul\":3911:3943   */\n      slt\n        /* \"#utility.yul\":3908:4027   */\n      iszero\n      tag_501\n      jumpi\n        /* \"#utility.yul\":3946:4025   */\n      tag_502\n      tag_390\n      jump\t// in\n    tag_502:\n        /* \"#utility.yul\":3908:4027   */\n    tag_501:\n        /* \"#utility.yul\":4066:4067   */\n      0x00\n        /* \"#utility.yul\":4091:4144   */\n      tag_503\n        /* \"#utility.yul\":4136:4143   */\n      dup7\n        /* \"#utility.yul\":4127:4133   */\n      dup3\n        /* \"#utility.yul\":4116:4125   */\n      dup8\n        /* \"#utility.yul\":4112:4134   */\n      add\n        /* \"#utility.yul\":4091:4144   */\n      tag_395\n      jump\t// in\n    tag_503:\n        /* \"#utility.yul\":4081:4144   */\n      swap4\n      pop\n        /* \"#utility.yul\":4037:4154   */\n      pop\n        /* \"#utility.yul\":4193:4195   */\n      0x20\n        /* \"#utility.yul\":4219:4272   */\n      tag_504\n        /* \"#utility.yul\":4264:4271   */\n      dup7\n        /* \"#utility.yul\":4255:4261   */\n      dup3\n        /* \"#utility.yul\":4244:4253   */\n      dup8\n        /* \"#utility.yul\":4240:4262   */\n      add\n        /* \"#utility.yul\":4219:4272   */\n      tag_395\n      jump\t// in\n    tag_504:\n        /* \"#utility.yul\":4209:4272   */\n      swap3\n      pop\n        /* \"#utility.yul\":4164:4282   */\n      pop\n        /* \"#utility.yul\":4321:4323   */\n      0x40\n        /* \"#utility.yul\":4347:4400   */\n      tag_505\n        /* \"#utility.yul\":4392:4399   */\n      dup7\n        /* \"#utility.yul\":4383:4389   */\n      dup3\n        /* \"#utility.yul\":4372:4381   */\n      dup8\n        /* \"#utility.yul\":4368:4390   */\n      add\n        /* \"#utility.yul\":4347:4400   */\n      tag_398\n      jump\t// in\n    tag_505:\n        /* \"#utility.yul\":4337:4400   */\n      swap2\n      pop\n        /* \"#utility.yul\":4292:4410   */\n      pop\n        /* \"#utility.yul\":3798:4417   */\n      swap3\n      pop\n      swap3\n      pop\n      swap3\n      jump\t// out\n        /* \"#utility.yul\":4423:4509   */\n    tag_402:\n        /* \"#utility.yul\":4458:4465   */\n      0x00\n        /* \"#utility.yul\":4498:4502   */\n      0xff\n        /* \"#utility.yul\":4491:4496   */\n      dup3\n        /* \"#utility.yul\":4487:4503   */\n      and\n        /* \"#utility.yul\":4476:4503   */\n      swap1\n      pop\n        /* \"#utility.yul\":4423:4509   */\n      swap2\n      swap1\n      pop\n      jump\t// out\n        /* \"#utility.yul\":4515:4627   */\n    tag_403:\n        /* \"#utility.yul\":4598:4620   */\n      tag_508\n        /* \"#utility.yul\":4614:4619   */\n      dup2\n        /* \"#utility.yul\":4598:4620   */\n      tag_402\n      jump\t// in\n    tag_508:\n        /* \"#utility.yul\":4593:4596   */\n      dup3\n        /* \"#utility.yul\":4586:4621   */\n      mstore\n        /* \"#utility.yul\":4515:4627   */\n      pop\n      pop\n      jump\t// out\n        /* \"#utility.yul\":4633:4847   */\n    tag_52:\n        /* \"#utility.yul\":4722:4726   */\n      0x00\n        /* \"#utility.yul\":4760:4762   */\n      0x20\n        /* \"#utility.yul\":4749:4758   */\n      dup3\n        /* \"#utility.yul\":4745:4763   */\n      add\n        /* \"#utility.yul\":4737:4763   */\n      swap1\n      pop\n        /* \"#utility.yul\":4773:4840   */\n      tag_510\n        /* \"#utility.yul\":4837:4838   */\n      0x00\n        /* \"#utility.yul\":4826:4835   */\n      dup4\n        /* \"#utility.yul\":4822:4839   */\n      add\n        /* \"#utility.yul\":4813:4819   */\n      dup5\n        /* \"#utility.yul\":4773:4840   */\n      tag_403\n      jump\t// in\n    tag_510:\n        /* \"#utility.yul\":4633:4847   */\n      swap3\n      swap2\n      pop\n      pop\n      jump\t// out\n        /* \"#utility.yul\":4853:4970   */\n    tag_404:\n        /* \"#utility.yul\":4962:4963   */\n      0x00\n        /* \"#utility.yul\":4959:4960   */\n      dup1\n        /* \"#utility.yul\":4952:4964   */\n      revert\n        /* \"#utility.yul\":4976:5093   */\n    tag_405:\n        /* \"#utility.yul\":5085:5086   */\n      0x00\n        /* \"#utility.yul\":5082:5083   */\n      dup1\n        /* \"#utility.yul\":5075:5087   */\n      revert\n        /* \"#utility.yul\":5099:5279   */\n    tag_406:\n        /* \"#utility.yul\":5147:5224   */\n      0x4e487b7100000000000000000000000000000000000000000000000000000000\n        /* \"#utility.yul\":5144:5145   */\n      0x00\n        /* \"#utility.yul\":5137:5225   */\n      mstore\n        /* \"#utility.yul\":5244:5248   */\n      0x41\n        /* \"#utility.yul\":5241:5242   */\n      0x04\n        /* \"#utility.yul\":5234:5249   */\n      mstore\n        /* \"#utility.yul\":5268:5272   */\n      0x24\n        /* \"#utility.yul\":5265:5266   */\n      0x00\n        /* \"#utility.yul\":5258:5273   */\n      revert\n        /* \"#utility.yul\":5285:5566   */\n    tag_407:\n        /* \"#utility.yul\":5368:5395   */\n      tag_515\n        /* \"#utility.yul\":5390:5394   */\n      dup3\n        /* \"#utility.yul\":5368:5395   */\n      tag_387\n      jump\t// in\n    tag_515:\n        /* \"#utility.yul\":5360:5366   */\n      dup2\n        /* \"#utility.yul\":5356:5396   */\n      add\n        /* \"#utility.yul\":5498:5504   */\n      dup2\n        /* \"#utility.yul\":5486:5496   */\n      dup2\n        /* \"#utility.yul\":5483:5505   */\n      lt\n        /* \"#utility.yul\":5462:5480   */\n      0xffffffffffffffff\n        /* \"#utility.yul\":5450:5460   */\n      dup3\n        /* \"#utility.yul\":5447:5481   */\n      gt\n        /* \"#utility.yul\":5444:5506   */\n      or\n        /* \"#utility.yul\":5441:5529   */\n      iszero\n      tag_516\n      jumpi\n        /* \"#utility.yul\":5509:5527   */\n      tag_517\n      tag_406\n      jump\t// in\n    tag_517:\n        /* \"#utility.yul\":5441:5529   */\n    tag_516:\n        /* \"#utility.yul\":5549:5559   */\n      dup1\n        /* \"#utility.yul\":5545:5547   */\n      0x40\n        /* \"#utility.yul\":5538:5560   */\n      mstore\n        /* \"#utility.yul\":5328:5566   */\n      pop\n        /* \"#utility.yul\":5285:5566   */\n      pop\n      pop\n      jump\t// out\n        /* \"#utility.yul\":5572:5701   */\n    tag_408:\n        /* \"#utility.yul\":5606:5612   */\n      0x00\n        /* \"#utility.yul\":5633:5653   */\n      tag_519\n      tag_389\n      jump\t// in\n    tag_519:\n        /* \"#utility.yul\":5623:5653   */\n      swap1\n      pop\n        /* \"#utility.yul\":5662:5695   */\n      tag_520\n        /* \"#utility.yul\":5690:5694   */\n      dup3\n        /* \"#utility.yul\":5682:5688   */\n      dup3\n        /* \"#utility.yul\":5662:5695   */\n      tag_407\n      jump\t// in\n    tag_520:\n        /* \"#utility.yul\":5572:5701   */\n      swap2\n      swap1\n      pop\n      jump\t// out\n        /* \"#utility.yul\":5707:6015   */\n    tag_409:\n        /* \"#utility.yul\":5769:5773   */\n      0x00\n        /* \"#utility.yul\":5859:5877   */\n      0xffffffffffffffff\n        /* \"#utility.yul\":5851:5857   */\n      dup3\n        /* \"#utility.yul\":5848:5878   */\n      gt\n        /* \"#utility.yul\":5845:5901   */\n      iszero\n      tag_522\n      jumpi\n        /* \"#utility.yul\":5881:5899   */\n      tag_523\n      tag_406\n      jump\t// in\n    tag_523:\n        /* \"#utility.yul\":5845:5901   */\n    tag_522:\n        /* \"#utility.yul\":5919:5948   */\n      tag_524\n        /* \"#utility.yul\":5941:5947   */\n      dup3\n        /* \"#utility.yul\":5919:5948   */\n      tag_387\n      jump\t// in\n    tag_524:\n        /* \"#utility.yul\":5911:5948   */\n      swap1\n      pop\n        /* \"#utility.yul\":6003:6007   */\n      0x20\n        /* \"#utility.yul\":5997:6001   */\n      dup2\n        /* \"#utility.yul\":5993:6008   */\n      add\n        /* \"#utility.yul\":5985:6008   */\n      swap1\n      pop\n        /* \"#utility.yul\":5707:6015   */\n      swap2\n      swap1\n      pop\n      jump\t// out\n        /* \"#utility.yul\":6021:6167   */\n    tag_410:\n        /* \"#utility.yul\":6118:6124   */\n      dup3\n        /* \"#utility.yul\":6113:6116   */\n      dup2\n        /* \"#utility.yul\":6108:6111   */\n      dup4\n        /* \"#utility.yul\":6095:6125   */\n      calldatacopy\n        /* \"#utility.yul\":6159:6160   */\n      0x00\n        /* \"#utility.yul\":6150:6156   */\n      dup4\n        /* \"#utility.yul\":6145:6148   */\n      dup4\n        /* \"#utility.yul\":6141:6157   */\n      add\n        /* \"#utility.yul\":6134:6161   */\n      mstore\n        /* \"#utility.yul\":6021:6167   */\n      pop\n      pop\n      pop\n      jump\t// out\n        /* \"#utility.yul\":6173:6598   */\n    tag_411:\n        /* \"#utility.yul\":6251:6256   */\n      0x00\n        /* \"#utility.yul\":6276:6342   */\n      tag_527\n        /* \"#utility.yul\":6292:6341   */\n      tag_528\n        /* \"#utility.yul\":6334:6340   */\n      dup5\n        /* \"#utility.yul\":6292:6341   */\n      tag_409\n      jump\t// in\n    tag_528:\n        /* \"#utility.yul\":6276:6342   */\n      tag_408\n      jump\t// in\n    tag_527:\n        /* \"#utility.yul\":6267:6342   */\n      swap1\n      pop\n        /* \"#utility.yul\":6365:6371   */\n      dup3\n        /* \"#utility.yul\":6358:6363   */\n      dup2\n        /* \"#utility.yul\":6351:6372   */\n      mstore\n        /* \"#utility.yul\":6403:6407   */\n      0x20\n        /* \"#utility.yul\":6396:6401   */\n      dup2\n        /* \"#utility.yul\":6392:6408   */\n      add\n        /* \"#utility.yul\":6441:6444   */\n      dup5\n        /* \"#utility.yul\":6432:6438   */\n      dup5\n        /* \"#utility.yul\":6427:6430   */\n      dup5\n        /* \"#utility.yul\":6423:6439   */\n      add\n        /* \"#utility.yul\":6420:6445   */\n      gt\n        /* \"#utility.yul\":6417:6529   */\n      iszero\n      tag_529\n      jumpi\n        /* \"#utility.yul\":6448:6527   */\n      tag_530\n      tag_405\n      jump\t// in\n    tag_530:\n        /* \"#utility.yul\":6417:6529   */\n    tag_529:\n        /* \"#utility.yul\":6538:6592   */\n      tag_531\n        /* \"#utility.yul\":6585:6591   */\n      dup5\n        /* \"#utility.yul\":6580:6583   */\n      dup3\n        /* \"#utility.yul\":6575:6578   */\n      dup6\n        /* \"#utility.yul\":6538:6592   */\n      tag_410\n      jump\t// in\n    tag_531:\n        /* \"#utility.yul\":6257:6598   */\n      pop\n        /* \"#utility.yul\":6173:6598   */\n      swap4\n      swap3\n      pop\n      pop\n      pop\n      jump\t// out\n        /* \"#utility.yul\":6618:6958   */\n    tag_412:\n        /* \"#utility.yul\":6674:6679   */\n      0x00\n        /* \"#utility.yul\":6723:6726   */\n      dup3\n        /* \"#utility.yul\":6716:6720   */\n      0x1f\n        /* \"#utility.yul\":6708:6714   */\n      dup4\n        /* \"#utility.yul\":6704:6721   */\n      add\n        /* \"#utility.yul\":6700:6727   */\n      slt\n        /* \"#utility.yul\":6690:6812   */\n      tag_533\n      jumpi\n        /* \"#utility.yul\":6731:6810   */\n      tag_534\n      tag_404\n      jump\t// in\n    tag_534:\n        /* \"#utility.yul\":6690:6812   */\n    tag_533:\n        /* \"#utility.yul\":6848:6854   */\n      dup2\n        /* \"#utility.yul\":6835:6855   */\n      calldataload\n        /* \"#utility.yul\":6873:6952   */\n      tag_535\n        /* \"#utility.yul\":6948:6951   */\n      dup5\n        /* \"#utility.yul\":6940:6946   */\n      dup3\n        /* \"#utility.yul\":6933:6937   */\n      0x20\n        /* \"#utility.yul\":6925:6931   */\n      dup7\n        /* \"#utility.yul\":6921:6938   */\n      add\n        /* \"#utility.yul\":6873:6952   */\n      tag_411\n      jump\t// in\n    tag_535:\n        /* \"#utility.yul\":6864:6952   */\n      swap2\n      pop\n        /* \"#utility.yul\":6680:6958   */\n      pop\n        /* \"#utility.yul\":6618:6958   */\n      swap3\n      swap2\n      pop\n      pop\n      jump\t// out\n        /* \"#utility.yul\":6964:7618   */\n    tag_55:\n        /* \"#utility.yul\":7042:7048   */\n      0x00\n        /* \"#utility.yul\":7050:7056   */\n      dup1\n        /* \"#utility.yul\":7099:7101   */\n      0x40\n        /* \"#utility.yul\":7087:7096   */\n      dup4\n        /* \"#utility.yul\":7078:7085   */\n      dup6\n        /* \"#utility.yul\":7074:7097   */\n      sub\n        /* \"#utility.yul\":7070:7102   */\n      slt\n        /* \"#utility.yul\":7067:7186   */\n      iszero\n      tag_537\n      jumpi\n        /* \"#utility.yul\":7105:7184   */\n      tag_538\n      tag_390\n      jump\t// in\n    tag_538:\n        /* \"#utility.yul\":7067:7186   */\n    tag_537:\n        /* \"#utility.yul\":7253:7254   */\n      0x00\n        /* \"#utility.yul\":7242:7251   */\n      dup4\n        /* \"#utility.yul\":7238:7255   */\n      add\n        /* \"#utility.yul\":7225:7256   */\n      calldataload\n        /* \"#utility.yul\":7283:7301   */\n      0xffffffffffffffff\n        /* \"#utility.yul\":7275:7281   */\n      dup2\n        /* \"#utility.yul\":7272:7302   */\n      gt\n        /* \"#utility.yul\":7269:7386   */\n      iszero\n      tag_539\n      jumpi\n        /* \"#utility.yul\":7305:7384   */\n      tag_540\n      tag_391\n      jump\t// in\n    tag_540:\n        /* \"#utility.yul\":7269:7386   */\n    tag_539:\n        /* \"#utility.yul\":7410:7473   */\n      tag_541\n        /* \"#utility.yul\":7465:7472   */\n      dup6\n        /* \"#utility.yul\":7456:7462   */\n      dup3\n        /* \"#utility.yul\":7445:7454   */\n      dup7\n        /* \"#utility.yul\":7441:7463   */\n      add\n        /* \"#utility.yul\":7410:7473   */\n      tag_412\n      jump\t// in\n    tag_541:\n        /* \"#utility.yul\":7400:7473   */\n      swap3\n      pop\n        /* \"#utility.yul\":7196:7483   */\n      pop\n        /* \"#utility.yul\":7522:7524   */\n      0x20\n        /* \"#utility.yul\":7548:7601   */\n      tag_542\n        /* \"#utility.yul\":7593:7600   */\n      dup6\n        /* \"#utility.yul\":7584:7590   */\n      dup3\n        /* \"#utility.yul\":7573:7582   */\n      dup7\n        /* \"#utility.yul\":7569:7591   */\n      add\n        /* \"#utility.yul\":7548:7601   */\n      tag_395\n      jump\t// in\n    tag_542:\n        /* \"#utility.yul\":7538:7601   */\n      swap2\n      pop\n        /* \"#utility.yul\":7493:7611   */\n      pop\n        /* \"#utility.yul\":6964:7618   */\n      swap3\n      pop\n      swap3\n      swap1\n      pop\n      jump\t// out\n        /* \"#utility.yul\":7624:7953   */\n    tag_60:\n        /* \"#utility.yul\":7683:7689   */\n      0x00\n        /* \"#utility.yul\":7732:7734   */\n      0x20\n        /* \"#utility.yul\":7720:7729   */\n      dup3\n        /* \"#utility.yul\":7711:7718   */\n      dup5\n        /* \"#utility.yul\":7707:7730   */\n      sub\n        /* \"#utility.yul\":7703:7735   */\n      slt\n        /* \"#utility.yul\":7700:7819   */\n      iszero\n      tag_544\n      jumpi\n        /* \"#utility.yul\":7738:7817   */\n      tag_545\n      tag_390\n      jump\t// in\n    tag_545:\n        /* \"#utility.yul\":7700:7819   */\n    tag_544:\n        /* \"#utility.yul\":7858:7859   */\n      0x00\n        /* \"#utility.yul\":7883:7936   */\n      tag_546\n        /* \"#utility.yul\":7928:7935   */\n      dup5\n        /* \"#utility.yul\":7919:7925   */\n      dup3\n        /* \"#utility.yul\":7908:7917   */\n      dup6\n        /* \"#utility.yul\":7904:7926   */\n      add\n        /* \"#utility.yul\":7883:7936   */\n      tag_398\n      jump\t// in\n    tag_546:\n        /* \"#utility.yul\":7873:7936   */\n      swap2\n      pop\n        /* \"#utility.yul\":7829:7946   */\n      pop\n        /* \"#utility.yul\":7624:7953   */\n      swap3\n      swap2\n      pop\n      pop\n      jump\t// out\n        /* \"#utility.yul\":7959:8288   */\n    tag_64:\n        /* \"#utility.yul\":8018:8024   */\n      0x00\n        /* \"#utility.yul\":8067:8069   */\n      0x20\n        /* \"#utility.yul\":8055:8064   */\n      dup3\n        /* \"#utility.yul\":8046:8053   */\n      dup5\n        /* \"#utility.yul\":8042:8065   */\n      sub\n        /* \"#utility.yul\":8038:8070   */\n      slt\n        /* \"#utility.yul\":8035:8154   */\n      iszero\n      tag_548\n      jumpi\n        /* \"#utility.yul\":8073:8152   */\n      tag_549\n      tag_390\n      jump\t// in\n    tag_549:\n        /* \"#utility.yul\":8035:8154   */\n    tag_548:\n        /* \"#utility.yul\":8193:8194   */\n      0x00\n        /* \"#utility.yul\":8218:8271   */\n      tag_550\n        /* \"#utility.yul\":8263:8270   */\n      dup5\n        /* \"#utility.yul\":8254:8260   */\n      dup3\n        /* \"#utility.yul\":8243:8252   */\n      dup6\n        /* \"#utility.yul\":8239:8261   */\n      add\n        /* \"#utility.yul\":8218:8271   */\n      tag_395\n      jump\t// in\n    tag_550:\n        /* \"#utility.yul\":8208:8271   */\n      swap2\n      pop\n        /* \"#utility.yul\":8164:8281   */\n      pop\n        /* \"#utility.yul\":7959:8288   */\n      swap3\n      swap2\n      pop\n      pop\n      jump\t// out\n        /* \"#utility.yul\":8294:8412   */\n    tag_413:\n        /* \"#utility.yul\":8381:8405   */\n      tag_552\n        /* \"#utility.yul\":8399:8404   */\n      dup2\n        /* \"#utility.yul\":8381:8405   */\n      tag_393\n      jump\t// in\n    tag_552:\n        /* \"#utility.yul\":8376:8379   */\n      dup3\n        /* \"#utility.yul\":8369:8406   */\n      mstore\n        /* \"#utility.yul\":8294:8412   */\n      pop\n      pop\n      jump\t// out\n        /* \"#utility.yul\":8418:8640   */\n    tag_70:\n        /* \"#utility.yul\":8511:8515   */\n      0x00\n        /* \"#utility.yul\":8549:8551   */\n      0x20\n        /* \"#utility.yul\":8538:8547   */\n      dup3\n        /* \"#utility.yul\":8534:8552   */\n      add\n        /* \"#utility.yul\":8526:8552   */\n      swap1\n      pop\n        /* \"#utility.yul\":8562:8633   */\n      tag_554\n        /* \"#utility.yul\":8630:8631   */\n      0x00\n        /* \"#utility.yul\":8619:8628   */\n      dup4\n        /* \"#utility.yul\":8615:8632   */\n      add\n        /* \"#utility.yul\":8606:8612   */\n      dup5\n        /* \"#utility.yul\":8562:8633   */\n      tag_413\n      jump\t// in\n    tag_554:\n        /* \"#utility.yul\":8418:8640   */\n      swap3\n      swap2\n      pop\n      pop\n      jump\t// out\n        /* \"#utility.yul\":8646:9155   */\n    tag_106:\n        /* \"#utility.yul\":8715:8721   */\n      0x00\n        /* \"#utility.yul\":8764:8766   */\n      0x20\n        /* \"#utility.yul\":8752:8761   */\n      dup3\n        /* \"#utility.yul\":8743:8750   */\n      dup5\n        /* \"#utility.yul\":8739:8762   */\n      sub\n        /* \"#utility.yul\":8735:8767   */\n      slt\n        /* \"#utility.yul\":8732:8851   */\n      iszero\n      tag_556\n      jumpi\n        /* \"#utility.yul\":8770:8849   */\n      tag_557\n      tag_390\n      jump\t// in\n    tag_557:\n        /* \"#utility.yul\":8732:8851   */\n    tag_556:\n        /* \"#utility.yul\":8918:8919   */\n      0x00\n        /* \"#utility.yul\":8907:8916   */\n      dup3\n        /* \"#utility.yul\":8903:8920   */\n      add\n        /* \"#utility.yul\":8890:8921   */\n      calldataload\n        /* \"#utility.yul\":8948:8966   */\n      0xffffffffffffffff\n        /* \"#utility.yul\":8940:8946   */\n      dup2\n        /* \"#utility.yul\":8937:8967   */\n      gt\n        /* \"#utility.yul\":8934:9051   */\n      iszero\n      tag_558\n      jumpi\n        /* \"#utility.yul\":8970:9049   */\n      tag_559\n      tag_391\n      jump\t// in\n    tag_559:\n        /* \"#utility.yul\":8934:9051   */\n    tag_558:\n        /* \"#utility.yul\":9075:9138   */\n      tag_560\n        /* \"#utility.yul\":9130:9137   */\n      dup5\n        /* \"#utility.yul\":9121:9127   */\n      dup3\n        /* \"#utility.yul\":9110:9119   */\n      dup6\n        /* \"#utility.yul\":9106:9128   */\n      add\n        /* \"#utility.yul\":9075:9138   */\n      tag_412\n      jump\t// in\n    tag_560:\n        /* \"#utility.yul\":9065:9138   */\n      swap2\n      pop\n        /* \"#utility.yul\":8861:9148   */\n      pop\n        /* \"#utility.yul\":8646:9155   */\n      swap3\n      swap2\n      pop\n      pop\n      jump\t// out\n        /* \"#utility.yul\":9161:9635   */\n    tag_111:\n        /* \"#utility.yul\":9229:9235   */\n      0x00\n        /* \"#utility.yul\":9237:9243   */\n      dup1\n        /* \"#utility.yul\":9286:9288   */\n      0x40\n        /* \"#utility.yul\":9274:9283   */\n      dup4\n        /* \"#utility.yul\":9265:9272   */\n      dup6\n        /* \"#utility.yul\":9261:9284   */\n      sub\n        /* \"#utility.yul\":9257:9289   */\n      slt\n        /* \"#utility.yul\":9254:9373   */\n      iszero\n      tag_562\n      jumpi\n        /* \"#utility.yul\":9292:9371   */\n      tag_563\n      tag_390\n      jump\t// in\n    tag_563:\n        /* \"#utility.yul\":9254:9373   */\n    tag_562:\n        /* \"#utility.yul\":9412:9413   */\n      0x00\n        /* \"#utility.yul\":9437:9490   */\n      tag_564\n        /* \"#utility.yul\":9482:9489   */\n      dup6\n        /* \"#utility.yul\":9473:9479   */\n      dup3\n        /* \"#utility.yul\":9462:9471   */\n      dup7\n        /* \"#utility.yul\":9458:9480   */\n      add\n        /* \"#utility.yul\":9437:9490   */\n      tag_395\n      jump\t// in\n    tag_564:\n        /* \"#utility.yul\":9427:9490   */\n      swap3\n      pop\n        /* \"#utility.yul\":9383:9500   */\n      pop\n        /* \"#utility.yul\":9539:9541   */\n      0x20\n        /* \"#utility.yul\":9565:9618   */\n      tag_565\n        /* \"#utility.yul\":9610:9617   */\n      dup6\n        /* \"#utility.yul\":9601:9607   */\n      dup3\n        /* \"#utility.yul\":9590:9599   */\n      dup7\n        /* \"#utility.yul\":9586:9608   */\n      add\n        /* \"#utility.yul\":9565:9618   */\n      tag_395\n      jump\t// in\n    tag_565:\n        /* \"#utility.yul\":9555:9618   */\n      swap2\n      pop\n        /* \"#utility.yul\":9510:9628   */\n      pop\n        /* \"#utility.yul\":9161:9635   */\n      swap3\n      pop\n      swap3\n      swap1\n      pop\n      jump\t// out\n        /* \"#utility.yul\":9641:9757   */\n    tag_414:\n        /* \"#utility.yul\":9711:9732   */\n      tag_567\n        /* \"#utility.yul\":9726:9731   */\n      dup2\n        /* \"#utility.yul\":9711:9732   */\n      tag_399\n      jump\t// in\n    tag_567:\n        /* \"#utility.yul\":9704:9709   */\n      dup2\n        /* \"#utility.yul\":9701:9733   */\n      eq\n        /* \"#utility.yul\":9691:9751   */\n      tag_568\n      jumpi\n        /* \"#utility.yul\":9747:9748   */\n      0x00\n        /* \"#utility.yul\":9744:9745   */\n      dup1\n        /* \"#utility.yul\":9737:9749   */\n      revert\n        /* \"#utility.yul\":9691:9751   */\n    tag_568:\n        /* \"#utility.yul\":9641:9757   */\n      pop\n      jump\t// out\n        /* \"#utility.yul\":9763:9896   */\n    tag_415:\n        /* \"#utility.yul\":9806:9811   */\n      0x00\n        /* \"#utility.yul\":9844:9850   */\n      dup2\n        /* \"#utility.yul\":9831:9851   */\n      calldataload\n        /* \"#utility.yul\":9822:9851   */\n      swap1\n      pop\n        /* \"#utility.yul\":9860:9890   */\n      tag_570\n        /* \"#utility.yul\":9884:9889   */\n      dup2\n        /* \"#utility.yul\":9860:9890   */\n      tag_414\n      jump\t// in\n    tag_570:\n        /* \"#utility.yul\":9763:9896   */\n      swap3\n      swap2\n      pop\n      pop\n      jump\t// out\n        /* \"#utility.yul\":9902:10370   */\n    tag_116:\n        /* \"#utility.yul\":9967:9973   */\n      0x00\n        /* \"#utility.yul\":9975:9981   */\n      dup1\n        /* \"#utility.yul\":10024:10026   */\n      0x40\n        /* \"#utility.yul\":10012:10021   */\n      dup4\n        /* \"#utility.yul\":10003:10010   */\n      dup6\n        /* \"#utility.yul\":9999:10022   */\n      sub\n        /* \"#utility.yul\":9995:10027   */\n      slt\n        /* \"#utility.yul\":9992:10111   */\n      iszero\n      tag_572\n      jumpi\n        /* \"#utility.yul\":10030:10109   */\n      tag_573\n      tag_390\n      jump\t// in\n    tag_573:\n        /* \"#utility.yul\":9992:10111   */\n    tag_572:\n        /* \"#utility.yul\":10150:10151   */\n      0x00\n        /* \"#utility.yul\":10175:10228   */\n      tag_574\n        /* \"#utility.yul\":10220:10227   */\n      dup6\n        /* \"#utility.yul\":10211:10217   */\n      dup3\n        /* \"#utility.yul\":10200:10209   */\n      dup7\n        /* \"#utility.yul\":10196:10218   */\n      add\n        /* \"#utility.yul\":10175:10228   */\n      tag_395\n      jump\t// in\n    tag_574:\n        /* \"#utility.yul\":10165:10228   */\n      swap3\n      pop\n        /* \"#utility.yul\":10121:10238   */\n      pop\n        /* \"#utility.yul\":10277:10279   */\n      0x20\n        /* \"#utility.yul\":10303:10353   */\n      tag_575\n        /* \"#utility.yul\":10345:10352   */\n      dup6\n        /* \"#utility.yul\":10336:10342   */\n      dup3\n        /* \"#utility.yul\":10325:10334   */\n      dup7\n        /* \"#utility.yul\":10321:10343   */\n      add\n        /* \"#utility.yul\":10303:10353   */\n      tag_415\n      jump\t// in\n    tag_575:\n        /* \"#utility.yul\":10293:10353   */\n      swap2\n      pop\n        /* \"#utility.yul\":10248:10363   */\n      pop\n        /* \"#utility.yul\":9902:10370   */\n      swap3\n      pop\n      swap3\n      swap1\n      pop\n      jump\t// out\n        /* \"#utility.yul\":10376:10556   */\n    tag_416:\n        /* \"#utility.yul\":10424:10501   */\n      0x4e487b7100000000000000000000000000000000000000000000000000000000\n        /* \"#utility.yul\":10421:10422   */\n      0x00\n        /* \"#utility.yul\":10414:10502   */\n      mstore\n        /* \"#utility.yul\":10521:10525   */\n      0x22\n        /* \"#utility.yul\":10518:10519   */\n      0x04\n        /* \"#utility.yul\":10511:10526   */\n      mstore\n        /* \"#utility.yul\":10545:10549   */\n      0x24\n        /* \"#utility.yul\":10542:10543   */\n      0x00\n        /* \"#utility.yul\":10535:10550   */\n      revert\n        /* \"#utility.yul\":10562:10882   */\n    tag_125:\n        /* \"#utility.yul\":10606:10612   */\n      0x00\n        /* \"#utility.yul\":10643:10644   */\n      0x02\n        /* \"#utility.yul\":10637:10641   */\n      dup3\n        /* \"#utility.yul\":10633:10645   */\n      div\n        /* \"#utility.yul\":10623:10645   */\n      swap1\n      pop\n        /* \"#utility.yul\":10690:10691   */\n      0x01\n        /* \"#utility.yul\":10684:10688   */\n      dup3\n        /* \"#utility.yul\":10680:10692   */\n      and\n        /* \"#utility.yul\":10711:10729   */\n      dup1\n        /* \"#utility.yul\":10701:10782   */\n      tag_578\n      jumpi\n        /* \"#utility.yul\":10767:10771   */\n      0x7f\n        /* \"#utility.yul\":10759:10765   */\n      dup3\n        /* \"#utility.yul\":10755:10772   */\n      and\n        /* \"#utility.yul\":10745:10772   */\n      swap2\n      pop\n        /* \"#utility.yul\":10701:10782   */\n    tag_578:\n        /* \"#utility.yul\":10829:10831   */\n      0x20\n        /* \"#utility.yul\":10821:10827   */\n      dup3\n        /* \"#utility.yul\":10818:10832   */\n      lt\n        /* \"#utility.yul\":10798:10816   */\n      dup2\n        /* \"#utility.yul\":10795:10833   */\n      sub\n        /* \"#utility.yul\":10792:10876   */\n      tag_579\n      jumpi\n        /* \"#utility.yul\":10848:10866   */\n      tag_580\n      tag_416\n      jump\t// in\n    tag_580:\n        /* \"#utility.yul\":10792:10876   */\n    tag_579:\n        /* \"#utility.yul\":10613:10882   */\n      pop\n        /* \"#utility.yul\":10562:10882   */\n      swap2\n      swap1\n      pop\n      jump\t// out\n        /* \"#utility.yul\":10888:11057   */\n    tag_417:\n        /* \"#utility.yul\":11028:11049   */\n      0x496e76616c6964204e474f206164647265737300000000000000000000000000\n        /* \"#utility.yul\":11024:11025   */\n      0x00\n        /* \"#utility.yul\":11016:11022   */\n      dup3\n        /* \"#utility.yul\":11012:11026   */\n      add\n        /* \"#utility.yul\":11005:11050   */\n      mstore\n        /* \"#utility.yul\":10888:11057   */\n      pop\n      jump\t// out\n        /* \"#utility.yul\":11063:11429   */\n    tag_418:\n        /* \"#utility.yul\":11205:11208   */\n      0x00\n        /* \"#utility.yul\":11226:11293   */\n      tag_583\n        /* \"#utility.yul\":11290:11292   */\n      0x13\n        /* \"#utility.yul\":11285:11288   */\n      dup4\n        /* \"#utility.yul\":11226:11293   */\n      tag_385\n      jump\t// in\n    tag_583:\n        /* \"#utility.yul\":11219:11293   */\n      swap2\n      pop\n        /* \"#utility.yul\":11302:11395   */\n      tag_584\n        /* \"#utility.yul\":11391:11394   */\n      dup3\n        /* \"#utility.yul\":11302:11395   */\n      tag_417\n      jump\t// in\n    tag_584:\n        /* \"#utility.yul\":11420:11422   */\n      0x20\n        /* \"#utility.yul\":11415:11418   */\n      dup3\n        /* \"#utility.yul\":11411:11423   */\n      add\n        /* \"#utility.yul\":11404:11423   */\n      swap1\n      pop\n        /* \"#utility.yul\":11063:11429   */\n      swap2\n      swap1\n      pop\n      jump\t// out\n        /* \"#utility.yul\":11435:11854   */\n    tag_149:\n        /* \"#utility.yul\":11601:11605   */\n      0x00\n        /* \"#utility.yul\":11639:11641   */\n      0x20\n        /* \"#utility.yul\":11628:11637   */\n      dup3\n        /* \"#utility.yul\":11624:11642   */\n      add\n        /* \"#utility.yul\":11616:11642   */\n      swap1\n      pop\n        /* \"#utility.yul\":11688:11697   */\n      dup2\n        /* \"#utility.yul\":11682:11686   */\n      dup2\n        /* \"#utility.yul\":11678:11698   */\n      sub\n        /* \"#utility.yul\":11674:11675   */\n      0x00\n        /* \"#utility.yul\":11663:11672   */\n      dup4\n        /* \"#utility.yul\":11659:11676   */\n      add\n        /* \"#utility.yul\":11652:11699   */\n      mstore\n        /* \"#utility.yul\":11716:11847   */\n      tag_586\n        /* \"#utility.yul\":11842:11846   */\n      dup2\n        /* \"#utility.yul\":11716:11847   */\n      tag_418\n      jump\t// in\n    tag_586:\n        /* \"#utility.yul\":11708:11847   */\n      swap1\n      pop\n        /* \"#utility.yul\":11435:11854   */\n      swap2\n      swap1\n      pop\n      jump\t// out\n        /* \"#utility.yul\":11860:12040   */\n    tag_155:\n        /* \"#utility.yul\":11908:11985   */\n      0x4e487b7100000000000000000000000000000000000000000000000000000000\n        /* \"#utility.yul\":11905:11906   */\n      0x00\n        /* \"#utility.yul\":11898:11986   */\n      mstore\n        /* \"#utility.yul\":12005:12009   */\n      0x32\n        /* \"#utility.yul\":12002:12003   */\n      0x04\n        /* \"#utility.yul\":11995:12010   */\n      mstore\n        /* \"#utility.yul\":12029:12033   */\n      0x24\n        /* \"#utility.yul\":12026:12027   */\n      0x00\n        /* \"#utility.yul\":12019:12034   */\n      revert\n        /* \"#utility.yul\":12046:12193   */\n    tag_419:\n        /* \"#utility.yul\":12147:12158   */\n      0x00\n        /* \"#utility.yul\":12184:12187   */\n      dup2\n        /* \"#utility.yul\":12169:12187   */\n      swap1\n      pop\n        /* \"#utility.yul\":12046:12193   */\n      swap3\n      swap2\n      pop\n      pop\n      jump\t// out\n        /* \"#utility.yul\":12199:12343   */\n    tag_420:\n        /* \"#utility.yul\":12251:12255   */\n      0x00\n        /* \"#utility.yul\":12274:12277   */\n      dup2\n        /* \"#utility.yul\":12266:12277   */\n      swap1\n      pop\n        /* \"#utility.yul\":12297:12300   */\n      dup2\n        /* \"#utility.yul\":12294:12295   */\n      0x00\n        /* \"#utility.yul\":12287:12301   */\n      mstore\n        /* \"#utility.yul\":12331:12335   */\n      0x20\n        /* \"#utility.yul\":12328:12329   */\n      0x00\n        /* \"#utility.yul\":12318:12336   */\n      keccak256\n        /* \"#utility.yul\":12310:12336   */\n      swap1\n      pop\n        /* \"#utility.yul\":12199:12343   */\n      swap2\n      swap1\n      pop\n      jump\t// out\n        /* \"#utility.yul\":12371:13249   */\n    tag_421:\n        /* \"#utility.yul\":12476:12479   */\n      0x00\n        /* \"#utility.yul\":12513:12518   */\n      dup2\n        /* \"#utility.yul\":12507:12519   */\n      sload\n        /* \"#utility.yul\":12542:12578   */\n      tag_591\n        /* \"#utility.yul\":12568:12577   */\n      dup2\n        /* \"#utility.yul\":12542:12578   */\n      tag_125\n      jump\t// in\n    tag_591:\n        /* \"#utility.yul\":12594:12682   */\n      tag_592\n        /* \"#utility.yul\":12675:12681   */\n      dup2\n        /* \"#utility.yul\":12670:12673   */\n      dup7\n        /* \"#utility.yul\":12594:12682   */\n      tag_419\n      jump\t// in\n    tag_592:\n        /* \"#utility.yul\":12587:12682   */\n      swap5\n      pop\n        /* \"#utility.yul\":12713:12714   */\n      0x01\n        /* \"#utility.yul\":12702:12711   */\n      dup3\n        /* \"#utility.yul\":12698:12715   */\n      and\n        /* \"#utility.yul\":12729:12730   */\n      0x00\n        /* \"#utility.yul\":12724:12890   */\n      dup2\n      eq\n      tag_594\n      jumpi\n        /* \"#utility.yul\":12904:12905   */\n      0x01\n        /* \"#utility.yul\":12899:13243   */\n      dup2\n      eq\n      tag_595\n      jumpi\n        /* \"#utility.yul\":12691:13243   */\n      jump(tag_593)\n        /* \"#utility.yul\":12724:12890   */\n    tag_594:\n        /* \"#utility.yul\":12808:12812   */\n      0xff\n        /* \"#utility.yul\":12804:12813   */\n      not\n        /* \"#utility.yul\":12793:12802   */\n      dup4\n        /* \"#utility.yul\":12789:12814   */\n      and\n        /* \"#utility.yul\":12784:12787   */\n      dup7\n        /* \"#utility.yul\":12777:12815   */\n      mstore\n        /* \"#utility.yul\":12870:12876   */\n      dup2\n        /* \"#utility.yul\":12863:12877   */\n      iszero\n        /* \"#utility.yul\":12856:12878   */\n      iszero\n        /* \"#utility.yul\":12848:12854   */\n      dup3\n        /* \"#utility.yul\":12844:12879   */\n      mul\n        /* \"#utility.yul\":12839:12842   */\n      dup7\n        /* \"#utility.yul\":12835:12880   */\n      add\n        /* \"#utility.yul\":12828:12880   */\n      swap4\n      pop\n        /* \"#utility.yul\":12724:12890   */\n      jump(tag_593)\n        /* \"#utility.yul\":12899:13243   */\n    tag_595:\n        /* \"#utility.yul\":12966:13007   */\n      tag_596\n        /* \"#utility.yul\":13001:13006   */\n      dup6\n        /* \"#utility.yul\":12966:13007   */\n      tag_420\n      jump\t// in\n    tag_596:\n        /* \"#utility.yul\":13029:13030   */\n      0x00\n        /* \"#utility.yul\":13043:13197   */\n    tag_597:\n        /* \"#utility.yul\":13057:13063   */\n      dup4\n        /* \"#utility.yul\":13054:13055   */\n      dup2\n        /* \"#utility.yul\":13051:13064   */\n      lt\n        /* \"#utility.yul\":13043:13197   */\n      iszero\n      tag_599\n      jumpi\n        /* \"#utility.yul\":13131:13138   */\n      dup2\n        /* \"#utility.yul\":13125:13139   */\n      sload\n        /* \"#utility.yul\":13121:13122   */\n      dup2\n        /* \"#utility.yul\":13116:13119   */\n      dup10\n        /* \"#utility.yul\":13112:13123   */\n      add\n        /* \"#utility.yul\":13105:13140   */\n      mstore\n        /* \"#utility.yul\":13181:13182   */\n      0x01\n        /* \"#utility.yul\":13172:13179   */\n      dup3\n        /* \"#utility.yul\":13168:13183   */\n      add\n        /* \"#utility.yul\":13157:13183   */\n      swap2\n      pop\n        /* \"#utility.yul\":13079:13083   */\n      0x20\n        /* \"#utility.yul\":13076:13077   */\n      dup2\n        /* \"#utility.yul\":13072:13084   */\n      add\n        /* \"#utility.yul\":13067:13084   */\n      swap1\n      pop\n        /* \"#utility.yul\":13043:13197   */\n      jump(tag_597)\n    tag_599:\n        /* \"#utility.yul\":13226:13232   */\n      dup4\n        /* \"#utility.yul\":13221:13224   */\n      dup9\n        /* \"#utility.yul\":13217:13233   */\n      add\n        /* \"#utility.yul\":13210:13233   */\n      swap6\n      pop\n        /* \"#utility.yul\":12906:13243   */\n      pop\n      pop\n        /* \"#utility.yul\":12691:13243   */\n    tag_593:\n      pop\n        /* \"#utility.yul\":12480:13249   */\n      pop\n      pop\n        /* \"#utility.yul\":12371:13249   */\n      swap3\n      swap2\n      pop\n      pop\n      jump\t// out\n        /* \"#utility.yul\":13255:13528   */\n    tag_158:\n        /* \"#utility.yul\":13386:13389   */\n      0x00\n        /* \"#utility.yul\":13408:13502   */\n      tag_601\n        /* \"#utility.yul\":13498:13501   */\n      dup3\n        /* \"#utility.yul\":13489:13495   */\n      dup5\n        /* \"#utility.yul\":13408:13502   */\n      tag_421\n      jump\t// in\n    tag_601:\n        /* \"#utility.yul\":13401:13502   */\n      swap2\n      pop\n        /* \"#utility.yul\":13519:13522   */\n      dup2\n        /* \"#utility.yul\":13512:13522   */\n      swap1\n      pop\n        /* \"#utility.yul\":13255:13528   */\n      swap3\n      swap2\n      pop\n      pop\n      jump\t// out\n        /* \"#utility.yul\":13534:13675   */\n    tag_422:\n        /* \"#utility.yul\":13583:13587   */\n      0x00\n        /* \"#utility.yul\":13606:13609   */\n      dup2\n        /* \"#utility.yul\":13598:13609   */\n      swap1\n      pop\n        /* \"#utility.yul\":13629:13632   */\n      dup2\n        /* \"#utility.yul\":13626:13627   */\n      0x00\n        /* \"#utility.yul\":13619:13633   */\n      mstore\n        /* \"#utility.yul\":13663:13667   */\n      0x20\n        /* \"#utility.yul\":13660:13661   */\n      0x00\n        /* \"#utility.yul\":13650:13668   */\n      keccak256\n        /* \"#utility.yul\":13642:13668   */\n      swap1\n      pop\n        /* \"#utility.yul\":13534:13675   */\n      swap2\n      swap1\n      pop\n      jump\t// out\n        /* \"#utility.yul\":13681:13774   */\n    tag_423:\n        /* \"#utility.yul\":13718:13724   */\n      0x00\n        /* \"#utility.yul\":13765:13767   */\n      0x20\n        /* \"#utility.yul\":13760:13762   */\n      0x1f\n        /* \"#utility.yul\":13753:13758   */\n      dup4\n        /* \"#utility.yul\":13749:13763   */\n      add\n        /* \"#utility.yul\":13745:13768   */\n      div\n        /* \"#utility.yul\":13735:13768   */\n      swap1\n      pop\n        /* \"#utility.yul\":13681:13774   */\n      swap2\n      swap1\n      pop\n      jump\t// out\n        /* \"#utility.yul\":13780:13887   */\n    tag_424:\n        /* \"#utility.yul\":13824:13832   */\n      0x00\n        /* \"#utility.yul\":13874:13879   */\n      dup3\n        /* \"#utility.yul\":13868:13872   */\n      dup3\n        /* \"#utility.yul\":13864:13880   */\n      shl\n        /* \"#utility.yul\":13843:13880   */\n      swap1\n      pop\n        /* \"#utility.yul\":13780:13887   */\n      swap3\n      swap2\n      pop\n      pop\n      jump\t// out\n        /* \"#utility.yul\":13893:14286   */\n    tag_425:\n        /* \"#utility.yul\":13962:13968   */\n      0x00\n        /* \"#utility.yul\":14012:14013   */\n      0x08\n        /* \"#utility.yul\":14000:14010   */\n      dup4\n        /* \"#utility.yul\":13996:14014   */\n      mul\n        /* \"#utility.yul\":14035:14132   */\n      tag_606\n        /* \"#utility.yul\":14065:14131   */\n      0xffffffffffffffffffffffffffffffffffffffffffffffffffffffffffffffff\n        /* \"#utility.yul\":14054:14063   */\n      dup3\n        /* \"#utility.yul\":14035:14132   */\n      tag_424\n      jump\t// in\n    tag_606:\n        /* \"#utility.yul\":14153:14192   */\n      tag_607\n        /* \"#utility.yul\":14183:14191   */\n      dup7\n        /* \"#utility.yul\":14172:14181   */\n      dup4\n        /* \"#utility.yul\":14153:14192   */\n      tag_424\n      jump\t// in\n    tag_607:\n        /* \"#utility.yul\":14141:14192   */\n      swap6\n      pop\n        /* \"#utility.yul\":14225:14229   */\n      dup1\n        /* \"#utility.yul\":14221:14230   */\n      not\n        /* \"#utility.yul\":14214:14219   */\n      dup5\n        /* \"#utility.yul\":14210:14231   */\n      and\n        /* \"#utility.yul\":14201:14231   */\n      swap4\n      pop\n        /* \"#utility.yul\":14274:14278   */\n      dup1\n        /* \"#utility.yul\":14264:14272   */\n      dup7\n        /* \"#utility.yul\":14260:14279   */\n      and\n        /* \"#utility.yul\":14253:14258   */\n      dup5\n        /* \"#utility.yul\":14250:14280   */\n      or\n        /* \"#utility.yul\":14240:14280   */\n      swap3\n      pop\n        /* \"#utility.yul\":13969:14286   */\n      pop\n      pop\n        /* \"#utility.yul\":13893:14286   */\n      swap4\n      swap3\n      pop\n      pop\n      pop\n      jump\t// out\n        /* \"#utility.yul\":14292:14352   */\n    tag_426:\n        /* \"#utility.yul\":14320:14323   */\n      0x00\n        /* \"#utility.yul\":14341:14346   */\n      dup2\n        /* \"#utility.yul\":14334:14346   */\n      swap1\n      pop\n        /* \"#utility.yul\":14292:14352   */\n      swap2\n      swap1\n      pop\n      jump\t// out\n        /* \"#utility.yul\":14358:14500   */\n    tag_427:\n        /* \"#utility.yul\":14408:14417   */\n      0x00\n        /* \"#utility.yul\":14441:14494   */\n      tag_610\n        /* \"#utility.yul\":14459:14493   */\n      tag_611\n        /* \"#utility.yul\":14468:14492   */\n      tag_612\n        /* \"#utility.yul\":14486:14491   */\n      dup5\n        /* \"#utility.yul\":14468:14492   */\n      tag_396\n      jump\t// in\n    tag_612:\n        /* \"#utility.yul\":14459:14493   */\n      tag_426\n      jump\t// in\n    tag_611:\n        /* \"#utility.yul\":14441:14494   */\n      tag_396\n      jump\t// in\n    tag_610:\n        /* \"#utility.yul\":14428:14494   */\n      swap1\n      pop\n        /* \"#utility.yul\":14358:14500   */\n      swap2\n      swap1\n      pop\n      jump\t// out\n        /* \"#utility.yul\":14506:14581   */\n    tag_428:\n        /* \"#utility.yul\":14549:14552   */\n      0x00\n        /* \"#utility.yul\":14570:14575   */\n      dup2\n        /* \"#utility.yul\":14563:14575   */\n      swap1\n      pop\n        /* \"#utility.yul\":14506:14581   */\n      swap2\n      swap1\n      pop\n      jump\t// out\n        /* \"#utility.yul\":14587:14856   */\n    tag_429:\n        /* \"#utility.yul\":14697:14736   */\n      tag_615\n        /* \"#utility.yul\":14728:14735   */\n      dup4\n        /* \"#utility.yul\":14697:14736   */\n      tag_427\n      jump\t// in\n    tag_615:\n        /* \"#utility.yul\":14758:14849   */\n      tag_616\n        /* \"#utility.yul\":14807:14848   */\n      tag_617\n        /* \"#utility.yul\":14831:14847   */\n      dup3\n        /* \"#utility.yul\":14807:14848   */\n      tag_428\n      jump\t// in\n    tag_617:\n        /* \"#utility.yul\":14799:14805   */\n      dup5\n        /* \"#utility.yul\":14792:14796   */\n      dup5\n        /* \"#utility.yul\":14786:14797   */\n      sload\n        /* \"#utility.yul\":14758:14849   */\n      tag_425\n      jump\t// in\n    tag_616:\n        /* \"#utility.yul\":14752:14756   */\n      dup3\n        /* \"#utility.yul\":14745:14850   */\n      sstore\n        /* \"#utility.yul\":14663:14856   */\n      pop\n        /* \"#utility.yul\":14587:14856   */\n      pop\n      pop\n      pop\n      jump\t// out\n        /* \"#utility.yul\":14862:14935   */\n    tag_430:\n        /* \"#utility.yul\":14907:14910   */\n      0x00\n        /* \"#utility.yul\":14862:14935   */\n      swap1\n      jump\t// out\n        /* \"#utility.yul\":14941:15130   */\n    tag_431:\n        /* \"#utility.yul\":15018:15050   */\n      tag_620\n      tag_430\n      jump\t// in\n    tag_620:\n        /* \"#utility.yul\":15059:15124   */\n      tag_621\n        /* \"#utility.yul\":15117:15123   */\n      dup2\n        /* \"#utility.yul\":15109:15115   */\n      dup5\n        /* \"#utility.yul\":15103:15107   */\n      dup5\n        /* \"#utility.yul\":15059:15124   */\n      tag_429\n      jump\t// in\n    tag_621:\n        /* \"#utility.yul\":14994:15130   */\n      pop\n        /* \"#utility.yul\":14941:15130   */\n      pop\n      pop\n      jump\t// out\n        /* \"#utility.yul\":15136:15322   */\n    tag_432:\n        /* \"#utility.yul\":15196:15316   */\n    tag_623:\n        /* \"#utility.yul\":15213:15216   */\n      dup2\n        /* \"#utility.yul\":15206:15211   */\n      dup2\n        /* \"#utility.yul\":15203:15217   */\n      lt\n        /* \"#utility.yul\":15196:15316   */\n      iszero\n      tag_625\n      jumpi\n        /* \"#utility.yul\":15267:15306   */\n      tag_626\n        /* \"#utility.yul\":15304:15305   */\n      0x00\n        /* \"#utility.yul\":15297:15302   */\n      dup3\n        /* \"#utility.yul\":15267:15306   */\n      tag_431\n      jump\t// in\n    tag_626:\n        /* \"#utility.yul\":15240:15241   */\n      0x01\n        /* \"#utility.yul\":15233:15238   */\n      dup2\n        /* \"#utility.yul\":15229:15242   */\n      add\n        /* \"#utility.yul\":15220:15242   */\n      swap1\n      pop\n        /* \"#utility.yul\":15196:15316   */\n      jump(tag_623)\n    tag_625:\n        /* \"#utility.yul\":15136:15322   */\n      pop\n      pop\n      jump\t// out\n        /* \"#utility.yul\":15328:15871   */\n    tag_433:\n        /* \"#utility.yul\":15429:15431   */\n      0x1f\n        /* \"#utility.yul\":15424:15427   */\n      dup3\n        /* \"#utility.yul\":15421:15432   */\n      gt\n        /* \"#utility.yul\":15418:15864   */\n      iszero\n      tag_628\n      jumpi\n        /* \"#utility.yul\":15463:15501   */\n      tag_629\n        /* \"#utility.yul\":15495:15500   */\n      dup2\n        /* \"#utility.yul\":15463:15501   */\n      tag_422\n      jump\t// in\n    tag_629:\n        /* \"#utility.yul\":15547:15576   */\n      tag_630\n        /* \"#utility.yul\":15565:15575   */\n      dup5\n        /* \"#utility.yul\":15547:15576   */\n      tag_423\n      jump\t// in\n    tag_630:\n        /* \"#utility.yul\":15537:15545   */\n      dup2\n        /* \"#utility.yul\":15533:15577   */\n      add\n        /* \"#utility.yul\":15730:15732   */\n      0x20\n        /* \"#utility.yul\":15718:15728   */\n      dup6\n        /* \"#utility.yul\":15715:15733   */\n      lt\n        /* \"#utility.yul\":15712:15761   */\n      iszero\n      tag_631\n      jumpi\n        /* \"#utility.yul\":15751:15759   */\n      dup2\n        /* \"#utility.yul\":15736:15759   */\n      swap1\n      pop\n        /* \"#utility.yul\":15712:15761   */\n    tag_631:\n        /* \"#utility.yul\":15774:15854   */\n      tag_632\n        /* \"#utility.yul\":15830:15852   */\n      tag_633\n        /* \"#utility.yul\":15848:15851   */\n      dup6\n        /* \"#utility.yul\":15830:15852   */\n      tag_423\n      jump\t// in\n    tag_633:\n        /* \"#utility.yul\":15820:15828   */\n      dup4\n        /* \"#utility.yul\":15816:15853   */\n      add\n        /* \"#utility.yul\":15803:15814   */\n      dup3\n        /* \"#utility.yul\":15774:15854   */\n      tag_432\n      jump\t// in\n    tag_632:\n        /* \"#utility.yul\":15433:15864   */\n      pop\n      pop\n        /* \"#utility.yul\":15418:15864   */\n    tag_628:\n        /* \"#utility.yul\":15328:15871   */\n      pop\n      pop\n      pop\n      jump\t// out\n        /* \"#utility.yul\":15877:15994   */\n    tag_434:\n        /* \"#utility.yul\":15931:15939   */\n      0x00\n        /* \"#utility.yul\":15981:15986   */\n      dup3\n        /* \"#utility.yul\":15975:15979   */\n      dup3\n        /* \"#utility.yul\":15971:15987   */\n      shr\n        /* \"#utility.yul\":15950:15987   */\n      swap1\n      pop\n        /* \"#utility.yul\":15877:15994   */\n      swap3\n      swap2\n      pop\n      pop\n      jump\t// out\n        /* \"#utility.yul\":16000:16169   */\n    tag_435:\n        /* \"#utility.yul\":16044:16050   */\n      0x00\n        /* \"#utility.yul\":16077:16128   */\n      tag_636\n        /* \"#utility.yul\":16125:16126   */\n      0x00\n        /* \"#utility.yul\":16121:16127   */\n      not\n        /* \"#utility.yul\":16113:16118   */\n      dup5\n        /* \"#utility.yul\":16110:16111   */\n      0x08\n        /* \"#utility.yul\":16106:16119   */\n      mul\n        /* \"#utility.yul\":16077:16128   */\n      tag_434\n      jump\t// in\n    tag_636:\n        /* \"#utility.yul\":16073:16129   */\n      not\n        /* \"#utility.yul\":16158:16162   */\n      dup1\n        /* \"#utility.yul\":16152:16156   */\n      dup4\n        /* \"#utility.yul\":16148:16163   */\n      and\n        /* \"#utility.yul\":16138:16163   */\n      swap2\n      pop\n        /* \"#utility.yul\":16051:16169   */\n      pop\n        /* \"#utility.yul\":16000:16169   */\n      swap3\n      swap2\n      pop\n      pop\n      jump\t// out\n        /* \"#utility.yul\":16174:16469   */\n    tag_436:\n        /* \"#utility.yul\":16250:16254   */\n      0x00\n        /* \"#utility.yul\":16396:16425   */\n      tag_638\n        /* \"#utility.yul\":16421:16424   */\n      dup4\n        /* \"#utility.yul\":16415:16419   */\n      dup4\n        /* \"#utility.yul\":16396:16425   */\n      tag_435\n      jump\t// in\n    tag_638:\n        /* \"#utility.yul\":16388:16425   */\n      swap2\n      pop\n        /* \"#utility.yul\":16458:16461   */\n      dup3\n        /* \"#utility.yul\":16455:16456   */\n      0x02\n        /* \"#utility.yul\":16451:16462   */\n      mul\n        /* \"#utility.yul\":16445:16449   */\n      dup3\n        /* \"#utility.yul\":16442:16463   */\n      or\n        /* \"#utility.yul\":16434:16463   */\n      swap1\n      pop\n        /* \"#utility.yul\":16174:16469   */\n      swap3\n      swap2\n      pop\n      pop\n      jump\t// out\n        /* \"#utility.yul\":16474:17869   */\n    tag_161:\n        /* \"#utility.yul\":16591:16628   */\n      tag_640\n        /* \"#utility.yul\":16624:16627   */\n      dup3\n        /* \"#utility.yul\":16591:16628   */\n      tag_384\n      jump\t// in\n    tag_640:\n        /* \"#utility.yul\":16693:16711   */\n      0xffffffffffffffff\n        /* \"#utility.yul\":16685:16691   */\n      dup2\n        /* \"#utility.yul\":16682:16712   */\n      gt\n        /* \"#utility.yul\":16679:16735   */\n      iszero\n      tag_641\n      jumpi\n        /* \"#utility.yul\":16715:16733   */\n      tag_642\n      tag_406\n      jump\t// in\n    tag_642:\n        /* \"#utility.yul\":16679:16735   */\n    tag_641:\n        /* \"#utility.yul\":16759:16797   */\n      tag_643\n        /* \"#utility.yul\":16791:16795   */\n      dup3\n        /* \"#utility.yul\":16785:16796   */\n      sload\n        /* \"#utility.yul\":16759:16797   */\n      tag_125\n      jump\t// in\n    tag_643:\n        /* \"#utility.yul\":16844:16911   */\n      tag_644\n        /* \"#utility.yul\":16904:16910   */\n      dup3\n        /* \"#utility.yul\":16896:16902   */\n      dup3\n        /* \"#utility.yul\":16890:16894   */\n      dup6\n        /* \"#utility.yul\":16844:16911   */\n      tag_433\n      jump\t// in\n    tag_644:\n        /* \"#utility.yul\":16938:16939   */\n      0x00\n        /* \"#utility.yul\":16962:16966   */\n      0x20\n        /* \"#utility.yul\":16949:16966   */\n      swap1\n      pop\n        /* \"#utility.yul\":16994:16996   */\n      0x1f\n        /* \"#utility.yul\":16986:16992   */\n      dup4\n        /* \"#utility.yul\":16983:16997   */\n      gt\n        /* \"#utility.yul\":17011:17012   */\n      0x01\n        /* \"#utility.yul\":17006:17624   */\n      dup2\n      eq\n      tag_646\n      jumpi\n        /* \"#utility.yul\":17668:17669   */\n      0x00\n        /* \"#utility.yul\":17685:17691   */\n      dup5\n        /* \"#utility.yul\":17682:17759   */\n      iszero\n      tag_647\n      jumpi\n        /* \"#utility.yul\":17734:17743   */\n      dup3\n        /* \"#utility.yul\":17729:17732   */\n      dup8\n        /* \"#utility.yul\":17725:17744   */\n      add\n        /* \"#utility.yul\":17719:17745   */\n      mload\n        /* \"#utility.yul\":17710:17745   */\n      swap1\n      pop\n        /* \"#utility.yul\":17682:17759   */\n    tag_647:\n        /* \"#utility.yul\":17785:17852   */\n      tag_648\n        /* \"#utility.yul\":17845:17851   */\n      dup6\n        /* \"#utility.yul\":17838:17843   */\n      dup3\n        /* \"#utility.yul\":17785:17852   */\n      tag_436\n      jump\t// in\n    tag_648:\n        /* \"#utility.yul\":17779:17783   */\n      dup7\n        /* \"#utility.yul\":17772:17853   */\n      sstore\n        /* \"#utility.yul\":17641:17863   */\n      pop\n        /* \"#utility.yul\":16976:17863   */\n      jump(tag_645)\n        /* \"#utility.yul\":17006:17624   */\n    tag_646:\n        /* \"#utility.yul\":17058:17062   */\n      0x1f\n        /* \"#utility.yul\":17054:17063   */\n      not\n        /* \"#utility.yul\":17046:17052   */\n      dup5\n        /* \"#utility.yul\":17042:17064   */\n      and\n        /* \"#utility.yul\":17092:17129   */\n      tag_649\n        /* \"#utility.yul\":17124:17128   */\n      dup7\n        /* \"#utility.yul\":17092:17129   */\n      tag_422\n      jump\t// in\n    tag_649:\n        /* \"#utility.yul\":17151:17152   */\n      0x00\n        /* \"#utility.yul\":17165:17373   */\n    tag_650:\n        /* \"#utility.yul\":17179:17186   */\n      dup3\n        /* \"#utility.yul\":17176:17177   */\n      dup2\n        /* \"#utility.yul\":17173:17187   */\n      lt\n        /* \"#utility.yul\":17165:17373   */\n      iszero\n      tag_652\n      jumpi\n        /* \"#utility.yul\":17258:17267   */\n      dup5\n        /* \"#utility.yul\":17253:17256   */\n      dup10\n        /* \"#utility.yul\":17249:17268   */\n      add\n        /* \"#utility.yul\":17243:17269   */\n      mload\n        /* \"#utility.yul\":17235:17241   */\n      dup3\n        /* \"#utility.yul\":17228:17270   */\n      sstore\n        /* \"#utility.yul\":17309:17310   */\n      0x01\n        /* \"#utility.yul\":17301:17307   */\n      dup3\n        /* \"#utility.yul\":17297:17311   */\n      add\n        /* \"#utility.yul\":17287:17311   */\n      swap2\n      pop\n        /* \"#utility.yul\":17356:17358   */\n      0x20\n        /* \"#utility.yul\":17345:17354   */\n      dup6\n        /* \"#utility.yul\":17341:17359   */\n      add\n        /* \"#utility.yul\":17328:17359   */\n      swap5\n      pop\n        /* \"#utility.yul\":17202:17206   */\n      0x20\n        /* \"#utility.yul\":17199:17200   */\n      dup2\n        /* \"#utility.yul\":17195:17207   */\n      add\n        /* \"#utility.yul\":17190:17207   */\n      swap1\n      pop\n        /* \"#utility.yul\":17165:17373   */\n      jump(tag_650)\n    tag_652:\n        /* \"#utility.yul\":17401:17407   */\n      dup7\n        /* \"#utility.yul\":17392:17399   */\n      dup4\n        /* \"#utility.yul\":17389:17408   */\n      lt\n        /* \"#utility.yul\":17386:17565   */\n      iszero\n      tag_653\n      jumpi\n        /* \"#utility.yul\":17459:17468   */\n      dup5\n        /* \"#utility.yul\":17454:17457   */\n      dup10\n        /* \"#utility.yul\":17450:17469   */\n      add\n        /* \"#utility.yul\":17444:17470   */\n      mload\n        /* \"#utility.yul\":17502:17550   */\n      tag_654\n        /* \"#utility.yul\":17544:17548   */\n      0x1f\n        /* \"#utility.yul\":17536:17542   */\n      dup10\n        /* \"#utility.yul\":17532:17549   */\n      and\n        /* \"#utility.yul\":17521:17530   */\n      dup3\n        /* \"#utility.yul\":17502:17550   */\n      tag_435\n      jump\t// in\n    tag_654:\n        /* \"#utility.yul\":17494:17500   */\n      dup4\n        /* \"#utility.yul\":17487:17551   */\n      sstore\n        /* \"#utility.yul\":17409:17565   */\n      pop\n        /* \"#utility.yul\":17386:17565   */\n    tag_653:\n        /* \"#utility.yul\":17611:17612   */\n      0x01\n        /* \"#utility.yul\":17607:17608   */\n      0x02\n        /* \"#utility.yul\":17599:17605   */\n      dup9\n        /* \"#utility.yul\":17595:17609   */\n      mul\n        /* \"#utility.yul\":17591:17613   */\n      add\n        /* \"#utility.yul\":17585:17589   */\n      dup9\n        /* \"#utility.yul\":17578:17614   */\n      sstore\n        /* \"#utility.yul\":17013:17624   */\n      pop\n      pop\n      pop\n        /* \"#utility.yul\":16976:17863   */\n    tag_645:\n      pop\n        /* \"#utility.yul\":16566:17869   */\n      pop\n      pop\n      pop\n        /* \"#utility.yul\":16474:17869   */\n      pop\n      pop\n      jump\t// out\n        /* \"#utility.yul\":17875:18298   */\n    tag_163:\n        /* \"#utility.yul\":18016:18020   */\n      0x00\n        /* \"#utility.yul\":18054:18056   */\n      0x40\n        /* \"#utility.yul\":18043:18052   */\n      dup3\n        /* \"#utility.yul\":18039:18057   */\n      add\n        /* \"#utility.yul\":18031:18057   */\n      swap1\n      pop\n        /* \"#utility.yul\":18103:18112   */\n      dup2\n        /* \"#utility.yul\":18097:18101   */\n      dup2\n        /* \"#utility.yul\":18093:18113   */\n      sub\n        /* \"#utility.yul\":18089:18090   */\n      0x00\n        /* \"#utility.yul\":18078:18087   */\n      dup4\n        /* \"#utility.yul\":18074:18091   */\n      add\n        /* \"#utility.yul\":18067:18114   */\n      mstore\n        /* \"#utility.yul\":18131:18209   */\n      tag_656\n        /* \"#utility.yul\":18204:18208   */\n      dup2\n        /* \"#utility.yul\":18195:18201   */\n      dup6\n        /* \"#utility.yul\":18131:18209   */\n      tag_388\n      jump\t// in\n    tag_656:\n        /* \"#utility.yul\":18123:18209   */\n      swap1\n      pop\n        /* \"#utility.yul\":18219:18291   */\n      tag_657\n        /* \"#utility.yul\":18287:18289   */\n      0x20\n        /* \"#utility.yul\":18276:18285   */\n      dup4\n        /* \"#utility.yul\":18272:18290   */\n      add\n        /* \"#utility.yul\":18263:18269   */\n      dup5\n        /* \"#utility.yul\":18219:18291   */\n      tag_413\n      jump\t// in\n    tag_657:\n        /* \"#utility.yul\":17875:18298   */\n      swap4\n      swap3\n      pop\n      pop\n      pop\n      jump\t// out\n        /* \"#utility.yul\":18304:18466   */\n    tag_437:\n        /* \"#utility.yul\":18444:18458   */\n      0x46656520746f6f20686967680000000000000000000000000000000000000000\n        /* \"#utility.yul\":18440:18441   */\n      0x00\n        /* \"#utility.yul\":18432:18438   */\n      dup3\n        /* \"#utility.yul\":18428:18442   */\n      add\n        /* \"#utility.yul\":18421:18459   */\n      mstore\n        /* \"#utility.yul\":18304:18466   */\n      pop\n      jump\t// out\n        /* \"#utility.yul\":18472:18838   */\n    tag_438:\n        /* \"#utility.yul\":18614:18617   */\n      0x00\n        /* \"#utility.yul\":18635:18702   */\n      tag_660\n        /* \"#utility.yul\":18699:18701   */\n      0x0c\n        /* \"#utility.yul\":18694:18697   */\n      dup4\n        /* \"#utility.yul\":18635:18702   */\n      tag_385\n      jump\t// in\n    tag_660:\n        /* \"#utility.yul\":18628:18702   */\n      swap2\n      pop\n        /* \"#utility.yul\":18711:18804   */\n      tag_661\n        /* \"#utility.yul\":18800:18803   */\n      dup3\n        /* \"#utility.yul\":18711:18804   */\n      tag_437\n      jump\t// in\n    tag_661:\n        /* \"#utility.yul\":18829:18831   */\n      0x20\n        /* \"#utility.yul\":18824:18827   */\n      dup3\n        /* \"#utility.yul\":18820:18832   */\n      add\n        /* \"#utility.yul\":18813:18832   */\n      swap1\n      pop\n        /* \"#utility.yul\":18472:18838   */\n      swap2\n      swap1\n      pop\n      jump\t// out\n        /* \"#utility.yul\":18844:19263   */\n    tag_186:\n        /* \"#utility.yul\":19010:19014   */\n      0x00\n        /* \"#utility.yul\":19048:19050   */\n      0x20\n        /* \"#utility.yul\":19037:19046   */\n      dup3\n        /* \"#utility.yul\":19033:19051   */\n      add\n        /* \"#utility.yul\":19025:19051   */\n      swap1\n      pop\n        /* \"#utility.yul\":19097:19106   */\n      dup2\n        /* \"#utility.yul\":19091:19095   */\n      dup2\n        /* \"#utility.yul\":19087:19107   */\n      sub\n        /* \"#utility.yul\":19083:19084   */\n      0x00\n        /* \"#utility.yul\":19072:19081   */\n      dup4\n        /* \"#utility.yul\":19068:19085   */\n      add\n        /* \"#utility.yul\":19061:19108   */\n      mstore\n        /* \"#utility.yul\":19125:19256   */\n      tag_663\n        /* \"#utility.yul\":19251:19255   */\n      dup2\n        /* \"#utility.yul\":19125:19256   */\n      tag_438\n      jump\t// in\n    tag_663:\n        /* \"#utility.yul\":19117:19256   */\n      swap1\n      pop\n        /* \"#utility.yul\":18844:19263   */\n      swap2\n      swap1\n      pop\n      jump\t// out\n        /* \"#utility.yul\":19269:19443   */\n    tag_439:\n        /* \"#utility.yul\":19409:19435   */\n      0x496e76616c696420747265617375727920616464726573730000000000000000\n        /* \"#utility.yul\":19405:19406   */\n      0x00\n        /* \"#utility.yul\":19397:19403   */\n      dup3\n        /* \"#utility.yul\":19393:19407   */\n      add\n        /* \"#utility.yul\":19386:19436   */\n      mstore\n        /* \"#utility.yul\":19269:19443   */\n      pop\n      jump\t// out\n        /* \"#utility.yul\":19449:19815   */\n    tag_440:\n        /* \"#utility.yul\":19591:19594   */\n      0x00\n        /* \"#utility.yul\":19612:19679   */\n      tag_666\n        /* \"#utility.yul\":19676:19678   */\n      0x18\n        /* \"#utility.yul\":19671:19674   */\n      dup4\n        /* \"#utility.yul\":19612:19679   */\n      tag_385\n      jump\t// in\n    tag_666:\n        /* \"#utility.yul\":19605:19679   */\n      swap2\n      pop\n        /* \"#utility.yul\":19688:19781   */\n      tag_667\n        /* \"#utility.yul\":19777:19780   */\n      dup3\n        /* \"#utility.yul\":19688:19781   */\n      tag_439\n      jump\t// in\n    tag_667:\n        /* \"#utility.yul\":19806:19808   */\n      0x20\n        /* \"#utility.yul\":19801:19804   */\n      dup3\n        /* \"#utility.yul\":19797:19809   */\n      add\n        /* \"#utility.yul\":19790:19809   */\n      swap1\n      pop\n        /* \"#utility.yul\":19449:19815   */\n      swap2\n      swap1\n      pop\n      jump\t// out\n        /* \"#utility.yul\":19821:20240   */\n    tag_201:\n        /* \"#utility.yul\":19987:19991   */\n      0x00\n        /* \"#utility.yul\":20025:20027   */\n      0x20\n        /* \"#utility.yul\":20014:20023   */\n      dup3\n        /* \"#utility.yul\":20010:20028   */\n      add\n        /* \"#utility.yul\":20002:20028   */\n      swap1\n      pop\n        /* \"#utility.yul\":20074:20083   */\n      dup2\n        /* \"#utility.yul\":20068:20072   */\n      dup2\n        /* \"#utility.yul\":20064:20084   */\n      sub\n        /* \"#utility.yul\":20060:20061   */\n      0x00\n        /* \"#utility.yul\":20049:20058   */\n      dup4\n        /* \"#utility.yul\":20045:20062   */\n      add\n        /* \"#utility.yul\":20038:20085   */\n      mstore\n        /* \"#utility.yul\":20102:20233   */\n      tag_669\n        /* \"#utility.yul\":20228:20232   */\n      dup2\n        /* \"#utility.yul\":20102:20233   */\n      tag_440\n      jump\t// in\n    tag_669:\n        /* \"#utility.yul\":20094:20233   */\n      swap1\n      pop\n        /* \"#utility.yul\":19821:20240   */\n      swap2\n      swap1\n      pop\n      jump\t// out\n        /* \"#utility.yul\":20246:20419   */\n    tag_441:\n        /* \"#utility.yul\":20386:20411   */\n      0x54726561737572792077616c6c6574206e6f7420736574000000000000000000\n        /* \"#utility.yul\":20382:20383   */\n      0x00\n        /* \"#utility.yul\":20374:20380   */\n      dup3\n        /* \"#utility.yul\":20370:20384   */\n      add\n        /* \"#utility.yul\":20363:20412   */\n      mstore\n        /* \"#utility.yul\":20246:20419   */\n      pop\n      jump\t// out\n        /* \"#utility.yul\":20425:20791   */\n    tag_442:\n        /* \"#utility.yul\":20567:20570   */\n      0x00\n        /* \"#utility.yul\":20588:20655   */\n      tag_672\n        /* \"#utility.yul\":20652:20654   */\n      0x17\n        /* \"#utility.yul\":20647:20650   */\n      dup4\n        /* \"#utility.yul\":20588:20655   */\n      tag_385\n      jump\t// in\n    tag_672:\n        /* \"#utility.yul\":20581:20655   */\n      swap2\n      pop\n        /* \"#utility.yul\":20664:20757   */\n      tag_673\n        /* \"#utility.yul\":20753:20756   */\n      dup3\n        /* \"#utility.yul\":20664:20757   */\n      tag_441\n      jump\t// in\n    tag_673:\n        /* \"#utility.yul\":20782:20784   */\n      0x20\n        /* \"#utility.yul\":20777:20780   */\n      dup3\n        /* \"#utility.yul\":20773:20785   */\n      add\n        /* \"#utility.yul\":20766:20785   */\n      swap1\n      pop\n        /* \"#utility.yul\":20425:20791   */\n      swap2\n      swap1\n      pop\n      jump\t// out\n        /* \"#utility.yul\":20797:21216   */\n    tag_241:\n        /* \"#utility.yul\":20963:20967   */\n      0x00\n        /* \"#utility.yul\":21001:21003   */\n      0x20\n        /* \"#utility.yul\":20990:20999   */\n      dup3\n        /* \"#utility.yul\":20986:21004   */\n      add\n        /* \"#utility.yul\":20978:21004   */\n      swap1\n      pop\n        /* \"#utility.yul\":21050:21059   */\n      dup2\n        /* \"#utility.yul\":21044:21048   */\n      dup2\n        /* \"#utility.yul\":21040:21060   */\n      sub\n        /* \"#utility.yul\":21036:21037   */\n      0x00\n        /* \"#utility.yul\":21025:21034   */\n      dup4\n        /* \"#utility.yul\":21021:21038   */\n      add\n        /* \"#utility.yul\":21014:21061   */\n      mstore\n        /* \"#utility.yul\":21078:21209   */\n      tag_675\n        /* \"#utility.yul\":21204:21208   */\n      dup2\n        /* \"#utility.yul\":21078:21209   */\n      tag_442\n      jump\t// in\n    tag_675:\n        /* \"#utility.yul\":21070:21209   */\n      swap1\n      pop\n        /* \"#utility.yul\":20797:21216   */\n      swap2\n      swap1\n      pop\n      jump\t// out\n        /* \"#utility.yul\":21222:21390   */\n    tag_443:\n        /* \"#utility.yul\":21362:21382   */\n      0x4e6f204e474f7320726567697374657265640000000000000000000000000000\n        /* \"#utility.yul\":21358:21359   */\n      0x00\n        /* \"#utility.yul\":21350:21356   */\n      dup3\n        /* \"#utility.yul\":21346:21360   */\n      add\n        /* \"#utility.yul\":21339:21383   */\n      mstore\n        /* \"#utility.yul\":21222:21390   */\n      pop\n      jump\t// out\n        /* \"#utility.yul\":21396:21762   */\n    tag_444:\n        /* \"#utility.yul\":21538:21541   */\n      0x00\n        /* \"#utility.yul\":21559:21626   */\n      tag_678\n        /* \"#utility.yul\":21623:21625   */\n      0x12\n        /* \"#utility.yul\":21618:21621   */\n      dup4\n        /* \"#utility.yul\":21559:21626   */\n      tag_385\n      jump\t// in\n    tag_678:\n        /* \"#utility.yul\":21552:21626   */\n      swap2\n      pop\n        /* \"#utility.yul\":21635:21728   */\n      tag_679\n        /* \"#utility.yul\":21724:21727   */\n      dup3\n        /* \"#utility.yul\":21635:21728   */\n      tag_443\n      jump\t// in\n    tag_679:\n        /* \"#utility.yul\":21753:21755   */\n      0x20\n        /* \"#utility.yul\":21748:21751   */\n      dup3\n        /* \"#utility.yul\":21744:21756   */\n      add\n        /* \"#utility.yul\":21737:21756   */\n      swap1\n      pop\n        /* \"#utility.yul\":21396:21762   */\n      swap2\n      swap1\n      pop\n      jump\t// out\n        /* \"#utility.yul\":21768:22187   */\n    tag_244:\n        /* \"#utility.yul\":21934:21938   */\n      0x00\n        /* \"#utility.yul\":21972:21974   */\n      0x20\n        /* \"#utility.yul\":21961:21970   */\n      dup3\n        /* \"#utility.yul\":21957:21975   */\n      add\n        /* \"#utility.yul\":21949:21975   */\n      swap1\n      pop\n        /* \"#utility.yul\":22021:22030   */\n      dup2\n        /* \"#utility.yul\":22015:22019   */\n      dup2\n        /* \"#utility.yul\":22011:22031   */\n      sub\n        /* \"#utility.yul\":22007:22008   */\n      0x00\n        /* \"#utility.yul\":21996:22005   */\n      dup4\n        /* \"#utility.yul\":21992:22009   */\n      add\n        /* \"#utility.yul\":21985:22032   */\n      mstore\n        /* \"#utility.yul\":22049:22180   */\n      tag_681\n        /* \"#utility.yul\":22175:22179   */\n      dup2\n        /* \"#utility.yul\":22049:22180   */\n      tag_444\n      jump\t// in\n    tag_681:\n        /* \"#utility.yul\":22041:22180   */\n      swap1\n      pop\n        /* \"#utility.yul\":21768:22187   */\n      swap2\n      swap1\n      pop\n      jump\t// out\n        /* \"#utility.yul\":22193:22365   */\n    tag_445:\n        /* \"#utility.yul\":22333:22357   */\n      0x4e6f2066756e647320746f206469737472696275746500000000000000000000\n        /* \"#utility.yul\":22329:22330   */\n      0x00\n        /* \"#utility.yul\":22321:22327   */\n      dup3\n        /* \"#utility.yul\":22317:22331   */\n      add\n        /* \"#utility.yul\":22310:22358   */\n      mstore\n        /* \"#utility.yul\":22193:22365   */\n      pop\n      jump\t// out\n        /* \"#utility.yul\":22371:22737   */\n    tag_446:\n        /* \"#utility.yul\":22513:22516   */\n      0x00\n        /* \"#utility.yul\":22534:22601   */\n      tag_684\n        /* \"#utility.yul\":22598:22600   */\n      0x16\n        /* \"#utility.yul\":22593:22596   */\n      dup4\n        /* \"#utility.yul\":22534:22601   */\n      tag_385\n      jump\t// in\n    tag_684:\n        /* \"#utility.yul\":22527:22601   */\n      swap2\n      pop\n        /* \"#utility.yul\":22610:22703   */\n      tag_685\n        /* \"#utility.yul\":22699:22702   */\n      dup3\n        /* \"#utility.yul\":22610:22703   */\n      tag_445\n      jump\t// in\n    tag_685:\n        /* \"#utility.yul\":22728:22730   */\n      0x20\n        /* \"#utility.yul\":22723:22726   */\n      dup3\n        /* \"#utility.yul\":22719:22731   */\n      add\n        /* \"#utility.yul\":22712:22731   */\n      swap1\n      pop\n        /* \"#utility.yul\":22371:22737   */\n      swap2\n      swap1\n      pop\n      jump\t// out\n        /* \"#utility.yul\":22743:23162   */\n    tag_248:\n        /* \"#utility.yul\":22909:22913   */\n      0x00\n        /* \"#utility.yul\":22947:22949   */\n      0x20\n        /* \"#utility.yul\":22936:22945   */\n      dup3\n        /* \"#utility.yul\":22932:22950   */\n      add\n        /* \"#utility.yul\":22924:22950   */\n      swap1\n      pop\n        /* \"#utility.yul\":22996:23005   */\n      dup2\n        /* \"#utility.yul\":22990:22994   */\n      dup2\n        /* \"#utility.yul\":22986:23006   */\n      sub\n        /* \"#utility.yul\":22982:22983   */\n      0x00\n        /* \"#utility.yul\":22971:22980   */\n      dup4\n        /* \"#utility.yul\":22967:22984   */\n      add\n        /* \"#utility.yul\":22960:23007   */\n      mstore\n        /* \"#utility.yul\":23024:23155   */\n      tag_687\n        /* \"#utility.yul\":23150:23154   */\n      dup2\n        /* \"#utility.yul\":23024:23155   */\n      tag_446\n      jump\t// in\n    tag_687:\n        /* \"#utility.yul\":23016:23155   */\n      swap1\n      pop\n        /* \"#utility.yul\":22743:23162   */\n      swap2\n      swap1\n      pop\n      jump\t// out\n        /* \"#utility.yul\":23168:23348   */\n    tag_447:\n        /* \"#utility.yul\":23216:23293   */\n      0x4e487b7100000000000000000000000000000000000000000000000000000000\n        /* \"#utility.yul\":23213:23214   */\n      0x00\n        /* \"#utility.yul\":23206:23294   */\n      mstore\n        /* \"#utility.yul\":23313:23317   */\n      0x12\n        /* \"#utility.yul\":23310:23311   */\n      0x04\n        /* \"#utility.yul\":23303:23318   */\n      mstore\n        /* \"#utility.yul\":23337:23341   */\n      0x24\n        /* \"#utility.yul\":23334:23335   */\n      0x00\n        /* \"#utility.yul\":23327:23342   */\n      revert\n        /* \"#utility.yul\":23354:23534   */\n    tag_448:\n        /* \"#utility.yul\":23402:23479   */\n      0x4e487b7100000000000000000000000000000000000000000000000000000000\n        /* \"#utility.yul\":23399:23400   */\n      0x00\n        /* \"#utility.yul\":23392:23480   */\n      mstore\n        /* \"#utility.yul\":23499:23503   */\n      0x11\n        /* \"#utility.yul\":23496:23497   */\n      0x04\n        /* \"#utility.yul\":23489:23504   */\n      mstore\n        /* \"#utility.yul\":23523:23527   */\n      0x24\n        /* \"#utility.yul\":23520:23521   */\n      0x00\n        /* \"#utility.yul\":23513:23528   */\n      revert\n        /* \"#utility.yul\":23540:23725   */\n    tag_250:\n        /* \"#utility.yul\":23580:23581   */\n      0x00\n        /* \"#utility.yul\":23597:23617   */\n      tag_691\n        /* \"#utility.yul\":23615:23616   */\n      dup3\n        /* \"#utility.yul\":23597:23617   */\n      tag_396\n      jump\t// in\n    tag_691:\n        /* \"#utility.yul\":23592:23617   */\n      swap2\n      pop\n        /* \"#utility.yul\":23631:23651   */\n      tag_692\n        /* \"#utility.yul\":23649:23650   */\n      dup4\n        /* \"#utility.yul\":23631:23651   */\n      tag_396\n      jump\t// in\n    tag_692:\n        /* \"#utility.yul\":23626:23651   */\n      swap3\n      pop\n        /* \"#utility.yul\":23670:23671   */\n      dup3\n        /* \"#utility.yul\":23660:23695   */\n      tag_693\n      jumpi\n        /* \"#utility.yul\":23675:23693   */\n      tag_694\n      tag_447\n      jump\t// in\n    tag_694:\n        /* \"#utility.yul\":23660:23695   */\n    tag_693:\n        /* \"#utility.yul\":23717:23718   */\n      dup3\n        /* \"#utility.yul\":23714:23715   */\n      dup3\n        /* \"#utility.yul\":23710:23719   */\n      div\n        /* \"#utility.yul\":23705:23719   */\n      swap1\n      pop\n        /* \"#utility.yul\":23540:23725   */\n      swap3\n      swap2\n      pop\n      pop\n      jump\t// out\n        /* \"#utility.yul\":23731:23953   */\n    tag_449:\n        /* \"#utility.yul\":23871:23905   */\n      0x496e73756666696369656e742066756e647320666f7220646973747269627574\n        /* \"#utility.yul\":23867:23868   */\n      0x00\n        /* \"#utility.yul\":23859:23865   */\n      dup3\n        /* \"#utility.yul\":23855:23869   */\n      add\n        /* \"#utility.yul\":23848:23906   */\n      mstore\n        /* \"#utility.yul\":23940:23945   */\n      0x696f6e0000000000000000000000000000000000000000000000000000000000\n        /* \"#utility.yul\":23935:23937   */\n      0x20\n        /* \"#utility.yul\":23927:23933   */\n      dup3\n        /* \"#utility.yul\":23923:23938   */\n      add\n        /* \"#utility.yul\":23916:23946   */\n      mstore\n        /* \"#utility.yul\":23731:23953   */\n      pop\n      jump\t// out\n        /* \"#utility.yul\":23959:24325   */\n    tag_450:\n        /* \"#utility.yul\":24101:24104   */\n      0x00\n        /* \"#utility.yul\":24122:24189   */\n      tag_697\n        /* \"#utility.yul\":24186:24188   */\n      0x23\n        /* \"#utility.yul\":24181:24184   */\n      dup4\n        /* \"#utility.yul\":24122:24189   */\n      tag_385\n      jump\t// in\n    tag_697:\n        /* \"#utility.yul\":24115:24189   */\n      swap2\n      pop\n        /* \"#utility.yul\":24198:24291   */\n      tag_698\n        /* \"#utility.yul\":24287:24290   */\n      dup3\n        /* \"#utility.yul\":24198:24291   */\n      tag_449\n      jump\t// in\n    tag_698:\n        /* \"#utility.yul\":24316:24318   */\n      0x40\n        /* \"#utility.yul\":24311:24314   */\n      dup3\n        /* \"#utility.yul\":24307:24319   */\n      add\n        /* \"#utility.yul\":24300:24319   */\n      swap1\n      pop\n        /* \"#utility.yul\":23959:24325   */\n      swap2\n      swap1\n      pop\n      jump\t// out\n        /* \"#utility.yul\":24331:24750   */\n    tag_253:\n        /* \"#utility.yul\":24497:24501   */\n      0x00\n        /* \"#utility.yul\":24535:24537   */\n      0x20\n        /* \"#utility.yul\":24524:24533   */\n      dup3\n        /* \"#utility.yul\":24520:24538   */\n      add\n        /* \"#utility.yul\":24512:24538   */\n      swap1\n      pop\n        /* \"#utility.yul\":24584:24593   */\n      dup2\n        /* \"#utility.yul\":24578:24582   */\n      dup2\n        /* \"#utility.yul\":24574:24594   */\n      sub\n        /* \"#utility.yul\":24570:24571   */\n      0x00\n        /* \"#utility.yul\":24559:24568   */\n      dup4\n        /* \"#utility.yul\":24555:24572   */\n      add\n        /* \"#utility.yul\":24548:24595   */\n      mstore\n        /* \"#utility.yul\":24612:24743   */\n      tag_700\n        /* \"#utility.yul\":24738:24742   */\n      dup2\n        /* \"#utility.yul\":24612:24743   */\n      tag_450\n      jump\t// in\n    tag_700:\n        /* \"#utility.yul\":24604:24743   */\n      swap1\n      pop\n        /* \"#utility.yul\":24331:24750   */\n      swap2\n      swap1\n      pop\n      jump\t// out\n        /* \"#utility.yul\":24756:25198   */\n    tag_271:\n        /* \"#utility.yul\":24905:24909   */\n      0x00\n        /* \"#utility.yul\":24943:24945   */\n      0x60\n        /* \"#utility.yul\":24932:24941   */\n      dup3\n        /* \"#utility.yul\":24928:24946   */\n      add\n        /* \"#utility.yul\":24920:24946   */\n      swap1\n      pop\n        /* \"#utility.yul\":24956:25027   */\n      tag_702\n        /* \"#utility.yul\":25024:25025   */\n      0x00\n        /* \"#utility.yul\":25013:25022   */\n      dup4\n        /* \"#utility.yul\":25009:25026   */\n      add\n        /* \"#utility.yul\":25000:25006   */\n      dup7\n        /* \"#utility.yul\":24956:25027   */\n      tag_413\n      jump\t// in\n    tag_702:\n        /* \"#utility.yul\":25037:25109   */\n      tag_703\n        /* \"#utility.yul\":25105:25107   */\n      0x20\n        /* \"#utility.yul\":25094:25103   */\n      dup4\n        /* \"#utility.yul\":25090:25108   */\n      add\n        /* \"#utility.yul\":25081:25087   */\n      dup6\n        /* \"#utility.yul\":25037:25109   */\n      tag_401\n      jump\t// in\n    tag_703:\n        /* \"#utility.yul\":25119:25191   */\n      tag_704\n        /* \"#utility.yul\":25187:25189   */\n      0x40\n        /* \"#utility.yul\":25176:25185   */\n      dup4\n        /* \"#utility.yul\":25172:25190   */\n      add\n        /* \"#utility.yul\":25163:25169   */\n      dup5\n        /* \"#utility.yul\":25119:25191   */\n      tag_401\n      jump\t// in\n    tag_704:\n        /* \"#utility.yul\":24756:25198   */\n      swap5\n      swap4\n      pop\n      pop\n      pop\n      pop\n      jump\t// out\n        /* \"#utility.yul\":25204:25424   */\n    tag_451:\n        /* \"#utility.yul\":25344:25378   */\n      0x546869732077616c6c657420697320616c726561647920726567697374657265\n        /* \"#utility.yul\":25340:25341   */\n      0x00\n        /* \"#utility.yul\":25332:25338   */\n      dup3\n        /* \"#utility.yul\":25328:25342   */\n      add\n        /* \"#utility.yul\":25321:25379   */\n      mstore\n        /* \"#utility.yul\":25413:25416   */\n      0x6400000000000000000000000000000000000000000000000000000000000000\n        /* \"#utility.yul\":25408:25410   */\n      0x20\n        /* \"#utility.yul\":25400:25406   */\n      dup3\n        /* \"#utility.yul\":25396:25411   */\n      add\n        /* \"#utility.yul\":25389:25417   */\n      mstore\n        /* \"#utility.yul\":25204:25424   */\n      pop\n      jump\t// out\n        /* \"#utility.yul\":25430:25796   */\n    tag_452:\n        /* \"#utility.yul\":25572:25575   */\n      0x00\n        /* \"#utility.yul\":25593:25660   */\n      tag_707\n        /* \"#utility.yul\":25657:25659   */\n      0x21\n        /* \"#utility.yul\":25652:25655   */\n      dup4\n        /* \"#utility.yul\":25593:25660   */\n      tag_385\n      jump\t// in\n    tag_707:\n        /* \"#utility.yul\":25586:25660   */\n      swap2\n      pop\n        /* \"#utility.yul\":25669:25762   */\n      tag_708\n        /* \"#utility.yul\":25758:25761   */\n      dup3\n        /* \"#utility.yul\":25669:25762   */\n      tag_451\n      jump\t// in\n    tag_708:\n        /* \"#utility.yul\":25787:25789   */\n      0x40\n        /* \"#utility.yul\":25782:25785   */\n      dup3\n        /* \"#utility.yul\":25778:25790   */\n      add\n        /* \"#utility.yul\":25771:25790   */\n      swap1\n      pop\n        /* \"#utility.yul\":25430:25796   */\n      swap2\n      swap1\n      pop\n      jump\t// out\n        /* \"#utility.yul\":25802:26221   */\n    tag_291:\n        /* \"#utility.yul\":25968:25972   */\n      0x00\n        /* \"#utility.yul\":26006:26008   */\n      0x20\n        /* \"#utility.yul\":25995:26004   */\n      dup3\n        /* \"#utility.yul\":25991:26009   */\n      add\n        /* \"#utility.yul\":25983:26009   */\n      swap1\n      pop\n        /* \"#utility.yul\":26055:26064   */\n      dup2\n        /* \"#utility.yul\":26049:26053   */\n      dup2\n        /* \"#utility.yul\":26045:26065   */\n      sub\n        /* \"#utility.yul\":26041:26042   */\n      0x00\n        /* \"#utility.yul\":26030:26039   */\n      dup4\n        /* \"#utility.yul\":26026:26043   */\n      add\n        /* \"#utility.yul\":26019:26066   */\n      mstore\n        /* \"#utility.yul\":26083:26214   */\n      tag_710\n        /* \"#utility.yul\":26209:26213   */\n      dup2\n        /* \"#utility.yul\":26083:26214   */\n      tag_452\n      jump\t// in\n    tag_710:\n        /* \"#utility.yul\":26075:26214   */\n      swap1\n      pop\n        /* \"#utility.yul\":25802:26221   */\n      swap2\n      swap1\n      pop\n      jump\t// out\n        /* \"#utility.yul\":26227:26320   */\n    tag_453:\n        /* \"#utility.yul\":26263:26270   */\n      0x00\n        /* \"#utility.yul\":26303:26313   */\n      0xffffffff\n        /* \"#utility.yul\":26296:26301   */\n      dup3\n        /* \"#utility.yul\":26292:26314   */\n      and\n        /* \"#utility.yul\":26281:26314   */\n      swap1\n      pop\n        /* \"#utility.yul\":26227:26320   */\n      swap2\n      swap1\n      pop\n      jump\t// out\n        /* \"#utility.yul\":26326:26501   */\n    tag_319:\n        /* \"#utility.yul\":26364:26367   */\n      0x00\n        /* \"#utility.yul\":26387:26410   */\n      tag_713\n        /* \"#utility.yul\":26404:26409   */\n      dup3\n        /* \"#utility.yul\":26387:26410   */\n      tag_453\n      jump\t// in\n    tag_713:\n        /* \"#utility.yul\":26378:26410   */\n      swap2\n      pop\n        /* \"#utility.yul\":26432:26442   */\n      0xffffffff\n        /* \"#utility.yul\":26425:26430   */\n      dup3\n        /* \"#utility.yul\":26422:26443   */\n      sub\n        /* \"#utility.yul\":26419:26466   */\n      tag_714\n      jumpi\n        /* \"#utility.yul\":26446:26464   */\n      tag_715\n      tag_448\n      jump\t// in\n    tag_715:\n        /* \"#utility.yul\":26419:26466   */\n    tag_714:\n        /* \"#utility.yul\":26493:26494   */\n      0x01\n        /* \"#utility.yul\":26486:26491   */\n      dup3\n        /* \"#utility.yul\":26482:26495   */\n      add\n        /* \"#utility.yul\":26475:26495   */\n      swap1\n      pop\n        /* \"#utility.yul\":26326:26501   */\n      swap2\n      swap1\n      pop\n      jump\t// out\n        /* \"#utility.yul\":26507:26698   */\n    tag_323:\n        /* \"#utility.yul\":26547:26550   */\n      0x00\n        /* \"#utility.yul\":26566:26586   */\n      tag_717\n        /* \"#utility.yul\":26584:26585   */\n      dup3\n        /* \"#utility.yul\":26566:26586   */\n      tag_396\n      jump\t// in\n    tag_717:\n        /* \"#utility.yul\":26561:26586   */\n      swap2\n      pop\n        /* \"#utility.yul\":26600:26620   */\n      tag_718\n        /* \"#utility.yul\":26618:26619   */\n      dup4\n        /* \"#utility.yul\":26600:26620   */\n      tag_396\n      jump\t// in\n    tag_718:\n        /* \"#utility.yul\":26595:26620   */\n      swap3\n      pop\n        /* \"#utility.yul\":26643:26644   */\n      dup3\n        /* \"#utility.yul\":26640:26641   */\n      dup3\n        /* \"#utility.yul\":26636:26645   */\n      add\n        /* \"#utility.yul\":26629:26645   */\n      swap1\n      pop\n        /* \"#utility.yul\":26664:26667   */\n      dup1\n        /* \"#utility.yul\":26661:26662   */\n      dup3\n        /* \"#utility.yul\":26658:26668   */\n      gt\n        /* \"#utility.yul\":26655:26691   */\n      iszero\n      tag_719\n      jumpi\n        /* \"#utility.yul\":26671:26689   */\n      tag_720\n      tag_448\n      jump\t// in\n    tag_720:\n        /* \"#utility.yul\":26655:26691   */\n    tag_719:\n        /* \"#utility.yul\":26507:26698   */\n      swap3\n      swap2\n      pop\n      pop\n      jump\t// out\n        /* \"#utility.yul\":26704:27114   */\n    tag_344:\n        /* \"#utility.yul\":26744:26751   */\n      0x00\n        /* \"#utility.yul\":26767:26787   */\n      tag_722\n        /* \"#utility.yul\":26785:26786   */\n      dup3\n        /* \"#utility.yul\":26767:26787   */\n      tag_396\n      jump\t// in\n    tag_722:\n        /* \"#utility.yul\":26762:26787   */\n      swap2\n      pop\n        /* \"#utility.yul\":26801:26821   */\n      tag_723\n        /* \"#utility.yul\":26819:26820   */\n      dup4\n        /* \"#utility.yul\":26801:26821   */\n      tag_396\n      jump\t// in\n    tag_723:\n        /* \"#utility.yul\":26796:26821   */\n      swap3\n      pop\n        /* \"#utility.yul\":26856:26857   */\n      dup3\n        /* \"#utility.yul\":26853:26854   */\n      dup3\n        /* \"#utility.yul\":26849:26858   */\n      mul\n        /* \"#utility.yul\":26878:26908   */\n      tag_724\n        /* \"#utility.yul\":26896:26907   */\n      dup2\n        /* \"#utility.yul\":26878:26908   */\n      tag_396\n      jump\t// in\n    tag_724:\n        /* \"#utility.yul\":26867:26908   */\n      swap2\n      pop\n        /* \"#utility.yul\":27057:27058   */\n      dup3\n        /* \"#utility.yul\":27048:27055   */\n      dup3\n        /* \"#utility.yul\":27044:27059   */\n      div\n        /* \"#utility.yul\":27041:27042   */\n      dup5\n        /* \"#utility.yul\":27038:27060   */\n      eq\n        /* \"#utility.yul\":27018:27019   */\n      dup4\n        /* \"#utility.yul\":27011:27020   */\n      iszero\n        /* \"#utility.yul\":26991:27074   */\n      or\n        /* \"#utility.yul\":26968:27107   */\n      tag_725\n      jumpi\n        /* \"#utility.yul\":27087:27105   */\n      tag_726\n      tag_448\n      jump\t// in\n    tag_726:\n        /* \"#utility.yul\":26968:27107   */\n    tag_725:\n        /* \"#utility.yul\":26752:27114   */\n      pop\n        /* \"#utility.yul\":26704:27114   */\n      swap3\n      swap2\n      pop\n      pop\n      jump\t// out\n        /* \"#utility.yul\":27120:27314   */\n    tag_347:\n        /* \"#utility.yul\":27160:27164   */\n      0x00\n        /* \"#utility.yul\":27180:27200   */\n      tag_728\n        /* \"#utility.yul\":27198:27199   */\n      dup3\n        /* \"#utility.yul\":27180:27200   */\n      tag_396\n      jump\t// in\n    tag_728:\n        /* \"#utility.yul\":27175:27200   */\n      swap2\n      pop\n        /* \"#utility.yul\":27214:27234   */\n      tag_729\n        /* \"#utility.yul\":27232:27233   */\n      dup4\n        /* \"#utility.yul\":27214:27234   */\n      tag_396\n      jump\t// in\n    tag_729:\n        /* \"#utility.yul\":27209:27234   */\n      swap3\n      pop\n        /* \"#utility.yul\":27258:27259   */\n      dup3\n        /* \"#utility.yul\":27255:27256   */\n      dup3\n        /* \"#utility.yul\":27251:27260   */\n      sub\n        /* \"#utility.yul\":27243:27260   */\n      swap1\n      pop\n        /* \"#utility.yul\":27282:27283   */\n      dup2\n        /* \"#utility.yul\":27276:27280   */\n      dup2\n        /* \"#utility.yul\":27273:27284   */\n      gt\n        /* \"#utility.yul\":27270:27307   */\n      iszero\n      tag_730\n      jumpi\n        /* \"#utility.yul\":27287:27305   */\n      tag_731\n      tag_448\n      jump\t// in\n    tag_731:\n        /* \"#utility.yul\":27270:27307   */\n    tag_730:\n        /* \"#utility.yul\":27120:27314   */\n      swap3\n      swap2\n      pop\n      pop\n      jump\t// out\n        /* \"#utility.yul\":27320:27500   */\n    tag_375:\n        /* \"#utility.yul\":27368:27445   */\n      0x4e487b7100000000000000000000000000000000000000000000000000000000\n        /* \"#utility.yul\":27365:27366   */\n      0x00\n        /* \"#utility.yul\":27358:27446   */\n      mstore\n        /* \"#utility.yul\":27465:27469   */\n      0x31\n        /* \"#utility.yul\":27462:27463   */\n      0x04\n        /* \"#utility.yul\":27455:27470   */\n      mstore\n        /* \"#utility.yul\":27489:27493   */\n      0x24\n        /* \"#utility.yul\":27486:27487   */\n      0x00\n        /* \"#utility.yul\":27479:27494   */\n      revert\n\n    auxdata: 0xa2646970667358221220572bb8a24472d8d0c6bd938602d2b1e905d6d2f1ad89e6e1e93a24b10e824c4164736f6c63430008180033\n}\n",
				"bytecode": {
					"linkReferences": {},
					"object": "6080604052600560065534801562000015575f80fd5b50336040518060400160405280600681526020017f48756d41696400000000000000000000000000000000000000000000000000008152506040518060400160405280600381526020017f48554d00000000000000000000000000000000000000000000000000000000008152508160039081620000949190620009b9565b508060049081620000a69190620009b9565b5050505f73ffffffffffffffffffffffffffffffffffffffff168173ffffffffffffffffffffffffffffffffffffffff16036200011c575f6040517f1e4fbdf700000000000000000000000000000000000000000000000000000000815260040162000113919062000ae0565b60405180910390fd5b6200012d81620001c960201b60201c565b50600160095f3373ffffffffffffffffffffffffffffffffffffffff1673ffffffffffffffffffffffffffffffffffffffff1681526020019081526020015f205f6101000a81548160ff021916908315150217905550620001c333620001986200028c60201b60201c565b600a620001a6919062000c84565b633b9aca00620001b7919062000cd4565b6200029460201b60201c565b62000e8a565b5f60055f9054906101000a900473ffffffffffffffffffffffffffffffffffffffff1690508160055f6101000a81548173ffffffffffffffffffffffffffffffffffffffff021916908373ffffffffffffffffffffffffffffffffffffffff1602179055508173ffffffffffffffffffffffffffffffffffffffff168173ffffffffffffffffffffffffffffffffffffffff167f8be0079c531659141344cd1fd0a4f28419497f9722a3daafe3b4186f6b6457e060405160405180910390a35050565b5f6012905090565b5f73ffffffffffffffffffffffffffffffffffffffff168273ffffffffffffffffffffffffffffffffffffffff160362000307575f6040517fec442f05000000000000000000000000000000000000000000000000000000008152600401620002fe919062000ae0565b60405180910390fd5b6200031a5f83836200031e60201b60201c565b5050565b60095f8473ffffffffffffffffffffffffffffffffffffffff1673ffffffffffffffffffffffffffffffffffffffff1681526020019081526020015f205f9054906101000a900460ff1680620003ba575060095f8373ffffffffffffffffffffffffffffffffffffffff1673ffffffffffffffffffffffffffffffffffffffff1681526020019081526020015f205f9054906101000a900460ff165b80620003c757505f600654145b15620003e657620003e08383836200053160201b60201c565b6200052c565b5f6103e860065483620003fa919062000cd4565b62000406919062000d4b565b90505f818362000417919062000d82565b90505f80600880549050036200042f57600162000443565b6008805490508362000442919062000d4b565b5b90505f6008805490508262000459919062000cd4565b8462000466919062000d82565b90505f5b600880549050811015620004d557620004c9886008838154811062000494576200049362000dbc565b5b905f5260205f20015f9054906101000a900473ffffffffffffffffffffffffffffffffffffffff16856200053160201b60201c565b8060010190506200046a565b505f81111562000514576200051387600a5f9054906101000a900473ffffffffffffffffffffffffffffffffffffffff16836200053160201b60201c565b5b620005278787856200053160201b60201c565b505050505b505050565b5f73ffffffffffffffffffffffffffffffffffffffff168373ffffffffffffffffffffffffffffffffffffffff160362000585578060025f82825462000578919062000de9565b9250508190555062000656565b5f805f8573ffffffffffffffffffffffffffffffffffffffff1673ffffffffffffffffffffffffffffffffffffffff1681526020019081526020015f205490508181101562000611578381836040517fe450d38c000000000000000000000000000000000000000000000000000000008152600401620006089392919062000e34565b60405180910390fd5b8181035f808673ffffffffffffffffffffffffffffffffffffffff1673ffffffffffffffffffffffffffffffffffffffff1681526020019081526020015f2081905550505b5f73ffffffffffffffffffffffffffffffffffffffff168273ffffffffffffffffffffffffffffffffffffffff16036200069f578060025f8282540392505081905550620006e9565b805f808473ffffffffffffffffffffffffffffffffffffffff1673ffffffffffffffffffffffffffffffffffffffff1681526020019081526020015f205f82825401925050819055505b8173ffffffffffffffffffffffffffffffffffffffff168373ffffffffffffffffffffffffffffffffffffffff167fddf252ad1be2c89b69c2b068fc378daa952ba7f163c4a11628f55a4df523b3ef8360405162000748919062000e6f565b60405180910390a3505050565b5f81519050919050565b7f4e487b71000000000000000000000000000000000000000000000000000000005f52604160045260245ffd5b7f4e487b71000000000000000000000000000000000000000000000000000000005f52602260045260245ffd5b5f6002820490506001821680620007d157607f821691505b602082108103620007e757620007e66200078c565b5b50919050565b5f819050815f5260205f209050919050565b5f6020601f8301049050919050565b5f82821b905092915050565b5f600883026200084b7fffffffffffffffffffffffffffffffffffffffffffffffffffffffffffffffff826200080e565b6200085786836200080e565b95508019841693508086168417925050509392505050565b5f819050919050565b5f819050919050565b5f620008a16200089b62000895846200086f565b62000878565b6200086f565b9050919050565b5f819050919050565b620008bc8362000881565b620008d4620008cb82620008a8565b8484546200081a565b825550505050565b5f90565b620008ea620008dc565b620008f7818484620008b1565b505050565b5b818110156200091e57620009125f82620008e0565b600181019050620008fd565b5050565b601f8211156200096d576200093781620007ed565b6200094284620007ff565b8101602085101562000952578190505b6200096a6200096185620007ff565b830182620008fc565b50505b505050565b5f82821c905092915050565b5f6200098f5f198460080262000972565b1980831691505092915050565b5f620009a983836200097e565b9150826002028217905092915050565b620009c48262000755565b67ffffffffffffffff811115620009e057620009df6200075f565b5b620009ec8254620007b9565b620009f982828562000922565b5f60209050601f83116001811462000a2f575f841562000a1a578287015190505b62000a2685826200099c565b86555062000a95565b601f19841662000a3f86620007ed565b5f5b8281101562000a685784890151825560018201915060208501945060208101905062000a41565b8683101562000a88578489015162000a84601f8916826200097e565b8355505b6001600288020188555050505b505050505050565b5f73ffffffffffffffffffffffffffffffffffffffff82169050919050565b5f62000ac88262000a9d565b9050919050565b62000ada8162000abc565b82525050565b5f60208201905062000af55f83018462000acf565b92915050565b7f4e487b71000000000000000000000000000000000000000000000000000000005f52601160045260245ffd5b5f8160011c9050919050565b5f808291508390505b600185111562000b855780860481111562000b5d5762000b5c62000afb565b5b600185161562000b6d5780820291505b808102905062000b7d8562000b28565b945062000b3d565b94509492505050565b5f8262000b9f576001905062000c71565b8162000bae575f905062000c71565b816001811462000bc7576002811462000bd25762000c08565b600191505062000c71565b60ff84111562000be75762000be662000afb565b5b8360020a91508482111562000c015762000c0062000afb565b5b5062000c71565b5060208310610133831016604e8410600b841016171562000c425782820a90508381111562000c3c5762000c3b62000afb565b5b62000c71565b62000c51848484600162000b34565b9250905081840481111562000c6b5762000c6a62000afb565b5b81810290505b9392505050565b5f60ff82169050919050565b5f62000c90826200086f565b915062000c9d8362000c78565b925062000ccc7fffffffffffffffffffffffffffffffffffffffffffffffffffffffffffffffff848462000b8e565b905092915050565b5f62000ce0826200086f565b915062000ced836200086f565b925082820262000cfd816200086f565b9150828204841483151762000d175762000d1662000afb565b5b5092915050565b7f4e487b71000000000000000000000000000000000000000000000000000000005f52601260045260245ffd5b5f62000d57826200086f565b915062000d64836200086f565b92508262000d775762000d7662000d1e565b5b828204905092915050565b5f62000d8e826200086f565b915062000d9b836200086f565b925082820390508181111562000db65762000db562000afb565b5b92915050565b7f4e487b71000000000000000000000000000000000000000000000000000000005f52603260045260245ffd5b5f62000df5826200086f565b915062000e02836200086f565b925082820190508082111562000e1d5762000e1c62000afb565b5b92915050565b62000e2e816200086f565b82525050565b5f60608201905062000e495f83018662000acf565b62000e58602083018562000e23565b62000e67604083018462000e23565b949350505050565b5f60208201905062000e845f83018462000e23565b92915050565b612e538062000e985f395ff3fe608060405234801561000f575f80fd5b5060043610610156575f3560e01c80637ce3489b116100c1578063a9059cbb1161007a578063a9059cbb146103da578063ae91470d1461040a578063dd62ed3e1461043a578063df8408fe1461046a578063f2fde38b14610486578063f9479ffa146104a257610156565b80637ce3489b146103185780637d5b6c60146103345780637fd6f15c146103645780638da5cb5b1461038257806395d89b41146103a0578063a8602fea146103be57610156565b806342966c681161011357806342966c68146102445780634618f6ac146102605780634626402b146102905780635342acb4146102ae57806370a08231146102de578063715018a61461030e57610156565b806306fdde031461015a578063095ea7b31461017857806318160ddd146101a857806323b872dd146101c6578063313ce567146101f65780633539c6b114610214575b5f80fd5b6101626104ac565b60405161016f9190612022565b60405180910390f35b610192600480360381019061018d91906120e0565b61053c565b60405161019f9190612138565b60405180910390f35b6101b061055e565b6040516101bd9190612160565b60405180910390f35b6101e060048036038101906101db9190612179565b610567565b6040516101ed9190612138565b60405180910390f35b6101fe610595565b60405161020b91906121e4565b60405180910390f35b61022e60048036038101906102299190612329565b61059d565b60405161023b9190612138565b60405180910390f35b61025e60048036038101906102599190612383565b610768565b005b61027a600480360381019061027591906123ae565b610775565b6040516102879190612022565b60405180910390f35b610298610810565b6040516102a591906123e8565b60405180910390f35b6102c860048036038101906102c391906123ae565b610835565b6040516102d59190612138565b60405180910390f35b6102f860048036038101906102f391906123ae565b610887565b6040516103059190612160565b60405180910390f35b6103166108cc565b005b610332600480360381019061032d9190612383565b6108df565b005b61034e60048036038101906103499190612383565b610935565b60405161035b91906123e8565b60405180910390f35b61036c610970565b6040516103799190612160565b60405180910390f35b61038a610976565b60405161039791906123e8565b60405180910390f35b6103a861099e565b6040516103b59190612022565b60405180910390f35b6103d860048036038101906103d391906123ae565b610a2e565b005b6103f460048036038101906103ef91906120e0565b610c27565b6040516104019190612138565b60405180910390f35b610424600480360381019061041f9190612401565b610c49565b6040516104319190612138565b60405180910390f35b610454600480360381019061044f9190612448565b610e1a565b6040516104619190612160565b60405180910390f35b610484600480360381019061047f91906124b0565b610e9c565b005b6104a0600480360381019061049b91906123ae565b610efc565b005b6104aa610f80565b005b6060600380546104bb9061251b565b80601f01602080910402602001604051908101604052809291908181526020018280546104e79061251b565b80156105325780601f1061050957610100808354040283529160200191610532565b820191905f5260205f20905b81548152906001019060200180831161051557829003601f168201915b5050505050905090565b5f806105466111a4565b90506105538185856111ab565b600191505092915050565b5f600254905090565b5f806105716111a4565b905061057e8582856111bd565b610589858585611250565b60019150509392505050565b5f6012905090565b5f6105a6611340565b5f73ffffffffffffffffffffffffffffffffffffffff168273ffffffffffffffffffffffffffffffffffffffff1603610614576040517f08c379a000000000000000000000000000000000000000000000000000000000815260040161060b90612595565b60405180910390fd5b5f5b6008805490508110156106d157838051906020012060075f60088481548110610642576106416125b3565b5b905f5260205f20015f9054906101000a900473ffffffffffffffffffffffffffffffffffffffff1673ffffffffffffffffffffffffffffffffffffffff1673ffffffffffffffffffffffffffffffffffffffff1681526020019081526020015f206040516106b0919061267c565b6040518091039020036106c6575f915050610762565b806001019050610616565b508260075f8473ffffffffffffffffffffffffffffffffffffffff1673ffffffffffffffffffffffffffffffffffffffff1681526020019081526020015f20908161071c919061282f565b507fa06dde3e644f7da70b4461f791ff2766ebeacd8cae66b3e6a98637a9dacbd900838360405161074e9291906128fe565b60405180910390a161075f826113c7565b90505b92915050565b61077233826115bf565b50565b6007602052805f5260405f205f9150905080546107919061251b565b80601f01602080910402602001604051908101604052809291908181526020018280546107bd9061251b565b80156108085780601f106107df57610100808354040283529160200191610808565b820191905f5260205f20905b8154815290600101906020018083116107eb57829003601f168201915b505050505081565b600a5f9054906101000a900473ffffffffffffffffffffffffffffffffffffffff1681565b5f60095f8373ffffffffffffffffffffffffffffffffffffffff1673ffffffffffffffffffffffffffffffffffffffff1681526020019081526020015f205f9054906101000a900460ff169050919050565b5f805f8373ffffffffffffffffffffffffffffffffffffffff1673ffffffffffffffffffffffffffffffffffffffff1681526020019081526020015f20549050919050565b6108d4611340565b6108dd5f61163e565b565b6108e7611340565b603281111561092b576040517f08c379a000000000000000000000000000000000000000000000000000000000815260040161092290612976565b60405180910390fd5b8060068190555050565b60088181548110610944575f80fd5b905f5260205f20015f915054906101000a900473ffffffffffffffffffffffffffffffffffffffff1681565b60065481565b5f60055f9054906101000a900473ffffffffffffffffffffffffffffffffffffffff16905090565b6060600480546109ad9061251b565b80601f01602080910402602001604051908101604052809291908181526020018280546109d99061251b565b8015610a245780601f106109fb57610100808354040283529160200191610a24565b820191905f5260205f20905b815481529060010190602001808311610a0757829003601f168201915b5050505050905090565b610a36611340565b5f73ffffffffffffffffffffffffffffffffffffffff168173ffffffffffffffffffffffffffffffffffffffff1603610aa4576040517f08c379a0000000000000000000000000000000000000000000000000000000008152600401610a9b906129de565b60405180910390fd5b5f73ffffffffffffffffffffffffffffffffffffffff16600a5f9054906101000a900473ffffffffffffffffffffffffffffffffffffffff1673ffffffffffffffffffffffffffffffffffffffff1614610b6e575f60095f600a5f9054906101000a900473ffffffffffffffffffffffffffffffffffffffff1673ffffffffffffffffffffffffffffffffffffffff1673ffffffffffffffffffffffffffffffffffffffff1681526020019081526020015f205f6101000a81548160ff0219169083151502179055505b80600a5f6101000a81548173ffffffffffffffffffffffffffffffffffffffff021916908373ffffffffffffffffffffffffffffffffffffffff160217905550600160095f600a5f9054906101000a900473ffffffffffffffffffffffffffffffffffffffff1673ffffffffffffffffffffffffffffffffffffffff1673ffffffffffffffffffffffffffffffffffffffff1681526020019081526020015f205f6101000a81548160ff02191690831515021790555050565b5f80610c316111a4565b9050610c3e818585611250565b600191505092915050565b5f610c52611340565b5f805b600880549050811015610d4a57838051906020012060075f60088481548110610c8157610c806125b3565b5b905f5260205f20015f9054906101000a900473ffffffffffffffffffffffffffffffffffffffff1673ffffffffffffffffffffffffffffffffffffffff1673ffffffffffffffffffffffffffffffffffffffff1681526020019081526020015f20604051610cef919061267c565b604051809103902003610d3f5760088181548110610d1057610d0f6125b3565b5b905f5260205f20015f9054906101000a900473ffffffffffffffffffffffffffffffffffffffff169150610d4a565b806001019050610c55565b505f73ffffffffffffffffffffffffffffffffffffffff168173ffffffffffffffffffffffffffffffffffffffff1603610d87575f915050610e15565b60075f8273ffffffffffffffffffffffffffffffffffffffff1673ffffffffffffffffffffffffffffffffffffffff1681526020019081526020015f205f610dcf9190611f40565b7ff7ce65b9119570713c55642c7ba09904806c36ec3da8fa5b1a8aa4a223132c2e8382604051610e009291906128fe565b60405180910390a1610e1181611701565b9150505b919050565b5f60015f8473ffffffffffffffffffffffffffffffffffffffff1673ffffffffffffffffffffffffffffffffffffffff1681526020019081526020015f205f8373ffffffffffffffffffffffffffffffffffffffff1673ffffffffffffffffffffffffffffffffffffffff1681526020019081526020015f2054905092915050565b610ea4611340565b8060095f8473ffffffffffffffffffffffffffffffffffffffff1673ffffffffffffffffffffffffffffffffffffffff1681526020019081526020015f205f6101000a81548160ff0219169083151502179055505050565b610f04611340565b5f73ffffffffffffffffffffffffffffffffffffffff168173ffffffffffffffffffffffffffffffffffffffff1603610f74575f6040517f1e4fbdf7000000000000000000000000000000000000000000000000000000008152600401610f6b91906123e8565b60405180910390fd5b610f7d8161163e565b50565b610f88611340565b5f73ffffffffffffffffffffffffffffffffffffffff16600a5f9054906101000a900473ffffffffffffffffffffffffffffffffffffffff1673ffffffffffffffffffffffffffffffffffffffff1603611017576040517f08c379a000000000000000000000000000000000000000000000000000000000815260040161100e90612a46565b60405180910390fd5b5f60088054905090505f8111611062576040517f08c379a000000000000000000000000000000000000000000000000000000000815260040161105990612aae565b60405180910390fd5b5f61108d600a5f9054906101000a900473ffffffffffffffffffffffffffffffffffffffff16610887565b90505f81116110d1576040517f08c379a00000000000000000000000000000000000000000000000000000000081526004016110c890612b16565b60405180910390fd5b5f82826110de9190612b8e565b90505f8111611122576040517f08c379a000000000000000000000000000000000000000000000000000000000815260040161111990612c2e565b60405180910390fd5b5f5b8381101561119e57611193600a5f9054906101000a900473ffffffffffffffffffffffffffffffffffffffff1660088381548110611165576111646125b3565b5b905f5260205f20015f9054906101000a900473ffffffffffffffffffffffffffffffffffffffff1684611827565b806001019050611124565b50505050565b5f33905090565b6111b88383836001611a40565b505050565b5f6111c88484610e1a565b90507fffffffffffffffffffffffffffffffffffffffffffffffffffffffffffffffff81101561124a578181101561123b578281836040517ffb8f41b200000000000000000000000000000000000000000000000000000000815260040161123293929190612c4c565b60405180910390fd5b61124984848484035f611a40565b5b50505050565b5f73ffffffffffffffffffffffffffffffffffffffff168373ffffffffffffffffffffffffffffffffffffffff16036112c0575f6040517f96c6fd1e0000000000000000000000000000000000000000000000000000000081526004016112b791906123e8565b60405180910390fd5b5f73ffffffffffffffffffffffffffffffffffffffff168273ffffffffffffffffffffffffffffffffffffffff1603611330575f6040517fec442f0500000000000000000000000000000000000000000000000000000000815260040161132791906123e8565b60405180910390fd5b61133b838383611c0f565b505050565b6113486111a4565b73ffffffffffffffffffffffffffffffffffffffff16611366610976565b73ffffffffffffffffffffffffffffffffffffffff16146113c5576113896111a4565b6040517f118cdaa70000000000000000000000000000000000000000000000000000000081526004016113bc91906123e8565b60405180910390fd5b565b5f8073ffffffffffffffffffffffffffffffffffffffff168273ffffffffffffffffffffffffffffffffffffffff1603611436576040517f08c379a000000000000000000000000000000000000000000000000000000000815260040161142d90612595565b60405180910390fd5b5f151560095f8473ffffffffffffffffffffffffffffffffffffffff1673ffffffffffffffffffffffffffffffffffffffff1681526020019081526020015f205f9054906101000a900460ff161515146114c5576040517f08c379a00000000000000000000000000000000000000000000000000000000081526004016114bc90612cf1565b60405180910390fd5b5f5b600880549050811015611556578273ffffffffffffffffffffffffffffffffffffffff16600882815481106114ff576114fe6125b3565b5b905f5260205f20015f9054906101000a900473ffffffffffffffffffffffffffffffffffffffff1673ffffffffffffffffffffffffffffffffffffffff160361154b575f9150506115ba565b8060010190506114c7565b5061156082611dea565b600160095f8473ffffffffffffffffffffffffffffffffffffffff1673ffffffffffffffffffffffffffffffffffffffff1681526020019081526020015f205f6101000a81548160ff021916908315150217905550600190505b919050565b5f73ffffffffffffffffffffffffffffffffffffffff168273ffffffffffffffffffffffffffffffffffffffff160361162f575f6040517f96c6fd1e00000000000000000000000000000000000000000000000000000000815260040161162691906123e8565b60405180910390fd5b61163a825f83611c0f565b5050565b5f60055f9054906101000a900473ffffffffffffffffffffffffffffffffffffffff1690508160055f6101000a81548173ffffffffffffffffffffffffffffffffffffffff021916908373ffffffffffffffffffffffffffffffffffffffff1602179055508173ffffffffffffffffffffffffffffffffffffffff168173ffffffffffffffffffffffffffffffffffffffff167f8be0079c531659141344cd1fd0a4f28419497f9722a3daafe3b4186f6b6457e060405160405180910390a35050565b5f8073ffffffffffffffffffffffffffffffffffffffff168273ffffffffffffffffffffffffffffffffffffffff1603611770576040517f08c379a000000000000000000000000000000000000000000000000000000000815260040161176790612595565b60405180910390fd5b5f5b6008805490508163ffffffff16101561181d578273ffffffffffffffffffffffffffffffffffffffff1660088263ffffffff16815481106117b6576117b56125b3565b5b905f5260205f20015f9054906101000a900473ffffffffffffffffffffffffffffffffffffffff1673ffffffffffffffffffffffffffffffffffffffff160361180c5761180281611e4d565b6001915050611822565b8061181690612d1e565b9050611772565b505f90505b919050565b5f73ffffffffffffffffffffffffffffffffffffffff168373ffffffffffffffffffffffffffffffffffffffff1603611877578060025f82825461186b9190612d49565b92505081905550611945565b5f805f8573ffffffffffffffffffffffffffffffffffffffff1673ffffffffffffffffffffffffffffffffffffffff1681526020019081526020015f2054905081811015611900578381836040517fe450d38c0000000000000000000000000000000000000000000000000000000081526004016118f793929190612c4c565b60405180910390fd5b8181035f808673ffffffffffffffffffffffffffffffffffffffff1673ffffffffffffffffffffffffffffffffffffffff1681526020019081526020015f2081905550505b5f73ffffffffffffffffffffffffffffffffffffffff168273ffffffffffffffffffffffffffffffffffffffff160361198c578060025f82825403925050819055506119d6565b805f808473ffffffffffffffffffffffffffffffffffffffff1673ffffffffffffffffffffffffffffffffffffffff1681526020019081526020015f205f82825401925050819055505b8173ffffffffffffffffffffffffffffffffffffffff168373ffffffffffffffffffffffffffffffffffffffff167fddf252ad1be2c89b69c2b068fc378daa952ba7f163c4a11628f55a4df523b3ef83604051611a339190612160565b60405180910390a3505050565b5f73ffffffffffffffffffffffffffffffffffffffff168473ffffffffffffffffffffffffffffffffffffffff1603611ab0575f6040517fe602df05000000000000000000000000000000000000000000000000000000008152600401611aa791906123e8565b60405180910390fd5b5f73ffffffffffffffffffffffffffffffffffffffff168373ffffffffffffffffffffffffffffffffffffffff1603611b20575f6040517f94280d62000000000000000000000000000000000000000000000000000000008152600401611b1791906123e8565b60405180910390fd5b8160015f8673ffffffffffffffffffffffffffffffffffffffff1673ffffffffffffffffffffffffffffffffffffffff1681526020019081526020015f205f8573ffffffffffffffffffffffffffffffffffffffff1673ffffffffffffffffffffffffffffffffffffffff1681526020019081526020015f20819055508015611c09578273ffffffffffffffffffffffffffffffffffffffff168473ffffffffffffffffffffffffffffffffffffffff167f8c5be1e5ebec7d5bd14f71427d1e84f3dd0314c0f7b2291e5b200ac8c7c3b92584604051611c009190612160565b60405180910390a35b50505050565b60095f8473ffffffffffffffffffffffffffffffffffffffff1673ffffffffffffffffffffffffffffffffffffffff1681526020019081526020015f205f9054906101000a900460ff1680611caa575060095f8373ffffffffffffffffffffffffffffffffffffffff1673ffffffffffffffffffffffffffffffffffffffff1681526020019081526020015f205f9054906101000a900460ff165b80611cb657505f600654145b15611ccb57611cc6838383611827565b611de5565b5f6103e860065483611cdd9190612d7c565b611ce79190612b8e565b90505f8183611cf69190612dbd565b90505f8060088054905003611d0c576001611d1e565b60088054905083611d1d9190612b8e565b5b90505f60088054905082611d329190612d7c565b84611d3d9190612dbd565b90505f5b600880549050811015611d9f57611d948860088381548110611d6657611d656125b3565b5b905f5260205f20015f9054906101000a900473ffffffffffffffffffffffffffffffffffffffff1685611827565b806001019050611d41565b505f811115611dd557611dd487600a5f9054906101000a900473ffffffffffffffffffffffffffffffffffffffff1683611827565b5b611de0878785611827565b505050505b505050565b600881908060018154018082558091505060019003905f5260205f20015f9091909190916101000a81548173ffffffffffffffffffffffffffffffffffffffff021916908373ffffffffffffffffffffffffffffffffffffffff16021790555050565b60086001600880549050611e619190612dbd565b81548110611e7257611e716125b3565b5b905f5260205f20015f9054906101000a900473ffffffffffffffffffffffffffffffffffffffff1660088263ffffffff1681548110611eb457611eb36125b3565b5b905f5260205f20015f6101000a81548173ffffffffffffffffffffffffffffffffffffffff021916908373ffffffffffffffffffffffffffffffffffffffff1602179055506008805480611f0b57611f0a612df0565b5b600190038181905f5260205f20015f6101000a81549073ffffffffffffffffffffffffffffffffffffffff0219169055905550565b508054611f4c9061251b565b5f825580601f10611f5d5750611f7a565b601f0160209004905f5260205f2090810190611f799190611f7d565b5b50565b5b80821115611f94575f815f905550600101611f7e565b5090565b5f81519050919050565b5f82825260208201905092915050565b5f5b83811015611fcf578082015181840152602081019050611fb4565b5f8484015250505050565b5f601f19601f8301169050919050565b5f611ff482611f98565b611ffe8185611fa2565b935061200e818560208601611fb2565b61201781611fda565b840191505092915050565b5f6020820190508181035f83015261203a8184611fea565b905092915050565b5f604051905090565b5f80fd5b5f80fd5b5f73ffffffffffffffffffffffffffffffffffffffff82169050919050565b5f61207c82612053565b9050919050565b61208c81612072565b8114612096575f80fd5b50565b5f813590506120a781612083565b92915050565b5f819050919050565b6120bf816120ad565b81146120c9575f80fd5b50565b5f813590506120da816120b6565b92915050565b5f80604083850312156120f6576120f561204b565b5b5f61210385828601612099565b9250506020612114858286016120cc565b9150509250929050565b5f8115159050919050565b6121328161211e565b82525050565b5f60208201905061214b5f830184612129565b92915050565b61215a816120ad565b82525050565b5f6020820190506121735f830184612151565b92915050565b5f805f606084860312156121905761218f61204b565b5b5f61219d86828701612099565b93505060206121ae86828701612099565b92505060406121bf868287016120cc565b9150509250925092565b5f60ff82169050919050565b6121de816121c9565b82525050565b5f6020820190506121f75f8301846121d5565b92915050565b5f80fd5b5f80fd5b7f4e487b71000000000000000000000000000000000000000000000000000000005f52604160045260245ffd5b61223b82611fda565b810181811067ffffffffffffffff8211171561225a57612259612205565b5b80604052505050565b5f61226c612042565b90506122788282612232565b919050565b5f67ffffffffffffffff82111561229757612296612205565b5b6122a082611fda565b9050602081019050919050565b828183375f83830152505050565b5f6122cd6122c88461227d565b612263565b9050828152602081018484840111156122e9576122e8612201565b5b6122f48482856122ad565b509392505050565b5f82601f8301126123105761230f6121fd565b5b81356123208482602086016122bb565b91505092915050565b5f806040838503121561233f5761233e61204b565b5b5f83013567ffffffffffffffff81111561235c5761235b61204f565b5b612368858286016122fc565b925050602061237985828601612099565b9150509250929050565b5f602082840312156123985761239761204b565b5b5f6123a5848285016120cc565b91505092915050565b5f602082840312156123c3576123c261204b565b5b5f6123d084828501612099565b91505092915050565b6123e281612072565b82525050565b5f6020820190506123fb5f8301846123d9565b92915050565b5f602082840312156124165761241561204b565b5b5f82013567ffffffffffffffff8111156124335761243261204f565b5b61243f848285016122fc565b91505092915050565b5f806040838503121561245e5761245d61204b565b5b5f61246b85828601612099565b925050602061247c85828601612099565b9150509250929050565b61248f8161211e565b8114612499575f80fd5b50565b5f813590506124aa81612486565b92915050565b5f80604083850312156124c6576124c561204b565b5b5f6124d385828601612099565b92505060206124e48582860161249c565b9150509250929050565b7f4e487b71000000000000000000000000000000000000000000000000000000005f52602260045260245ffd5b5f600282049050600182168061253257607f821691505b602082108103612545576125446124ee565b5b50919050565b7f496e76616c6964204e474f2061646472657373000000000000000000000000005f82015250565b5f61257f601383611fa2565b915061258a8261254b565b602082019050919050565b5f6020820190508181035f8301526125ac81612573565b9050919050565b7f4e487b71000000000000000000000000000000000000000000000000000000005f52603260045260245ffd5b5f81905092915050565b5f819050815f5260205f209050919050565b5f81546126088161251b565b61261281866125e0565b9450600182165f811461262c576001811461264157612673565b60ff1983168652811515820286019350612673565b61264a856125ea565b5f5b8381101561266b5781548189015260018201915060208101905061264c565b838801955050505b50505092915050565b5f61268782846125fc565b915081905092915050565b5f819050815f5260205f209050919050565b5f6020601f8301049050919050565b5f82821b905092915050565b5f600883026126ee7fffffffffffffffffffffffffffffffffffffffffffffffffffffffffffffffff826126b3565b6126f886836126b3565b95508019841693508086168417925050509392505050565b5f819050919050565b5f61273361272e612729846120ad565b612710565b6120ad565b9050919050565b5f819050919050565b61274c83612719565b6127606127588261273a565b8484546126bf565b825550505050565b5f90565b612774612768565b61277f818484612743565b505050565b5b818110156127a2576127975f8261276c565b600181019050612785565b5050565b601f8211156127e7576127b881612692565b6127c1846126a4565b810160208510156127d0578190505b6127e46127dc856126a4565b830182612784565b50505b505050565b5f82821c905092915050565b5f6128075f19846008026127ec565b1980831691505092915050565b5f61281f83836127f8565b9150826002028217905092915050565b61283882611f98565b67ffffffffffffffff81111561285157612850612205565b5b61285b825461251b565b6128668282856127a6565b5f60209050601f831160018114612897575f8415612885578287015190505b61288f8582612814565b8655506128f6565b601f1984166128a586612692565b5f5b828110156128cc578489015182556001820191506020850194506020810190506128a7565b868310156128e957848901516128e5601f8916826127f8565b8355505b6001600288020188555050505b505050505050565b5f6040820190508181035f8301526129168185611fea565b905061292560208301846123d9565b9392505050565b7f46656520746f6f206869676800000000000000000000000000000000000000005f82015250565b5f612960600c83611fa2565b915061296b8261292c565b602082019050919050565b5f6020820190508181035f83015261298d81612954565b9050919050565b7f496e76616c6964207472656173757279206164647265737300000000000000005f82015250565b5f6129c8601883611fa2565b91506129d382612994565b602082019050919050565b5f6020820190508181035f8301526129f5816129bc565b9050919050565b7f54726561737572792077616c6c6574206e6f74207365740000000000000000005f82015250565b5f612a30601783611fa2565b9150612a3b826129fc565b602082019050919050565b5f6020820190508181035f830152612a5d81612a24565b9050919050565b7f4e6f204e474f73207265676973746572656400000000000000000000000000005f82015250565b5f612a98601283611fa2565b9150612aa382612a64565b602082019050919050565b5f6020820190508181035f830152612ac581612a8c565b9050919050565b7f4e6f2066756e647320746f2064697374726962757465000000000000000000005f82015250565b5f612b00601683611fa2565b9150612b0b82612acc565b602082019050919050565b5f6020820190508181035f830152612b2d81612af4565b9050919050565b7f4e487b71000000000000000000000000000000000000000000000000000000005f52601260045260245ffd5b7f4e487b71000000000000000000000000000000000000000000000000000000005f52601160045260245ffd5b5f612b98826120ad565b9150612ba3836120ad565b925082612bb357612bb2612b34565b5b828204905092915050565b7f496e73756666696369656e742066756e647320666f72206469737472696275745f8201527f696f6e0000000000000000000000000000000000000000000000000000000000602082015250565b5f612c18602383611fa2565b9150612c2382612bbe565b604082019050919050565b5f6020820190508181035f830152612c4581612c0c565b9050919050565b5f606082019050612c5f5f8301866123d9565b612c6c6020830185612151565b612c796040830184612151565b949350505050565b7f546869732077616c6c657420697320616c7265616479207265676973746572655f8201527f6400000000000000000000000000000000000000000000000000000000000000602082015250565b5f612cdb602183611fa2565b9150612ce682612c81565b604082019050919050565b5f6020820190508181035f830152612d0881612ccf565b9050919050565b5f63ffffffff82169050919050565b5f612d2882612d0f565b915063ffffffff8203612d3e57612d3d612b61565b5b600182019050919050565b5f612d53826120ad565b9150612d5e836120ad565b9250828201905080821115612d7657612d75612b61565b5b92915050565b5f612d86826120ad565b9150612d91836120ad565b9250828202612d9f816120ad565b91508282048414831517612db657612db5612b61565b5b5092915050565b5f612dc7826120ad565b9150612dd2836120ad565b9250828203905081811115612dea57612de9612b61565b5b92915050565b7f4e487b71000000000000000000000000000000000000000000000000000000005f52603160045260245ffdfea2646970667358221220572bb8a24472d8d0c6bd938602d2b1e905d6d2f1ad89e6e1e93a24b10e824c4164736f6c63430008180033",
					"opcodes": "PUSH1 0x80 PUSH1 0x40 MSTORE PUSH1 0x5 PUSH1 0x6 SSTORE CALLVALUE DUP1 ISZERO PUSH3 0x15 JUMPI PUSH0 DUP1 REVERT JUMPDEST POP CALLER PUSH1 0x40 MLOAD DUP1 PUSH1 0x40 ADD PUSH1 0x40 MSTORE DUP1 PUSH1 0x6 DUP2 MSTORE PUSH1 0x20 ADD PUSH32 0x48756D4169640000000000000000000000000000000000000000000000000000 DUP2 MSTORE POP PUSH1 0x40 MLOAD DUP1 PUSH1 0x40 ADD PUSH1 0x40 MSTORE DUP1 PUSH1 0x3 DUP2 MSTORE PUSH1 0x20 ADD PUSH32 0x48554D0000000000000000000000000000000000000000000000000000000000 DUP2 MSTORE POP DUP2 PUSH1 0x3 SWAP1 DUP2 PUSH3 0x94 SWAP2 SWAP1 PUSH3 0x9B9 JUMP JUMPDEST POP DUP1 PUSH1 0x4 SWAP1 DUP2 PUSH3 0xA6 SWAP2 SWAP1 PUSH3 0x9B9 JUMP JUMPDEST POP POP POP PUSH0 PUSH20 0xFFFFFFFFFFFFFFFFFFFFFFFFFFFFFFFFFFFFFFFF AND DUP2 PUSH20 0xFFFFFFFFFFFFFFFFFFFFFFFFFFFFFFFFFFFFFFFF AND SUB PUSH3 0x11C JUMPI PUSH0 PUSH1 0x40 MLOAD PUSH32 0x1E4FBDF700000000000000000000000000000000000000000000000000000000 DUP2 MSTORE PUSH1 0x4 ADD PUSH3 0x113 SWAP2 SWAP1 PUSH3 0xAE0 JUMP JUMPDEST PUSH1 0x40 MLOAD DUP1 SWAP2 SUB SWAP1 REVERT JUMPDEST PUSH3 0x12D DUP2 PUSH3 0x1C9 PUSH1 0x20 SHL PUSH1 0x20 SHR JUMP JUMPDEST POP PUSH1 0x1 PUSH1 0x9 PUSH0 CALLER PUSH20 0xFFFFFFFFFFFFFFFFFFFFFFFFFFFFFFFFFFFFFFFF AND PUSH20 0xFFFFFFFFFFFFFFFFFFFFFFFFFFFFFFFFFFFFFFFF AND DUP2 MSTORE PUSH1 0x20 ADD SWAP1 DUP2 MSTORE PUSH1 0x20 ADD PUSH0 KECCAK256 PUSH0 PUSH2 0x100 EXP DUP2 SLOAD DUP2 PUSH1 0xFF MUL NOT AND SWAP1 DUP4 ISZERO ISZERO MUL OR SWAP1 SSTORE POP PUSH3 0x1C3 CALLER PUSH3 0x198 PUSH3 0x28C PUSH1 0x20 SHL PUSH1 0x20 SHR JUMP JUMPDEST PUSH1 0xA PUSH3 0x1A6 SWAP2 SWAP1 PUSH3 0xC84 JUMP JUMPDEST PUSH4 0x3B9ACA00 PUSH3 0x1B7 SWAP2 SWAP1 PUSH3 0xCD4 JUMP JUMPDEST PUSH3 0x294 PUSH1 0x20 SHL PUSH1 0x20 SHR JUMP JUMPDEST PUSH3 0xE8A JUMP JUMPDEST PUSH0 PUSH1 0x5 PUSH0 SWAP1 SLOAD SWAP1 PUSH2 0x100 EXP SWAP1 DIV PUSH20 0xFFFFFFFFFFFFFFFFFFFFFFFFFFFFFFFFFFFFFFFF AND SWAP1 POP DUP2 PUSH1 0x5 PUSH0 PUSH2 0x100 EXP DUP2 SLOAD DUP2 PUSH20 0xFFFFFFFFFFFFFFFFFFFFFFFFFFFFFFFFFFFFFFFF MUL NOT AND SWAP1 DUP4 PUSH20 0xFFFFFFFFFFFFFFFFFFFFFFFFFFFFFFFFFFFFFFFF AND MUL OR SWAP1 SSTORE POP DUP2 PUSH20 0xFFFFFFFFFFFFFFFFFFFFFFFFFFFFFFFFFFFFFFFF AND DUP2 PUSH20 0xFFFFFFFFFFFFFFFFFFFFFFFFFFFFFFFFFFFFFFFF AND PUSH32 0x8BE0079C531659141344CD1FD0A4F28419497F9722A3DAAFE3B4186F6B6457E0 PUSH1 0x40 MLOAD PUSH1 0x40 MLOAD DUP1 SWAP2 SUB SWAP1 LOG3 POP POP JUMP JUMPDEST PUSH0 PUSH1 0x12 SWAP1 POP SWAP1 JUMP JUMPDEST PUSH0 PUSH20 0xFFFFFFFFFFFFFFFFFFFFFFFFFFFFFFFFFFFFFFFF AND DUP3 PUSH20 0xFFFFFFFFFFFFFFFFFFFFFFFFFFFFFFFFFFFFFFFF AND SUB PUSH3 0x307 JUMPI PUSH0 PUSH1 0x40 MLOAD PUSH32 0xEC442F0500000000000000000000000000000000000000000000000000000000 DUP2 MSTORE PUSH1 0x4 ADD PUSH3 0x2FE SWAP2 SWAP1 PUSH3 0xAE0 JUMP JUMPDEST PUSH1 0x40 MLOAD DUP1 SWAP2 SUB SWAP1 REVERT JUMPDEST PUSH3 0x31A PUSH0 DUP4 DUP4 PUSH3 0x31E PUSH1 0x20 SHL PUSH1 0x20 SHR JUMP JUMPDEST POP POP JUMP JUMPDEST PUSH1 0x9 PUSH0 DUP5 PUSH20 0xFFFFFFFFFFFFFFFFFFFFFFFFFFFFFFFFFFFFFFFF AND PUSH20 0xFFFFFFFFFFFFFFFFFFFFFFFFFFFFFFFFFFFFFFFF AND DUP2 MSTORE PUSH1 0x20 ADD SWAP1 DUP2 MSTORE PUSH1 0x20 ADD PUSH0 KECCAK256 PUSH0 SWAP1 SLOAD SWAP1 PUSH2 0x100 EXP SWAP1 DIV PUSH1 0xFF AND DUP1 PUSH3 0x3BA JUMPI POP PUSH1 0x9 PUSH0 DUP4 PUSH20 0xFFFFFFFFFFFFFFFFFFFFFFFFFFFFFFFFFFFFFFFF AND PUSH20 0xFFFFFFFFFFFFFFFFFFFFFFFFFFFFFFFFFFFFFFFF AND DUP2 MSTORE PUSH1 0x20 ADD SWAP1 DUP2 MSTORE PUSH1 0x20 ADD PUSH0 KECCAK256 PUSH0 SWAP1 SLOAD SWAP1 PUSH2 0x100 EXP SWAP1 DIV PUSH1 0xFF AND JUMPDEST DUP1 PUSH3 0x3C7 JUMPI POP PUSH0 PUSH1 0x6 SLOAD EQ JUMPDEST ISZERO PUSH3 0x3E6 JUMPI PUSH3 0x3E0 DUP4 DUP4 DUP4 PUSH3 0x531 PUSH1 0x20 SHL PUSH1 0x20 SHR JUMP JUMPDEST PUSH3 0x52C JUMP JUMPDEST PUSH0 PUSH2 0x3E8 PUSH1 0x6 SLOAD DUP4 PUSH3 0x3FA SWAP2 SWAP1 PUSH3 0xCD4 JUMP JUMPDEST PUSH3 0x406 SWAP2 SWAP1 PUSH3 0xD4B JUMP JUMPDEST SWAP1 POP PUSH0 DUP2 DUP4 PUSH3 0x417 SWAP2 SWAP1 PUSH3 0xD82 JUMP JUMPDEST SWAP1 POP PUSH0 DUP1 PUSH1 0x8 DUP1 SLOAD SWAP1 POP SUB PUSH3 0x42F JUMPI PUSH1 0x1 PUSH3 0x443 JUMP JUMPDEST PUSH1 0x8 DUP1 SLOAD SWAP1 POP DUP4 PUSH3 0x442 SWAP2 SWAP1 PUSH3 0xD4B JUMP JUMPDEST JUMPDEST SWAP1 POP PUSH0 PUSH1 0x8 DUP1 SLOAD SWAP1 POP DUP3 PUSH3 0x459 SWAP2 SWAP1 PUSH3 0xCD4 JUMP JUMPDEST DUP5 PUSH3 0x466 SWAP2 SWAP1 PUSH3 0xD82 JUMP JUMPDEST SWAP1 POP PUSH0 JUMPDEST PUSH1 0x8 DUP1 SLOAD SWAP1 POP DUP2 LT ISZERO PUSH3 0x4D5 JUMPI PUSH3 0x4C9 DUP9 PUSH1 0x8 DUP4 DUP2 SLOAD DUP2 LT PUSH3 0x494 JUMPI PUSH3 0x493 PUSH3 0xDBC JUMP JUMPDEST JUMPDEST SWAP1 PUSH0 MSTORE PUSH1 0x20 PUSH0 KECCAK256 ADD PUSH0 SWAP1 SLOAD SWAP1 PUSH2 0x100 EXP SWAP1 DIV PUSH20 0xFFFFFFFFFFFFFFFFFFFFFFFFFFFFFFFFFFFFFFFF AND DUP6 PUSH3 0x531 PUSH1 0x20 SHL PUSH1 0x20 SHR JUMP JUMPDEST DUP1 PUSH1 0x1 ADD SWAP1 POP PUSH3 0x46A JUMP JUMPDEST POP PUSH0 DUP2 GT ISZERO PUSH3 0x514 JUMPI PUSH3 0x513 DUP8 PUSH1 0xA PUSH0 SWAP1 SLOAD SWAP1 PUSH2 0x100 EXP SWAP1 DIV PUSH20 0xFFFFFFFFFFFFFFFFFFFFFFFFFFFFFFFFFFFFFFFF AND DUP4 PUSH3 0x531 PUSH1 0x20 SHL PUSH1 0x20 SHR JUMP JUMPDEST JUMPDEST PUSH3 0x527 DUP8 DUP8 DUP6 PUSH3 0x531 PUSH1 0x20 SHL PUSH1 0x20 SHR JUMP JUMPDEST POP POP POP POP JUMPDEST POP POP POP JUMP JUMPDEST PUSH0 PUSH20 0xFFFFFFFFFFFFFFFFFFFFFFFFFFFFFFFFFFFFFFFF AND DUP4 PUSH20 0xFFFFFFFFFFFFFFFFFFFFFFFFFFFFFFFFFFFFFFFF AND SUB PUSH3 0x585 JUMPI DUP1 PUSH1 0x2 PUSH0 DUP3 DUP3 SLOAD PUSH3 0x578 SWAP2 SWAP1 PUSH3 0xDE9 JUMP JUMPDEST SWAP3 POP POP DUP2 SWAP1 SSTORE POP PUSH3 0x656 JUMP JUMPDEST PUSH0 DUP1 PUSH0 DUP6 PUSH20 0xFFFFFFFFFFFFFFFFFFFFFFFFFFFFFFFFFFFFFFFF AND PUSH20 0xFFFFFFFFFFFFFFFFFFFFFFFFFFFFFFFFFFFFFFFF AND DUP2 MSTORE PUSH1 0x20 ADD SWAP1 DUP2 MSTORE PUSH1 0x20 ADD PUSH0 KECCAK256 SLOAD SWAP1 POP DUP2 DUP2 LT ISZERO PUSH3 0x611 JUMPI DUP4 DUP2 DUP4 PUSH1 0x40 MLOAD PUSH32 0xE450D38C00000000000000000000000000000000000000000000000000000000 DUP2 MSTORE PUSH1 0x4 ADD PUSH3 0x608 SWAP4 SWAP3 SWAP2 SWAP1 PUSH3 0xE34 JUMP JUMPDEST PUSH1 0x40 MLOAD DUP1 SWAP2 SUB SWAP1 REVERT JUMPDEST DUP2 DUP2 SUB PUSH0 DUP1 DUP7 PUSH20 0xFFFFFFFFFFFFFFFFFFFFFFFFFFFFFFFFFFFFFFFF AND PUSH20 0xFFFFFFFFFFFFFFFFFFFFFFFFFFFFFFFFFFFFFFFF AND DUP2 MSTORE PUSH1 0x20 ADD SWAP1 DUP2 MSTORE PUSH1 0x20 ADD PUSH0 KECCAK256 DUP2 SWAP1 SSTORE POP POP JUMPDEST PUSH0 PUSH20 0xFFFFFFFFFFFFFFFFFFFFFFFFFFFFFFFFFFFFFFFF AND DUP3 PUSH20 0xFFFFFFFFFFFFFFFFFFFFFFFFFFFFFFFFFFFFFFFF AND SUB PUSH3 0x69F JUMPI DUP1 PUSH1 0x2 PUSH0 DUP3 DUP3 SLOAD SUB SWAP3 POP POP DUP2 SWAP1 SSTORE POP PUSH3 0x6E9 JUMP JUMPDEST DUP1 PUSH0 DUP1 DUP5 PUSH20 0xFFFFFFFFFFFFFFFFFFFFFFFFFFFFFFFFFFFFFFFF AND PUSH20 0xFFFFFFFFFFFFFFFFFFFFFFFFFFFFFFFFFFFFFFFF AND DUP2 MSTORE PUSH1 0x20 ADD SWAP1 DUP2 MSTORE PUSH1 0x20 ADD PUSH0 KECCAK256 PUSH0 DUP3 DUP3 SLOAD ADD SWAP3 POP POP DUP2 SWAP1 SSTORE POP JUMPDEST DUP2 PUSH20 0xFFFFFFFFFFFFFFFFFFFFFFFFFFFFFFFFFFFFFFFF AND DUP4 PUSH20 0xFFFFFFFFFFFFFFFFFFFFFFFFFFFFFFFFFFFFFFFF AND PUSH32 0xDDF252AD1BE2C89B69C2B068FC378DAA952BA7F163C4A11628F55A4DF523B3EF DUP4 PUSH1 0x40 MLOAD PUSH3 0x748 SWAP2 SWAP1 PUSH3 0xE6F JUMP JUMPDEST PUSH1 0x40 MLOAD DUP1 SWAP2 SUB SWAP1 LOG3 POP POP POP JUMP JUMPDEST PUSH0 DUP2 MLOAD SWAP1 POP SWAP2 SWAP1 POP JUMP JUMPDEST PUSH32 0x4E487B7100000000000000000000000000000000000000000000000000000000 PUSH0 MSTORE PUSH1 0x41 PUSH1 0x4 MSTORE PUSH1 0x24 PUSH0 REVERT JUMPDEST PUSH32 0x4E487B7100000000000000000000000000000000000000000000000000000000 PUSH0 MSTORE PUSH1 0x22 PUSH1 0x4 MSTORE PUSH1 0x24 PUSH0 REVERT JUMPDEST PUSH0 PUSH1 0x2 DUP3 DIV SWAP1 POP PUSH1 0x1 DUP3 AND DUP1 PUSH3 0x7D1 JUMPI PUSH1 0x7F DUP3 AND SWAP2 POP JUMPDEST PUSH1 0x20 DUP3 LT DUP2 SUB PUSH3 0x7E7 JUMPI PUSH3 0x7E6 PUSH3 0x78C JUMP JUMPDEST JUMPDEST POP SWAP2 SWAP1 POP JUMP JUMPDEST PUSH0 DUP2 SWAP1 POP DUP2 PUSH0 MSTORE PUSH1 0x20 PUSH0 KECCAK256 SWAP1 POP SWAP2 SWAP1 POP JUMP JUMPDEST PUSH0 PUSH1 0x20 PUSH1 0x1F DUP4 ADD DIV SWAP1 POP SWAP2 SWAP1 POP JUMP JUMPDEST PUSH0 DUP3 DUP3 SHL SWAP1 POP SWAP3 SWAP2 POP POP JUMP JUMPDEST PUSH0 PUSH1 0x8 DUP4 MUL PUSH3 0x84B PUSH32 0xFFFFFFFFFFFFFFFFFFFFFFFFFFFFFFFFFFFFFFFFFFFFFFFFFFFFFFFFFFFFFFFF DUP3 PUSH3 0x80E JUMP JUMPDEST PUSH3 0x857 DUP7 DUP4 PUSH3 0x80E JUMP JUMPDEST SWAP6 POP DUP1 NOT DUP5 AND SWAP4 POP DUP1 DUP7 AND DUP5 OR SWAP3 POP POP POP SWAP4 SWAP3 POP POP POP JUMP JUMPDEST PUSH0 DUP2 SWAP1 POP SWAP2 SWAP1 POP JUMP JUMPDEST PUSH0 DUP2 SWAP1 POP SWAP2 SWAP1 POP JUMP JUMPDEST PUSH0 PUSH3 0x8A1 PUSH3 0x89B PUSH3 0x895 DUP5 PUSH3 0x86F JUMP JUMPDEST PUSH3 0x878 JUMP JUMPDEST PUSH3 0x86F JUMP JUMPDEST SWAP1 POP SWAP2 SWAP1 POP JUMP JUMPDEST PUSH0 DUP2 SWAP1 POP SWAP2 SWAP1 POP JUMP JUMPDEST PUSH3 0x8BC DUP4 PUSH3 0x881 JUMP JUMPDEST PUSH3 0x8D4 PUSH3 0x8CB DUP3 PUSH3 0x8A8 JUMP JUMPDEST DUP5 DUP5 SLOAD PUSH3 0x81A JUMP JUMPDEST DUP3 SSTORE POP POP POP POP JUMP JUMPDEST PUSH0 SWAP1 JUMP JUMPDEST PUSH3 0x8EA PUSH3 0x8DC JUMP JUMPDEST PUSH3 0x8F7 DUP2 DUP5 DUP5 PUSH3 0x8B1 JUMP JUMPDEST POP POP POP JUMP JUMPDEST JUMPDEST DUP2 DUP2 LT ISZERO PUSH3 0x91E JUMPI PUSH3 0x912 PUSH0 DUP3 PUSH3 0x8E0 JUMP JUMPDEST PUSH1 0x1 DUP2 ADD SWAP1 POP PUSH3 0x8FD JUMP JUMPDEST POP POP JUMP JUMPDEST PUSH1 0x1F DUP3 GT ISZERO PUSH3 0x96D JUMPI PUSH3 0x937 DUP2 PUSH3 0x7ED JUMP JUMPDEST PUSH3 0x942 DUP5 PUSH3 0x7FF JUMP JUMPDEST DUP2 ADD PUSH1 0x20 DUP6 LT ISZERO PUSH3 0x952 JUMPI DUP2 SWAP1 POP JUMPDEST PUSH3 0x96A PUSH3 0x961 DUP6 PUSH3 0x7FF JUMP JUMPDEST DUP4 ADD DUP3 PUSH3 0x8FC JUMP JUMPDEST POP POP JUMPDEST POP POP POP JUMP JUMPDEST PUSH0 DUP3 DUP3 SHR SWAP1 POP SWAP3 SWAP2 POP POP JUMP JUMPDEST PUSH0 PUSH3 0x98F PUSH0 NOT DUP5 PUSH1 0x8 MUL PUSH3 0x972 JUMP JUMPDEST NOT DUP1 DUP4 AND SWAP2 POP POP SWAP3 SWAP2 POP POP JUMP JUMPDEST PUSH0 PUSH3 0x9A9 DUP4 DUP4 PUSH3 0x97E JUMP JUMPDEST SWAP2 POP DUP3 PUSH1 0x2 MUL DUP3 OR SWAP1 POP SWAP3 SWAP2 POP POP JUMP JUMPDEST PUSH3 0x9C4 DUP3 PUSH3 0x755 JUMP JUMPDEST PUSH8 0xFFFFFFFFFFFFFFFF DUP2 GT ISZERO PUSH3 0x9E0 JUMPI PUSH3 0x9DF PUSH3 0x75F JUMP JUMPDEST JUMPDEST PUSH3 0x9EC DUP3 SLOAD PUSH3 0x7B9 JUMP JUMPDEST PUSH3 0x9F9 DUP3 DUP3 DUP6 PUSH3 0x922 JUMP JUMPDEST PUSH0 PUSH1 0x20 SWAP1 POP PUSH1 0x1F DUP4 GT PUSH1 0x1 DUP2 EQ PUSH3 0xA2F JUMPI PUSH0 DUP5 ISZERO PUSH3 0xA1A JUMPI DUP3 DUP8 ADD MLOAD SWAP1 POP JUMPDEST PUSH3 0xA26 DUP6 DUP3 PUSH3 0x99C JUMP JUMPDEST DUP7 SSTORE POP PUSH3 0xA95 JUMP JUMPDEST PUSH1 0x1F NOT DUP5 AND PUSH3 0xA3F DUP7 PUSH3 0x7ED JUMP JUMPDEST PUSH0 JUMPDEST DUP3 DUP2 LT ISZERO PUSH3 0xA68 JUMPI DUP5 DUP10 ADD MLOAD DUP3 SSTORE PUSH1 0x1 DUP3 ADD SWAP2 POP PUSH1 0x20 DUP6 ADD SWAP5 POP PUSH1 0x20 DUP2 ADD SWAP1 POP PUSH3 0xA41 JUMP JUMPDEST DUP7 DUP4 LT ISZERO PUSH3 0xA88 JUMPI DUP5 DUP10 ADD MLOAD PUSH3 0xA84 PUSH1 0x1F DUP10 AND DUP3 PUSH3 0x97E JUMP JUMPDEST DUP4 SSTORE POP JUMPDEST PUSH1 0x1 PUSH1 0x2 DUP9 MUL ADD DUP9 SSTORE POP POP POP JUMPDEST POP POP POP POP POP POP JUMP JUMPDEST PUSH0 PUSH20 0xFFFFFFFFFFFFFFFFFFFFFFFFFFFFFFFFFFFFFFFF DUP3 AND SWAP1 POP SWAP2 SWAP1 POP JUMP JUMPDEST PUSH0 PUSH3 0xAC8 DUP3 PUSH3 0xA9D JUMP JUMPDEST SWAP1 POP SWAP2 SWAP1 POP JUMP JUMPDEST PUSH3 0xADA DUP2 PUSH3 0xABC JUMP JUMPDEST DUP3 MSTORE POP POP JUMP JUMPDEST PUSH0 PUSH1 0x20 DUP3 ADD SWAP1 POP PUSH3 0xAF5 PUSH0 DUP4 ADD DUP5 PUSH3 0xACF JUMP JUMPDEST SWAP3 SWAP2 POP POP JUMP JUMPDEST PUSH32 0x4E487B7100000000000000000000000000000000000000000000000000000000 PUSH0 MSTORE PUSH1 0x11 PUSH1 0x4 MSTORE PUSH1 0x24 PUSH0 REVERT JUMPDEST PUSH0 DUP2 PUSH1 0x1 SHR SWAP1 POP SWAP2 SWAP1 POP JUMP JUMPDEST PUSH0 DUP1 DUP3 SWAP2 POP DUP4 SWAP1 POP JUMPDEST PUSH1 0x1 DUP6 GT ISZERO PUSH3 0xB85 JUMPI DUP1 DUP7 DIV DUP2 GT ISZERO PUSH3 0xB5D JUMPI PUSH3 0xB5C PUSH3 0xAFB JUMP JUMPDEST JUMPDEST PUSH1 0x1 DUP6 AND ISZERO PUSH3 0xB6D JUMPI DUP1 DUP3 MUL SWAP2 POP JUMPDEST DUP1 DUP2 MUL SWAP1 POP PUSH3 0xB7D DUP6 PUSH3 0xB28 JUMP JUMPDEST SWAP5 POP PUSH3 0xB3D JUMP JUMPDEST SWAP5 POP SWAP5 SWAP3 POP POP POP JUMP JUMPDEST PUSH0 DUP3 PUSH3 0xB9F JUMPI PUSH1 0x1 SWAP1 POP PUSH3 0xC71 JUMP JUMPDEST DUP2 PUSH3 0xBAE JUMPI PUSH0 SWAP1 POP PUSH3 0xC71 JUMP JUMPDEST DUP2 PUSH1 0x1 DUP2 EQ PUSH3 0xBC7 JUMPI PUSH1 0x2 DUP2 EQ PUSH3 0xBD2 JUMPI PUSH3 0xC08 JUMP JUMPDEST PUSH1 0x1 SWAP2 POP POP PUSH3 0xC71 JUMP JUMPDEST PUSH1 0xFF DUP5 GT ISZERO PUSH3 0xBE7 JUMPI PUSH3 0xBE6 PUSH3 0xAFB JUMP JUMPDEST JUMPDEST DUP4 PUSH1 0x2 EXP SWAP2 POP DUP5 DUP3 GT ISZERO PUSH3 0xC01 JUMPI PUSH3 0xC00 PUSH3 0xAFB JUMP JUMPDEST JUMPDEST POP PUSH3 0xC71 JUMP JUMPDEST POP PUSH1 0x20 DUP4 LT PUSH2 0x133 DUP4 LT AND PUSH1 0x4E DUP5 LT PUSH1 0xB DUP5 LT AND OR ISZERO PUSH3 0xC42 JUMPI DUP3 DUP3 EXP SWAP1 POP DUP4 DUP2 GT ISZERO PUSH3 0xC3C JUMPI PUSH3 0xC3B PUSH3 0xAFB JUMP JUMPDEST JUMPDEST PUSH3 0xC71 JUMP JUMPDEST PUSH3 0xC51 DUP5 DUP5 DUP5 PUSH1 0x1 PUSH3 0xB34 JUMP JUMPDEST SWAP3 POP SWAP1 POP DUP2 DUP5 DIV DUP2 GT ISZERO PUSH3 0xC6B JUMPI PUSH3 0xC6A PUSH3 0xAFB JUMP JUMPDEST JUMPDEST DUP2 DUP2 MUL SWAP1 POP JUMPDEST SWAP4 SWAP3 POP POP POP JUMP JUMPDEST PUSH0 PUSH1 0xFF DUP3 AND SWAP1 POP SWAP2 SWAP1 POP JUMP JUMPDEST PUSH0 PUSH3 0xC90 DUP3 PUSH3 0x86F JUMP JUMPDEST SWAP2 POP PUSH3 0xC9D DUP4 PUSH3 0xC78 JUMP JUMPDEST SWAP3 POP PUSH3 0xCCC PUSH32 0xFFFFFFFFFFFFFFFFFFFFFFFFFFFFFFFFFFFFFFFFFFFFFFFFFFFFFFFFFFFFFFFF DUP5 DUP5 PUSH3 0xB8E JUMP JUMPDEST SWAP1 POP SWAP3 SWAP2 POP POP JUMP JUMPDEST PUSH0 PUSH3 0xCE0 DUP3 PUSH3 0x86F JUMP JUMPDEST SWAP2 POP PUSH3 0xCED DUP4 PUSH3 0x86F JUMP JUMPDEST SWAP3 POP DUP3 DUP3 MUL PUSH3 0xCFD DUP2 PUSH3 0x86F JUMP JUMPDEST SWAP2 POP DUP3 DUP3 DIV DUP5 EQ DUP4 ISZERO OR PUSH3 0xD17 JUMPI PUSH3 0xD16 PUSH3 0xAFB JUMP JUMPDEST JUMPDEST POP SWAP3 SWAP2 POP POP JUMP JUMPDEST PUSH32 0x4E487B7100000000000000000000000000000000000000000000000000000000 PUSH0 MSTORE PUSH1 0x12 PUSH1 0x4 MSTORE PUSH1 0x24 PUSH0 REVERT JUMPDEST PUSH0 PUSH3 0xD57 DUP3 PUSH3 0x86F JUMP JUMPDEST SWAP2 POP PUSH3 0xD64 DUP4 PUSH3 0x86F JUMP JUMPDEST SWAP3 POP DUP3 PUSH3 0xD77 JUMPI PUSH3 0xD76 PUSH3 0xD1E JUMP JUMPDEST JUMPDEST DUP3 DUP3 DIV SWAP1 POP SWAP3 SWAP2 POP POP JUMP JUMPDEST PUSH0 PUSH3 0xD8E DUP3 PUSH3 0x86F JUMP JUMPDEST SWAP2 POP PUSH3 0xD9B DUP4 PUSH3 0x86F JUMP JUMPDEST SWAP3 POP DUP3 DUP3 SUB SWAP1 POP DUP2 DUP2 GT ISZERO PUSH3 0xDB6 JUMPI PUSH3 0xDB5 PUSH3 0xAFB JUMP JUMPDEST JUMPDEST SWAP3 SWAP2 POP POP JUMP JUMPDEST PUSH32 0x4E487B7100000000000000000000000000000000000000000000000000000000 PUSH0 MSTORE PUSH1 0x32 PUSH1 0x4 MSTORE PUSH1 0x24 PUSH0 REVERT JUMPDEST PUSH0 PUSH3 0xDF5 DUP3 PUSH3 0x86F JUMP JUMPDEST SWAP2 POP PUSH3 0xE02 DUP4 PUSH3 0x86F JUMP JUMPDEST SWAP3 POP DUP3 DUP3 ADD SWAP1 POP DUP1 DUP3 GT ISZERO PUSH3 0xE1D JUMPI PUSH3 0xE1C PUSH3 0xAFB JUMP JUMPDEST JUMPDEST SWAP3 SWAP2 POP POP JUMP JUMPDEST PUSH3 0xE2E DUP2 PUSH3 0x86F JUMP JUMPDEST DUP3 MSTORE POP POP JUMP JUMPDEST PUSH0 PUSH1 0x60 DUP3 ADD SWAP1 POP PUSH3 0xE49 PUSH0 DUP4 ADD DUP7 PUSH3 0xACF JUMP JUMPDEST PUSH3 0xE58 PUSH1 0x20 DUP4 ADD DUP6 PUSH3 0xE23 JUMP JUMPDEST PUSH3 0xE67 PUSH1 0x40 DUP4 ADD DUP5 PUSH3 0xE23 JUMP JUMPDEST SWAP5 SWAP4 POP POP POP POP JUMP JUMPDEST PUSH0 PUSH1 0x20 DUP3 ADD SWAP1 POP PUSH3 0xE84 PUSH0 DUP4 ADD DUP5 PUSH3 0xE23 JUMP JUMPDEST SWAP3 SWAP2 POP POP JUMP JUMPDEST PUSH2 0x2E53 DUP1 PUSH3 0xE98 PUSH0 CODECOPY PUSH0 RETURN INVALID PUSH1 0x80 PUSH1 0x40 MSTORE CALLVALUE DUP1 ISZERO PUSH2 0xF JUMPI PUSH0 DUP1 REVERT JUMPDEST POP PUSH1 0x4 CALLDATASIZE LT PUSH2 0x156 JUMPI PUSH0 CALLDATALOAD PUSH1 0xE0 SHR DUP1 PUSH4 0x7CE3489B GT PUSH2 0xC1 JUMPI DUP1 PUSH4 0xA9059CBB GT PUSH2 0x7A JUMPI DUP1 PUSH4 0xA9059CBB EQ PUSH2 0x3DA JUMPI DUP1 PUSH4 0xAE91470D EQ PUSH2 0x40A JUMPI DUP1 PUSH4 0xDD62ED3E EQ PUSH2 0x43A JUMPI DUP1 PUSH4 0xDF8408FE EQ PUSH2 0x46A JUMPI DUP1 PUSH4 0xF2FDE38B EQ PUSH2 0x486 JUMPI DUP1 PUSH4 0xF9479FFA EQ PUSH2 0x4A2 JUMPI PUSH2 0x156 JUMP JUMPDEST DUP1 PUSH4 0x7CE3489B EQ PUSH2 0x318 JUMPI DUP1 PUSH4 0x7D5B6C60 EQ PUSH2 0x334 JUMPI DUP1 PUSH4 0x7FD6F15C EQ PUSH2 0x364 JUMPI DUP1 PUSH4 0x8DA5CB5B EQ PUSH2 0x382 JUMPI DUP1 PUSH4 0x95D89B41 EQ PUSH2 0x3A0 JUMPI DUP1 PUSH4 0xA8602FEA EQ PUSH2 0x3BE JUMPI PUSH2 0x156 JUMP JUMPDEST DUP1 PUSH4 0x42966C68 GT PUSH2 0x113 JUMPI DUP1 PUSH4 0x42966C68 EQ PUSH2 0x244 JUMPI DUP1 PUSH4 0x4618F6AC EQ PUSH2 0x260 JUMPI DUP1 PUSH4 0x4626402B EQ PUSH2 0x290 JUMPI DUP1 PUSH4 0x5342ACB4 EQ PUSH2 0x2AE JUMPI DUP1 PUSH4 0x70A08231 EQ PUSH2 0x2DE JUMPI DUP1 PUSH4 0x715018A6 EQ PUSH2 0x30E JUMPI PUSH2 0x156 JUMP JUMPDEST DUP1 PUSH4 0x6FDDE03 EQ PUSH2 0x15A JUMPI DUP1 PUSH4 0x95EA7B3 EQ PUSH2 0x178 JUMPI DUP1 PUSH4 0x18160DDD EQ PUSH2 0x1A8 JUMPI DUP1 PUSH4 0x23B872DD EQ PUSH2 0x1C6 JUMPI DUP1 PUSH4 0x313CE567 EQ PUSH2 0x1F6 JUMPI DUP1 PUSH4 0x3539C6B1 EQ PUSH2 0x214 JUMPI JUMPDEST PUSH0 DUP1 REVERT JUMPDEST PUSH2 0x162 PUSH2 0x4AC JUMP JUMPDEST PUSH1 0x40 MLOAD PUSH2 0x16F SWAP2 SWAP1 PUSH2 0x2022 JUMP JUMPDEST PUSH1 0x40 MLOAD DUP1 SWAP2 SUB SWAP1 RETURN JUMPDEST PUSH2 0x192 PUSH1 0x4 DUP1 CALLDATASIZE SUB DUP2 ADD SWAP1 PUSH2 0x18D SWAP2 SWAP1 PUSH2 0x20E0 JUMP JUMPDEST PUSH2 0x53C JUMP JUMPDEST PUSH1 0x40 MLOAD PUSH2 0x19F SWAP2 SWAP1 PUSH2 0x2138 JUMP JUMPDEST PUSH1 0x40 MLOAD DUP1 SWAP2 SUB SWAP1 RETURN JUMPDEST PUSH2 0x1B0 PUSH2 0x55E JUMP JUMPDEST PUSH1 0x40 MLOAD PUSH2 0x1BD SWAP2 SWAP1 PUSH2 0x2160 JUMP JUMPDEST PUSH1 0x40 MLOAD DUP1 SWAP2 SUB SWAP1 RETURN JUMPDEST PUSH2 0x1E0 PUSH1 0x4 DUP1 CALLDATASIZE SUB DUP2 ADD SWAP1 PUSH2 0x1DB SWAP2 SWAP1 PUSH2 0x2179 JUMP JUMPDEST PUSH2 0x567 JUMP JUMPDEST PUSH1 0x40 MLOAD PUSH2 0x1ED SWAP2 SWAP1 PUSH2 0x2138 JUMP JUMPDEST PUSH1 0x40 MLOAD DUP1 SWAP2 SUB SWAP1 RETURN JUMPDEST PUSH2 0x1FE PUSH2 0x595 JUMP JUMPDEST PUSH1 0x40 MLOAD PUSH2 0x20B SWAP2 SWAP1 PUSH2 0x21E4 JUMP JUMPDEST PUSH1 0x40 MLOAD DUP1 SWAP2 SUB SWAP1 RETURN JUMPDEST PUSH2 0x22E PUSH1 0x4 DUP1 CALLDATASIZE SUB DUP2 ADD SWAP1 PUSH2 0x229 SWAP2 SWAP1 PUSH2 0x2329 JUMP JUMPDEST PUSH2 0x59D JUMP JUMPDEST PUSH1 0x40 MLOAD PUSH2 0x23B SWAP2 SWAP1 PUSH2 0x2138 JUMP JUMPDEST PUSH1 0x40 MLOAD DUP1 SWAP2 SUB SWAP1 RETURN JUMPDEST PUSH2 0x25E PUSH1 0x4 DUP1 CALLDATASIZE SUB DUP2 ADD SWAP1 PUSH2 0x259 SWAP2 SWAP1 PUSH2 0x2383 JUMP JUMPDEST PUSH2 0x768 JUMP JUMPDEST STOP JUMPDEST PUSH2 0x27A PUSH1 0x4 DUP1 CALLDATASIZE SUB DUP2 ADD SWAP1 PUSH2 0x275 SWAP2 SWAP1 PUSH2 0x23AE JUMP JUMPDEST PUSH2 0x775 JUMP JUMPDEST PUSH1 0x40 MLOAD PUSH2 0x287 SWAP2 SWAP1 PUSH2 0x2022 JUMP JUMPDEST PUSH1 0x40 MLOAD DUP1 SWAP2 SUB SWAP1 RETURN JUMPDEST PUSH2 0x298 PUSH2 0x810 JUMP JUMPDEST PUSH1 0x40 MLOAD PUSH2 0x2A5 SWAP2 SWAP1 PUSH2 0x23E8 JUMP JUMPDEST PUSH1 0x40 MLOAD DUP1 SWAP2 SUB SWAP1 RETURN JUMPDEST PUSH2 0x2C8 PUSH1 0x4 DUP1 CALLDATASIZE SUB DUP2 ADD SWAP1 PUSH2 0x2C3 SWAP2 SWAP1 PUSH2 0x23AE JUMP JUMPDEST PUSH2 0x835 JUMP JUMPDEST PUSH1 0x40 MLOAD PUSH2 0x2D5 SWAP2 SWAP1 PUSH2 0x2138 JUMP JUMPDEST PUSH1 0x40 MLOAD DUP1 SWAP2 SUB SWAP1 RETURN JUMPDEST PUSH2 0x2F8 PUSH1 0x4 DUP1 CALLDATASIZE SUB DUP2 ADD SWAP1 PUSH2 0x2F3 SWAP2 SWAP1 PUSH2 0x23AE JUMP JUMPDEST PUSH2 0x887 JUMP JUMPDEST PUSH1 0x40 MLOAD PUSH2 0x305 SWAP2 SWAP1 PUSH2 0x2160 JUMP JUMPDEST PUSH1 0x40 MLOAD DUP1 SWAP2 SUB SWAP1 RETURN JUMPDEST PUSH2 0x316 PUSH2 0x8CC JUMP JUMPDEST STOP JUMPDEST PUSH2 0x332 PUSH1 0x4 DUP1 CALLDATASIZE SUB DUP2 ADD SWAP1 PUSH2 0x32D SWAP2 SWAP1 PUSH2 0x2383 JUMP JUMPDEST PUSH2 0x8DF JUMP JUMPDEST STOP JUMPDEST PUSH2 0x34E PUSH1 0x4 DUP1 CALLDATASIZE SUB DUP2 ADD SWAP1 PUSH2 0x349 SWAP2 SWAP1 PUSH2 0x2383 JUMP JUMPDEST PUSH2 0x935 JUMP JUMPDEST PUSH1 0x40 MLOAD PUSH2 0x35B SWAP2 SWAP1 PUSH2 0x23E8 JUMP JUMPDEST PUSH1 0x40 MLOAD DUP1 SWAP2 SUB SWAP1 RETURN JUMPDEST PUSH2 0x36C PUSH2 0x970 JUMP JUMPDEST PUSH1 0x40 MLOAD PUSH2 0x379 SWAP2 SWAP1 PUSH2 0x2160 JUMP JUMPDEST PUSH1 0x40 MLOAD DUP1 SWAP2 SUB SWAP1 RETURN JUMPDEST PUSH2 0x38A PUSH2 0x976 JUMP JUMPDEST PUSH1 0x40 MLOAD PUSH2 0x397 SWAP2 SWAP1 PUSH2 0x23E8 JUMP JUMPDEST PUSH1 0x40 MLOAD DUP1 SWAP2 SUB SWAP1 RETURN JUMPDEST PUSH2 0x3A8 PUSH2 0x99E JUMP JUMPDEST PUSH1 0x40 MLOAD PUSH2 0x3B5 SWAP2 SWAP1 PUSH2 0x2022 JUMP JUMPDEST PUSH1 0x40 MLOAD DUP1 SWAP2 SUB SWAP1 RETURN JUMPDEST PUSH2 0x3D8 PUSH1 0x4 DUP1 CALLDATASIZE SUB DUP2 ADD SWAP1 PUSH2 0x3D3 SWAP2 SWAP1 PUSH2 0x23AE JUMP JUMPDEST PUSH2 0xA2E JUMP JUMPDEST STOP JUMPDEST PUSH2 0x3F4 PUSH1 0x4 DUP1 CALLDATASIZE SUB DUP2 ADD SWAP1 PUSH2 0x3EF SWAP2 SWAP1 PUSH2 0x20E0 JUMP JUMPDEST PUSH2 0xC27 JUMP JUMPDEST PUSH1 0x40 MLOAD PUSH2 0x401 SWAP2 SWAP1 PUSH2 0x2138 JUMP JUMPDEST PUSH1 0x40 MLOAD DUP1 SWAP2 SUB SWAP1 RETURN JUMPDEST PUSH2 0x424 PUSH1 0x4 DUP1 CALLDATASIZE SUB DUP2 ADD SWAP1 PUSH2 0x41F SWAP2 SWAP1 PUSH2 0x2401 JUMP JUMPDEST PUSH2 0xC49 JUMP JUMPDEST PUSH1 0x40 MLOAD PUSH2 0x431 SWAP2 SWAP1 PUSH2 0x2138 JUMP JUMPDEST PUSH1 0x40 MLOAD DUP1 SWAP2 SUB SWAP1 RETURN JUMPDEST PUSH2 0x454 PUSH1 0x4 DUP1 CALLDATASIZE SUB DUP2 ADD SWAP1 PUSH2 0x44F SWAP2 SWAP1 PUSH2 0x2448 JUMP JUMPDEST PUSH2 0xE1A JUMP JUMPDEST PUSH1 0x40 MLOAD PUSH2 0x461 SWAP2 SWAP1 PUSH2 0x2160 JUMP JUMPDEST PUSH1 0x40 MLOAD DUP1 SWAP2 SUB SWAP1 RETURN JUMPDEST PUSH2 0x484 PUSH1 0x4 DUP1 CALLDATASIZE SUB DUP2 ADD SWAP1 PUSH2 0x47F SWAP2 SWAP1 PUSH2 0x24B0 JUMP JUMPDEST PUSH2 0xE9C JUMP JUMPDEST STOP JUMPDEST PUSH2 0x4A0 PUSH1 0x4 DUP1 CALLDATASIZE SUB DUP2 ADD SWAP1 PUSH2 0x49B SWAP2 SWAP1 PUSH2 0x23AE JUMP JUMPDEST PUSH2 0xEFC JUMP JUMPDEST STOP JUMPDEST PUSH2 0x4AA PUSH2 0xF80 JUMP JUMPDEST STOP JUMPDEST PUSH1 0x60 PUSH1 0x3 DUP1 SLOAD PUSH2 0x4BB SWAP1 PUSH2 0x251B JUMP JUMPDEST DUP1 PUSH1 0x1F ADD PUSH1 0x20 DUP1 SWAP2 DIV MUL PUSH1 0x20 ADD PUSH1 0x40 MLOAD SWAP1 DUP2 ADD PUSH1 0x40 MSTORE DUP1 SWAP3 SWAP2 SWAP1 DUP2 DUP2 MSTORE PUSH1 0x20 ADD DUP3 DUP1 SLOAD PUSH2 0x4E7 SWAP1 PUSH2 0x251B JUMP JUMPDEST DUP1 ISZERO PUSH2 0x532 JUMPI DUP1 PUSH1 0x1F LT PUSH2 0x509 JUMPI PUSH2 0x100 DUP1 DUP4 SLOAD DIV MUL DUP4 MSTORE SWAP2 PUSH1 0x20 ADD SWAP2 PUSH2 0x532 JUMP JUMPDEST DUP3 ADD SWAP2 SWAP1 PUSH0 MSTORE PUSH1 0x20 PUSH0 KECCAK256 SWAP1 JUMPDEST DUP2 SLOAD DUP2 MSTORE SWAP1 PUSH1 0x1 ADD SWAP1 PUSH1 0x20 ADD DUP1 DUP4 GT PUSH2 0x515 JUMPI DUP3 SWAP1 SUB PUSH1 0x1F AND DUP3 ADD SWAP2 JUMPDEST POP POP POP POP POP SWAP1 POP SWAP1 JUMP JUMPDEST PUSH0 DUP1 PUSH2 0x546 PUSH2 0x11A4 JUMP JUMPDEST SWAP1 POP PUSH2 0x553 DUP2 DUP6 DUP6 PUSH2 0x11AB JUMP JUMPDEST PUSH1 0x1 SWAP2 POP POP SWAP3 SWAP2 POP POP JUMP JUMPDEST PUSH0 PUSH1 0x2 SLOAD SWAP1 POP SWAP1 JUMP JUMPDEST PUSH0 DUP1 PUSH2 0x571 PUSH2 0x11A4 JUMP JUMPDEST SWAP1 POP PUSH2 0x57E DUP6 DUP3 DUP6 PUSH2 0x11BD JUMP JUMPDEST PUSH2 0x589 DUP6 DUP6 DUP6 PUSH2 0x1250 JUMP JUMPDEST PUSH1 0x1 SWAP2 POP POP SWAP4 SWAP3 POP POP POP JUMP JUMPDEST PUSH0 PUSH1 0x12 SWAP1 POP SWAP1 JUMP JUMPDEST PUSH0 PUSH2 0x5A6 PUSH2 0x1340 JUMP JUMPDEST PUSH0 PUSH20 0xFFFFFFFFFFFFFFFFFFFFFFFFFFFFFFFFFFFFFFFF AND DUP3 PUSH20 0xFFFFFFFFFFFFFFFFFFFFFFFFFFFFFFFFFFFFFFFF AND SUB PUSH2 0x614 JUMPI PUSH1 0x40 MLOAD PUSH32 0x8C379A000000000000000000000000000000000000000000000000000000000 DUP2 MSTORE PUSH1 0x4 ADD PUSH2 0x60B SWAP1 PUSH2 0x2595 JUMP JUMPDEST PUSH1 0x40 MLOAD DUP1 SWAP2 SUB SWAP1 REVERT JUMPDEST PUSH0 JUMPDEST PUSH1 0x8 DUP1 SLOAD SWAP1 POP DUP2 LT ISZERO PUSH2 0x6D1 JUMPI DUP4 DUP1 MLOAD SWAP1 PUSH1 0x20 ADD KECCAK256 PUSH1 0x7 PUSH0 PUSH1 0x8 DUP5 DUP2 SLOAD DUP2 LT PUSH2 0x642 JUMPI PUSH2 0x641 PUSH2 0x25B3 JUMP JUMPDEST JUMPDEST SWAP1 PUSH0 MSTORE PUSH1 0x20 PUSH0 KECCAK256 ADD PUSH0 SWAP1 SLOAD SWAP1 PUSH2 0x100 EXP SWAP1 DIV PUSH20 0xFFFFFFFFFFFFFFFFFFFFFFFFFFFFFFFFFFFFFFFF AND PUSH20 0xFFFFFFFFFFFFFFFFFFFFFFFFFFFFFFFFFFFFFFFF AND PUSH20 0xFFFFFFFFFFFFFFFFFFFFFFFFFFFFFFFFFFFFFFFF AND DUP2 MSTORE PUSH1 0x20 ADD SWAP1 DUP2 MSTORE PUSH1 0x20 ADD PUSH0 KECCAK256 PUSH1 0x40 MLOAD PUSH2 0x6B0 SWAP2 SWAP1 PUSH2 0x267C JUMP JUMPDEST PUSH1 0x40 MLOAD DUP1 SWAP2 SUB SWAP1 KECCAK256 SUB PUSH2 0x6C6 JUMPI PUSH0 SWAP2 POP POP PUSH2 0x762 JUMP JUMPDEST DUP1 PUSH1 0x1 ADD SWAP1 POP PUSH2 0x616 JUMP JUMPDEST POP DUP3 PUSH1 0x7 PUSH0 DUP5 PUSH20 0xFFFFFFFFFFFFFFFFFFFFFFFFFFFFFFFFFFFFFFFF AND PUSH20 0xFFFFFFFFFFFFFFFFFFFFFFFFFFFFFFFFFFFFFFFF AND DUP2 MSTORE PUSH1 0x20 ADD SWAP1 DUP2 MSTORE PUSH1 0x20 ADD PUSH0 KECCAK256 SWAP1 DUP2 PUSH2 0x71C SWAP2 SWAP1 PUSH2 0x282F JUMP JUMPDEST POP PUSH32 0xA06DDE3E644F7DA70B4461F791FF2766EBEACD8CAE66B3E6A98637A9DACBD900 DUP4 DUP4 PUSH1 0x40 MLOAD PUSH2 0x74E SWAP3 SWAP2 SWAP1 PUSH2 0x28FE JUMP JUMPDEST PUSH1 0x40 MLOAD DUP1 SWAP2 SUB SWAP1 LOG1 PUSH2 0x75F DUP3 PUSH2 0x13C7 JUMP JUMPDEST SWAP1 POP JUMPDEST SWAP3 SWAP2 POP POP JUMP JUMPDEST PUSH2 0x772 CALLER DUP3 PUSH2 0x15BF JUMP JUMPDEST POP JUMP JUMPDEST PUSH1 0x7 PUSH1 0x20 MSTORE DUP1 PUSH0 MSTORE PUSH1 0x40 PUSH0 KECCAK256 PUSH0 SWAP2 POP SWAP1 POP DUP1 SLOAD PUSH2 0x791 SWAP1 PUSH2 0x251B JUMP JUMPDEST DUP1 PUSH1 0x1F ADD PUSH1 0x20 DUP1 SWAP2 DIV MUL PUSH1 0x20 ADD PUSH1 0x40 MLOAD SWAP1 DUP2 ADD PUSH1 0x40 MSTORE DUP1 SWAP3 SWAP2 SWAP1 DUP2 DUP2 MSTORE PUSH1 0x20 ADD DUP3 DUP1 SLOAD PUSH2 0x7BD SWAP1 PUSH2 0x251B JUMP JUMPDEST DUP1 ISZERO PUSH2 0x808 JUMPI DUP1 PUSH1 0x1F LT PUSH2 0x7DF JUMPI PUSH2 0x100 DUP1 DUP4 SLOAD DIV MUL DUP4 MSTORE SWAP2 PUSH1 0x20 ADD SWAP2 PUSH2 0x808 JUMP JUMPDEST DUP3 ADD SWAP2 SWAP1 PUSH0 MSTORE PUSH1 0x20 PUSH0 KECCAK256 SWAP1 JUMPDEST DUP2 SLOAD DUP2 MSTORE SWAP1 PUSH1 0x1 ADD SWAP1 PUSH1 0x20 ADD DUP1 DUP4 GT PUSH2 0x7EB JUMPI DUP3 SWAP1 SUB PUSH1 0x1F AND DUP3 ADD SWAP2 JUMPDEST POP POP POP POP POP DUP2 JUMP JUMPDEST PUSH1 0xA PUSH0 SWAP1 SLOAD SWAP1 PUSH2 0x100 EXP SWAP1 DIV PUSH20 0xFFFFFFFFFFFFFFFFFFFFFFFFFFFFFFFFFFFFFFFF AND DUP2 JUMP JUMPDEST PUSH0 PUSH1 0x9 PUSH0 DUP4 PUSH20 0xFFFFFFFFFFFFFFFFFFFFFFFFFFFFFFFFFFFFFFFF AND PUSH20 0xFFFFFFFFFFFFFFFFFFFFFFFFFFFFFFFFFFFFFFFF AND DUP2 MSTORE PUSH1 0x20 ADD SWAP1 DUP2 MSTORE PUSH1 0x20 ADD PUSH0 KECCAK256 PUSH0 SWAP1 SLOAD SWAP1 PUSH2 0x100 EXP SWAP1 DIV PUSH1 0xFF AND SWAP1 POP SWAP2 SWAP1 POP JUMP JUMPDEST PUSH0 DUP1 PUSH0 DUP4 PUSH20 0xFFFFFFFFFFFFFFFFFFFFFFFFFFFFFFFFFFFFFFFF AND PUSH20 0xFFFFFFFFFFFFFFFFFFFFFFFFFFFFFFFFFFFFFFFF AND DUP2 MSTORE PUSH1 0x20 ADD SWAP1 DUP2 MSTORE PUSH1 0x20 ADD PUSH0 KECCAK256 SLOAD SWAP1 POP SWAP2 SWAP1 POP JUMP JUMPDEST PUSH2 0x8D4 PUSH2 0x1340 JUMP JUMPDEST PUSH2 0x8DD PUSH0 PUSH2 0x163E JUMP JUMPDEST JUMP JUMPDEST PUSH2 0x8E7 PUSH2 0x1340 JUMP JUMPDEST PUSH1 0x32 DUP2 GT ISZERO PUSH2 0x92B JUMPI PUSH1 0x40 MLOAD PUSH32 0x8C379A000000000000000000000000000000000000000000000000000000000 DUP2 MSTORE PUSH1 0x4 ADD PUSH2 0x922 SWAP1 PUSH2 0x2976 JUMP JUMPDEST PUSH1 0x40 MLOAD DUP1 SWAP2 SUB SWAP1 REVERT JUMPDEST DUP1 PUSH1 0x6 DUP2 SWAP1 SSTORE POP POP JUMP JUMPDEST PUSH1 0x8 DUP2 DUP2 SLOAD DUP2 LT PUSH2 0x944 JUMPI PUSH0 DUP1 REVERT JUMPDEST SWAP1 PUSH0 MSTORE PUSH1 0x20 PUSH0 KECCAK256 ADD PUSH0 SWAP2 POP SLOAD SWAP1 PUSH2 0x100 EXP SWAP1 DIV PUSH20 0xFFFFFFFFFFFFFFFFFFFFFFFFFFFFFFFFFFFFFFFF AND DUP2 JUMP JUMPDEST PUSH1 0x6 SLOAD DUP2 JUMP JUMPDEST PUSH0 PUSH1 0x5 PUSH0 SWAP1 SLOAD SWAP1 PUSH2 0x100 EXP SWAP1 DIV PUSH20 0xFFFFFFFFFFFFFFFFFFFFFFFFFFFFFFFFFFFFFFFF AND SWAP1 POP SWAP1 JUMP JUMPDEST PUSH1 0x60 PUSH1 0x4 DUP1 SLOAD PUSH2 0x9AD SWAP1 PUSH2 0x251B JUMP JUMPDEST DUP1 PUSH1 0x1F ADD PUSH1 0x20 DUP1 SWAP2 DIV MUL PUSH1 0x20 ADD PUSH1 0x40 MLOAD SWAP1 DUP2 ADD PUSH1 0x40 MSTORE DUP1 SWAP3 SWAP2 SWAP1 DUP2 DUP2 MSTORE PUSH1 0x20 ADD DUP3 DUP1 SLOAD PUSH2 0x9D9 SWAP1 PUSH2 0x251B JUMP JUMPDEST DUP1 ISZERO PUSH2 0xA24 JUMPI DUP1 PUSH1 0x1F LT PUSH2 0x9FB JUMPI PUSH2 0x100 DUP1 DUP4 SLOAD DIV MUL DUP4 MSTORE SWAP2 PUSH1 0x20 ADD SWAP2 PUSH2 0xA24 JUMP JUMPDEST DUP3 ADD SWAP2 SWAP1 PUSH0 MSTORE PUSH1 0x20 PUSH0 KECCAK256 SWAP1 JUMPDEST DUP2 SLOAD DUP2 MSTORE SWAP1 PUSH1 0x1 ADD SWAP1 PUSH1 0x20 ADD DUP1 DUP4 GT PUSH2 0xA07 JUMPI DUP3 SWAP1 SUB PUSH1 0x1F AND DUP3 ADD SWAP2 JUMPDEST POP POP POP POP POP SWAP1 POP SWAP1 JUMP JUMPDEST PUSH2 0xA36 PUSH2 0x1340 JUMP JUMPDEST PUSH0 PUSH20 0xFFFFFFFFFFFFFFFFFFFFFFFFFFFFFFFFFFFFFFFF AND DUP2 PUSH20 0xFFFFFFFFFFFFFFFFFFFFFFFFFFFFFFFFFFFFFFFF AND SUB PUSH2 0xAA4 JUMPI PUSH1 0x40 MLOAD PUSH32 0x8C379A000000000000000000000000000000000000000000000000000000000 DUP2 MSTORE PUSH1 0x4 ADD PUSH2 0xA9B SWAP1 PUSH2 0x29DE JUMP JUMPDEST PUSH1 0x40 MLOAD DUP1 SWAP2 SUB SWAP1 REVERT JUMPDEST PUSH0 PUSH20 0xFFFFFFFFFFFFFFFFFFFFFFFFFFFFFFFFFFFFFFFF AND PUSH1 0xA PUSH0 SWAP1 SLOAD SWAP1 PUSH2 0x100 EXP SWAP1 DIV PUSH20 0xFFFFFFFFFFFFFFFFFFFFFFFFFFFFFFFFFFFFFFFF AND PUSH20 0xFFFFFFFFFFFFFFFFFFFFFFFFFFFFFFFFFFFFFFFF AND EQ PUSH2 0xB6E JUMPI PUSH0 PUSH1 0x9 PUSH0 PUSH1 0xA PUSH0 SWAP1 SLOAD SWAP1 PUSH2 0x100 EXP SWAP1 DIV PUSH20 0xFFFFFFFFFFFFFFFFFFFFFFFFFFFFFFFFFFFFFFFF AND PUSH20 0xFFFFFFFFFFFFFFFFFFFFFFFFFFFFFFFFFFFFFFFF AND PUSH20 0xFFFFFFFFFFFFFFFFFFFFFFFFFFFFFFFFFFFFFFFF AND DUP2 MSTORE PUSH1 0x20 ADD SWAP1 DUP2 MSTORE PUSH1 0x20 ADD PUSH0 KECCAK256 PUSH0 PUSH2 0x100 EXP DUP2 SLOAD DUP2 PUSH1 0xFF MUL NOT AND SWAP1 DUP4 ISZERO ISZERO MUL OR SWAP1 SSTORE POP JUMPDEST DUP1 PUSH1 0xA PUSH0 PUSH2 0x100 EXP DUP2 SLOAD DUP2 PUSH20 0xFFFFFFFFFFFFFFFFFFFFFFFFFFFFFFFFFFFFFFFF MUL NOT AND SWAP1 DUP4 PUSH20 0xFFFFFFFFFFFFFFFFFFFFFFFFFFFFFFFFFFFFFFFF AND MUL OR SWAP1 SSTORE POP PUSH1 0x1 PUSH1 0x9 PUSH0 PUSH1 0xA PUSH0 SWAP1 SLOAD SWAP1 PUSH2 0x100 EXP SWAP1 DIV PUSH20 0xFFFFFFFFFFFFFFFFFFFFFFFFFFFFFFFFFFFFFFFF AND PUSH20 0xFFFFFFFFFFFFFFFFFFFFFFFFFFFFFFFFFFFFFFFF AND PUSH20 0xFFFFFFFFFFFFFFFFFFFFFFFFFFFFFFFFFFFFFFFF AND DUP2 MSTORE PUSH1 0x20 ADD SWAP1 DUP2 MSTORE PUSH1 0x20 ADD PUSH0 KECCAK256 PUSH0 PUSH2 0x100 EXP DUP2 SLOAD DUP2 PUSH1 0xFF MUL NOT AND SWAP1 DUP4 ISZERO ISZERO MUL OR SWAP1 SSTORE POP POP JUMP JUMPDEST PUSH0 DUP1 PUSH2 0xC31 PUSH2 0x11A4 JUMP JUMPDEST SWAP1 POP PUSH2 0xC3E DUP2 DUP6 DUP6 PUSH2 0x1250 JUMP JUMPDEST PUSH1 0x1 SWAP2 POP POP SWAP3 SWAP2 POP POP JUMP JUMPDEST PUSH0 PUSH2 0xC52 PUSH2 0x1340 JUMP JUMPDEST PUSH0 DUP1 JUMPDEST PUSH1 0x8 DUP1 SLOAD SWAP1 POP DUP2 LT ISZERO PUSH2 0xD4A JUMPI DUP4 DUP1 MLOAD SWAP1 PUSH1 0x20 ADD KECCAK256 PUSH1 0x7 PUSH0 PUSH1 0x8 DUP5 DUP2 SLOAD DUP2 LT PUSH2 0xC81 JUMPI PUSH2 0xC80 PUSH2 0x25B3 JUMP JUMPDEST JUMPDEST SWAP1 PUSH0 MSTORE PUSH1 0x20 PUSH0 KECCAK256 ADD PUSH0 SWAP1 SLOAD SWAP1 PUSH2 0x100 EXP SWAP1 DIV PUSH20 0xFFFFFFFFFFFFFFFFFFFFFFFFFFFFFFFFFFFFFFFF AND PUSH20 0xFFFFFFFFFFFFFFFFFFFFFFFFFFFFFFFFFFFFFFFF AND PUSH20 0xFFFFFFFFFFFFFFFFFFFFFFFFFFFFFFFFFFFFFFFF AND DUP2 MSTORE PUSH1 0x20 ADD SWAP1 DUP2 MSTORE PUSH1 0x20 ADD PUSH0 KECCAK256 PUSH1 0x40 MLOAD PUSH2 0xCEF SWAP2 SWAP1 PUSH2 0x267C JUMP JUMPDEST PUSH1 0x40 MLOAD DUP1 SWAP2 SUB SWAP1 KECCAK256 SUB PUSH2 0xD3F JUMPI PUSH1 0x8 DUP2 DUP2 SLOAD DUP2 LT PUSH2 0xD10 JUMPI PUSH2 0xD0F PUSH2 0x25B3 JUMP JUMPDEST JUMPDEST SWAP1 PUSH0 MSTORE PUSH1 0x20 PUSH0 KECCAK256 ADD PUSH0 SWAP1 SLOAD SWAP1 PUSH2 0x100 EXP SWAP1 DIV PUSH20 0xFFFFFFFFFFFFFFFFFFFFFFFFFFFFFFFFFFFFFFFF AND SWAP2 POP PUSH2 0xD4A JUMP JUMPDEST DUP1 PUSH1 0x1 ADD SWAP1 POP PUSH2 0xC55 JUMP JUMPDEST POP PUSH0 PUSH20 0xFFFFFFFFFFFFFFFFFFFFFFFFFFFFFFFFFFFFFFFF AND DUP2 PUSH20 0xFFFFFFFFFFFFFFFFFFFFFFFFFFFFFFFFFFFFFFFF AND SUB PUSH2 0xD87 JUMPI PUSH0 SWAP2 POP POP PUSH2 0xE15 JUMP JUMPDEST PUSH1 0x7 PUSH0 DUP3 PUSH20 0xFFFFFFFFFFFFFFFFFFFFFFFFFFFFFFFFFFFFFFFF AND PUSH20 0xFFFFFFFFFFFFFFFFFFFFFFFFFFFFFFFFFFFFFFFF AND DUP2 MSTORE PUSH1 0x20 ADD SWAP1 DUP2 MSTORE PUSH1 0x20 ADD PUSH0 KECCAK256 PUSH0 PUSH2 0xDCF SWAP2 SWAP1 PUSH2 0x1F40 JUMP JUMPDEST PUSH32 0xF7CE65B9119570713C55642C7BA09904806C36EC3DA8FA5B1A8AA4A223132C2E DUP4 DUP3 PUSH1 0x40 MLOAD PUSH2 0xE00 SWAP3 SWAP2 SWAP1 PUSH2 0x28FE JUMP JUMPDEST PUSH1 0x40 MLOAD DUP1 SWAP2 SUB SWAP1 LOG1 PUSH2 0xE11 DUP2 PUSH2 0x1701 JUMP JUMPDEST SWAP2 POP POP JUMPDEST SWAP2 SWAP1 POP JUMP JUMPDEST PUSH0 PUSH1 0x1 PUSH0 DUP5 PUSH20 0xFFFFFFFFFFFFFFFFFFFFFFFFFFFFFFFFFFFFFFFF AND PUSH20 0xFFFFFFFFFFFFFFFFFFFFFFFFFFFFFFFFFFFFFFFF AND DUP2 MSTORE PUSH1 0x20 ADD SWAP1 DUP2 MSTORE PUSH1 0x20 ADD PUSH0 KECCAK256 PUSH0 DUP4 PUSH20 0xFFFFFFFFFFFFFFFFFFFFFFFFFFFFFFFFFFFFFFFF AND PUSH20 0xFFFFFFFFFFFFFFFFFFFFFFFFFFFFFFFFFFFFFFFF AND DUP2 MSTORE PUSH1 0x20 ADD SWAP1 DUP2 MSTORE PUSH1 0x20 ADD PUSH0 KECCAK256 SLOAD SWAP1 POP SWAP3 SWAP2 POP POP JUMP JUMPDEST PUSH2 0xEA4 PUSH2 0x1340 JUMP JUMPDEST DUP1 PUSH1 0x9 PUSH0 DUP5 PUSH20 0xFFFFFFFFFFFFFFFFFFFFFFFFFFFFFFFFFFFFFFFF AND PUSH20 0xFFFFFFFFFFFFFFFFFFFFFFFFFFFFFFFFFFFFFFFF AND DUP2 MSTORE PUSH1 0x20 ADD SWAP1 DUP2 MSTORE PUSH1 0x20 ADD PUSH0 KECCAK256 PUSH0 PUSH2 0x100 EXP DUP2 SLOAD DUP2 PUSH1 0xFF MUL NOT AND SWAP1 DUP4 ISZERO ISZERO MUL OR SWAP1 SSTORE POP POP POP JUMP JUMPDEST PUSH2 0xF04 PUSH2 0x1340 JUMP JUMPDEST PUSH0 PUSH20 0xFFFFFFFFFFFFFFFFFFFFFFFFFFFFFFFFFFFFFFFF AND DUP2 PUSH20 0xFFFFFFFFFFFFFFFFFFFFFFFFFFFFFFFFFFFFFFFF AND SUB PUSH2 0xF74 JUMPI PUSH0 PUSH1 0x40 MLOAD PUSH32 0x1E4FBDF700000000000000000000000000000000000000000000000000000000 DUP2 MSTORE PUSH1 0x4 ADD PUSH2 0xF6B SWAP2 SWAP1 PUSH2 0x23E8 JUMP JUMPDEST PUSH1 0x40 MLOAD DUP1 SWAP2 SUB SWAP1 REVERT JUMPDEST PUSH2 0xF7D DUP2 PUSH2 0x163E JUMP JUMPDEST POP JUMP JUMPDEST PUSH2 0xF88 PUSH2 0x1340 JUMP JUMPDEST PUSH0 PUSH20 0xFFFFFFFFFFFFFFFFFFFFFFFFFFFFFFFFFFFFFFFF AND PUSH1 0xA PUSH0 SWAP1 SLOAD SWAP1 PUSH2 0x100 EXP SWAP1 DIV PUSH20 0xFFFFFFFFFFFFFFFFFFFFFFFFFFFFFFFFFFFFFFFF AND PUSH20 0xFFFFFFFFFFFFFFFFFFFFFFFFFFFFFFFFFFFFFFFF AND SUB PUSH2 0x1017 JUMPI PUSH1 0x40 MLOAD PUSH32 0x8C379A000000000000000000000000000000000000000000000000000000000 DUP2 MSTORE PUSH1 0x4 ADD PUSH2 0x100E SWAP1 PUSH2 0x2A46 JUMP JUMPDEST PUSH1 0x40 MLOAD DUP1 SWAP2 SUB SWAP1 REVERT JUMPDEST PUSH0 PUSH1 0x8 DUP1 SLOAD SWAP1 POP SWAP1 POP PUSH0 DUP2 GT PUSH2 0x1062 JUMPI PUSH1 0x40 MLOAD PUSH32 0x8C379A000000000000000000000000000000000000000000000000000000000 DUP2 MSTORE PUSH1 0x4 ADD PUSH2 0x1059 SWAP1 PUSH2 0x2AAE JUMP JUMPDEST PUSH1 0x40 MLOAD DUP1 SWAP2 SUB SWAP1 REVERT JUMPDEST PUSH0 PUSH2 0x108D PUSH1 0xA PUSH0 SWAP1 SLOAD SWAP1 PUSH2 0x100 EXP SWAP1 DIV PUSH20 0xFFFFFFFFFFFFFFFFFFFFFFFFFFFFFFFFFFFFFFFF AND PUSH2 0x887 JUMP JUMPDEST SWAP1 POP PUSH0 DUP2 GT PUSH2 0x10D1 JUMPI PUSH1 0x40 MLOAD PUSH32 0x8C379A000000000000000000000000000000000000000000000000000000000 DUP2 MSTORE PUSH1 0x4 ADD PUSH2 0x10C8 SWAP1 PUSH2 0x2B16 JUMP JUMPDEST PUSH1 0x40 MLOAD DUP1 SWAP2 SUB SWAP1 REVERT JUMPDEST PUSH0 DUP3 DUP3 PUSH2 0x10DE SWAP2 SWAP1 PUSH2 0x2B8E JUMP JUMPDEST SWAP1 POP PUSH0 DUP2 GT PUSH2 0x1122 JUMPI PUSH1 0x40 MLOAD PUSH32 0x8C379A000000000000000000000000000000000000000000000000000000000 DUP2 MSTORE PUSH1 0x4 ADD PUSH2 0x1119 SWAP1 PUSH2 0x2C2E JUMP JUMPDEST PUSH1 0x40 MLOAD DUP1 SWAP2 SUB SWAP1 REVERT JUMPDEST PUSH0 JUMPDEST DUP4 DUP2 LT ISZERO PUSH2 0x119E JUMPI PUSH2 0x1193 PUSH1 0xA PUSH0 SWAP1 SLOAD SWAP1 PUSH2 0x100 EXP SWAP1 DIV PUSH20 0xFFFFFFFFFFFFFFFFFFFFFFFFFFFFFFFFFFFFFFFF AND PUSH1 0x8 DUP4 DUP2 SLOAD DUP2 LT PUSH2 0x1165 JUMPI PUSH2 0x1164 PUSH2 0x25B3 JUMP JUMPDEST JUMPDEST SWAP1 PUSH0 MSTORE PUSH1 0x20 PUSH0 KECCAK256 ADD PUSH0 SWAP1 SLOAD SWAP1 PUSH2 0x100 EXP SWAP1 DIV PUSH20 0xFFFFFFFFFFFFFFFFFFFFFFFFFFFFFFFFFFFFFFFF AND DUP5 PUSH2 0x1827 JUMP JUMPDEST DUP1 PUSH1 0x1 ADD SWAP1 POP PUSH2 0x1124 JUMP JUMPDEST POP POP POP POP JUMP JUMPDEST PUSH0 CALLER SWAP1 POP SWAP1 JUMP JUMPDEST PUSH2 0x11B8 DUP4 DUP4 DUP4 PUSH1 0x1 PUSH2 0x1A40 JUMP JUMPDEST POP POP POP JUMP JUMPDEST PUSH0 PUSH2 0x11C8 DUP5 DUP5 PUSH2 0xE1A JUMP JUMPDEST SWAP1 POP PUSH32 0xFFFFFFFFFFFFFFFFFFFFFFFFFFFFFFFFFFFFFFFFFFFFFFFFFFFFFFFFFFFFFFFF DUP2 LT ISZERO PUSH2 0x124A JUMPI DUP2 DUP2 LT ISZERO PUSH2 0x123B JUMPI DUP3 DUP2 DUP4 PUSH1 0x40 MLOAD PUSH32 0xFB8F41B200000000000000000000000000000000000000000000000000000000 DUP2 MSTORE PUSH1 0x4 ADD PUSH2 0x1232 SWAP4 SWAP3 SWAP2 SWAP1 PUSH2 0x2C4C JUMP JUMPDEST PUSH1 0x40 MLOAD DUP1 SWAP2 SUB SWAP1 REVERT JUMPDEST PUSH2 0x1249 DUP5 DUP5 DUP5 DUP5 SUB PUSH0 PUSH2 0x1A40 JUMP JUMPDEST JUMPDEST POP POP POP POP JUMP JUMPDEST PUSH0 PUSH20 0xFFFFFFFFFFFFFFFFFFFFFFFFFFFFFFFFFFFFFFFF AND DUP4 PUSH20 0xFFFFFFFFFFFFFFFFFFFFFFFFFFFFFFFFFFFFFFFF AND SUB PUSH2 0x12C0 JUMPI PUSH0 PUSH1 0x40 MLOAD PUSH32 0x96C6FD1E00000000000000000000000000000000000000000000000000000000 DUP2 MSTORE PUSH1 0x4 ADD PUSH2 0x12B7 SWAP2 SWAP1 PUSH2 0x23E8 JUMP JUMPDEST PUSH1 0x40 MLOAD DUP1 SWAP2 SUB SWAP1 REVERT JUMPDEST PUSH0 PUSH20 0xFFFFFFFFFFFFFFFFFFFFFFFFFFFFFFFFFFFFFFFF AND DUP3 PUSH20 0xFFFFFFFFFFFFFFFFFFFFFFFFFFFFFFFFFFFFFFFF AND SUB PUSH2 0x1330 JUMPI PUSH0 PUSH1 0x40 MLOAD PUSH32 0xEC442F0500000000000000000000000000000000000000000000000000000000 DUP2 MSTORE PUSH1 0x4 ADD PUSH2 0x1327 SWAP2 SWAP1 PUSH2 0x23E8 JUMP JUMPDEST PUSH1 0x40 MLOAD DUP1 SWAP2 SUB SWAP1 REVERT JUMPDEST PUSH2 0x133B DUP4 DUP4 DUP4 PUSH2 0x1C0F JUMP JUMPDEST POP POP POP JUMP JUMPDEST PUSH2 0x1348 PUSH2 0x11A4 JUMP JUMPDEST PUSH20 0xFFFFFFFFFFFFFFFFFFFFFFFFFFFFFFFFFFFFFFFF AND PUSH2 0x1366 PUSH2 0x976 JUMP JUMPDEST PUSH20 0xFFFFFFFFFFFFFFFFFFFFFFFFFFFFFFFFFFFFFFFF AND EQ PUSH2 0x13C5 JUMPI PUSH2 0x1389 PUSH2 0x11A4 JUMP JUMPDEST PUSH1 0x40 MLOAD PUSH32 0x118CDAA700000000000000000000000000000000000000000000000000000000 DUP2 MSTORE PUSH1 0x4 ADD PUSH2 0x13BC SWAP2 SWAP1 PUSH2 0x23E8 JUMP JUMPDEST PUSH1 0x40 MLOAD DUP1 SWAP2 SUB SWAP1 REVERT JUMPDEST JUMP JUMPDEST PUSH0 DUP1 PUSH20 0xFFFFFFFFFFFFFFFFFFFFFFFFFFFFFFFFFFFFFFFF AND DUP3 PUSH20 0xFFFFFFFFFFFFFFFFFFFFFFFFFFFFFFFFFFFFFFFF AND SUB PUSH2 0x1436 JUMPI PUSH1 0x40 MLOAD PUSH32 0x8C379A000000000000000000000000000000000000000000000000000000000 DUP2 MSTORE PUSH1 0x4 ADD PUSH2 0x142D SWAP1 PUSH2 0x2595 JUMP JUMPDEST PUSH1 0x40 MLOAD DUP1 SWAP2 SUB SWAP1 REVERT JUMPDEST PUSH0 ISZERO ISZERO PUSH1 0x9 PUSH0 DUP5 PUSH20 0xFFFFFFFFFFFFFFFFFFFFFFFFFFFFFFFFFFFFFFFF AND PUSH20 0xFFFFFFFFFFFFFFFFFFFFFFFFFFFFFFFFFFFFFFFF AND DUP2 MSTORE PUSH1 0x20 ADD SWAP1 DUP2 MSTORE PUSH1 0x20 ADD PUSH0 KECCAK256 PUSH0 SWAP1 SLOAD SWAP1 PUSH2 0x100 EXP SWAP1 DIV PUSH1 0xFF AND ISZERO ISZERO EQ PUSH2 0x14C5 JUMPI PUSH1 0x40 MLOAD PUSH32 0x8C379A000000000000000000000000000000000000000000000000000000000 DUP2 MSTORE PUSH1 0x4 ADD PUSH2 0x14BC SWAP1 PUSH2 0x2CF1 JUMP JUMPDEST PUSH1 0x40 MLOAD DUP1 SWAP2 SUB SWAP1 REVERT JUMPDEST PUSH0 JUMPDEST PUSH1 0x8 DUP1 SLOAD SWAP1 POP DUP2 LT ISZERO PUSH2 0x1556 JUMPI DUP3 PUSH20 0xFFFFFFFFFFFFFFFFFFFFFFFFFFFFFFFFFFFFFFFF AND PUSH1 0x8 DUP3 DUP2 SLOAD DUP2 LT PUSH2 0x14FF JUMPI PUSH2 0x14FE PUSH2 0x25B3 JUMP JUMPDEST JUMPDEST SWAP1 PUSH0 MSTORE PUSH1 0x20 PUSH0 KECCAK256 ADD PUSH0 SWAP1 SLOAD SWAP1 PUSH2 0x100 EXP SWAP1 DIV PUSH20 0xFFFFFFFFFFFFFFFFFFFFFFFFFFFFFFFFFFFFFFFF AND PUSH20 0xFFFFFFFFFFFFFFFFFFFFFFFFFFFFFFFFFFFFFFFF AND SUB PUSH2 0x154B JUMPI PUSH0 SWAP2 POP POP PUSH2 0x15BA JUMP JUMPDEST DUP1 PUSH1 0x1 ADD SWAP1 POP PUSH2 0x14C7 JUMP JUMPDEST POP PUSH2 0x1560 DUP3 PUSH2 0x1DEA JUMP JUMPDEST PUSH1 0x1 PUSH1 0x9 PUSH0 DUP5 PUSH20 0xFFFFFFFFFFFFFFFFFFFFFFFFFFFFFFFFFFFFFFFF AND PUSH20 0xFFFFFFFFFFFFFFFFFFFFFFFFFFFFFFFFFFFFFFFF AND DUP2 MSTORE PUSH1 0x20 ADD SWAP1 DUP2 MSTORE PUSH1 0x20 ADD PUSH0 KECCAK256 PUSH0 PUSH2 0x100 EXP DUP2 SLOAD DUP2 PUSH1 0xFF MUL NOT AND SWAP1 DUP4 ISZERO ISZERO MUL OR SWAP1 SSTORE POP PUSH1 0x1 SWAP1 POP JUMPDEST SWAP2 SWAP1 POP JUMP JUMPDEST PUSH0 PUSH20 0xFFFFFFFFFFFFFFFFFFFFFFFFFFFFFFFFFFFFFFFF AND DUP3 PUSH20 0xFFFFFFFFFFFFFFFFFFFFFFFFFFFFFFFFFFFFFFFF AND SUB PUSH2 0x162F JUMPI PUSH0 PUSH1 0x40 MLOAD PUSH32 0x96C6FD1E00000000000000000000000000000000000000000000000000000000 DUP2 MSTORE PUSH1 0x4 ADD PUSH2 0x1626 SWAP2 SWAP1 PUSH2 0x23E8 JUMP JUMPDEST PUSH1 0x40 MLOAD DUP1 SWAP2 SUB SWAP1 REVERT JUMPDEST PUSH2 0x163A DUP3 PUSH0 DUP4 PUSH2 0x1C0F JUMP JUMPDEST POP POP JUMP JUMPDEST PUSH0 PUSH1 0x5 PUSH0 SWAP1 SLOAD SWAP1 PUSH2 0x100 EXP SWAP1 DIV PUSH20 0xFFFFFFFFFFFFFFFFFFFFFFFFFFFFFFFFFFFFFFFF AND SWAP1 POP DUP2 PUSH1 0x5 PUSH0 PUSH2 0x100 EXP DUP2 SLOAD DUP2 PUSH20 0xFFFFFFFFFFFFFFFFFFFFFFFFFFFFFFFFFFFFFFFF MUL NOT AND SWAP1 DUP4 PUSH20 0xFFFFFFFFFFFFFFFFFFFFFFFFFFFFFFFFFFFFFFFF AND MUL OR SWAP1 SSTORE POP DUP2 PUSH20 0xFFFFFFFFFFFFFFFFFFFFFFFFFFFFFFFFFFFFFFFF AND DUP2 PUSH20 0xFFFFFFFFFFFFFFFFFFFFFFFFFFFFFFFFFFFFFFFF AND PUSH32 0x8BE0079C531659141344CD1FD0A4F28419497F9722A3DAAFE3B4186F6B6457E0 PUSH1 0x40 MLOAD PUSH1 0x40 MLOAD DUP1 SWAP2 SUB SWAP1 LOG3 POP POP JUMP JUMPDEST PUSH0 DUP1 PUSH20 0xFFFFFFFFFFFFFFFFFFFFFFFFFFFFFFFFFFFFFFFF AND DUP3 PUSH20 0xFFFFFFFFFFFFFFFFFFFFFFFFFFFFFFFFFFFFFFFF AND SUB PUSH2 0x1770 JUMPI PUSH1 0x40 MLOAD PUSH32 0x8C379A000000000000000000000000000000000000000000000000000000000 DUP2 MSTORE PUSH1 0x4 ADD PUSH2 0x1767 SWAP1 PUSH2 0x2595 JUMP JUMPDEST PUSH1 0x40 MLOAD DUP1 SWAP2 SUB SWAP1 REVERT JUMPDEST PUSH0 JUMPDEST PUSH1 0x8 DUP1 SLOAD SWAP1 POP DUP2 PUSH4 0xFFFFFFFF AND LT ISZERO PUSH2 0x181D JUMPI DUP3 PUSH20 0xFFFFFFFFFFFFFFFFFFFFFFFFFFFFFFFFFFFFFFFF AND PUSH1 0x8 DUP3 PUSH4 0xFFFFFFFF AND DUP2 SLOAD DUP2 LT PUSH2 0x17B6 JUMPI PUSH2 0x17B5 PUSH2 0x25B3 JUMP JUMPDEST JUMPDEST SWAP1 PUSH0 MSTORE PUSH1 0x20 PUSH0 KECCAK256 ADD PUSH0 SWAP1 SLOAD SWAP1 PUSH2 0x100 EXP SWAP1 DIV PUSH20 0xFFFFFFFFFFFFFFFFFFFFFFFFFFFFFFFFFFFFFFFF AND PUSH20 0xFFFFFFFFFFFFFFFFFFFFFFFFFFFFFFFFFFFFFFFF AND SUB PUSH2 0x180C JUMPI PUSH2 0x1802 DUP2 PUSH2 0x1E4D JUMP JUMPDEST PUSH1 0x1 SWAP2 POP POP PUSH2 0x1822 JUMP JUMPDEST DUP1 PUSH2 0x1816 SWAP1 PUSH2 0x2D1E JUMP JUMPDEST SWAP1 POP PUSH2 0x1772 JUMP JUMPDEST POP PUSH0 SWAP1 POP JUMPDEST SWAP2 SWAP1 POP JUMP JUMPDEST PUSH0 PUSH20 0xFFFFFFFFFFFFFFFFFFFFFFFFFFFFFFFFFFFFFFFF AND DUP4 PUSH20 0xFFFFFFFFFFFFFFFFFFFFFFFFFFFFFFFFFFFFFFFF AND SUB PUSH2 0x1877 JUMPI DUP1 PUSH1 0x2 PUSH0 DUP3 DUP3 SLOAD PUSH2 0x186B SWAP2 SWAP1 PUSH2 0x2D49 JUMP JUMPDEST SWAP3 POP POP DUP2 SWAP1 SSTORE POP PUSH2 0x1945 JUMP JUMPDEST PUSH0 DUP1 PUSH0 DUP6 PUSH20 0xFFFFFFFFFFFFFFFFFFFFFFFFFFFFFFFFFFFFFFFF AND PUSH20 0xFFFFFFFFFFFFFFFFFFFFFFFFFFFFFFFFFFFFFFFF AND DUP2 MSTORE PUSH1 0x20 ADD SWAP1 DUP2 MSTORE PUSH1 0x20 ADD PUSH0 KECCAK256 SLOAD SWAP1 POP DUP2 DUP2 LT ISZERO PUSH2 0x1900 JUMPI DUP4 DUP2 DUP4 PUSH1 0x40 MLOAD PUSH32 0xE450D38C00000000000000000000000000000000000000000000000000000000 DUP2 MSTORE PUSH1 0x4 ADD PUSH2 0x18F7 SWAP4 SWAP3 SWAP2 SWAP1 PUSH2 0x2C4C JUMP JUMPDEST PUSH1 0x40 MLOAD DUP1 SWAP2 SUB SWAP1 REVERT JUMPDEST DUP2 DUP2 SUB PUSH0 DUP1 DUP7 PUSH20 0xFFFFFFFFFFFFFFFFFFFFFFFFFFFFFFFFFFFFFFFF AND PUSH20 0xFFFFFFFFFFFFFFFFFFFFFFFFFFFFFFFFFFFFFFFF AND DUP2 MSTORE PUSH1 0x20 ADD SWAP1 DUP2 MSTORE PUSH1 0x20 ADD PUSH0 KECCAK256 DUP2 SWAP1 SSTORE POP POP JUMPDEST PUSH0 PUSH20 0xFFFFFFFFFFFFFFFFFFFFFFFFFFFFFFFFFFFFFFFF AND DUP3 PUSH20 0xFFFFFFFFFFFFFFFFFFFFFFFFFFFFFFFFFFFFFFFF AND SUB PUSH2 0x198C JUMPI DUP1 PUSH1 0x2 PUSH0 DUP3 DUP3 SLOAD SUB SWAP3 POP POP DUP2 SWAP1 SSTORE POP PUSH2 0x19D6 JUMP JUMPDEST DUP1 PUSH0 DUP1 DUP5 PUSH20 0xFFFFFFFFFFFFFFFFFFFFFFFFFFFFFFFFFFFFFFFF AND PUSH20 0xFFFFFFFFFFFFFFFFFFFFFFFFFFFFFFFFFFFFFFFF AND DUP2 MSTORE PUSH1 0x20 ADD SWAP1 DUP2 MSTORE PUSH1 0x20 ADD PUSH0 KECCAK256 PUSH0 DUP3 DUP3 SLOAD ADD SWAP3 POP POP DUP2 SWAP1 SSTORE POP JUMPDEST DUP2 PUSH20 0xFFFFFFFFFFFFFFFFFFFFFFFFFFFFFFFFFFFFFFFF AND DUP4 PUSH20 0xFFFFFFFFFFFFFFFFFFFFFFFFFFFFFFFFFFFFFFFF AND PUSH32 0xDDF252AD1BE2C89B69C2B068FC378DAA952BA7F163C4A11628F55A4DF523B3EF DUP4 PUSH1 0x40 MLOAD PUSH2 0x1A33 SWAP2 SWAP1 PUSH2 0x2160 JUMP JUMPDEST PUSH1 0x40 MLOAD DUP1 SWAP2 SUB SWAP1 LOG3 POP POP POP JUMP JUMPDEST PUSH0 PUSH20 0xFFFFFFFFFFFFFFFFFFFFFFFFFFFFFFFFFFFFFFFF AND DUP5 PUSH20 0xFFFFFFFFFFFFFFFFFFFFFFFFFFFFFFFFFFFFFFFF AND SUB PUSH2 0x1AB0 JUMPI PUSH0 PUSH1 0x40 MLOAD PUSH32 0xE602DF0500000000000000000000000000000000000000000000000000000000 DUP2 MSTORE PUSH1 0x4 ADD PUSH2 0x1AA7 SWAP2 SWAP1 PUSH2 0x23E8 JUMP JUMPDEST PUSH1 0x40 MLOAD DUP1 SWAP2 SUB SWAP1 REVERT JUMPDEST PUSH0 PUSH20 0xFFFFFFFFFFFFFFFFFFFFFFFFFFFFFFFFFFFFFFFF AND DUP4 PUSH20 0xFFFFFFFFFFFFFFFFFFFFFFFFFFFFFFFFFFFFFFFF AND SUB PUSH2 0x1B20 JUMPI PUSH0 PUSH1 0x40 MLOAD PUSH32 0x94280D6200000000000000000000000000000000000000000000000000000000 DUP2 MSTORE PUSH1 0x4 ADD PUSH2 0x1B17 SWAP2 SWAP1 PUSH2 0x23E8 JUMP JUMPDEST PUSH1 0x40 MLOAD DUP1 SWAP2 SUB SWAP1 REVERT JUMPDEST DUP2 PUSH1 0x1 PUSH0 DUP7 PUSH20 0xFFFFFFFFFFFFFFFFFFFFFFFFFFFFFFFFFFFFFFFF AND PUSH20 0xFFFFFFFFFFFFFFFFFFFFFFFFFFFFFFFFFFFFFFFF AND DUP2 MSTORE PUSH1 0x20 ADD SWAP1 DUP2 MSTORE PUSH1 0x20 ADD PUSH0 KECCAK256 PUSH0 DUP6 PUSH20 0xFFFFFFFFFFFFFFFFFFFFFFFFFFFFFFFFFFFFFFFF AND PUSH20 0xFFFFFFFFFFFFFFFFFFFFFFFFFFFFFFFFFFFFFFFF AND DUP2 MSTORE PUSH1 0x20 ADD SWAP1 DUP2 MSTORE PUSH1 0x20 ADD PUSH0 KECCAK256 DUP2 SWAP1 SSTORE POP DUP1 ISZERO PUSH2 0x1C09 JUMPI DUP3 PUSH20 0xFFFFFFFFFFFFFFFFFFFFFFFFFFFFFFFFFFFFFFFF AND DUP5 PUSH20 0xFFFFFFFFFFFFFFFFFFFFFFFFFFFFFFFFFFFFFFFF AND PUSH32 0x8C5BE1E5EBEC7D5BD14F71427D1E84F3DD0314C0F7B2291E5B200AC8C7C3B925 DUP5 PUSH1 0x40 MLOAD PUSH2 0x1C00 SWAP2 SWAP1 PUSH2 0x2160 JUMP JUMPDEST PUSH1 0x40 MLOAD DUP1 SWAP2 SUB SWAP1 LOG3 JUMPDEST POP POP POP POP JUMP JUMPDEST PUSH1 0x9 PUSH0 DUP5 PUSH20 0xFFFFFFFFFFFFFFFFFFFFFFFFFFFFFFFFFFFFFFFF AND PUSH20 0xFFFFFFFFFFFFFFFFFFFFFFFFFFFFFFFFFFFFFFFF AND DUP2 MSTORE PUSH1 0x20 ADD SWAP1 DUP2 MSTORE PUSH1 0x20 ADD PUSH0 KECCAK256 PUSH0 SWAP1 SLOAD SWAP1 PUSH2 0x100 EXP SWAP1 DIV PUSH1 0xFF AND DUP1 PUSH2 0x1CAA JUMPI POP PUSH1 0x9 PUSH0 DUP4 PUSH20 0xFFFFFFFFFFFFFFFFFFFFFFFFFFFFFFFFFFFFFFFF AND PUSH20 0xFFFFFFFFFFFFFFFFFFFFFFFFFFFFFFFFFFFFFFFF AND DUP2 MSTORE PUSH1 0x20 ADD SWAP1 DUP2 MSTORE PUSH1 0x20 ADD PUSH0 KECCAK256 PUSH0 SWAP1 SLOAD SWAP1 PUSH2 0x100 EXP SWAP1 DIV PUSH1 0xFF AND JUMPDEST DUP1 PUSH2 0x1CB6 JUMPI POP PUSH0 PUSH1 0x6 SLOAD EQ JUMPDEST ISZERO PUSH2 0x1CCB JUMPI PUSH2 0x1CC6 DUP4 DUP4 DUP4 PUSH2 0x1827 JUMP JUMPDEST PUSH2 0x1DE5 JUMP JUMPDEST PUSH0 PUSH2 0x3E8 PUSH1 0x6 SLOAD DUP4 PUSH2 0x1CDD SWAP2 SWAP1 PUSH2 0x2D7C JUMP JUMPDEST PUSH2 0x1CE7 SWAP2 SWAP1 PUSH2 0x2B8E JUMP JUMPDEST SWAP1 POP PUSH0 DUP2 DUP4 PUSH2 0x1CF6 SWAP2 SWAP1 PUSH2 0x2DBD JUMP JUMPDEST SWAP1 POP PUSH0 DUP1 PUSH1 0x8 DUP1 SLOAD SWAP1 POP SUB PUSH2 0x1D0C JUMPI PUSH1 0x1 PUSH2 0x1D1E JUMP JUMPDEST PUSH1 0x8 DUP1 SLOAD SWAP1 POP DUP4 PUSH2 0x1D1D SWAP2 SWAP1 PUSH2 0x2B8E JUMP JUMPDEST JUMPDEST SWAP1 POP PUSH0 PUSH1 0x8 DUP1 SLOAD SWAP1 POP DUP3 PUSH2 0x1D32 SWAP2 SWAP1 PUSH2 0x2D7C JUMP JUMPDEST DUP5 PUSH2 0x1D3D SWAP2 SWAP1 PUSH2 0x2DBD JUMP JUMPDEST SWAP1 POP PUSH0 JUMPDEST PUSH1 0x8 DUP1 SLOAD SWAP1 POP DUP2 LT ISZERO PUSH2 0x1D9F JUMPI PUSH2 0x1D94 DUP9 PUSH1 0x8 DUP4 DUP2 SLOAD DUP2 LT PUSH2 0x1D66 JUMPI PUSH2 0x1D65 PUSH2 0x25B3 JUMP JUMPDEST JUMPDEST SWAP1 PUSH0 MSTORE PUSH1 0x20 PUSH0 KECCAK256 ADD PUSH0 SWAP1 SLOAD SWAP1 PUSH2 0x100 EXP SWAP1 DIV PUSH20 0xFFFFFFFFFFFFFFFFFFFFFFFFFFFFFFFFFFFFFFFF AND DUP6 PUSH2 0x1827 JUMP JUMPDEST DUP1 PUSH1 0x1 ADD SWAP1 POP PUSH2 0x1D41 JUMP JUMPDEST POP PUSH0 DUP2 GT ISZERO PUSH2 0x1DD5 JUMPI PUSH2 0x1DD4 DUP8 PUSH1 0xA PUSH0 SWAP1 SLOAD SWAP1 PUSH2 0x100 EXP SWAP1 DIV PUSH20 0xFFFFFFFFFFFFFFFFFFFFFFFFFFFFFFFFFFFFFFFF AND DUP4 PUSH2 0x1827 JUMP JUMPDEST JUMPDEST PUSH2 0x1DE0 DUP8 DUP8 DUP6 PUSH2 0x1827 JUMP JUMPDEST POP POP POP POP JUMPDEST POP POP POP JUMP JUMPDEST PUSH1 0x8 DUP2 SWAP1 DUP1 PUSH1 0x1 DUP2 SLOAD ADD DUP1 DUP3 SSTORE DUP1 SWAP2 POP POP PUSH1 0x1 SWAP1 SUB SWAP1 PUSH0 MSTORE PUSH1 0x20 PUSH0 KECCAK256 ADD PUSH0 SWAP1 SWAP2 SWAP1 SWAP2 SWAP1 SWAP2 PUSH2 0x100 EXP DUP2 SLOAD DUP2 PUSH20 0xFFFFFFFFFFFFFFFFFFFFFFFFFFFFFFFFFFFFFFFF MUL NOT AND SWAP1 DUP4 PUSH20 0xFFFFFFFFFFFFFFFFFFFFFFFFFFFFFFFFFFFFFFFF AND MUL OR SWAP1 SSTORE POP POP JUMP JUMPDEST PUSH1 0x8 PUSH1 0x1 PUSH1 0x8 DUP1 SLOAD SWAP1 POP PUSH2 0x1E61 SWAP2 SWAP1 PUSH2 0x2DBD JUMP JUMPDEST DUP2 SLOAD DUP2 LT PUSH2 0x1E72 JUMPI PUSH2 0x1E71 PUSH2 0x25B3 JUMP JUMPDEST JUMPDEST SWAP1 PUSH0 MSTORE PUSH1 0x20 PUSH0 KECCAK256 ADD PUSH0 SWAP1 SLOAD SWAP1 PUSH2 0x100 EXP SWAP1 DIV PUSH20 0xFFFFFFFFFFFFFFFFFFFFFFFFFFFFFFFFFFFFFFFF AND PUSH1 0x8 DUP3 PUSH4 0xFFFFFFFF AND DUP2 SLOAD DUP2 LT PUSH2 0x1EB4 JUMPI PUSH2 0x1EB3 PUSH2 0x25B3 JUMP JUMPDEST JUMPDEST SWAP1 PUSH0 MSTORE PUSH1 0x20 PUSH0 KECCAK256 ADD PUSH0 PUSH2 0x100 EXP DUP2 SLOAD DUP2 PUSH20 0xFFFFFFFFFFFFFFFFFFFFFFFFFFFFFFFFFFFFFFFF MUL NOT AND SWAP1 DUP4 PUSH20 0xFFFFFFFFFFFFFFFFFFFFFFFFFFFFFFFFFFFFFFFF AND MUL OR SWAP1 SSTORE POP PUSH1 0x8 DUP1 SLOAD DUP1 PUSH2 0x1F0B JUMPI PUSH2 0x1F0A PUSH2 0x2DF0 JUMP JUMPDEST JUMPDEST PUSH1 0x1 SWAP1 SUB DUP2 DUP2 SWAP1 PUSH0 MSTORE PUSH1 0x20 PUSH0 KECCAK256 ADD PUSH0 PUSH2 0x100 EXP DUP2 SLOAD SWAP1 PUSH20 0xFFFFFFFFFFFFFFFFFFFFFFFFFFFFFFFFFFFFFFFF MUL NOT AND SWAP1 SSTORE SWAP1 SSTORE POP JUMP JUMPDEST POP DUP1 SLOAD PUSH2 0x1F4C SWAP1 PUSH2 0x251B JUMP JUMPDEST PUSH0 DUP3 SSTORE DUP1 PUSH1 0x1F LT PUSH2 0x1F5D JUMPI POP PUSH2 0x1F7A JUMP JUMPDEST PUSH1 0x1F ADD PUSH1 0x20 SWAP1 DIV SWAP1 PUSH0 MSTORE PUSH1 0x20 PUSH0 KECCAK256 SWAP1 DUP2 ADD SWAP1 PUSH2 0x1F79 SWAP2 SWAP1 PUSH2 0x1F7D JUMP JUMPDEST JUMPDEST POP JUMP JUMPDEST JUMPDEST DUP1 DUP3 GT ISZERO PUSH2 0x1F94 JUMPI PUSH0 DUP2 PUSH0 SWAP1 SSTORE POP PUSH1 0x1 ADD PUSH2 0x1F7E JUMP JUMPDEST POP SWAP1 JUMP JUMPDEST PUSH0 DUP2 MLOAD SWAP1 POP SWAP2 SWAP1 POP JUMP JUMPDEST PUSH0 DUP3 DUP3 MSTORE PUSH1 0x20 DUP3 ADD SWAP1 POP SWAP3 SWAP2 POP POP JUMP JUMPDEST PUSH0 JUMPDEST DUP4 DUP2 LT ISZERO PUSH2 0x1FCF JUMPI DUP1 DUP3 ADD MLOAD DUP2 DUP5 ADD MSTORE PUSH1 0x20 DUP2 ADD SWAP1 POP PUSH2 0x1FB4 JUMP JUMPDEST PUSH0 DUP5 DUP5 ADD MSTORE POP POP POP POP JUMP JUMPDEST PUSH0 PUSH1 0x1F NOT PUSH1 0x1F DUP4 ADD AND SWAP1 POP SWAP2 SWAP1 POP JUMP JUMPDEST PUSH0 PUSH2 0x1FF4 DUP3 PUSH2 0x1F98 JUMP JUMPDEST PUSH2 0x1FFE DUP2 DUP6 PUSH2 0x1FA2 JUMP JUMPDEST SWAP4 POP PUSH2 0x200E DUP2 DUP6 PUSH1 0x20 DUP7 ADD PUSH2 0x1FB2 JUMP JUMPDEST PUSH2 0x2017 DUP2 PUSH2 0x1FDA JUMP JUMPDEST DUP5 ADD SWAP2 POP POP SWAP3 SWAP2 POP POP JUMP JUMPDEST PUSH0 PUSH1 0x20 DUP3 ADD SWAP1 POP DUP2 DUP2 SUB PUSH0 DUP4 ADD MSTORE PUSH2 0x203A DUP2 DUP5 PUSH2 0x1FEA JUMP JUMPDEST SWAP1 POP SWAP3 SWAP2 POP POP JUMP JUMPDEST PUSH0 PUSH1 0x40 MLOAD SWAP1 POP SWAP1 JUMP JUMPDEST PUSH0 DUP1 REVERT JUMPDEST PUSH0 DUP1 REVERT JUMPDEST PUSH0 PUSH20 0xFFFFFFFFFFFFFFFFFFFFFFFFFFFFFFFFFFFFFFFF DUP3 AND SWAP1 POP SWAP2 SWAP1 POP JUMP JUMPDEST PUSH0 PUSH2 0x207C DUP3 PUSH2 0x2053 JUMP JUMPDEST SWAP1 POP SWAP2 SWAP1 POP JUMP JUMPDEST PUSH2 0x208C DUP2 PUSH2 0x2072 JUMP JUMPDEST DUP2 EQ PUSH2 0x2096 JUMPI PUSH0 DUP1 REVERT JUMPDEST POP JUMP JUMPDEST PUSH0 DUP2 CALLDATALOAD SWAP1 POP PUSH2 0x20A7 DUP2 PUSH2 0x2083 JUMP JUMPDEST SWAP3 SWAP2 POP POP JUMP JUMPDEST PUSH0 DUP2 SWAP1 POP SWAP2 SWAP1 POP JUMP JUMPDEST PUSH2 0x20BF DUP2 PUSH2 0x20AD JUMP JUMPDEST DUP2 EQ PUSH2 0x20C9 JUMPI PUSH0 DUP1 REVERT JUMPDEST POP JUMP JUMPDEST PUSH0 DUP2 CALLDATALOAD SWAP1 POP PUSH2 0x20DA DUP2 PUSH2 0x20B6 JUMP JUMPDEST SWAP3 SWAP2 POP POP JUMP JUMPDEST PUSH0 DUP1 PUSH1 0x40 DUP4 DUP6 SUB SLT ISZERO PUSH2 0x20F6 JUMPI PUSH2 0x20F5 PUSH2 0x204B JUMP JUMPDEST JUMPDEST PUSH0 PUSH2 0x2103 DUP6 DUP3 DUP7 ADD PUSH2 0x2099 JUMP JUMPDEST SWAP3 POP POP PUSH1 0x20 PUSH2 0x2114 DUP6 DUP3 DUP7 ADD PUSH2 0x20CC JUMP JUMPDEST SWAP2 POP POP SWAP3 POP SWAP3 SWAP1 POP JUMP JUMPDEST PUSH0 DUP2 ISZERO ISZERO SWAP1 POP SWAP2 SWAP1 POP JUMP JUMPDEST PUSH2 0x2132 DUP2 PUSH2 0x211E JUMP JUMPDEST DUP3 MSTORE POP POP JUMP JUMPDEST PUSH0 PUSH1 0x20 DUP3 ADD SWAP1 POP PUSH2 0x214B PUSH0 DUP4 ADD DUP5 PUSH2 0x2129 JUMP JUMPDEST SWAP3 SWAP2 POP POP JUMP JUMPDEST PUSH2 0x215A DUP2 PUSH2 0x20AD JUMP JUMPDEST DUP3 MSTORE POP POP JUMP JUMPDEST PUSH0 PUSH1 0x20 DUP3 ADD SWAP1 POP PUSH2 0x2173 PUSH0 DUP4 ADD DUP5 PUSH2 0x2151 JUMP JUMPDEST SWAP3 SWAP2 POP POP JUMP JUMPDEST PUSH0 DUP1 PUSH0 PUSH1 0x60 DUP5 DUP7 SUB SLT ISZERO PUSH2 0x2190 JUMPI PUSH2 0x218F PUSH2 0x204B JUMP JUMPDEST JUMPDEST PUSH0 PUSH2 0x219D DUP7 DUP3 DUP8 ADD PUSH2 0x2099 JUMP JUMPDEST SWAP4 POP POP PUSH1 0x20 PUSH2 0x21AE DUP7 DUP3 DUP8 ADD PUSH2 0x2099 JUMP JUMPDEST SWAP3 POP POP PUSH1 0x40 PUSH2 0x21BF DUP7 DUP3 DUP8 ADD PUSH2 0x20CC JUMP JUMPDEST SWAP2 POP POP SWAP3 POP SWAP3 POP SWAP3 JUMP JUMPDEST PUSH0 PUSH1 0xFF DUP3 AND SWAP1 POP SWAP2 SWAP1 POP JUMP JUMPDEST PUSH2 0x21DE DUP2 PUSH2 0x21C9 JUMP JUMPDEST DUP3 MSTORE POP POP JUMP JUMPDEST PUSH0 PUSH1 0x20 DUP3 ADD SWAP1 POP PUSH2 0x21F7 PUSH0 DUP4 ADD DUP5 PUSH2 0x21D5 JUMP JUMPDEST SWAP3 SWAP2 POP POP JUMP JUMPDEST PUSH0 DUP1 REVERT JUMPDEST PUSH0 DUP1 REVERT JUMPDEST PUSH32 0x4E487B7100000000000000000000000000000000000000000000000000000000 PUSH0 MSTORE PUSH1 0x41 PUSH1 0x4 MSTORE PUSH1 0x24 PUSH0 REVERT JUMPDEST PUSH2 0x223B DUP3 PUSH2 0x1FDA JUMP JUMPDEST DUP2 ADD DUP2 DUP2 LT PUSH8 0xFFFFFFFFFFFFFFFF DUP3 GT OR ISZERO PUSH2 0x225A JUMPI PUSH2 0x2259 PUSH2 0x2205 JUMP JUMPDEST JUMPDEST DUP1 PUSH1 0x40 MSTORE POP POP POP JUMP JUMPDEST PUSH0 PUSH2 0x226C PUSH2 0x2042 JUMP JUMPDEST SWAP1 POP PUSH2 0x2278 DUP3 DUP3 PUSH2 0x2232 JUMP JUMPDEST SWAP2 SWAP1 POP JUMP JUMPDEST PUSH0 PUSH8 0xFFFFFFFFFFFFFFFF DUP3 GT ISZERO PUSH2 0x2297 JUMPI PUSH2 0x2296 PUSH2 0x2205 JUMP JUMPDEST JUMPDEST PUSH2 0x22A0 DUP3 PUSH2 0x1FDA JUMP JUMPDEST SWAP1 POP PUSH1 0x20 DUP2 ADD SWAP1 POP SWAP2 SWAP1 POP JUMP JUMPDEST DUP3 DUP2 DUP4 CALLDATACOPY PUSH0 DUP4 DUP4 ADD MSTORE POP POP POP JUMP JUMPDEST PUSH0 PUSH2 0x22CD PUSH2 0x22C8 DUP5 PUSH2 0x227D JUMP JUMPDEST PUSH2 0x2263 JUMP JUMPDEST SWAP1 POP DUP3 DUP2 MSTORE PUSH1 0x20 DUP2 ADD DUP5 DUP5 DUP5 ADD GT ISZERO PUSH2 0x22E9 JUMPI PUSH2 0x22E8 PUSH2 0x2201 JUMP JUMPDEST JUMPDEST PUSH2 0x22F4 DUP5 DUP3 DUP6 PUSH2 0x22AD JUMP JUMPDEST POP SWAP4 SWAP3 POP POP POP JUMP JUMPDEST PUSH0 DUP3 PUSH1 0x1F DUP4 ADD SLT PUSH2 0x2310 JUMPI PUSH2 0x230F PUSH2 0x21FD JUMP JUMPDEST JUMPDEST DUP2 CALLDATALOAD PUSH2 0x2320 DUP5 DUP3 PUSH1 0x20 DUP7 ADD PUSH2 0x22BB JUMP JUMPDEST SWAP2 POP POP SWAP3 SWAP2 POP POP JUMP JUMPDEST PUSH0 DUP1 PUSH1 0x40 DUP4 DUP6 SUB SLT ISZERO PUSH2 0x233F JUMPI PUSH2 0x233E PUSH2 0x204B JUMP JUMPDEST JUMPDEST PUSH0 DUP4 ADD CALLDATALOAD PUSH8 0xFFFFFFFFFFFFFFFF DUP2 GT ISZERO PUSH2 0x235C JUMPI PUSH2 0x235B PUSH2 0x204F JUMP JUMPDEST JUMPDEST PUSH2 0x2368 DUP6 DUP3 DUP7 ADD PUSH2 0x22FC JUMP JUMPDEST SWAP3 POP POP PUSH1 0x20 PUSH2 0x2379 DUP6 DUP3 DUP7 ADD PUSH2 0x2099 JUMP JUMPDEST SWAP2 POP POP SWAP3 POP SWAP3 SWAP1 POP JUMP JUMPDEST PUSH0 PUSH1 0x20 DUP3 DUP5 SUB SLT ISZERO PUSH2 0x2398 JUMPI PUSH2 0x2397 PUSH2 0x204B JUMP JUMPDEST JUMPDEST PUSH0 PUSH2 0x23A5 DUP5 DUP3 DUP6 ADD PUSH2 0x20CC JUMP JUMPDEST SWAP2 POP POP SWAP3 SWAP2 POP POP JUMP JUMPDEST PUSH0 PUSH1 0x20 DUP3 DUP5 SUB SLT ISZERO PUSH2 0x23C3 JUMPI PUSH2 0x23C2 PUSH2 0x204B JUMP JUMPDEST JUMPDEST PUSH0 PUSH2 0x23D0 DUP5 DUP3 DUP6 ADD PUSH2 0x2099 JUMP JUMPDEST SWAP2 POP POP SWAP3 SWAP2 POP POP JUMP JUMPDEST PUSH2 0x23E2 DUP2 PUSH2 0x2072 JUMP JUMPDEST DUP3 MSTORE POP POP JUMP JUMPDEST PUSH0 PUSH1 0x20 DUP3 ADD SWAP1 POP PUSH2 0x23FB PUSH0 DUP4 ADD DUP5 PUSH2 0x23D9 JUMP JUMPDEST SWAP3 SWAP2 POP POP JUMP JUMPDEST PUSH0 PUSH1 0x20 DUP3 DUP5 SUB SLT ISZERO PUSH2 0x2416 JUMPI PUSH2 0x2415 PUSH2 0x204B JUMP JUMPDEST JUMPDEST PUSH0 DUP3 ADD CALLDATALOAD PUSH8 0xFFFFFFFFFFFFFFFF DUP2 GT ISZERO PUSH2 0x2433 JUMPI PUSH2 0x2432 PUSH2 0x204F JUMP JUMPDEST JUMPDEST PUSH2 0x243F DUP5 DUP3 DUP6 ADD PUSH2 0x22FC JUMP JUMPDEST SWAP2 POP POP SWAP3 SWAP2 POP POP JUMP JUMPDEST PUSH0 DUP1 PUSH1 0x40 DUP4 DUP6 SUB SLT ISZERO PUSH2 0x245E JUMPI PUSH2 0x245D PUSH2 0x204B JUMP JUMPDEST JUMPDEST PUSH0 PUSH2 0x246B DUP6 DUP3 DUP7 ADD PUSH2 0x2099 JUMP JUMPDEST SWAP3 POP POP PUSH1 0x20 PUSH2 0x247C DUP6 DUP3 DUP7 ADD PUSH2 0x2099 JUMP JUMPDEST SWAP2 POP POP SWAP3 POP SWAP3 SWAP1 POP JUMP JUMPDEST PUSH2 0x248F DUP2 PUSH2 0x211E JUMP JUMPDEST DUP2 EQ PUSH2 0x2499 JUMPI PUSH0 DUP1 REVERT JUMPDEST POP JUMP JUMPDEST PUSH0 DUP2 CALLDATALOAD SWAP1 POP PUSH2 0x24AA DUP2 PUSH2 0x2486 JUMP JUMPDEST SWAP3 SWAP2 POP POP JUMP JUMPDEST PUSH0 DUP1 PUSH1 0x40 DUP4 DUP6 SUB SLT ISZERO PUSH2 0x24C6 JUMPI PUSH2 0x24C5 PUSH2 0x204B JUMP JUMPDEST JUMPDEST PUSH0 PUSH2 0x24D3 DUP6 DUP3 DUP7 ADD PUSH2 0x2099 JUMP JUMPDEST SWAP3 POP POP PUSH1 0x20 PUSH2 0x24E4 DUP6 DUP3 DUP7 ADD PUSH2 0x249C JUMP JUMPDEST SWAP2 POP POP SWAP3 POP SWAP3 SWAP1 POP JUMP JUMPDEST PUSH32 0x4E487B7100000000000000000000000000000000000000000000000000000000 PUSH0 MSTORE PUSH1 0x22 PUSH1 0x4 MSTORE PUSH1 0x24 PUSH0 REVERT JUMPDEST PUSH0 PUSH1 0x2 DUP3 DIV SWAP1 POP PUSH1 0x1 DUP3 AND DUP1 PUSH2 0x2532 JUMPI PUSH1 0x7F DUP3 AND SWAP2 POP JUMPDEST PUSH1 0x20 DUP3 LT DUP2 SUB PUSH2 0x2545 JUMPI PUSH2 0x2544 PUSH2 0x24EE JUMP JUMPDEST JUMPDEST POP SWAP2 SWAP1 POP JUMP JUMPDEST PUSH32 0x496E76616C6964204E474F206164647265737300000000000000000000000000 PUSH0 DUP3 ADD MSTORE POP JUMP JUMPDEST PUSH0 PUSH2 0x257F PUSH1 0x13 DUP4 PUSH2 0x1FA2 JUMP JUMPDEST SWAP2 POP PUSH2 0x258A DUP3 PUSH2 0x254B JUMP JUMPDEST PUSH1 0x20 DUP3 ADD SWAP1 POP SWAP2 SWAP1 POP JUMP JUMPDEST PUSH0 PUSH1 0x20 DUP3 ADD SWAP1 POP DUP2 DUP2 SUB PUSH0 DUP4 ADD MSTORE PUSH2 0x25AC DUP2 PUSH2 0x2573 JUMP JUMPDEST SWAP1 POP SWAP2 SWAP1 POP JUMP JUMPDEST PUSH32 0x4E487B7100000000000000000000000000000000000000000000000000000000 PUSH0 MSTORE PUSH1 0x32 PUSH1 0x4 MSTORE PUSH1 0x24 PUSH0 REVERT JUMPDEST PUSH0 DUP2 SWAP1 POP SWAP3 SWAP2 POP POP JUMP JUMPDEST PUSH0 DUP2 SWAP1 POP DUP2 PUSH0 MSTORE PUSH1 0x20 PUSH0 KECCAK256 SWAP1 POP SWAP2 SWAP1 POP JUMP JUMPDEST PUSH0 DUP2 SLOAD PUSH2 0x2608 DUP2 PUSH2 0x251B JUMP JUMPDEST PUSH2 0x2612 DUP2 DUP7 PUSH2 0x25E0 JUMP JUMPDEST SWAP5 POP PUSH1 0x1 DUP3 AND PUSH0 DUP2 EQ PUSH2 0x262C JUMPI PUSH1 0x1 DUP2 EQ PUSH2 0x2641 JUMPI PUSH2 0x2673 JUMP JUMPDEST PUSH1 0xFF NOT DUP4 AND DUP7 MSTORE DUP2 ISZERO ISZERO DUP3 MUL DUP7 ADD SWAP4 POP PUSH2 0x2673 JUMP JUMPDEST PUSH2 0x264A DUP6 PUSH2 0x25EA JUMP JUMPDEST PUSH0 JUMPDEST DUP4 DUP2 LT ISZERO PUSH2 0x266B JUMPI DUP2 SLOAD DUP2 DUP10 ADD MSTORE PUSH1 0x1 DUP3 ADD SWAP2 POP PUSH1 0x20 DUP2 ADD SWAP1 POP PUSH2 0x264C JUMP JUMPDEST DUP4 DUP9 ADD SWAP6 POP POP POP JUMPDEST POP POP POP SWAP3 SWAP2 POP POP JUMP JUMPDEST PUSH0 PUSH2 0x2687 DUP3 DUP5 PUSH2 0x25FC JUMP JUMPDEST SWAP2 POP DUP2 SWAP1 POP SWAP3 SWAP2 POP POP JUMP JUMPDEST PUSH0 DUP2 SWAP1 POP DUP2 PUSH0 MSTORE PUSH1 0x20 PUSH0 KECCAK256 SWAP1 POP SWAP2 SWAP1 POP JUMP JUMPDEST PUSH0 PUSH1 0x20 PUSH1 0x1F DUP4 ADD DIV SWAP1 POP SWAP2 SWAP1 POP JUMP JUMPDEST PUSH0 DUP3 DUP3 SHL SWAP1 POP SWAP3 SWAP2 POP POP JUMP JUMPDEST PUSH0 PUSH1 0x8 DUP4 MUL PUSH2 0x26EE PUSH32 0xFFFFFFFFFFFFFFFFFFFFFFFFFFFFFFFFFFFFFFFFFFFFFFFFFFFFFFFFFFFFFFFF DUP3 PUSH2 0x26B3 JUMP JUMPDEST PUSH2 0x26F8 DUP7 DUP4 PUSH2 0x26B3 JUMP JUMPDEST SWAP6 POP DUP1 NOT DUP5 AND SWAP4 POP DUP1 DUP7 AND DUP5 OR SWAP3 POP POP POP SWAP4 SWAP3 POP POP POP JUMP JUMPDEST PUSH0 DUP2 SWAP1 POP SWAP2 SWAP1 POP JUMP JUMPDEST PUSH0 PUSH2 0x2733 PUSH2 0x272E PUSH2 0x2729 DUP5 PUSH2 0x20AD JUMP JUMPDEST PUSH2 0x2710 JUMP JUMPDEST PUSH2 0x20AD JUMP JUMPDEST SWAP1 POP SWAP2 SWAP1 POP JUMP JUMPDEST PUSH0 DUP2 SWAP1 POP SWAP2 SWAP1 POP JUMP JUMPDEST PUSH2 0x274C DUP4 PUSH2 0x2719 JUMP JUMPDEST PUSH2 0x2760 PUSH2 0x2758 DUP3 PUSH2 0x273A JUMP JUMPDEST DUP5 DUP5 SLOAD PUSH2 0x26BF JUMP JUMPDEST DUP3 SSTORE POP POP POP POP JUMP JUMPDEST PUSH0 SWAP1 JUMP JUMPDEST PUSH2 0x2774 PUSH2 0x2768 JUMP JUMPDEST PUSH2 0x277F DUP2 DUP5 DUP5 PUSH2 0x2743 JUMP JUMPDEST POP POP POP JUMP JUMPDEST JUMPDEST DUP2 DUP2 LT ISZERO PUSH2 0x27A2 JUMPI PUSH2 0x2797 PUSH0 DUP3 PUSH2 0x276C JUMP JUMPDEST PUSH1 0x1 DUP2 ADD SWAP1 POP PUSH2 0x2785 JUMP JUMPDEST POP POP JUMP JUMPDEST PUSH1 0x1F DUP3 GT ISZERO PUSH2 0x27E7 JUMPI PUSH2 0x27B8 DUP2 PUSH2 0x2692 JUMP JUMPDEST PUSH2 0x27C1 DUP5 PUSH2 0x26A4 JUMP JUMPDEST DUP2 ADD PUSH1 0x20 DUP6 LT ISZERO PUSH2 0x27D0 JUMPI DUP2 SWAP1 POP JUMPDEST PUSH2 0x27E4 PUSH2 0x27DC DUP6 PUSH2 0x26A4 JUMP JUMPDEST DUP4 ADD DUP3 PUSH2 0x2784 JUMP JUMPDEST POP POP JUMPDEST POP POP POP JUMP JUMPDEST PUSH0 DUP3 DUP3 SHR SWAP1 POP SWAP3 SWAP2 POP POP JUMP JUMPDEST PUSH0 PUSH2 0x2807 PUSH0 NOT DUP5 PUSH1 0x8 MUL PUSH2 0x27EC JUMP JUMPDEST NOT DUP1 DUP4 AND SWAP2 POP POP SWAP3 SWAP2 POP POP JUMP JUMPDEST PUSH0 PUSH2 0x281F DUP4 DUP4 PUSH2 0x27F8 JUMP JUMPDEST SWAP2 POP DUP3 PUSH1 0x2 MUL DUP3 OR SWAP1 POP SWAP3 SWAP2 POP POP JUMP JUMPDEST PUSH2 0x2838 DUP3 PUSH2 0x1F98 JUMP JUMPDEST PUSH8 0xFFFFFFFFFFFFFFFF DUP2 GT ISZERO PUSH2 0x2851 JUMPI PUSH2 0x2850 PUSH2 0x2205 JUMP JUMPDEST JUMPDEST PUSH2 0x285B DUP3 SLOAD PUSH2 0x251B JUMP JUMPDEST PUSH2 0x2866 DUP3 DUP3 DUP6 PUSH2 0x27A6 JUMP JUMPDEST PUSH0 PUSH1 0x20 SWAP1 POP PUSH1 0x1F DUP4 GT PUSH1 0x1 DUP2 EQ PUSH2 0x2897 JUMPI PUSH0 DUP5 ISZERO PUSH2 0x2885 JUMPI DUP3 DUP8 ADD MLOAD SWAP1 POP JUMPDEST PUSH2 0x288F DUP6 DUP3 PUSH2 0x2814 JUMP JUMPDEST DUP7 SSTORE POP PUSH2 0x28F6 JUMP JUMPDEST PUSH1 0x1F NOT DUP5 AND PUSH2 0x28A5 DUP7 PUSH2 0x2692 JUMP JUMPDEST PUSH0 JUMPDEST DUP3 DUP2 LT ISZERO PUSH2 0x28CC JUMPI DUP5 DUP10 ADD MLOAD DUP3 SSTORE PUSH1 0x1 DUP3 ADD SWAP2 POP PUSH1 0x20 DUP6 ADD SWAP5 POP PUSH1 0x20 DUP2 ADD SWAP1 POP PUSH2 0x28A7 JUMP JUMPDEST DUP7 DUP4 LT ISZERO PUSH2 0x28E9 JUMPI DUP5 DUP10 ADD MLOAD PUSH2 0x28E5 PUSH1 0x1F DUP10 AND DUP3 PUSH2 0x27F8 JUMP JUMPDEST DUP4 SSTORE POP JUMPDEST PUSH1 0x1 PUSH1 0x2 DUP9 MUL ADD DUP9 SSTORE POP POP POP JUMPDEST POP POP POP POP POP POP JUMP JUMPDEST PUSH0 PUSH1 0x40 DUP3 ADD SWAP1 POP DUP2 DUP2 SUB PUSH0 DUP4 ADD MSTORE PUSH2 0x2916 DUP2 DUP6 PUSH2 0x1FEA JUMP JUMPDEST SWAP1 POP PUSH2 0x2925 PUSH1 0x20 DUP4 ADD DUP5 PUSH2 0x23D9 JUMP JUMPDEST SWAP4 SWAP3 POP POP POP JUMP JUMPDEST PUSH32 0x46656520746F6F20686967680000000000000000000000000000000000000000 PUSH0 DUP3 ADD MSTORE POP JUMP JUMPDEST PUSH0 PUSH2 0x2960 PUSH1 0xC DUP4 PUSH2 0x1FA2 JUMP JUMPDEST SWAP2 POP PUSH2 0x296B DUP3 PUSH2 0x292C JUMP JUMPDEST PUSH1 0x20 DUP3 ADD SWAP1 POP SWAP2 SWAP1 POP JUMP JUMPDEST PUSH0 PUSH1 0x20 DUP3 ADD SWAP1 POP DUP2 DUP2 SUB PUSH0 DUP4 ADD MSTORE PUSH2 0x298D DUP2 PUSH2 0x2954 JUMP JUMPDEST SWAP1 POP SWAP2 SWAP1 POP JUMP JUMPDEST PUSH32 0x496E76616C696420747265617375727920616464726573730000000000000000 PUSH0 DUP3 ADD MSTORE POP JUMP JUMPDEST PUSH0 PUSH2 0x29C8 PUSH1 0x18 DUP4 PUSH2 0x1FA2 JUMP JUMPDEST SWAP2 POP PUSH2 0x29D3 DUP3 PUSH2 0x2994 JUMP JUMPDEST PUSH1 0x20 DUP3 ADD SWAP1 POP SWAP2 SWAP1 POP JUMP JUMPDEST PUSH0 PUSH1 0x20 DUP3 ADD SWAP1 POP DUP2 DUP2 SUB PUSH0 DUP4 ADD MSTORE PUSH2 0x29F5 DUP2 PUSH2 0x29BC JUMP JUMPDEST SWAP1 POP SWAP2 SWAP1 POP JUMP JUMPDEST PUSH32 0x54726561737572792077616C6C6574206E6F7420736574000000000000000000 PUSH0 DUP3 ADD MSTORE POP JUMP JUMPDEST PUSH0 PUSH2 0x2A30 PUSH1 0x17 DUP4 PUSH2 0x1FA2 JUMP JUMPDEST SWAP2 POP PUSH2 0x2A3B DUP3 PUSH2 0x29FC JUMP JUMPDEST PUSH1 0x20 DUP3 ADD SWAP1 POP SWAP2 SWAP1 POP JUMP JUMPDEST PUSH0 PUSH1 0x20 DUP3 ADD SWAP1 POP DUP2 DUP2 SUB PUSH0 DUP4 ADD MSTORE PUSH2 0x2A5D DUP2 PUSH2 0x2A24 JUMP JUMPDEST SWAP1 POP SWAP2 SWAP1 POP JUMP JUMPDEST PUSH32 0x4E6F204E474F7320726567697374657265640000000000000000000000000000 PUSH0 DUP3 ADD MSTORE POP JUMP JUMPDEST PUSH0 PUSH2 0x2A98 PUSH1 0x12 DUP4 PUSH2 0x1FA2 JUMP JUMPDEST SWAP2 POP PUSH2 0x2AA3 DUP3 PUSH2 0x2A64 JUMP JUMPDEST PUSH1 0x20 DUP3 ADD SWAP1 POP SWAP2 SWAP1 POP JUMP JUMPDEST PUSH0 PUSH1 0x20 DUP3 ADD SWAP1 POP DUP2 DUP2 SUB PUSH0 DUP4 ADD MSTORE PUSH2 0x2AC5 DUP2 PUSH2 0x2A8C JUMP JUMPDEST SWAP1 POP SWAP2 SWAP1 POP JUMP JUMPDEST PUSH32 0x4E6F2066756E647320746F206469737472696275746500000000000000000000 PUSH0 DUP3 ADD MSTORE POP JUMP JUMPDEST PUSH0 PUSH2 0x2B00 PUSH1 0x16 DUP4 PUSH2 0x1FA2 JUMP JUMPDEST SWAP2 POP PUSH2 0x2B0B DUP3 PUSH2 0x2ACC JUMP JUMPDEST PUSH1 0x20 DUP3 ADD SWAP1 POP SWAP2 SWAP1 POP JUMP JUMPDEST PUSH0 PUSH1 0x20 DUP3 ADD SWAP1 POP DUP2 DUP2 SUB PUSH0 DUP4 ADD MSTORE PUSH2 0x2B2D DUP2 PUSH2 0x2AF4 JUMP JUMPDEST SWAP1 POP SWAP2 SWAP1 POP JUMP JUMPDEST PUSH32 0x4E487B7100000000000000000000000000000000000000000000000000000000 PUSH0 MSTORE PUSH1 0x12 PUSH1 0x4 MSTORE PUSH1 0x24 PUSH0 REVERT JUMPDEST PUSH32 0x4E487B7100000000000000000000000000000000000000000000000000000000 PUSH0 MSTORE PUSH1 0x11 PUSH1 0x4 MSTORE PUSH1 0x24 PUSH0 REVERT JUMPDEST PUSH0 PUSH2 0x2B98 DUP3 PUSH2 0x20AD JUMP JUMPDEST SWAP2 POP PUSH2 0x2BA3 DUP4 PUSH2 0x20AD JUMP JUMPDEST SWAP3 POP DUP3 PUSH2 0x2BB3 JUMPI PUSH2 0x2BB2 PUSH2 0x2B34 JUMP JUMPDEST JUMPDEST DUP3 DUP3 DIV SWAP1 POP SWAP3 SWAP2 POP POP JUMP JUMPDEST PUSH32 0x496E73756666696369656E742066756E647320666F7220646973747269627574 PUSH0 DUP3 ADD MSTORE PUSH32 0x696F6E0000000000000000000000000000000000000000000000000000000000 PUSH1 0x20 DUP3 ADD MSTORE POP JUMP JUMPDEST PUSH0 PUSH2 0x2C18 PUSH1 0x23 DUP4 PUSH2 0x1FA2 JUMP JUMPDEST SWAP2 POP PUSH2 0x2C23 DUP3 PUSH2 0x2BBE JUMP JUMPDEST PUSH1 0x40 DUP3 ADD SWAP1 POP SWAP2 SWAP1 POP JUMP JUMPDEST PUSH0 PUSH1 0x20 DUP3 ADD SWAP1 POP DUP2 DUP2 SUB PUSH0 DUP4 ADD MSTORE PUSH2 0x2C45 DUP2 PUSH2 0x2C0C JUMP JUMPDEST SWAP1 POP SWAP2 SWAP1 POP JUMP JUMPDEST PUSH0 PUSH1 0x60 DUP3 ADD SWAP1 POP PUSH2 0x2C5F PUSH0 DUP4 ADD DUP7 PUSH2 0x23D9 JUMP JUMPDEST PUSH2 0x2C6C PUSH1 0x20 DUP4 ADD DUP6 PUSH2 0x2151 JUMP JUMPDEST PUSH2 0x2C79 PUSH1 0x40 DUP4 ADD DUP5 PUSH2 0x2151 JUMP JUMPDEST SWAP5 SWAP4 POP POP POP POP JUMP JUMPDEST PUSH32 0x546869732077616C6C657420697320616C726561647920726567697374657265 PUSH0 DUP3 ADD MSTORE PUSH32 0x6400000000000000000000000000000000000000000000000000000000000000 PUSH1 0x20 DUP3 ADD MSTORE POP JUMP JUMPDEST PUSH0 PUSH2 0x2CDB PUSH1 0x21 DUP4 PUSH2 0x1FA2 JUMP JUMPDEST SWAP2 POP PUSH2 0x2CE6 DUP3 PUSH2 0x2C81 JUMP JUMPDEST PUSH1 0x40 DUP3 ADD SWAP1 POP SWAP2 SWAP1 POP JUMP JUMPDEST PUSH0 PUSH1 0x20 DUP3 ADD SWAP1 POP DUP2 DUP2 SUB PUSH0 DUP4 ADD MSTORE PUSH2 0x2D08 DUP2 PUSH2 0x2CCF JUMP JUMPDEST SWAP1 POP SWAP2 SWAP1 POP JUMP JUMPDEST PUSH0 PUSH4 0xFFFFFFFF DUP3 AND SWAP1 POP SWAP2 SWAP1 POP JUMP JUMPDEST PUSH0 PUSH2 0x2D28 DUP3 PUSH2 0x2D0F JUMP JUMPDEST SWAP2 POP PUSH4 0xFFFFFFFF DUP3 SUB PUSH2 0x2D3E JUMPI PUSH2 0x2D3D PUSH2 0x2B61 JUMP JUMPDEST JUMPDEST PUSH1 0x1 DUP3 ADD SWAP1 POP SWAP2 SWAP1 POP JUMP JUMPDEST PUSH0 PUSH2 0x2D53 DUP3 PUSH2 0x20AD JUMP JUMPDEST SWAP2 POP PUSH2 0x2D5E DUP4 PUSH2 0x20AD JUMP JUMPDEST SWAP3 POP DUP3 DUP3 ADD SWAP1 POP DUP1 DUP3 GT ISZERO PUSH2 0x2D76 JUMPI PUSH2 0x2D75 PUSH2 0x2B61 JUMP JUMPDEST JUMPDEST SWAP3 SWAP2 POP POP JUMP JUMPDEST PUSH0 PUSH2 0x2D86 DUP3 PUSH2 0x20AD JUMP JUMPDEST SWAP2 POP PUSH2 0x2D91 DUP4 PUSH2 0x20AD JUMP JUMPDEST SWAP3 POP DUP3 DUP3 MUL PUSH2 0x2D9F DUP2 PUSH2 0x20AD JUMP JUMPDEST SWAP2 POP DUP3 DUP3 DIV DUP5 EQ DUP4 ISZERO OR PUSH2 0x2DB6 JUMPI PUSH2 0x2DB5 PUSH2 0x2B61 JUMP JUMPDEST JUMPDEST POP SWAP3 SWAP2 POP POP JUMP JUMPDEST PUSH0 PUSH2 0x2DC7 DUP3 PUSH2 0x20AD JUMP JUMPDEST SWAP2 POP PUSH2 0x2DD2 DUP4 PUSH2 0x20AD JUMP JUMPDEST SWAP3 POP DUP3 DUP3 SUB SWAP1 POP DUP2 DUP2 GT ISZERO PUSH2 0x2DEA JUMPI PUSH2 0x2DE9 PUSH2 0x2B61 JUMP JUMPDEST JUMPDEST SWAP3 SWAP2 POP POP JUMP JUMPDEST PUSH32 0x4E487B7100000000000000000000000000000000000000000000000000000000 PUSH0 MSTORE PUSH1 0x31 PUSH1 0x4 MSTORE PUSH1 0x24 PUSH0 REVERT INVALID LOG2 PUSH5 0x6970667358 0x22 SLT KECCAK256 JUMPI 0x2B 0xB8 LOG2 PREVRANDAO PUSH19 0xD8D0C6BD938602D2B1E905D6D2F1AD89E6E1E9 GASPRICE 0x24 0xB1 0xE DUP3 0x4C COINBASE PUSH5 0x736F6C6343 STOP ADDMOD XOR STOP CALLER "
				},
				"gasEstimates": {
					"creation": {
						"codeDepositCost": "2371800",
						"executionCost": "infinite",
						"totalCost": "infinite"
					},
					"external": {
						"allowance(address,address)": "infinite",
						"approve(address,uint256)": "infinite",
						"balanceOf(address)": "2940",
						"burn(uint256)": "infinite",
						"decimals()": "450",
						"distributeTreasuryToNGOs()": "infinite",
						"excludeFromFee(address,bool)": "infinite",
						"feePercent()": "2492",
						"isExcludedFromFee(address)": "2959",
						"name()": "infinite",
						"ngoNames(address)": "infinite",
						"ngoWallets(uint256)": "4989",
						"owner()": "2604",
						"registerNGO(string,address)": "infinite",
						"renounceOwnership()": "infinite",
						"setFeePercent(uint256)": "infinite",
						"setTreasuryWallet(address)": "infinite",
						"symbol()": "infinite",
						"totalSupply()": "2500",
						"transfer(address,uint256)": "infinite",
						"transferFrom(address,address,uint256)": "infinite",
						"transferOwnership(address)": "infinite",
						"treasuryWallet()": "2575",
						"unregisterNGO(string)": "infinite"
					},
					"internal": {
						"_update(address,address,uint256)": "infinite",
						"popFromNGOWallets(uint32)": "infinite",
						"pushToNGOWallets(address)": "48590",
						"registerNGOWallet(address)": "infinite",
						"unregisterNGOWallet(address)": "infinite"
					}
				},
				"methodIdentifiers": {
					"allowance(address,address)": "dd62ed3e",
					"approve(address,uint256)": "095ea7b3",
					"balanceOf(address)": "70a08231",
					"burn(uint256)": "42966c68",
					"decimals()": "313ce567",
					"distributeTreasuryToNGOs()": "f9479ffa",
					"excludeFromFee(address,bool)": "df8408fe",
					"feePercent()": "7fd6f15c",
					"isExcludedFromFee(address)": "5342acb4",
					"name()": "06fdde03",
					"ngoNames(address)": "4618f6ac",
					"ngoWallets(uint256)": "7d5b6c60",
					"owner()": "8da5cb5b",
					"registerNGO(string,address)": "3539c6b1",
					"renounceOwnership()": "715018a6",
					"setFeePercent(uint256)": "7ce3489b",
					"setTreasuryWallet(address)": "a8602fea",
					"symbol()": "95d89b41",
					"totalSupply()": "18160ddd",
					"transfer(address,uint256)": "a9059cbb",
					"transferFrom(address,address,uint256)": "23b872dd",
					"transferOwnership(address)": "f2fde38b",
					"treasuryWallet()": "4626402b",
					"unregisterNGO(string)": "ae91470d"
				}
			},
			"storageLayout": {
				"storage": [
					{
						"astId": 307,
						"contract": "HumAidToken.sol:HumAid",
						"label": "_balances",
						"offset": 0,
						"slot": "0",
						"type": "t_mapping(t_address,t_uint256)"
					},
					{
						"astId": 313,
						"contract": "HumAidToken.sol:HumAid",
						"label": "_allowances",
						"offset": 0,
						"slot": "1",
						"type": "t_mapping(t_address,t_mapping(t_address,t_uint256))"
					},
					{
						"astId": 315,
						"contract": "HumAidToken.sol:HumAid",
						"label": "_totalSupply",
						"offset": 0,
						"slot": "2",
						"type": "t_uint256"
					},
					{
						"astId": 317,
						"contract": "HumAidToken.sol:HumAid",
						"label": "_name",
						"offset": 0,
						"slot": "3",
						"type": "t_string_storage"
					},
					{
						"astId": 319,
						"contract": "HumAidToken.sol:HumAid",
						"label": "_symbol",
						"offset": 0,
						"slot": "4",
						"type": "t_string_storage"
					},
					{
						"astId": 8,
						"contract": "HumAidToken.sol:HumAid",
						"label": "_owner",
						"offset": 0,
						"slot": "5",
						"type": "t_address"
					},
					{
						"astId": 949,
						"contract": "HumAidToken.sol:HumAid",
						"label": "feePercent",
						"offset": 0,
						"slot": "6",
						"type": "t_uint256"
					},
					{
						"astId": 953,
						"contract": "HumAidToken.sol:HumAid",
						"label": "ngoNames",
						"offset": 0,
						"slot": "7",
						"type": "t_mapping(t_address,t_string_storage)"
					},
					{
						"astId": 956,
						"contract": "HumAidToken.sol:HumAid",
						"label": "ngoWallets",
						"offset": 0,
						"slot": "8",
						"type": "t_array(t_address)dyn_storage"
					},
					{
						"astId": 960,
						"contract": "HumAidToken.sol:HumAid",
						"label": "_isExcludedFromFee",
						"offset": 0,
						"slot": "9",
						"type": "t_mapping(t_address,t_bool)"
					},
					{
						"astId": 962,
						"contract": "HumAidToken.sol:HumAid",
						"label": "treasuryWallet",
						"offset": 0,
						"slot": "10",
						"type": "t_address"
					}
				],
				"types": {
					"t_address": {
						"encoding": "inplace",
						"label": "address",
						"numberOfBytes": "20"
					},
					"t_array(t_address)dyn_storage": {
						"base": "t_address",
						"encoding": "dynamic_array",
						"label": "address[]",
						"numberOfBytes": "32"
					},
					"t_bool": {
						"encoding": "inplace",
						"label": "bool",
						"numberOfBytes": "1"
					},
					"t_mapping(t_address,t_bool)": {
						"encoding": "mapping",
						"key": "t_address",
						"label": "mapping(address => bool)",
						"numberOfBytes": "32",
						"value": "t_bool"
					},
					"t_mapping(t_address,t_mapping(t_address,t_uint256))": {
						"encoding": "mapping",
						"key": "t_address",
						"label": "mapping(address => mapping(address => uint256))",
						"numberOfBytes": "32",
						"value": "t_mapping(t_address,t_uint256)"
					},
					"t_mapping(t_address,t_string_storage)": {
						"encoding": "mapping",
						"key": "t_address",
						"label": "mapping(address => string)",
						"numberOfBytes": "32",
						"value": "t_string_storage"
					},
					"t_mapping(t_address,t_uint256)": {
						"encoding": "mapping",
						"key": "t_address",
						"label": "mapping(address => uint256)",
						"numberOfBytes": "32",
						"value": "t_uint256"
					},
					"t_string_storage": {
						"encoding": "bytes",
						"label": "string",
						"numberOfBytes": "32"
					},
					"t_uint256": {
						"encoding": "inplace",
						"label": "uint256",
						"numberOfBytes": "32"
					}
				}
			},
			"userdoc": {
				"kind": "user",
				"methods": {},
				"version": 1
			}
		}
	}
}