{
	"HumAidToken.sol": {
		"HumAid": {
			"abi": [
				{
					"inputs": [],
					"stateMutability": "nonpayable",
					"type": "constructor"
				},
				{
					"inputs": [
						{
							"internalType": "address",
							"name": "spender",
							"type": "address"
						},
						{
							"internalType": "uint256",
							"name": "allowance",
							"type": "uint256"
						},
						{
							"internalType": "uint256",
							"name": "needed",
							"type": "uint256"
						}
					],
					"name": "ERC20InsufficientAllowance",
					"type": "error"
				},
				{
					"inputs": [
						{
							"internalType": "address",
							"name": "sender",
							"type": "address"
						},
						{
							"internalType": "uint256",
							"name": "balance",
							"type": "uint256"
						},
						{
							"internalType": "uint256",
							"name": "needed",
							"type": "uint256"
						}
					],
					"name": "ERC20InsufficientBalance",
					"type": "error"
				},
				{
					"inputs": [
						{
							"internalType": "address",
							"name": "approver",
							"type": "address"
						}
					],
					"name": "ERC20InvalidApprover",
					"type": "error"
				},
				{
					"inputs": [
						{
							"internalType": "address",
							"name": "receiver",
							"type": "address"
						}
					],
					"name": "ERC20InvalidReceiver",
					"type": "error"
				},
				{
					"inputs": [
						{
							"internalType": "address",
							"name": "sender",
							"type": "address"
						}
					],
					"name": "ERC20InvalidSender",
					"type": "error"
				},
				{
					"inputs": [
						{
							"internalType": "address",
							"name": "spender",
							"type": "address"
						}
					],
					"name": "ERC20InvalidSpender",
					"type": "error"
				},
				{
					"inputs": [
						{
							"internalType": "address",
							"name": "owner",
							"type": "address"
						}
					],
					"name": "OwnableInvalidOwner",
					"type": "error"
				},
				{
					"inputs": [
						{
							"internalType": "address",
							"name": "account",
							"type": "address"
						}
					],
					"name": "OwnableUnauthorizedAccount",
					"type": "error"
				},
				{
					"anonymous": false,
					"inputs": [
						{
							"indexed": true,
							"internalType": "address",
							"name": "owner",
							"type": "address"
						},
						{
							"indexed": true,
							"internalType": "address",
							"name": "spender",
							"type": "address"
						},
						{
							"indexed": false,
							"internalType": "uint256",
							"name": "value",
							"type": "uint256"
						}
					],
					"name": "Approval",
					"type": "event"
				},
				{
					"anonymous": false,
					"inputs": [
						{
							"indexed": false,
							"internalType": "string",
							"name": "name",
							"type": "string"
						},
						{
							"indexed": false,
							"internalType": "address",
							"name": "ngo",
							"type": "address"
						}
					],
					"name": "NGORegistered",
					"type": "event"
				},
				{
					"anonymous": false,
					"inputs": [
						{
							"indexed": false,
							"internalType": "string",
							"name": "name",
							"type": "string"
						},
						{
							"indexed": false,
							"internalType": "address",
							"name": "ngo",
							"type": "address"
						}
					],
					"name": "NGOUnregistered",
					"type": "event"
				},
				{
					"anonymous": false,
					"inputs": [
						{
							"indexed": true,
							"internalType": "address",
							"name": "previousOwner",
							"type": "address"
						},
						{
							"indexed": true,
							"internalType": "address",
							"name": "newOwner",
							"type": "address"
						}
					],
					"name": "OwnershipTransferred",
					"type": "event"
				},
				{
					"anonymous": false,
					"inputs": [
						{
							"indexed": true,
							"internalType": "address",
							"name": "from",
							"type": "address"
						},
						{
							"indexed": true,
							"internalType": "address",
							"name": "to",
							"type": "address"
						},
						{
							"indexed": false,
							"internalType": "uint256",
							"name": "value",
							"type": "uint256"
						}
					],
					"name": "Transfer",
					"type": "event"
				},
				{
					"inputs": [
						{
							"internalType": "address",
							"name": "owner",
							"type": "address"
						},
						{
							"internalType": "address",
							"name": "spender",
							"type": "address"
						}
					],
					"name": "allowance",
					"outputs": [
						{
							"internalType": "uint256",
							"name": "",
							"type": "uint256"
						}
					],
					"stateMutability": "view",
					"type": "function"
				},
				{
					"inputs": [
						{
							"internalType": "address",
							"name": "spender",
							"type": "address"
						},
						{
							"internalType": "uint256",
							"name": "value",
							"type": "uint256"
						}
					],
					"name": "approve",
					"outputs": [
						{
							"internalType": "bool",
							"name": "",
							"type": "bool"
						}
					],
					"stateMutability": "nonpayable",
					"type": "function"
				},
				{
					"inputs": [
						{
							"internalType": "address",
							"name": "account",
							"type": "address"
						}
					],
					"name": "balanceOf",
					"outputs": [
						{
							"internalType": "uint256",
							"name": "",
							"type": "uint256"
						}
					],
					"stateMutability": "view",
					"type": "function"
				},
				{
					"inputs": [
						{
							"internalType": "uint256",
							"name": "amount",
							"type": "uint256"
						}
					],
					"name": "burn",
					"outputs": [],
					"stateMutability": "nonpayable",
					"type": "function"
				},
				{
					"inputs": [],
					"name": "decimals",
					"outputs": [
						{
							"internalType": "uint8",
							"name": "",
							"type": "uint8"
						}
					],
					"stateMutability": "view",
					"type": "function"
				},
				{
					"inputs": [],
					"name": "distributeTreasuryToNGOs",
					"outputs": [],
					"stateMutability": "nonpayable",
					"type": "function"
				},
				{
					"inputs": [
						{
							"internalType": "address",
							"name": "account",
							"type": "address"
						},
						{
							"internalType": "bool",
							"name": "excluded",
							"type": "bool"
						}
					],
					"name": "excludeFromFee",
					"outputs": [],
					"stateMutability": "nonpayable",
					"type": "function"
				},
				{
					"inputs": [],
					"name": "feePercent",
					"outputs": [
						{
							"internalType": "uint256",
							"name": "",
							"type": "uint256"
						}
					],
					"stateMutability": "view",
					"type": "function"
				},
				{
					"inputs": [
						{
							"internalType": "address",
							"name": "account",
							"type": "address"
						}
					],
					"name": "isExcludedFromFee",
					"outputs": [
						{
							"internalType": "bool",
							"name": "",
							"type": "bool"
						}
					],
					"stateMutability": "view",
					"type": "function"
				},
				{
					"inputs": [],
					"name": "name",
					"outputs": [
						{
							"internalType": "string",
							"name": "",
							"type": "string"
						}
					],
					"stateMutability": "view",
					"type": "function"
				},
				{
					"inputs": [
						{
							"internalType": "address",
							"name": "",
							"type": "address"
						}
					],
					"name": "ngoNames",
					"outputs": [
						{
							"internalType": "string",
							"name": "",
							"type": "string"
						}
					],
					"stateMutability": "view",
					"type": "function"
				},
				{
					"inputs": [
						{
							"internalType": "uint256",
							"name": "",
							"type": "uint256"
						}
					],
					"name": "ngoWallets",
					"outputs": [
						{
							"internalType": "address",
							"name": "",
							"type": "address"
						}
					],
					"stateMutability": "view",
					"type": "function"
				},
				{
					"inputs": [],
					"name": "owner",
					"outputs": [
						{
							"internalType": "address",
							"name": "",
							"type": "address"
						}
					],
					"stateMutability": "view",
					"type": "function"
				},
				{
					"inputs": [
						{
							"internalType": "string",
							"name": "_ngoName",
							"type": "string"
						},
						{
							"internalType": "address",
							"name": "_ngoAddress",
							"type": "address"
						}
					],
					"name": "registerNGO",
					"outputs": [
						{
							"internalType": "bool",
							"name": "",
							"type": "bool"
						}
					],
					"stateMutability": "nonpayable",
					"type": "function"
				},
				{
					"inputs": [],
					"name": "renounceOwnership",
					"outputs": [],
					"stateMutability": "nonpayable",
					"type": "function"
				},
				{
					"inputs": [
						{
							"internalType": "uint256",
							"name": "_feePercent",
							"type": "uint256"
						}
					],
					"name": "setFeePercent",
					"outputs": [],
					"stateMutability": "nonpayable",
					"type": "function"
				},
				{
					"inputs": [
						{
							"internalType": "address",
							"name": "_treasuryWallet",
							"type": "address"
						}
					],
					"name": "setTreasuryWallet",
					"outputs": [],
					"stateMutability": "nonpayable",
					"type": "function"
				},
				{
					"inputs": [],
					"name": "symbol",
					"outputs": [
						{
							"internalType": "string",
							"name": "",
							"type": "string"
						}
					],
					"stateMutability": "view",
					"type": "function"
				},
				{
					"inputs": [],
					"name": "totalSupply",
					"outputs": [
						{
							"internalType": "uint256",
							"name": "",
							"type": "uint256"
						}
					],
					"stateMutability": "view",
					"type": "function"
				},
				{
					"inputs": [
						{
							"internalType": "address",
							"name": "to",
							"type": "address"
						},
						{
							"internalType": "uint256",
							"name": "value",
							"type": "uint256"
						}
					],
					"name": "transfer",
					"outputs": [
						{
							"internalType": "bool",
							"name": "",
							"type": "bool"
						}
					],
					"stateMutability": "nonpayable",
					"type": "function"
				},
				{
					"inputs": [
						{
							"internalType": "address",
							"name": "from",
							"type": "address"
						},
						{
							"internalType": "address",
							"name": "to",
							"type": "address"
						},
						{
							"internalType": "uint256",
							"name": "value",
							"type": "uint256"
						}
					],
					"name": "transferFrom",
					"outputs": [
						{
							"internalType": "bool",
							"name": "",
							"type": "bool"
						}
					],
					"stateMutability": "nonpayable",
					"type": "function"
				},
				{
					"inputs": [
						{
							"internalType": "address",
							"name": "newOwner",
							"type": "address"
						}
					],
					"name": "transferOwnership",
					"outputs": [],
					"stateMutability": "nonpayable",
					"type": "function"
				},
				{
					"inputs": [],
					"name": "treasuryWallet",
					"outputs": [
						{
							"internalType": "address",
							"name": "",
							"type": "address"
						}
					],
					"stateMutability": "view",
					"type": "function"
				},
				{
					"inputs": [
						{
							"internalType": "string",
							"name": "_ngoName",
							"type": "string"
						}
					],
					"name": "unregisterNGO",
					"outputs": [
						{
							"internalType": "bool",
							"name": "",
							"type": "bool"
						}
					],
					"stateMutability": "nonpayable",
					"type": "function"
				}
			],
			"devdoc": {
				"errors": {
					"ERC20InsufficientAllowance(address,uint256,uint256)": [
						{
							"details": "Indicates a failure with the `spender`’s `allowance`. Used in transfers.",
							"params": {
								"allowance": "Amount of tokens a `spender` is allowed to operate with.",
								"needed": "Minimum amount required to perform a transfer.",
								"spender": "Address that may be allowed to operate on tokens without being their owner."
							}
						}
					],
					"ERC20InsufficientBalance(address,uint256,uint256)": [
						{
							"details": "Indicates an error related to the current `balance` of a `sender`. Used in transfers.",
							"params": {
								"balance": "Current balance for the interacting account.",
								"needed": "Minimum amount required to perform a transfer.",
								"sender": "Address whose tokens are being transferred."
							}
						}
					],
					"ERC20InvalidApprover(address)": [
						{
							"details": "Indicates a failure with the `approver` of a token to be approved. Used in approvals.",
							"params": {
								"approver": "Address initiating an approval operation."
							}
						}
					],
					"ERC20InvalidReceiver(address)": [
						{
							"details": "Indicates a failure with the token `receiver`. Used in transfers.",
							"params": {
								"receiver": "Address to which tokens are being transferred."
							}
						}
					],
					"ERC20InvalidSender(address)": [
						{
							"details": "Indicates a failure with the token `sender`. Used in transfers.",
							"params": {
								"sender": "Address whose tokens are being transferred."
							}
						}
					],
					"ERC20InvalidSpender(address)": [
						{
							"details": "Indicates a failure with the `spender` to be approved. Used in approvals.",
							"params": {
								"spender": "Address that may be allowed to operate on tokens without being their owner."
							}
						}
					],
					"OwnableInvalidOwner(address)": [
						{
							"details": "The owner is not a valid owner account. (eg. `address(0)`)"
						}
					],
					"OwnableUnauthorizedAccount(address)": [
						{
							"details": "The caller account is not authorized to perform an operation."
						}
					]
				},
				"events": {
					"Approval(address,address,uint256)": {
						"details": "Emitted when the allowance of a `spender` for an `owner` is set by a call to {approve}. `value` is the new allowance."
					},
					"Transfer(address,address,uint256)": {
						"details": "Emitted when `value` tokens are moved from one account (`from`) to another (`to`). Note that `value` may be zero."
					}
				},
				"kind": "dev",
				"methods": {
					"allowance(address,address)": {
						"details": "See {IERC20-allowance}."
					},
					"approve(address,uint256)": {
						"details": "See {IERC20-approve}. NOTE: If `value` is the maximum `uint256`, the allowance is not updated on `transferFrom`. This is semantically equivalent to an infinite approval. Requirements: - `spender` cannot be the zero address."
					},
					"balanceOf(address)": {
						"details": "See {IERC20-balanceOf}."
					},
					"decimals()": {
						"details": "Returns the number of decimals used to get its user representation. For example, if `decimals` equals `2`, a balance of `505` tokens should be displayed to a user as `5.05` (`505 / 10 ** 2`). Tokens usually opt for a value of 18, imitating the relationship between Ether and Wei. This is the default value returned by this function, unless it's overridden. NOTE: This information is only used for _display_ purposes: it in no way affects any of the arithmetic of the contract, including {IERC20-balanceOf} and {IERC20-transfer}."
					},
					"name()": {
						"details": "Returns the name of the token."
					},
					"owner()": {
						"details": "Returns the address of the current owner."
					},
					"renounceOwnership()": {
						"details": "Leaves the contract without owner. It will not be possible to call `onlyOwner` functions. Can only be called by the current owner. NOTE: Renouncing ownership will leave the contract without an owner, thereby disabling any functionality that is only available to the owner."
					},
					"symbol()": {
						"details": "Returns the symbol of the token, usually a shorter version of the name."
					},
					"totalSupply()": {
						"details": "See {IERC20-totalSupply}."
					},
					"transfer(address,uint256)": {
						"details": "See {IERC20-transfer}. Requirements: - `to` cannot be the zero address. - the caller must have a balance of at least `value`."
					},
					"transferFrom(address,address,uint256)": {
						"details": "See {IERC20-transferFrom}. Skips emitting an {Approval} event indicating an allowance update. This is not required by the ERC. See {xref-ERC20-_approve-address-address-uint256-bool-}[_approve]. NOTE: Does not update the allowance if the current allowance is the maximum `uint256`. Requirements: - `from` and `to` cannot be the zero address. - `from` must have a balance of at least `value`. - the caller must have allowance for ``from``'s tokens of at least `value`."
					},
					"transferOwnership(address)": {
						"details": "Transfers ownership of the contract to a new account (`newOwner`). Can only be called by the current owner."
					}
				},
				"version": 1
			},
			"evm": {
				"assembly": "    /* \"HumAidToken.sol\":174:5471  contract HumAid is ERC20, Ownable(address(msg.sender)) {... */\n  mstore(0x40, 0x80)\n    /* \"HumAidToken.sol\":264:265  5 */\n  0x05\n    /* \"HumAidToken.sol\":236:265  uint256 public feePercent = 5 */\n  0x06\n  sstore\n    /* \"HumAidToken.sol\":477:681  constructor() ERC20(\"HumAid\", \"HUM\") {... */\n  callvalue\n  dup1\n  iszero\n  tag_1\n  jumpi\n  0x00\n  dup1\n  revert\ntag_1:\n  pop\n    /* \"HumAidToken.sol\":216:226  msg.sender */\n  caller\n    /* \"@openzeppelin/contracts/token/ERC20/ERC20.sol\":1582:1695  constructor(string memory name_, string memory symbol_) {... */\n  mload(0x40)\n  dup1\n  0x40\n  add\n  0x40\n  mstore\n  dup1\n  0x06\n  dup2\n  mstore\n  0x20\n  add\n  0x48756d4169640000000000000000000000000000000000000000000000000000\n  dup2\n  mstore\n  pop\n  mload(0x40)\n  dup1\n  0x40\n  add\n  0x40\n  mstore\n  dup1\n  0x03\n  dup2\n  mstore\n  0x20\n  add\n  0x48554d0000000000000000000000000000000000000000000000000000000000\n  dup2\n  mstore\n  pop\n    /* \"@openzeppelin/contracts/token/ERC20/ERC20.sol\":1656:1661  name_ */\n  dup2\n    /* \"@openzeppelin/contracts/token/ERC20/ERC20.sol\":1648:1653  _name */\n  0x03\n    /* \"@openzeppelin/contracts/token/ERC20/ERC20.sol\":1648:1661  _name = name_ */\n  swap1\n  dup2\n  tag_6\n  swap2\n  swap1\n  tag_7\n  jump\t// in\ntag_6:\n  pop\n    /* \"@openzeppelin/contracts/token/ERC20/ERC20.sol\":1681:1688  symbol_ */\n  dup1\n    /* \"@openzeppelin/contracts/token/ERC20/ERC20.sol\":1671:1678  _symbol */\n  0x04\n    /* \"@openzeppelin/contracts/token/ERC20/ERC20.sol\":1671:1688  _symbol = symbol_ */\n  swap1\n  dup2\n  tag_8\n  swap2\n  swap1\n  tag_7\n  jump\t// in\ntag_8:\n  pop\n    /* \"@openzeppelin/contracts/token/ERC20/ERC20.sol\":1582:1695  constructor(string memory name_, string memory symbol_) {... */\n  pop\n  pop\n    /* \"@openzeppelin/contracts/access/Ownable.sol\":1297:1298  0 */\n  0x00\n    /* \"@openzeppelin/contracts/access/Ownable.sol\":1273:1299  initialOwner == address(0) */\n  0xffffffffffffffffffffffffffffffffffffffff\n  and\n    /* \"@openzeppelin/contracts/access/Ownable.sol\":1273:1285  initialOwner */\n  dup2\n    /* \"@openzeppelin/contracts/access/Ownable.sol\":1273:1299  initialOwner == address(0) */\n  0xffffffffffffffffffffffffffffffffffffffff\n  and\n  sub\n    /* \"@openzeppelin/contracts/access/Ownable.sol\":1269:1364  if (initialOwner == address(0)) {... */\n  tag_10\n  jumpi\n    /* \"@openzeppelin/contracts/access/Ownable.sol\":1350:1351  0 */\n  0x00\n    /* \"@openzeppelin/contracts/access/Ownable.sol\":1322:1353  OwnableInvalidOwner(address(0)) */\n  mload(0x40)\n  0x1e4fbdf700000000000000000000000000000000000000000000000000000000\n  dup2\n  mstore\n  0x04\n  add\n  tag_11\n  swap2\n  swap1\n  tag_12\n  jump\t// in\ntag_11:\n  mload(0x40)\n  dup1\n  swap2\n  sub\n  swap1\n  revert\n    /* \"@openzeppelin/contracts/access/Ownable.sol\":1269:1364  if (initialOwner == address(0)) {... */\ntag_10:\n    /* \"@openzeppelin/contracts/access/Ownable.sol\":1373:1405  _transferOwnership(initialOwner) */\n  tag_13\n    /* \"@openzeppelin/contracts/access/Ownable.sol\":1392:1404  initialOwner */\n  dup2\n    /* \"@openzeppelin/contracts/access/Ownable.sol\":1373:1391  _transferOwnership */\n  shl(0x20, tag_14)\n    /* \"@openzeppelin/contracts/access/Ownable.sol\":1373:1405  _transferOwnership(initialOwner) */\n  0x20\n  shr\n  jump\t// in\ntag_13:\n    /* \"@openzeppelin/contracts/access/Ownable.sol\":1225:1412  constructor(address initialOwner) {... */\n  pop\n    /* \"HumAidToken.sol\":558:562  true */\n  0x01\n    /* \"HumAidToken.sol\":525:543  _isExcludedFromFee */\n  0x09\n    /* \"HumAidToken.sol\":525:555  _isExcludedFromFee[msg.sender] */\n  0x00\n    /* \"HumAidToken.sol\":544:554  msg.sender */\n  caller\n    /* \"HumAidToken.sol\":525:555  _isExcludedFromFee[msg.sender] */\n  0xffffffffffffffffffffffffffffffffffffffff\n  and\n  0xffffffffffffffffffffffffffffffffffffffff\n  and\n  dup2\n  mstore\n  0x20\n  add\n  swap1\n  dup2\n  mstore\n  0x20\n  add\n  0x00\n  keccak256\n  0x00\n    /* \"HumAidToken.sol\":525:562  _isExcludedFromFee[msg.sender] = true */\n  0x0100\n  exp\n  dup2\n  sload\n  dup2\n  0xff\n  mul\n  not\n  and\n  swap1\n  dup4\n  iszero\n  iszero\n  mul\n  or\n  swap1\n  sstore\n  pop\n    /* \"HumAidToken.sol\":622:673  _mint(msg.sender, 1_000_000_000 * 10 ** decimals()) */\n  tag_16\n    /* \"HumAidToken.sol\":628:638  msg.sender */\n  caller\n    /* \"HumAidToken.sol\":662:672  decimals() */\n  tag_17\n    /* \"HumAidToken.sol\":662:670  decimals */\n  shl(0x20, tag_18)\n    /* \"HumAidToken.sol\":662:672  decimals() */\n  0x20\n  shr\n  jump\t// in\ntag_17:\n    /* \"HumAidToken.sol\":656:658  10 */\n  0x0a\n    /* \"HumAidToken.sol\":656:672  10 ** decimals() */\n  tag_19\n  swap2\n  swap1\n  tag_20\n  jump\t// in\ntag_19:\n    /* \"HumAidToken.sol\":640:653  1_000_000_000 */\n  0x3b9aca00\n    /* \"HumAidToken.sol\":640:672  1_000_000_000 * 10 ** decimals() */\n  tag_21\n  swap2\n  swap1\n  tag_22\n  jump\t// in\ntag_21:\n    /* \"HumAidToken.sol\":622:627  _mint */\n  shl(0x20, tag_23)\n    /* \"HumAidToken.sol\":622:673  _mint(msg.sender, 1_000_000_000 * 10 ** decimals()) */\n  0x20\n  shr\n  jump\t// in\ntag_16:\n    /* \"HumAidToken.sol\":174:5471  contract HumAid is ERC20, Ownable(address(msg.sender)) {... */\n  jump(tag_24)\n    /* \"@openzeppelin/contracts/access/Ownable.sol\":2912:3099  function _transferOwnership(address newOwner) internal virtual {... */\ntag_14:\n    /* \"@openzeppelin/contracts/access/Ownable.sol\":2985:3001  address oldOwner */\n  0x00\n    /* \"@openzeppelin/contracts/access/Ownable.sol\":3004:3010  _owner */\n  0x05\n  0x00\n  swap1\n  sload\n  swap1\n  0x0100\n  exp\n  swap1\n  div\n  0xffffffffffffffffffffffffffffffffffffffff\n  and\n    /* \"@openzeppelin/contracts/access/Ownable.sol\":2985:3010  address oldOwner = _owner */\n  swap1\n  pop\n    /* \"@openzeppelin/contracts/access/Ownable.sol\":3029:3037  newOwner */\n  dup2\n    /* \"@openzeppelin/contracts/access/Ownable.sol\":3020:3026  _owner */\n  0x05\n  0x00\n    /* \"@openzeppelin/contracts/access/Ownable.sol\":3020:3037  _owner = newOwner */\n  0x0100\n  exp\n  dup2\n  sload\n  dup2\n  0xffffffffffffffffffffffffffffffffffffffff\n  mul\n  not\n  and\n  swap1\n  dup4\n  0xffffffffffffffffffffffffffffffffffffffff\n  and\n  mul\n  or\n  swap1\n  sstore\n  pop\n    /* \"@openzeppelin/contracts/access/Ownable.sol\":3083:3091  newOwner */\n  dup2\n    /* \"@openzeppelin/contracts/access/Ownable.sol\":3052:3092  OwnershipTransferred(oldOwner, newOwner) */\n  0xffffffffffffffffffffffffffffffffffffffff\n  and\n    /* \"@openzeppelin/contracts/access/Ownable.sol\":3073:3081  oldOwner */\n  dup2\n    /* \"@openzeppelin/contracts/access/Ownable.sol\":3052:3092  OwnershipTransferred(oldOwner, newOwner) */\n  0xffffffffffffffffffffffffffffffffffffffff\n  and\n  0x8be0079c531659141344cd1fd0a4f28419497f9722a3daafe3b4186f6b6457e0\n  mload(0x40)\n  mload(0x40)\n  dup1\n  swap2\n  sub\n  swap1\n  log3\n    /* \"@openzeppelin/contracts/access/Ownable.sol\":2975:3099  {... */\n  pop\n    /* \"@openzeppelin/contracts/access/Ownable.sol\":2912:3099  function _transferOwnership(address newOwner) internal virtual {... */\n  pop\n  jump\t// out\n    /* \"@openzeppelin/contracts/token/ERC20/ERC20.sol\":2688:2770  function decimals() public view virtual returns (uint8) {... */\ntag_18:\n    /* \"@openzeppelin/contracts/token/ERC20/ERC20.sol\":2737:2742  uint8 */\n  0x00\n    /* \"@openzeppelin/contracts/token/ERC20/ERC20.sol\":2761:2763  18 */\n  0x12\n    /* \"@openzeppelin/contracts/token/ERC20/ERC20.sol\":2754:2763  return 18 */\n  swap1\n  pop\n    /* \"@openzeppelin/contracts/token/ERC20/ERC20.sol\":2688:2770  function decimals() public view virtual returns (uint8) {... */\n  swap1\n  jump\t// out\n    /* \"@openzeppelin/contracts/token/ERC20/ERC20.sol\":7439:7647  function _mint(address account, uint256 value) internal {... */\ntag_23:\n    /* \"@openzeppelin/contracts/token/ERC20/ERC20.sol\":7528:7529  0 */\n  0x00\n    /* \"@openzeppelin/contracts/token/ERC20/ERC20.sol\":7509:7530  account == address(0) */\n  0xffffffffffffffffffffffffffffffffffffffff\n  and\n    /* \"@openzeppelin/contracts/token/ERC20/ERC20.sol\":7509:7516  account */\n  dup3\n    /* \"@openzeppelin/contracts/token/ERC20/ERC20.sol\":7509:7530  account == address(0) */\n  0xffffffffffffffffffffffffffffffffffffffff\n  and\n  sub\n    /* \"@openzeppelin/contracts/token/ERC20/ERC20.sol\":7505:7596  if (account == address(0)) {... */\n  tag_28\n  jumpi\n    /* \"@openzeppelin/contracts/token/ERC20/ERC20.sol\":7582:7583  0 */\n  0x00\n    /* \"@openzeppelin/contracts/token/ERC20/ERC20.sol\":7553:7585  ERC20InvalidReceiver(address(0)) */\n  mload(0x40)\n  0xec442f0500000000000000000000000000000000000000000000000000000000\n  dup2\n  mstore\n  0x04\n  add\n  tag_29\n  swap2\n  swap1\n  tag_12\n  jump\t// in\ntag_29:\n  mload(0x40)\n  dup1\n  swap2\n  sub\n  swap1\n  revert\n    /* \"@openzeppelin/contracts/token/ERC20/ERC20.sol\":7505:7596  if (account == address(0)) {... */\ntag_28:\n    /* \"@openzeppelin/contracts/token/ERC20/ERC20.sol\":7605:7640  _update(address(0), account, value) */\n  tag_30\n    /* \"@openzeppelin/contracts/token/ERC20/ERC20.sol\":7621:7622  0 */\n  0x00\n    /* \"@openzeppelin/contracts/token/ERC20/ERC20.sol\":7625:7632  account */\n  dup4\n    /* \"@openzeppelin/contracts/token/ERC20/ERC20.sol\":7634:7639  value */\n  dup4\n    /* \"@openzeppelin/contracts/token/ERC20/ERC20.sol\":7605:7612  _update */\n  shl(0x20, tag_31)\n    /* \"@openzeppelin/contracts/token/ERC20/ERC20.sol\":7605:7640  _update(address(0), account, value) */\n  0x20\n  shr\n  jump\t// in\ntag_30:\n    /* \"@openzeppelin/contracts/token/ERC20/ERC20.sol\":7439:7647  function _mint(address account, uint256 value) internal {... */\n  pop\n  pop\n  jump\t// out\n    /* \"HumAidToken.sol\":4657:5468  function _update(address from, address to, uint256 value) internal override {... */\ntag_31:\n    /* \"HumAidToken.sol\":4748:4766  _isExcludedFromFee */\n  0x09\n    /* \"HumAidToken.sol\":4748:4772  _isExcludedFromFee[from] */\n  0x00\n    /* \"HumAidToken.sol\":4767:4771  from */\n  dup5\n    /* \"HumAidToken.sol\":4748:4772  _isExcludedFromFee[from] */\n  0xffffffffffffffffffffffffffffffffffffffff\n  and\n  0xffffffffffffffffffffffffffffffffffffffff\n  and\n  dup2\n  mstore\n  0x20\n  add\n  swap1\n  dup2\n  mstore\n  0x20\n  add\n  0x00\n  keccak256\n  0x00\n  swap1\n  sload\n  swap1\n  0x0100\n  exp\n  swap1\n  div\n  0xff\n  and\n    /* \"HumAidToken.sol\":4748:4798  _isExcludedFromFee[from] || _isExcludedFromFee[to] */\n  dup1\n  tag_33\n  jumpi\n  pop\n    /* \"HumAidToken.sol\":4776:4794  _isExcludedFromFee */\n  0x09\n    /* \"HumAidToken.sol\":4776:4798  _isExcludedFromFee[to] */\n  0x00\n    /* \"HumAidToken.sol\":4795:4797  to */\n  dup4\n    /* \"HumAidToken.sol\":4776:4798  _isExcludedFromFee[to] */\n  0xffffffffffffffffffffffffffffffffffffffff\n  and\n  0xffffffffffffffffffffffffffffffffffffffff\n  and\n  dup2\n  mstore\n  0x20\n  add\n  swap1\n  dup2\n  mstore\n  0x20\n  add\n  0x00\n  keccak256\n  0x00\n  swap1\n  sload\n  swap1\n  0x0100\n  exp\n  swap1\n  div\n  0xff\n  and\n    /* \"HumAidToken.sol\":4748:4798  _isExcludedFromFee[from] || _isExcludedFromFee[to] */\ntag_33:\n    /* \"HumAidToken.sol\":4748:4817  _isExcludedFromFee[from] || _isExcludedFromFee[to] || feePercent == 0 */\n  dup1\n  tag_34\n  jumpi\n  pop\n    /* \"HumAidToken.sol\":4816:4817  0 */\n  0x00\n    /* \"HumAidToken.sol\":4802:4812  feePercent */\n  sload(0x06)\n    /* \"HumAidToken.sol\":4802:4817  feePercent == 0 */\n  eq\n    /* \"HumAidToken.sol\":4748:4817  _isExcludedFromFee[from] || _isExcludedFromFee[to] || feePercent == 0 */\ntag_34:\n    /* \"HumAidToken.sol\":4744:5461  if (_isExcludedFromFee[from] || _isExcludedFromFee[to] || feePercent == 0) {... */\n  iszero\n  tag_35\n  jumpi\n    /* \"HumAidToken.sol\":4834:4864  super._update(from, to, value) */\n  tag_36\n    /* \"HumAidToken.sol\":4848:4852  from */\n  dup4\n    /* \"HumAidToken.sol\":4854:4856  to */\n  dup4\n    /* \"HumAidToken.sol\":4858:4863  value */\n  dup4\n    /* \"HumAidToken.sol\":4834:4847  super._update */\n  shl(0x20, tag_37)\n    /* \"HumAidToken.sol\":4834:4864  super._update(from, to, value) */\n  0x20\n  shr\n  jump\t// in\ntag_36:\n    /* \"HumAidToken.sol\":4744:5461  if (_isExcludedFromFee[from] || _isExcludedFromFee[to] || feePercent == 0) {... */\n  jump(tag_38)\ntag_35:\n    /* \"HumAidToken.sol\":4897:4908  uint256 fee */\n  0x00\n    /* \"HumAidToken.sol\":4934:4938  1000 */\n  0x03e8\n    /* \"HumAidToken.sol\":4920:4930  feePercent */\n  sload(0x06)\n    /* \"HumAidToken.sol\":4912:4917  value */\n  dup4\n    /* \"HumAidToken.sol\":4912:4930  value * feePercent */\n  tag_39\n  swap2\n  swap1\n  tag_22\n  jump\t// in\ntag_39:\n    /* \"HumAidToken.sol\":4911:4938  (value * feePercent) / 1000 */\n  tag_40\n  swap2\n  swap1\n  tag_41\n  jump\t// in\ntag_40:\n    /* \"HumAidToken.sol\":4897:4938  uint256 fee = (value * feePercent) / 1000 */\n  swap1\n  pop\n    /* \"HumAidToken.sol\":4953:4975  uint256 amountAfterFee */\n  0x00\n    /* \"HumAidToken.sol\":4986:4989  fee */\n  dup2\n    /* \"HumAidToken.sol\":4978:4983  value */\n  dup4\n    /* \"HumAidToken.sol\":4978:4989  value - fee */\n  tag_42\n  swap2\n  swap1\n  tag_43\n  jump\t// in\ntag_42:\n    /* \"HumAidToken.sol\":4953:4989  uint256 amountAfterFee = value - fee */\n  swap1\n  pop\n    /* \"HumAidToken.sol\":5004:5017  uint256 share */\n  0x00\n    /* \"HumAidToken.sol\":5041:5042  0 */\n  dup1\n    /* \"HumAidToken.sol\":5020:5030  ngoWallets */\n  0x08\n    /* \"HumAidToken.sol\":5020:5037  ngoWallets.length */\n  dup1\n  sload\n  swap1\n  pop\n    /* \"HumAidToken.sol\":5020:5042  ngoWallets.length != 0 */\n  sub\n    /* \"HumAidToken.sol\":5020:5072  ngoWallets.length != 0 ? fee / ngoWallets.length : 1 */\n  tag_44\n  jumpi\n    /* \"HumAidToken.sol\":5071:5072  1 */\n  0x01\n    /* \"HumAidToken.sol\":5020:5072  ngoWallets.length != 0 ? fee / ngoWallets.length : 1 */\n  jump(tag_45)\ntag_44:\n    /* \"HumAidToken.sol\":5051:5061  ngoWallets */\n  0x08\n    /* \"HumAidToken.sol\":5051:5068  ngoWallets.length */\n  dup1\n  sload\n  swap1\n  pop\n    /* \"HumAidToken.sol\":5045:5048  fee */\n  dup4\n    /* \"HumAidToken.sol\":5045:5068  fee / ngoWallets.length */\n  tag_46\n  swap2\n  swap1\n  tag_41\n  jump\t// in\ntag_46:\n    /* \"HumAidToken.sol\":5020:5072  ngoWallets.length != 0 ? fee / ngoWallets.length : 1 */\ntag_45:\n    /* \"HumAidToken.sol\":5004:5072  uint256 share = ngoWallets.length != 0 ? fee / ngoWallets.length : 1 */\n  swap1\n  pop\n    /* \"HumAidToken.sol\":5087:5104  uint256 remainder */\n  0x00\n    /* \"HumAidToken.sol\":5122:5132  ngoWallets */\n  0x08\n    /* \"HumAidToken.sol\":5122:5139  ngoWallets.length */\n  dup1\n  sload\n  swap1\n  pop\n    /* \"HumAidToken.sol\":5114:5119  share */\n  dup3\n    /* \"HumAidToken.sol\":5114:5139  share * ngoWallets.length */\n  tag_47\n  swap2\n  swap1\n  tag_22\n  jump\t// in\ntag_47:\n    /* \"HumAidToken.sol\":5107:5110  fee */\n  dup5\n    /* \"HumAidToken.sol\":5107:5140  fee - (share * ngoWallets.length) */\n  tag_48\n  swap2\n  swap1\n  tag_43\n  jump\t// in\ntag_48:\n    /* \"HumAidToken.sol\":5087:5140  uint256 remainder = fee - (share * ngoWallets.length) */\n  swap1\n  pop\n    /* \"HumAidToken.sol\":5162:5168  uint i */\n  0x00\n    /* \"HumAidToken.sol\":5157:5278  for (uint i = 0; i < ngoWallets.length; ++i) {... */\ntag_49:\n    /* \"HumAidToken.sol\":5178:5188  ngoWallets */\n  0x08\n    /* \"HumAidToken.sol\":5178:5195  ngoWallets.length */\n  dup1\n  sload\n  swap1\n  pop\n    /* \"HumAidToken.sol\":5174:5175  i */\n  dup2\n    /* \"HumAidToken.sol\":5174:5195  i < ngoWallets.length */\n  lt\n    /* \"HumAidToken.sol\":5157:5278  for (uint i = 0; i < ngoWallets.length; ++i) {... */\n  iszero\n  tag_50\n  jumpi\n    /* \"HumAidToken.sol\":5221:5262  super._update(from, ngoWallets[i], share) */\n  tag_52\n    /* \"HumAidToken.sol\":5235:5239  from */\n  dup9\n    /* \"HumAidToken.sol\":5241:5251  ngoWallets */\n  0x08\n    /* \"HumAidToken.sol\":5252:5253  i */\n  dup4\n    /* \"HumAidToken.sol\":5241:5254  ngoWallets[i] */\n  dup2\n  sload\n  dup2\n  lt\n  tag_53\n  jumpi\n  tag_54\n  tag_55\n  jump\t// in\ntag_54:\ntag_53:\n  swap1\n  0x00\n  mstore\n  keccak256(0x00, 0x20)\n  add\n  0x00\n  swap1\n  sload\n  swap1\n  0x0100\n  exp\n  swap1\n  div\n  0xffffffffffffffffffffffffffffffffffffffff\n  and\n    /* \"HumAidToken.sol\":5256:5261  share */\n  dup6\n    /* \"HumAidToken.sol\":5221:5234  super._update */\n  shl(0x20, tag_37)\n    /* \"HumAidToken.sol\":5221:5262  super._update(from, ngoWallets[i], share) */\n  0x20\n  shr\n  jump\t// in\ntag_52:\n    /* \"HumAidToken.sol\":5197:5200  ++i */\n  dup1\n  tag_57\n  swap1\n  tag_58\n  jump\t// in\ntag_57:\n  swap1\n  pop\n    /* \"HumAidToken.sol\":5157:5278  for (uint i = 0; i < ngoWallets.length; ++i) {... */\n  jump(tag_49)\ntag_50:\n  pop\n    /* \"HumAidToken.sol\":5310:5311  0 */\n  0x00\n    /* \"HumAidToken.sol\":5298:5307  remainder */\n  dup2\n    /* \"HumAidToken.sol\":5298:5311  remainder > 0 */\n  gt\n    /* \"HumAidToken.sol\":5294:5394  if (remainder > 0) {... */\n  iszero\n  tag_59\n  jumpi\n    /* \"HumAidToken.sol\":5332:5378  super._update(from, treasuryWallet, remainder) */\n  tag_60\n    /* \"HumAidToken.sol\":5346:5350  from */\n  dup8\n    /* \"HumAidToken.sol\":5352:5366  treasuryWallet */\n  0x0a\n  0x00\n  swap1\n  sload\n  swap1\n  0x0100\n  exp\n  swap1\n  div\n  0xffffffffffffffffffffffffffffffffffffffff\n  and\n    /* \"HumAidToken.sol\":5368:5377  remainder */\n  dup4\n    /* \"HumAidToken.sol\":5332:5345  super._update */\n  shl(0x20, tag_37)\n    /* \"HumAidToken.sol\":5332:5378  super._update(from, treasuryWallet, remainder) */\n  0x20\n  shr\n  jump\t// in\ntag_60:\n    /* \"HumAidToken.sol\":5294:5394  if (remainder > 0) {... */\ntag_59:\n    /* \"HumAidToken.sol\":5410:5449  super._update(from, to, amountAfterFee) */\n  tag_61\n    /* \"HumAidToken.sol\":5424:5428  from */\n  dup8\n    /* \"HumAidToken.sol\":5430:5432  to */\n  dup8\n    /* \"HumAidToken.sol\":5434:5448  amountAfterFee */\n  dup6\n    /* \"HumAidToken.sol\":5410:5423  super._update */\n  shl(0x20, tag_37)\n    /* \"HumAidToken.sol\":5410:5449  super._update(from, to, amountAfterFee) */\n  0x20\n  shr\n  jump\t// in\ntag_61:\n    /* \"HumAidToken.sol\":4882:5461  {... */\n  pop\n  pop\n  pop\n  pop\n    /* \"HumAidToken.sol\":4744:5461  if (_isExcludedFromFee[from] || _isExcludedFromFee[to] || feePercent == 0) {... */\ntag_38:\n    /* \"HumAidToken.sol\":4657:5468  function _update(address from, address to, uint256 value) internal override {... */\n  pop\n  pop\n  pop\n  jump\t// out\n    /* \"@openzeppelin/contracts/token/ERC20/ERC20.sol\":5989:7096  function _update(address from, address to, uint256 value) internal virtual {... */\ntag_37:\n    /* \"@openzeppelin/contracts/token/ERC20/ERC20.sol\":6094:6095  0 */\n  0x00\n    /* \"@openzeppelin/contracts/token/ERC20/ERC20.sol\":6078:6096  from == address(0) */\n  0xffffffffffffffffffffffffffffffffffffffff\n  and\n    /* \"@openzeppelin/contracts/token/ERC20/ERC20.sol\":6078:6082  from */\n  dup4\n    /* \"@openzeppelin/contracts/token/ERC20/ERC20.sol\":6078:6096  from == address(0) */\n  0xffffffffffffffffffffffffffffffffffffffff\n  and\n  sub\n    /* \"@openzeppelin/contracts/token/ERC20/ERC20.sol\":6074:6614  if (from == address(0)) {... */\n  tag_63\n  jumpi\n    /* \"@openzeppelin/contracts/token/ERC20/ERC20.sol\":6230:6235  value */\n  dup1\n    /* \"@openzeppelin/contracts/token/ERC20/ERC20.sol\":6214:6226  _totalSupply */\n  0x02\n  0x00\n    /* \"@openzeppelin/contracts/token/ERC20/ERC20.sol\":6214:6235  _totalSupply += value */\n  dup3\n  dup3\n  sload\n  tag_64\n  swap2\n  swap1\n  tag_65\n  jump\t// in\ntag_64:\n  swap3\n  pop\n  pop\n  dup2\n  swap1\n  sstore\n  pop\n    /* \"@openzeppelin/contracts/token/ERC20/ERC20.sol\":6074:6614  if (from == address(0)) {... */\n  jump(tag_66)\ntag_63:\n    /* \"@openzeppelin/contracts/token/ERC20/ERC20.sol\":6266:6285  uint256 fromBalance */\n  0x00\n    /* \"@openzeppelin/contracts/token/ERC20/ERC20.sol\":6288:6297  _balances */\n  dup1\n    /* \"@openzeppelin/contracts/token/ERC20/ERC20.sol\":6288:6303  _balances[from] */\n  0x00\n    /* \"@openzeppelin/contracts/token/ERC20/ERC20.sol\":6298:6302  from */\n  dup6\n    /* \"@openzeppelin/contracts/token/ERC20/ERC20.sol\":6288:6303  _balances[from] */\n  0xffffffffffffffffffffffffffffffffffffffff\n  and\n  0xffffffffffffffffffffffffffffffffffffffff\n  and\n  dup2\n  mstore\n  0x20\n  add\n  swap1\n  dup2\n  mstore\n  0x20\n  add\n  0x00\n  keccak256\n  sload\n    /* \"@openzeppelin/contracts/token/ERC20/ERC20.sol\":6266:6303  uint256 fromBalance = _balances[from] */\n  swap1\n  pop\n    /* \"@openzeppelin/contracts/token/ERC20/ERC20.sol\":6335:6340  value */\n  dup2\n    /* \"@openzeppelin/contracts/token/ERC20/ERC20.sol\":6321:6332  fromBalance */\n  dup2\n    /* \"@openzeppelin/contracts/token/ERC20/ERC20.sol\":6321:6340  fromBalance < value */\n  lt\n    /* \"@openzeppelin/contracts/token/ERC20/ERC20.sol\":6317:6432  if (fromBalance < value) {... */\n  iszero\n  tag_67\n  jumpi\n    /* \"@openzeppelin/contracts/token/ERC20/ERC20.sol\":6392:6396  from */\n  dup4\n    /* \"@openzeppelin/contracts/token/ERC20/ERC20.sol\":6398:6409  fromBalance */\n  dup2\n    /* \"@openzeppelin/contracts/token/ERC20/ERC20.sol\":6411:6416  value */\n  dup4\n    /* \"@openzeppelin/contracts/token/ERC20/ERC20.sol\":6367:6417  ERC20InsufficientBalance(from, fromBalance, value) */\n  mload(0x40)\n  0xe450d38c00000000000000000000000000000000000000000000000000000000\n  dup2\n  mstore\n  0x04\n  add\n  tag_68\n  swap4\n  swap3\n  swap2\n  swap1\n  tag_69\n  jump\t// in\ntag_68:\n  mload(0x40)\n  dup1\n  swap2\n  sub\n  swap1\n  revert\n    /* \"@openzeppelin/contracts/token/ERC20/ERC20.sol\":6317:6432  if (fromBalance < value) {... */\ntag_67:\n    /* \"@openzeppelin/contracts/token/ERC20/ERC20.sol\":6584:6589  value */\n  dup2\n    /* \"@openzeppelin/contracts/token/ERC20/ERC20.sol\":6570:6581  fromBalance */\n  dup2\n    /* \"@openzeppelin/contracts/token/ERC20/ERC20.sol\":6570:6589  fromBalance - value */\n  sub\n    /* \"@openzeppelin/contracts/token/ERC20/ERC20.sol\":6552:6561  _balances */\n  0x00\n    /* \"@openzeppelin/contracts/token/ERC20/ERC20.sol\":6552:6567  _balances[from] */\n  dup1\n    /* \"@openzeppelin/contracts/token/ERC20/ERC20.sol\":6562:6566  from */\n  dup7\n    /* \"@openzeppelin/contracts/token/ERC20/ERC20.sol\":6552:6567  _balances[from] */\n  0xffffffffffffffffffffffffffffffffffffffff\n  and\n  0xffffffffffffffffffffffffffffffffffffffff\n  and\n  dup2\n  mstore\n  0x20\n  add\n  swap1\n  dup2\n  mstore\n  0x20\n  add\n  0x00\n  keccak256\n    /* \"@openzeppelin/contracts/token/ERC20/ERC20.sol\":6552:6589  _balances[from] = fromBalance - value */\n  dup2\n  swap1\n  sstore\n  pop\n    /* \"@openzeppelin/contracts/token/ERC20/ERC20.sol\":6252:6614  {... */\n  pop\n    /* \"@openzeppelin/contracts/token/ERC20/ERC20.sol\":6074:6614  if (from == address(0)) {... */\ntag_66:\n    /* \"@openzeppelin/contracts/token/ERC20/ERC20.sol\":6642:6643  0 */\n  0x00\n    /* \"@openzeppelin/contracts/token/ERC20/ERC20.sol\":6628:6644  to == address(0) */\n  0xffffffffffffffffffffffffffffffffffffffff\n  and\n    /* \"@openzeppelin/contracts/token/ERC20/ERC20.sol\":6628:6630  to */\n  dup3\n    /* \"@openzeppelin/contracts/token/ERC20/ERC20.sol\":6628:6644  to == address(0) */\n  0xffffffffffffffffffffffffffffffffffffffff\n  and\n  sub\n    /* \"@openzeppelin/contracts/token/ERC20/ERC20.sol\":6624:7049  if (to == address(0)) {... */\n  tag_70\n  jumpi\n    /* \"@openzeppelin/contracts/token/ERC20/ERC20.sol\":6807:6812  value */\n  dup1\n    /* \"@openzeppelin/contracts/token/ERC20/ERC20.sol\":6791:6803  _totalSupply */\n  0x02\n  0x00\n    /* \"@openzeppelin/contracts/token/ERC20/ERC20.sol\":6791:6812  _totalSupply -= value */\n  dup3\n  dup3\n  sload\n  sub\n  swap3\n  pop\n  pop\n  dup2\n  swap1\n  sstore\n  pop\n    /* \"@openzeppelin/contracts/token/ERC20/ERC20.sol\":6624:7049  if (to == address(0)) {... */\n  jump(tag_71)\ntag_70:\n    /* \"@openzeppelin/contracts/token/ERC20/ERC20.sol\":7019:7024  value */\n  dup1\n    /* \"@openzeppelin/contracts/token/ERC20/ERC20.sol\":7002:7011  _balances */\n  0x00\n    /* \"@openzeppelin/contracts/token/ERC20/ERC20.sol\":7002:7015  _balances[to] */\n  dup1\n    /* \"@openzeppelin/contracts/token/ERC20/ERC20.sol\":7012:7014  to */\n  dup5\n    /* \"@openzeppelin/contracts/token/ERC20/ERC20.sol\":7002:7015  _balances[to] */\n  0xffffffffffffffffffffffffffffffffffffffff\n  and\n  0xffffffffffffffffffffffffffffffffffffffff\n  and\n  dup2\n  mstore\n  0x20\n  add\n  swap1\n  dup2\n  mstore\n  0x20\n  add\n  0x00\n  keccak256\n  0x00\n    /* \"@openzeppelin/contracts/token/ERC20/ERC20.sol\":7002:7024  _balances[to] += value */\n  dup3\n  dup3\n  sload\n  add\n  swap3\n  pop\n  pop\n  dup2\n  swap1\n  sstore\n  pop\n    /* \"@openzeppelin/contracts/token/ERC20/ERC20.sol\":6624:7049  if (to == address(0)) {... */\ntag_71:\n    /* \"@openzeppelin/contracts/token/ERC20/ERC20.sol\":7079:7081  to */\n  dup2\n    /* \"@openzeppelin/contracts/token/ERC20/ERC20.sol\":7064:7089  Transfer(from, to, value) */\n  0xffffffffffffffffffffffffffffffffffffffff\n  and\n    /* \"@openzeppelin/contracts/token/ERC20/ERC20.sol\":7073:7077  from */\n  dup4\n    /* \"@openzeppelin/contracts/token/ERC20/ERC20.sol\":7064:7089  Transfer(from, to, value) */\n  0xffffffffffffffffffffffffffffffffffffffff\n  and\n  0xddf252ad1be2c89b69c2b068fc378daa952ba7f163c4a11628f55a4df523b3ef\n    /* \"@openzeppelin/contracts/token/ERC20/ERC20.sol\":7083:7088  value */\n  dup4\n    /* \"@openzeppelin/contracts/token/ERC20/ERC20.sol\":7064:7089  Transfer(from, to, value) */\n  mload(0x40)\n  tag_72\n  swap2\n  swap1\n  tag_73\n  jump\t// in\ntag_72:\n  mload(0x40)\n  dup1\n  swap2\n  sub\n  swap1\n  log3\n    /* \"@openzeppelin/contracts/token/ERC20/ERC20.sol\":5989:7096  function _update(address from, address to, uint256 value) internal virtual {... */\n  pop\n  pop\n  pop\n  jump\t// out\n    /* \"#utility.yul\":7:106   */\ntag_74:\n    /* \"#utility.yul\":59:65   */\n  0x00\n    /* \"#utility.yul\":93:98   */\n  dup2\n    /* \"#utility.yul\":87:99   */\n  mload\n    /* \"#utility.yul\":77:99   */\n  swap1\n  pop\n    /* \"#utility.yul\":7:106   */\n  swap2\n  swap1\n  pop\n  jump\t// out\n    /* \"#utility.yul\":112:292   */\ntag_75:\n    /* \"#utility.yul\":160:237   */\n  0x4e487b7100000000000000000000000000000000000000000000000000000000\n    /* \"#utility.yul\":157:158   */\n  0x00\n    /* \"#utility.yul\":150:238   */\n  mstore\n    /* \"#utility.yul\":257:261   */\n  0x41\n    /* \"#utility.yul\":254:255   */\n  0x04\n    /* \"#utility.yul\":247:262   */\n  mstore\n    /* \"#utility.yul\":281:285   */\n  0x24\n    /* \"#utility.yul\":278:279   */\n  0x00\n    /* \"#utility.yul\":271:286   */\n  revert\n    /* \"#utility.yul\":298:478   */\ntag_76:\n    /* \"#utility.yul\":346:423   */\n  0x4e487b7100000000000000000000000000000000000000000000000000000000\n    /* \"#utility.yul\":343:344   */\n  0x00\n    /* \"#utility.yul\":336:424   */\n  mstore\n    /* \"#utility.yul\":443:447   */\n  0x22\n    /* \"#utility.yul\":440:441   */\n  0x04\n    /* \"#utility.yul\":433:448   */\n  mstore\n    /* \"#utility.yul\":467:471   */\n  0x24\n    /* \"#utility.yul\":464:465   */\n  0x00\n    /* \"#utility.yul\":457:472   */\n  revert\n    /* \"#utility.yul\":484:804   */\ntag_77:\n    /* \"#utility.yul\":528:534   */\n  0x00\n    /* \"#utility.yul\":565:566   */\n  0x02\n    /* \"#utility.yul\":559:563   */\n  dup3\n    /* \"#utility.yul\":555:567   */\n  div\n    /* \"#utility.yul\":545:567   */\n  swap1\n  pop\n    /* \"#utility.yul\":612:613   */\n  0x01\n    /* \"#utility.yul\":606:610   */\n  dup3\n    /* \"#utility.yul\":602:614   */\n  and\n    /* \"#utility.yul\":633:651   */\n  dup1\n    /* \"#utility.yul\":623:704   */\n  tag_109\n  jumpi\n    /* \"#utility.yul\":689:693   */\n  0x7f\n    /* \"#utility.yul\":681:687   */\n  dup3\n    /* \"#utility.yul\":677:694   */\n  and\n    /* \"#utility.yul\":667:694   */\n  swap2\n  pop\n    /* \"#utility.yul\":623:704   */\ntag_109:\n    /* \"#utility.yul\":751:753   */\n  0x20\n    /* \"#utility.yul\":743:749   */\n  dup3\n    /* \"#utility.yul\":740:754   */\n  lt\n    /* \"#utility.yul\":720:738   */\n  dup2\n    /* \"#utility.yul\":717:755   */\n  sub\n    /* \"#utility.yul\":714:798   */\n  tag_110\n  jumpi\n    /* \"#utility.yul\":770:788   */\n  tag_111\n  tag_76\n  jump\t// in\ntag_111:\n    /* \"#utility.yul\":714:798   */\ntag_110:\n    /* \"#utility.yul\":535:804   */\n  pop\n    /* \"#utility.yul\":484:804   */\n  swap2\n  swap1\n  pop\n  jump\t// out\n    /* \"#utility.yul\":810:951   */\ntag_78:\n    /* \"#utility.yul\":859:863   */\n  0x00\n    /* \"#utility.yul\":882:885   */\n  dup2\n    /* \"#utility.yul\":874:885   */\n  swap1\n  pop\n    /* \"#utility.yul\":905:908   */\n  dup2\n    /* \"#utility.yul\":902:903   */\n  0x00\n    /* \"#utility.yul\":895:909   */\n  mstore\n    /* \"#utility.yul\":939:943   */\n  0x20\n    /* \"#utility.yul\":936:937   */\n  0x00\n    /* \"#utility.yul\":926:944   */\n  keccak256\n    /* \"#utility.yul\":918:944   */\n  swap1\n  pop\n    /* \"#utility.yul\":810:951   */\n  swap2\n  swap1\n  pop\n  jump\t// out\n    /* \"#utility.yul\":957:1050   */\ntag_79:\n    /* \"#utility.yul\":994:1000   */\n  0x00\n    /* \"#utility.yul\":1041:1043   */\n  0x20\n    /* \"#utility.yul\":1036:1038   */\n  0x1f\n    /* \"#utility.yul\":1029:1034   */\n  dup4\n    /* \"#utility.yul\":1025:1039   */\n  add\n    /* \"#utility.yul\":1021:1044   */\n  div\n    /* \"#utility.yul\":1011:1044   */\n  swap1\n  pop\n    /* \"#utility.yul\":957:1050   */\n  swap2\n  swap1\n  pop\n  jump\t// out\n    /* \"#utility.yul\":1056:1163   */\ntag_80:\n    /* \"#utility.yul\":1100:1108   */\n  0x00\n    /* \"#utility.yul\":1150:1155   */\n  dup3\n    /* \"#utility.yul\":1144:1148   */\n  dup3\n    /* \"#utility.yul\":1140:1156   */\n  shl\n    /* \"#utility.yul\":1119:1156   */\n  swap1\n  pop\n    /* \"#utility.yul\":1056:1163   */\n  swap3\n  swap2\n  pop\n  pop\n  jump\t// out\n    /* \"#utility.yul\":1169:1562   */\ntag_81:\n    /* \"#utility.yul\":1238:1244   */\n  0x00\n    /* \"#utility.yul\":1288:1289   */\n  0x08\n    /* \"#utility.yul\":1276:1286   */\n  dup4\n    /* \"#utility.yul\":1272:1290   */\n  mul\n    /* \"#utility.yul\":1311:1408   */\n  tag_116\n    /* \"#utility.yul\":1341:1407   */\n  0xffffffffffffffffffffffffffffffffffffffffffffffffffffffffffffffff\n    /* \"#utility.yul\":1330:1339   */\n  dup3\n    /* \"#utility.yul\":1311:1408   */\n  tag_80\n  jump\t// in\ntag_116:\n    /* \"#utility.yul\":1429:1468   */\n  tag_117\n    /* \"#utility.yul\":1459:1467   */\n  dup7\n    /* \"#utility.yul\":1448:1457   */\n  dup4\n    /* \"#utility.yul\":1429:1468   */\n  tag_80\n  jump\t// in\ntag_117:\n    /* \"#utility.yul\":1417:1468   */\n  swap6\n  pop\n    /* \"#utility.yul\":1501:1505   */\n  dup1\n    /* \"#utility.yul\":1497:1506   */\n  not\n    /* \"#utility.yul\":1490:1495   */\n  dup5\n    /* \"#utility.yul\":1486:1507   */\n  and\n    /* \"#utility.yul\":1477:1507   */\n  swap4\n  pop\n    /* \"#utility.yul\":1550:1554   */\n  dup1\n    /* \"#utility.yul\":1540:1548   */\n  dup7\n    /* \"#utility.yul\":1536:1555   */\n  and\n    /* \"#utility.yul\":1529:1534   */\n  dup5\n    /* \"#utility.yul\":1526:1556   */\n  or\n    /* \"#utility.yul\":1516:1556   */\n  swap3\n  pop\n    /* \"#utility.yul\":1245:1562   */\n  pop\n  pop\n    /* \"#utility.yul\":1169:1562   */\n  swap4\n  swap3\n  pop\n  pop\n  pop\n  jump\t// out\n    /* \"#utility.yul\":1568:1645   */\ntag_82:\n    /* \"#utility.yul\":1605:1612   */\n  0x00\n    /* \"#utility.yul\":1634:1639   */\n  dup2\n    /* \"#utility.yul\":1623:1639   */\n  swap1\n  pop\n    /* \"#utility.yul\":1568:1645   */\n  swap2\n  swap1\n  pop\n  jump\t// out\n    /* \"#utility.yul\":1651:1711   */\ntag_83:\n    /* \"#utility.yul\":1679:1682   */\n  0x00\n    /* \"#utility.yul\":1700:1705   */\n  dup2\n    /* \"#utility.yul\":1693:1705   */\n  swap1\n  pop\n    /* \"#utility.yul\":1651:1711   */\n  swap2\n  swap1\n  pop\n  jump\t// out\n    /* \"#utility.yul\":1717:1859   */\ntag_84:\n    /* \"#utility.yul\":1767:1776   */\n  0x00\n    /* \"#utility.yul\":1800:1853   */\n  tag_121\n    /* \"#utility.yul\":1818:1852   */\n  tag_122\n    /* \"#utility.yul\":1827:1851   */\n  tag_123\n    /* \"#utility.yul\":1845:1850   */\n  dup5\n    /* \"#utility.yul\":1827:1851   */\n  tag_82\n  jump\t// in\ntag_123:\n    /* \"#utility.yul\":1818:1852   */\n  tag_83\n  jump\t// in\ntag_122:\n    /* \"#utility.yul\":1800:1853   */\n  tag_82\n  jump\t// in\ntag_121:\n    /* \"#utility.yul\":1787:1853   */\n  swap1\n  pop\n    /* \"#utility.yul\":1717:1859   */\n  swap2\n  swap1\n  pop\n  jump\t// out\n    /* \"#utility.yul\":1865:1940   */\ntag_85:\n    /* \"#utility.yul\":1908:1911   */\n  0x00\n    /* \"#utility.yul\":1929:1934   */\n  dup2\n    /* \"#utility.yul\":1922:1934   */\n  swap1\n  pop\n    /* \"#utility.yul\":1865:1940   */\n  swap2\n  swap1\n  pop\n  jump\t// out\n    /* \"#utility.yul\":1946:2215   */\ntag_86:\n    /* \"#utility.yul\":2056:2095   */\n  tag_126\n    /* \"#utility.yul\":2087:2094   */\n  dup4\n    /* \"#utility.yul\":2056:2095   */\n  tag_84\n  jump\t// in\ntag_126:\n    /* \"#utility.yul\":2117:2208   */\n  tag_127\n    /* \"#utility.yul\":2166:2207   */\n  tag_128\n    /* \"#utility.yul\":2190:2206   */\n  dup3\n    /* \"#utility.yul\":2166:2207   */\n  tag_85\n  jump\t// in\ntag_128:\n    /* \"#utility.yul\":2158:2164   */\n  dup5\n    /* \"#utility.yul\":2151:2155   */\n  dup5\n    /* \"#utility.yul\":2145:2156   */\n  sload\n    /* \"#utility.yul\":2117:2208   */\n  tag_81\n  jump\t// in\ntag_127:\n    /* \"#utility.yul\":2111:2115   */\n  dup3\n    /* \"#utility.yul\":2104:2209   */\n  sstore\n    /* \"#utility.yul\":2022:2215   */\n  pop\n    /* \"#utility.yul\":1946:2215   */\n  pop\n  pop\n  pop\n  jump\t// out\n    /* \"#utility.yul\":2221:2294   */\ntag_87:\n    /* \"#utility.yul\":2266:2269   */\n  0x00\n    /* \"#utility.yul\":2221:2294   */\n  swap1\n  jump\t// out\n    /* \"#utility.yul\":2300:2489   */\ntag_88:\n    /* \"#utility.yul\":2377:2409   */\n  tag_131\n  tag_87\n  jump\t// in\ntag_131:\n    /* \"#utility.yul\":2418:2483   */\n  tag_132\n    /* \"#utility.yul\":2476:2482   */\n  dup2\n    /* \"#utility.yul\":2468:2474   */\n  dup5\n    /* \"#utility.yul\":2462:2466   */\n  dup5\n    /* \"#utility.yul\":2418:2483   */\n  tag_86\n  jump\t// in\ntag_132:\n    /* \"#utility.yul\":2353:2489   */\n  pop\n    /* \"#utility.yul\":2300:2489   */\n  pop\n  pop\n  jump\t// out\n    /* \"#utility.yul\":2495:2681   */\ntag_89:\n    /* \"#utility.yul\":2555:2675   */\ntag_134:\n    /* \"#utility.yul\":2572:2575   */\n  dup2\n    /* \"#utility.yul\":2565:2570   */\n  dup2\n    /* \"#utility.yul\":2562:2576   */\n  lt\n    /* \"#utility.yul\":2555:2675   */\n  iszero\n  tag_136\n  jumpi\n    /* \"#utility.yul\":2626:2665   */\n  tag_137\n    /* \"#utility.yul\":2663:2664   */\n  0x00\n    /* \"#utility.yul\":2656:2661   */\n  dup3\n    /* \"#utility.yul\":2626:2665   */\n  tag_88\n  jump\t// in\ntag_137:\n    /* \"#utility.yul\":2599:2600   */\n  0x01\n    /* \"#utility.yul\":2592:2597   */\n  dup2\n    /* \"#utility.yul\":2588:2601   */\n  add\n    /* \"#utility.yul\":2579:2601   */\n  swap1\n  pop\n    /* \"#utility.yul\":2555:2675   */\n  jump(tag_134)\ntag_136:\n    /* \"#utility.yul\":2495:2681   */\n  pop\n  pop\n  jump\t// out\n    /* \"#utility.yul\":2687:3230   */\ntag_90:\n    /* \"#utility.yul\":2788:2790   */\n  0x1f\n    /* \"#utility.yul\":2783:2786   */\n  dup3\n    /* \"#utility.yul\":2780:2791   */\n  gt\n    /* \"#utility.yul\":2777:3223   */\n  iszero\n  tag_139\n  jumpi\n    /* \"#utility.yul\":2822:2860   */\n  tag_140\n    /* \"#utility.yul\":2854:2859   */\n  dup2\n    /* \"#utility.yul\":2822:2860   */\n  tag_78\n  jump\t// in\ntag_140:\n    /* \"#utility.yul\":2906:2935   */\n  tag_141\n    /* \"#utility.yul\":2924:2934   */\n  dup5\n    /* \"#utility.yul\":2906:2935   */\n  tag_79\n  jump\t// in\ntag_141:\n    /* \"#utility.yul\":2896:2904   */\n  dup2\n    /* \"#utility.yul\":2892:2936   */\n  add\n    /* \"#utility.yul\":3089:3091   */\n  0x20\n    /* \"#utility.yul\":3077:3087   */\n  dup6\n    /* \"#utility.yul\":3074:3092   */\n  lt\n    /* \"#utility.yul\":3071:3120   */\n  iszero\n  tag_142\n  jumpi\n    /* \"#utility.yul\":3110:3118   */\n  dup2\n    /* \"#utility.yul\":3095:3118   */\n  swap1\n  pop\n    /* \"#utility.yul\":3071:3120   */\ntag_142:\n    /* \"#utility.yul\":3133:3213   */\n  tag_143\n    /* \"#utility.yul\":3189:3211   */\n  tag_144\n    /* \"#utility.yul\":3207:3210   */\n  dup6\n    /* \"#utility.yul\":3189:3211   */\n  tag_79\n  jump\t// in\ntag_144:\n    /* \"#utility.yul\":3179:3187   */\n  dup4\n    /* \"#utility.yul\":3175:3212   */\n  add\n    /* \"#utility.yul\":3162:3173   */\n  dup3\n    /* \"#utility.yul\":3133:3213   */\n  tag_89\n  jump\t// in\ntag_143:\n    /* \"#utility.yul\":2792:3223   */\n  pop\n  pop\n    /* \"#utility.yul\":2777:3223   */\ntag_139:\n    /* \"#utility.yul\":2687:3230   */\n  pop\n  pop\n  pop\n  jump\t// out\n    /* \"#utility.yul\":3236:3353   */\ntag_91:\n    /* \"#utility.yul\":3290:3298   */\n  0x00\n    /* \"#utility.yul\":3340:3345   */\n  dup3\n    /* \"#utility.yul\":3334:3338   */\n  dup3\n    /* \"#utility.yul\":3330:3346   */\n  shr\n    /* \"#utility.yul\":3309:3346   */\n  swap1\n  pop\n    /* \"#utility.yul\":3236:3353   */\n  swap3\n  swap2\n  pop\n  pop\n  jump\t// out\n    /* \"#utility.yul\":3359:3528   */\ntag_92:\n    /* \"#utility.yul\":3403:3409   */\n  0x00\n    /* \"#utility.yul\":3436:3487   */\n  tag_147\n    /* \"#utility.yul\":3484:3485   */\n  0x00\n    /* \"#utility.yul\":3480:3486   */\n  not\n    /* \"#utility.yul\":3472:3477   */\n  dup5\n    /* \"#utility.yul\":3469:3470   */\n  0x08\n    /* \"#utility.yul\":3465:3478   */\n  mul\n    /* \"#utility.yul\":3436:3487   */\n  tag_91\n  jump\t// in\ntag_147:\n    /* \"#utility.yul\":3432:3488   */\n  not\n    /* \"#utility.yul\":3517:3521   */\n  dup1\n    /* \"#utility.yul\":3511:3515   */\n  dup4\n    /* \"#utility.yul\":3507:3522   */\n  and\n    /* \"#utility.yul\":3497:3522   */\n  swap2\n  pop\n    /* \"#utility.yul\":3410:3528   */\n  pop\n    /* \"#utility.yul\":3359:3528   */\n  swap3\n  swap2\n  pop\n  pop\n  jump\t// out\n    /* \"#utility.yul\":3533:3828   */\ntag_93:\n    /* \"#utility.yul\":3609:3613   */\n  0x00\n    /* \"#utility.yul\":3755:3784   */\n  tag_149\n    /* \"#utility.yul\":3780:3783   */\n  dup4\n    /* \"#utility.yul\":3774:3778   */\n  dup4\n    /* \"#utility.yul\":3755:3784   */\n  tag_92\n  jump\t// in\ntag_149:\n    /* \"#utility.yul\":3747:3784   */\n  swap2\n  pop\n    /* \"#utility.yul\":3817:3820   */\n  dup3\n    /* \"#utility.yul\":3814:3815   */\n  0x02\n    /* \"#utility.yul\":3810:3821   */\n  mul\n    /* \"#utility.yul\":3804:3808   */\n  dup3\n    /* \"#utility.yul\":3801:3822   */\n  or\n    /* \"#utility.yul\":3793:3822   */\n  swap1\n  pop\n    /* \"#utility.yul\":3533:3828   */\n  swap3\n  swap2\n  pop\n  pop\n  jump\t// out\n    /* \"#utility.yul\":3833:5228   */\ntag_7:\n    /* \"#utility.yul\":3950:3987   */\n  tag_151\n    /* \"#utility.yul\":3983:3986   */\n  dup3\n    /* \"#utility.yul\":3950:3987   */\n  tag_74\n  jump\t// in\ntag_151:\n    /* \"#utility.yul\":4052:4070   */\n  0xffffffffffffffff\n    /* \"#utility.yul\":4044:4050   */\n  dup2\n    /* \"#utility.yul\":4041:4071   */\n  gt\n    /* \"#utility.yul\":4038:4094   */\n  iszero\n  tag_152\n  jumpi\n    /* \"#utility.yul\":4074:4092   */\n  tag_153\n  tag_75\n  jump\t// in\ntag_153:\n    /* \"#utility.yul\":4038:4094   */\ntag_152:\n    /* \"#utility.yul\":4118:4156   */\n  tag_154\n    /* \"#utility.yul\":4150:4154   */\n  dup3\n    /* \"#utility.yul\":4144:4155   */\n  sload\n    /* \"#utility.yul\":4118:4156   */\n  tag_77\n  jump\t// in\ntag_154:\n    /* \"#utility.yul\":4203:4270   */\n  tag_155\n    /* \"#utility.yul\":4263:4269   */\n  dup3\n    /* \"#utility.yul\":4255:4261   */\n  dup3\n    /* \"#utility.yul\":4249:4253   */\n  dup6\n    /* \"#utility.yul\":4203:4270   */\n  tag_90\n  jump\t// in\ntag_155:\n    /* \"#utility.yul\":4297:4298   */\n  0x00\n    /* \"#utility.yul\":4321:4325   */\n  0x20\n    /* \"#utility.yul\":4308:4325   */\n  swap1\n  pop\n    /* \"#utility.yul\":4353:4355   */\n  0x1f\n    /* \"#utility.yul\":4345:4351   */\n  dup4\n    /* \"#utility.yul\":4342:4356   */\n  gt\n    /* \"#utility.yul\":4370:4371   */\n  0x01\n    /* \"#utility.yul\":4365:4983   */\n  dup2\n  eq\n  tag_157\n  jumpi\n    /* \"#utility.yul\":5027:5028   */\n  0x00\n    /* \"#utility.yul\":5044:5050   */\n  dup5\n    /* \"#utility.yul\":5041:5118   */\n  iszero\n  tag_158\n  jumpi\n    /* \"#utility.yul\":5093:5102   */\n  dup3\n    /* \"#utility.yul\":5088:5091   */\n  dup8\n    /* \"#utility.yul\":5084:5103   */\n  add\n    /* \"#utility.yul\":5078:5104   */\n  mload\n    /* \"#utility.yul\":5069:5104   */\n  swap1\n  pop\n    /* \"#utility.yul\":5041:5118   */\ntag_158:\n    /* \"#utility.yul\":5144:5211   */\n  tag_159\n    /* \"#utility.yul\":5204:5210   */\n  dup6\n    /* \"#utility.yul\":5197:5202   */\n  dup3\n    /* \"#utility.yul\":5144:5211   */\n  tag_93\n  jump\t// in\ntag_159:\n    /* \"#utility.yul\":5138:5142   */\n  dup7\n    /* \"#utility.yul\":5131:5212   */\n  sstore\n    /* \"#utility.yul\":5000:5222   */\n  pop\n    /* \"#utility.yul\":4335:5222   */\n  jump(tag_156)\n    /* \"#utility.yul\":4365:4983   */\ntag_157:\n    /* \"#utility.yul\":4417:4421   */\n  0x1f\n    /* \"#utility.yul\":4413:4422   */\n  not\n    /* \"#utility.yul\":4405:4411   */\n  dup5\n    /* \"#utility.yul\":4401:4423   */\n  and\n    /* \"#utility.yul\":4451:4488   */\n  tag_160\n    /* \"#utility.yul\":4483:4487   */\n  dup7\n    /* \"#utility.yul\":4451:4488   */\n  tag_78\n  jump\t// in\ntag_160:\n    /* \"#utility.yul\":4510:4511   */\n  0x00\n    /* \"#utility.yul\":4524:4732   */\ntag_161:\n    /* \"#utility.yul\":4538:4545   */\n  dup3\n    /* \"#utility.yul\":4535:4536   */\n  dup2\n    /* \"#utility.yul\":4532:4546   */\n  lt\n    /* \"#utility.yul\":4524:4732   */\n  iszero\n  tag_163\n  jumpi\n    /* \"#utility.yul\":4617:4626   */\n  dup5\n    /* \"#utility.yul\":4612:4615   */\n  dup10\n    /* \"#utility.yul\":4608:4627   */\n  add\n    /* \"#utility.yul\":4602:4628   */\n  mload\n    /* \"#utility.yul\":4594:4600   */\n  dup3\n    /* \"#utility.yul\":4587:4629   */\n  sstore\n    /* \"#utility.yul\":4668:4669   */\n  0x01\n    /* \"#utility.yul\":4660:4666   */\n  dup3\n    /* \"#utility.yul\":4656:4670   */\n  add\n    /* \"#utility.yul\":4646:4670   */\n  swap2\n  pop\n    /* \"#utility.yul\":4715:4717   */\n  0x20\n    /* \"#utility.yul\":4704:4713   */\n  dup6\n    /* \"#utility.yul\":4700:4718   */\n  add\n    /* \"#utility.yul\":4687:4718   */\n  swap5\n  pop\n    /* \"#utility.yul\":4561:4565   */\n  0x20\n    /* \"#utility.yul\":4558:4559   */\n  dup2\n    /* \"#utility.yul\":4554:4566   */\n  add\n    /* \"#utility.yul\":4549:4566   */\n  swap1\n  pop\n    /* \"#utility.yul\":4524:4732   */\n  jump(tag_161)\ntag_163:\n    /* \"#utility.yul\":4760:4766   */\n  dup7\n    /* \"#utility.yul\":4751:4758   */\n  dup4\n    /* \"#utility.yul\":4748:4767   */\n  lt\n    /* \"#utility.yul\":4745:4924   */\n  iszero\n  tag_164\n  jumpi\n    /* \"#utility.yul\":4818:4827   */\n  dup5\n    /* \"#utility.yul\":4813:4816   */\n  dup10\n    /* \"#utility.yul\":4809:4828   */\n  add\n    /* \"#utility.yul\":4803:4829   */\n  mload\n    /* \"#utility.yul\":4861:4909   */\n  tag_165\n    /* \"#utility.yul\":4903:4907   */\n  0x1f\n    /* \"#utility.yul\":4895:4901   */\n  dup10\n    /* \"#utility.yul\":4891:4908   */\n  and\n    /* \"#utility.yul\":4880:4889   */\n  dup3\n    /* \"#utility.yul\":4861:4909   */\n  tag_92\n  jump\t// in\ntag_165:\n    /* \"#utility.yul\":4853:4859   */\n  dup4\n    /* \"#utility.yul\":4846:4910   */\n  sstore\n    /* \"#utility.yul\":4768:4924   */\n  pop\n    /* \"#utility.yul\":4745:4924   */\ntag_164:\n    /* \"#utility.yul\":4970:4971   */\n  0x01\n    /* \"#utility.yul\":4966:4967   */\n  0x02\n    /* \"#utility.yul\":4958:4964   */\n  dup9\n    /* \"#utility.yul\":4954:4968   */\n  mul\n    /* \"#utility.yul\":4950:4972   */\n  add\n    /* \"#utility.yul\":4944:4948   */\n  dup9\n    /* \"#utility.yul\":4937:4973   */\n  sstore\n    /* \"#utility.yul\":4372:4983   */\n  pop\n  pop\n  pop\n    /* \"#utility.yul\":4335:5222   */\ntag_156:\n  pop\n    /* \"#utility.yul\":3925:5228   */\n  pop\n  pop\n  pop\n    /* \"#utility.yul\":3833:5228   */\n  pop\n  pop\n  jump\t// out\n    /* \"#utility.yul\":5234:5360   */\ntag_94:\n    /* \"#utility.yul\":5271:5278   */\n  0x00\n    /* \"#utility.yul\":5311:5353   */\n  0xffffffffffffffffffffffffffffffffffffffff\n    /* \"#utility.yul\":5304:5309   */\n  dup3\n    /* \"#utility.yul\":5300:5354   */\n  and\n    /* \"#utility.yul\":5289:5354   */\n  swap1\n  pop\n    /* \"#utility.yul\":5234:5360   */\n  swap2\n  swap1\n  pop\n  jump\t// out\n    /* \"#utility.yul\":5366:5462   */\ntag_95:\n    /* \"#utility.yul\":5403:5410   */\n  0x00\n    /* \"#utility.yul\":5432:5456   */\n  tag_168\n    /* \"#utility.yul\":5450:5455   */\n  dup3\n    /* \"#utility.yul\":5432:5456   */\n  tag_94\n  jump\t// in\ntag_168:\n    /* \"#utility.yul\":5421:5456   */\n  swap1\n  pop\n    /* \"#utility.yul\":5366:5462   */\n  swap2\n  swap1\n  pop\n  jump\t// out\n    /* \"#utility.yul\":5468:5586   */\ntag_96:\n    /* \"#utility.yul\":5555:5579   */\n  tag_170\n    /* \"#utility.yul\":5573:5578   */\n  dup2\n    /* \"#utility.yul\":5555:5579   */\n  tag_95\n  jump\t// in\ntag_170:\n    /* \"#utility.yul\":5550:5553   */\n  dup3\n    /* \"#utility.yul\":5543:5580   */\n  mstore\n    /* \"#utility.yul\":5468:5586   */\n  pop\n  pop\n  jump\t// out\n    /* \"#utility.yul\":5592:5814   */\ntag_12:\n    /* \"#utility.yul\":5685:5689   */\n  0x00\n    /* \"#utility.yul\":5723:5725   */\n  0x20\n    /* \"#utility.yul\":5712:5721   */\n  dup3\n    /* \"#utility.yul\":5708:5726   */\n  add\n    /* \"#utility.yul\":5700:5726   */\n  swap1\n  pop\n    /* \"#utility.yul\":5736:5807   */\n  tag_172\n    /* \"#utility.yul\":5804:5805   */\n  0x00\n    /* \"#utility.yul\":5793:5802   */\n  dup4\n    /* \"#utility.yul\":5789:5806   */\n  add\n    /* \"#utility.yul\":5780:5786   */\n  dup5\n    /* \"#utility.yul\":5736:5807   */\n  tag_96\n  jump\t// in\ntag_172:\n    /* \"#utility.yul\":5592:5814   */\n  swap3\n  swap2\n  pop\n  pop\n  jump\t// out\n    /* \"#utility.yul\":5820:6000   */\ntag_97:\n    /* \"#utility.yul\":5868:5945   */\n  0x4e487b7100000000000000000000000000000000000000000000000000000000\n    /* \"#utility.yul\":5865:5866   */\n  0x00\n    /* \"#utility.yul\":5858:5946   */\n  mstore\n    /* \"#utility.yul\":5965:5969   */\n  0x11\n    /* \"#utility.yul\":5962:5963   */\n  0x04\n    /* \"#utility.yul\":5955:5970   */\n  mstore\n    /* \"#utility.yul\":5989:5993   */\n  0x24\n    /* \"#utility.yul\":5986:5987   */\n  0x00\n    /* \"#utility.yul\":5979:5994   */\n  revert\n    /* \"#utility.yul\":6006:6108   */\ntag_98:\n    /* \"#utility.yul\":6048:6056   */\n  0x00\n    /* \"#utility.yul\":6095:6100   */\n  dup2\n    /* \"#utility.yul\":6092:6093   */\n  0x01\n    /* \"#utility.yul\":6088:6101   */\n  shr\n    /* \"#utility.yul\":6067:6101   */\n  swap1\n  pop\n    /* \"#utility.yul\":6006:6108   */\n  swap2\n  swap1\n  pop\n  jump\t// out\n    /* \"#utility.yul\":6114:6962   */\ntag_99:\n    /* \"#utility.yul\":6175:6180   */\n  0x00\n    /* \"#utility.yul\":6182:6186   */\n  dup1\n    /* \"#utility.yul\":6206:6212   */\n  dup3\n    /* \"#utility.yul\":6197:6212   */\n  swap2\n  pop\n    /* \"#utility.yul\":6230:6235   */\n  dup4\n    /* \"#utility.yul\":6221:6235   */\n  swap1\n  pop\n    /* \"#utility.yul\":6244:6956   */\ntag_176:\n    /* \"#utility.yul\":6265:6266   */\n  0x01\n    /* \"#utility.yul\":6255:6263   */\n  dup6\n    /* \"#utility.yul\":6252:6267   */\n  gt\n    /* \"#utility.yul\":6244:6956   */\n  iszero\n  tag_178\n  jumpi\n    /* \"#utility.yul\":6360:6364   */\n  dup1\n    /* \"#utility.yul\":6355:6358   */\n  dup7\n    /* \"#utility.yul\":6351:6365   */\n  div\n    /* \"#utility.yul\":6345:6349   */\n  dup2\n    /* \"#utility.yul\":6342:6366   */\n  gt\n    /* \"#utility.yul\":6339:6389   */\n  iszero\n  tag_179\n  jumpi\n    /* \"#utility.yul\":6369:6387   */\n  tag_180\n  tag_97\n  jump\t// in\ntag_180:\n    /* \"#utility.yul\":6339:6389   */\ntag_179:\n    /* \"#utility.yul\":6419:6420   */\n  0x01\n    /* \"#utility.yul\":6409:6417   */\n  dup6\n    /* \"#utility.yul\":6405:6421   */\n  and\n    /* \"#utility.yul\":6402:6853   */\n  iszero\n  tag_181\n  jumpi\n    /* \"#utility.yul\":6834:6838   */\n  dup1\n    /* \"#utility.yul\":6827:6832   */\n  dup3\n    /* \"#utility.yul\":6823:6839   */\n  mul\n    /* \"#utility.yul\":6814:6839   */\n  swap2\n  pop\n    /* \"#utility.yul\":6402:6853   */\ntag_181:\n    /* \"#utility.yul\":6884:6888   */\n  dup1\n    /* \"#utility.yul\":6878:6882   */\n  dup2\n    /* \"#utility.yul\":6874:6889   */\n  mul\n    /* \"#utility.yul\":6866:6889   */\n  swap1\n  pop\n    /* \"#utility.yul\":6914:6946   */\n  tag_182\n    /* \"#utility.yul\":6937:6945   */\n  dup6\n    /* \"#utility.yul\":6914:6946   */\n  tag_98\n  jump\t// in\ntag_182:\n    /* \"#utility.yul\":6902:6946   */\n  swap5\n  pop\n    /* \"#utility.yul\":6244:6956   */\n  jump(tag_176)\ntag_178:\n    /* \"#utility.yul\":6114:6962   */\n  swap5\n  pop\n  swap5\n  swap3\n  pop\n  pop\n  pop\n  jump\t// out\n    /* \"#utility.yul\":6968:8041   */\ntag_100:\n    /* \"#utility.yul\":7022:7027   */\n  0x00\n    /* \"#utility.yul\":7213:7221   */\n  dup3\n    /* \"#utility.yul\":7203:7243   */\n  tag_184\n  jumpi\n    /* \"#utility.yul\":7234:7235   */\n  0x01\n    /* \"#utility.yul\":7225:7235   */\n  swap1\n  pop\n    /* \"#utility.yul\":7236:7241   */\n  jump(tag_183)\n    /* \"#utility.yul\":7203:7243   */\ntag_184:\n    /* \"#utility.yul\":7262:7266   */\n  dup2\n    /* \"#utility.yul\":7252:7288   */\n  tag_185\n  jumpi\n    /* \"#utility.yul\":7279:7280   */\n  0x00\n    /* \"#utility.yul\":7270:7280   */\n  swap1\n  pop\n    /* \"#utility.yul\":7281:7286   */\n  jump(tag_183)\n    /* \"#utility.yul\":7252:7288   */\ntag_185:\n    /* \"#utility.yul\":7348:7352   */\n  dup2\n    /* \"#utility.yul\":7396:7397   */\n  0x01\n    /* \"#utility.yul\":7391:7418   */\n  dup2\n  eq\n  tag_187\n  jumpi\n    /* \"#utility.yul\":7432:7433   */\n  0x02\n    /* \"#utility.yul\":7427:7618   */\n  dup2\n  eq\n  tag_188\n  jumpi\n    /* \"#utility.yul\":7341:7618   */\n  jump(tag_186)\n    /* \"#utility.yul\":7391:7418   */\ntag_187:\n    /* \"#utility.yul\":7409:7410   */\n  0x01\n    /* \"#utility.yul\":7400:7410   */\n  swap2\n  pop\n    /* \"#utility.yul\":7411:7416   */\n  pop\n  jump(tag_183)\n    /* \"#utility.yul\":7427:7618   */\ntag_188:\n    /* \"#utility.yul\":7472:7475   */\n  0xff\n    /* \"#utility.yul\":7462:7470   */\n  dup5\n    /* \"#utility.yul\":7459:7476   */\n  gt\n    /* \"#utility.yul\":7456:7499   */\n  iszero\n  tag_189\n  jumpi\n    /* \"#utility.yul\":7479:7497   */\n  tag_190\n  tag_97\n  jump\t// in\ntag_190:\n    /* \"#utility.yul\":7456:7499   */\ntag_189:\n    /* \"#utility.yul\":7528:7536   */\n  dup4\n    /* \"#utility.yul\":7525:7526   */\n  0x02\n    /* \"#utility.yul\":7521:7537   */\n  exp\n    /* \"#utility.yul\":7512:7537   */\n  swap2\n  pop\n    /* \"#utility.yul\":7563:7566   */\n  dup5\n    /* \"#utility.yul\":7556:7561   */\n  dup3\n    /* \"#utility.yul\":7553:7567   */\n  gt\n    /* \"#utility.yul\":7550:7590   */\n  iszero\n  tag_191\n  jumpi\n    /* \"#utility.yul\":7570:7588   */\n  tag_192\n  tag_97\n  jump\t// in\ntag_192:\n    /* \"#utility.yul\":7550:7590   */\ntag_191:\n    /* \"#utility.yul\":7603:7608   */\n  pop\n  jump(tag_183)\n    /* \"#utility.yul\":7341:7618   */\ntag_186:\n  pop\n    /* \"#utility.yul\":7727:7729   */\n  0x20\n    /* \"#utility.yul\":7717:7725   */\n  dup4\n    /* \"#utility.yul\":7714:7730   */\n  lt\n    /* \"#utility.yul\":7708:7711   */\n  0x0133\n    /* \"#utility.yul\":7702:7706   */\n  dup4\n    /* \"#utility.yul\":7699:7712   */\n  lt\n    /* \"#utility.yul\":7695:7731   */\n  and\n    /* \"#utility.yul\":7677:7679   */\n  0x4e\n    /* \"#utility.yul\":7667:7675   */\n  dup5\n    /* \"#utility.yul\":7664:7680   */\n  lt\n    /* \"#utility.yul\":7659:7661   */\n  0x0b\n    /* \"#utility.yul\":7653:7657   */\n  dup5\n    /* \"#utility.yul\":7650:7662   */\n  lt\n    /* \"#utility.yul\":7646:7681   */\n  and\n    /* \"#utility.yul\":7630:7741   */\n  or\n    /* \"#utility.yul\":7627:7873   */\n  iszero\n  tag_193\n  jumpi\n    /* \"#utility.yul\":7783:7791   */\n  dup3\n    /* \"#utility.yul\":7777:7781   */\n  dup3\n    /* \"#utility.yul\":7773:7792   */\n  exp\n    /* \"#utility.yul\":7764:7792   */\n  swap1\n  pop\n    /* \"#utility.yul\":7818:7821   */\n  dup4\n    /* \"#utility.yul\":7811:7816   */\n  dup2\n    /* \"#utility.yul\":7808:7822   */\n  gt\n    /* \"#utility.yul\":7805:7845   */\n  iszero\n  tag_194\n  jumpi\n    /* \"#utility.yul\":7825:7843   */\n  tag_195\n  tag_97\n  jump\t// in\ntag_195:\n    /* \"#utility.yul\":7805:7845   */\ntag_194:\n    /* \"#utility.yul\":7858:7863   */\n  jump(tag_183)\n    /* \"#utility.yul\":7627:7873   */\ntag_193:\n    /* \"#utility.yul\":7898:7940   */\n  tag_196\n    /* \"#utility.yul\":7936:7939   */\n  dup5\n    /* \"#utility.yul\":7926:7934   */\n  dup5\n    /* \"#utility.yul\":7920:7924   */\n  dup5\n    /* \"#utility.yul\":7917:7918   */\n  0x01\n    /* \"#utility.yul\":7898:7940   */\n  tag_99\n  jump\t// in\ntag_196:\n    /* \"#utility.yul\":7883:7940   */\n  swap3\n  pop\n  swap1\n  pop\n    /* \"#utility.yul\":7972:7976   */\n  dup2\n    /* \"#utility.yul\":7967:7970   */\n  dup5\n    /* \"#utility.yul\":7963:7977   */\n  div\n    /* \"#utility.yul\":7956:7961   */\n  dup2\n    /* \"#utility.yul\":7953:7978   */\n  gt\n    /* \"#utility.yul\":7950:8001   */\n  iszero\n  tag_197\n  jumpi\n    /* \"#utility.yul\":7981:7999   */\n  tag_198\n  tag_97\n  jump\t// in\ntag_198:\n    /* \"#utility.yul\":7950:8001   */\ntag_197:\n    /* \"#utility.yul\":8030:8034   */\n  dup2\n    /* \"#utility.yul\":8023:8028   */\n  dup2\n    /* \"#utility.yul\":8019:8035   */\n  mul\n    /* \"#utility.yul\":8010:8035   */\n  swap1\n  pop\n    /* \"#utility.yul\":6968:8041   */\ntag_183:\n  swap4\n  swap3\n  pop\n  pop\n  pop\n  jump\t// out\n    /* \"#utility.yul\":8047:8133   */\ntag_101:\n    /* \"#utility.yul\":8082:8089   */\n  0x00\n    /* \"#utility.yul\":8122:8126   */\n  0xff\n    /* \"#utility.yul\":8115:8120   */\n  dup3\n    /* \"#utility.yul\":8111:8127   */\n  and\n    /* \"#utility.yul\":8100:8127   */\n  swap1\n  pop\n    /* \"#utility.yul\":8047:8133   */\n  swap2\n  swap1\n  pop\n  jump\t// out\n    /* \"#utility.yul\":8139:8420   */\ntag_20:\n    /* \"#utility.yul\":8197:8202   */\n  0x00\n    /* \"#utility.yul\":8221:8244   */\n  tag_201\n    /* \"#utility.yul\":8239:8243   */\n  dup3\n    /* \"#utility.yul\":8221:8244   */\n  tag_82\n  jump\t// in\ntag_201:\n    /* \"#utility.yul\":8213:8244   */\n  swap2\n  pop\n    /* \"#utility.yul\":8265:8290   */\n  tag_202\n    /* \"#utility.yul\":8281:8289   */\n  dup4\n    /* \"#utility.yul\":8265:8290   */\n  tag_101\n  jump\t// in\ntag_202:\n    /* \"#utility.yul\":8253:8290   */\n  swap3\n  pop\n    /* \"#utility.yul\":8309:8413   */\n  tag_203\n    /* \"#utility.yul\":8346:8412   */\n  0xffffffffffffffffffffffffffffffffffffffffffffffffffffffffffffffff\n    /* \"#utility.yul\":8336:8344   */\n  dup5\n    /* \"#utility.yul\":8330:8334   */\n  dup5\n    /* \"#utility.yul\":8309:8413   */\n  tag_100\n  jump\t// in\ntag_203:\n    /* \"#utility.yul\":8300:8413   */\n  swap1\n  pop\n    /* \"#utility.yul\":8139:8420   */\n  swap3\n  swap2\n  pop\n  pop\n  jump\t// out\n    /* \"#utility.yul\":8426:8836   */\ntag_22:\n    /* \"#utility.yul\":8466:8473   */\n  0x00\n    /* \"#utility.yul\":8489:8509   */\n  tag_205\n    /* \"#utility.yul\":8507:8508   */\n  dup3\n    /* \"#utility.yul\":8489:8509   */\n  tag_82\n  jump\t// in\ntag_205:\n    /* \"#utility.yul\":8484:8509   */\n  swap2\n  pop\n    /* \"#utility.yul\":8523:8543   */\n  tag_206\n    /* \"#utility.yul\":8541:8542   */\n  dup4\n    /* \"#utility.yul\":8523:8543   */\n  tag_82\n  jump\t// in\ntag_206:\n    /* \"#utility.yul\":8518:8543   */\n  swap3\n  pop\n    /* \"#utility.yul\":8578:8579   */\n  dup3\n    /* \"#utility.yul\":8575:8576   */\n  dup3\n    /* \"#utility.yul\":8571:8580   */\n  mul\n    /* \"#utility.yul\":8600:8630   */\n  tag_207\n    /* \"#utility.yul\":8618:8629   */\n  dup2\n    /* \"#utility.yul\":8600:8630   */\n  tag_82\n  jump\t// in\ntag_207:\n    /* \"#utility.yul\":8589:8630   */\n  swap2\n  pop\n    /* \"#utility.yul\":8779:8780   */\n  dup3\n    /* \"#utility.yul\":8770:8777   */\n  dup3\n    /* \"#utility.yul\":8766:8781   */\n  div\n    /* \"#utility.yul\":8763:8764   */\n  dup5\n    /* \"#utility.yul\":8760:8782   */\n  eq\n    /* \"#utility.yul\":8740:8741   */\n  dup4\n    /* \"#utility.yul\":8733:8742   */\n  iszero\n    /* \"#utility.yul\":8713:8796   */\n  or\n    /* \"#utility.yul\":8690:8829   */\n  tag_208\n  jumpi\n    /* \"#utility.yul\":8809:8827   */\n  tag_209\n  tag_97\n  jump\t// in\ntag_209:\n    /* \"#utility.yul\":8690:8829   */\ntag_208:\n    /* \"#utility.yul\":8474:8836   */\n  pop\n    /* \"#utility.yul\":8426:8836   */\n  swap3\n  swap2\n  pop\n  pop\n  jump\t// out\n    /* \"#utility.yul\":8842:9022   */\ntag_102:\n    /* \"#utility.yul\":8890:8967   */\n  0x4e487b7100000000000000000000000000000000000000000000000000000000\n    /* \"#utility.yul\":8887:8888   */\n  0x00\n    /* \"#utility.yul\":8880:8968   */\n  mstore\n    /* \"#utility.yul\":8987:8991   */\n  0x12\n    /* \"#utility.yul\":8984:8985   */\n  0x04\n    /* \"#utility.yul\":8977:8992   */\n  mstore\n    /* \"#utility.yul\":9011:9015   */\n  0x24\n    /* \"#utility.yul\":9008:9009   */\n  0x00\n    /* \"#utility.yul\":9001:9016   */\n  revert\n    /* \"#utility.yul\":9028:9213   */\ntag_41:\n    /* \"#utility.yul\":9068:9069   */\n  0x00\n    /* \"#utility.yul\":9085:9105   */\n  tag_212\n    /* \"#utility.yul\":9103:9104   */\n  dup3\n    /* \"#utility.yul\":9085:9105   */\n  tag_82\n  jump\t// in\ntag_212:\n    /* \"#utility.yul\":9080:9105   */\n  swap2\n  pop\n    /* \"#utility.yul\":9119:9139   */\n  tag_213\n    /* \"#utility.yul\":9137:9138   */\n  dup4\n    /* \"#utility.yul\":9119:9139   */\n  tag_82\n  jump\t// in\ntag_213:\n    /* \"#utility.yul\":9114:9139   */\n  swap3\n  pop\n    /* \"#utility.yul\":9158:9159   */\n  dup3\n    /* \"#utility.yul\":9148:9183   */\n  tag_214\n  jumpi\n    /* \"#utility.yul\":9163:9181   */\n  tag_215\n  tag_102\n  jump\t// in\ntag_215:\n    /* \"#utility.yul\":9148:9183   */\ntag_214:\n    /* \"#utility.yul\":9205:9206   */\n  dup3\n    /* \"#utility.yul\":9202:9203   */\n  dup3\n    /* \"#utility.yul\":9198:9207   */\n  div\n    /* \"#utility.yul\":9193:9207   */\n  swap1\n  pop\n    /* \"#utility.yul\":9028:9213   */\n  swap3\n  swap2\n  pop\n  pop\n  jump\t// out\n    /* \"#utility.yul\":9219:9413   */\ntag_43:\n    /* \"#utility.yul\":9259:9263   */\n  0x00\n    /* \"#utility.yul\":9279:9299   */\n  tag_217\n    /* \"#utility.yul\":9297:9298   */\n  dup3\n    /* \"#utility.yul\":9279:9299   */\n  tag_82\n  jump\t// in\ntag_217:\n    /* \"#utility.yul\":9274:9299   */\n  swap2\n  pop\n    /* \"#utility.yul\":9313:9333   */\n  tag_218\n    /* \"#utility.yul\":9331:9332   */\n  dup4\n    /* \"#utility.yul\":9313:9333   */\n  tag_82\n  jump\t// in\ntag_218:\n    /* \"#utility.yul\":9308:9333   */\n  swap3\n  pop\n    /* \"#utility.yul\":9357:9358   */\n  dup3\n    /* \"#utility.yul\":9354:9355   */\n  dup3\n    /* \"#utility.yul\":9350:9359   */\n  sub\n    /* \"#utility.yul\":9342:9359   */\n  swap1\n  pop\n    /* \"#utility.yul\":9381:9382   */\n  dup2\n    /* \"#utility.yul\":9375:9379   */\n  dup2\n    /* \"#utility.yul\":9372:9383   */\n  gt\n    /* \"#utility.yul\":9369:9406   */\n  iszero\n  tag_219\n  jumpi\n    /* \"#utility.yul\":9386:9404   */\n  tag_220\n  tag_97\n  jump\t// in\ntag_220:\n    /* \"#utility.yul\":9369:9406   */\ntag_219:\n    /* \"#utility.yul\":9219:9413   */\n  swap3\n  swap2\n  pop\n  pop\n  jump\t// out\n    /* \"#utility.yul\":9419:9599   */\ntag_55:\n    /* \"#utility.yul\":9467:9544   */\n  0x4e487b7100000000000000000000000000000000000000000000000000000000\n    /* \"#utility.yul\":9464:9465   */\n  0x00\n    /* \"#utility.yul\":9457:9545   */\n  mstore\n    /* \"#utility.yul\":9564:9568   */\n  0x32\n    /* \"#utility.yul\":9561:9562   */\n  0x04\n    /* \"#utility.yul\":9554:9569   */\n  mstore\n    /* \"#utility.yul\":9588:9592   */\n  0x24\n    /* \"#utility.yul\":9585:9586   */\n  0x00\n    /* \"#utility.yul\":9578:9593   */\n  revert\n    /* \"#utility.yul\":9605:9838   */\ntag_58:\n    /* \"#utility.yul\":9644:9647   */\n  0x00\n    /* \"#utility.yul\":9667:9691   */\n  tag_223\n    /* \"#utility.yul\":9685:9690   */\n  dup3\n    /* \"#utility.yul\":9667:9691   */\n  tag_82\n  jump\t// in\ntag_223:\n    /* \"#utility.yul\":9658:9691   */\n  swap2\n  pop\n    /* \"#utility.yul\":9713:9779   */\n  0xffffffffffffffffffffffffffffffffffffffffffffffffffffffffffffffff\n    /* \"#utility.yul\":9706:9711   */\n  dup3\n    /* \"#utility.yul\":9703:9780   */\n  sub\n    /* \"#utility.yul\":9700:9803   */\n  tag_224\n  jumpi\n    /* \"#utility.yul\":9783:9801   */\n  tag_225\n  tag_97\n  jump\t// in\ntag_225:\n    /* \"#utility.yul\":9700:9803   */\ntag_224:\n    /* \"#utility.yul\":9830:9831   */\n  0x01\n    /* \"#utility.yul\":9823:9828   */\n  dup3\n    /* \"#utility.yul\":9819:9832   */\n  add\n    /* \"#utility.yul\":9812:9832   */\n  swap1\n  pop\n    /* \"#utility.yul\":9605:9838   */\n  swap2\n  swap1\n  pop\n  jump\t// out\n    /* \"#utility.yul\":9844:10035   */\ntag_65:\n    /* \"#utility.yul\":9884:9887   */\n  0x00\n    /* \"#utility.yul\":9903:9923   */\n  tag_227\n    /* \"#utility.yul\":9921:9922   */\n  dup3\n    /* \"#utility.yul\":9903:9923   */\n  tag_82\n  jump\t// in\ntag_227:\n    /* \"#utility.yul\":9898:9923   */\n  swap2\n  pop\n    /* \"#utility.yul\":9937:9957   */\n  tag_228\n    /* \"#utility.yul\":9955:9956   */\n  dup4\n    /* \"#utility.yul\":9937:9957   */\n  tag_82\n  jump\t// in\ntag_228:\n    /* \"#utility.yul\":9932:9957   */\n  swap3\n  pop\n    /* \"#utility.yul\":9980:9981   */\n  dup3\n    /* \"#utility.yul\":9977:9978   */\n  dup3\n    /* \"#utility.yul\":9973:9982   */\n  add\n    /* \"#utility.yul\":9966:9982   */\n  swap1\n  pop\n    /* \"#utility.yul\":10001:10004   */\n  dup1\n    /* \"#utility.yul\":9998:9999   */\n  dup3\n    /* \"#utility.yul\":9995:10005   */\n  gt\n    /* \"#utility.yul\":9992:10028   */\n  iszero\n  tag_229\n  jumpi\n    /* \"#utility.yul\":10008:10026   */\n  tag_230\n  tag_97\n  jump\t// in\ntag_230:\n    /* \"#utility.yul\":9992:10028   */\ntag_229:\n    /* \"#utility.yul\":9844:10035   */\n  swap3\n  swap2\n  pop\n  pop\n  jump\t// out\n    /* \"#utility.yul\":10041:10159   */\ntag_103:\n    /* \"#utility.yul\":10128:10152   */\n  tag_232\n    /* \"#utility.yul\":10146:10151   */\n  dup2\n    /* \"#utility.yul\":10128:10152   */\n  tag_82\n  jump\t// in\ntag_232:\n    /* \"#utility.yul\":10123:10126   */\n  dup3\n    /* \"#utility.yul\":10116:10153   */\n  mstore\n    /* \"#utility.yul\":10041:10159   */\n  pop\n  pop\n  jump\t// out\n    /* \"#utility.yul\":10165:10607   */\ntag_69:\n    /* \"#utility.yul\":10314:10318   */\n  0x00\n    /* \"#utility.yul\":10352:10354   */\n  0x60\n    /* \"#utility.yul\":10341:10350   */\n  dup3\n    /* \"#utility.yul\":10337:10355   */\n  add\n    /* \"#utility.yul\":10329:10355   */\n  swap1\n  pop\n    /* \"#utility.yul\":10365:10436   */\n  tag_234\n    /* \"#utility.yul\":10433:10434   */\n  0x00\n    /* \"#utility.yul\":10422:10431   */\n  dup4\n    /* \"#utility.yul\":10418:10435   */\n  add\n    /* \"#utility.yul\":10409:10415   */\n  dup7\n    /* \"#utility.yul\":10365:10436   */\n  tag_96\n  jump\t// in\ntag_234:\n    /* \"#utility.yul\":10446:10518   */\n  tag_235\n    /* \"#utility.yul\":10514:10516   */\n  0x20\n    /* \"#utility.yul\":10503:10512   */\n  dup4\n    /* \"#utility.yul\":10499:10517   */\n  add\n    /* \"#utility.yul\":10490:10496   */\n  dup6\n    /* \"#utility.yul\":10446:10518   */\n  tag_103\n  jump\t// in\ntag_235:\n    /* \"#utility.yul\":10528:10600   */\n  tag_236\n    /* \"#utility.yul\":10596:10598   */\n  0x40\n    /* \"#utility.yul\":10585:10594   */\n  dup4\n    /* \"#utility.yul\":10581:10599   */\n  add\n    /* \"#utility.yul\":10572:10578   */\n  dup5\n    /* \"#utility.yul\":10528:10600   */\n  tag_103\n  jump\t// in\ntag_236:\n    /* \"#utility.yul\":10165:10607   */\n  swap5\n  swap4\n  pop\n  pop\n  pop\n  pop\n  jump\t// out\n    /* \"#utility.yul\":10613:10835   */\ntag_73:\n    /* \"#utility.yul\":10706:10710   */\n  0x00\n    /* \"#utility.yul\":10744:10746   */\n  0x20\n    /* \"#utility.yul\":10733:10742   */\n  dup3\n    /* \"#utility.yul\":10729:10747   */\n  add\n    /* \"#utility.yul\":10721:10747   */\n  swap1\n  pop\n    /* \"#utility.yul\":10757:10828   */\n  tag_238\n    /* \"#utility.yul\":10825:10826   */\n  0x00\n    /* \"#utility.yul\":10814:10823   */\n  dup4\n    /* \"#utility.yul\":10810:10827   */\n  add\n    /* \"#utility.yul\":10801:10807   */\n  dup5\n    /* \"#utility.yul\":10757:10828   */\n  tag_103\n  jump\t// in\ntag_238:\n    /* \"#utility.yul\":10613:10835   */\n  swap3\n  swap2\n  pop\n  pop\n  jump\t// out\n    /* \"HumAidToken.sol\":174:5471  contract HumAid is ERC20, Ownable(address(msg.sender)) {... */\ntag_24:\n  dataSize(sub_0)\n  dup1\n  dataOffset(sub_0)\n  0x00\n  codecopy\n  0x00\n  return\nstop\n\nsub_0: assembly {\n        /* \"HumAidToken.sol\":174:5471  contract HumAid is ERC20, Ownable(address(msg.sender)) {... */\n      mstore(0x40, 0x80)\n      callvalue\n      dup1\n      iszero\n      tag_1\n      jumpi\n      0x00\n      dup1\n      revert\n    tag_1:\n      pop\n      jumpi(tag_2, lt(calldatasize, 0x04))\n      shr(0xe0, calldataload(0x00))\n      dup1\n      0x7ce3489b\n      gt\n      tag_27\n      jumpi\n      dup1\n      0xa9059cbb\n      gt\n      tag_28\n      jumpi\n      dup1\n      0xa9059cbb\n      eq\n      tag_21\n      jumpi\n      dup1\n      0xae91470d\n      eq\n      tag_22\n      jumpi\n      dup1\n      0xdd62ed3e\n      eq\n      tag_23\n      jumpi\n      dup1\n      0xdf8408fe\n      eq\n      tag_24\n      jumpi\n      dup1\n      0xf2fde38b\n      eq\n      tag_25\n      jumpi\n      dup1\n      0xf9479ffa\n      eq\n      tag_26\n      jumpi\n      jump(tag_2)\n    tag_28:\n      dup1\n      0x7ce3489b\n      eq\n      tag_15\n      jumpi\n      dup1\n      0x7d5b6c60\n      eq\n      tag_16\n      jumpi\n      dup1\n      0x7fd6f15c\n      eq\n      tag_17\n      jumpi\n      dup1\n      0x8da5cb5b\n      eq\n      tag_18\n      jumpi\n      dup1\n      0x95d89b41\n      eq\n      tag_19\n      jumpi\n      dup1\n      0xa8602fea\n      eq\n      tag_20\n      jumpi\n      jump(tag_2)\n    tag_27:\n      dup1\n      0x42966c68\n      gt\n      tag_29\n      jumpi\n      dup1\n      0x42966c68\n      eq\n      tag_9\n      jumpi\n      dup1\n      0x4618f6ac\n      eq\n      tag_10\n      jumpi\n      dup1\n      0x4626402b\n      eq\n      tag_11\n      jumpi\n      dup1\n      0x5342acb4\n      eq\n      tag_12\n      jumpi\n      dup1\n      0x70a08231\n      eq\n      tag_13\n      jumpi\n      dup1\n      0x715018a6\n      eq\n      tag_14\n      jumpi\n      jump(tag_2)\n    tag_29:\n      dup1\n      0x06fdde03\n      eq\n      tag_3\n      jumpi\n      dup1\n      0x095ea7b3\n      eq\n      tag_4\n      jumpi\n      dup1\n      0x18160ddd\n      eq\n      tag_5\n      jumpi\n      dup1\n      0x23b872dd\n      eq\n      tag_6\n      jumpi\n      dup1\n      0x313ce567\n      eq\n      tag_7\n      jumpi\n      dup1\n      0x3539c6b1\n      eq\n      tag_8\n      jumpi\n    tag_2:\n      0x00\n      dup1\n      revert\n        /* \"@openzeppelin/contracts/token/ERC20/ERC20.sol\":1760:1849  function name() public view virtual returns (string memory) {... */\n    tag_3:\n      tag_30\n      tag_31\n      jump\t// in\n    tag_30:\n      mload(0x40)\n      tag_32\n      swap2\n      swap1\n      tag_33\n      jump\t// in\n    tag_32:\n      mload(0x40)\n      dup1\n      swap2\n      sub\n      swap1\n      return\n        /* \"@openzeppelin/contracts/token/ERC20/ERC20.sol\":3979:4165  function approve(address spender, uint256 value) public virtual returns (bool) {... */\n    tag_4:\n      tag_34\n      0x04\n      dup1\n      calldatasize\n      sub\n      dup2\n      add\n      swap1\n      tag_35\n      swap2\n      swap1\n      tag_36\n      jump\t// in\n    tag_35:\n      tag_37\n      jump\t// in\n    tag_34:\n      mload(0x40)\n      tag_38\n      swap2\n      swap1\n      tag_39\n      jump\t// in\n    tag_38:\n      mload(0x40)\n      dup1\n      swap2\n      sub\n      swap1\n      return\n        /* \"@openzeppelin/contracts/token/ERC20/ERC20.sol\":2830:2927  function totalSupply() public view virtual returns (uint256) {... */\n    tag_5:\n      tag_40\n      tag_41\n      jump\t// in\n    tag_40:\n      mload(0x40)\n      tag_42\n      swap2\n      swap1\n      tag_43\n      jump\t// in\n    tag_42:\n      mload(0x40)\n      dup1\n      swap2\n      sub\n      swap1\n      return\n        /* \"@openzeppelin/contracts/token/ERC20/ERC20.sol\":4757:5001  function transferFrom(address from, address to, uint256 value) public virtual returns (bool) {... */\n    tag_6:\n      tag_44\n      0x04\n      dup1\n      calldatasize\n      sub\n      dup2\n      add\n      swap1\n      tag_45\n      swap2\n      swap1\n      tag_46\n      jump\t// in\n    tag_45:\n      tag_47\n      jump\t// in\n    tag_44:\n      mload(0x40)\n      tag_48\n      swap2\n      swap1\n      tag_39\n      jump\t// in\n    tag_48:\n      mload(0x40)\n      dup1\n      swap2\n      sub\n      swap1\n      return\n        /* \"@openzeppelin/contracts/token/ERC20/ERC20.sol\":2688:2770  function decimals() public view virtual returns (uint8) {... */\n    tag_7:\n      tag_49\n      tag_50\n      jump\t// in\n    tag_49:\n      mload(0x40)\n      tag_51\n      swap2\n      swap1\n      tag_52\n      jump\t// in\n    tag_51:\n      mload(0x40)\n      dup1\n      swap2\n      sub\n      swap1\n      return\n        /* \"HumAidToken.sol\":2403:2894  function registerNGO(string memory _ngoName, address _ngoAddress) external onlyOwner returns (bool) {... */\n    tag_8:\n      tag_53\n      0x04\n      dup1\n      calldatasize\n      sub\n      dup2\n      add\n      swap1\n      tag_54\n      swap2\n      swap1\n      tag_55\n      jump\t// in\n    tag_54:\n      tag_56\n      jump\t// in\n    tag_53:\n      mload(0x40)\n      tag_57\n      swap2\n      swap1\n      tag_39\n      jump\t// in\n    tag_57:\n      mload(0x40)\n      dup1\n      swap2\n      sub\n      swap1\n      return\n        /* \"HumAidToken.sol\":1772:1855  function burn(uint256 amount) external {... */\n    tag_9:\n      tag_58\n      0x04\n      dup1\n      calldatasize\n      sub\n      dup2\n      add\n      swap1\n      tag_59\n      swap2\n      swap1\n      tag_60\n      jump\t// in\n    tag_59:\n      tag_61\n      jump\t// in\n    tag_58:\n      stop\n        /* \"HumAidToken.sol\":293:336  mapping (address => string) public ngoNames */\n    tag_10:\n      tag_62\n      0x04\n      dup1\n      calldatasize\n      sub\n      dup2\n      add\n      swap1\n      tag_63\n      swap2\n      swap1\n      tag_64\n      jump\t// in\n    tag_63:\n      tag_65\n      jump\t// in\n    tag_62:\n      mload(0x40)\n      tag_66\n      swap2\n      swap1\n      tag_33\n      jump\t// in\n    tag_66:\n      mload(0x40)\n      dup1\n      swap2\n      sub\n      swap1\n      return\n        /* \"HumAidToken.sol\":439:468  address public treasuryWallet */\n    tag_11:\n      tag_67\n      tag_68\n      jump\t// in\n    tag_67:\n      mload(0x40)\n      tag_69\n      swap2\n      swap1\n      tag_70\n      jump\t// in\n    tag_69:\n      mload(0x40)\n      dup1\n      swap2\n      sub\n      swap1\n      return\n        /* \"HumAidToken.sol\":1638:1764  function isExcludedFromFee(address account) external view returns (bool) {... */\n    tag_12:\n      tag_71\n      0x04\n      dup1\n      calldatasize\n      sub\n      dup2\n      add\n      swap1\n      tag_72\n      swap2\n      swap1\n      tag_64\n      jump\t// in\n    tag_72:\n      tag_73\n      jump\t// in\n    tag_71:\n      mload(0x40)\n      tag_74\n      swap2\n      swap1\n      tag_39\n      jump\t// in\n    tag_74:\n      mload(0x40)\n      dup1\n      swap2\n      sub\n      swap1\n      return\n        /* \"@openzeppelin/contracts/token/ERC20/ERC20.sol\":2985:3101  function balanceOf(address account) public view virtual returns (uint256) {... */\n    tag_13:\n      tag_75\n      0x04\n      dup1\n      calldatasize\n      sub\n      dup2\n      add\n      swap1\n      tag_76\n      swap2\n      swap1\n      tag_64\n      jump\t// in\n    tag_76:\n      tag_77\n      jump\t// in\n    tag_75:\n      mload(0x40)\n      tag_78\n      swap2\n      swap1\n      tag_43\n      jump\t// in\n    tag_78:\n      mload(0x40)\n      dup1\n      swap2\n      sub\n      swap1\n      return\n        /* \"@openzeppelin/contracts/access/Ownable.sol\":2293:2394  function renounceOwnership() public virtual onlyOwner {... */\n    tag_14:\n      tag_79\n      tag_80\n      jump\t// in\n    tag_79:\n      stop\n        /* \"HumAidToken.sol\":1331:1490  function setFeePercent(uint256 _feePercent) external onlyOwner {... */\n    tag_15:\n      tag_81\n      0x04\n      dup1\n      calldatasize\n      sub\n      dup2\n      add\n      swap1\n      tag_82\n      swap2\n      swap1\n      tag_60\n      jump\t// in\n    tag_82:\n      tag_83\n      jump\t// in\n    tag_81:\n      stop\n        /* \"HumAidToken.sol\":343:370  address[] public ngoWallets */\n    tag_16:\n      tag_84\n      0x04\n      dup1\n      calldatasize\n      sub\n      dup2\n      add\n      swap1\n      tag_85\n      swap2\n      swap1\n      tag_60\n      jump\t// in\n    tag_85:\n      tag_86\n      jump\t// in\n    tag_84:\n      mload(0x40)\n      tag_87\n      swap2\n      swap1\n      tag_70\n      jump\t// in\n    tag_87:\n      mload(0x40)\n      dup1\n      swap2\n      sub\n      swap1\n      return\n        /* \"HumAidToken.sol\":236:265  uint256 public feePercent = 5 */\n    tag_17:\n      tag_88\n      tag_89\n      jump\t// in\n    tag_88:\n      mload(0x40)\n      tag_90\n      swap2\n      swap1\n      tag_43\n      jump\t// in\n    tag_90:\n      mload(0x40)\n      dup1\n      swap2\n      sub\n      swap1\n      return\n        /* \"@openzeppelin/contracts/access/Ownable.sol\":1638:1723  function owner() public view virtual returns (address) {... */\n    tag_18:\n      tag_91\n      tag_92\n      jump\t// in\n    tag_91:\n      mload(0x40)\n      tag_93\n      swap2\n      swap1\n      tag_70\n      jump\t// in\n    tag_93:\n      mload(0x40)\n      dup1\n      swap2\n      sub\n      swap1\n      return\n        /* \"@openzeppelin/contracts/token/ERC20/ERC20.sol\":1962:2055  function symbol() public view virtual returns (string memory) {... */\n    tag_19:\n      tag_94\n      tag_95\n      jump\t// in\n    tag_94:\n      mload(0x40)\n      tag_96\n      swap2\n      swap1\n      tag_33\n      jump\t// in\n    tag_96:\n      mload(0x40)\n      dup1\n      swap2\n      sub\n      swap1\n      return\n        /* \"HumAidToken.sol\":689:1059  function setTreasuryWallet(address _treasuryWallet) external onlyOwner {... */\n    tag_20:\n      tag_97\n      0x04\n      dup1\n      calldatasize\n      sub\n      dup2\n      add\n      swap1\n      tag_98\n      swap2\n      swap1\n      tag_64\n      jump\t// in\n    tag_98:\n      tag_99\n      jump\t// in\n    tag_97:\n      stop\n        /* \"@openzeppelin/contracts/token/ERC20/ERC20.sol\":3296:3474  function transfer(address to, uint256 value) public virtual returns (bool) {... */\n    tag_21:\n      tag_100\n      0x04\n      dup1\n      calldatasize\n      sub\n      dup2\n      add\n      swap1\n      tag_101\n      swap2\n      swap1\n      tag_36\n      jump\t// in\n    tag_101:\n      tag_102\n      jump\t// in\n    tag_100:\n      mload(0x40)\n      tag_103\n      swap2\n      swap1\n      tag_39\n      jump\t// in\n    tag_103:\n      mload(0x40)\n      dup1\n      swap2\n      sub\n      swap1\n      return\n        /* \"HumAidToken.sol\":3351:3927  function unregisterNGO(string memory _ngoName) external onlyOwner returns (bool) {... */\n    tag_22:\n      tag_104\n      0x04\n      dup1\n      calldatasize\n      sub\n      dup2\n      add\n      swap1\n      tag_105\n      swap2\n      swap1\n      tag_106\n      jump\t// in\n    tag_105:\n      tag_107\n      jump\t// in\n    tag_104:\n      mload(0x40)\n      tag_108\n      swap2\n      swap1\n      tag_39\n      jump\t// in\n    tag_108:\n      mload(0x40)\n      dup1\n      swap2\n      sub\n      swap1\n      return\n        /* \"@openzeppelin/contracts/token/ERC20/ERC20.sol\":3532:3672  function allowance(address owner, address spender) public view virtual returns (uint256) {... */\n    tag_23:\n      tag_109\n      0x04\n      dup1\n      calldatasize\n      sub\n      dup2\n      add\n      swap1\n      tag_110\n      swap2\n      swap1\n      tag_111\n      jump\t// in\n    tag_110:\n      tag_112\n      jump\t// in\n    tag_109:\n      mload(0x40)\n      tag_113\n      swap2\n      swap1\n      tag_43\n      jump\t// in\n    tag_113:\n      mload(0x40)\n      dup1\n      swap2\n      sub\n      swap1\n      return\n        /* \"HumAidToken.sol\":1498:1630  function excludeFromFee(address account, bool excluded) external onlyOwner {... */\n    tag_24:\n      tag_114\n      0x04\n      dup1\n      calldatasize\n      sub\n      dup2\n      add\n      swap1\n      tag_115\n      swap2\n      swap1\n      tag_116\n      jump\t// in\n    tag_115:\n      tag_117\n      jump\t// in\n    tag_114:\n      stop\n        /* \"@openzeppelin/contracts/access/Ownable.sol\":2543:2758  function transferOwnership(address newOwner) public virtual onlyOwner {... */\n    tag_25:\n      tag_118\n      0x04\n      dup1\n      calldatasize\n      sub\n      dup2\n      add\n      swap1\n      tag_119\n      swap2\n      swap1\n      tag_64\n      jump\t// in\n    tag_119:\n      tag_120\n      jump\t// in\n    tag_118:\n      stop\n        /* \"HumAidToken.sol\":3935:4552  function distributeTreasuryToNGOs() external onlyOwner {... */\n    tag_26:\n      tag_121\n      tag_122\n      jump\t// in\n    tag_121:\n      stop\n        /* \"@openzeppelin/contracts/token/ERC20/ERC20.sol\":1760:1849  function name() public view virtual returns (string memory) {... */\n    tag_31:\n        /* \"@openzeppelin/contracts/token/ERC20/ERC20.sol\":1805:1818  string memory */\n      0x60\n        /* \"@openzeppelin/contracts/token/ERC20/ERC20.sol\":1837:1842  _name */\n      0x03\n        /* \"@openzeppelin/contracts/token/ERC20/ERC20.sol\":1830:1842  return _name */\n      dup1\n      sload\n      tag_124\n      swap1\n      tag_125\n      jump\t// in\n    tag_124:\n      dup1\n      0x1f\n      add\n      0x20\n      dup1\n      swap2\n      div\n      mul\n      0x20\n      add\n      mload(0x40)\n      swap1\n      dup2\n      add\n      0x40\n      mstore\n      dup1\n      swap3\n      swap2\n      swap1\n      dup2\n      dup2\n      mstore\n      0x20\n      add\n      dup3\n      dup1\n      sload\n      tag_126\n      swap1\n      tag_125\n      jump\t// in\n    tag_126:\n      dup1\n      iszero\n      tag_127\n      jumpi\n      dup1\n      0x1f\n      lt\n      tag_128\n      jumpi\n      0x0100\n      dup1\n      dup4\n      sload\n      div\n      mul\n      dup4\n      mstore\n      swap2\n      0x20\n      add\n      swap2\n      jump(tag_127)\n    tag_128:\n      dup3\n      add\n      swap2\n      swap1\n      0x00\n      mstore\n      keccak256(0x00, 0x20)\n      swap1\n    tag_129:\n      dup2\n      sload\n      dup2\n      mstore\n      swap1\n      0x01\n      add\n      swap1\n      0x20\n      add\n      dup1\n      dup4\n      gt\n      tag_129\n      jumpi\n      dup3\n      swap1\n      sub\n      0x1f\n      and\n      dup3\n      add\n      swap2\n    tag_127:\n      pop\n      pop\n      pop\n      pop\n      pop\n      swap1\n      pop\n        /* \"@openzeppelin/contracts/token/ERC20/ERC20.sol\":1760:1849  function name() public view virtual returns (string memory) {... */\n      swap1\n      jump\t// out\n        /* \"@openzeppelin/contracts/token/ERC20/ERC20.sol\":3979:4165  function approve(address spender, uint256 value) public virtual returns (bool) {... */\n    tag_37:\n        /* \"@openzeppelin/contracts/token/ERC20/ERC20.sol\":4052:4056  bool */\n      0x00\n        /* \"@openzeppelin/contracts/token/ERC20/ERC20.sol\":4068:4081  address owner */\n      dup1\n        /* \"@openzeppelin/contracts/token/ERC20/ERC20.sol\":4084:4096  _msgSender() */\n      tag_131\n        /* \"@openzeppelin/contracts/token/ERC20/ERC20.sol\":4084:4094  _msgSender */\n      tag_132\n        /* \"@openzeppelin/contracts/token/ERC20/ERC20.sol\":4084:4096  _msgSender() */\n      jump\t// in\n    tag_131:\n        /* \"@openzeppelin/contracts/token/ERC20/ERC20.sol\":4068:4096  address owner = _msgSender() */\n      swap1\n      pop\n        /* \"@openzeppelin/contracts/token/ERC20/ERC20.sol\":4106:4137  _approve(owner, spender, value) */\n      tag_133\n        /* \"@openzeppelin/contracts/token/ERC20/ERC20.sol\":4115:4120  owner */\n      dup2\n        /* \"@openzeppelin/contracts/token/ERC20/ERC20.sol\":4122:4129  spender */\n      dup6\n        /* \"@openzeppelin/contracts/token/ERC20/ERC20.sol\":4131:4136  value */\n      dup6\n        /* \"@openzeppelin/contracts/token/ERC20/ERC20.sol\":4106:4114  _approve */\n      tag_134\n        /* \"@openzeppelin/contracts/token/ERC20/ERC20.sol\":4106:4137  _approve(owner, spender, value) */\n      jump\t// in\n    tag_133:\n        /* \"@openzeppelin/contracts/token/ERC20/ERC20.sol\":4154:4158  true */\n      0x01\n        /* \"@openzeppelin/contracts/token/ERC20/ERC20.sol\":4147:4158  return true */\n      swap2\n      pop\n      pop\n        /* \"@openzeppelin/contracts/token/ERC20/ERC20.sol\":3979:4165  function approve(address spender, uint256 value) public virtual returns (bool) {... */\n      swap3\n      swap2\n      pop\n      pop\n      jump\t// out\n        /* \"@openzeppelin/contracts/token/ERC20/ERC20.sol\":2830:2927  function totalSupply() public view virtual returns (uint256) {... */\n    tag_41:\n        /* \"@openzeppelin/contracts/token/ERC20/ERC20.sol\":2882:2889  uint256 */\n      0x00\n        /* \"@openzeppelin/contracts/token/ERC20/ERC20.sol\":2908:2920  _totalSupply */\n      sload(0x02)\n        /* \"@openzeppelin/contracts/token/ERC20/ERC20.sol\":2901:2920  return _totalSupply */\n      swap1\n      pop\n        /* \"@openzeppelin/contracts/token/ERC20/ERC20.sol\":2830:2927  function totalSupply() public view virtual returns (uint256) {... */\n      swap1\n      jump\t// out\n        /* \"@openzeppelin/contracts/token/ERC20/ERC20.sol\":4757:5001  function transferFrom(address from, address to, uint256 value) public virtual returns (bool) {... */\n    tag_47:\n        /* \"@openzeppelin/contracts/token/ERC20/ERC20.sol\":4844:4848  bool */\n      0x00\n        /* \"@openzeppelin/contracts/token/ERC20/ERC20.sol\":4860:4875  address spender */\n      dup1\n        /* \"@openzeppelin/contracts/token/ERC20/ERC20.sol\":4878:4890  _msgSender() */\n      tag_137\n        /* \"@openzeppelin/contracts/token/ERC20/ERC20.sol\":4878:4888  _msgSender */\n      tag_132\n        /* \"@openzeppelin/contracts/token/ERC20/ERC20.sol\":4878:4890  _msgSender() */\n      jump\t// in\n    tag_137:\n        /* \"@openzeppelin/contracts/token/ERC20/ERC20.sol\":4860:4890  address spender = _msgSender() */\n      swap1\n      pop\n        /* \"@openzeppelin/contracts/token/ERC20/ERC20.sol\":4900:4937  _spendAllowance(from, spender, value) */\n      tag_138\n        /* \"@openzeppelin/contracts/token/ERC20/ERC20.sol\":4916:4920  from */\n      dup6\n        /* \"@openzeppelin/contracts/token/ERC20/ERC20.sol\":4922:4929  spender */\n      dup3\n        /* \"@openzeppelin/contracts/token/ERC20/ERC20.sol\":4931:4936  value */\n      dup6\n        /* \"@openzeppelin/contracts/token/ERC20/ERC20.sol\":4900:4915  _spendAllowance */\n      tag_139\n        /* \"@openzeppelin/contracts/token/ERC20/ERC20.sol\":4900:4937  _spendAllowance(from, spender, value) */\n      jump\t// in\n    tag_138:\n        /* \"@openzeppelin/contracts/token/ERC20/ERC20.sol\":4947:4973  _transfer(from, to, value) */\n      tag_140\n        /* \"@openzeppelin/contracts/token/ERC20/ERC20.sol\":4957:4961  from */\n      dup6\n        /* \"@openzeppelin/contracts/token/ERC20/ERC20.sol\":4963:4965  to */\n      dup6\n        /* \"@openzeppelin/contracts/token/ERC20/ERC20.sol\":4967:4972  value */\n      dup6\n        /* \"@openzeppelin/contracts/token/ERC20/ERC20.sol\":4947:4956  _transfer */\n      tag_141\n        /* \"@openzeppelin/contracts/token/ERC20/ERC20.sol\":4947:4973  _transfer(from, to, value) */\n      jump\t// in\n    tag_140:\n        /* \"@openzeppelin/contracts/token/ERC20/ERC20.sol\":4990:4994  true */\n      0x01\n        /* \"@openzeppelin/contracts/token/ERC20/ERC20.sol\":4983:4994  return true */\n      swap2\n      pop\n      pop\n        /* \"@openzeppelin/contracts/token/ERC20/ERC20.sol\":4757:5001  function transferFrom(address from, address to, uint256 value) public virtual returns (bool) {... */\n      swap4\n      swap3\n      pop\n      pop\n      pop\n      jump\t// out\n        /* \"@openzeppelin/contracts/token/ERC20/ERC20.sol\":2688:2770  function decimals() public view virtual returns (uint8) {... */\n    tag_50:\n        /* \"@openzeppelin/contracts/token/ERC20/ERC20.sol\":2737:2742  uint8 */\n      0x00\n        /* \"@openzeppelin/contracts/token/ERC20/ERC20.sol\":2761:2763  18 */\n      0x12\n        /* \"@openzeppelin/contracts/token/ERC20/ERC20.sol\":2754:2763  return 18 */\n      swap1\n      pop\n        /* \"@openzeppelin/contracts/token/ERC20/ERC20.sol\":2688:2770  function decimals() public view virtual returns (uint8) {... */\n      swap1\n      jump\t// out\n        /* \"HumAidToken.sol\":2403:2894  function registerNGO(string memory _ngoName, address _ngoAddress) external onlyOwner returns (bool) {... */\n    tag_56:\n        /* \"HumAidToken.sol\":2497:2501  bool */\n      0x00\n        /* \"@openzeppelin/contracts/access/Ownable.sol\":1531:1544  _checkOwner() */\n      tag_144\n        /* \"@openzeppelin/contracts/access/Ownable.sol\":1531:1542  _checkOwner */\n      tag_145\n        /* \"@openzeppelin/contracts/access/Ownable.sol\":1531:1544  _checkOwner() */\n      jump\t// in\n    tag_144:\n        /* \"HumAidToken.sol\":2545:2546  0 */\n      0x00\n        /* \"HumAidToken.sol\":2522:2547  _ngoAddress != address(0) */\n      0xffffffffffffffffffffffffffffffffffffffff\n      and\n        /* \"HumAidToken.sol\":2522:2533  _ngoAddress */\n      dup3\n        /* \"HumAidToken.sol\":2522:2547  _ngoAddress != address(0) */\n      0xffffffffffffffffffffffffffffffffffffffff\n      and\n      sub\n        /* \"HumAidToken.sol\":2514:2571  require(_ngoAddress != address(0), \"Invalid NGO address\") */\n      tag_147\n      jumpi\n      mload(0x40)\n      0x08c379a000000000000000000000000000000000000000000000000000000000\n      dup2\n      mstore\n      0x04\n      add\n      tag_148\n      swap1\n      tag_149\n      jump\t// in\n    tag_148:\n      mload(0x40)\n      dup1\n      swap2\n      sub\n      swap1\n      revert\n    tag_147:\n        /* \"HumAidToken.sol\":2587:2593  uint i */\n      0x00\n        /* \"HumAidToken.sol\":2582:2744  for (uint i = 0; i < ngoWallets.length; ++i){... */\n    tag_150:\n        /* \"HumAidToken.sol\":2603:2613  ngoWallets */\n      0x08\n        /* \"HumAidToken.sol\":2603:2620  ngoWallets.length */\n      dup1\n      sload\n      swap1\n      pop\n        /* \"HumAidToken.sol\":2599:2600  i */\n      dup2\n        /* \"HumAidToken.sol\":2599:2620  i < ngoWallets.length */\n      lt\n        /* \"HumAidToken.sol\":2582:2744  for (uint i = 0; i < ngoWallets.length; ++i){... */\n      iszero\n      tag_151\n      jumpi\n        /* \"HumAidToken.sol\":2708:2716  _ngoName */\n      dup4\n        /* \"HumAidToken.sol\":2691:2718  keccak256(bytes (_ngoName)) */\n      dup1\n      mload\n      swap1\n      0x20\n      add\n      keccak256\n        /* \"HumAidToken.sol\":2662:2670  ngoNames */\n      0x07\n        /* \"HumAidToken.sol\":2662:2685  ngoNames[ngoWallets[i]] */\n      0x00\n        /* \"HumAidToken.sol\":2671:2681  ngoWallets */\n      0x08\n        /* \"HumAidToken.sol\":2682:2683  i */\n      dup5\n        /* \"HumAidToken.sol\":2671:2684  ngoWallets[i] */\n      dup2\n      sload\n      dup2\n      lt\n      tag_153\n      jumpi\n      tag_154\n      tag_155\n      jump\t// in\n    tag_154:\n    tag_153:\n      swap1\n      0x00\n      mstore\n      keccak256(0x00, 0x20)\n      add\n      0x00\n      swap1\n      sload\n      swap1\n      0x0100\n      exp\n      swap1\n      div\n      0xffffffffffffffffffffffffffffffffffffffff\n      and\n        /* \"HumAidToken.sol\":2662:2685  ngoNames[ngoWallets[i]] */\n      0xffffffffffffffffffffffffffffffffffffffff\n      and\n      0xffffffffffffffffffffffffffffffffffffffff\n      and\n      dup2\n      mstore\n      0x20\n      add\n      swap1\n      dup2\n      mstore\n      0x20\n      add\n      0x00\n      keccak256\n        /* \"HumAidToken.sol\":2645:2687  keccak256(bytes (ngoNames[ngoWallets[i]])) */\n      mload(0x40)\n      tag_157\n      swap2\n      swap1\n      tag_158\n      jump\t// in\n    tag_157:\n      mload(0x40)\n      dup1\n      swap2\n      sub\n      swap1\n      keccak256\n        /* \"HumAidToken.sol\":2645:2718  keccak256(bytes (ngoNames[ngoWallets[i]])) == keccak256(bytes (_ngoName)) */\n      sub\n        /* \"HumAidToken.sol\":2641:2732  if (keccak256(bytes (ngoNames[ngoWallets[i]])) == keccak256(bytes (_ngoName))) return false */\n      tag_159\n      jumpi\n        /* \"HumAidToken.sol\":2727:2732  false */\n      0x00\n        /* \"HumAidToken.sol\":2720:2732  return false */\n      swap2\n      pop\n      pop\n      jump(tag_146)\n        /* \"HumAidToken.sol\":2641:2732  if (keccak256(bytes (ngoNames[ngoWallets[i]])) == keccak256(bytes (_ngoName))) return false */\n    tag_159:\n        /* \"HumAidToken.sol\":2622:2625  ++i */\n      dup1\n      tag_160\n      swap1\n      tag_161\n      jump\t// in\n    tag_160:\n      swap1\n      pop\n        /* \"HumAidToken.sol\":2582:2744  for (uint i = 0; i < ngoWallets.length; ++i){... */\n      jump(tag_150)\n    tag_151:\n      pop\n        /* \"HumAidToken.sol\":2778:2786  _ngoName */\n      dup3\n        /* \"HumAidToken.sol\":2754:2762  ngoNames */\n      0x07\n        /* \"HumAidToken.sol\":2754:2775  ngoNames[_ngoAddress] */\n      0x00\n        /* \"HumAidToken.sol\":2763:2774  _ngoAddress */\n      dup5\n        /* \"HumAidToken.sol\":2754:2775  ngoNames[_ngoAddress] */\n      0xffffffffffffffffffffffffffffffffffffffff\n      and\n      0xffffffffffffffffffffffffffffffffffffffff\n      and\n      dup2\n      mstore\n      0x20\n      add\n      swap1\n      dup2\n      mstore\n      0x20\n      add\n      0x00\n      keccak256\n        /* \"HumAidToken.sol\":2754:2786  ngoNames[_ngoAddress] = _ngoName */\n      swap1\n      dup2\n      tag_162\n      swap2\n      swap1\n      tag_163\n      jump\t// in\n    tag_162:\n      pop\n        /* \"HumAidToken.sol\":2802:2838  NGORegistered(_ngoName, _ngoAddress) */\n      0xa06dde3e644f7da70b4461f791ff2766ebeacd8cae66b3e6a98637a9dacbd900\n        /* \"HumAidToken.sol\":2816:2824  _ngoName */\n      dup4\n        /* \"HumAidToken.sol\":2826:2837  _ngoAddress */\n      dup4\n        /* \"HumAidToken.sol\":2802:2838  NGORegistered(_ngoName, _ngoAddress) */\n      mload(0x40)\n      tag_164\n      swap3\n      swap2\n      swap1\n      tag_165\n      jump\t// in\n    tag_164:\n      mload(0x40)\n      dup1\n      swap2\n      sub\n      swap1\n      log1\n        /* \"HumAidToken.sol\":2856:2886  registerNGOWallet(_ngoAddress) */\n      tag_166\n        /* \"HumAidToken.sol\":2874:2885  _ngoAddress */\n      dup3\n        /* \"HumAidToken.sol\":2856:2873  registerNGOWallet */\n      tag_167\n        /* \"HumAidToken.sol\":2856:2886  registerNGOWallet(_ngoAddress) */\n      jump\t// in\n    tag_166:\n        /* \"HumAidToken.sol\":2849:2886  return registerNGOWallet(_ngoAddress) */\n      swap1\n      pop\n        /* \"@openzeppelin/contracts/access/Ownable.sol\":1554:1555  _ */\n    tag_146:\n        /* \"HumAidToken.sol\":2403:2894  function registerNGO(string memory _ngoName, address _ngoAddress) external onlyOwner returns (bool) {... */\n      swap3\n      swap2\n      pop\n      pop\n      jump\t// out\n        /* \"HumAidToken.sol\":1772:1855  function burn(uint256 amount) external {... */\n    tag_61:\n        /* \"HumAidToken.sol\":1822:1847  _burn(msg.sender, amount) */\n      tag_169\n        /* \"HumAidToken.sol\":1828:1838  msg.sender */\n      caller\n        /* \"HumAidToken.sol\":1840:1846  amount */\n      dup3\n        /* \"HumAidToken.sol\":1822:1827  _burn */\n      tag_170\n        /* \"HumAidToken.sol\":1822:1847  _burn(msg.sender, amount) */\n      jump\t// in\n    tag_169:\n        /* \"HumAidToken.sol\":1772:1855  function burn(uint256 amount) external {... */\n      pop\n      jump\t// out\n        /* \"HumAidToken.sol\":293:336  mapping (address => string) public ngoNames */\n    tag_65:\n      mstore(0x20, 0x07)\n      dup1\n      0x00\n      mstore\n      keccak256(0x00, 0x40)\n      0x00\n      swap2\n      pop\n      swap1\n      pop\n      dup1\n      sload\n      tag_171\n      swap1\n      tag_125\n      jump\t// in\n    tag_171:\n      dup1\n      0x1f\n      add\n      0x20\n      dup1\n      swap2\n      div\n      mul\n      0x20\n      add\n      mload(0x40)\n      swap1\n      dup2\n      add\n      0x40\n      mstore\n      dup1\n      swap3\n      swap2\n      swap1\n      dup2\n      dup2\n      mstore\n      0x20\n      add\n      dup3\n      dup1\n      sload\n      tag_172\n      swap1\n      tag_125\n      jump\t// in\n    tag_172:\n      dup1\n      iszero\n      tag_173\n      jumpi\n      dup1\n      0x1f\n      lt\n      tag_174\n      jumpi\n      0x0100\n      dup1\n      dup4\n      sload\n      div\n      mul\n      dup4\n      mstore\n      swap2\n      0x20\n      add\n      swap2\n      jump(tag_173)\n    tag_174:\n      dup3\n      add\n      swap2\n      swap1\n      0x00\n      mstore\n      keccak256(0x00, 0x20)\n      swap1\n    tag_175:\n      dup2\n      sload\n      dup2\n      mstore\n      swap1\n      0x01\n      add\n      swap1\n      0x20\n      add\n      dup1\n      dup4\n      gt\n      tag_175\n      jumpi\n      dup3\n      swap1\n      sub\n      0x1f\n      and\n      dup3\n      add\n      swap2\n    tag_173:\n      pop\n      pop\n      pop\n      pop\n      pop\n      dup2\n      jump\t// out\n        /* \"HumAidToken.sol\":439:468  address public treasuryWallet */\n    tag_68:\n      0x0a\n      0x00\n      swap1\n      sload\n      swap1\n      0x0100\n      exp\n      swap1\n      div\n      0xffffffffffffffffffffffffffffffffffffffff\n      and\n      dup2\n      jump\t// out\n        /* \"HumAidToken.sol\":1638:1764  function isExcludedFromFee(address account) external view returns (bool) {... */\n    tag_73:\n        /* \"HumAidToken.sol\":1705:1709  bool */\n      0x00\n        /* \"HumAidToken.sol\":1729:1747  _isExcludedFromFee */\n      0x09\n        /* \"HumAidToken.sol\":1729:1756  _isExcludedFromFee[account] */\n      0x00\n        /* \"HumAidToken.sol\":1748:1755  account */\n      dup4\n        /* \"HumAidToken.sol\":1729:1756  _isExcludedFromFee[account] */\n      0xffffffffffffffffffffffffffffffffffffffff\n      and\n      0xffffffffffffffffffffffffffffffffffffffff\n      and\n      dup2\n      mstore\n      0x20\n      add\n      swap1\n      dup2\n      mstore\n      0x20\n      add\n      0x00\n      keccak256\n      0x00\n      swap1\n      sload\n      swap1\n      0x0100\n      exp\n      swap1\n      div\n      0xff\n      and\n        /* \"HumAidToken.sol\":1722:1756  return _isExcludedFromFee[account] */\n      swap1\n      pop\n        /* \"HumAidToken.sol\":1638:1764  function isExcludedFromFee(address account) external view returns (bool) {... */\n      swap2\n      swap1\n      pop\n      jump\t// out\n        /* \"@openzeppelin/contracts/token/ERC20/ERC20.sol\":2985:3101  function balanceOf(address account) public view virtual returns (uint256) {... */\n    tag_77:\n        /* \"@openzeppelin/contracts/token/ERC20/ERC20.sol\":3050:3057  uint256 */\n      0x00\n        /* \"@openzeppelin/contracts/token/ERC20/ERC20.sol\":3076:3085  _balances */\n      dup1\n        /* \"@openzeppelin/contracts/token/ERC20/ERC20.sol\":3076:3094  _balances[account] */\n      0x00\n        /* \"@openzeppelin/contracts/token/ERC20/ERC20.sol\":3086:3093  account */\n      dup4\n        /* \"@openzeppelin/contracts/token/ERC20/ERC20.sol\":3076:3094  _balances[account] */\n      0xffffffffffffffffffffffffffffffffffffffff\n      and\n      0xffffffffffffffffffffffffffffffffffffffff\n      and\n      dup2\n      mstore\n      0x20\n      add\n      swap1\n      dup2\n      mstore\n      0x20\n      add\n      0x00\n      keccak256\n      sload\n        /* \"@openzeppelin/contracts/token/ERC20/ERC20.sol\":3069:3094  return _balances[account] */\n      swap1\n      pop\n        /* \"@openzeppelin/contracts/token/ERC20/ERC20.sol\":2985:3101  function balanceOf(address account) public view virtual returns (uint256) {... */\n      swap2\n      swap1\n      pop\n      jump\t// out\n        /* \"@openzeppelin/contracts/access/Ownable.sol\":2293:2394  function renounceOwnership() public virtual onlyOwner {... */\n    tag_80:\n        /* \"@openzeppelin/contracts/access/Ownable.sol\":1531:1544  _checkOwner() */\n      tag_179\n        /* \"@openzeppelin/contracts/access/Ownable.sol\":1531:1542  _checkOwner */\n      tag_145\n        /* \"@openzeppelin/contracts/access/Ownable.sol\":1531:1544  _checkOwner() */\n      jump\t// in\n    tag_179:\n        /* \"@openzeppelin/contracts/access/Ownable.sol\":2357:2387  _transferOwnership(address(0)) */\n      tag_181\n        /* \"@openzeppelin/contracts/access/Ownable.sol\":2384:2385  0 */\n      0x00\n        /* \"@openzeppelin/contracts/access/Ownable.sol\":2357:2375  _transferOwnership */\n      tag_182\n        /* \"@openzeppelin/contracts/access/Ownable.sol\":2357:2387  _transferOwnership(address(0)) */\n      jump\t// in\n    tag_181:\n        /* \"@openzeppelin/contracts/access/Ownable.sol\":2293:2394  function renounceOwnership() public virtual onlyOwner {... */\n      jump\t// out\n        /* \"HumAidToken.sol\":1331:1490  function setFeePercent(uint256 _feePercent) external onlyOwner {... */\n    tag_83:\n        /* \"@openzeppelin/contracts/access/Ownable.sol\":1531:1544  _checkOwner() */\n      tag_184\n        /* \"@openzeppelin/contracts/access/Ownable.sol\":1531:1542  _checkOwner */\n      tag_145\n        /* \"@openzeppelin/contracts/access/Ownable.sol\":1531:1544  _checkOwner() */\n      jump\t// in\n    tag_184:\n        /* \"HumAidToken.sol\":1428:1430  50 */\n      0x32\n        /* \"HumAidToken.sol\":1413:1424  _feePercent */\n      dup2\n        /* \"HumAidToken.sol\":1413:1430  _feePercent <= 50 */\n      gt\n      iszero\n        /* \"HumAidToken.sol\":1405:1447  require(_feePercent <= 50, \"Fee too high\") */\n      tag_186\n      jumpi\n      mload(0x40)\n      0x08c379a000000000000000000000000000000000000000000000000000000000\n      dup2\n      mstore\n      0x04\n      add\n      tag_187\n      swap1\n      tag_188\n      jump\t// in\n    tag_187:\n      mload(0x40)\n      dup1\n      swap2\n      sub\n      swap1\n      revert\n    tag_186:\n        /* \"HumAidToken.sol\":1471:1482  _feePercent */\n      dup1\n        /* \"HumAidToken.sol\":1458:1468  feePercent */\n      0x06\n        /* \"HumAidToken.sol\":1458:1482  feePercent = _feePercent */\n      dup2\n      swap1\n      sstore\n      pop\n        /* \"HumAidToken.sol\":1331:1490  function setFeePercent(uint256 _feePercent) external onlyOwner {... */\n      pop\n      jump\t// out\n        /* \"HumAidToken.sol\":343:370  address[] public ngoWallets */\n    tag_86:\n      0x08\n      dup2\n      dup2\n      sload\n      dup2\n      lt\n      tag_189\n      jumpi\n      0x00\n      dup1\n      revert\n    tag_189:\n      swap1\n      0x00\n      mstore\n      keccak256(0x00, 0x20)\n      add\n      0x00\n      swap2\n      pop\n      sload\n      swap1\n      0x0100\n      exp\n      swap1\n      div\n      0xffffffffffffffffffffffffffffffffffffffff\n      and\n      dup2\n      jump\t// out\n        /* \"HumAidToken.sol\":236:265  uint256 public feePercent = 5 */\n    tag_89:\n      sload(0x06)\n      dup2\n      jump\t// out\n        /* \"@openzeppelin/contracts/access/Ownable.sol\":1638:1723  function owner() public view virtual returns (address) {... */\n    tag_92:\n        /* \"@openzeppelin/contracts/access/Ownable.sol\":1684:1691  address */\n      0x00\n        /* \"@openzeppelin/contracts/access/Ownable.sol\":1710:1716  _owner */\n      0x05\n      0x00\n      swap1\n      sload\n      swap1\n      0x0100\n      exp\n      swap1\n      div\n      0xffffffffffffffffffffffffffffffffffffffff\n      and\n        /* \"@openzeppelin/contracts/access/Ownable.sol\":1703:1716  return _owner */\n      swap1\n      pop\n        /* \"@openzeppelin/contracts/access/Ownable.sol\":1638:1723  function owner() public view virtual returns (address) {... */\n      swap1\n      jump\t// out\n        /* \"@openzeppelin/contracts/token/ERC20/ERC20.sol\":1962:2055  function symbol() public view virtual returns (string memory) {... */\n    tag_95:\n        /* \"@openzeppelin/contracts/token/ERC20/ERC20.sol\":2009:2022  string memory */\n      0x60\n        /* \"@openzeppelin/contracts/token/ERC20/ERC20.sol\":2041:2048  _symbol */\n      0x04\n        /* \"@openzeppelin/contracts/token/ERC20/ERC20.sol\":2034:2048  return _symbol */\n      dup1\n      sload\n      tag_193\n      swap1\n      tag_125\n      jump\t// in\n    tag_193:\n      dup1\n      0x1f\n      add\n      0x20\n      dup1\n      swap2\n      div\n      mul\n      0x20\n      add\n      mload(0x40)\n      swap1\n      dup2\n      add\n      0x40\n      mstore\n      dup1\n      swap3\n      swap2\n      swap1\n      dup2\n      dup2\n      mstore\n      0x20\n      add\n      dup3\n      dup1\n      sload\n      tag_194\n      swap1\n      tag_125\n      jump\t// in\n    tag_194:\n      dup1\n      iszero\n      tag_195\n      jumpi\n      dup1\n      0x1f\n      lt\n      tag_196\n      jumpi\n      0x0100\n      dup1\n      dup4\n      sload\n      div\n      mul\n      dup4\n      mstore\n      swap2\n      0x20\n      add\n      swap2\n      jump(tag_195)\n    tag_196:\n      dup3\n      add\n      swap2\n      swap1\n      0x00\n      mstore\n      keccak256(0x00, 0x20)\n      swap1\n    tag_197:\n      dup2\n      sload\n      dup2\n      mstore\n      swap1\n      0x01\n      add\n      swap1\n      0x20\n      add\n      dup1\n      dup4\n      gt\n      tag_197\n      jumpi\n      dup3\n      swap1\n      sub\n      0x1f\n      and\n      dup3\n      add\n      swap2\n    tag_195:\n      pop\n      pop\n      pop\n      pop\n      pop\n      swap1\n      pop\n        /* \"@openzeppelin/contracts/token/ERC20/ERC20.sol\":1962:2055  function symbol() public view virtual returns (string memory) {... */\n      swap1\n      jump\t// out\n        /* \"HumAidToken.sol\":689:1059  function setTreasuryWallet(address _treasuryWallet) external onlyOwner {... */\n    tag_99:\n        /* \"@openzeppelin/contracts/access/Ownable.sol\":1531:1544  _checkOwner() */\n      tag_199\n        /* \"@openzeppelin/contracts/access/Ownable.sol\":1531:1542  _checkOwner */\n      tag_145\n        /* \"@openzeppelin/contracts/access/Ownable.sol\":1531:1544  _checkOwner() */\n      jump\t// in\n    tag_199:\n        /* \"HumAidToken.sol\":806:807  0 */\n      0x00\n        /* \"HumAidToken.sol\":779:808  _treasuryWallet != address(0) */\n      0xffffffffffffffffffffffffffffffffffffffff\n      and\n        /* \"HumAidToken.sol\":779:794  _treasuryWallet */\n      dup2\n        /* \"HumAidToken.sol\":779:808  _treasuryWallet != address(0) */\n      0xffffffffffffffffffffffffffffffffffffffff\n      and\n      sub\n        /* \"HumAidToken.sol\":771:837  require(_treasuryWallet != address(0), \"Invalid treasury address\") */\n      tag_201\n      jumpi\n      mload(0x40)\n      0x08c379a000000000000000000000000000000000000000000000000000000000\n      dup2\n      mstore\n      0x04\n      add\n      tag_202\n      swap1\n      tag_203\n      jump\t// in\n    tag_202:\n      mload(0x40)\n      dup1\n      swap2\n      sub\n      swap1\n      revert\n    tag_201:\n        /* \"HumAidToken.sol\":880:881  0 */\n      0x00\n        /* \"HumAidToken.sol\":854:882  treasuryWallet != address(0) */\n      0xffffffffffffffffffffffffffffffffffffffff\n      and\n        /* \"HumAidToken.sol\":854:868  treasuryWallet */\n      0x0a\n      0x00\n      swap1\n      sload\n      swap1\n      0x0100\n      exp\n      swap1\n      div\n      0xffffffffffffffffffffffffffffffffffffffff\n      and\n        /* \"HumAidToken.sol\":854:882  treasuryWallet != address(0) */\n      0xffffffffffffffffffffffffffffffffffffffff\n      and\n      eq\n        /* \"HumAidToken.sol\":850:953  if (treasuryWallet != address(0)) {... */\n      tag_204\n      jumpi\n        /* \"HumAidToken.sol\":936:941  false */\n      0x00\n        /* \"HumAidToken.sol\":899:917  _isExcludedFromFee */\n      0x09\n        /* \"HumAidToken.sol\":899:933  _isExcludedFromFee[treasuryWallet] */\n      0x00\n        /* \"HumAidToken.sol\":918:932  treasuryWallet */\n      0x0a\n      0x00\n      swap1\n      sload\n      swap1\n      0x0100\n      exp\n      swap1\n      div\n      0xffffffffffffffffffffffffffffffffffffffff\n      and\n        /* \"HumAidToken.sol\":899:933  _isExcludedFromFee[treasuryWallet] */\n      0xffffffffffffffffffffffffffffffffffffffff\n      and\n      0xffffffffffffffffffffffffffffffffffffffff\n      and\n      dup2\n      mstore\n      0x20\n      add\n      swap1\n      dup2\n      mstore\n      0x20\n      add\n      0x00\n      keccak256\n      0x00\n        /* \"HumAidToken.sol\":899:941  _isExcludedFromFee[treasuryWallet] = false */\n      0x0100\n      exp\n      dup2\n      sload\n      dup2\n      0xff\n      mul\n      not\n      and\n      swap1\n      dup4\n      iszero\n      iszero\n      mul\n      or\n      swap1\n      sstore\n      pop\n        /* \"HumAidToken.sol\":850:953  if (treasuryWallet != address(0)) {... */\n    tag_204:\n        /* \"HumAidToken.sol\":982:997  _treasuryWallet */\n      dup1\n        /* \"HumAidToken.sol\":965:979  treasuryWallet */\n      0x0a\n      0x00\n        /* \"HumAidToken.sol\":965:997  treasuryWallet = _treasuryWallet */\n      0x0100\n      exp\n      dup2\n      sload\n      dup2\n      0xffffffffffffffffffffffffffffffffffffffff\n      mul\n      not\n      and\n      swap1\n      dup4\n      0xffffffffffffffffffffffffffffffffffffffff\n      and\n      mul\n      or\n      swap1\n      sstore\n      pop\n        /* \"HumAidToken.sol\":1047:1051  true */\n      0x01\n        /* \"HumAidToken.sol\":1010:1028  _isExcludedFromFee */\n      0x09\n        /* \"HumAidToken.sol\":1010:1044  _isExcludedFromFee[treasuryWallet] */\n      0x00\n        /* \"HumAidToken.sol\":1029:1043  treasuryWallet */\n      0x0a\n      0x00\n      swap1\n      sload\n      swap1\n      0x0100\n      exp\n      swap1\n      div\n      0xffffffffffffffffffffffffffffffffffffffff\n      and\n        /* \"HumAidToken.sol\":1010:1044  _isExcludedFromFee[treasuryWallet] */\n      0xffffffffffffffffffffffffffffffffffffffff\n      and\n      0xffffffffffffffffffffffffffffffffffffffff\n      and\n      dup2\n      mstore\n      0x20\n      add\n      swap1\n      dup2\n      mstore\n      0x20\n      add\n      0x00\n      keccak256\n      0x00\n        /* \"HumAidToken.sol\":1010:1051  _isExcludedFromFee[treasuryWallet] = true */\n      0x0100\n      exp\n      dup2\n      sload\n      dup2\n      0xff\n      mul\n      not\n      and\n      swap1\n      dup4\n      iszero\n      iszero\n      mul\n      or\n      swap1\n      sstore\n      pop\n        /* \"HumAidToken.sol\":689:1059  function setTreasuryWallet(address _treasuryWallet) external onlyOwner {... */\n      pop\n      jump\t// out\n        /* \"@openzeppelin/contracts/token/ERC20/ERC20.sol\":3296:3474  function transfer(address to, uint256 value) public virtual returns (bool) {... */\n    tag_102:\n        /* \"@openzeppelin/contracts/token/ERC20/ERC20.sol\":3365:3369  bool */\n      0x00\n        /* \"@openzeppelin/contracts/token/ERC20/ERC20.sol\":3381:3394  address owner */\n      dup1\n        /* \"@openzeppelin/contracts/token/ERC20/ERC20.sol\":3397:3409  _msgSender() */\n      tag_206\n        /* \"@openzeppelin/contracts/token/ERC20/ERC20.sol\":3397:3407  _msgSender */\n      tag_132\n        /* \"@openzeppelin/contracts/token/ERC20/ERC20.sol\":3397:3409  _msgSender() */\n      jump\t// in\n    tag_206:\n        /* \"@openzeppelin/contracts/token/ERC20/ERC20.sol\":3381:3409  address owner = _msgSender() */\n      swap1\n      pop\n        /* \"@openzeppelin/contracts/token/ERC20/ERC20.sol\":3419:3446  _transfer(owner, to, value) */\n      tag_207\n        /* \"@openzeppelin/contracts/token/ERC20/ERC20.sol\":3429:3434  owner */\n      dup2\n        /* \"@openzeppelin/contracts/token/ERC20/ERC20.sol\":3436:3438  to */\n      dup6\n        /* \"@openzeppelin/contracts/token/ERC20/ERC20.sol\":3440:3445  value */\n      dup6\n        /* \"@openzeppelin/contracts/token/ERC20/ERC20.sol\":3419:3428  _transfer */\n      tag_141\n        /* \"@openzeppelin/contracts/token/ERC20/ERC20.sol\":3419:3446  _transfer(owner, to, value) */\n      jump\t// in\n    tag_207:\n        /* \"@openzeppelin/contracts/token/ERC20/ERC20.sol\":3463:3467  true */\n      0x01\n        /* \"@openzeppelin/contracts/token/ERC20/ERC20.sol\":3456:3467  return true */\n      swap2\n      pop\n      pop\n        /* \"@openzeppelin/contracts/token/ERC20/ERC20.sol\":3296:3474  function transfer(address to, uint256 value) public virtual returns (bool) {... */\n      swap3\n      swap2\n      pop\n      pop\n      jump\t// out\n        /* \"HumAidToken.sol\":3351:3927  function unregisterNGO(string memory _ngoName) external onlyOwner returns (bool) {... */\n    tag_107:\n        /* \"HumAidToken.sol\":3426:3430  bool */\n      0x00\n        /* \"@openzeppelin/contracts/access/Ownable.sol\":1531:1544  _checkOwner() */\n      tag_209\n        /* \"@openzeppelin/contracts/access/Ownable.sol\":1531:1542  _checkOwner */\n      tag_145\n        /* \"@openzeppelin/contracts/access/Ownable.sol\":1531:1544  _checkOwner() */\n      jump\t// in\n    tag_209:\n        /* \"HumAidToken.sol\":3443:3462  address _ngoAddress */\n      0x00\n        /* \"HumAidToken.sol\":3491:3497  uint i */\n      dup1\n        /* \"HumAidToken.sol\":3486:3721  for (uint i = 0; i < ngoWallets.length; ++i){... */\n    tag_211:\n        /* \"HumAidToken.sol\":3507:3517  ngoWallets */\n      0x08\n        /* \"HumAidToken.sol\":3507:3524  ngoWallets.length */\n      dup1\n      sload\n      swap1\n      pop\n        /* \"HumAidToken.sol\":3503:3504  i */\n      dup2\n        /* \"HumAidToken.sol\":3503:3524  i < ngoWallets.length */\n      lt\n        /* \"HumAidToken.sol\":3486:3721  for (uint i = 0; i < ngoWallets.length; ++i){... */\n      iszero\n      tag_212\n      jumpi\n        /* \"HumAidToken.sol\":3612:3620  _ngoName */\n      dup4\n        /* \"HumAidToken.sol\":3595:3622  keccak256(bytes (_ngoName)) */\n      dup1\n      mload\n      swap1\n      0x20\n      add\n      keccak256\n        /* \"HumAidToken.sol\":3566:3574  ngoNames */\n      0x07\n        /* \"HumAidToken.sol\":3566:3589  ngoNames[ngoWallets[i]] */\n      0x00\n        /* \"HumAidToken.sol\":3575:3585  ngoWallets */\n      0x08\n        /* \"HumAidToken.sol\":3586:3587  i */\n      dup5\n        /* \"HumAidToken.sol\":3575:3588  ngoWallets[i] */\n      dup2\n      sload\n      dup2\n      lt\n      tag_214\n      jumpi\n      tag_215\n      tag_155\n      jump\t// in\n    tag_215:\n    tag_214:\n      swap1\n      0x00\n      mstore\n      keccak256(0x00, 0x20)\n      add\n      0x00\n      swap1\n      sload\n      swap1\n      0x0100\n      exp\n      swap1\n      div\n      0xffffffffffffffffffffffffffffffffffffffff\n      and\n        /* \"HumAidToken.sol\":3566:3589  ngoNames[ngoWallets[i]] */\n      0xffffffffffffffffffffffffffffffffffffffff\n      and\n      0xffffffffffffffffffffffffffffffffffffffff\n      and\n      dup2\n      mstore\n      0x20\n      add\n      swap1\n      dup2\n      mstore\n      0x20\n      add\n      0x00\n      keccak256\n        /* \"HumAidToken.sol\":3549:3591  keccak256(bytes (ngoNames[ngoWallets[i]])) */\n      mload(0x40)\n      tag_217\n      swap2\n      swap1\n      tag_158\n      jump\t// in\n    tag_217:\n      mload(0x40)\n      dup1\n      swap2\n      sub\n      swap1\n      keccak256\n        /* \"HumAidToken.sol\":3549:3622  keccak256(bytes (ngoNames[ngoWallets[i]])) == keccak256(bytes (_ngoName)) */\n      sub\n        /* \"HumAidToken.sol\":3545:3710  if (keccak256(bytes (ngoNames[ngoWallets[i]])) == keccak256(bytes (_ngoName))) {... */\n      tag_218\n      jumpi\n        /* \"HumAidToken.sol\":3657:3667  ngoWallets */\n      0x08\n        /* \"HumAidToken.sol\":3668:3669  i */\n      dup2\n        /* \"HumAidToken.sol\":3657:3670  ngoWallets[i] */\n      dup2\n      sload\n      dup2\n      lt\n      tag_219\n      jumpi\n      tag_220\n      tag_155\n      jump\t// in\n    tag_220:\n    tag_219:\n      swap1\n      0x00\n      mstore\n      keccak256(0x00, 0x20)\n      add\n      0x00\n      swap1\n      sload\n      swap1\n      0x0100\n      exp\n      swap1\n      div\n      0xffffffffffffffffffffffffffffffffffffffff\n      and\n        /* \"HumAidToken.sol\":3643:3670  _ngoAddress = ngoWallets[i] */\n      swap2\n      pop\n        /* \"HumAidToken.sol\":3689:3694  break */\n      jump(tag_212)\n        /* \"HumAidToken.sol\":3545:3710  if (keccak256(bytes (ngoNames[ngoWallets[i]])) == keccak256(bytes (_ngoName))) {... */\n    tag_218:\n        /* \"HumAidToken.sol\":3526:3529  ++i */\n      dup1\n      tag_222\n      swap1\n      tag_161\n      jump\t// in\n    tag_222:\n      swap1\n      pop\n        /* \"HumAidToken.sol\":3486:3721  for (uint i = 0; i < ngoWallets.length; ++i){... */\n      jump(tag_211)\n    tag_212:\n      pop\n        /* \"HumAidToken.sol\":3758:3759  0 */\n      0x00\n        /* \"HumAidToken.sol\":3735:3760  _ngoAddress == address(0) */\n      0xffffffffffffffffffffffffffffffffffffffff\n      and\n        /* \"HumAidToken.sol\":3735:3746  _ngoAddress */\n      dup2\n        /* \"HumAidToken.sol\":3735:3760  _ngoAddress == address(0) */\n      0xffffffffffffffffffffffffffffffffffffffff\n      and\n      sub\n        /* \"HumAidToken.sol\":3731:3774  if (_ngoAddress == address(0)) return false */\n      tag_223\n      jumpi\n        /* \"HumAidToken.sol\":3769:3774  false */\n      0x00\n        /* \"HumAidToken.sol\":3762:3774  return false */\n      swap2\n      pop\n      pop\n      jump(tag_210)\n        /* \"HumAidToken.sol\":3731:3774  if (_ngoAddress == address(0)) return false */\n    tag_223:\n        /* \"HumAidToken.sol\":3794:3802  ngoNames */\n      0x07\n        /* \"HumAidToken.sol\":3794:3815  ngoNames[_ngoAddress] */\n      0x00\n        /* \"HumAidToken.sol\":3803:3814  _ngoAddress */\n      dup3\n        /* \"HumAidToken.sol\":3794:3815  ngoNames[_ngoAddress] */\n      0xffffffffffffffffffffffffffffffffffffffff\n      and\n      0xffffffffffffffffffffffffffffffffffffffff\n      and\n      dup2\n      mstore\n      0x20\n      add\n      swap1\n      dup2\n      mstore\n      0x20\n      add\n      0x00\n      keccak256\n      0x00\n        /* \"HumAidToken.sol\":3787:3815  delete ngoNames[_ngoAddress] */\n      tag_224\n      swap2\n      swap1\n      tag_225\n      jump\t// in\n    tag_224:\n        /* \"HumAidToken.sol\":3831:3869  NGOUnregistered(_ngoName, _ngoAddress) */\n      0xf7ce65b9119570713c55642c7ba09904806c36ec3da8fa5b1a8aa4a223132c2e\n        /* \"HumAidToken.sol\":3847:3855  _ngoName */\n      dup4\n        /* \"HumAidToken.sol\":3857:3868  _ngoAddress */\n      dup3\n        /* \"HumAidToken.sol\":3831:3869  NGOUnregistered(_ngoName, _ngoAddress) */\n      mload(0x40)\n      tag_226\n      swap3\n      swap2\n      swap1\n      tag_165\n      jump\t// in\n    tag_226:\n      mload(0x40)\n      dup1\n      swap2\n      sub\n      swap1\n      log1\n        /* \"HumAidToken.sol\":3887:3919  unregisterNGOWallet(_ngoAddress) */\n      tag_227\n        /* \"HumAidToken.sol\":3907:3918  _ngoAddress */\n      dup2\n        /* \"HumAidToken.sol\":3887:3906  unregisterNGOWallet */\n      tag_228\n        /* \"HumAidToken.sol\":3887:3919  unregisterNGOWallet(_ngoAddress) */\n      jump\t// in\n    tag_227:\n        /* \"HumAidToken.sol\":3880:3919  return unregisterNGOWallet(_ngoAddress) */\n      swap2\n      pop\n      pop\n        /* \"@openzeppelin/contracts/access/Ownable.sol\":1554:1555  _ */\n    tag_210:\n        /* \"HumAidToken.sol\":3351:3927  function unregisterNGO(string memory _ngoName) external onlyOwner returns (bool) {... */\n      swap2\n      swap1\n      pop\n      jump\t// out\n        /* \"@openzeppelin/contracts/token/ERC20/ERC20.sol\":3532:3672  function allowance(address owner, address spender) public view virtual returns (uint256) {... */\n    tag_112:\n        /* \"@openzeppelin/contracts/token/ERC20/ERC20.sol\":3612:3619  uint256 */\n      0x00\n        /* \"@openzeppelin/contracts/token/ERC20/ERC20.sol\":3638:3649  _allowances */\n      0x01\n        /* \"@openzeppelin/contracts/token/ERC20/ERC20.sol\":3638:3656  _allowances[owner] */\n      0x00\n        /* \"@openzeppelin/contracts/token/ERC20/ERC20.sol\":3650:3655  owner */\n      dup5\n        /* \"@openzeppelin/contracts/token/ERC20/ERC20.sol\":3638:3656  _allowances[owner] */\n      0xffffffffffffffffffffffffffffffffffffffff\n      and\n      0xffffffffffffffffffffffffffffffffffffffff\n      and\n      dup2\n      mstore\n      0x20\n      add\n      swap1\n      dup2\n      mstore\n      0x20\n      add\n      0x00\n      keccak256\n        /* \"@openzeppelin/contracts/token/ERC20/ERC20.sol\":3638:3665  _allowances[owner][spender] */\n      0x00\n        /* \"@openzeppelin/contracts/token/ERC20/ERC20.sol\":3657:3664  spender */\n      dup4\n        /* \"@openzeppelin/contracts/token/ERC20/ERC20.sol\":3638:3665  _allowances[owner][spender] */\n      0xffffffffffffffffffffffffffffffffffffffff\n      and\n      0xffffffffffffffffffffffffffffffffffffffff\n      and\n      dup2\n      mstore\n      0x20\n      add\n      swap1\n      dup2\n      mstore\n      0x20\n      add\n      0x00\n      keccak256\n      sload\n        /* \"@openzeppelin/contracts/token/ERC20/ERC20.sol\":3631:3665  return _allowances[owner][spender] */\n      swap1\n      pop\n        /* \"@openzeppelin/contracts/token/ERC20/ERC20.sol\":3532:3672  function allowance(address owner, address spender) public view virtual returns (uint256) {... */\n      swap3\n      swap2\n      pop\n      pop\n      jump\t// out\n        /* \"HumAidToken.sol\":1498:1630  function excludeFromFee(address account, bool excluded) external onlyOwner {... */\n    tag_117:\n        /* \"@openzeppelin/contracts/access/Ownable.sol\":1531:1544  _checkOwner() */\n      tag_231\n        /* \"@openzeppelin/contracts/access/Ownable.sol\":1531:1542  _checkOwner */\n      tag_145\n        /* \"@openzeppelin/contracts/access/Ownable.sol\":1531:1544  _checkOwner() */\n      jump\t// in\n    tag_231:\n        /* \"HumAidToken.sol\":1614:1622  excluded */\n      dup1\n        /* \"HumAidToken.sol\":1584:1602  _isExcludedFromFee */\n      0x09\n        /* \"HumAidToken.sol\":1584:1611  _isExcludedFromFee[account] */\n      0x00\n        /* \"HumAidToken.sol\":1603:1610  account */\n      dup5\n        /* \"HumAidToken.sol\":1584:1611  _isExcludedFromFee[account] */\n      0xffffffffffffffffffffffffffffffffffffffff\n      and\n      0xffffffffffffffffffffffffffffffffffffffff\n      and\n      dup2\n      mstore\n      0x20\n      add\n      swap1\n      dup2\n      mstore\n      0x20\n      add\n      0x00\n      keccak256\n      0x00\n        /* \"HumAidToken.sol\":1584:1622  _isExcludedFromFee[account] = excluded */\n      0x0100\n      exp\n      dup2\n      sload\n      dup2\n      0xff\n      mul\n      not\n      and\n      swap1\n      dup4\n      iszero\n      iszero\n      mul\n      or\n      swap1\n      sstore\n      pop\n        /* \"HumAidToken.sol\":1498:1630  function excludeFromFee(address account, bool excluded) external onlyOwner {... */\n      pop\n      pop\n      jump\t// out\n        /* \"@openzeppelin/contracts/access/Ownable.sol\":2543:2758  function transferOwnership(address newOwner) public virtual onlyOwner {... */\n    tag_120:\n        /* \"@openzeppelin/contracts/access/Ownable.sol\":1531:1544  _checkOwner() */\n      tag_234\n        /* \"@openzeppelin/contracts/access/Ownable.sol\":1531:1542  _checkOwner */\n      tag_145\n        /* \"@openzeppelin/contracts/access/Ownable.sol\":1531:1544  _checkOwner() */\n      jump\t// in\n    tag_234:\n        /* \"@openzeppelin/contracts/access/Ownable.sol\":2647:2648  0 */\n      0x00\n        /* \"@openzeppelin/contracts/access/Ownable.sol\":2627:2649  newOwner == address(0) */\n      0xffffffffffffffffffffffffffffffffffffffff\n      and\n        /* \"@openzeppelin/contracts/access/Ownable.sol\":2627:2635  newOwner */\n      dup2\n        /* \"@openzeppelin/contracts/access/Ownable.sol\":2627:2649  newOwner == address(0) */\n      0xffffffffffffffffffffffffffffffffffffffff\n      and\n      sub\n        /* \"@openzeppelin/contracts/access/Ownable.sol\":2623:2714  if (newOwner == address(0)) {... */\n      tag_236\n      jumpi\n        /* \"@openzeppelin/contracts/access/Ownable.sol\":2700:2701  0 */\n      0x00\n        /* \"@openzeppelin/contracts/access/Ownable.sol\":2672:2703  OwnableInvalidOwner(address(0)) */\n      mload(0x40)\n      0x1e4fbdf700000000000000000000000000000000000000000000000000000000\n      dup2\n      mstore\n      0x04\n      add\n      tag_237\n      swap2\n      swap1\n      tag_70\n      jump\t// in\n    tag_237:\n      mload(0x40)\n      dup1\n      swap2\n      sub\n      swap1\n      revert\n        /* \"@openzeppelin/contracts/access/Ownable.sol\":2623:2714  if (newOwner == address(0)) {... */\n    tag_236:\n        /* \"@openzeppelin/contracts/access/Ownable.sol\":2723:2751  _transferOwnership(newOwner) */\n      tag_238\n        /* \"@openzeppelin/contracts/access/Ownable.sol\":2742:2750  newOwner */\n      dup2\n        /* \"@openzeppelin/contracts/access/Ownable.sol\":2723:2741  _transferOwnership */\n      tag_182\n        /* \"@openzeppelin/contracts/access/Ownable.sol\":2723:2751  _transferOwnership(newOwner) */\n      jump\t// in\n    tag_238:\n        /* \"@openzeppelin/contracts/access/Ownable.sol\":2543:2758  function transferOwnership(address newOwner) public virtual onlyOwner {... */\n      pop\n      jump\t// out\n        /* \"HumAidToken.sol\":3935:4552  function distributeTreasuryToNGOs() external onlyOwner {... */\n    tag_122:\n        /* \"@openzeppelin/contracts/access/Ownable.sol\":1531:1544  _checkOwner() */\n      tag_240\n        /* \"@openzeppelin/contracts/access/Ownable.sol\":1531:1542  _checkOwner */\n      tag_145\n        /* \"@openzeppelin/contracts/access/Ownable.sol\":1531:1544  _checkOwner() */\n      jump\t// in\n    tag_240:\n        /* \"HumAidToken.sol\":4035:4036  0 */\n      0x00\n        /* \"HumAidToken.sol\":4009:4037  treasuryWallet != address(0) */\n      0xffffffffffffffffffffffffffffffffffffffff\n      and\n        /* \"HumAidToken.sol\":4009:4023  treasuryWallet */\n      0x0a\n      0x00\n      swap1\n      sload\n      swap1\n      0x0100\n      exp\n      swap1\n      div\n      0xffffffffffffffffffffffffffffffffffffffff\n      and\n        /* \"HumAidToken.sol\":4009:4037  treasuryWallet != address(0) */\n      0xffffffffffffffffffffffffffffffffffffffff\n      and\n      sub\n        /* \"HumAidToken.sol\":4001:4065  require(treasuryWallet != address(0), \"Treasury wallet not set\") */\n      tag_242\n      jumpi\n      mload(0x40)\n      0x08c379a000000000000000000000000000000000000000000000000000000000\n      dup2\n      mstore\n      0x04\n      add\n      tag_243\n      swap1\n      tag_244\n      jump\t// in\n    tag_243:\n      mload(0x40)\n      dup1\n      swap2\n      sub\n      swap1\n      revert\n    tag_242:\n        /* \"HumAidToken.sol\":4076:4092  uint256 ngoCount */\n      0x00\n        /* \"HumAidToken.sol\":4095:4105  ngoWallets */\n      0x08\n        /* \"HumAidToken.sol\":4095:4112  ngoWallets.length */\n      dup1\n      sload\n      swap1\n      pop\n        /* \"HumAidToken.sol\":4076:4112  uint256 ngoCount = ngoWallets.length */\n      swap1\n      pop\n        /* \"HumAidToken.sol\":4142:4143  0 */\n      0x00\n        /* \"HumAidToken.sol\":4131:4139  ngoCount */\n      dup2\n        /* \"HumAidToken.sol\":4131:4143  ngoCount > 0 */\n      gt\n        /* \"HumAidToken.sol\":4123:4166  require(ngoCount > 0, \"No NGOs registered\") */\n      tag_245\n      jumpi\n      mload(0x40)\n      0x08c379a000000000000000000000000000000000000000000000000000000000\n      dup2\n      mstore\n      0x04\n      add\n      tag_246\n      swap1\n      tag_247\n      jump\t// in\n    tag_246:\n      mload(0x40)\n      dup1\n      swap2\n      sub\n      swap1\n      revert\n    tag_245:\n        /* \"HumAidToken.sol\":4179:4202  uint256 treasuryBalance */\n      0x00\n        /* \"HumAidToken.sol\":4205:4230  balanceOf(treasuryWallet) */\n      tag_248\n        /* \"HumAidToken.sol\":4215:4229  treasuryWallet */\n      0x0a\n      0x00\n      swap1\n      sload\n      swap1\n      0x0100\n      exp\n      swap1\n      div\n      0xffffffffffffffffffffffffffffffffffffffff\n      and\n        /* \"HumAidToken.sol\":4205:4214  balanceOf */\n      tag_77\n        /* \"HumAidToken.sol\":4205:4230  balanceOf(treasuryWallet) */\n      jump\t// in\n    tag_248:\n        /* \"HumAidToken.sol\":4179:4230  uint256 treasuryBalance = balanceOf(treasuryWallet) */\n      swap1\n      pop\n        /* \"HumAidToken.sol\":4267:4268  0 */\n      0x00\n        /* \"HumAidToken.sol\":4249:4264  treasuryBalance */\n      dup2\n        /* \"HumAidToken.sol\":4249:4268  treasuryBalance > 0 */\n      gt\n        /* \"HumAidToken.sol\":4241:4295  require(treasuryBalance > 0, \"No funds to distribute\") */\n      tag_249\n      jumpi\n      mload(0x40)\n      0x08c379a000000000000000000000000000000000000000000000000000000000\n      dup2\n      mstore\n      0x04\n      add\n      tag_250\n      swap1\n      tag_251\n      jump\t// in\n    tag_250:\n      mload(0x40)\n      dup1\n      swap2\n      sub\n      swap1\n      revert\n    tag_249:\n        /* \"HumAidToken.sol\":4308:4321  uint256 share */\n      0x00\n        /* \"HumAidToken.sol\":4342:4350  ngoCount */\n      dup3\n        /* \"HumAidToken.sol\":4324:4339  treasuryBalance */\n      dup3\n        /* \"HumAidToken.sol\":4324:4350  treasuryBalance / ngoCount */\n      tag_252\n      swap2\n      swap1\n      tag_253\n      jump\t// in\n    tag_252:\n        /* \"HumAidToken.sol\":4308:4350  uint256 share = treasuryBalance / ngoCount */\n      swap1\n      pop\n        /* \"HumAidToken.sol\":4377:4378  0 */\n      0x00\n        /* \"HumAidToken.sol\":4369:4374  share */\n      dup2\n        /* \"HumAidToken.sol\":4369:4378  share > 0 */\n      gt\n        /* \"HumAidToken.sol\":4361:4418  require(share > 0, \"Insufficient funds for distribution\") */\n      tag_254\n      jumpi\n      mload(0x40)\n      0x08c379a000000000000000000000000000000000000000000000000000000000\n      dup2\n      mstore\n      0x04\n      add\n      tag_255\n      swap1\n      tag_256\n      jump\t// in\n    tag_255:\n      mload(0x40)\n      dup1\n      swap2\n      sub\n      swap1\n      revert\n    tag_254:\n        /* \"HumAidToken.sol\":4436:4442  uint i */\n      0x00\n        /* \"HumAidToken.sol\":4431:4545  for (uint i = 0; i < ngoCount; ++i) {... */\n    tag_257:\n        /* \"HumAidToken.sol\":4452:4460  ngoCount */\n      dup4\n        /* \"HumAidToken.sol\":4448:4449  i */\n      dup2\n        /* \"HumAidToken.sol\":4448:4460  i < ngoCount */\n      lt\n        /* \"HumAidToken.sol\":4431:4545  for (uint i = 0; i < ngoCount; ++i) {... */\n      iszero\n      tag_258\n      jumpi\n        /* \"HumAidToken.sol\":4482:4533  super._update(treasuryWallet, ngoWallets[i], share) */\n      tag_260\n        /* \"HumAidToken.sol\":4496:4510  treasuryWallet */\n      0x0a\n      0x00\n      swap1\n      sload\n      swap1\n      0x0100\n      exp\n      swap1\n      div\n      0xffffffffffffffffffffffffffffffffffffffff\n      and\n        /* \"HumAidToken.sol\":4512:4522  ngoWallets */\n      0x08\n        /* \"HumAidToken.sol\":4523:4524  i */\n      dup4\n        /* \"HumAidToken.sol\":4512:4525  ngoWallets[i] */\n      dup2\n      sload\n      dup2\n      lt\n      tag_261\n      jumpi\n      tag_262\n      tag_155\n      jump\t// in\n    tag_262:\n    tag_261:\n      swap1\n      0x00\n      mstore\n      keccak256(0x00, 0x20)\n      add\n      0x00\n      swap1\n      sload\n      swap1\n      0x0100\n      exp\n      swap1\n      div\n      0xffffffffffffffffffffffffffffffffffffffff\n      and\n        /* \"HumAidToken.sol\":4527:4532  share */\n      dup5\n        /* \"HumAidToken.sol\":4482:4495  super._update */\n      tag_264\n        /* \"HumAidToken.sol\":4482:4533  super._update(treasuryWallet, ngoWallets[i], share) */\n      jump\t// in\n    tag_260:\n        /* \"HumAidToken.sol\":4462:4465  ++i */\n      dup1\n      tag_265\n      swap1\n      tag_161\n      jump\t// in\n    tag_265:\n      swap1\n      pop\n        /* \"HumAidToken.sol\":4431:4545  for (uint i = 0; i < ngoCount; ++i) {... */\n      jump(tag_257)\n    tag_258:\n      pop\n        /* \"HumAidToken.sol\":3990:4552  {... */\n      pop\n      pop\n      pop\n        /* \"HumAidToken.sol\":3935:4552  function distributeTreasuryToNGOs() external onlyOwner {... */\n      jump\t// out\n        /* \"@openzeppelin/contracts/utils/Context.sol\":656:752  function _msgSender() internal view virtual returns (address) {... */\n    tag_132:\n        /* \"@openzeppelin/contracts/utils/Context.sol\":709:716  address */\n      0x00\n        /* \"@openzeppelin/contracts/utils/Context.sol\":735:745  msg.sender */\n      caller\n        /* \"@openzeppelin/contracts/utils/Context.sol\":728:745  return msg.sender */\n      swap1\n      pop\n        /* \"@openzeppelin/contracts/utils/Context.sol\":656:752  function _msgSender() internal view virtual returns (address) {... */\n      swap1\n      jump\t// out\n        /* \"@openzeppelin/contracts/token/ERC20/ERC20.sol\":8707:8835  function _approve(address owner, address spender, uint256 value) internal {... */\n    tag_134:\n        /* \"@openzeppelin/contracts/token/ERC20/ERC20.sol\":8791:8828  _approve(owner, spender, value, true) */\n      tag_268\n        /* \"@openzeppelin/contracts/token/ERC20/ERC20.sol\":8800:8805  owner */\n      dup4\n        /* \"@openzeppelin/contracts/token/ERC20/ERC20.sol\":8807:8814  spender */\n      dup4\n        /* \"@openzeppelin/contracts/token/ERC20/ERC20.sol\":8816:8821  value */\n      dup4\n        /* \"@openzeppelin/contracts/token/ERC20/ERC20.sol\":8823:8827  true */\n      0x01\n        /* \"@openzeppelin/contracts/token/ERC20/ERC20.sol\":8791:8799  _approve */\n      tag_269\n        /* \"@openzeppelin/contracts/token/ERC20/ERC20.sol\":8791:8828  _approve(owner, spender, value, true) */\n      jump\t// in\n    tag_268:\n        /* \"@openzeppelin/contracts/token/ERC20/ERC20.sol\":8707:8835  function _approve(address owner, address spender, uint256 value) internal {... */\n      pop\n      pop\n      pop\n      jump\t// out\n        /* \"@openzeppelin/contracts/token/ERC20/ERC20.sol\":10396:10872  function _spendAllowance(address owner, address spender, uint256 value) internal virtual {... */\n    tag_139:\n        /* \"@openzeppelin/contracts/token/ERC20/ERC20.sol\":10495:10519  uint256 currentAllowance */\n      0x00\n        /* \"@openzeppelin/contracts/token/ERC20/ERC20.sol\":10522:10547  allowance(owner, spender) */\n      tag_271\n        /* \"@openzeppelin/contracts/token/ERC20/ERC20.sol\":10532:10537  owner */\n      dup5\n        /* \"@openzeppelin/contracts/token/ERC20/ERC20.sol\":10539:10546  spender */\n      dup5\n        /* \"@openzeppelin/contracts/token/ERC20/ERC20.sol\":10522:10531  allowance */\n      tag_112\n        /* \"@openzeppelin/contracts/token/ERC20/ERC20.sol\":10522:10547  allowance(owner, spender) */\n      jump\t// in\n    tag_271:\n        /* \"@openzeppelin/contracts/token/ERC20/ERC20.sol\":10495:10547  uint256 currentAllowance = allowance(owner, spender) */\n      swap1\n      pop\n        /* \"@openzeppelin/contracts/token/ERC20/ERC20.sol\":10580:10597  type(uint256).max */\n      0xffffffffffffffffffffffffffffffffffffffffffffffffffffffffffffffff\n        /* \"@openzeppelin/contracts/token/ERC20/ERC20.sol\":10561:10577  currentAllowance */\n      dup2\n        /* \"@openzeppelin/contracts/token/ERC20/ERC20.sol\":10561:10597  currentAllowance < type(uint256).max */\n      lt\n        /* \"@openzeppelin/contracts/token/ERC20/ERC20.sol\":10557:10866  if (currentAllowance < type(uint256).max) {... */\n      iszero\n      tag_272\n      jumpi\n        /* \"@openzeppelin/contracts/token/ERC20/ERC20.sol\":10636:10641  value */\n      dup2\n        /* \"@openzeppelin/contracts/token/ERC20/ERC20.sol\":10617:10633  currentAllowance */\n      dup2\n        /* \"@openzeppelin/contracts/token/ERC20/ERC20.sol\":10617:10641  currentAllowance < value */\n      lt\n        /* \"@openzeppelin/contracts/token/ERC20/ERC20.sol\":10613:10743  if (currentAllowance < value) {... */\n      iszero\n      tag_273\n      jumpi\n        /* \"@openzeppelin/contracts/token/ERC20/ERC20.sol\":10695:10702  spender */\n      dup3\n        /* \"@openzeppelin/contracts/token/ERC20/ERC20.sol\":10704:10720  currentAllowance */\n      dup2\n        /* \"@openzeppelin/contracts/token/ERC20/ERC20.sol\":10722:10727  value */\n      dup4\n        /* \"@openzeppelin/contracts/token/ERC20/ERC20.sol\":10668:10728  ERC20InsufficientAllowance(spender, currentAllowance, value) */\n      mload(0x40)\n      0xfb8f41b200000000000000000000000000000000000000000000000000000000\n      dup2\n      mstore\n      0x04\n      add\n      tag_274\n      swap4\n      swap3\n      swap2\n      swap1\n      tag_275\n      jump\t// in\n    tag_274:\n      mload(0x40)\n      dup1\n      swap2\n      sub\n      swap1\n      revert\n        /* \"@openzeppelin/contracts/token/ERC20/ERC20.sol\":10613:10743  if (currentAllowance < value) {... */\n    tag_273:\n        /* \"@openzeppelin/contracts/token/ERC20/ERC20.sol\":10784:10841  _approve(owner, spender, currentAllowance - value, false) */\n      tag_276\n        /* \"@openzeppelin/contracts/token/ERC20/ERC20.sol\":10793:10798  owner */\n      dup5\n        /* \"@openzeppelin/contracts/token/ERC20/ERC20.sol\":10800:10807  spender */\n      dup5\n        /* \"@openzeppelin/contracts/token/ERC20/ERC20.sol\":10828:10833  value */\n      dup5\n        /* \"@openzeppelin/contracts/token/ERC20/ERC20.sol\":10809:10825  currentAllowance */\n      dup5\n        /* \"@openzeppelin/contracts/token/ERC20/ERC20.sol\":10809:10833  currentAllowance - value */\n      sub\n        /* \"@openzeppelin/contracts/token/ERC20/ERC20.sol\":10835:10840  false */\n      0x00\n        /* \"@openzeppelin/contracts/token/ERC20/ERC20.sol\":10784:10792  _approve */\n      tag_269\n        /* \"@openzeppelin/contracts/token/ERC20/ERC20.sol\":10784:10841  _approve(owner, spender, currentAllowance - value, false) */\n      jump\t// in\n    tag_276:\n        /* \"@openzeppelin/contracts/token/ERC20/ERC20.sol\":10557:10866  if (currentAllowance < type(uint256).max) {... */\n    tag_272:\n        /* \"@openzeppelin/contracts/token/ERC20/ERC20.sol\":10485:10872  {... */\n      pop\n        /* \"@openzeppelin/contracts/token/ERC20/ERC20.sol\":10396:10872  function _spendAllowance(address owner, address spender, uint256 value) internal virtual {... */\n      pop\n      pop\n      pop\n      jump\t// out\n        /* \"@openzeppelin/contracts/token/ERC20/ERC20.sol\":5374:5674  function _transfer(address from, address to, uint256 value) internal {... */\n    tag_141:\n        /* \"@openzeppelin/contracts/token/ERC20/ERC20.sol\":5473:5474  0 */\n      0x00\n        /* \"@openzeppelin/contracts/token/ERC20/ERC20.sol\":5457:5475  from == address(0) */\n      0xffffffffffffffffffffffffffffffffffffffff\n      and\n        /* \"@openzeppelin/contracts/token/ERC20/ERC20.sol\":5457:5461  from */\n      dup4\n        /* \"@openzeppelin/contracts/token/ERC20/ERC20.sol\":5457:5475  from == address(0) */\n      0xffffffffffffffffffffffffffffffffffffffff\n      and\n      sub\n        /* \"@openzeppelin/contracts/token/ERC20/ERC20.sol\":5453:5539  if (from == address(0)) {... */\n      tag_278\n      jumpi\n        /* \"@openzeppelin/contracts/token/ERC20/ERC20.sol\":5525:5526  0 */\n      0x00\n        /* \"@openzeppelin/contracts/token/ERC20/ERC20.sol\":5498:5528  ERC20InvalidSender(address(0)) */\n      mload(0x40)\n      0x96c6fd1e00000000000000000000000000000000000000000000000000000000\n      dup2\n      mstore\n      0x04\n      add\n      tag_279\n      swap2\n      swap1\n      tag_70\n      jump\t// in\n    tag_279:\n      mload(0x40)\n      dup1\n      swap2\n      sub\n      swap1\n      revert\n        /* \"@openzeppelin/contracts/token/ERC20/ERC20.sol\":5453:5539  if (from == address(0)) {... */\n    tag_278:\n        /* \"@openzeppelin/contracts/token/ERC20/ERC20.sol\":5566:5567  0 */\n      0x00\n        /* \"@openzeppelin/contracts/token/ERC20/ERC20.sol\":5552:5568  to == address(0) */\n      0xffffffffffffffffffffffffffffffffffffffff\n      and\n        /* \"@openzeppelin/contracts/token/ERC20/ERC20.sol\":5552:5554  to */\n      dup3\n        /* \"@openzeppelin/contracts/token/ERC20/ERC20.sol\":5552:5568  to == address(0) */\n      0xffffffffffffffffffffffffffffffffffffffff\n      and\n      sub\n        /* \"@openzeppelin/contracts/token/ERC20/ERC20.sol\":5548:5634  if (to == address(0)) {... */\n      tag_280\n      jumpi\n        /* \"@openzeppelin/contracts/token/ERC20/ERC20.sol\":5620:5621  0 */\n      0x00\n        /* \"@openzeppelin/contracts/token/ERC20/ERC20.sol\":5591:5623  ERC20InvalidReceiver(address(0)) */\n      mload(0x40)\n      0xec442f0500000000000000000000000000000000000000000000000000000000\n      dup2\n      mstore\n      0x04\n      add\n      tag_281\n      swap2\n      swap1\n      tag_70\n      jump\t// in\n    tag_281:\n      mload(0x40)\n      dup1\n      swap2\n      sub\n      swap1\n      revert\n        /* \"@openzeppelin/contracts/token/ERC20/ERC20.sol\":5548:5634  if (to == address(0)) {... */\n    tag_280:\n        /* \"@openzeppelin/contracts/token/ERC20/ERC20.sol\":5643:5667  _update(from, to, value) */\n      tag_282\n        /* \"@openzeppelin/contracts/token/ERC20/ERC20.sol\":5651:5655  from */\n      dup4\n        /* \"@openzeppelin/contracts/token/ERC20/ERC20.sol\":5657:5659  to */\n      dup4\n        /* \"@openzeppelin/contracts/token/ERC20/ERC20.sol\":5661:5666  value */\n      dup4\n        /* \"@openzeppelin/contracts/token/ERC20/ERC20.sol\":5643:5650  _update */\n      tag_283\n        /* \"@openzeppelin/contracts/token/ERC20/ERC20.sol\":5643:5667  _update(from, to, value) */\n      jump\t// in\n    tag_282:\n        /* \"@openzeppelin/contracts/token/ERC20/ERC20.sol\":5374:5674  function _transfer(address from, address to, uint256 value) internal {... */\n      pop\n      pop\n      pop\n      jump\t// out\n        /* \"@openzeppelin/contracts/access/Ownable.sol\":1796:1958  function _checkOwner() internal view virtual {... */\n    tag_145:\n        /* \"@openzeppelin/contracts/access/Ownable.sol\":1866:1878  _msgSender() */\n      tag_285\n        /* \"@openzeppelin/contracts/access/Ownable.sol\":1866:1876  _msgSender */\n      tag_132\n        /* \"@openzeppelin/contracts/access/Ownable.sol\":1866:1878  _msgSender() */\n      jump\t// in\n    tag_285:\n        /* \"@openzeppelin/contracts/access/Ownable.sol\":1855:1878  owner() != _msgSender() */\n      0xffffffffffffffffffffffffffffffffffffffff\n      and\n        /* \"@openzeppelin/contracts/access/Ownable.sol\":1855:1862  owner() */\n      tag_286\n        /* \"@openzeppelin/contracts/access/Ownable.sol\":1855:1860  owner */\n      tag_92\n        /* \"@openzeppelin/contracts/access/Ownable.sol\":1855:1862  owner() */\n      jump\t// in\n    tag_286:\n        /* \"@openzeppelin/contracts/access/Ownable.sol\":1855:1878  owner() != _msgSender() */\n      0xffffffffffffffffffffffffffffffffffffffff\n      and\n      eq\n        /* \"@openzeppelin/contracts/access/Ownable.sol\":1851:1952  if (owner() != _msgSender()) {... */\n      tag_287\n      jumpi\n        /* \"@openzeppelin/contracts/access/Ownable.sol\":1928:1940  _msgSender() */\n      tag_288\n        /* \"@openzeppelin/contracts/access/Ownable.sol\":1928:1938  _msgSender */\n      tag_132\n        /* \"@openzeppelin/contracts/access/Ownable.sol\":1928:1940  _msgSender() */\n      jump\t// in\n    tag_288:\n        /* \"@openzeppelin/contracts/access/Ownable.sol\":1901:1941  OwnableUnauthorizedAccount(_msgSender()) */\n      mload(0x40)\n      0x118cdaa700000000000000000000000000000000000000000000000000000000\n      dup2\n      mstore\n      0x04\n      add\n      tag_289\n      swap2\n      swap1\n      tag_70\n      jump\t// in\n    tag_289:\n      mload(0x40)\n      dup1\n      swap2\n      sub\n      swap1\n      revert\n        /* \"@openzeppelin/contracts/access/Ownable.sol\":1851:1952  if (owner() != _msgSender()) {... */\n    tag_287:\n        /* \"@openzeppelin/contracts/access/Ownable.sol\":1796:1958  function _checkOwner() internal view virtual {... */\n      jump\t// out\n        /* \"HumAidToken.sol\":1915:2395  function registerNGOWallet(address _ngoAddress) private returns (bool){... */\n    tag_167:\n        /* \"HumAidToken.sol\":1980:1984  bool */\n      0x00\n        /* \"HumAidToken.sol\":2027:2028  0 */\n      dup1\n        /* \"HumAidToken.sol\":2004:2029  _ngoAddress != address(0) */\n      0xffffffffffffffffffffffffffffffffffffffff\n      and\n        /* \"HumAidToken.sol\":2004:2015  _ngoAddress */\n      dup3\n        /* \"HumAidToken.sol\":2004:2029  _ngoAddress != address(0) */\n      0xffffffffffffffffffffffffffffffffffffffff\n      and\n      sub\n        /* \"HumAidToken.sol\":1996:2053  require(_ngoAddress != address(0), \"Invalid NGO address\") */\n      tag_291\n      jumpi\n      mload(0x40)\n      0x08c379a000000000000000000000000000000000000000000000000000000000\n      dup2\n      mstore\n      0x04\n      add\n      tag_292\n      swap1\n      tag_149\n      jump\t// in\n    tag_292:\n      mload(0x40)\n      dup1\n      swap2\n      sub\n      swap1\n      revert\n    tag_291:\n        /* \"HumAidToken.sol\":2107:2112  false */\n      0x00\n        /* \"HumAidToken.sol\":2072:2112  _isExcludedFromFee[_ngoAddress] == false */\n      iszero\n      iszero\n        /* \"HumAidToken.sol\":2072:2090  _isExcludedFromFee */\n      0x09\n        /* \"HumAidToken.sol\":2072:2103  _isExcludedFromFee[_ngoAddress] */\n      0x00\n        /* \"HumAidToken.sol\":2091:2102  _ngoAddress */\n      dup5\n        /* \"HumAidToken.sol\":2072:2103  _isExcludedFromFee[_ngoAddress] */\n      0xffffffffffffffffffffffffffffffffffffffff\n      and\n      0xffffffffffffffffffffffffffffffffffffffff\n      and\n      dup2\n      mstore\n      0x20\n      add\n      swap1\n      dup2\n      mstore\n      0x20\n      add\n      0x00\n      keccak256\n      0x00\n      swap1\n      sload\n      swap1\n      0x0100\n      exp\n      swap1\n      div\n      0xff\n      and\n        /* \"HumAidToken.sol\":2072:2112  _isExcludedFromFee[_ngoAddress] == false */\n      iszero\n      iszero\n      eq\n        /* \"HumAidToken.sol\":2064:2150  require(_isExcludedFromFee[_ngoAddress] == false, \"This wallet is already registered\") */\n      tag_293\n      jumpi\n      mload(0x40)\n      0x08c379a000000000000000000000000000000000000000000000000000000000\n      dup2\n      mstore\n      0x04\n      add\n      tag_294\n      swap1\n      tag_295\n      jump\t// in\n    tag_294:\n      mload(0x40)\n      dup1\n      swap2\n      sub\n      swap1\n      revert\n    tag_293:\n        /* \"HumAidToken.sol\":2166:2172  uint i */\n      0x00\n        /* \"HumAidToken.sol\":2161:2277  for (uint i = 0; i < ngoWallets.length; ++i){... */\n    tag_296:\n        /* \"HumAidToken.sol\":2182:2192  ngoWallets */\n      0x08\n        /* \"HumAidToken.sol\":2182:2199  ngoWallets.length */\n      dup1\n      sload\n      swap1\n      pop\n        /* \"HumAidToken.sol\":2178:2179  i */\n      dup2\n        /* \"HumAidToken.sol\":2178:2199  i < ngoWallets.length */\n      lt\n        /* \"HumAidToken.sol\":2161:2277  for (uint i = 0; i < ngoWallets.length; ++i){... */\n      iszero\n      tag_297\n      jumpi\n        /* \"HumAidToken.sol\":2240:2251  _ngoAddress */\n      dup3\n        /* \"HumAidToken.sol\":2223:2251  ngoWallets[i] == _ngoAddress */\n      0xffffffffffffffffffffffffffffffffffffffff\n      and\n        /* \"HumAidToken.sol\":2223:2233  ngoWallets */\n      0x08\n        /* \"HumAidToken.sol\":2234:2235  i */\n      dup3\n        /* \"HumAidToken.sol\":2223:2236  ngoWallets[i] */\n      dup2\n      sload\n      dup2\n      lt\n      tag_299\n      jumpi\n      tag_300\n      tag_155\n      jump\t// in\n    tag_300:\n    tag_299:\n      swap1\n      0x00\n      mstore\n      keccak256(0x00, 0x20)\n      add\n      0x00\n      swap1\n      sload\n      swap1\n      0x0100\n      exp\n      swap1\n      div\n      0xffffffffffffffffffffffffffffffffffffffff\n      and\n        /* \"HumAidToken.sol\":2223:2251  ngoWallets[i] == _ngoAddress */\n      0xffffffffffffffffffffffffffffffffffffffff\n      and\n      sub\n        /* \"HumAidToken.sol\":2220:2265  if(ngoWallets[i] == _ngoAddress) return false */\n      tag_302\n      jumpi\n        /* \"HumAidToken.sol\":2260:2265  false */\n      0x00\n        /* \"HumAidToken.sol\":2253:2265  return false */\n      swap2\n      pop\n      pop\n      jump(tag_290)\n        /* \"HumAidToken.sol\":2220:2265  if(ngoWallets[i] == _ngoAddress) return false */\n    tag_302:\n        /* \"HumAidToken.sol\":2201:2204  ++i */\n      dup1\n      tag_303\n      swap1\n      tag_161\n      jump\t// in\n    tag_303:\n      swap1\n      pop\n        /* \"HumAidToken.sol\":2161:2277  for (uint i = 0; i < ngoWallets.length; ++i){... */\n      jump(tag_296)\n    tag_297:\n      pop\n        /* \"HumAidToken.sol\":2287:2316  pushToNGOWallets(_ngoAddress) */\n      tag_304\n        /* \"HumAidToken.sol\":2304:2315  _ngoAddress */\n      dup3\n        /* \"HumAidToken.sol\":2287:2303  pushToNGOWallets */\n      tag_305\n        /* \"HumAidToken.sol\":2287:2316  pushToNGOWallets(_ngoAddress) */\n      jump\t// in\n    tag_304:\n        /* \"HumAidToken.sol\":2361:2365  true */\n      0x01\n        /* \"HumAidToken.sol\":2327:2345  _isExcludedFromFee */\n      0x09\n        /* \"HumAidToken.sol\":2327:2358  _isExcludedFromFee[_ngoAddress] */\n      0x00\n        /* \"HumAidToken.sol\":2346:2357  _ngoAddress */\n      dup5\n        /* \"HumAidToken.sol\":2327:2358  _isExcludedFromFee[_ngoAddress] */\n      0xffffffffffffffffffffffffffffffffffffffff\n      and\n      0xffffffffffffffffffffffffffffffffffffffff\n      and\n      dup2\n      mstore\n      0x20\n      add\n      swap1\n      dup2\n      mstore\n      0x20\n      add\n      0x00\n      keccak256\n      0x00\n        /* \"HumAidToken.sol\":2327:2365  _isExcludedFromFee[_ngoAddress] = true */\n      0x0100\n      exp\n      dup2\n      sload\n      dup2\n      0xff\n      mul\n      not\n      and\n      swap1\n      dup4\n      iszero\n      iszero\n      mul\n      or\n      swap1\n      sstore\n      pop\n        /* \"HumAidToken.sol\":2383:2387  true */\n      0x01\n        /* \"HumAidToken.sol\":2376:2387  return true */\n      swap1\n      pop\n        /* \"HumAidToken.sol\":1915:2395  function registerNGOWallet(address _ngoAddress) private returns (bool){... */\n    tag_290:\n      swap2\n      swap1\n      pop\n      jump\t// out\n        /* \"@openzeppelin/contracts/token/ERC20/ERC20.sol\":7965:8171  function _burn(address account, uint256 value) internal {... */\n    tag_170:\n        /* \"@openzeppelin/contracts/token/ERC20/ERC20.sol\":8054:8055  0 */\n      0x00\n        /* \"@openzeppelin/contracts/token/ERC20/ERC20.sol\":8035:8056  account == address(0) */\n      0xffffffffffffffffffffffffffffffffffffffff\n      and\n        /* \"@openzeppelin/contracts/token/ERC20/ERC20.sol\":8035:8042  account */\n      dup3\n        /* \"@openzeppelin/contracts/token/ERC20/ERC20.sol\":8035:8056  account == address(0) */\n      0xffffffffffffffffffffffffffffffffffffffff\n      and\n      sub\n        /* \"@openzeppelin/contracts/token/ERC20/ERC20.sol\":8031:8120  if (account == address(0)) {... */\n      tag_307\n      jumpi\n        /* \"@openzeppelin/contracts/token/ERC20/ERC20.sol\":8106:8107  0 */\n      0x00\n        /* \"@openzeppelin/contracts/token/ERC20/ERC20.sol\":8079:8109  ERC20InvalidSender(address(0)) */\n      mload(0x40)\n      0x96c6fd1e00000000000000000000000000000000000000000000000000000000\n      dup2\n      mstore\n      0x04\n      add\n      tag_308\n      swap2\n      swap1\n      tag_70\n      jump\t// in\n    tag_308:\n      mload(0x40)\n      dup1\n      swap2\n      sub\n      swap1\n      revert\n        /* \"@openzeppelin/contracts/token/ERC20/ERC20.sol\":8031:8120  if (account == address(0)) {... */\n    tag_307:\n        /* \"@openzeppelin/contracts/token/ERC20/ERC20.sol\":8129:8164  _update(account, address(0), value) */\n      tag_309\n        /* \"@openzeppelin/contracts/token/ERC20/ERC20.sol\":8137:8144  account */\n      dup3\n        /* \"@openzeppelin/contracts/token/ERC20/ERC20.sol\":8154:8155  0 */\n      0x00\n        /* \"@openzeppelin/contracts/token/ERC20/ERC20.sol\":8158:8163  value */\n      dup4\n        /* \"@openzeppelin/contracts/token/ERC20/ERC20.sol\":8129:8136  _update */\n      tag_283\n        /* \"@openzeppelin/contracts/token/ERC20/ERC20.sol\":8129:8164  _update(account, address(0), value) */\n      jump\t// in\n    tag_309:\n        /* \"@openzeppelin/contracts/token/ERC20/ERC20.sol\":7965:8171  function _burn(address account, uint256 value) internal {... */\n      pop\n      pop\n      jump\t// out\n        /* \"@openzeppelin/contracts/access/Ownable.sol\":2912:3099  function _transferOwnership(address newOwner) internal virtual {... */\n    tag_182:\n        /* \"@openzeppelin/contracts/access/Ownable.sol\":2985:3001  address oldOwner */\n      0x00\n        /* \"@openzeppelin/contracts/access/Ownable.sol\":3004:3010  _owner */\n      0x05\n      0x00\n      swap1\n      sload\n      swap1\n      0x0100\n      exp\n      swap1\n      div\n      0xffffffffffffffffffffffffffffffffffffffff\n      and\n        /* \"@openzeppelin/contracts/access/Ownable.sol\":2985:3010  address oldOwner = _owner */\n      swap1\n      pop\n        /* \"@openzeppelin/contracts/access/Ownable.sol\":3029:3037  newOwner */\n      dup2\n        /* \"@openzeppelin/contracts/access/Ownable.sol\":3020:3026  _owner */\n      0x05\n      0x00\n        /* \"@openzeppelin/contracts/access/Ownable.sol\":3020:3037  _owner = newOwner */\n      0x0100\n      exp\n      dup2\n      sload\n      dup2\n      0xffffffffffffffffffffffffffffffffffffffff\n      mul\n      not\n      and\n      swap1\n      dup4\n      0xffffffffffffffffffffffffffffffffffffffff\n      and\n      mul\n      or\n      swap1\n      sstore\n      pop\n        /* \"@openzeppelin/contracts/access/Ownable.sol\":3083:3091  newOwner */\n      dup2\n        /* \"@openzeppelin/contracts/access/Ownable.sol\":3052:3092  OwnershipTransferred(oldOwner, newOwner) */\n      0xffffffffffffffffffffffffffffffffffffffff\n      and\n        /* \"@openzeppelin/contracts/access/Ownable.sol\":3073:3081  oldOwner */\n      dup2\n        /* \"@openzeppelin/contracts/access/Ownable.sol\":3052:3092  OwnershipTransferred(oldOwner, newOwner) */\n      0xffffffffffffffffffffffffffffffffffffffff\n      and\n      0x8be0079c531659141344cd1fd0a4f28419497f9722a3daafe3b4186f6b6457e0\n      mload(0x40)\n      mload(0x40)\n      dup1\n      swap2\n      sub\n      swap1\n      log3\n        /* \"@openzeppelin/contracts/access/Ownable.sol\":2975:3099  {... */\n      pop\n        /* \"@openzeppelin/contracts/access/Ownable.sol\":2912:3099  function _transferOwnership(address newOwner) internal virtual {... */\n      pop\n      jump\t// out\n        /* \"HumAidToken.sol\":2960:3343  function unregisterNGOWallet(address _ngoAddress) private returns (bool){... */\n    tag_228:\n        /* \"HumAidToken.sol\":3027:3031  bool */\n      0x00\n        /* \"HumAidToken.sol\":3074:3075  0 */\n      dup1\n        /* \"HumAidToken.sol\":3051:3076  _ngoAddress != address(0) */\n      0xffffffffffffffffffffffffffffffffffffffff\n      and\n        /* \"HumAidToken.sol\":3051:3062  _ngoAddress */\n      dup3\n        /* \"HumAidToken.sol\":3051:3076  _ngoAddress != address(0) */\n      0xffffffffffffffffffffffffffffffffffffffff\n      and\n      sub\n        /* \"HumAidToken.sol\":3043:3100  require(_ngoAddress != address(0), \"Invalid NGO address\") */\n      tag_312\n      jumpi\n      mload(0x40)\n      0x08c379a000000000000000000000000000000000000000000000000000000000\n      dup2\n      mstore\n      0x04\n      add\n      tag_313\n      swap1\n      tag_149\n      jump\t// in\n    tag_313:\n      mload(0x40)\n      dup1\n      swap2\n      sub\n      swap1\n      revert\n    tag_312:\n        /* \"HumAidToken.sol\":3116:3124  uint32 i */\n      0x00\n        /* \"HumAidToken.sol\":3111:3313  for (uint32 i = 0; i < ngoWallets.length; ++i) ... */\n    tag_314:\n        /* \"HumAidToken.sol\":3134:3144  ngoWallets */\n      0x08\n        /* \"HumAidToken.sol\":3134:3151  ngoWallets.length */\n      dup1\n      sload\n      swap1\n      pop\n        /* \"HumAidToken.sol\":3130:3131  i */\n      dup2\n        /* \"HumAidToken.sol\":3130:3151  i < ngoWallets.length */\n      0xffffffff\n      and\n      lt\n        /* \"HumAidToken.sol\":3111:3313  for (uint32 i = 0; i < ngoWallets.length; ++i) ... */\n      iszero\n      tag_315\n      jumpi\n        /* \"HumAidToken.sol\":3204:3215  _ngoAddress */\n      dup3\n        /* \"HumAidToken.sol\":3187:3215  ngoWallets[i] == _ngoAddress */\n      0xffffffffffffffffffffffffffffffffffffffff\n      and\n        /* \"HumAidToken.sol\":3187:3197  ngoWallets */\n      0x08\n        /* \"HumAidToken.sol\":3198:3199  i */\n      dup3\n        /* \"HumAidToken.sol\":3187:3200  ngoWallets[i] */\n      0xffffffff\n      and\n      dup2\n      sload\n      dup2\n      lt\n      tag_317\n      jumpi\n      tag_318\n      tag_155\n      jump\t// in\n    tag_318:\n    tag_317:\n      swap1\n      0x00\n      mstore\n      keccak256(0x00, 0x20)\n      add\n      0x00\n      swap1\n      sload\n      swap1\n      0x0100\n      exp\n      swap1\n      div\n      0xffffffffffffffffffffffffffffffffffffffff\n      and\n        /* \"HumAidToken.sol\":3187:3215  ngoWallets[i] == _ngoAddress */\n      0xffffffffffffffffffffffffffffffffffffffff\n      and\n      sub\n        /* \"HumAidToken.sol\":3183:3302  if (ngoWallets[i] == _ngoAddress) {... */\n      tag_320\n      jumpi\n        /* \"HumAidToken.sol\":3236:3256  popFromNGOWallets(i) */\n      tag_321\n        /* \"HumAidToken.sol\":3254:3255  i */\n      dup2\n        /* \"HumAidToken.sol\":3236:3253  popFromNGOWallets */\n      tag_322\n        /* \"HumAidToken.sol\":3236:3256  popFromNGOWallets(i) */\n      jump\t// in\n    tag_321:\n        /* \"HumAidToken.sol\":3282:3286  true */\n      0x01\n        /* \"HumAidToken.sol\":3275:3286  return true */\n      swap2\n      pop\n      pop\n      jump(tag_311)\n        /* \"HumAidToken.sol\":3183:3302  if (ngoWallets[i] == _ngoAddress) {... */\n    tag_320:\n        /* \"HumAidToken.sol\":3153:3156  ++i */\n      dup1\n      tag_323\n      swap1\n      tag_324\n      jump\t// in\n    tag_323:\n      swap1\n      pop\n        /* \"HumAidToken.sol\":3111:3313  for (uint32 i = 0; i < ngoWallets.length; ++i) ... */\n      jump(tag_314)\n    tag_315:\n      pop\n        /* \"HumAidToken.sol\":3330:3335  false */\n      0x00\n        /* \"HumAidToken.sol\":3323:3335  return false */\n      swap1\n      pop\n        /* \"HumAidToken.sol\":2960:3343  function unregisterNGOWallet(address _ngoAddress) private returns (bool){... */\n    tag_311:\n      swap2\n      swap1\n      pop\n      jump\t// out\n        /* \"@openzeppelin/contracts/token/ERC20/ERC20.sol\":5989:7096  function _update(address from, address to, uint256 value) internal virtual {... */\n    tag_264:\n        /* \"@openzeppelin/contracts/token/ERC20/ERC20.sol\":6094:6095  0 */\n      0x00\n        /* \"@openzeppelin/contracts/token/ERC20/ERC20.sol\":6078:6096  from == address(0) */\n      0xffffffffffffffffffffffffffffffffffffffff\n      and\n        /* \"@openzeppelin/contracts/token/ERC20/ERC20.sol\":6078:6082  from */\n      dup4\n        /* \"@openzeppelin/contracts/token/ERC20/ERC20.sol\":6078:6096  from == address(0) */\n      0xffffffffffffffffffffffffffffffffffffffff\n      and\n      sub\n        /* \"@openzeppelin/contracts/token/ERC20/ERC20.sol\":6074:6614  if (from == address(0)) {... */\n      tag_326\n      jumpi\n        /* \"@openzeppelin/contracts/token/ERC20/ERC20.sol\":6230:6235  value */\n      dup1\n        /* \"@openzeppelin/contracts/token/ERC20/ERC20.sol\":6214:6226  _totalSupply */\n      0x02\n      0x00\n        /* \"@openzeppelin/contracts/token/ERC20/ERC20.sol\":6214:6235  _totalSupply += value */\n      dup3\n      dup3\n      sload\n      tag_327\n      swap2\n      swap1\n      tag_328\n      jump\t// in\n    tag_327:\n      swap3\n      pop\n      pop\n      dup2\n      swap1\n      sstore\n      pop\n        /* \"@openzeppelin/contracts/token/ERC20/ERC20.sol\":6074:6614  if (from == address(0)) {... */\n      jump(tag_329)\n    tag_326:\n        /* \"@openzeppelin/contracts/token/ERC20/ERC20.sol\":6266:6285  uint256 fromBalance */\n      0x00\n        /* \"@openzeppelin/contracts/token/ERC20/ERC20.sol\":6288:6297  _balances */\n      dup1\n        /* \"@openzeppelin/contracts/token/ERC20/ERC20.sol\":6288:6303  _balances[from] */\n      0x00\n        /* \"@openzeppelin/contracts/token/ERC20/ERC20.sol\":6298:6302  from */\n      dup6\n        /* \"@openzeppelin/contracts/token/ERC20/ERC20.sol\":6288:6303  _balances[from] */\n      0xffffffffffffffffffffffffffffffffffffffff\n      and\n      0xffffffffffffffffffffffffffffffffffffffff\n      and\n      dup2\n      mstore\n      0x20\n      add\n      swap1\n      dup2\n      mstore\n      0x20\n      add\n      0x00\n      keccak256\n      sload\n        /* \"@openzeppelin/contracts/token/ERC20/ERC20.sol\":6266:6303  uint256 fromBalance = _balances[from] */\n      swap1\n      pop\n        /* \"@openzeppelin/contracts/token/ERC20/ERC20.sol\":6335:6340  value */\n      dup2\n        /* \"@openzeppelin/contracts/token/ERC20/ERC20.sol\":6321:6332  fromBalance */\n      dup2\n        /* \"@openzeppelin/contracts/token/ERC20/ERC20.sol\":6321:6340  fromBalance < value */\n      lt\n        /* \"@openzeppelin/contracts/token/ERC20/ERC20.sol\":6317:6432  if (fromBalance < value) {... */\n      iszero\n      tag_330\n      jumpi\n        /* \"@openzeppelin/contracts/token/ERC20/ERC20.sol\":6392:6396  from */\n      dup4\n        /* \"@openzeppelin/contracts/token/ERC20/ERC20.sol\":6398:6409  fromBalance */\n      dup2\n        /* \"@openzeppelin/contracts/token/ERC20/ERC20.sol\":6411:6416  value */\n      dup4\n        /* \"@openzeppelin/contracts/token/ERC20/ERC20.sol\":6367:6417  ERC20InsufficientBalance(from, fromBalance, value) */\n      mload(0x40)\n      0xe450d38c00000000000000000000000000000000000000000000000000000000\n      dup2\n      mstore\n      0x04\n      add\n      tag_331\n      swap4\n      swap3\n      swap2\n      swap1\n      tag_275\n      jump\t// in\n    tag_331:\n      mload(0x40)\n      dup1\n      swap2\n      sub\n      swap1\n      revert\n        /* \"@openzeppelin/contracts/token/ERC20/ERC20.sol\":6317:6432  if (fromBalance < value) {... */\n    tag_330:\n        /* \"@openzeppelin/contracts/token/ERC20/ERC20.sol\":6584:6589  value */\n      dup2\n        /* \"@openzeppelin/contracts/token/ERC20/ERC20.sol\":6570:6581  fromBalance */\n      dup2\n        /* \"@openzeppelin/contracts/token/ERC20/ERC20.sol\":6570:6589  fromBalance - value */\n      sub\n        /* \"@openzeppelin/contracts/token/ERC20/ERC20.sol\":6552:6561  _balances */\n      0x00\n        /* \"@openzeppelin/contracts/token/ERC20/ERC20.sol\":6552:6567  _balances[from] */\n      dup1\n        /* \"@openzeppelin/contracts/token/ERC20/ERC20.sol\":6562:6566  from */\n      dup7\n        /* \"@openzeppelin/contracts/token/ERC20/ERC20.sol\":6552:6567  _balances[from] */\n      0xffffffffffffffffffffffffffffffffffffffff\n      and\n      0xffffffffffffffffffffffffffffffffffffffff\n      and\n      dup2\n      mstore\n      0x20\n      add\n      swap1\n      dup2\n      mstore\n      0x20\n      add\n      0x00\n      keccak256\n        /* \"@openzeppelin/contracts/token/ERC20/ERC20.sol\":6552:6589  _balances[from] = fromBalance - value */\n      dup2\n      swap1\n      sstore\n      pop\n        /* \"@openzeppelin/contracts/token/ERC20/ERC20.sol\":6252:6614  {... */\n      pop\n        /* \"@openzeppelin/contracts/token/ERC20/ERC20.sol\":6074:6614  if (from == address(0)) {... */\n    tag_329:\n        /* \"@openzeppelin/contracts/token/ERC20/ERC20.sol\":6642:6643  0 */\n      0x00\n        /* \"@openzeppelin/contracts/token/ERC20/ERC20.sol\":6628:6644  to == address(0) */\n      0xffffffffffffffffffffffffffffffffffffffff\n      and\n        /* \"@openzeppelin/contracts/token/ERC20/ERC20.sol\":6628:6630  to */\n      dup3\n        /* \"@openzeppelin/contracts/token/ERC20/ERC20.sol\":6628:6644  to == address(0) */\n      0xffffffffffffffffffffffffffffffffffffffff\n      and\n      sub\n        /* \"@openzeppelin/contracts/token/ERC20/ERC20.sol\":6624:7049  if (to == address(0)) {... */\n      tag_332\n      jumpi\n        /* \"@openzeppelin/contracts/token/ERC20/ERC20.sol\":6807:6812  value */\n      dup1\n        /* \"@openzeppelin/contracts/token/ERC20/ERC20.sol\":6791:6803  _totalSupply */\n      0x02\n      0x00\n        /* \"@openzeppelin/contracts/token/ERC20/ERC20.sol\":6791:6812  _totalSupply -= value */\n      dup3\n      dup3\n      sload\n      sub\n      swap3\n      pop\n      pop\n      dup2\n      swap1\n      sstore\n      pop\n        /* \"@openzeppelin/contracts/token/ERC20/ERC20.sol\":6624:7049  if (to == address(0)) {... */\n      jump(tag_333)\n    tag_332:\n        /* \"@openzeppelin/contracts/token/ERC20/ERC20.sol\":7019:7024  value */\n      dup1\n        /* \"@openzeppelin/contracts/token/ERC20/ERC20.sol\":7002:7011  _balances */\n      0x00\n        /* \"@openzeppelin/contracts/token/ERC20/ERC20.sol\":7002:7015  _balances[to] */\n      dup1\n        /* \"@openzeppelin/contracts/token/ERC20/ERC20.sol\":7012:7014  to */\n      dup5\n        /* \"@openzeppelin/contracts/token/ERC20/ERC20.sol\":7002:7015  _balances[to] */\n      0xffffffffffffffffffffffffffffffffffffffff\n      and\n      0xffffffffffffffffffffffffffffffffffffffff\n      and\n      dup2\n      mstore\n      0x20\n      add\n      swap1\n      dup2\n      mstore\n      0x20\n      add\n      0x00\n      keccak256\n      0x00\n        /* \"@openzeppelin/contracts/token/ERC20/ERC20.sol\":7002:7024  _balances[to] += value */\n      dup3\n      dup3\n      sload\n      add\n      swap3\n      pop\n      pop\n      dup2\n      swap1\n      sstore\n      pop\n        /* \"@openzeppelin/contracts/token/ERC20/ERC20.sol\":6624:7049  if (to == address(0)) {... */\n    tag_333:\n        /* \"@openzeppelin/contracts/token/ERC20/ERC20.sol\":7079:7081  to */\n      dup2\n        /* \"@openzeppelin/contracts/token/ERC20/ERC20.sol\":7064:7089  Transfer(from, to, value) */\n      0xffffffffffffffffffffffffffffffffffffffff\n      and\n        /* \"@openzeppelin/contracts/token/ERC20/ERC20.sol\":7073:7077  from */\n      dup4\n        /* \"@openzeppelin/contracts/token/ERC20/ERC20.sol\":7064:7089  Transfer(from, to, value) */\n      0xffffffffffffffffffffffffffffffffffffffff\n      and\n      0xddf252ad1be2c89b69c2b068fc378daa952ba7f163c4a11628f55a4df523b3ef\n        /* \"@openzeppelin/contracts/token/ERC20/ERC20.sol\":7083:7088  value */\n      dup4\n        /* \"@openzeppelin/contracts/token/ERC20/ERC20.sol\":7064:7089  Transfer(from, to, value) */\n      mload(0x40)\n      tag_334\n      swap2\n      swap1\n      tag_43\n      jump\t// in\n    tag_334:\n      mload(0x40)\n      dup1\n      swap2\n      sub\n      swap1\n      log3\n        /* \"@openzeppelin/contracts/token/ERC20/ERC20.sol\":5989:7096  function _update(address from, address to, uint256 value) internal virtual {... */\n      pop\n      pop\n      pop\n      jump\t// out\n        /* \"@openzeppelin/contracts/token/ERC20/ERC20.sol\":9682:10114  function _approve(address owner, address spender, uint256 value, bool emitEvent) internal virtual {... */\n    tag_269:\n        /* \"@openzeppelin/contracts/token/ERC20/ERC20.sol\":9811:9812  0 */\n      0x00\n        /* \"@openzeppelin/contracts/token/ERC20/ERC20.sol\":9794:9813  owner == address(0) */\n      0xffffffffffffffffffffffffffffffffffffffff\n      and\n        /* \"@openzeppelin/contracts/token/ERC20/ERC20.sol\":9794:9799  owner */\n      dup5\n        /* \"@openzeppelin/contracts/token/ERC20/ERC20.sol\":9794:9813  owner == address(0) */\n      0xffffffffffffffffffffffffffffffffffffffff\n      and\n      sub\n        /* \"@openzeppelin/contracts/token/ERC20/ERC20.sol\":9790:9879  if (owner == address(0)) {... */\n      tag_336\n      jumpi\n        /* \"@openzeppelin/contracts/token/ERC20/ERC20.sol\":9865:9866  0 */\n      0x00\n        /* \"@openzeppelin/contracts/token/ERC20/ERC20.sol\":9836:9868  ERC20InvalidApprover(address(0)) */\n      mload(0x40)\n      0xe602df0500000000000000000000000000000000000000000000000000000000\n      dup2\n      mstore\n      0x04\n      add\n      tag_337\n      swap2\n      swap1\n      tag_70\n      jump\t// in\n    tag_337:\n      mload(0x40)\n      dup1\n      swap2\n      sub\n      swap1\n      revert\n        /* \"@openzeppelin/contracts/token/ERC20/ERC20.sol\":9790:9879  if (owner == address(0)) {... */\n    tag_336:\n        /* \"@openzeppelin/contracts/token/ERC20/ERC20.sol\":9911:9912  0 */\n      0x00\n        /* \"@openzeppelin/contracts/token/ERC20/ERC20.sol\":9892:9913  spender == address(0) */\n      0xffffffffffffffffffffffffffffffffffffffff\n      and\n        /* \"@openzeppelin/contracts/token/ERC20/ERC20.sol\":9892:9899  spender */\n      dup4\n        /* \"@openzeppelin/contracts/token/ERC20/ERC20.sol\":9892:9913  spender == address(0) */\n      0xffffffffffffffffffffffffffffffffffffffff\n      and\n      sub\n        /* \"@openzeppelin/contracts/token/ERC20/ERC20.sol\":9888:9978  if (spender == address(0)) {... */\n      tag_338\n      jumpi\n        /* \"@openzeppelin/contracts/token/ERC20/ERC20.sol\":9964:9965  0 */\n      0x00\n        /* \"@openzeppelin/contracts/token/ERC20/ERC20.sol\":9936:9967  ERC20InvalidSpender(address(0)) */\n      mload(0x40)\n      0x94280d6200000000000000000000000000000000000000000000000000000000\n      dup2\n      mstore\n      0x04\n      add\n      tag_339\n      swap2\n      swap1\n      tag_70\n      jump\t// in\n    tag_339:\n      mload(0x40)\n      dup1\n      swap2\n      sub\n      swap1\n      revert\n        /* \"@openzeppelin/contracts/token/ERC20/ERC20.sol\":9888:9978  if (spender == address(0)) {... */\n    tag_338:\n        /* \"@openzeppelin/contracts/token/ERC20/ERC20.sol\":10017:10022  value */\n      dup2\n        /* \"@openzeppelin/contracts/token/ERC20/ERC20.sol\":9987:9998  _allowances */\n      0x01\n        /* \"@openzeppelin/contracts/token/ERC20/ERC20.sol\":9987:10005  _allowances[owner] */\n      0x00\n        /* \"@openzeppelin/contracts/token/ERC20/ERC20.sol\":9999:10004  owner */\n      dup7\n        /* \"@openzeppelin/contracts/token/ERC20/ERC20.sol\":9987:10005  _allowances[owner] */\n      0xffffffffffffffffffffffffffffffffffffffff\n      and\n      0xffffffffffffffffffffffffffffffffffffffff\n      and\n      dup2\n      mstore\n      0x20\n      add\n      swap1\n      dup2\n      mstore\n      0x20\n      add\n      0x00\n      keccak256\n        /* \"@openzeppelin/contracts/token/ERC20/ERC20.sol\":9987:10014  _allowances[owner][spender] */\n      0x00\n        /* \"@openzeppelin/contracts/token/ERC20/ERC20.sol\":10006:10013  spender */\n      dup6\n        /* \"@openzeppelin/contracts/token/ERC20/ERC20.sol\":9987:10014  _allowances[owner][spender] */\n      0xffffffffffffffffffffffffffffffffffffffff\n      and\n      0xffffffffffffffffffffffffffffffffffffffff\n      and\n      dup2\n      mstore\n      0x20\n      add\n      swap1\n      dup2\n      mstore\n      0x20\n      add\n      0x00\n      keccak256\n        /* \"@openzeppelin/contracts/token/ERC20/ERC20.sol\":9987:10022  _allowances[owner][spender] = value */\n      dup2\n      swap1\n      sstore\n      pop\n        /* \"@openzeppelin/contracts/token/ERC20/ERC20.sol\":10036:10045  emitEvent */\n      dup1\n        /* \"@openzeppelin/contracts/token/ERC20/ERC20.sol\":10032:10108  if (emitEvent) {... */\n      iszero\n      tag_340\n      jumpi\n        /* \"@openzeppelin/contracts/token/ERC20/ERC20.sol\":10082:10089  spender */\n      dup3\n        /* \"@openzeppelin/contracts/token/ERC20/ERC20.sol\":10066:10097  Approval(owner, spender, value) */\n      0xffffffffffffffffffffffffffffffffffffffff\n      and\n        /* \"@openzeppelin/contracts/token/ERC20/ERC20.sol\":10075:10080  owner */\n      dup5\n        /* \"@openzeppelin/contracts/token/ERC20/ERC20.sol\":10066:10097  Approval(owner, spender, value) */\n      0xffffffffffffffffffffffffffffffffffffffff\n      and\n      0x8c5be1e5ebec7d5bd14f71427d1e84f3dd0314c0f7b2291e5b200ac8c7c3b925\n        /* \"@openzeppelin/contracts/token/ERC20/ERC20.sol\":10091:10096  value */\n      dup5\n        /* \"@openzeppelin/contracts/token/ERC20/ERC20.sol\":10066:10097  Approval(owner, spender, value) */\n      mload(0x40)\n      tag_341\n      swap2\n      swap1\n      tag_43\n      jump\t// in\n    tag_341:\n      mload(0x40)\n      dup1\n      swap2\n      sub\n      swap1\n      log3\n        /* \"@openzeppelin/contracts/token/ERC20/ERC20.sol\":10032:10108  if (emitEvent) {... */\n    tag_340:\n        /* \"@openzeppelin/contracts/token/ERC20/ERC20.sol\":9682:10114  function _approve(address owner, address spender, uint256 value, bool emitEvent) internal virtual {... */\n      pop\n      pop\n      pop\n      pop\n      jump\t// out\n        /* \"HumAidToken.sol\":4657:5468  function _update(address from, address to, uint256 value) internal override {... */\n    tag_283:\n        /* \"HumAidToken.sol\":4748:4766  _isExcludedFromFee */\n      0x09\n        /* \"HumAidToken.sol\":4748:4772  _isExcludedFromFee[from] */\n      0x00\n        /* \"HumAidToken.sol\":4767:4771  from */\n      dup5\n        /* \"HumAidToken.sol\":4748:4772  _isExcludedFromFee[from] */\n      0xffffffffffffffffffffffffffffffffffffffff\n      and\n      0xffffffffffffffffffffffffffffffffffffffff\n      and\n      dup2\n      mstore\n      0x20\n      add\n      swap1\n      dup2\n      mstore\n      0x20\n      add\n      0x00\n      keccak256\n      0x00\n      swap1\n      sload\n      swap1\n      0x0100\n      exp\n      swap1\n      div\n      0xff\n      and\n        /* \"HumAidToken.sol\":4748:4798  _isExcludedFromFee[from] || _isExcludedFromFee[to] */\n      dup1\n      tag_343\n      jumpi\n      pop\n        /* \"HumAidToken.sol\":4776:4794  _isExcludedFromFee */\n      0x09\n        /* \"HumAidToken.sol\":4776:4798  _isExcludedFromFee[to] */\n      0x00\n        /* \"HumAidToken.sol\":4795:4797  to */\n      dup4\n        /* \"HumAidToken.sol\":4776:4798  _isExcludedFromFee[to] */\n      0xffffffffffffffffffffffffffffffffffffffff\n      and\n      0xffffffffffffffffffffffffffffffffffffffff\n      and\n      dup2\n      mstore\n      0x20\n      add\n      swap1\n      dup2\n      mstore\n      0x20\n      add\n      0x00\n      keccak256\n      0x00\n      swap1\n      sload\n      swap1\n      0x0100\n      exp\n      swap1\n      div\n      0xff\n      and\n        /* \"HumAidToken.sol\":4748:4798  _isExcludedFromFee[from] || _isExcludedFromFee[to] */\n    tag_343:\n        /* \"HumAidToken.sol\":4748:4817  _isExcludedFromFee[from] || _isExcludedFromFee[to] || feePercent == 0 */\n      dup1\n      tag_344\n      jumpi\n      pop\n        /* \"HumAidToken.sol\":4816:4817  0 */\n      0x00\n        /* \"HumAidToken.sol\":4802:4812  feePercent */\n      sload(0x06)\n        /* \"HumAidToken.sol\":4802:4817  feePercent == 0 */\n      eq\n        /* \"HumAidToken.sol\":4748:4817  _isExcludedFromFee[from] || _isExcludedFromFee[to] || feePercent == 0 */\n    tag_344:\n        /* \"HumAidToken.sol\":4744:5461  if (_isExcludedFromFee[from] || _isExcludedFromFee[to] || feePercent == 0) {... */\n      iszero\n      tag_345\n      jumpi\n        /* \"HumAidToken.sol\":4834:4864  super._update(from, to, value) */\n      tag_346\n        /* \"HumAidToken.sol\":4848:4852  from */\n      dup4\n        /* \"HumAidToken.sol\":4854:4856  to */\n      dup4\n        /* \"HumAidToken.sol\":4858:4863  value */\n      dup4\n        /* \"HumAidToken.sol\":4834:4847  super._update */\n      tag_264\n        /* \"HumAidToken.sol\":4834:4864  super._update(from, to, value) */\n      jump\t// in\n    tag_346:\n        /* \"HumAidToken.sol\":4744:5461  if (_isExcludedFromFee[from] || _isExcludedFromFee[to] || feePercent == 0) {... */\n      jump(tag_347)\n    tag_345:\n        /* \"HumAidToken.sol\":4897:4908  uint256 fee */\n      0x00\n        /* \"HumAidToken.sol\":4934:4938  1000 */\n      0x03e8\n        /* \"HumAidToken.sol\":4920:4930  feePercent */\n      sload(0x06)\n        /* \"HumAidToken.sol\":4912:4917  value */\n      dup4\n        /* \"HumAidToken.sol\":4912:4930  value * feePercent */\n      tag_348\n      swap2\n      swap1\n      tag_349\n      jump\t// in\n    tag_348:\n        /* \"HumAidToken.sol\":4911:4938  (value * feePercent) / 1000 */\n      tag_350\n      swap2\n      swap1\n      tag_253\n      jump\t// in\n    tag_350:\n        /* \"HumAidToken.sol\":4897:4938  uint256 fee = (value * feePercent) / 1000 */\n      swap1\n      pop\n        /* \"HumAidToken.sol\":4953:4975  uint256 amountAfterFee */\n      0x00\n        /* \"HumAidToken.sol\":4986:4989  fee */\n      dup2\n        /* \"HumAidToken.sol\":4978:4983  value */\n      dup4\n        /* \"HumAidToken.sol\":4978:4989  value - fee */\n      tag_351\n      swap2\n      swap1\n      tag_352\n      jump\t// in\n    tag_351:\n        /* \"HumAidToken.sol\":4953:4989  uint256 amountAfterFee = value - fee */\n      swap1\n      pop\n        /* \"HumAidToken.sol\":5004:5017  uint256 share */\n      0x00\n        /* \"HumAidToken.sol\":5041:5042  0 */\n      dup1\n        /* \"HumAidToken.sol\":5020:5030  ngoWallets */\n      0x08\n        /* \"HumAidToken.sol\":5020:5037  ngoWallets.length */\n      dup1\n      sload\n      swap1\n      pop\n        /* \"HumAidToken.sol\":5020:5042  ngoWallets.length != 0 */\n      sub\n        /* \"HumAidToken.sol\":5020:5072  ngoWallets.length != 0 ? fee / ngoWallets.length : 1 */\n      tag_353\n      jumpi\n        /* \"HumAidToken.sol\":5071:5072  1 */\n      0x01\n        /* \"HumAidToken.sol\":5020:5072  ngoWallets.length != 0 ? fee / ngoWallets.length : 1 */\n      jump(tag_354)\n    tag_353:\n        /* \"HumAidToken.sol\":5051:5061  ngoWallets */\n      0x08\n        /* \"HumAidToken.sol\":5051:5068  ngoWallets.length */\n      dup1\n      sload\n      swap1\n      pop\n        /* \"HumAidToken.sol\":5045:5048  fee */\n      dup4\n        /* \"HumAidToken.sol\":5045:5068  fee / ngoWallets.length */\n      tag_355\n      swap2\n      swap1\n      tag_253\n      jump\t// in\n    tag_355:\n        /* \"HumAidToken.sol\":5020:5072  ngoWallets.length != 0 ? fee / ngoWallets.length : 1 */\n    tag_354:\n        /* \"HumAidToken.sol\":5004:5072  uint256 share = ngoWallets.length != 0 ? fee / ngoWallets.length : 1 */\n      swap1\n      pop\n        /* \"HumAidToken.sol\":5087:5104  uint256 remainder */\n      0x00\n        /* \"HumAidToken.sol\":5122:5132  ngoWallets */\n      0x08\n        /* \"HumAidToken.sol\":5122:5139  ngoWallets.length */\n      dup1\n      sload\n      swap1\n      pop\n        /* \"HumAidToken.sol\":5114:5119  share */\n      dup3\n        /* \"HumAidToken.sol\":5114:5139  share * ngoWallets.length */\n      tag_356\n      swap2\n      swap1\n      tag_349\n      jump\t// in\n    tag_356:\n        /* \"HumAidToken.sol\":5107:5110  fee */\n      dup5\n        /* \"HumAidToken.sol\":5107:5140  fee - (share * ngoWallets.length) */\n      tag_357\n      swap2\n      swap1\n      tag_352\n      jump\t// in\n    tag_357:\n        /* \"HumAidToken.sol\":5087:5140  uint256 remainder = fee - (share * ngoWallets.length) */\n      swap1\n      pop\n        /* \"HumAidToken.sol\":5162:5168  uint i */\n      0x00\n        /* \"HumAidToken.sol\":5157:5278  for (uint i = 0; i < ngoWallets.length; ++i) {... */\n    tag_358:\n        /* \"HumAidToken.sol\":5178:5188  ngoWallets */\n      0x08\n        /* \"HumAidToken.sol\":5178:5195  ngoWallets.length */\n      dup1\n      sload\n      swap1\n      pop\n        /* \"HumAidToken.sol\":5174:5175  i */\n      dup2\n        /* \"HumAidToken.sol\":5174:5195  i < ngoWallets.length */\n      lt\n        /* \"HumAidToken.sol\":5157:5278  for (uint i = 0; i < ngoWallets.length; ++i) {... */\n      iszero\n      tag_359\n      jumpi\n        /* \"HumAidToken.sol\":5221:5262  super._update(from, ngoWallets[i], share) */\n      tag_361\n        /* \"HumAidToken.sol\":5235:5239  from */\n      dup9\n        /* \"HumAidToken.sol\":5241:5251  ngoWallets */\n      0x08\n        /* \"HumAidToken.sol\":5252:5253  i */\n      dup4\n        /* \"HumAidToken.sol\":5241:5254  ngoWallets[i] */\n      dup2\n      sload\n      dup2\n      lt\n      tag_362\n      jumpi\n      tag_363\n      tag_155\n      jump\t// in\n    tag_363:\n    tag_362:\n      swap1\n      0x00\n      mstore\n      keccak256(0x00, 0x20)\n      add\n      0x00\n      swap1\n      sload\n      swap1\n      0x0100\n      exp\n      swap1\n      div\n      0xffffffffffffffffffffffffffffffffffffffff\n      and\n        /* \"HumAidToken.sol\":5256:5261  share */\n      dup6\n        /* \"HumAidToken.sol\":5221:5234  super._update */\n      tag_264\n        /* \"HumAidToken.sol\":5221:5262  super._update(from, ngoWallets[i], share) */\n      jump\t// in\n    tag_361:\n        /* \"HumAidToken.sol\":5197:5200  ++i */\n      dup1\n      tag_365\n      swap1\n      tag_161\n      jump\t// in\n    tag_365:\n      swap1\n      pop\n        /* \"HumAidToken.sol\":5157:5278  for (uint i = 0; i < ngoWallets.length; ++i) {... */\n      jump(tag_358)\n    tag_359:\n      pop\n        /* \"HumAidToken.sol\":5310:5311  0 */\n      0x00\n        /* \"HumAidToken.sol\":5298:5307  remainder */\n      dup2\n        /* \"HumAidToken.sol\":5298:5311  remainder > 0 */\n      gt\n        /* \"HumAidToken.sol\":5294:5394  if (remainder > 0) {... */\n      iszero\n      tag_366\n      jumpi\n        /* \"HumAidToken.sol\":5332:5378  super._update(from, treasuryWallet, remainder) */\n      tag_367\n        /* \"HumAidToken.sol\":5346:5350  from */\n      dup8\n        /* \"HumAidToken.sol\":5352:5366  treasuryWallet */\n      0x0a\n      0x00\n      swap1\n      sload\n      swap1\n      0x0100\n      exp\n      swap1\n      div\n      0xffffffffffffffffffffffffffffffffffffffff\n      and\n        /* \"HumAidToken.sol\":5368:5377  remainder */\n      dup4\n        /* \"HumAidToken.sol\":5332:5345  super._update */\n      tag_264\n        /* \"HumAidToken.sol\":5332:5378  super._update(from, treasuryWallet, remainder) */\n      jump\t// in\n    tag_367:\n        /* \"HumAidToken.sol\":5294:5394  if (remainder > 0) {... */\n    tag_366:\n        /* \"HumAidToken.sol\":5410:5449  super._update(from, to, amountAfterFee) */\n      tag_368\n        /* \"HumAidToken.sol\":5424:5428  from */\n      dup8\n        /* \"HumAidToken.sol\":5430:5432  to */\n      dup8\n        /* \"HumAidToken.sol\":5434:5448  amountAfterFee */\n      dup6\n        /* \"HumAidToken.sol\":5410:5423  super._update */\n      tag_264\n        /* \"HumAidToken.sol\":5410:5449  super._update(from, to, amountAfterFee) */\n      jump\t// in\n    tag_368:\n        /* \"HumAidToken.sol\":4882:5461  {... */\n      pop\n      pop\n      pop\n      pop\n        /* \"HumAidToken.sol\":4744:5461  if (_isExcludedFromFee[from] || _isExcludedFromFee[to] || feePercent == 0) {... */\n    tag_347:\n        /* \"HumAidToken.sol\":4657:5468  function _update(address from, address to, uint256 value) internal override {... */\n      pop\n      pop\n      pop\n      jump\t// out\n        /* \"HumAidToken.sol\":1067:1164  function pushToNGOWallets(address _address) private { ... */\n    tag_305:\n        /* \"HumAidToken.sol\":1131:1141  ngoWallets */\n      0x08\n        /* \"HumAidToken.sol\":1147:1155  _address */\n      dup2\n        /* \"HumAidToken.sol\":1131:1156  ngoWallets.push(_address) */\n      swap1\n      dup1\n      0x01\n      dup2\n      sload\n      add\n      dup1\n      dup3\n      sstore\n      dup1\n      swap2\n      pop\n      pop\n      0x01\n      swap1\n      sub\n      swap1\n      0x00\n      mstore\n      keccak256(0x00, 0x20)\n      add\n      0x00\n      swap1\n      swap2\n      swap1\n      swap2\n      swap1\n      swap2\n      0x0100\n      exp\n      dup2\n      sload\n      dup2\n      0xffffffffffffffffffffffffffffffffffffffff\n      mul\n      not\n      and\n      swap1\n      dup4\n      0xffffffffffffffffffffffffffffffffffffffff\n      and\n      mul\n      or\n      swap1\n      sstore\n      pop\n        /* \"HumAidToken.sol\":1067:1164  function pushToNGOWallets(address _address) private { ... */\n      pop\n      jump\t// out\n        /* \"HumAidToken.sol\":1172:1323  function popFromNGOWallets(uint32 _index) private { ... */\n    tag_322:\n        /* \"HumAidToken.sol\":1255:1265  ngoWallets */\n      0x08\n        /* \"HumAidToken.sol\":1286:1287  1 */\n      0x01\n        /* \"HumAidToken.sol\":1266:1276  ngoWallets */\n      0x08\n        /* \"HumAidToken.sol\":1266:1283  ngoWallets.length */\n      dup1\n      sload\n      swap1\n      pop\n        /* \"HumAidToken.sol\":1266:1287  ngoWallets.length - 1 */\n      tag_372\n      swap2\n      swap1\n      tag_352\n      jump\t// in\n    tag_372:\n        /* \"HumAidToken.sol\":1255:1288  ngoWallets[ngoWallets.length - 1] */\n      dup2\n      sload\n      dup2\n      lt\n      tag_373\n      jumpi\n      tag_374\n      tag_155\n      jump\t// in\n    tag_374:\n    tag_373:\n      swap1\n      0x00\n      mstore\n      keccak256(0x00, 0x20)\n      add\n      0x00\n      swap1\n      sload\n      swap1\n      0x0100\n      exp\n      swap1\n      div\n      0xffffffffffffffffffffffffffffffffffffffff\n      and\n        /* \"HumAidToken.sol\":1234:1244  ngoWallets */\n      0x08\n        /* \"HumAidToken.sol\":1245:1251  _index */\n      dup3\n        /* \"HumAidToken.sol\":1234:1252  ngoWallets[_index] */\n      0xffffffff\n      and\n      dup2\n      sload\n      dup2\n      lt\n      tag_376\n      jumpi\n      tag_377\n      tag_155\n      jump\t// in\n    tag_377:\n    tag_376:\n      swap1\n      0x00\n      mstore\n      keccak256(0x00, 0x20)\n      add\n      0x00\n        /* \"HumAidToken.sol\":1234:1288  ngoWallets[_index] = ngoWallets[ngoWallets.length - 1] */\n      0x0100\n      exp\n      dup2\n      sload\n      dup2\n      0xffffffffffffffffffffffffffffffffffffffff\n      mul\n      not\n      and\n      swap1\n      dup4\n      0xffffffffffffffffffffffffffffffffffffffff\n      and\n      mul\n      or\n      swap1\n      sstore\n      pop\n        /* \"HumAidToken.sol\":1299:1309  ngoWallets */\n      0x08\n        /* \"HumAidToken.sol\":1299:1315  ngoWallets.pop() */\n      dup1\n      sload\n      dup1\n      tag_379\n      jumpi\n      tag_380\n      tag_381\n      jump\t// in\n    tag_380:\n    tag_379:\n      0x01\n      swap1\n      sub\n      dup2\n      dup2\n      swap1\n      0x00\n      mstore\n      keccak256(0x00, 0x20)\n      add\n      exp(0x0100, 0x00)\n      dup2\n      sload\n      swap1\n      0xffffffffffffffffffffffffffffffffffffffff\n      mul\n      not\n      and\n      swap1\n      sstore\n      swap1\n      sstore\n        /* \"HumAidToken.sol\":1172:1323  function popFromNGOWallets(uint32 _index) private { ... */\n      pop\n      jump\t// out\n    tag_225:\n      pop\n      dup1\n      sload\n      tag_383\n      swap1\n      tag_125\n      jump\t// in\n    tag_383:\n      0x00\n      dup3\n      sstore\n      dup1\n      0x1f\n      lt\n      tag_385\n      jumpi\n      pop\n      jump(tag_384)\n    tag_385:\n      0x1f\n      add\n      0x20\n      swap1\n      div\n      swap1\n      0x00\n      mstore\n      keccak256(0x00, 0x20)\n      swap1\n      dup2\n      add\n      swap1\n      tag_386\n      swap2\n      swap1\n      tag_387\n      jump\t// in\n    tag_386:\n    tag_384:\n      pop\n      jump\t// out\n    tag_387:\n    tag_388:\n      dup1\n      dup3\n      gt\n      iszero\n      tag_389\n      jumpi\n      0x00\n      dup2\n      0x00\n      swap1\n      sstore\n      pop\n      0x01\n      add\n      jump(tag_388)\n    tag_389:\n      pop\n      swap1\n      jump\t// out\n        /* \"#utility.yul\":7:106   */\n    tag_390:\n        /* \"#utility.yul\":59:65   */\n      0x00\n        /* \"#utility.yul\":93:98   */\n      dup2\n        /* \"#utility.yul\":87:99   */\n      mload\n        /* \"#utility.yul\":77:99   */\n      swap1\n      pop\n        /* \"#utility.yul\":7:106   */\n      swap2\n      swap1\n      pop\n      jump\t// out\n        /* \"#utility.yul\":112:281   */\n    tag_391:\n        /* \"#utility.yul\":196:207   */\n      0x00\n        /* \"#utility.yul\":230:236   */\n      dup3\n        /* \"#utility.yul\":225:228   */\n      dup3\n        /* \"#utility.yul\":218:237   */\n      mstore\n        /* \"#utility.yul\":270:274   */\n      0x20\n        /* \"#utility.yul\":265:268   */\n      dup3\n        /* \"#utility.yul\":261:275   */\n      add\n        /* \"#utility.yul\":246:275   */\n      swap1\n      pop\n        /* \"#utility.yul\":112:281   */\n      swap3\n      swap2\n      pop\n      pop\n      jump\t// out\n        /* \"#utility.yul\":287:533   */\n    tag_392:\n        /* \"#utility.yul\":368:369   */\n      0x00\n        /* \"#utility.yul\":378:491   */\n    tag_464:\n        /* \"#utility.yul\":392:398   */\n      dup4\n        /* \"#utility.yul\":389:390   */\n      dup2\n        /* \"#utility.yul\":386:399   */\n      lt\n        /* \"#utility.yul\":378:491   */\n      iszero\n      tag_466\n      jumpi\n        /* \"#utility.yul\":477:478   */\n      dup1\n        /* \"#utility.yul\":472:475   */\n      dup3\n        /* \"#utility.yul\":468:479   */\n      add\n        /* \"#utility.yul\":462:480   */\n      mload\n        /* \"#utility.yul\":458:459   */\n      dup2\n        /* \"#utility.yul\":453:456   */\n      dup5\n        /* \"#utility.yul\":449:460   */\n      add\n        /* \"#utility.yul\":442:481   */\n      mstore\n        /* \"#utility.yul\":414:416   */\n      0x20\n        /* \"#utility.yul\":411:412   */\n      dup2\n        /* \"#utility.yul\":407:417   */\n      add\n        /* \"#utility.yul\":402:417   */\n      swap1\n      pop\n        /* \"#utility.yul\":378:491   */\n      jump(tag_464)\n    tag_466:\n        /* \"#utility.yul\":525:526   */\n      0x00\n        /* \"#utility.yul\":516:522   */\n      dup5\n        /* \"#utility.yul\":511:514   */\n      dup5\n        /* \"#utility.yul\":507:523   */\n      add\n        /* \"#utility.yul\":500:527   */\n      mstore\n        /* \"#utility.yul\":349:533   */\n      pop\n        /* \"#utility.yul\":287:533   */\n      pop\n      pop\n      pop\n      jump\t// out\n        /* \"#utility.yul\":539:641   */\n    tag_393:\n        /* \"#utility.yul\":580:586   */\n      0x00\n        /* \"#utility.yul\":631:633   */\n      0x1f\n        /* \"#utility.yul\":627:634   */\n      not\n        /* \"#utility.yul\":622:624   */\n      0x1f\n        /* \"#utility.yul\":615:620   */\n      dup4\n        /* \"#utility.yul\":611:625   */\n      add\n        /* \"#utility.yul\":607:635   */\n      and\n        /* \"#utility.yul\":597:635   */\n      swap1\n      pop\n        /* \"#utility.yul\":539:641   */\n      swap2\n      swap1\n      pop\n      jump\t// out\n        /* \"#utility.yul\":647:1024   */\n    tag_394:\n        /* \"#utility.yul\":735:738   */\n      0x00\n        /* \"#utility.yul\":763:802   */\n      tag_469\n        /* \"#utility.yul\":796:801   */\n      dup3\n        /* \"#utility.yul\":763:802   */\n      tag_390\n      jump\t// in\n    tag_469:\n        /* \"#utility.yul\":818:889   */\n      tag_470\n        /* \"#utility.yul\":882:888   */\n      dup2\n        /* \"#utility.yul\":877:880   */\n      dup6\n        /* \"#utility.yul\":818:889   */\n      tag_391\n      jump\t// in\n    tag_470:\n        /* \"#utility.yul\":811:889   */\n      swap4\n      pop\n        /* \"#utility.yul\":898:963   */\n      tag_471\n        /* \"#utility.yul\":956:962   */\n      dup2\n        /* \"#utility.yul\":951:954   */\n      dup6\n        /* \"#utility.yul\":944:948   */\n      0x20\n        /* \"#utility.yul\":937:942   */\n      dup7\n        /* \"#utility.yul\":933:949   */\n      add\n        /* \"#utility.yul\":898:963   */\n      tag_392\n      jump\t// in\n    tag_471:\n        /* \"#utility.yul\":988:1017   */\n      tag_472\n        /* \"#utility.yul\":1010:1016   */\n      dup2\n        /* \"#utility.yul\":988:1017   */\n      tag_393\n      jump\t// in\n    tag_472:\n        /* \"#utility.yul\":983:986   */\n      dup5\n        /* \"#utility.yul\":979:1018   */\n      add\n        /* \"#utility.yul\":972:1018   */\n      swap2\n      pop\n        /* \"#utility.yul\":739:1024   */\n      pop\n        /* \"#utility.yul\":647:1024   */\n      swap3\n      swap2\n      pop\n      pop\n      jump\t// out\n        /* \"#utility.yul\":1030:1343   */\n    tag_33:\n        /* \"#utility.yul\":1143:1147   */\n      0x00\n        /* \"#utility.yul\":1181:1183   */\n      0x20\n        /* \"#utility.yul\":1170:1179   */\n      dup3\n        /* \"#utility.yul\":1166:1184   */\n      add\n        /* \"#utility.yul\":1158:1184   */\n      swap1\n      pop\n        /* \"#utility.yul\":1230:1239   */\n      dup2\n        /* \"#utility.yul\":1224:1228   */\n      dup2\n        /* \"#utility.yul\":1220:1240   */\n      sub\n        /* \"#utility.yul\":1216:1217   */\n      0x00\n        /* \"#utility.yul\":1205:1214   */\n      dup4\n        /* \"#utility.yul\":1201:1218   */\n      add\n        /* \"#utility.yul\":1194:1241   */\n      mstore\n        /* \"#utility.yul\":1258:1336   */\n      tag_474\n        /* \"#utility.yul\":1331:1335   */\n      dup2\n        /* \"#utility.yul\":1322:1328   */\n      dup5\n        /* \"#utility.yul\":1258:1336   */\n      tag_394\n      jump\t// in\n    tag_474:\n        /* \"#utility.yul\":1250:1336   */\n      swap1\n      pop\n        /* \"#utility.yul\":1030:1343   */\n      swap3\n      swap2\n      pop\n      pop\n      jump\t// out\n        /* \"#utility.yul\":1349:1424   */\n    tag_395:\n        /* \"#utility.yul\":1382:1388   */\n      0x00\n        /* \"#utility.yul\":1415:1417   */\n      0x40\n        /* \"#utility.yul\":1409:1418   */\n      mload\n        /* \"#utility.yul\":1399:1418   */\n      swap1\n      pop\n        /* \"#utility.yul\":1349:1424   */\n      swap1\n      jump\t// out\n        /* \"#utility.yul\":1430:1547   */\n    tag_396:\n        /* \"#utility.yul\":1539:1540   */\n      0x00\n        /* \"#utility.yul\":1536:1537   */\n      dup1\n        /* \"#utility.yul\":1529:1541   */\n      revert\n        /* \"#utility.yul\":1553:1670   */\n    tag_397:\n        /* \"#utility.yul\":1662:1663   */\n      0x00\n        /* \"#utility.yul\":1659:1660   */\n      dup1\n        /* \"#utility.yul\":1652:1664   */\n      revert\n        /* \"#utility.yul\":1676:1802   */\n    tag_398:\n        /* \"#utility.yul\":1713:1720   */\n      0x00\n        /* \"#utility.yul\":1753:1795   */\n      0xffffffffffffffffffffffffffffffffffffffff\n        /* \"#utility.yul\":1746:1751   */\n      dup3\n        /* \"#utility.yul\":1742:1796   */\n      and\n        /* \"#utility.yul\":1731:1796   */\n      swap1\n      pop\n        /* \"#utility.yul\":1676:1802   */\n      swap2\n      swap1\n      pop\n      jump\t// out\n        /* \"#utility.yul\":1808:1904   */\n    tag_399:\n        /* \"#utility.yul\":1845:1852   */\n      0x00\n        /* \"#utility.yul\":1874:1898   */\n      tag_480\n        /* \"#utility.yul\":1892:1897   */\n      dup3\n        /* \"#utility.yul\":1874:1898   */\n      tag_398\n      jump\t// in\n    tag_480:\n        /* \"#utility.yul\":1863:1898   */\n      swap1\n      pop\n        /* \"#utility.yul\":1808:1904   */\n      swap2\n      swap1\n      pop\n      jump\t// out\n        /* \"#utility.yul\":1910:2032   */\n    tag_400:\n        /* \"#utility.yul\":1983:2007   */\n      tag_482\n        /* \"#utility.yul\":2001:2006   */\n      dup2\n        /* \"#utility.yul\":1983:2007   */\n      tag_399\n      jump\t// in\n    tag_482:\n        /* \"#utility.yul\":1976:1981   */\n      dup2\n        /* \"#utility.yul\":1973:2008   */\n      eq\n        /* \"#utility.yul\":1963:2026   */\n      tag_483\n      jumpi\n        /* \"#utility.yul\":2022:2023   */\n      0x00\n        /* \"#utility.yul\":2019:2020   */\n      dup1\n        /* \"#utility.yul\":2012:2024   */\n      revert\n        /* \"#utility.yul\":1963:2026   */\n    tag_483:\n        /* \"#utility.yul\":1910:2032   */\n      pop\n      jump\t// out\n        /* \"#utility.yul\":2038:2177   */\n    tag_401:\n        /* \"#utility.yul\":2084:2089   */\n      0x00\n        /* \"#utility.yul\":2122:2128   */\n      dup2\n        /* \"#utility.yul\":2109:2129   */\n      calldataload\n        /* \"#utility.yul\":2100:2129   */\n      swap1\n      pop\n        /* \"#utility.yul\":2138:2171   */\n      tag_485\n        /* \"#utility.yul\":2165:2170   */\n      dup2\n        /* \"#utility.yul\":2138:2171   */\n      tag_400\n      jump\t// in\n    tag_485:\n        /* \"#utility.yul\":2038:2177   */\n      swap3\n      swap2\n      pop\n      pop\n      jump\t// out\n        /* \"#utility.yul\":2183:2260   */\n    tag_402:\n        /* \"#utility.yul\":2220:2227   */\n      0x00\n        /* \"#utility.yul\":2249:2254   */\n      dup2\n        /* \"#utility.yul\":2238:2254   */\n      swap1\n      pop\n        /* \"#utility.yul\":2183:2260   */\n      swap2\n      swap1\n      pop\n      jump\t// out\n        /* \"#utility.yul\":2266:2388   */\n    tag_403:\n        /* \"#utility.yul\":2339:2363   */\n      tag_488\n        /* \"#utility.yul\":2357:2362   */\n      dup2\n        /* \"#utility.yul\":2339:2363   */\n      tag_402\n      jump\t// in\n    tag_488:\n        /* \"#utility.yul\":2332:2337   */\n      dup2\n        /* \"#utility.yul\":2329:2364   */\n      eq\n        /* \"#utility.yul\":2319:2382   */\n      tag_489\n      jumpi\n        /* \"#utility.yul\":2378:2379   */\n      0x00\n        /* \"#utility.yul\":2375:2376   */\n      dup1\n        /* \"#utility.yul\":2368:2380   */\n      revert\n        /* \"#utility.yul\":2319:2382   */\n    tag_489:\n        /* \"#utility.yul\":2266:2388   */\n      pop\n      jump\t// out\n        /* \"#utility.yul\":2394:2533   */\n    tag_404:\n        /* \"#utility.yul\":2440:2445   */\n      0x00\n        /* \"#utility.yul\":2478:2484   */\n      dup2\n        /* \"#utility.yul\":2465:2485   */\n      calldataload\n        /* \"#utility.yul\":2456:2485   */\n      swap1\n      pop\n        /* \"#utility.yul\":2494:2527   */\n      tag_491\n        /* \"#utility.yul\":2521:2526   */\n      dup2\n        /* \"#utility.yul\":2494:2527   */\n      tag_403\n      jump\t// in\n    tag_491:\n        /* \"#utility.yul\":2394:2533   */\n      swap3\n      swap2\n      pop\n      pop\n      jump\t// out\n        /* \"#utility.yul\":2539:3013   */\n    tag_36:\n        /* \"#utility.yul\":2607:2613   */\n      0x00\n        /* \"#utility.yul\":2615:2621   */\n      dup1\n        /* \"#utility.yul\":2664:2666   */\n      0x40\n        /* \"#utility.yul\":2652:2661   */\n      dup4\n        /* \"#utility.yul\":2643:2650   */\n      dup6\n        /* \"#utility.yul\":2639:2662   */\n      sub\n        /* \"#utility.yul\":2635:2667   */\n      slt\n        /* \"#utility.yul\":2632:2751   */\n      iszero\n      tag_493\n      jumpi\n        /* \"#utility.yul\":2670:2749   */\n      tag_494\n      tag_396\n      jump\t// in\n    tag_494:\n        /* \"#utility.yul\":2632:2751   */\n    tag_493:\n        /* \"#utility.yul\":2790:2791   */\n      0x00\n        /* \"#utility.yul\":2815:2868   */\n      tag_495\n        /* \"#utility.yul\":2860:2867   */\n      dup6\n        /* \"#utility.yul\":2851:2857   */\n      dup3\n        /* \"#utility.yul\":2840:2849   */\n      dup7\n        /* \"#utility.yul\":2836:2858   */\n      add\n        /* \"#utility.yul\":2815:2868   */\n      tag_401\n      jump\t// in\n    tag_495:\n        /* \"#utility.yul\":2805:2868   */\n      swap3\n      pop\n        /* \"#utility.yul\":2761:2878   */\n      pop\n        /* \"#utility.yul\":2917:2919   */\n      0x20\n        /* \"#utility.yul\":2943:2996   */\n      tag_496\n        /* \"#utility.yul\":2988:2995   */\n      dup6\n        /* \"#utility.yul\":2979:2985   */\n      dup3\n        /* \"#utility.yul\":2968:2977   */\n      dup7\n        /* \"#utility.yul\":2964:2986   */\n      add\n        /* \"#utility.yul\":2943:2996   */\n      tag_404\n      jump\t// in\n    tag_496:\n        /* \"#utility.yul\":2933:2996   */\n      swap2\n      pop\n        /* \"#utility.yul\":2888:3006   */\n      pop\n        /* \"#utility.yul\":2539:3013   */\n      swap3\n      pop\n      swap3\n      swap1\n      pop\n      jump\t// out\n        /* \"#utility.yul\":3019:3109   */\n    tag_405:\n        /* \"#utility.yul\":3053:3060   */\n      0x00\n        /* \"#utility.yul\":3096:3101   */\n      dup2\n        /* \"#utility.yul\":3089:3102   */\n      iszero\n        /* \"#utility.yul\":3082:3103   */\n      iszero\n        /* \"#utility.yul\":3071:3103   */\n      swap1\n      pop\n        /* \"#utility.yul\":3019:3109   */\n      swap2\n      swap1\n      pop\n      jump\t// out\n        /* \"#utility.yul\":3115:3224   */\n    tag_406:\n        /* \"#utility.yul\":3196:3217   */\n      tag_499\n        /* \"#utility.yul\":3211:3216   */\n      dup2\n        /* \"#utility.yul\":3196:3217   */\n      tag_405\n      jump\t// in\n    tag_499:\n        /* \"#utility.yul\":3191:3194   */\n      dup3\n        /* \"#utility.yul\":3184:3218   */\n      mstore\n        /* \"#utility.yul\":3115:3224   */\n      pop\n      pop\n      jump\t// out\n        /* \"#utility.yul\":3230:3440   */\n    tag_39:\n        /* \"#utility.yul\":3317:3321   */\n      0x00\n        /* \"#utility.yul\":3355:3357   */\n      0x20\n        /* \"#utility.yul\":3344:3353   */\n      dup3\n        /* \"#utility.yul\":3340:3358   */\n      add\n        /* \"#utility.yul\":3332:3358   */\n      swap1\n      pop\n        /* \"#utility.yul\":3368:3433   */\n      tag_501\n        /* \"#utility.yul\":3430:3431   */\n      0x00\n        /* \"#utility.yul\":3419:3428   */\n      dup4\n        /* \"#utility.yul\":3415:3432   */\n      add\n        /* \"#utility.yul\":3406:3412   */\n      dup5\n        /* \"#utility.yul\":3368:3433   */\n      tag_406\n      jump\t// in\n    tag_501:\n        /* \"#utility.yul\":3230:3440   */\n      swap3\n      swap2\n      pop\n      pop\n      jump\t// out\n        /* \"#utility.yul\":3446:3564   */\n    tag_407:\n        /* \"#utility.yul\":3533:3557   */\n      tag_503\n        /* \"#utility.yul\":3551:3556   */\n      dup2\n        /* \"#utility.yul\":3533:3557   */\n      tag_402\n      jump\t// in\n    tag_503:\n        /* \"#utility.yul\":3528:3531   */\n      dup3\n        /* \"#utility.yul\":3521:3558   */\n      mstore\n        /* \"#utility.yul\":3446:3564   */\n      pop\n      pop\n      jump\t// out\n        /* \"#utility.yul\":3570:3792   */\n    tag_43:\n        /* \"#utility.yul\":3663:3667   */\n      0x00\n        /* \"#utility.yul\":3701:3703   */\n      0x20\n        /* \"#utility.yul\":3690:3699   */\n      dup3\n        /* \"#utility.yul\":3686:3704   */\n      add\n        /* \"#utility.yul\":3678:3704   */\n      swap1\n      pop\n        /* \"#utility.yul\":3714:3785   */\n      tag_505\n        /* \"#utility.yul\":3782:3783   */\n      0x00\n        /* \"#utility.yul\":3771:3780   */\n      dup4\n        /* \"#utility.yul\":3767:3784   */\n      add\n        /* \"#utility.yul\":3758:3764   */\n      dup5\n        /* \"#utility.yul\":3714:3785   */\n      tag_407\n      jump\t// in\n    tag_505:\n        /* \"#utility.yul\":3570:3792   */\n      swap3\n      swap2\n      pop\n      pop\n      jump\t// out\n        /* \"#utility.yul\":3798:4417   */\n    tag_46:\n        /* \"#utility.yul\":3875:3881   */\n      0x00\n        /* \"#utility.yul\":3883:3889   */\n      dup1\n        /* \"#utility.yul\":3891:3897   */\n      0x00\n        /* \"#utility.yul\":3940:3942   */\n      0x60\n        /* \"#utility.yul\":3928:3937   */\n      dup5\n        /* \"#utility.yul\":3919:3926   */\n      dup7\n        /* \"#utility.yul\":3915:3938   */\n      sub\n        /* \"#utility.yul\":3911:3943   */\n      slt\n        /* \"#utility.yul\":3908:4027   */\n      iszero\n      tag_507\n      jumpi\n        /* \"#utility.yul\":3946:4025   */\n      tag_508\n      tag_396\n      jump\t// in\n    tag_508:\n        /* \"#utility.yul\":3908:4027   */\n    tag_507:\n        /* \"#utility.yul\":4066:4067   */\n      0x00\n        /* \"#utility.yul\":4091:4144   */\n      tag_509\n        /* \"#utility.yul\":4136:4143   */\n      dup7\n        /* \"#utility.yul\":4127:4133   */\n      dup3\n        /* \"#utility.yul\":4116:4125   */\n      dup8\n        /* \"#utility.yul\":4112:4134   */\n      add\n        /* \"#utility.yul\":4091:4144   */\n      tag_401\n      jump\t// in\n    tag_509:\n        /* \"#utility.yul\":4081:4144   */\n      swap4\n      pop\n        /* \"#utility.yul\":4037:4154   */\n      pop\n        /* \"#utility.yul\":4193:4195   */\n      0x20\n        /* \"#utility.yul\":4219:4272   */\n      tag_510\n        /* \"#utility.yul\":4264:4271   */\n      dup7\n        /* \"#utility.yul\":4255:4261   */\n      dup3\n        /* \"#utility.yul\":4244:4253   */\n      dup8\n        /* \"#utility.yul\":4240:4262   */\n      add\n        /* \"#utility.yul\":4219:4272   */\n      tag_401\n      jump\t// in\n    tag_510:\n        /* \"#utility.yul\":4209:4272   */\n      swap3\n      pop\n        /* \"#utility.yul\":4164:4282   */\n      pop\n        /* \"#utility.yul\":4321:4323   */\n      0x40\n        /* \"#utility.yul\":4347:4400   */\n      tag_511\n        /* \"#utility.yul\":4392:4399   */\n      dup7\n        /* \"#utility.yul\":4383:4389   */\n      dup3\n        /* \"#utility.yul\":4372:4381   */\n      dup8\n        /* \"#utility.yul\":4368:4390   */\n      add\n        /* \"#utility.yul\":4347:4400   */\n      tag_404\n      jump\t// in\n    tag_511:\n        /* \"#utility.yul\":4337:4400   */\n      swap2\n      pop\n        /* \"#utility.yul\":4292:4410   */\n      pop\n        /* \"#utility.yul\":3798:4417   */\n      swap3\n      pop\n      swap3\n      pop\n      swap3\n      jump\t// out\n        /* \"#utility.yul\":4423:4509   */\n    tag_408:\n        /* \"#utility.yul\":4458:4465   */\n      0x00\n        /* \"#utility.yul\":4498:4502   */\n      0xff\n        /* \"#utility.yul\":4491:4496   */\n      dup3\n        /* \"#utility.yul\":4487:4503   */\n      and\n        /* \"#utility.yul\":4476:4503   */\n      swap1\n      pop\n        /* \"#utility.yul\":4423:4509   */\n      swap2\n      swap1\n      pop\n      jump\t// out\n        /* \"#utility.yul\":4515:4627   */\n    tag_409:\n        /* \"#utility.yul\":4598:4620   */\n      tag_514\n        /* \"#utility.yul\":4614:4619   */\n      dup2\n        /* \"#utility.yul\":4598:4620   */\n      tag_408\n      jump\t// in\n    tag_514:\n        /* \"#utility.yul\":4593:4596   */\n      dup3\n        /* \"#utility.yul\":4586:4621   */\n      mstore\n        /* \"#utility.yul\":4515:4627   */\n      pop\n      pop\n      jump\t// out\n        /* \"#utility.yul\":4633:4847   */\n    tag_52:\n        /* \"#utility.yul\":4722:4726   */\n      0x00\n        /* \"#utility.yul\":4760:4762   */\n      0x20\n        /* \"#utility.yul\":4749:4758   */\n      dup3\n        /* \"#utility.yul\":4745:4763   */\n      add\n        /* \"#utility.yul\":4737:4763   */\n      swap1\n      pop\n        /* \"#utility.yul\":4773:4840   */\n      tag_516\n        /* \"#utility.yul\":4837:4838   */\n      0x00\n        /* \"#utility.yul\":4826:4835   */\n      dup4\n        /* \"#utility.yul\":4822:4839   */\n      add\n        /* \"#utility.yul\":4813:4819   */\n      dup5\n        /* \"#utility.yul\":4773:4840   */\n      tag_409\n      jump\t// in\n    tag_516:\n        /* \"#utility.yul\":4633:4847   */\n      swap3\n      swap2\n      pop\n      pop\n      jump\t// out\n        /* \"#utility.yul\":4853:4970   */\n    tag_410:\n        /* \"#utility.yul\":4962:4963   */\n      0x00\n        /* \"#utility.yul\":4959:4960   */\n      dup1\n        /* \"#utility.yul\":4952:4964   */\n      revert\n        /* \"#utility.yul\":4976:5093   */\n    tag_411:\n        /* \"#utility.yul\":5085:5086   */\n      0x00\n        /* \"#utility.yul\":5082:5083   */\n      dup1\n        /* \"#utility.yul\":5075:5087   */\n      revert\n        /* \"#utility.yul\":5099:5279   */\n    tag_412:\n        /* \"#utility.yul\":5147:5224   */\n      0x4e487b7100000000000000000000000000000000000000000000000000000000\n        /* \"#utility.yul\":5144:5145   */\n      0x00\n        /* \"#utility.yul\":5137:5225   */\n      mstore\n        /* \"#utility.yul\":5244:5248   */\n      0x41\n        /* \"#utility.yul\":5241:5242   */\n      0x04\n        /* \"#utility.yul\":5234:5249   */\n      mstore\n        /* \"#utility.yul\":5268:5272   */\n      0x24\n        /* \"#utility.yul\":5265:5266   */\n      0x00\n        /* \"#utility.yul\":5258:5273   */\n      revert\n        /* \"#utility.yul\":5285:5566   */\n    tag_413:\n        /* \"#utility.yul\":5368:5395   */\n      tag_521\n        /* \"#utility.yul\":5390:5394   */\n      dup3\n        /* \"#utility.yul\":5368:5395   */\n      tag_393\n      jump\t// in\n    tag_521:\n        /* \"#utility.yul\":5360:5366   */\n      dup2\n        /* \"#utility.yul\":5356:5396   */\n      add\n        /* \"#utility.yul\":5498:5504   */\n      dup2\n        /* \"#utility.yul\":5486:5496   */\n      dup2\n        /* \"#utility.yul\":5483:5505   */\n      lt\n        /* \"#utility.yul\":5462:5480   */\n      0xffffffffffffffff\n        /* \"#utility.yul\":5450:5460   */\n      dup3\n        /* \"#utility.yul\":5447:5481   */\n      gt\n        /* \"#utility.yul\":5444:5506   */\n      or\n        /* \"#utility.yul\":5441:5529   */\n      iszero\n      tag_522\n      jumpi\n        /* \"#utility.yul\":5509:5527   */\n      tag_523\n      tag_412\n      jump\t// in\n    tag_523:\n        /* \"#utility.yul\":5441:5529   */\n    tag_522:\n        /* \"#utility.yul\":5549:5559   */\n      dup1\n        /* \"#utility.yul\":5545:5547   */\n      0x40\n        /* \"#utility.yul\":5538:5560   */\n      mstore\n        /* \"#utility.yul\":5328:5566   */\n      pop\n        /* \"#utility.yul\":5285:5566   */\n      pop\n      pop\n      jump\t// out\n        /* \"#utility.yul\":5572:5701   */\n    tag_414:\n        /* \"#utility.yul\":5606:5612   */\n      0x00\n        /* \"#utility.yul\":5633:5653   */\n      tag_525\n      tag_395\n      jump\t// in\n    tag_525:\n        /* \"#utility.yul\":5623:5653   */\n      swap1\n      pop\n        /* \"#utility.yul\":5662:5695   */\n      tag_526\n        /* \"#utility.yul\":5690:5694   */\n      dup3\n        /* \"#utility.yul\":5682:5688   */\n      dup3\n        /* \"#utility.yul\":5662:5695   */\n      tag_413\n      jump\t// in\n    tag_526:\n        /* \"#utility.yul\":5572:5701   */\n      swap2\n      swap1\n      pop\n      jump\t// out\n        /* \"#utility.yul\":5707:6015   */\n    tag_415:\n        /* \"#utility.yul\":5769:5773   */\n      0x00\n        /* \"#utility.yul\":5859:5877   */\n      0xffffffffffffffff\n        /* \"#utility.yul\":5851:5857   */\n      dup3\n        /* \"#utility.yul\":5848:5878   */\n      gt\n        /* \"#utility.yul\":5845:5901   */\n      iszero\n      tag_528\n      jumpi\n        /* \"#utility.yul\":5881:5899   */\n      tag_529\n      tag_412\n      jump\t// in\n    tag_529:\n        /* \"#utility.yul\":5845:5901   */\n    tag_528:\n        /* \"#utility.yul\":5919:5948   */\n      tag_530\n        /* \"#utility.yul\":5941:5947   */\n      dup3\n        /* \"#utility.yul\":5919:5948   */\n      tag_393\n      jump\t// in\n    tag_530:\n        /* \"#utility.yul\":5911:5948   */\n      swap1\n      pop\n        /* \"#utility.yul\":6003:6007   */\n      0x20\n        /* \"#utility.yul\":5997:6001   */\n      dup2\n        /* \"#utility.yul\":5993:6008   */\n      add\n        /* \"#utility.yul\":5985:6008   */\n      swap1\n      pop\n        /* \"#utility.yul\":5707:6015   */\n      swap2\n      swap1\n      pop\n      jump\t// out\n        /* \"#utility.yul\":6021:6167   */\n    tag_416:\n        /* \"#utility.yul\":6118:6124   */\n      dup3\n        /* \"#utility.yul\":6113:6116   */\n      dup2\n        /* \"#utility.yul\":6108:6111   */\n      dup4\n        /* \"#utility.yul\":6095:6125   */\n      calldatacopy\n        /* \"#utility.yul\":6159:6160   */\n      0x00\n        /* \"#utility.yul\":6150:6156   */\n      dup4\n        /* \"#utility.yul\":6145:6148   */\n      dup4\n        /* \"#utility.yul\":6141:6157   */\n      add\n        /* \"#utility.yul\":6134:6161   */\n      mstore\n        /* \"#utility.yul\":6021:6167   */\n      pop\n      pop\n      pop\n      jump\t// out\n        /* \"#utility.yul\":6173:6598   */\n    tag_417:\n        /* \"#utility.yul\":6251:6256   */\n      0x00\n        /* \"#utility.yul\":6276:6342   */\n      tag_533\n        /* \"#utility.yul\":6292:6341   */\n      tag_534\n        /* \"#utility.yul\":6334:6340   */\n      dup5\n        /* \"#utility.yul\":6292:6341   */\n      tag_415\n      jump\t// in\n    tag_534:\n        /* \"#utility.yul\":6276:6342   */\n      tag_414\n      jump\t// in\n    tag_533:\n        /* \"#utility.yul\":6267:6342   */\n      swap1\n      pop\n        /* \"#utility.yul\":6365:6371   */\n      dup3\n        /* \"#utility.yul\":6358:6363   */\n      dup2\n        /* \"#utility.yul\":6351:6372   */\n      mstore\n        /* \"#utility.yul\":6403:6407   */\n      0x20\n        /* \"#utility.yul\":6396:6401   */\n      dup2\n        /* \"#utility.yul\":6392:6408   */\n      add\n        /* \"#utility.yul\":6441:6444   */\n      dup5\n        /* \"#utility.yul\":6432:6438   */\n      dup5\n        /* \"#utility.yul\":6427:6430   */\n      dup5\n        /* \"#utility.yul\":6423:6439   */\n      add\n        /* \"#utility.yul\":6420:6445   */\n      gt\n        /* \"#utility.yul\":6417:6529   */\n      iszero\n      tag_535\n      jumpi\n        /* \"#utility.yul\":6448:6527   */\n      tag_536\n      tag_411\n      jump\t// in\n    tag_536:\n        /* \"#utility.yul\":6417:6529   */\n    tag_535:\n        /* \"#utility.yul\":6538:6592   */\n      tag_537\n        /* \"#utility.yul\":6585:6591   */\n      dup5\n        /* \"#utility.yul\":6580:6583   */\n      dup3\n        /* \"#utility.yul\":6575:6578   */\n      dup6\n        /* \"#utility.yul\":6538:6592   */\n      tag_416\n      jump\t// in\n    tag_537:\n        /* \"#utility.yul\":6257:6598   */\n      pop\n        /* \"#utility.yul\":6173:6598   */\n      swap4\n      swap3\n      pop\n      pop\n      pop\n      jump\t// out\n        /* \"#utility.yul\":6618:6958   */\n    tag_418:\n        /* \"#utility.yul\":6674:6679   */\n      0x00\n        /* \"#utility.yul\":6723:6726   */\n      dup3\n        /* \"#utility.yul\":6716:6720   */\n      0x1f\n        /* \"#utility.yul\":6708:6714   */\n      dup4\n        /* \"#utility.yul\":6704:6721   */\n      add\n        /* \"#utility.yul\":6700:6727   */\n      slt\n        /* \"#utility.yul\":6690:6812   */\n      tag_539\n      jumpi\n        /* \"#utility.yul\":6731:6810   */\n      tag_540\n      tag_410\n      jump\t// in\n    tag_540:\n        /* \"#utility.yul\":6690:6812   */\n    tag_539:\n        /* \"#utility.yul\":6848:6854   */\n      dup2\n        /* \"#utility.yul\":6835:6855   */\n      calldataload\n        /* \"#utility.yul\":6873:6952   */\n      tag_541\n        /* \"#utility.yul\":6948:6951   */\n      dup5\n        /* \"#utility.yul\":6940:6946   */\n      dup3\n        /* \"#utility.yul\":6933:6937   */\n      0x20\n        /* \"#utility.yul\":6925:6931   */\n      dup7\n        /* \"#utility.yul\":6921:6938   */\n      add\n        /* \"#utility.yul\":6873:6952   */\n      tag_417\n      jump\t// in\n    tag_541:\n        /* \"#utility.yul\":6864:6952   */\n      swap2\n      pop\n        /* \"#utility.yul\":6680:6958   */\n      pop\n        /* \"#utility.yul\":6618:6958   */\n      swap3\n      swap2\n      pop\n      pop\n      jump\t// out\n        /* \"#utility.yul\":6964:7618   */\n    tag_55:\n        /* \"#utility.yul\":7042:7048   */\n      0x00\n        /* \"#utility.yul\":7050:7056   */\n      dup1\n        /* \"#utility.yul\":7099:7101   */\n      0x40\n        /* \"#utility.yul\":7087:7096   */\n      dup4\n        /* \"#utility.yul\":7078:7085   */\n      dup6\n        /* \"#utility.yul\":7074:7097   */\n      sub\n        /* \"#utility.yul\":7070:7102   */\n      slt\n        /* \"#utility.yul\":7067:7186   */\n      iszero\n      tag_543\n      jumpi\n        /* \"#utility.yul\":7105:7184   */\n      tag_544\n      tag_396\n      jump\t// in\n    tag_544:\n        /* \"#utility.yul\":7067:7186   */\n    tag_543:\n        /* \"#utility.yul\":7253:7254   */\n      0x00\n        /* \"#utility.yul\":7242:7251   */\n      dup4\n        /* \"#utility.yul\":7238:7255   */\n      add\n        /* \"#utility.yul\":7225:7256   */\n      calldataload\n        /* \"#utility.yul\":7283:7301   */\n      0xffffffffffffffff\n        /* \"#utility.yul\":7275:7281   */\n      dup2\n        /* \"#utility.yul\":7272:7302   */\n      gt\n        /* \"#utility.yul\":7269:7386   */\n      iszero\n      tag_545\n      jumpi\n        /* \"#utility.yul\":7305:7384   */\n      tag_546\n      tag_397\n      jump\t// in\n    tag_546:\n        /* \"#utility.yul\":7269:7386   */\n    tag_545:\n        /* \"#utility.yul\":7410:7473   */\n      tag_547\n        /* \"#utility.yul\":7465:7472   */\n      dup6\n        /* \"#utility.yul\":7456:7462   */\n      dup3\n        /* \"#utility.yul\":7445:7454   */\n      dup7\n        /* \"#utility.yul\":7441:7463   */\n      add\n        /* \"#utility.yul\":7410:7473   */\n      tag_418\n      jump\t// in\n    tag_547:\n        /* \"#utility.yul\":7400:7473   */\n      swap3\n      pop\n        /* \"#utility.yul\":7196:7483   */\n      pop\n        /* \"#utility.yul\":7522:7524   */\n      0x20\n        /* \"#utility.yul\":7548:7601   */\n      tag_548\n        /* \"#utility.yul\":7593:7600   */\n      dup6\n        /* \"#utility.yul\":7584:7590   */\n      dup3\n        /* \"#utility.yul\":7573:7582   */\n      dup7\n        /* \"#utility.yul\":7569:7591   */\n      add\n        /* \"#utility.yul\":7548:7601   */\n      tag_401\n      jump\t// in\n    tag_548:\n        /* \"#utility.yul\":7538:7601   */\n      swap2\n      pop\n        /* \"#utility.yul\":7493:7611   */\n      pop\n        /* \"#utility.yul\":6964:7618   */\n      swap3\n      pop\n      swap3\n      swap1\n      pop\n      jump\t// out\n        /* \"#utility.yul\":7624:7953   */\n    tag_60:\n        /* \"#utility.yul\":7683:7689   */\n      0x00\n        /* \"#utility.yul\":7732:7734   */\n      0x20\n        /* \"#utility.yul\":7720:7729   */\n      dup3\n        /* \"#utility.yul\":7711:7718   */\n      dup5\n        /* \"#utility.yul\":7707:7730   */\n      sub\n        /* \"#utility.yul\":7703:7735   */\n      slt\n        /* \"#utility.yul\":7700:7819   */\n      iszero\n      tag_550\n      jumpi\n        /* \"#utility.yul\":7738:7817   */\n      tag_551\n      tag_396\n      jump\t// in\n    tag_551:\n        /* \"#utility.yul\":7700:7819   */\n    tag_550:\n        /* \"#utility.yul\":7858:7859   */\n      0x00\n        /* \"#utility.yul\":7883:7936   */\n      tag_552\n        /* \"#utility.yul\":7928:7935   */\n      dup5\n        /* \"#utility.yul\":7919:7925   */\n      dup3\n        /* \"#utility.yul\":7908:7917   */\n      dup6\n        /* \"#utility.yul\":7904:7926   */\n      add\n        /* \"#utility.yul\":7883:7936   */\n      tag_404\n      jump\t// in\n    tag_552:\n        /* \"#utility.yul\":7873:7936   */\n      swap2\n      pop\n        /* \"#utility.yul\":7829:7946   */\n      pop\n        /* \"#utility.yul\":7624:7953   */\n      swap3\n      swap2\n      pop\n      pop\n      jump\t// out\n        /* \"#utility.yul\":7959:8288   */\n    tag_64:\n        /* \"#utility.yul\":8018:8024   */\n      0x00\n        /* \"#utility.yul\":8067:8069   */\n      0x20\n        /* \"#utility.yul\":8055:8064   */\n      dup3\n        /* \"#utility.yul\":8046:8053   */\n      dup5\n        /* \"#utility.yul\":8042:8065   */\n      sub\n        /* \"#utility.yul\":8038:8070   */\n      slt\n        /* \"#utility.yul\":8035:8154   */\n      iszero\n      tag_554\n      jumpi\n        /* \"#utility.yul\":8073:8152   */\n      tag_555\n      tag_396\n      jump\t// in\n    tag_555:\n        /* \"#utility.yul\":8035:8154   */\n    tag_554:\n        /* \"#utility.yul\":8193:8194   */\n      0x00\n        /* \"#utility.yul\":8218:8271   */\n      tag_556\n        /* \"#utility.yul\":8263:8270   */\n      dup5\n        /* \"#utility.yul\":8254:8260   */\n      dup3\n        /* \"#utility.yul\":8243:8252   */\n      dup6\n        /* \"#utility.yul\":8239:8261   */\n      add\n        /* \"#utility.yul\":8218:8271   */\n      tag_401\n      jump\t// in\n    tag_556:\n        /* \"#utility.yul\":8208:8271   */\n      swap2\n      pop\n        /* \"#utility.yul\":8164:8281   */\n      pop\n        /* \"#utility.yul\":7959:8288   */\n      swap3\n      swap2\n      pop\n      pop\n      jump\t// out\n        /* \"#utility.yul\":8294:8412   */\n    tag_419:\n        /* \"#utility.yul\":8381:8405   */\n      tag_558\n        /* \"#utility.yul\":8399:8404   */\n      dup2\n        /* \"#utility.yul\":8381:8405   */\n      tag_399\n      jump\t// in\n    tag_558:\n        /* \"#utility.yul\":8376:8379   */\n      dup3\n        /* \"#utility.yul\":8369:8406   */\n      mstore\n        /* \"#utility.yul\":8294:8412   */\n      pop\n      pop\n      jump\t// out\n        /* \"#utility.yul\":8418:8640   */\n    tag_70:\n        /* \"#utility.yul\":8511:8515   */\n      0x00\n        /* \"#utility.yul\":8549:8551   */\n      0x20\n        /* \"#utility.yul\":8538:8547   */\n      dup3\n        /* \"#utility.yul\":8534:8552   */\n      add\n        /* \"#utility.yul\":8526:8552   */\n      swap1\n      pop\n        /* \"#utility.yul\":8562:8633   */\n      tag_560\n        /* \"#utility.yul\":8630:8631   */\n      0x00\n        /* \"#utility.yul\":8619:8628   */\n      dup4\n        /* \"#utility.yul\":8615:8632   */\n      add\n        /* \"#utility.yul\":8606:8612   */\n      dup5\n        /* \"#utility.yul\":8562:8633   */\n      tag_419\n      jump\t// in\n    tag_560:\n        /* \"#utility.yul\":8418:8640   */\n      swap3\n      swap2\n      pop\n      pop\n      jump\t// out\n        /* \"#utility.yul\":8646:9155   */\n    tag_106:\n        /* \"#utility.yul\":8715:8721   */\n      0x00\n        /* \"#utility.yul\":8764:8766   */\n      0x20\n        /* \"#utility.yul\":8752:8761   */\n      dup3\n        /* \"#utility.yul\":8743:8750   */\n      dup5\n        /* \"#utility.yul\":8739:8762   */\n      sub\n        /* \"#utility.yul\":8735:8767   */\n      slt\n        /* \"#utility.yul\":8732:8851   */\n      iszero\n      tag_562\n      jumpi\n        /* \"#utility.yul\":8770:8849   */\n      tag_563\n      tag_396\n      jump\t// in\n    tag_563:\n        /* \"#utility.yul\":8732:8851   */\n    tag_562:\n        /* \"#utility.yul\":8918:8919   */\n      0x00\n        /* \"#utility.yul\":8907:8916   */\n      dup3\n        /* \"#utility.yul\":8903:8920   */\n      add\n        /* \"#utility.yul\":8890:8921   */\n      calldataload\n        /* \"#utility.yul\":8948:8966   */\n      0xffffffffffffffff\n        /* \"#utility.yul\":8940:8946   */\n      dup2\n        /* \"#utility.yul\":8937:8967   */\n      gt\n        /* \"#utility.yul\":8934:9051   */\n      iszero\n      tag_564\n      jumpi\n        /* \"#utility.yul\":8970:9049   */\n      tag_565\n      tag_397\n      jump\t// in\n    tag_565:\n        /* \"#utility.yul\":8934:9051   */\n    tag_564:\n        /* \"#utility.yul\":9075:9138   */\n      tag_566\n        /* \"#utility.yul\":9130:9137   */\n      dup5\n        /* \"#utility.yul\":9121:9127   */\n      dup3\n        /* \"#utility.yul\":9110:9119   */\n      dup6\n        /* \"#utility.yul\":9106:9128   */\n      add\n        /* \"#utility.yul\":9075:9138   */\n      tag_418\n      jump\t// in\n    tag_566:\n        /* \"#utility.yul\":9065:9138   */\n      swap2\n      pop\n        /* \"#utility.yul\":8861:9148   */\n      pop\n        /* \"#utility.yul\":8646:9155   */\n      swap3\n      swap2\n      pop\n      pop\n      jump\t// out\n        /* \"#utility.yul\":9161:9635   */\n    tag_111:\n        /* \"#utility.yul\":9229:9235   */\n      0x00\n        /* \"#utility.yul\":9237:9243   */\n      dup1\n        /* \"#utility.yul\":9286:9288   */\n      0x40\n        /* \"#utility.yul\":9274:9283   */\n      dup4\n        /* \"#utility.yul\":9265:9272   */\n      dup6\n        /* \"#utility.yul\":9261:9284   */\n      sub\n        /* \"#utility.yul\":9257:9289   */\n      slt\n        /* \"#utility.yul\":9254:9373   */\n      iszero\n      tag_568\n      jumpi\n        /* \"#utility.yul\":9292:9371   */\n      tag_569\n      tag_396\n      jump\t// in\n    tag_569:\n        /* \"#utility.yul\":9254:9373   */\n    tag_568:\n        /* \"#utility.yul\":9412:9413   */\n      0x00\n        /* \"#utility.yul\":9437:9490   */\n      tag_570\n        /* \"#utility.yul\":9482:9489   */\n      dup6\n        /* \"#utility.yul\":9473:9479   */\n      dup3\n        /* \"#utility.yul\":9462:9471   */\n      dup7\n        /* \"#utility.yul\":9458:9480   */\n      add\n        /* \"#utility.yul\":9437:9490   */\n      tag_401\n      jump\t// in\n    tag_570:\n        /* \"#utility.yul\":9427:9490   */\n      swap3\n      pop\n        /* \"#utility.yul\":9383:9500   */\n      pop\n        /* \"#utility.yul\":9539:9541   */\n      0x20\n        /* \"#utility.yul\":9565:9618   */\n      tag_571\n        /* \"#utility.yul\":9610:9617   */\n      dup6\n        /* \"#utility.yul\":9601:9607   */\n      dup3\n        /* \"#utility.yul\":9590:9599   */\n      dup7\n        /* \"#utility.yul\":9586:9608   */\n      add\n        /* \"#utility.yul\":9565:9618   */\n      tag_401\n      jump\t// in\n    tag_571:\n        /* \"#utility.yul\":9555:9618   */\n      swap2\n      pop\n        /* \"#utility.yul\":9510:9628   */\n      pop\n        /* \"#utility.yul\":9161:9635   */\n      swap3\n      pop\n      swap3\n      swap1\n      pop\n      jump\t// out\n        /* \"#utility.yul\":9641:9757   */\n    tag_420:\n        /* \"#utility.yul\":9711:9732   */\n      tag_573\n        /* \"#utility.yul\":9726:9731   */\n      dup2\n        /* \"#utility.yul\":9711:9732   */\n      tag_405\n      jump\t// in\n    tag_573:\n        /* \"#utility.yul\":9704:9709   */\n      dup2\n        /* \"#utility.yul\":9701:9733   */\n      eq\n        /* \"#utility.yul\":9691:9751   */\n      tag_574\n      jumpi\n        /* \"#utility.yul\":9747:9748   */\n      0x00\n        /* \"#utility.yul\":9744:9745   */\n      dup1\n        /* \"#utility.yul\":9737:9749   */\n      revert\n        /* \"#utility.yul\":9691:9751   */\n    tag_574:\n        /* \"#utility.yul\":9641:9757   */\n      pop\n      jump\t// out\n        /* \"#utility.yul\":9763:9896   */\n    tag_421:\n        /* \"#utility.yul\":9806:9811   */\n      0x00\n        /* \"#utility.yul\":9844:9850   */\n      dup2\n        /* \"#utility.yul\":9831:9851   */\n      calldataload\n        /* \"#utility.yul\":9822:9851   */\n      swap1\n      pop\n        /* \"#utility.yul\":9860:9890   */\n      tag_576\n        /* \"#utility.yul\":9884:9889   */\n      dup2\n        /* \"#utility.yul\":9860:9890   */\n      tag_420\n      jump\t// in\n    tag_576:\n        /* \"#utility.yul\":9763:9896   */\n      swap3\n      swap2\n      pop\n      pop\n      jump\t// out\n        /* \"#utility.yul\":9902:10370   */\n    tag_116:\n        /* \"#utility.yul\":9967:9973   */\n      0x00\n        /* \"#utility.yul\":9975:9981   */\n      dup1\n        /* \"#utility.yul\":10024:10026   */\n      0x40\n        /* \"#utility.yul\":10012:10021   */\n      dup4\n        /* \"#utility.yul\":10003:10010   */\n      dup6\n        /* \"#utility.yul\":9999:10022   */\n      sub\n        /* \"#utility.yul\":9995:10027   */\n      slt\n        /* \"#utility.yul\":9992:10111   */\n      iszero\n      tag_578\n      jumpi\n        /* \"#utility.yul\":10030:10109   */\n      tag_579\n      tag_396\n      jump\t// in\n    tag_579:\n        /* \"#utility.yul\":9992:10111   */\n    tag_578:\n        /* \"#utility.yul\":10150:10151   */\n      0x00\n        /* \"#utility.yul\":10175:10228   */\n      tag_580\n        /* \"#utility.yul\":10220:10227   */\n      dup6\n        /* \"#utility.yul\":10211:10217   */\n      dup3\n        /* \"#utility.yul\":10200:10209   */\n      dup7\n        /* \"#utility.yul\":10196:10218   */\n      add\n        /* \"#utility.yul\":10175:10228   */\n      tag_401\n      jump\t// in\n    tag_580:\n        /* \"#utility.yul\":10165:10228   */\n      swap3\n      pop\n        /* \"#utility.yul\":10121:10238   */\n      pop\n        /* \"#utility.yul\":10277:10279   */\n      0x20\n        /* \"#utility.yul\":10303:10353   */\n      tag_581\n        /* \"#utility.yul\":10345:10352   */\n      dup6\n        /* \"#utility.yul\":10336:10342   */\n      dup3\n        /* \"#utility.yul\":10325:10334   */\n      dup7\n        /* \"#utility.yul\":10321:10343   */\n      add\n        /* \"#utility.yul\":10303:10353   */\n      tag_421\n      jump\t// in\n    tag_581:\n        /* \"#utility.yul\":10293:10353   */\n      swap2\n      pop\n        /* \"#utility.yul\":10248:10363   */\n      pop\n        /* \"#utility.yul\":9902:10370   */\n      swap3\n      pop\n      swap3\n      swap1\n      pop\n      jump\t// out\n        /* \"#utility.yul\":10376:10556   */\n    tag_422:\n        /* \"#utility.yul\":10424:10501   */\n      0x4e487b7100000000000000000000000000000000000000000000000000000000\n        /* \"#utility.yul\":10421:10422   */\n      0x00\n        /* \"#utility.yul\":10414:10502   */\n      mstore\n        /* \"#utility.yul\":10521:10525   */\n      0x22\n        /* \"#utility.yul\":10518:10519   */\n      0x04\n        /* \"#utility.yul\":10511:10526   */\n      mstore\n        /* \"#utility.yul\":10545:10549   */\n      0x24\n        /* \"#utility.yul\":10542:10543   */\n      0x00\n        /* \"#utility.yul\":10535:10550   */\n      revert\n        /* \"#utility.yul\":10562:10882   */\n    tag_125:\n        /* \"#utility.yul\":10606:10612   */\n      0x00\n        /* \"#utility.yul\":10643:10644   */\n      0x02\n        /* \"#utility.yul\":10637:10641   */\n      dup3\n        /* \"#utility.yul\":10633:10645   */\n      div\n        /* \"#utility.yul\":10623:10645   */\n      swap1\n      pop\n        /* \"#utility.yul\":10690:10691   */\n      0x01\n        /* \"#utility.yul\":10684:10688   */\n      dup3\n        /* \"#utility.yul\":10680:10692   */\n      and\n        /* \"#utility.yul\":10711:10729   */\n      dup1\n        /* \"#utility.yul\":10701:10782   */\n      tag_584\n      jumpi\n        /* \"#utility.yul\":10767:10771   */\n      0x7f\n        /* \"#utility.yul\":10759:10765   */\n      dup3\n        /* \"#utility.yul\":10755:10772   */\n      and\n        /* \"#utility.yul\":10745:10772   */\n      swap2\n      pop\n        /* \"#utility.yul\":10701:10782   */\n    tag_584:\n        /* \"#utility.yul\":10829:10831   */\n      0x20\n        /* \"#utility.yul\":10821:10827   */\n      dup3\n        /* \"#utility.yul\":10818:10832   */\n      lt\n        /* \"#utility.yul\":10798:10816   */\n      dup2\n        /* \"#utility.yul\":10795:10833   */\n      sub\n        /* \"#utility.yul\":10792:10876   */\n      tag_585\n      jumpi\n        /* \"#utility.yul\":10848:10866   */\n      tag_586\n      tag_422\n      jump\t// in\n    tag_586:\n        /* \"#utility.yul\":10792:10876   */\n    tag_585:\n        /* \"#utility.yul\":10613:10882   */\n      pop\n        /* \"#utility.yul\":10562:10882   */\n      swap2\n      swap1\n      pop\n      jump\t// out\n        /* \"#utility.yul\":10888:11057   */\n    tag_423:\n        /* \"#utility.yul\":11028:11049   */\n      0x496e76616c6964204e474f206164647265737300000000000000000000000000\n        /* \"#utility.yul\":11024:11025   */\n      0x00\n        /* \"#utility.yul\":11016:11022   */\n      dup3\n        /* \"#utility.yul\":11012:11026   */\n      add\n        /* \"#utility.yul\":11005:11050   */\n      mstore\n        /* \"#utility.yul\":10888:11057   */\n      pop\n      jump\t// out\n        /* \"#utility.yul\":11063:11429   */\n    tag_424:\n        /* \"#utility.yul\":11205:11208   */\n      0x00\n        /* \"#utility.yul\":11226:11293   */\n      tag_589\n        /* \"#utility.yul\":11290:11292   */\n      0x13\n        /* \"#utility.yul\":11285:11288   */\n      dup4\n        /* \"#utility.yul\":11226:11293   */\n      tag_391\n      jump\t// in\n    tag_589:\n        /* \"#utility.yul\":11219:11293   */\n      swap2\n      pop\n        /* \"#utility.yul\":11302:11395   */\n      tag_590\n        /* \"#utility.yul\":11391:11394   */\n      dup3\n        /* \"#utility.yul\":11302:11395   */\n      tag_423\n      jump\t// in\n    tag_590:\n        /* \"#utility.yul\":11420:11422   */\n      0x20\n        /* \"#utility.yul\":11415:11418   */\n      dup3\n        /* \"#utility.yul\":11411:11423   */\n      add\n        /* \"#utility.yul\":11404:11423   */\n      swap1\n      pop\n        /* \"#utility.yul\":11063:11429   */\n      swap2\n      swap1\n      pop\n      jump\t// out\n        /* \"#utility.yul\":11435:11854   */\n    tag_149:\n        /* \"#utility.yul\":11601:11605   */\n      0x00\n        /* \"#utility.yul\":11639:11641   */\n      0x20\n        /* \"#utility.yul\":11628:11637   */\n      dup3\n        /* \"#utility.yul\":11624:11642   */\n      add\n        /* \"#utility.yul\":11616:11642   */\n      swap1\n      pop\n        /* \"#utility.yul\":11688:11697   */\n      dup2\n        /* \"#utility.yul\":11682:11686   */\n      dup2\n        /* \"#utility.yul\":11678:11698   */\n      sub\n        /* \"#utility.yul\":11674:11675   */\n      0x00\n        /* \"#utility.yul\":11663:11672   */\n      dup4\n        /* \"#utility.yul\":11659:11676   */\n      add\n        /* \"#utility.yul\":11652:11699   */\n      mstore\n        /* \"#utility.yul\":11716:11847   */\n      tag_592\n        /* \"#utility.yul\":11842:11846   */\n      dup2\n        /* \"#utility.yul\":11716:11847   */\n      tag_424\n      jump\t// in\n    tag_592:\n        /* \"#utility.yul\":11708:11847   */\n      swap1\n      pop\n        /* \"#utility.yul\":11435:11854   */\n      swap2\n      swap1\n      pop\n      jump\t// out\n        /* \"#utility.yul\":11860:12040   */\n    tag_155:\n        /* \"#utility.yul\":11908:11985   */\n      0x4e487b7100000000000000000000000000000000000000000000000000000000\n        /* \"#utility.yul\":11905:11906   */\n      0x00\n        /* \"#utility.yul\":11898:11986   */\n      mstore\n        /* \"#utility.yul\":12005:12009   */\n      0x32\n        /* \"#utility.yul\":12002:12003   */\n      0x04\n        /* \"#utility.yul\":11995:12010   */\n      mstore\n        /* \"#utility.yul\":12029:12033   */\n      0x24\n        /* \"#utility.yul\":12026:12027   */\n      0x00\n        /* \"#utility.yul\":12019:12034   */\n      revert\n        /* \"#utility.yul\":12046:12193   */\n    tag_425:\n        /* \"#utility.yul\":12147:12158   */\n      0x00\n        /* \"#utility.yul\":12184:12187   */\n      dup2\n        /* \"#utility.yul\":12169:12187   */\n      swap1\n      pop\n        /* \"#utility.yul\":12046:12193   */\n      swap3\n      swap2\n      pop\n      pop\n      jump\t// out\n        /* \"#utility.yul\":12199:12343   */\n    tag_426:\n        /* \"#utility.yul\":12251:12255   */\n      0x00\n        /* \"#utility.yul\":12274:12277   */\n      dup2\n        /* \"#utility.yul\":12266:12277   */\n      swap1\n      pop\n        /* \"#utility.yul\":12297:12300   */\n      dup2\n        /* \"#utility.yul\":12294:12295   */\n      0x00\n        /* \"#utility.yul\":12287:12301   */\n      mstore\n        /* \"#utility.yul\":12331:12335   */\n      0x20\n        /* \"#utility.yul\":12328:12329   */\n      0x00\n        /* \"#utility.yul\":12318:12336   */\n      keccak256\n        /* \"#utility.yul\":12310:12336   */\n      swap1\n      pop\n        /* \"#utility.yul\":12199:12343   */\n      swap2\n      swap1\n      pop\n      jump\t// out\n        /* \"#utility.yul\":12371:13249   */\n    tag_427:\n        /* \"#utility.yul\":12476:12479   */\n      0x00\n        /* \"#utility.yul\":12513:12518   */\n      dup2\n        /* \"#utility.yul\":12507:12519   */\n      sload\n        /* \"#utility.yul\":12542:12578   */\n      tag_597\n        /* \"#utility.yul\":12568:12577   */\n      dup2\n        /* \"#utility.yul\":12542:12578   */\n      tag_125\n      jump\t// in\n    tag_597:\n        /* \"#utility.yul\":12594:12682   */\n      tag_598\n        /* \"#utility.yul\":12675:12681   */\n      dup2\n        /* \"#utility.yul\":12670:12673   */\n      dup7\n        /* \"#utility.yul\":12594:12682   */\n      tag_425\n      jump\t// in\n    tag_598:\n        /* \"#utility.yul\":12587:12682   */\n      swap5\n      pop\n        /* \"#utility.yul\":12713:12714   */\n      0x01\n        /* \"#utility.yul\":12702:12711   */\n      dup3\n        /* \"#utility.yul\":12698:12715   */\n      and\n        /* \"#utility.yul\":12729:12730   */\n      0x00\n        /* \"#utility.yul\":12724:12890   */\n      dup2\n      eq\n      tag_600\n      jumpi\n        /* \"#utility.yul\":12904:12905   */\n      0x01\n        /* \"#utility.yul\":12899:13243   */\n      dup2\n      eq\n      tag_601\n      jumpi\n        /* \"#utility.yul\":12691:13243   */\n      jump(tag_599)\n        /* \"#utility.yul\":12724:12890   */\n    tag_600:\n        /* \"#utility.yul\":12808:12812   */\n      0xff\n        /* \"#utility.yul\":12804:12813   */\n      not\n        /* \"#utility.yul\":12793:12802   */\n      dup4\n        /* \"#utility.yul\":12789:12814   */\n      and\n        /* \"#utility.yul\":12784:12787   */\n      dup7\n        /* \"#utility.yul\":12777:12815   */\n      mstore\n        /* \"#utility.yul\":12870:12876   */\n      dup2\n        /* \"#utility.yul\":12863:12877   */\n      iszero\n        /* \"#utility.yul\":12856:12878   */\n      iszero\n        /* \"#utility.yul\":12848:12854   */\n      dup3\n        /* \"#utility.yul\":12844:12879   */\n      mul\n        /* \"#utility.yul\":12839:12842   */\n      dup7\n        /* \"#utility.yul\":12835:12880   */\n      add\n        /* \"#utility.yul\":12828:12880   */\n      swap4\n      pop\n        /* \"#utility.yul\":12724:12890   */\n      jump(tag_599)\n        /* \"#utility.yul\":12899:13243   */\n    tag_601:\n        /* \"#utility.yul\":12966:13007   */\n      tag_602\n        /* \"#utility.yul\":13001:13006   */\n      dup6\n        /* \"#utility.yul\":12966:13007   */\n      tag_426\n      jump\t// in\n    tag_602:\n        /* \"#utility.yul\":13029:13030   */\n      0x00\n        /* \"#utility.yul\":13043:13197   */\n    tag_603:\n        /* \"#utility.yul\":13057:13063   */\n      dup4\n        /* \"#utility.yul\":13054:13055   */\n      dup2\n        /* \"#utility.yul\":13051:13064   */\n      lt\n        /* \"#utility.yul\":13043:13197   */\n      iszero\n      tag_605\n      jumpi\n        /* \"#utility.yul\":13131:13138   */\n      dup2\n        /* \"#utility.yul\":13125:13139   */\n      sload\n        /* \"#utility.yul\":13121:13122   */\n      dup2\n        /* \"#utility.yul\":13116:13119   */\n      dup10\n        /* \"#utility.yul\":13112:13123   */\n      add\n        /* \"#utility.yul\":13105:13140   */\n      mstore\n        /* \"#utility.yul\":13181:13182   */\n      0x01\n        /* \"#utility.yul\":13172:13179   */\n      dup3\n        /* \"#utility.yul\":13168:13183   */\n      add\n        /* \"#utility.yul\":13157:13183   */\n      swap2\n      pop\n        /* \"#utility.yul\":13079:13083   */\n      0x20\n        /* \"#utility.yul\":13076:13077   */\n      dup2\n        /* \"#utility.yul\":13072:13084   */\n      add\n        /* \"#utility.yul\":13067:13084   */\n      swap1\n      pop\n        /* \"#utility.yul\":13043:13197   */\n      jump(tag_603)\n    tag_605:\n        /* \"#utility.yul\":13226:13232   */\n      dup4\n        /* \"#utility.yul\":13221:13224   */\n      dup9\n        /* \"#utility.yul\":13217:13233   */\n      add\n        /* \"#utility.yul\":13210:13233   */\n      swap6\n      pop\n        /* \"#utility.yul\":12906:13243   */\n      pop\n      pop\n        /* \"#utility.yul\":12691:13243   */\n    tag_599:\n      pop\n        /* \"#utility.yul\":12480:13249   */\n      pop\n      pop\n        /* \"#utility.yul\":12371:13249   */\n      swap3\n      swap2\n      pop\n      pop\n      jump\t// out\n        /* \"#utility.yul\":13255:13528   */\n    tag_158:\n        /* \"#utility.yul\":13386:13389   */\n      0x00\n        /* \"#utility.yul\":13408:13502   */\n      tag_607\n        /* \"#utility.yul\":13498:13501   */\n      dup3\n        /* \"#utility.yul\":13489:13495   */\n      dup5\n        /* \"#utility.yul\":13408:13502   */\n      tag_427\n      jump\t// in\n    tag_607:\n        /* \"#utility.yul\":13401:13502   */\n      swap2\n      pop\n        /* \"#utility.yul\":13519:13522   */\n      dup2\n        /* \"#utility.yul\":13512:13522   */\n      swap1\n      pop\n        /* \"#utility.yul\":13255:13528   */\n      swap3\n      swap2\n      pop\n      pop\n      jump\t// out\n        /* \"#utility.yul\":13534:13714   */\n    tag_428:\n        /* \"#utility.yul\":13582:13659   */\n      0x4e487b7100000000000000000000000000000000000000000000000000000000\n        /* \"#utility.yul\":13579:13580   */\n      0x00\n        /* \"#utility.yul\":13572:13660   */\n      mstore\n        /* \"#utility.yul\":13679:13683   */\n      0x11\n        /* \"#utility.yul\":13676:13677   */\n      0x04\n        /* \"#utility.yul\":13669:13684   */\n      mstore\n        /* \"#utility.yul\":13703:13707   */\n      0x24\n        /* \"#utility.yul\":13700:13701   */\n      0x00\n        /* \"#utility.yul\":13693:13708   */\n      revert\n        /* \"#utility.yul\":13720:13953   */\n    tag_161:\n        /* \"#utility.yul\":13759:13762   */\n      0x00\n        /* \"#utility.yul\":13782:13806   */\n      tag_610\n        /* \"#utility.yul\":13800:13805   */\n      dup3\n        /* \"#utility.yul\":13782:13806   */\n      tag_402\n      jump\t// in\n    tag_610:\n        /* \"#utility.yul\":13773:13806   */\n      swap2\n      pop\n        /* \"#utility.yul\":13828:13894   */\n      0xffffffffffffffffffffffffffffffffffffffffffffffffffffffffffffffff\n        /* \"#utility.yul\":13821:13826   */\n      dup3\n        /* \"#utility.yul\":13818:13895   */\n      sub\n        /* \"#utility.yul\":13815:13918   */\n      tag_611\n      jumpi\n        /* \"#utility.yul\":13898:13916   */\n      tag_612\n      tag_428\n      jump\t// in\n    tag_612:\n        /* \"#utility.yul\":13815:13918   */\n    tag_611:\n        /* \"#utility.yul\":13945:13946   */\n      0x01\n        /* \"#utility.yul\":13938:13943   */\n      dup3\n        /* \"#utility.yul\":13934:13947   */\n      add\n        /* \"#utility.yul\":13927:13947   */\n      swap1\n      pop\n        /* \"#utility.yul\":13720:13953   */\n      swap2\n      swap1\n      pop\n      jump\t// out\n        /* \"#utility.yul\":13959:14100   */\n    tag_429:\n        /* \"#utility.yul\":14008:14012   */\n      0x00\n        /* \"#utility.yul\":14031:14034   */\n      dup2\n        /* \"#utility.yul\":14023:14034   */\n      swap1\n      pop\n        /* \"#utility.yul\":14054:14057   */\n      dup2\n        /* \"#utility.yul\":14051:14052   */\n      0x00\n        /* \"#utility.yul\":14044:14058   */\n      mstore\n        /* \"#utility.yul\":14088:14092   */\n      0x20\n        /* \"#utility.yul\":14085:14086   */\n      0x00\n        /* \"#utility.yul\":14075:14093   */\n      keccak256\n        /* \"#utility.yul\":14067:14093   */\n      swap1\n      pop\n        /* \"#utility.yul\":13959:14100   */\n      swap2\n      swap1\n      pop\n      jump\t// out\n        /* \"#utility.yul\":14106:14199   */\n    tag_430:\n        /* \"#utility.yul\":14143:14149   */\n      0x00\n        /* \"#utility.yul\":14190:14192   */\n      0x20\n        /* \"#utility.yul\":14185:14187   */\n      0x1f\n        /* \"#utility.yul\":14178:14183   */\n      dup4\n        /* \"#utility.yul\":14174:14188   */\n      add\n        /* \"#utility.yul\":14170:14193   */\n      div\n        /* \"#utility.yul\":14160:14193   */\n      swap1\n      pop\n        /* \"#utility.yul\":14106:14199   */\n      swap2\n      swap1\n      pop\n      jump\t// out\n        /* \"#utility.yul\":14205:14312   */\n    tag_431:\n        /* \"#utility.yul\":14249:14257   */\n      0x00\n        /* \"#utility.yul\":14299:14304   */\n      dup3\n        /* \"#utility.yul\":14293:14297   */\n      dup3\n        /* \"#utility.yul\":14289:14305   */\n      shl\n        /* \"#utility.yul\":14268:14305   */\n      swap1\n      pop\n        /* \"#utility.yul\":14205:14312   */\n      swap3\n      swap2\n      pop\n      pop\n      jump\t// out\n        /* \"#utility.yul\":14318:14711   */\n    tag_432:\n        /* \"#utility.yul\":14387:14393   */\n      0x00\n        /* \"#utility.yul\":14437:14438   */\n      0x08\n        /* \"#utility.yul\":14425:14435   */\n      dup4\n        /* \"#utility.yul\":14421:14439   */\n      mul\n        /* \"#utility.yul\":14460:14557   */\n      tag_617\n        /* \"#utility.yul\":14490:14556   */\n      0xffffffffffffffffffffffffffffffffffffffffffffffffffffffffffffffff\n        /* \"#utility.yul\":14479:14488   */\n      dup3\n        /* \"#utility.yul\":14460:14557   */\n      tag_431\n      jump\t// in\n    tag_617:\n        /* \"#utility.yul\":14578:14617   */\n      tag_618\n        /* \"#utility.yul\":14608:14616   */\n      dup7\n        /* \"#utility.yul\":14597:14606   */\n      dup4\n        /* \"#utility.yul\":14578:14617   */\n      tag_431\n      jump\t// in\n    tag_618:\n        /* \"#utility.yul\":14566:14617   */\n      swap6\n      pop\n        /* \"#utility.yul\":14650:14654   */\n      dup1\n        /* \"#utility.yul\":14646:14655   */\n      not\n        /* \"#utility.yul\":14639:14644   */\n      dup5\n        /* \"#utility.yul\":14635:14656   */\n      and\n        /* \"#utility.yul\":14626:14656   */\n      swap4\n      pop\n        /* \"#utility.yul\":14699:14703   */\n      dup1\n        /* \"#utility.yul\":14689:14697   */\n      dup7\n        /* \"#utility.yul\":14685:14704   */\n      and\n        /* \"#utility.yul\":14678:14683   */\n      dup5\n        /* \"#utility.yul\":14675:14705   */\n      or\n        /* \"#utility.yul\":14665:14705   */\n      swap3\n      pop\n        /* \"#utility.yul\":14394:14711   */\n      pop\n      pop\n        /* \"#utility.yul\":14318:14711   */\n      swap4\n      swap3\n      pop\n      pop\n      pop\n      jump\t// out\n        /* \"#utility.yul\":14717:14777   */\n    tag_433:\n        /* \"#utility.yul\":14745:14748   */\n      0x00\n        /* \"#utility.yul\":14766:14771   */\n      dup2\n        /* \"#utility.yul\":14759:14771   */\n      swap1\n      pop\n        /* \"#utility.yul\":14717:14777   */\n      swap2\n      swap1\n      pop\n      jump\t// out\n        /* \"#utility.yul\":14783:14925   */\n    tag_434:\n        /* \"#utility.yul\":14833:14842   */\n      0x00\n        /* \"#utility.yul\":14866:14919   */\n      tag_621\n        /* \"#utility.yul\":14884:14918   */\n      tag_622\n        /* \"#utility.yul\":14893:14917   */\n      tag_623\n        /* \"#utility.yul\":14911:14916   */\n      dup5\n        /* \"#utility.yul\":14893:14917   */\n      tag_402\n      jump\t// in\n    tag_623:\n        /* \"#utility.yul\":14884:14918   */\n      tag_433\n      jump\t// in\n    tag_622:\n        /* \"#utility.yul\":14866:14919   */\n      tag_402\n      jump\t// in\n    tag_621:\n        /* \"#utility.yul\":14853:14919   */\n      swap1\n      pop\n        /* \"#utility.yul\":14783:14925   */\n      swap2\n      swap1\n      pop\n      jump\t// out\n        /* \"#utility.yul\":14931:15006   */\n    tag_435:\n        /* \"#utility.yul\":14974:14977   */\n      0x00\n        /* \"#utility.yul\":14995:15000   */\n      dup2\n        /* \"#utility.yul\":14988:15000   */\n      swap1\n      pop\n        /* \"#utility.yul\":14931:15006   */\n      swap2\n      swap1\n      pop\n      jump\t// out\n        /* \"#utility.yul\":15012:15281   */\n    tag_436:\n        /* \"#utility.yul\":15122:15161   */\n      tag_626\n        /* \"#utility.yul\":15153:15160   */\n      dup4\n        /* \"#utility.yul\":15122:15161   */\n      tag_434\n      jump\t// in\n    tag_626:\n        /* \"#utility.yul\":15183:15274   */\n      tag_627\n        /* \"#utility.yul\":15232:15273   */\n      tag_628\n        /* \"#utility.yul\":15256:15272   */\n      dup3\n        /* \"#utility.yul\":15232:15273   */\n      tag_435\n      jump\t// in\n    tag_628:\n        /* \"#utility.yul\":15224:15230   */\n      dup5\n        /* \"#utility.yul\":15217:15221   */\n      dup5\n        /* \"#utility.yul\":15211:15222   */\n      sload\n        /* \"#utility.yul\":15183:15274   */\n      tag_432\n      jump\t// in\n    tag_627:\n        /* \"#utility.yul\":15177:15181   */\n      dup3\n        /* \"#utility.yul\":15170:15275   */\n      sstore\n        /* \"#utility.yul\":15088:15281   */\n      pop\n        /* \"#utility.yul\":15012:15281   */\n      pop\n      pop\n      pop\n      jump\t// out\n        /* \"#utility.yul\":15287:15360   */\n    tag_437:\n        /* \"#utility.yul\":15332:15335   */\n      0x00\n        /* \"#utility.yul\":15287:15360   */\n      swap1\n      jump\t// out\n        /* \"#utility.yul\":15366:15555   */\n    tag_438:\n        /* \"#utility.yul\":15443:15475   */\n      tag_631\n      tag_437\n      jump\t// in\n    tag_631:\n        /* \"#utility.yul\":15484:15549   */\n      tag_632\n        /* \"#utility.yul\":15542:15548   */\n      dup2\n        /* \"#utility.yul\":15534:15540   */\n      dup5\n        /* \"#utility.yul\":15528:15532   */\n      dup5\n        /* \"#utility.yul\":15484:15549   */\n      tag_436\n      jump\t// in\n    tag_632:\n        /* \"#utility.yul\":15419:15555   */\n      pop\n        /* \"#utility.yul\":15366:15555   */\n      pop\n      pop\n      jump\t// out\n        /* \"#utility.yul\":15561:15747   */\n    tag_439:\n        /* \"#utility.yul\":15621:15741   */\n    tag_634:\n        /* \"#utility.yul\":15638:15641   */\n      dup2\n        /* \"#utility.yul\":15631:15636   */\n      dup2\n        /* \"#utility.yul\":15628:15642   */\n      lt\n        /* \"#utility.yul\":15621:15741   */\n      iszero\n      tag_636\n      jumpi\n        /* \"#utility.yul\":15692:15731   */\n      tag_637\n        /* \"#utility.yul\":15729:15730   */\n      0x00\n        /* \"#utility.yul\":15722:15727   */\n      dup3\n        /* \"#utility.yul\":15692:15731   */\n      tag_438\n      jump\t// in\n    tag_637:\n        /* \"#utility.yul\":15665:15666   */\n      0x01\n        /* \"#utility.yul\":15658:15663   */\n      dup2\n        /* \"#utility.yul\":15654:15667   */\n      add\n        /* \"#utility.yul\":15645:15667   */\n      swap1\n      pop\n        /* \"#utility.yul\":15621:15741   */\n      jump(tag_634)\n    tag_636:\n        /* \"#utility.yul\":15561:15747   */\n      pop\n      pop\n      jump\t// out\n        /* \"#utility.yul\":15753:16296   */\n    tag_440:\n        /* \"#utility.yul\":15854:15856   */\n      0x1f\n        /* \"#utility.yul\":15849:15852   */\n      dup3\n        /* \"#utility.yul\":15846:15857   */\n      gt\n        /* \"#utility.yul\":15843:16289   */\n      iszero\n      tag_639\n      jumpi\n        /* \"#utility.yul\":15888:15926   */\n      tag_640\n        /* \"#utility.yul\":15920:15925   */\n      dup2\n        /* \"#utility.yul\":15888:15926   */\n      tag_429\n      jump\t// in\n    tag_640:\n        /* \"#utility.yul\":15972:16001   */\n      tag_641\n        /* \"#utility.yul\":15990:16000   */\n      dup5\n        /* \"#utility.yul\":15972:16001   */\n      tag_430\n      jump\t// in\n    tag_641:\n        /* \"#utility.yul\":15962:15970   */\n      dup2\n        /* \"#utility.yul\":15958:16002   */\n      add\n        /* \"#utility.yul\":16155:16157   */\n      0x20\n        /* \"#utility.yul\":16143:16153   */\n      dup6\n        /* \"#utility.yul\":16140:16158   */\n      lt\n        /* \"#utility.yul\":16137:16186   */\n      iszero\n      tag_642\n      jumpi\n        /* \"#utility.yul\":16176:16184   */\n      dup2\n        /* \"#utility.yul\":16161:16184   */\n      swap1\n      pop\n        /* \"#utility.yul\":16137:16186   */\n    tag_642:\n        /* \"#utility.yul\":16199:16279   */\n      tag_643\n        /* \"#utility.yul\":16255:16277   */\n      tag_644\n        /* \"#utility.yul\":16273:16276   */\n      dup6\n        /* \"#utility.yul\":16255:16277   */\n      tag_430\n      jump\t// in\n    tag_644:\n        /* \"#utility.yul\":16245:16253   */\n      dup4\n        /* \"#utility.yul\":16241:16278   */\n      add\n        /* \"#utility.yul\":16228:16239   */\n      dup3\n        /* \"#utility.yul\":16199:16279   */\n      tag_439\n      jump\t// in\n    tag_643:\n        /* \"#utility.yul\":15858:16289   */\n      pop\n      pop\n        /* \"#utility.yul\":15843:16289   */\n    tag_639:\n        /* \"#utility.yul\":15753:16296   */\n      pop\n      pop\n      pop\n      jump\t// out\n        /* \"#utility.yul\":16302:16419   */\n    tag_441:\n        /* \"#utility.yul\":16356:16364   */\n      0x00\n        /* \"#utility.yul\":16406:16411   */\n      dup3\n        /* \"#utility.yul\":16400:16404   */\n      dup3\n        /* \"#utility.yul\":16396:16412   */\n      shr\n        /* \"#utility.yul\":16375:16412   */\n      swap1\n      pop\n        /* \"#utility.yul\":16302:16419   */\n      swap3\n      swap2\n      pop\n      pop\n      jump\t// out\n        /* \"#utility.yul\":16425:16594   */\n    tag_442:\n        /* \"#utility.yul\":16469:16475   */\n      0x00\n        /* \"#utility.yul\":16502:16553   */\n      tag_647\n        /* \"#utility.yul\":16550:16551   */\n      0x00\n        /* \"#utility.yul\":16546:16552   */\n      not\n        /* \"#utility.yul\":16538:16543   */\n      dup5\n        /* \"#utility.yul\":16535:16536   */\n      0x08\n        /* \"#utility.yul\":16531:16544   */\n      mul\n        /* \"#utility.yul\":16502:16553   */\n      tag_441\n      jump\t// in\n    tag_647:\n        /* \"#utility.yul\":16498:16554   */\n      not\n        /* \"#utility.yul\":16583:16587   */\n      dup1\n        /* \"#utility.yul\":16577:16581   */\n      dup4\n        /* \"#utility.yul\":16573:16588   */\n      and\n        /* \"#utility.yul\":16563:16588   */\n      swap2\n      pop\n        /* \"#utility.yul\":16476:16594   */\n      pop\n        /* \"#utility.yul\":16425:16594   */\n      swap3\n      swap2\n      pop\n      pop\n      jump\t// out\n        /* \"#utility.yul\":16599:16894   */\n    tag_443:\n        /* \"#utility.yul\":16675:16679   */\n      0x00\n        /* \"#utility.yul\":16821:16850   */\n      tag_649\n        /* \"#utility.yul\":16846:16849   */\n      dup4\n        /* \"#utility.yul\":16840:16844   */\n      dup4\n        /* \"#utility.yul\":16821:16850   */\n      tag_442\n      jump\t// in\n    tag_649:\n        /* \"#utility.yul\":16813:16850   */\n      swap2\n      pop\n        /* \"#utility.yul\":16883:16886   */\n      dup3\n        /* \"#utility.yul\":16880:16881   */\n      0x02\n        /* \"#utility.yul\":16876:16887   */\n      mul\n        /* \"#utility.yul\":16870:16874   */\n      dup3\n        /* \"#utility.yul\":16867:16888   */\n      or\n        /* \"#utility.yul\":16859:16888   */\n      swap1\n      pop\n        /* \"#utility.yul\":16599:16894   */\n      swap3\n      swap2\n      pop\n      pop\n      jump\t// out\n        /* \"#utility.yul\":16899:18294   */\n    tag_163:\n        /* \"#utility.yul\":17016:17053   */\n      tag_651\n        /* \"#utility.yul\":17049:17052   */\n      dup3\n        /* \"#utility.yul\":17016:17053   */\n      tag_390\n      jump\t// in\n    tag_651:\n        /* \"#utility.yul\":17118:17136   */\n      0xffffffffffffffff\n        /* \"#utility.yul\":17110:17116   */\n      dup2\n        /* \"#utility.yul\":17107:17137   */\n      gt\n        /* \"#utility.yul\":17104:17160   */\n      iszero\n      tag_652\n      jumpi\n        /* \"#utility.yul\":17140:17158   */\n      tag_653\n      tag_412\n      jump\t// in\n    tag_653:\n        /* \"#utility.yul\":17104:17160   */\n    tag_652:\n        /* \"#utility.yul\":17184:17222   */\n      tag_654\n        /* \"#utility.yul\":17216:17220   */\n      dup3\n        /* \"#utility.yul\":17210:17221   */\n      sload\n        /* \"#utility.yul\":17184:17222   */\n      tag_125\n      jump\t// in\n    tag_654:\n        /* \"#utility.yul\":17269:17336   */\n      tag_655\n        /* \"#utility.yul\":17329:17335   */\n      dup3\n        /* \"#utility.yul\":17321:17327   */\n      dup3\n        /* \"#utility.yul\":17315:17319   */\n      dup6\n        /* \"#utility.yul\":17269:17336   */\n      tag_440\n      jump\t// in\n    tag_655:\n        /* \"#utility.yul\":17363:17364   */\n      0x00\n        /* \"#utility.yul\":17387:17391   */\n      0x20\n        /* \"#utility.yul\":17374:17391   */\n      swap1\n      pop\n        /* \"#utility.yul\":17419:17421   */\n      0x1f\n        /* \"#utility.yul\":17411:17417   */\n      dup4\n        /* \"#utility.yul\":17408:17422   */\n      gt\n        /* \"#utility.yul\":17436:17437   */\n      0x01\n        /* \"#utility.yul\":17431:18049   */\n      dup2\n      eq\n      tag_657\n      jumpi\n        /* \"#utility.yul\":18093:18094   */\n      0x00\n        /* \"#utility.yul\":18110:18116   */\n      dup5\n        /* \"#utility.yul\":18107:18184   */\n      iszero\n      tag_658\n      jumpi\n        /* \"#utility.yul\":18159:18168   */\n      dup3\n        /* \"#utility.yul\":18154:18157   */\n      dup8\n        /* \"#utility.yul\":18150:18169   */\n      add\n        /* \"#utility.yul\":18144:18170   */\n      mload\n        /* \"#utility.yul\":18135:18170   */\n      swap1\n      pop\n        /* \"#utility.yul\":18107:18184   */\n    tag_658:\n        /* \"#utility.yul\":18210:18277   */\n      tag_659\n        /* \"#utility.yul\":18270:18276   */\n      dup6\n        /* \"#utility.yul\":18263:18268   */\n      dup3\n        /* \"#utility.yul\":18210:18277   */\n      tag_443\n      jump\t// in\n    tag_659:\n        /* \"#utility.yul\":18204:18208   */\n      dup7\n        /* \"#utility.yul\":18197:18278   */\n      sstore\n        /* \"#utility.yul\":18066:18288   */\n      pop\n        /* \"#utility.yul\":17401:18288   */\n      jump(tag_656)\n        /* \"#utility.yul\":17431:18049   */\n    tag_657:\n        /* \"#utility.yul\":17483:17487   */\n      0x1f\n        /* \"#utility.yul\":17479:17488   */\n      not\n        /* \"#utility.yul\":17471:17477   */\n      dup5\n        /* \"#utility.yul\":17467:17489   */\n      and\n        /* \"#utility.yul\":17517:17554   */\n      tag_660\n        /* \"#utility.yul\":17549:17553   */\n      dup7\n        /* \"#utility.yul\":17517:17554   */\n      tag_429\n      jump\t// in\n    tag_660:\n        /* \"#utility.yul\":17576:17577   */\n      0x00\n        /* \"#utility.yul\":17590:17798   */\n    tag_661:\n        /* \"#utility.yul\":17604:17611   */\n      dup3\n        /* \"#utility.yul\":17601:17602   */\n      dup2\n        /* \"#utility.yul\":17598:17612   */\n      lt\n        /* \"#utility.yul\":17590:17798   */\n      iszero\n      tag_663\n      jumpi\n        /* \"#utility.yul\":17683:17692   */\n      dup5\n        /* \"#utility.yul\":17678:17681   */\n      dup10\n        /* \"#utility.yul\":17674:17693   */\n      add\n        /* \"#utility.yul\":17668:17694   */\n      mload\n        /* \"#utility.yul\":17660:17666   */\n      dup3\n        /* \"#utility.yul\":17653:17695   */\n      sstore\n        /* \"#utility.yul\":17734:17735   */\n      0x01\n        /* \"#utility.yul\":17726:17732   */\n      dup3\n        /* \"#utility.yul\":17722:17736   */\n      add\n        /* \"#utility.yul\":17712:17736   */\n      swap2\n      pop\n        /* \"#utility.yul\":17781:17783   */\n      0x20\n        /* \"#utility.yul\":17770:17779   */\n      dup6\n        /* \"#utility.yul\":17766:17784   */\n      add\n        /* \"#utility.yul\":17753:17784   */\n      swap5\n      pop\n        /* \"#utility.yul\":17627:17631   */\n      0x20\n        /* \"#utility.yul\":17624:17625   */\n      dup2\n        /* \"#utility.yul\":17620:17632   */\n      add\n        /* \"#utility.yul\":17615:17632   */\n      swap1\n      pop\n        /* \"#utility.yul\":17590:17798   */\n      jump(tag_661)\n    tag_663:\n        /* \"#utility.yul\":17826:17832   */\n      dup7\n        /* \"#utility.yul\":17817:17824   */\n      dup4\n        /* \"#utility.yul\":17814:17833   */\n      lt\n        /* \"#utility.yul\":17811:17990   */\n      iszero\n      tag_664\n      jumpi\n        /* \"#utility.yul\":17884:17893   */\n      dup5\n        /* \"#utility.yul\":17879:17882   */\n      dup10\n        /* \"#utility.yul\":17875:17894   */\n      add\n        /* \"#utility.yul\":17869:17895   */\n      mload\n        /* \"#utility.yul\":17927:17975   */\n      tag_665\n        /* \"#utility.yul\":17969:17973   */\n      0x1f\n        /* \"#utility.yul\":17961:17967   */\n      dup10\n        /* \"#utility.yul\":17957:17974   */\n      and\n        /* \"#utility.yul\":17946:17955   */\n      dup3\n        /* \"#utility.yul\":17927:17975   */\n      tag_442\n      jump\t// in\n    tag_665:\n        /* \"#utility.yul\":17919:17925   */\n      dup4\n        /* \"#utility.yul\":17912:17976   */\n      sstore\n        /* \"#utility.yul\":17834:17990   */\n      pop\n        /* \"#utility.yul\":17811:17990   */\n    tag_664:\n        /* \"#utility.yul\":18036:18037   */\n      0x01\n        /* \"#utility.yul\":18032:18033   */\n      0x02\n        /* \"#utility.yul\":18024:18030   */\n      dup9\n        /* \"#utility.yul\":18020:18034   */\n      mul\n        /* \"#utility.yul\":18016:18038   */\n      add\n        /* \"#utility.yul\":18010:18014   */\n      dup9\n        /* \"#utility.yul\":18003:18039   */\n      sstore\n        /* \"#utility.yul\":17438:18049   */\n      pop\n      pop\n      pop\n        /* \"#utility.yul\":17401:18288   */\n    tag_656:\n      pop\n        /* \"#utility.yul\":16991:18294   */\n      pop\n      pop\n      pop\n        /* \"#utility.yul\":16899:18294   */\n      pop\n      pop\n      jump\t// out\n        /* \"#utility.yul\":18300:18723   */\n    tag_165:\n        /* \"#utility.yul\":18441:18445   */\n      0x00\n        /* \"#utility.yul\":18479:18481   */\n      0x40\n        /* \"#utility.yul\":18468:18477   */\n      dup3\n        /* \"#utility.yul\":18464:18482   */\n      add\n        /* \"#utility.yul\":18456:18482   */\n      swap1\n      pop\n        /* \"#utility.yul\":18528:18537   */\n      dup2\n        /* \"#utility.yul\":18522:18526   */\n      dup2\n        /* \"#utility.yul\":18518:18538   */\n      sub\n        /* \"#utility.yul\":18514:18515   */\n      0x00\n        /* \"#utility.yul\":18503:18512   */\n      dup4\n        /* \"#utility.yul\":18499:18516   */\n      add\n        /* \"#utility.yul\":18492:18539   */\n      mstore\n        /* \"#utility.yul\":18556:18634   */\n      tag_667\n        /* \"#utility.yul\":18629:18633   */\n      dup2\n        /* \"#utility.yul\":18620:18626   */\n      dup6\n        /* \"#utility.yul\":18556:18634   */\n      tag_394\n      jump\t// in\n    tag_667:\n        /* \"#utility.yul\":18548:18634   */\n      swap1\n      pop\n        /* \"#utility.yul\":18644:18716   */\n      tag_668\n        /* \"#utility.yul\":18712:18714   */\n      0x20\n        /* \"#utility.yul\":18701:18710   */\n      dup4\n        /* \"#utility.yul\":18697:18715   */\n      add\n        /* \"#utility.yul\":18688:18694   */\n      dup5\n        /* \"#utility.yul\":18644:18716   */\n      tag_419\n      jump\t// in\n    tag_668:\n        /* \"#utility.yul\":18300:18723   */\n      swap4\n      swap3\n      pop\n      pop\n      pop\n      jump\t// out\n        /* \"#utility.yul\":18729:18891   */\n    tag_444:\n        /* \"#utility.yul\":18869:18883   */\n      0x46656520746f6f20686967680000000000000000000000000000000000000000\n        /* \"#utility.yul\":18865:18866   */\n      0x00\n        /* \"#utility.yul\":18857:18863   */\n      dup3\n        /* \"#utility.yul\":18853:18867   */\n      add\n        /* \"#utility.yul\":18846:18884   */\n      mstore\n        /* \"#utility.yul\":18729:18891   */\n      pop\n      jump\t// out\n        /* \"#utility.yul\":18897:19263   */\n    tag_445:\n        /* \"#utility.yul\":19039:19042   */\n      0x00\n        /* \"#utility.yul\":19060:19127   */\n      tag_671\n        /* \"#utility.yul\":19124:19126   */\n      0x0c\n        /* \"#utility.yul\":19119:19122   */\n      dup4\n        /* \"#utility.yul\":19060:19127   */\n      tag_391\n      jump\t// in\n    tag_671:\n        /* \"#utility.yul\":19053:19127   */\n      swap2\n      pop\n        /* \"#utility.yul\":19136:19229   */\n      tag_672\n        /* \"#utility.yul\":19225:19228   */\n      dup3\n        /* \"#utility.yul\":19136:19229   */\n      tag_444\n      jump\t// in\n    tag_672:\n        /* \"#utility.yul\":19254:19256   */\n      0x20\n        /* \"#utility.yul\":19249:19252   */\n      dup3\n        /* \"#utility.yul\":19245:19257   */\n      add\n        /* \"#utility.yul\":19238:19257   */\n      swap1\n      pop\n        /* \"#utility.yul\":18897:19263   */\n      swap2\n      swap1\n      pop\n      jump\t// out\n        /* \"#utility.yul\":19269:19688   */\n    tag_188:\n        /* \"#utility.yul\":19435:19439   */\n      0x00\n        /* \"#utility.yul\":19473:19475   */\n      0x20\n        /* \"#utility.yul\":19462:19471   */\n      dup3\n        /* \"#utility.yul\":19458:19476   */\n      add\n        /* \"#utility.yul\":19450:19476   */\n      swap1\n      pop\n        /* \"#utility.yul\":19522:19531   */\n      dup2\n        /* \"#utility.yul\":19516:19520   */\n      dup2\n        /* \"#utility.yul\":19512:19532   */\n      sub\n        /* \"#utility.yul\":19508:19509   */\n      0x00\n        /* \"#utility.yul\":19497:19506   */\n      dup4\n        /* \"#utility.yul\":19493:19510   */\n      add\n        /* \"#utility.yul\":19486:19533   */\n      mstore\n        /* \"#utility.yul\":19550:19681   */\n      tag_674\n        /* \"#utility.yul\":19676:19680   */\n      dup2\n        /* \"#utility.yul\":19550:19681   */\n      tag_445\n      jump\t// in\n    tag_674:\n        /* \"#utility.yul\":19542:19681   */\n      swap1\n      pop\n        /* \"#utility.yul\":19269:19688   */\n      swap2\n      swap1\n      pop\n      jump\t// out\n        /* \"#utility.yul\":19694:19868   */\n    tag_446:\n        /* \"#utility.yul\":19834:19860   */\n      0x496e76616c696420747265617375727920616464726573730000000000000000\n        /* \"#utility.yul\":19830:19831   */\n      0x00\n        /* \"#utility.yul\":19822:19828   */\n      dup3\n        /* \"#utility.yul\":19818:19832   */\n      add\n        /* \"#utility.yul\":19811:19861   */\n      mstore\n        /* \"#utility.yul\":19694:19868   */\n      pop\n      jump\t// out\n        /* \"#utility.yul\":19874:20240   */\n    tag_447:\n        /* \"#utility.yul\":20016:20019   */\n      0x00\n        /* \"#utility.yul\":20037:20104   */\n      tag_677\n        /* \"#utility.yul\":20101:20103   */\n      0x18\n        /* \"#utility.yul\":20096:20099   */\n      dup4\n        /* \"#utility.yul\":20037:20104   */\n      tag_391\n      jump\t// in\n    tag_677:\n        /* \"#utility.yul\":20030:20104   */\n      swap2\n      pop\n        /* \"#utility.yul\":20113:20206   */\n      tag_678\n        /* \"#utility.yul\":20202:20205   */\n      dup3\n        /* \"#utility.yul\":20113:20206   */\n      tag_446\n      jump\t// in\n    tag_678:\n        /* \"#utility.yul\":20231:20233   */\n      0x20\n        /* \"#utility.yul\":20226:20229   */\n      dup3\n        /* \"#utility.yul\":20222:20234   */\n      add\n        /* \"#utility.yul\":20215:20234   */\n      swap1\n      pop\n        /* \"#utility.yul\":19874:20240   */\n      swap2\n      swap1\n      pop\n      jump\t// out\n        /* \"#utility.yul\":20246:20665   */\n    tag_203:\n        /* \"#utility.yul\":20412:20416   */\n      0x00\n        /* \"#utility.yul\":20450:20452   */\n      0x20\n        /* \"#utility.yul\":20439:20448   */\n      dup3\n        /* \"#utility.yul\":20435:20453   */\n      add\n        /* \"#utility.yul\":20427:20453   */\n      swap1\n      pop\n        /* \"#utility.yul\":20499:20508   */\n      dup2\n        /* \"#utility.yul\":20493:20497   */\n      dup2\n        /* \"#utility.yul\":20489:20509   */\n      sub\n        /* \"#utility.yul\":20485:20486   */\n      0x00\n        /* \"#utility.yul\":20474:20483   */\n      dup4\n        /* \"#utility.yul\":20470:20487   */\n      add\n        /* \"#utility.yul\":20463:20510   */\n      mstore\n        /* \"#utility.yul\":20527:20658   */\n      tag_680\n        /* \"#utility.yul\":20653:20657   */\n      dup2\n        /* \"#utility.yul\":20527:20658   */\n      tag_447\n      jump\t// in\n    tag_680:\n        /* \"#utility.yul\":20519:20658   */\n      swap1\n      pop\n        /* \"#utility.yul\":20246:20665   */\n      swap2\n      swap1\n      pop\n      jump\t// out\n        /* \"#utility.yul\":20671:20844   */\n    tag_448:\n        /* \"#utility.yul\":20811:20836   */\n      0x54726561737572792077616c6c6574206e6f7420736574000000000000000000\n        /* \"#utility.yul\":20807:20808   */\n      0x00\n        /* \"#utility.yul\":20799:20805   */\n      dup3\n        /* \"#utility.yul\":20795:20809   */\n      add\n        /* \"#utility.yul\":20788:20837   */\n      mstore\n        /* \"#utility.yul\":20671:20844   */\n      pop\n      jump\t// out\n        /* \"#utility.yul\":20850:21216   */\n    tag_449:\n        /* \"#utility.yul\":20992:20995   */\n      0x00\n        /* \"#utility.yul\":21013:21080   */\n      tag_683\n        /* \"#utility.yul\":21077:21079   */\n      0x17\n        /* \"#utility.yul\":21072:21075   */\n      dup4\n        /* \"#utility.yul\":21013:21080   */\n      tag_391\n      jump\t// in\n    tag_683:\n        /* \"#utility.yul\":21006:21080   */\n      swap2\n      pop\n        /* \"#utility.yul\":21089:21182   */\n      tag_684\n        /* \"#utility.yul\":21178:21181   */\n      dup3\n        /* \"#utility.yul\":21089:21182   */\n      tag_448\n      jump\t// in\n    tag_684:\n        /* \"#utility.yul\":21207:21209   */\n      0x20\n        /* \"#utility.yul\":21202:21205   */\n      dup3\n        /* \"#utility.yul\":21198:21210   */\n      add\n        /* \"#utility.yul\":21191:21210   */\n      swap1\n      pop\n        /* \"#utility.yul\":20850:21216   */\n      swap2\n      swap1\n      pop\n      jump\t// out\n        /* \"#utility.yul\":21222:21641   */\n    tag_244:\n        /* \"#utility.yul\":21388:21392   */\n      0x00\n        /* \"#utility.yul\":21426:21428   */\n      0x20\n        /* \"#utility.yul\":21415:21424   */\n      dup3\n        /* \"#utility.yul\":21411:21429   */\n      add\n        /* \"#utility.yul\":21403:21429   */\n      swap1\n      pop\n        /* \"#utility.yul\":21475:21484   */\n      dup2\n        /* \"#utility.yul\":21469:21473   */\n      dup2\n        /* \"#utility.yul\":21465:21485   */\n      sub\n        /* \"#utility.yul\":21461:21462   */\n      0x00\n        /* \"#utility.yul\":21450:21459   */\n      dup4\n        /* \"#utility.yul\":21446:21463   */\n      add\n        /* \"#utility.yul\":21439:21486   */\n      mstore\n        /* \"#utility.yul\":21503:21634   */\n      tag_686\n        /* \"#utility.yul\":21629:21633   */\n      dup2\n        /* \"#utility.yul\":21503:21634   */\n      tag_449\n      jump\t// in\n    tag_686:\n        /* \"#utility.yul\":21495:21634   */\n      swap1\n      pop\n        /* \"#utility.yul\":21222:21641   */\n      swap2\n      swap1\n      pop\n      jump\t// out\n        /* \"#utility.yul\":21647:21815   */\n    tag_450:\n        /* \"#utility.yul\":21787:21807   */\n      0x4e6f204e474f7320726567697374657265640000000000000000000000000000\n        /* \"#utility.yul\":21783:21784   */\n      0x00\n        /* \"#utility.yul\":21775:21781   */\n      dup3\n        /* \"#utility.yul\":21771:21785   */\n      add\n        /* \"#utility.yul\":21764:21808   */\n      mstore\n        /* \"#utility.yul\":21647:21815   */\n      pop\n      jump\t// out\n        /* \"#utility.yul\":21821:22187   */\n    tag_451:\n        /* \"#utility.yul\":21963:21966   */\n      0x00\n        /* \"#utility.yul\":21984:22051   */\n      tag_689\n        /* \"#utility.yul\":22048:22050   */\n      0x12\n        /* \"#utility.yul\":22043:22046   */\n      dup4\n        /* \"#utility.yul\":21984:22051   */\n      tag_391\n      jump\t// in\n    tag_689:\n        /* \"#utility.yul\":21977:22051   */\n      swap2\n      pop\n        /* \"#utility.yul\":22060:22153   */\n      tag_690\n        /* \"#utility.yul\":22149:22152   */\n      dup3\n        /* \"#utility.yul\":22060:22153   */\n      tag_450\n      jump\t// in\n    tag_690:\n        /* \"#utility.yul\":22178:22180   */\n      0x20\n        /* \"#utility.yul\":22173:22176   */\n      dup3\n        /* \"#utility.yul\":22169:22181   */\n      add\n        /* \"#utility.yul\":22162:22181   */\n      swap1\n      pop\n        /* \"#utility.yul\":21821:22187   */\n      swap2\n      swap1\n      pop\n      jump\t// out\n        /* \"#utility.yul\":22193:22612   */\n    tag_247:\n        /* \"#utility.yul\":22359:22363   */\n      0x00\n        /* \"#utility.yul\":22397:22399   */\n      0x20\n        /* \"#utility.yul\":22386:22395   */\n      dup3\n        /* \"#utility.yul\":22382:22400   */\n      add\n        /* \"#utility.yul\":22374:22400   */\n      swap1\n      pop\n        /* \"#utility.yul\":22446:22455   */\n      dup2\n        /* \"#utility.yul\":22440:22444   */\n      dup2\n        /* \"#utility.yul\":22436:22456   */\n      sub\n        /* \"#utility.yul\":22432:22433   */\n      0x00\n        /* \"#utility.yul\":22421:22430   */\n      dup4\n        /* \"#utility.yul\":22417:22434   */\n      add\n        /* \"#utility.yul\":22410:22457   */\n      mstore\n        /* \"#utility.yul\":22474:22605   */\n      tag_692\n        /* \"#utility.yul\":22600:22604   */\n      dup2\n        /* \"#utility.yul\":22474:22605   */\n      tag_451\n      jump\t// in\n    tag_692:\n        /* \"#utility.yul\":22466:22605   */\n      swap1\n      pop\n        /* \"#utility.yul\":22193:22612   */\n      swap2\n      swap1\n      pop\n      jump\t// out\n        /* \"#utility.yul\":22618:22790   */\n    tag_452:\n        /* \"#utility.yul\":22758:22782   */\n      0x4e6f2066756e647320746f206469737472696275746500000000000000000000\n        /* \"#utility.yul\":22754:22755   */\n      0x00\n        /* \"#utility.yul\":22746:22752   */\n      dup3\n        /* \"#utility.yul\":22742:22756   */\n      add\n        /* \"#utility.yul\":22735:22783   */\n      mstore\n        /* \"#utility.yul\":22618:22790   */\n      pop\n      jump\t// out\n        /* \"#utility.yul\":22796:23162   */\n    tag_453:\n        /* \"#utility.yul\":22938:22941   */\n      0x00\n        /* \"#utility.yul\":22959:23026   */\n      tag_695\n        /* \"#utility.yul\":23023:23025   */\n      0x16\n        /* \"#utility.yul\":23018:23021   */\n      dup4\n        /* \"#utility.yul\":22959:23026   */\n      tag_391\n      jump\t// in\n    tag_695:\n        /* \"#utility.yul\":22952:23026   */\n      swap2\n      pop\n        /* \"#utility.yul\":23035:23128   */\n      tag_696\n        /* \"#utility.yul\":23124:23127   */\n      dup3\n        /* \"#utility.yul\":23035:23128   */\n      tag_452\n      jump\t// in\n    tag_696:\n        /* \"#utility.yul\":23153:23155   */\n      0x20\n        /* \"#utility.yul\":23148:23151   */\n      dup3\n        /* \"#utility.yul\":23144:23156   */\n      add\n        /* \"#utility.yul\":23137:23156   */\n      swap1\n      pop\n        /* \"#utility.yul\":22796:23162   */\n      swap2\n      swap1\n      pop\n      jump\t// out\n        /* \"#utility.yul\":23168:23587   */\n    tag_251:\n        /* \"#utility.yul\":23334:23338   */\n      0x00\n        /* \"#utility.yul\":23372:23374   */\n      0x20\n        /* \"#utility.yul\":23361:23370   */\n      dup3\n        /* \"#utility.yul\":23357:23375   */\n      add\n        /* \"#utility.yul\":23349:23375   */\n      swap1\n      pop\n        /* \"#utility.yul\":23421:23430   */\n      dup2\n        /* \"#utility.yul\":23415:23419   */\n      dup2\n        /* \"#utility.yul\":23411:23431   */\n      sub\n        /* \"#utility.yul\":23407:23408   */\n      0x00\n        /* \"#utility.yul\":23396:23405   */\n      dup4\n        /* \"#utility.yul\":23392:23409   */\n      add\n        /* \"#utility.yul\":23385:23432   */\n      mstore\n        /* \"#utility.yul\":23449:23580   */\n      tag_698\n        /* \"#utility.yul\":23575:23579   */\n      dup2\n        /* \"#utility.yul\":23449:23580   */\n      tag_453\n      jump\t// in\n    tag_698:\n        /* \"#utility.yul\":23441:23580   */\n      swap1\n      pop\n        /* \"#utility.yul\":23168:23587   */\n      swap2\n      swap1\n      pop\n      jump\t// out\n        /* \"#utility.yul\":23593:23773   */\n    tag_454:\n        /* \"#utility.yul\":23641:23718   */\n      0x4e487b7100000000000000000000000000000000000000000000000000000000\n        /* \"#utility.yul\":23638:23639   */\n      0x00\n        /* \"#utility.yul\":23631:23719   */\n      mstore\n        /* \"#utility.yul\":23738:23742   */\n      0x12\n        /* \"#utility.yul\":23735:23736   */\n      0x04\n        /* \"#utility.yul\":23728:23743   */\n      mstore\n        /* \"#utility.yul\":23762:23766   */\n      0x24\n        /* \"#utility.yul\":23759:23760   */\n      0x00\n        /* \"#utility.yul\":23752:23767   */\n      revert\n        /* \"#utility.yul\":23779:23964   */\n    tag_253:\n        /* \"#utility.yul\":23819:23820   */\n      0x00\n        /* \"#utility.yul\":23836:23856   */\n      tag_701\n        /* \"#utility.yul\":23854:23855   */\n      dup3\n        /* \"#utility.yul\":23836:23856   */\n      tag_402\n      jump\t// in\n    tag_701:\n        /* \"#utility.yul\":23831:23856   */\n      swap2\n      pop\n        /* \"#utility.yul\":23870:23890   */\n      tag_702\n        /* \"#utility.yul\":23888:23889   */\n      dup4\n        /* \"#utility.yul\":23870:23890   */\n      tag_402\n      jump\t// in\n    tag_702:\n        /* \"#utility.yul\":23865:23890   */\n      swap3\n      pop\n        /* \"#utility.yul\":23909:23910   */\n      dup3\n        /* \"#utility.yul\":23899:23934   */\n      tag_703\n      jumpi\n        /* \"#utility.yul\":23914:23932   */\n      tag_704\n      tag_454\n      jump\t// in\n    tag_704:\n        /* \"#utility.yul\":23899:23934   */\n    tag_703:\n        /* \"#utility.yul\":23956:23957   */\n      dup3\n        /* \"#utility.yul\":23953:23954   */\n      dup3\n        /* \"#utility.yul\":23949:23958   */\n      div\n        /* \"#utility.yul\":23944:23958   */\n      swap1\n      pop\n        /* \"#utility.yul\":23779:23964   */\n      swap3\n      swap2\n      pop\n      pop\n      jump\t// out\n        /* \"#utility.yul\":23970:24192   */\n    tag_455:\n        /* \"#utility.yul\":24110:24144   */\n      0x496e73756666696369656e742066756e647320666f7220646973747269627574\n        /* \"#utility.yul\":24106:24107   */\n      0x00\n        /* \"#utility.yul\":24098:24104   */\n      dup3\n        /* \"#utility.yul\":24094:24108   */\n      add\n        /* \"#utility.yul\":24087:24145   */\n      mstore\n        /* \"#utility.yul\":24179:24184   */\n      0x696f6e0000000000000000000000000000000000000000000000000000000000\n        /* \"#utility.yul\":24174:24176   */\n      0x20\n        /* \"#utility.yul\":24166:24172   */\n      dup3\n        /* \"#utility.yul\":24162:24177   */\n      add\n        /* \"#utility.yul\":24155:24185   */\n      mstore\n        /* \"#utility.yul\":23970:24192   */\n      pop\n      jump\t// out\n        /* \"#utility.yul\":24198:24564   */\n    tag_456:\n        /* \"#utility.yul\":24340:24343   */\n      0x00\n        /* \"#utility.yul\":24361:24428   */\n      tag_707\n        /* \"#utility.yul\":24425:24427   */\n      0x23\n        /* \"#utility.yul\":24420:24423   */\n      dup4\n        /* \"#utility.yul\":24361:24428   */\n      tag_391\n      jump\t// in\n    tag_707:\n        /* \"#utility.yul\":24354:24428   */\n      swap2\n      pop\n        /* \"#utility.yul\":24437:24530   */\n      tag_708\n        /* \"#utility.yul\":24526:24529   */\n      dup3\n        /* \"#utility.yul\":24437:24530   */\n      tag_455\n      jump\t// in\n    tag_708:\n        /* \"#utility.yul\":24555:24557   */\n      0x40\n        /* \"#utility.yul\":24550:24553   */\n      dup3\n        /* \"#utility.yul\":24546:24558   */\n      add\n        /* \"#utility.yul\":24539:24558   */\n      swap1\n      pop\n        /* \"#utility.yul\":24198:24564   */\n      swap2\n      swap1\n      pop\n      jump\t// out\n        /* \"#utility.yul\":24570:24989   */\n    tag_256:\n        /* \"#utility.yul\":24736:24740   */\n      0x00\n        /* \"#utility.yul\":24774:24776   */\n      0x20\n        /* \"#utility.yul\":24763:24772   */\n      dup3\n        /* \"#utility.yul\":24759:24777   */\n      add\n        /* \"#utility.yul\":24751:24777   */\n      swap1\n      pop\n        /* \"#utility.yul\":24823:24832   */\n      dup2\n        /* \"#utility.yul\":24817:24821   */\n      dup2\n        /* \"#utility.yul\":24813:24833   */\n      sub\n        /* \"#utility.yul\":24809:24810   */\n      0x00\n        /* \"#utility.yul\":24798:24807   */\n      dup4\n        /* \"#utility.yul\":24794:24811   */\n      add\n        /* \"#utility.yul\":24787:24834   */\n      mstore\n        /* \"#utility.yul\":24851:24982   */\n      tag_710\n        /* \"#utility.yul\":24977:24981   */\n      dup2\n        /* \"#utility.yul\":24851:24982   */\n      tag_456\n      jump\t// in\n    tag_710:\n        /* \"#utility.yul\":24843:24982   */\n      swap1\n      pop\n        /* \"#utility.yul\":24570:24989   */\n      swap2\n      swap1\n      pop\n      jump\t// out\n        /* \"#utility.yul\":24995:25437   */\n    tag_275:\n        /* \"#utility.yul\":25144:25148   */\n      0x00\n        /* \"#utility.yul\":25182:25184   */\n      0x60\n        /* \"#utility.yul\":25171:25180   */\n      dup3\n        /* \"#utility.yul\":25167:25185   */\n      add\n        /* \"#utility.yul\":25159:25185   */\n      swap1\n      pop\n        /* \"#utility.yul\":25195:25266   */\n      tag_712\n        /* \"#utility.yul\":25263:25264   */\n      0x00\n        /* \"#utility.yul\":25252:25261   */\n      dup4\n        /* \"#utility.yul\":25248:25265   */\n      add\n        /* \"#utility.yul\":25239:25245   */\n      dup7\n        /* \"#utility.yul\":25195:25266   */\n      tag_419\n      jump\t// in\n    tag_712:\n        /* \"#utility.yul\":25276:25348   */\n      tag_713\n        /* \"#utility.yul\":25344:25346   */\n      0x20\n        /* \"#utility.yul\":25333:25342   */\n      dup4\n        /* \"#utility.yul\":25329:25347   */\n      add\n        /* \"#utility.yul\":25320:25326   */\n      dup6\n        /* \"#utility.yul\":25276:25348   */\n      tag_407\n      jump\t// in\n    tag_713:\n        /* \"#utility.yul\":25358:25430   */\n      tag_714\n        /* \"#utility.yul\":25426:25428   */\n      0x40\n        /* \"#utility.yul\":25415:25424   */\n      dup4\n        /* \"#utility.yul\":25411:25429   */\n      add\n        /* \"#utility.yul\":25402:25408   */\n      dup5\n        /* \"#utility.yul\":25358:25430   */\n      tag_407\n      jump\t// in\n    tag_714:\n        /* \"#utility.yul\":24995:25437   */\n      swap5\n      swap4\n      pop\n      pop\n      pop\n      pop\n      jump\t// out\n        /* \"#utility.yul\":25443:25663   */\n    tag_457:\n        /* \"#utility.yul\":25583:25617   */\n      0x546869732077616c6c657420697320616c726561647920726567697374657265\n        /* \"#utility.yul\":25579:25580   */\n      0x00\n        /* \"#utility.yul\":25571:25577   */\n      dup3\n        /* \"#utility.yul\":25567:25581   */\n      add\n        /* \"#utility.yul\":25560:25618   */\n      mstore\n        /* \"#utility.yul\":25652:25655   */\n      0x6400000000000000000000000000000000000000000000000000000000000000\n        /* \"#utility.yul\":25647:25649   */\n      0x20\n        /* \"#utility.yul\":25639:25645   */\n      dup3\n        /* \"#utility.yul\":25635:25650   */\n      add\n        /* \"#utility.yul\":25628:25656   */\n      mstore\n        /* \"#utility.yul\":25443:25663   */\n      pop\n      jump\t// out\n        /* \"#utility.yul\":25669:26035   */\n    tag_458:\n        /* \"#utility.yul\":25811:25814   */\n      0x00\n        /* \"#utility.yul\":25832:25899   */\n      tag_717\n        /* \"#utility.yul\":25896:25898   */\n      0x21\n        /* \"#utility.yul\":25891:25894   */\n      dup4\n        /* \"#utility.yul\":25832:25899   */\n      tag_391\n      jump\t// in\n    tag_717:\n        /* \"#utility.yul\":25825:25899   */\n      swap2\n      pop\n        /* \"#utility.yul\":25908:26001   */\n      tag_718\n        /* \"#utility.yul\":25997:26000   */\n      dup3\n        /* \"#utility.yul\":25908:26001   */\n      tag_457\n      jump\t// in\n    tag_718:\n        /* \"#utility.yul\":26026:26028   */\n      0x40\n        /* \"#utility.yul\":26021:26024   */\n      dup3\n        /* \"#utility.yul\":26017:26029   */\n      add\n        /* \"#utility.yul\":26010:26029   */\n      swap1\n      pop\n        /* \"#utility.yul\":25669:26035   */\n      swap2\n      swap1\n      pop\n      jump\t// out\n        /* \"#utility.yul\":26041:26460   */\n    tag_295:\n        /* \"#utility.yul\":26207:26211   */\n      0x00\n        /* \"#utility.yul\":26245:26247   */\n      0x20\n        /* \"#utility.yul\":26234:26243   */\n      dup3\n        /* \"#utility.yul\":26230:26248   */\n      add\n        /* \"#utility.yul\":26222:26248   */\n      swap1\n      pop\n        /* \"#utility.yul\":26294:26303   */\n      dup2\n        /* \"#utility.yul\":26288:26292   */\n      dup2\n        /* \"#utility.yul\":26284:26304   */\n      sub\n        /* \"#utility.yul\":26280:26281   */\n      0x00\n        /* \"#utility.yul\":26269:26278   */\n      dup4\n        /* \"#utility.yul\":26265:26282   */\n      add\n        /* \"#utility.yul\":26258:26305   */\n      mstore\n        /* \"#utility.yul\":26322:26453   */\n      tag_720\n        /* \"#utility.yul\":26448:26452   */\n      dup2\n        /* \"#utility.yul\":26322:26453   */\n      tag_458\n      jump\t// in\n    tag_720:\n        /* \"#utility.yul\":26314:26453   */\n      swap1\n      pop\n        /* \"#utility.yul\":26041:26460   */\n      swap2\n      swap1\n      pop\n      jump\t// out\n        /* \"#utility.yul\":26466:26559   */\n    tag_459:\n        /* \"#utility.yul\":26502:26509   */\n      0x00\n        /* \"#utility.yul\":26542:26552   */\n      0xffffffff\n        /* \"#utility.yul\":26535:26540   */\n      dup3\n        /* \"#utility.yul\":26531:26553   */\n      and\n        /* \"#utility.yul\":26520:26553   */\n      swap1\n      pop\n        /* \"#utility.yul\":26466:26559   */\n      swap2\n      swap1\n      pop\n      jump\t// out\n        /* \"#utility.yul\":26565:26740   */\n    tag_324:\n        /* \"#utility.yul\":26603:26606   */\n      0x00\n        /* \"#utility.yul\":26626:26649   */\n      tag_723\n        /* \"#utility.yul\":26643:26648   */\n      dup3\n        /* \"#utility.yul\":26626:26649   */\n      tag_459\n      jump\t// in\n    tag_723:\n        /* \"#utility.yul\":26617:26649   */\n      swap2\n      pop\n        /* \"#utility.yul\":26671:26681   */\n      0xffffffff\n        /* \"#utility.yul\":26664:26669   */\n      dup3\n        /* \"#utility.yul\":26661:26682   */\n      sub\n        /* \"#utility.yul\":26658:26705   */\n      tag_724\n      jumpi\n        /* \"#utility.yul\":26685:26703   */\n      tag_725\n      tag_428\n      jump\t// in\n    tag_725:\n        /* \"#utility.yul\":26658:26705   */\n    tag_724:\n        /* \"#utility.yul\":26732:26733   */\n      0x01\n        /* \"#utility.yul\":26725:26730   */\n      dup3\n        /* \"#utility.yul\":26721:26734   */\n      add\n        /* \"#utility.yul\":26714:26734   */\n      swap1\n      pop\n        /* \"#utility.yul\":26565:26740   */\n      swap2\n      swap1\n      pop\n      jump\t// out\n        /* \"#utility.yul\":26746:26937   */\n    tag_328:\n        /* \"#utility.yul\":26786:26789   */\n      0x00\n        /* \"#utility.yul\":26805:26825   */\n      tag_727\n        /* \"#utility.yul\":26823:26824   */\n      dup3\n        /* \"#utility.yul\":26805:26825   */\n      tag_402\n      jump\t// in\n    tag_727:\n        /* \"#utility.yul\":26800:26825   */\n      swap2\n      pop\n        /* \"#utility.yul\":26839:26859   */\n      tag_728\n        /* \"#utility.yul\":26857:26858   */\n      dup4\n        /* \"#utility.yul\":26839:26859   */\n      tag_402\n      jump\t// in\n    tag_728:\n        /* \"#utility.yul\":26834:26859   */\n      swap3\n      pop\n        /* \"#utility.yul\":26882:26883   */\n      dup3\n        /* \"#utility.yul\":26879:26880   */\n      dup3\n        /* \"#utility.yul\":26875:26884   */\n      add\n        /* \"#utility.yul\":26868:26884   */\n      swap1\n      pop\n        /* \"#utility.yul\":26903:26906   */\n      dup1\n        /* \"#utility.yul\":26900:26901   */\n      dup3\n        /* \"#utility.yul\":26897:26907   */\n      gt\n        /* \"#utility.yul\":26894:26930   */\n      iszero\n      tag_729\n      jumpi\n        /* \"#utility.yul\":26910:26928   */\n      tag_730\n      tag_428\n      jump\t// in\n    tag_730:\n        /* \"#utility.yul\":26894:26930   */\n    tag_729:\n        /* \"#utility.yul\":26746:26937   */\n      swap3\n      swap2\n      pop\n      pop\n      jump\t// out\n        /* \"#utility.yul\":26943:27353   */\n    tag_349:\n        /* \"#utility.yul\":26983:26990   */\n      0x00\n        /* \"#utility.yul\":27006:27026   */\n      tag_732\n        /* \"#utility.yul\":27024:27025   */\n      dup3\n        /* \"#utility.yul\":27006:27026   */\n      tag_402\n      jump\t// in\n    tag_732:\n        /* \"#utility.yul\":27001:27026   */\n      swap2\n      pop\n        /* \"#utility.yul\":27040:27060   */\n      tag_733\n        /* \"#utility.yul\":27058:27059   */\n      dup4\n        /* \"#utility.yul\":27040:27060   */\n      tag_402\n      jump\t// in\n    tag_733:\n        /* \"#utility.yul\":27035:27060   */\n      swap3\n      pop\n        /* \"#utility.yul\":27095:27096   */\n      dup3\n        /* \"#utility.yul\":27092:27093   */\n      dup3\n        /* \"#utility.yul\":27088:27097   */\n      mul\n        /* \"#utility.yul\":27117:27147   */\n      tag_734\n        /* \"#utility.yul\":27135:27146   */\n      dup2\n        /* \"#utility.yul\":27117:27147   */\n      tag_402\n      jump\t// in\n    tag_734:\n        /* \"#utility.yul\":27106:27147   */\n      swap2\n      pop\n        /* \"#utility.yul\":27296:27297   */\n      dup3\n        /* \"#utility.yul\":27287:27294   */\n      dup3\n        /* \"#utility.yul\":27283:27298   */\n      div\n        /* \"#utility.yul\":27280:27281   */\n      dup5\n        /* \"#utility.yul\":27277:27299   */\n      eq\n        /* \"#utility.yul\":27257:27258   */\n      dup4\n        /* \"#utility.yul\":27250:27259   */\n      iszero\n        /* \"#utility.yul\":27230:27313   */\n      or\n        /* \"#utility.yul\":27207:27346   */\n      tag_735\n      jumpi\n        /* \"#utility.yul\":27326:27344   */\n      tag_736\n      tag_428\n      jump\t// in\n    tag_736:\n        /* \"#utility.yul\":27207:27346   */\n    tag_735:\n        /* \"#utility.yul\":26991:27353   */\n      pop\n        /* \"#utility.yul\":26943:27353   */\n      swap3\n      swap2\n      pop\n      pop\n      jump\t// out\n        /* \"#utility.yul\":27359:27553   */\n    tag_352:\n        /* \"#utility.yul\":27399:27403   */\n      0x00\n        /* \"#utility.yul\":27419:27439   */\n      tag_738\n        /* \"#utility.yul\":27437:27438   */\n      dup3\n        /* \"#utility.yul\":27419:27439   */\n      tag_402\n      jump\t// in\n    tag_738:\n        /* \"#utility.yul\":27414:27439   */\n      swap2\n      pop\n        /* \"#utility.yul\":27453:27473   */\n      tag_739\n        /* \"#utility.yul\":27471:27472   */\n      dup4\n        /* \"#utility.yul\":27453:27473   */\n      tag_402\n      jump\t// in\n    tag_739:\n        /* \"#utility.yul\":27448:27473   */\n      swap3\n      pop\n        /* \"#utility.yul\":27497:27498   */\n      dup3\n        /* \"#utility.yul\":27494:27495   */\n      dup3\n        /* \"#utility.yul\":27490:27499   */\n      sub\n        /* \"#utility.yul\":27482:27499   */\n      swap1\n      pop\n        /* \"#utility.yul\":27521:27522   */\n      dup2\n        /* \"#utility.yul\":27515:27519   */\n      dup2\n        /* \"#utility.yul\":27512:27523   */\n      gt\n        /* \"#utility.yul\":27509:27546   */\n      iszero\n      tag_740\n      jumpi\n        /* \"#utility.yul\":27526:27544   */\n      tag_741\n      tag_428\n      jump\t// in\n    tag_741:\n        /* \"#utility.yul\":27509:27546   */\n    tag_740:\n        /* \"#utility.yul\":27359:27553   */\n      swap3\n      swap2\n      pop\n      pop\n      jump\t// out\n        /* \"#utility.yul\":27559:27739   */\n    tag_381:\n        /* \"#utility.yul\":27607:27684   */\n      0x4e487b7100000000000000000000000000000000000000000000000000000000\n        /* \"#utility.yul\":27604:27605   */\n      0x00\n        /* \"#utility.yul\":27597:27685   */\n      mstore\n        /* \"#utility.yul\":27704:27708   */\n      0x31\n        /* \"#utility.yul\":27701:27702   */\n      0x04\n        /* \"#utility.yul\":27694:27709   */\n      mstore\n        /* \"#utility.yul\":27728:27732   */\n      0x24\n        /* \"#utility.yul\":27725:27726   */\n      0x00\n        /* \"#utility.yul\":27718:27733   */\n      revert\n\n    auxdata: 0xa264697066735822122083830a84c94b7ad75273c990d00669415092887efab0d413abb59fd6be64004264736f6c63430008140033\n}\n",
				"bytecode": {
					"linkReferences": {},
					"object": "6080604052600560065534801562000015575f80fd5b50336040518060400160405280600681526020017f48756d41696400000000000000000000000000000000000000000000000000008152506040518060400160405280600381526020017f48554d00000000000000000000000000000000000000000000000000000000008152508160039081620000949190620009c1565b508060049081620000a69190620009c1565b5050505f73ffffffffffffffffffffffffffffffffffffffff168173ffffffffffffffffffffffffffffffffffffffff16036200011c575f6040517f1e4fbdf700000000000000000000000000000000000000000000000000000000815260040162000113919062000ae8565b60405180910390fd5b6200012d81620001c960201b60201c565b50600160095f3373ffffffffffffffffffffffffffffffffffffffff1673ffffffffffffffffffffffffffffffffffffffff1681526020019081526020015f205f6101000a81548160ff021916908315150217905550620001c333620001986200028c60201b60201c565b600a620001a6919062000c8c565b633b9aca00620001b7919062000cdc565b6200029460201b60201c565b62000ede565b5f60055f9054906101000a900473ffffffffffffffffffffffffffffffffffffffff1690508160055f6101000a81548173ffffffffffffffffffffffffffffffffffffffff021916908373ffffffffffffffffffffffffffffffffffffffff1602179055508173ffffffffffffffffffffffffffffffffffffffff168173ffffffffffffffffffffffffffffffffffffffff167f8be0079c531659141344cd1fd0a4f28419497f9722a3daafe3b4186f6b6457e060405160405180910390a35050565b5f6012905090565b5f73ffffffffffffffffffffffffffffffffffffffff168273ffffffffffffffffffffffffffffffffffffffff160362000307575f6040517fec442f05000000000000000000000000000000000000000000000000000000008152600401620002fe919062000ae8565b60405180910390fd5b6200031a5f83836200031e60201b60201c565b5050565b60095f8473ffffffffffffffffffffffffffffffffffffffff1673ffffffffffffffffffffffffffffffffffffffff1681526020019081526020015f205f9054906101000a900460ff1680620003ba575060095f8373ffffffffffffffffffffffffffffffffffffffff1673ffffffffffffffffffffffffffffffffffffffff1681526020019081526020015f205f9054906101000a900460ff165b80620003c757505f600654145b15620003e657620003e08383836200053960201b60201c565b62000534565b5f6103e860065483620003fa919062000cdc565b62000406919062000d53565b90505f818362000417919062000d8a565b90505f80600880549050036200042f57600162000443565b6008805490508362000442919062000d53565b5b90505f6008805490508262000459919062000cdc565b8462000466919062000d8a565b90505f5b600880549050811015620004dd57620004c9886008838154811062000494576200049362000dc4565b5b905f5260205f20015f9054906101000a900473ffffffffffffffffffffffffffffffffffffffff16856200053960201b60201c565b80620004d59062000df1565b90506200046a565b505f8111156200051c576200051b87600a5f9054906101000a900473ffffffffffffffffffffffffffffffffffffffff16836200053960201b60201c565b5b6200052f8787856200053960201b60201c565b505050505b505050565b5f73ffffffffffffffffffffffffffffffffffffffff168373ffffffffffffffffffffffffffffffffffffffff16036200058d578060025f82825462000580919062000e3d565b925050819055506200065e565b5f805f8573ffffffffffffffffffffffffffffffffffffffff1673ffffffffffffffffffffffffffffffffffffffff1681526020019081526020015f205490508181101562000619578381836040517fe450d38c000000000000000000000000000000000000000000000000000000008152600401620006109392919062000e88565b60405180910390fd5b8181035f808673ffffffffffffffffffffffffffffffffffffffff1673ffffffffffffffffffffffffffffffffffffffff1681526020019081526020015f2081905550505b5f73ffffffffffffffffffffffffffffffffffffffff168273ffffffffffffffffffffffffffffffffffffffff1603620006a7578060025f8282540392505081905550620006f1565b805f808473ffffffffffffffffffffffffffffffffffffffff1673ffffffffffffffffffffffffffffffffffffffff1681526020019081526020015f205f82825401925050819055505b8173ffffffffffffffffffffffffffffffffffffffff168373ffffffffffffffffffffffffffffffffffffffff167fddf252ad1be2c89b69c2b068fc378daa952ba7f163c4a11628f55a4df523b3ef8360405162000750919062000ec3565b60405180910390a3505050565b5f81519050919050565b7f4e487b71000000000000000000000000000000000000000000000000000000005f52604160045260245ffd5b7f4e487b71000000000000000000000000000000000000000000000000000000005f52602260045260245ffd5b5f6002820490506001821680620007d957607f821691505b602082108103620007ef57620007ee62000794565b5b50919050565b5f819050815f5260205f209050919050565b5f6020601f8301049050919050565b5f82821b905092915050565b5f60088302620008537fffffffffffffffffffffffffffffffffffffffffffffffffffffffffffffffff8262000816565b6200085f868362000816565b95508019841693508086168417925050509392505050565b5f819050919050565b5f819050919050565b5f620008a9620008a36200089d8462000877565b62000880565b62000877565b9050919050565b5f819050919050565b620008c48362000889565b620008dc620008d382620008b0565b84845462000822565b825550505050565b5f90565b620008f2620008e4565b620008ff818484620008b9565b505050565b5b8181101562000926576200091a5f82620008e8565b60018101905062000905565b5050565b601f82111562000975576200093f81620007f5565b6200094a8462000807565b810160208510156200095a578190505b62000972620009698562000807565b83018262000904565b50505b505050565b5f82821c905092915050565b5f620009975f19846008026200097a565b1980831691505092915050565b5f620009b1838362000986565b9150826002028217905092915050565b620009cc826200075d565b67ffffffffffffffff811115620009e857620009e762000767565b5b620009f48254620007c1565b62000a018282856200092a565b5f60209050601f83116001811462000a37575f841562000a22578287015190505b62000a2e8582620009a4565b86555062000a9d565b601f19841662000a4786620007f5565b5f5b8281101562000a705784890151825560018201915060208501945060208101905062000a49565b8683101562000a90578489015162000a8c601f89168262000986565b8355505b6001600288020188555050505b505050505050565b5f73ffffffffffffffffffffffffffffffffffffffff82169050919050565b5f62000ad08262000aa5565b9050919050565b62000ae28162000ac4565b82525050565b5f60208201905062000afd5f83018462000ad7565b92915050565b7f4e487b71000000000000000000000000000000000000000000000000000000005f52601160045260245ffd5b5f8160011c9050919050565b5f808291508390505b600185111562000b8d5780860481111562000b655762000b6462000b03565b5b600185161562000b755780820291505b808102905062000b858562000b30565b945062000b45565b94509492505050565b5f8262000ba7576001905062000c79565b8162000bb6575f905062000c79565b816001811462000bcf576002811462000bda5762000c10565b600191505062000c79565b60ff84111562000bef5762000bee62000b03565b5b8360020a91508482111562000c095762000c0862000b03565b5b5062000c79565b5060208310610133831016604e8410600b841016171562000c4a5782820a90508381111562000c445762000c4362000b03565b5b62000c79565b62000c59848484600162000b3c565b9250905081840481111562000c735762000c7262000b03565b5b81810290505b9392505050565b5f60ff82169050919050565b5f62000c988262000877565b915062000ca58362000c80565b925062000cd47fffffffffffffffffffffffffffffffffffffffffffffffffffffffffffffffff848462000b96565b905092915050565b5f62000ce88262000877565b915062000cf58362000877565b925082820262000d058162000877565b9150828204841483151762000d1f5762000d1e62000b03565b5b5092915050565b7f4e487b71000000000000000000000000000000000000000000000000000000005f52601260045260245ffd5b5f62000d5f8262000877565b915062000d6c8362000877565b92508262000d7f5762000d7e62000d26565b5b828204905092915050565b5f62000d968262000877565b915062000da38362000877565b925082820390508181111562000dbe5762000dbd62000b03565b5b92915050565b7f4e487b71000000000000000000000000000000000000000000000000000000005f52603260045260245ffd5b5f62000dfd8262000877565b91507fffffffffffffffffffffffffffffffffffffffffffffffffffffffffffffffff820362000e325762000e3162000b03565b5b600182019050919050565b5f62000e498262000877565b915062000e568362000877565b925082820190508082111562000e715762000e7062000b03565b5b92915050565b62000e828162000877565b82525050565b5f60608201905062000e9d5f83018662000ad7565b62000eac602083018562000e77565b62000ebb604083018462000e77565b949350505050565b5f60208201905062000ed85f83018462000e77565b92915050565b612eb88062000eec5f395ff3fe608060405234801561000f575f80fd5b5060043610610156575f3560e01c80637ce3489b116100c1578063a9059cbb1161007a578063a9059cbb146103da578063ae91470d1461040a578063dd62ed3e1461043a578063df8408fe1461046a578063f2fde38b14610486578063f9479ffa146104a257610156565b80637ce3489b146103185780637d5b6c60146103345780637fd6f15c146103645780638da5cb5b1461038257806395d89b41146103a0578063a8602fea146103be57610156565b806342966c681161011357806342966c68146102445780634618f6ac146102605780634626402b146102905780635342acb4146102ae57806370a08231146102de578063715018a61461030e57610156565b806306fdde031461015a578063095ea7b31461017857806318160ddd146101a857806323b872dd146101c6578063313ce567146101f65780633539c6b114610214575b5f80fd5b6101626104ac565b60405161016f9190612040565b60405180910390f35b610192600480360381019061018d91906120fe565b61053c565b60405161019f9190612156565b60405180910390f35b6101b061055e565b6040516101bd919061217e565b60405180910390f35b6101e060048036038101906101db9190612197565b610567565b6040516101ed9190612156565b60405180910390f35b6101fe610595565b60405161020b9190612202565b60405180910390f35b61022e60048036038101906102299190612347565b61059d565b60405161023b9190612156565b60405180910390f35b61025e600480360381019061025991906123a1565b61076e565b005b61027a600480360381019061027591906123cc565b61077b565b6040516102879190612040565b60405180910390f35b610298610816565b6040516102a59190612406565b60405180910390f35b6102c860048036038101906102c391906123cc565b61083b565b6040516102d59190612156565b60405180910390f35b6102f860048036038101906102f391906123cc565b61088d565b604051610305919061217e565b60405180910390f35b6103166108d2565b005b610332600480360381019061032d91906123a1565b6108e5565b005b61034e600480360381019061034991906123a1565b61093b565b60405161035b9190612406565b60405180910390f35b61036c610976565b604051610379919061217e565b60405180910390f35b61038a61097c565b6040516103979190612406565b60405180910390f35b6103a86109a4565b6040516103b59190612040565b60405180910390f35b6103d860048036038101906103d391906123cc565b610a34565b005b6103f460048036038101906103ef91906120fe565b610c2d565b6040516104019190612156565b60405180910390f35b610424600480360381019061041f919061241f565b610c4f565b6040516104319190612156565b60405180910390f35b610454600480360381019061044f9190612466565b610e26565b604051610461919061217e565b60405180910390f35b610484600480360381019061047f91906124ce565b610ea8565b005b6104a0600480360381019061049b91906123cc565b610f08565b005b6104aa610f8c565b005b6060600380546104bb90612539565b80601f01602080910402602001604051908101604052809291908181526020018280546104e790612539565b80156105325780601f1061050957610100808354040283529160200191610532565b820191905f5260205f20905b81548152906001019060200180831161051557829003601f168201915b5050505050905090565b5f806105466111b6565b90506105538185856111bd565b600191505092915050565b5f600254905090565b5f806105716111b6565b905061057e8582856111cf565b610589858585611262565b60019150509392505050565b5f6012905090565b5f6105a6611352565b5f73ffffffffffffffffffffffffffffffffffffffff168273ffffffffffffffffffffffffffffffffffffffff1603610614576040517f08c379a000000000000000000000000000000000000000000000000000000000815260040161060b906125b3565b60405180910390fd5b5f5b6008805490508110156106d757838051906020012060075f60088481548110610642576106416125d1565b5b905f5260205f20015f9054906101000a900473ffffffffffffffffffffffffffffffffffffffff1673ffffffffffffffffffffffffffffffffffffffff1673ffffffffffffffffffffffffffffffffffffffff1681526020019081526020015f206040516106b0919061269a565b6040518091039020036106c6575f915050610768565b806106d0906126dd565b9050610616565b508260075f8473ffffffffffffffffffffffffffffffffffffffff1673ffffffffffffffffffffffffffffffffffffffff1681526020019081526020015f20908161072291906128c1565b507fa06dde3e644f7da70b4461f791ff2766ebeacd8cae66b3e6a98637a9dacbd9008383604051610754929190612990565b60405180910390a1610765826113d9565b90505b92915050565b61077833826115d7565b50565b6007602052805f5260405f205f91509050805461079790612539565b80601f01602080910402602001604051908101604052809291908181526020018280546107c390612539565b801561080e5780601f106107e55761010080835404028352916020019161080e565b820191905f5260205f20905b8154815290600101906020018083116107f157829003601f168201915b505050505081565b600a5f9054906101000a900473ffffffffffffffffffffffffffffffffffffffff1681565b5f60095f8373ffffffffffffffffffffffffffffffffffffffff1673ffffffffffffffffffffffffffffffffffffffff1681526020019081526020015f205f9054906101000a900460ff169050919050565b5f805f8373ffffffffffffffffffffffffffffffffffffffff1673ffffffffffffffffffffffffffffffffffffffff1681526020019081526020015f20549050919050565b6108da611352565b6108e35f611656565b565b6108ed611352565b6032811115610931576040517f08c379a000000000000000000000000000000000000000000000000000000000815260040161092890612a08565b60405180910390fd5b8060068190555050565b6008818154811061094a575f80fd5b905f5260205f20015f915054906101000a900473ffffffffffffffffffffffffffffffffffffffff1681565b60065481565b5f60055f9054906101000a900473ffffffffffffffffffffffffffffffffffffffff16905090565b6060600480546109b390612539565b80601f01602080910402602001604051908101604052809291908181526020018280546109df90612539565b8015610a2a5780601f10610a0157610100808354040283529160200191610a2a565b820191905f5260205f20905b815481529060010190602001808311610a0d57829003601f168201915b5050505050905090565b610a3c611352565b5f73ffffffffffffffffffffffffffffffffffffffff168173ffffffffffffffffffffffffffffffffffffffff1603610aaa576040517f08c379a0000000000000000000000000000000000000000000000000000000008152600401610aa190612a70565b60405180910390fd5b5f73ffffffffffffffffffffffffffffffffffffffff16600a5f9054906101000a900473ffffffffffffffffffffffffffffffffffffffff1673ffffffffffffffffffffffffffffffffffffffff1614610b74575f60095f600a5f9054906101000a900473ffffffffffffffffffffffffffffffffffffffff1673ffffffffffffffffffffffffffffffffffffffff1673ffffffffffffffffffffffffffffffffffffffff1681526020019081526020015f205f6101000a81548160ff0219169083151502179055505b80600a5f6101000a81548173ffffffffffffffffffffffffffffffffffffffff021916908373ffffffffffffffffffffffffffffffffffffffff160217905550600160095f600a5f9054906101000a900473ffffffffffffffffffffffffffffffffffffffff1673ffffffffffffffffffffffffffffffffffffffff1673ffffffffffffffffffffffffffffffffffffffff1681526020019081526020015f205f6101000a81548160ff02191690831515021790555050565b5f80610c376111b6565b9050610c44818585611262565b600191505092915050565b5f610c58611352565b5f805b600880549050811015610d5657838051906020012060075f60088481548110610c8757610c866125d1565b5b905f5260205f20015f9054906101000a900473ffffffffffffffffffffffffffffffffffffffff1673ffffffffffffffffffffffffffffffffffffffff1673ffffffffffffffffffffffffffffffffffffffff1681526020019081526020015f20604051610cf5919061269a565b604051809103902003610d455760088181548110610d1657610d156125d1565b5b905f5260205f20015f9054906101000a900473ffffffffffffffffffffffffffffffffffffffff169150610d56565b80610d4f906126dd565b9050610c5b565b505f73ffffffffffffffffffffffffffffffffffffffff168173ffffffffffffffffffffffffffffffffffffffff1603610d93575f915050610e21565b60075f8273ffffffffffffffffffffffffffffffffffffffff1673ffffffffffffffffffffffffffffffffffffffff1681526020019081526020015f205f610ddb9190611f5e565b7ff7ce65b9119570713c55642c7ba09904806c36ec3da8fa5b1a8aa4a223132c2e8382604051610e0c929190612990565b60405180910390a1610e1d81611719565b9150505b919050565b5f60015f8473ffffffffffffffffffffffffffffffffffffffff1673ffffffffffffffffffffffffffffffffffffffff1681526020019081526020015f205f8373ffffffffffffffffffffffffffffffffffffffff1673ffffffffffffffffffffffffffffffffffffffff1681526020019081526020015f2054905092915050565b610eb0611352565b8060095f8473ffffffffffffffffffffffffffffffffffffffff1673ffffffffffffffffffffffffffffffffffffffff1681526020019081526020015f205f6101000a81548160ff0219169083151502179055505050565b610f10611352565b5f73ffffffffffffffffffffffffffffffffffffffff168173ffffffffffffffffffffffffffffffffffffffff1603610f80575f6040517f1e4fbdf7000000000000000000000000000000000000000000000000000000008152600401610f779190612406565b60405180910390fd5b610f8981611656565b50565b610f94611352565b5f73ffffffffffffffffffffffffffffffffffffffff16600a5f9054906101000a900473ffffffffffffffffffffffffffffffffffffffff1673ffffffffffffffffffffffffffffffffffffffff1603611023576040517f08c379a000000000000000000000000000000000000000000000000000000000815260040161101a90612ad8565b60405180910390fd5b5f60088054905090505f811161106e576040517f08c379a000000000000000000000000000000000000000000000000000000000815260040161106590612b40565b60405180910390fd5b5f611099600a5f9054906101000a900473ffffffffffffffffffffffffffffffffffffffff1661088d565b90505f81116110dd576040517f08c379a00000000000000000000000000000000000000000000000000000000081526004016110d490612ba8565b60405180910390fd5b5f82826110ea9190612bf3565b90505f811161112e576040517f08c379a000000000000000000000000000000000000000000000000000000000815260040161112590612c93565b60405180910390fd5b5f5b838110156111b05761119f600a5f9054906101000a900473ffffffffffffffffffffffffffffffffffffffff1660088381548110611171576111706125d1565b5b905f5260205f20015f9054906101000a900473ffffffffffffffffffffffffffffffffffffffff168461183f565b806111a9906126dd565b9050611130565b50505050565b5f33905090565b6111ca8383836001611a58565b505050565b5f6111da8484610e26565b90507fffffffffffffffffffffffffffffffffffffffffffffffffffffffffffffffff81101561125c578181101561124d578281836040517ffb8f41b200000000000000000000000000000000000000000000000000000000815260040161124493929190612cb1565b60405180910390fd5b61125b84848484035f611a58565b5b50505050565b5f73ffffffffffffffffffffffffffffffffffffffff168373ffffffffffffffffffffffffffffffffffffffff16036112d2575f6040517f96c6fd1e0000000000000000000000000000000000000000000000000000000081526004016112c99190612406565b60405180910390fd5b5f73ffffffffffffffffffffffffffffffffffffffff168273ffffffffffffffffffffffffffffffffffffffff1603611342575f6040517fec442f050000000000000000000000000000000000000000000000000000000081526004016113399190612406565b60405180910390fd5b61134d838383611c27565b505050565b61135a6111b6565b73ffffffffffffffffffffffffffffffffffffffff1661137861097c565b73ffffffffffffffffffffffffffffffffffffffff16146113d75761139b6111b6565b6040517f118cdaa70000000000000000000000000000000000000000000000000000000081526004016113ce9190612406565b60405180910390fd5b565b5f8073ffffffffffffffffffffffffffffffffffffffff168273ffffffffffffffffffffffffffffffffffffffff1603611448576040517f08c379a000000000000000000000000000000000000000000000000000000000815260040161143f906125b3565b60405180910390fd5b5f151560095f8473ffffffffffffffffffffffffffffffffffffffff1673ffffffffffffffffffffffffffffffffffffffff1681526020019081526020015f205f9054906101000a900460ff161515146114d7576040517f08c379a00000000000000000000000000000000000000000000000000000000081526004016114ce90612d56565b60405180910390fd5b5f5b60088054905081101561156e578273ffffffffffffffffffffffffffffffffffffffff1660088281548110611511576115106125d1565b5b905f5260205f20015f9054906101000a900473ffffffffffffffffffffffffffffffffffffffff1673ffffffffffffffffffffffffffffffffffffffff160361155d575f9150506115d2565b80611567906126dd565b90506114d9565b5061157882611e08565b600160095f8473ffffffffffffffffffffffffffffffffffffffff1673ffffffffffffffffffffffffffffffffffffffff1681526020019081526020015f205f6101000a81548160ff021916908315150217905550600190505b919050565b5f73ffffffffffffffffffffffffffffffffffffffff168273ffffffffffffffffffffffffffffffffffffffff1603611647575f6040517f96c6fd1e00000000000000000000000000000000000000000000000000000000815260040161163e9190612406565b60405180910390fd5b611652825f83611c27565b5050565b5f60055f9054906101000a900473ffffffffffffffffffffffffffffffffffffffff1690508160055f6101000a81548173ffffffffffffffffffffffffffffffffffffffff021916908373ffffffffffffffffffffffffffffffffffffffff1602179055508173ffffffffffffffffffffffffffffffffffffffff168173ffffffffffffffffffffffffffffffffffffffff167f8be0079c531659141344cd1fd0a4f28419497f9722a3daafe3b4186f6b6457e060405160405180910390a35050565b5f8073ffffffffffffffffffffffffffffffffffffffff168273ffffffffffffffffffffffffffffffffffffffff1603611788576040517f08c379a000000000000000000000000000000000000000000000000000000000815260040161177f906125b3565b60405180910390fd5b5f5b6008805490508163ffffffff161015611835578273ffffffffffffffffffffffffffffffffffffffff1660088263ffffffff16815481106117ce576117cd6125d1565b5b905f5260205f20015f9054906101000a900473ffffffffffffffffffffffffffffffffffffffff1673ffffffffffffffffffffffffffffffffffffffff16036118245761181a81611e6b565b600191505061183a565b8061182e90612d83565b905061178a565b505f90505b919050565b5f73ffffffffffffffffffffffffffffffffffffffff168373ffffffffffffffffffffffffffffffffffffffff160361188f578060025f8282546118839190612dae565b9250508190555061195d565b5f805f8573ffffffffffffffffffffffffffffffffffffffff1673ffffffffffffffffffffffffffffffffffffffff1681526020019081526020015f2054905081811015611918578381836040517fe450d38c00000000000000000000000000000000000000000000000000000000815260040161190f93929190612cb1565b60405180910390fd5b8181035f808673ffffffffffffffffffffffffffffffffffffffff1673ffffffffffffffffffffffffffffffffffffffff1681526020019081526020015f2081905550505b5f73ffffffffffffffffffffffffffffffffffffffff168273ffffffffffffffffffffffffffffffffffffffff16036119a4578060025f82825403925050819055506119ee565b805f808473ffffffffffffffffffffffffffffffffffffffff1673ffffffffffffffffffffffffffffffffffffffff1681526020019081526020015f205f82825401925050819055505b8173ffffffffffffffffffffffffffffffffffffffff168373ffffffffffffffffffffffffffffffffffffffff167fddf252ad1be2c89b69c2b068fc378daa952ba7f163c4a11628f55a4df523b3ef83604051611a4b919061217e565b60405180910390a3505050565b5f73ffffffffffffffffffffffffffffffffffffffff168473ffffffffffffffffffffffffffffffffffffffff1603611ac8575f6040517fe602df05000000000000000000000000000000000000000000000000000000008152600401611abf9190612406565b60405180910390fd5b5f73ffffffffffffffffffffffffffffffffffffffff168373ffffffffffffffffffffffffffffffffffffffff1603611b38575f6040517f94280d62000000000000000000000000000000000000000000000000000000008152600401611b2f9190612406565b60405180910390fd5b8160015f8673ffffffffffffffffffffffffffffffffffffffff1673ffffffffffffffffffffffffffffffffffffffff1681526020019081526020015f205f8573ffffffffffffffffffffffffffffffffffffffff1673ffffffffffffffffffffffffffffffffffffffff1681526020019081526020015f20819055508015611c21578273ffffffffffffffffffffffffffffffffffffffff168473ffffffffffffffffffffffffffffffffffffffff167f8c5be1e5ebec7d5bd14f71427d1e84f3dd0314c0f7b2291e5b200ac8c7c3b92584604051611c18919061217e565b60405180910390a35b50505050565b60095f8473ffffffffffffffffffffffffffffffffffffffff1673ffffffffffffffffffffffffffffffffffffffff1681526020019081526020015f205f9054906101000a900460ff1680611cc2575060095f8373ffffffffffffffffffffffffffffffffffffffff1673ffffffffffffffffffffffffffffffffffffffff1681526020019081526020015f205f9054906101000a900460ff165b80611cce57505f600654145b15611ce357611cde83838361183f565b611e03565b5f6103e860065483611cf59190612de1565b611cff9190612bf3565b90505f8183611d0e9190612e22565b90505f8060088054905003611d24576001611d36565b60088054905083611d359190612bf3565b5b90505f60088054905082611d4a9190612de1565b84611d559190612e22565b90505f5b600880549050811015611dbd57611dac8860088381548110611d7e57611d7d6125d1565b5b905f5260205f20015f9054906101000a900473ffffffffffffffffffffffffffffffffffffffff168561183f565b80611db6906126dd565b9050611d59565b505f811115611df357611df287600a5f9054906101000a900473ffffffffffffffffffffffffffffffffffffffff168361183f565b5b611dfe87878561183f565b505050505b505050565b600881908060018154018082558091505060019003905f5260205f20015f9091909190916101000a81548173ffffffffffffffffffffffffffffffffffffffff021916908373ffffffffffffffffffffffffffffffffffffffff16021790555050565b60086001600880549050611e7f9190612e22565b81548110611e9057611e8f6125d1565b5b905f5260205f20015f9054906101000a900473ffffffffffffffffffffffffffffffffffffffff1660088263ffffffff1681548110611ed257611ed16125d1565b5b905f5260205f20015f6101000a81548173ffffffffffffffffffffffffffffffffffffffff021916908373ffffffffffffffffffffffffffffffffffffffff1602179055506008805480611f2957611f28612e55565b5b600190038181905f5260205f20015f6101000a81549073ffffffffffffffffffffffffffffffffffffffff0219169055905550565b508054611f6a90612539565b5f825580601f10611f7b5750611f98565b601f0160209004905f5260205f2090810190611f979190611f9b565b5b50565b5b80821115611fb2575f815f905550600101611f9c565b5090565b5f81519050919050565b5f82825260208201905092915050565b5f5b83811015611fed578082015181840152602081019050611fd2565b5f8484015250505050565b5f601f19601f8301169050919050565b5f61201282611fb6565b61201c8185611fc0565b935061202c818560208601611fd0565b61203581611ff8565b840191505092915050565b5f6020820190508181035f8301526120588184612008565b905092915050565b5f604051905090565b5f80fd5b5f80fd5b5f73ffffffffffffffffffffffffffffffffffffffff82169050919050565b5f61209a82612071565b9050919050565b6120aa81612090565b81146120b4575f80fd5b50565b5f813590506120c5816120a1565b92915050565b5f819050919050565b6120dd816120cb565b81146120e7575f80fd5b50565b5f813590506120f8816120d4565b92915050565b5f806040838503121561211457612113612069565b5b5f612121858286016120b7565b9250506020612132858286016120ea565b9150509250929050565b5f8115159050919050565b6121508161213c565b82525050565b5f6020820190506121695f830184612147565b92915050565b612178816120cb565b82525050565b5f6020820190506121915f83018461216f565b92915050565b5f805f606084860312156121ae576121ad612069565b5b5f6121bb868287016120b7565b93505060206121cc868287016120b7565b92505060406121dd868287016120ea565b9150509250925092565b5f60ff82169050919050565b6121fc816121e7565b82525050565b5f6020820190506122155f8301846121f3565b92915050565b5f80fd5b5f80fd5b7f4e487b71000000000000000000000000000000000000000000000000000000005f52604160045260245ffd5b61225982611ff8565b810181811067ffffffffffffffff8211171561227857612277612223565b5b80604052505050565b5f61228a612060565b90506122968282612250565b919050565b5f67ffffffffffffffff8211156122b5576122b4612223565b5b6122be82611ff8565b9050602081019050919050565b828183375f83830152505050565b5f6122eb6122e68461229b565b612281565b9050828152602081018484840111156123075761230661221f565b5b6123128482856122cb565b509392505050565b5f82601f83011261232e5761232d61221b565b5b813561233e8482602086016122d9565b91505092915050565b5f806040838503121561235d5761235c612069565b5b5f83013567ffffffffffffffff81111561237a5761237961206d565b5b6123868582860161231a565b9250506020612397858286016120b7565b9150509250929050565b5f602082840312156123b6576123b5612069565b5b5f6123c3848285016120ea565b91505092915050565b5f602082840312156123e1576123e0612069565b5b5f6123ee848285016120b7565b91505092915050565b61240081612090565b82525050565b5f6020820190506124195f8301846123f7565b92915050565b5f6020828403121561243457612433612069565b5b5f82013567ffffffffffffffff8111156124515761245061206d565b5b61245d8482850161231a565b91505092915050565b5f806040838503121561247c5761247b612069565b5b5f612489858286016120b7565b925050602061249a858286016120b7565b9150509250929050565b6124ad8161213c565b81146124b7575f80fd5b50565b5f813590506124c8816124a4565b92915050565b5f80604083850312156124e4576124e3612069565b5b5f6124f1858286016120b7565b9250506020612502858286016124ba565b9150509250929050565b7f4e487b71000000000000000000000000000000000000000000000000000000005f52602260045260245ffd5b5f600282049050600182168061255057607f821691505b6020821081036125635761256261250c565b5b50919050565b7f496e76616c6964204e474f2061646472657373000000000000000000000000005f82015250565b5f61259d601383611fc0565b91506125a882612569565b602082019050919050565b5f6020820190508181035f8301526125ca81612591565b9050919050565b7f4e487b71000000000000000000000000000000000000000000000000000000005f52603260045260245ffd5b5f81905092915050565b5f819050815f5260205f209050919050565b5f815461262681612539565b61263081866125fe565b9450600182165f811461264a576001811461265f57612691565b60ff1983168652811515820286019350612691565b61266885612608565b5f5b838110156126895781548189015260018201915060208101905061266a565b838801955050505b50505092915050565b5f6126a5828461261a565b915081905092915050565b7f4e487b71000000000000000000000000000000000000000000000000000000005f52601160045260245ffd5b5f6126e7826120cb565b91507fffffffffffffffffffffffffffffffffffffffffffffffffffffffffffffffff8203612719576127186126b0565b5b600182019050919050565b5f819050815f5260205f209050919050565b5f6020601f8301049050919050565b5f82821b905092915050565b5f600883026127807fffffffffffffffffffffffffffffffffffffffffffffffffffffffffffffffff82612745565b61278a8683612745565b95508019841693508086168417925050509392505050565b5f819050919050565b5f6127c56127c06127bb846120cb565b6127a2565b6120cb565b9050919050565b5f819050919050565b6127de836127ab565b6127f26127ea826127cc565b848454612751565b825550505050565b5f90565b6128066127fa565b6128118184846127d5565b505050565b5b81811015612834576128295f826127fe565b600181019050612817565b5050565b601f8211156128795761284a81612724565b61285384612736565b81016020851015612862578190505b61287661286e85612736565b830182612816565b50505b505050565b5f82821c905092915050565b5f6128995f198460080261287e565b1980831691505092915050565b5f6128b1838361288a565b9150826002028217905092915050565b6128ca82611fb6565b67ffffffffffffffff8111156128e3576128e2612223565b5b6128ed8254612539565b6128f8828285612838565b5f60209050601f831160018114612929575f8415612917578287015190505b61292185826128a6565b865550612988565b601f19841661293786612724565b5f5b8281101561295e57848901518255600182019150602085019450602081019050612939565b8683101561297b5784890151612977601f89168261288a565b8355505b6001600288020188555050505b505050505050565b5f6040820190508181035f8301526129a88185612008565b90506129b760208301846123f7565b9392505050565b7f46656520746f6f206869676800000000000000000000000000000000000000005f82015250565b5f6129f2600c83611fc0565b91506129fd826129be565b602082019050919050565b5f6020820190508181035f830152612a1f816129e6565b9050919050565b7f496e76616c6964207472656173757279206164647265737300000000000000005f82015250565b5f612a5a601883611fc0565b9150612a6582612a26565b602082019050919050565b5f6020820190508181035f830152612a8781612a4e565b9050919050565b7f54726561737572792077616c6c6574206e6f74207365740000000000000000005f82015250565b5f612ac2601783611fc0565b9150612acd82612a8e565b602082019050919050565b5f6020820190508181035f830152612aef81612ab6565b9050919050565b7f4e6f204e474f73207265676973746572656400000000000000000000000000005f82015250565b5f612b2a601283611fc0565b9150612b3582612af6565b602082019050919050565b5f6020820190508181035f830152612b5781612b1e565b9050919050565b7f4e6f2066756e647320746f2064697374726962757465000000000000000000005f82015250565b5f612b92601683611fc0565b9150612b9d82612b5e565b602082019050919050565b5f6020820190508181035f830152612bbf81612b86565b9050919050565b7f4e487b71000000000000000000000000000000000000000000000000000000005f52601260045260245ffd5b5f612bfd826120cb565b9150612c08836120cb565b925082612c1857612c17612bc6565b5b828204905092915050565b7f496e73756666696369656e742066756e647320666f72206469737472696275745f8201527f696f6e0000000000000000000000000000000000000000000000000000000000602082015250565b5f612c7d602383611fc0565b9150612c8882612c23565b604082019050919050565b5f6020820190508181035f830152612caa81612c71565b9050919050565b5f606082019050612cc45f8301866123f7565b612cd1602083018561216f565b612cde604083018461216f565b949350505050565b7f546869732077616c6c657420697320616c7265616479207265676973746572655f8201527f6400000000000000000000000000000000000000000000000000000000000000602082015250565b5f612d40602183611fc0565b9150612d4b82612ce6565b604082019050919050565b5f6020820190508181035f830152612d6d81612d34565b9050919050565b5f63ffffffff82169050919050565b5f612d8d82612d74565b915063ffffffff8203612da357612da26126b0565b5b600182019050919050565b5f612db8826120cb565b9150612dc3836120cb565b9250828201905080821115612ddb57612dda6126b0565b5b92915050565b5f612deb826120cb565b9150612df6836120cb565b9250828202612e04816120cb565b91508282048414831517612e1b57612e1a6126b0565b5b5092915050565b5f612e2c826120cb565b9150612e37836120cb565b9250828203905081811115612e4f57612e4e6126b0565b5b92915050565b7f4e487b71000000000000000000000000000000000000000000000000000000005f52603160045260245ffdfea264697066735822122083830a84c94b7ad75273c990d00669415092887efab0d413abb59fd6be64004264736f6c63430008140033",
					"opcodes": "PUSH1 0x80 PUSH1 0x40 MSTORE PUSH1 0x5 PUSH1 0x6 SSTORE CALLVALUE DUP1 ISZERO PUSH3 0x15 JUMPI PUSH0 DUP1 REVERT JUMPDEST POP CALLER PUSH1 0x40 MLOAD DUP1 PUSH1 0x40 ADD PUSH1 0x40 MSTORE DUP1 PUSH1 0x6 DUP2 MSTORE PUSH1 0x20 ADD PUSH32 0x48756D4169640000000000000000000000000000000000000000000000000000 DUP2 MSTORE POP PUSH1 0x40 MLOAD DUP1 PUSH1 0x40 ADD PUSH1 0x40 MSTORE DUP1 PUSH1 0x3 DUP2 MSTORE PUSH1 0x20 ADD PUSH32 0x48554D0000000000000000000000000000000000000000000000000000000000 DUP2 MSTORE POP DUP2 PUSH1 0x3 SWAP1 DUP2 PUSH3 0x94 SWAP2 SWAP1 PUSH3 0x9C1 JUMP JUMPDEST POP DUP1 PUSH1 0x4 SWAP1 DUP2 PUSH3 0xA6 SWAP2 SWAP1 PUSH3 0x9C1 JUMP JUMPDEST POP POP POP PUSH0 PUSH20 0xFFFFFFFFFFFFFFFFFFFFFFFFFFFFFFFFFFFFFFFF AND DUP2 PUSH20 0xFFFFFFFFFFFFFFFFFFFFFFFFFFFFFFFFFFFFFFFF AND SUB PUSH3 0x11C JUMPI PUSH0 PUSH1 0x40 MLOAD PUSH32 0x1E4FBDF700000000000000000000000000000000000000000000000000000000 DUP2 MSTORE PUSH1 0x4 ADD PUSH3 0x113 SWAP2 SWAP1 PUSH3 0xAE8 JUMP JUMPDEST PUSH1 0x40 MLOAD DUP1 SWAP2 SUB SWAP1 REVERT JUMPDEST PUSH3 0x12D DUP2 PUSH3 0x1C9 PUSH1 0x20 SHL PUSH1 0x20 SHR JUMP JUMPDEST POP PUSH1 0x1 PUSH1 0x9 PUSH0 CALLER PUSH20 0xFFFFFFFFFFFFFFFFFFFFFFFFFFFFFFFFFFFFFFFF AND PUSH20 0xFFFFFFFFFFFFFFFFFFFFFFFFFFFFFFFFFFFFFFFF AND DUP2 MSTORE PUSH1 0x20 ADD SWAP1 DUP2 MSTORE PUSH1 0x20 ADD PUSH0 KECCAK256 PUSH0 PUSH2 0x100 EXP DUP2 SLOAD DUP2 PUSH1 0xFF MUL NOT AND SWAP1 DUP4 ISZERO ISZERO MUL OR SWAP1 SSTORE POP PUSH3 0x1C3 CALLER PUSH3 0x198 PUSH3 0x28C PUSH1 0x20 SHL PUSH1 0x20 SHR JUMP JUMPDEST PUSH1 0xA PUSH3 0x1A6 SWAP2 SWAP1 PUSH3 0xC8C JUMP JUMPDEST PUSH4 0x3B9ACA00 PUSH3 0x1B7 SWAP2 SWAP1 PUSH3 0xCDC JUMP JUMPDEST PUSH3 0x294 PUSH1 0x20 SHL PUSH1 0x20 SHR JUMP JUMPDEST PUSH3 0xEDE JUMP JUMPDEST PUSH0 PUSH1 0x5 PUSH0 SWAP1 SLOAD SWAP1 PUSH2 0x100 EXP SWAP1 DIV PUSH20 0xFFFFFFFFFFFFFFFFFFFFFFFFFFFFFFFFFFFFFFFF AND SWAP1 POP DUP2 PUSH1 0x5 PUSH0 PUSH2 0x100 EXP DUP2 SLOAD DUP2 PUSH20 0xFFFFFFFFFFFFFFFFFFFFFFFFFFFFFFFFFFFFFFFF MUL NOT AND SWAP1 DUP4 PUSH20 0xFFFFFFFFFFFFFFFFFFFFFFFFFFFFFFFFFFFFFFFF AND MUL OR SWAP1 SSTORE POP DUP2 PUSH20 0xFFFFFFFFFFFFFFFFFFFFFFFFFFFFFFFFFFFFFFFF AND DUP2 PUSH20 0xFFFFFFFFFFFFFFFFFFFFFFFFFFFFFFFFFFFFFFFF AND PUSH32 0x8BE0079C531659141344CD1FD0A4F28419497F9722A3DAAFE3B4186F6B6457E0 PUSH1 0x40 MLOAD PUSH1 0x40 MLOAD DUP1 SWAP2 SUB SWAP1 LOG3 POP POP JUMP JUMPDEST PUSH0 PUSH1 0x12 SWAP1 POP SWAP1 JUMP JUMPDEST PUSH0 PUSH20 0xFFFFFFFFFFFFFFFFFFFFFFFFFFFFFFFFFFFFFFFF AND DUP3 PUSH20 0xFFFFFFFFFFFFFFFFFFFFFFFFFFFFFFFFFFFFFFFF AND SUB PUSH3 0x307 JUMPI PUSH0 PUSH1 0x40 MLOAD PUSH32 0xEC442F0500000000000000000000000000000000000000000000000000000000 DUP2 MSTORE PUSH1 0x4 ADD PUSH3 0x2FE SWAP2 SWAP1 PUSH3 0xAE8 JUMP JUMPDEST PUSH1 0x40 MLOAD DUP1 SWAP2 SUB SWAP1 REVERT JUMPDEST PUSH3 0x31A PUSH0 DUP4 DUP4 PUSH3 0x31E PUSH1 0x20 SHL PUSH1 0x20 SHR JUMP JUMPDEST POP POP JUMP JUMPDEST PUSH1 0x9 PUSH0 DUP5 PUSH20 0xFFFFFFFFFFFFFFFFFFFFFFFFFFFFFFFFFFFFFFFF AND PUSH20 0xFFFFFFFFFFFFFFFFFFFFFFFFFFFFFFFFFFFFFFFF AND DUP2 MSTORE PUSH1 0x20 ADD SWAP1 DUP2 MSTORE PUSH1 0x20 ADD PUSH0 KECCAK256 PUSH0 SWAP1 SLOAD SWAP1 PUSH2 0x100 EXP SWAP1 DIV PUSH1 0xFF AND DUP1 PUSH3 0x3BA JUMPI POP PUSH1 0x9 PUSH0 DUP4 PUSH20 0xFFFFFFFFFFFFFFFFFFFFFFFFFFFFFFFFFFFFFFFF AND PUSH20 0xFFFFFFFFFFFFFFFFFFFFFFFFFFFFFFFFFFFFFFFF AND DUP2 MSTORE PUSH1 0x20 ADD SWAP1 DUP2 MSTORE PUSH1 0x20 ADD PUSH0 KECCAK256 PUSH0 SWAP1 SLOAD SWAP1 PUSH2 0x100 EXP SWAP1 DIV PUSH1 0xFF AND JUMPDEST DUP1 PUSH3 0x3C7 JUMPI POP PUSH0 PUSH1 0x6 SLOAD EQ JUMPDEST ISZERO PUSH3 0x3E6 JUMPI PUSH3 0x3E0 DUP4 DUP4 DUP4 PUSH3 0x539 PUSH1 0x20 SHL PUSH1 0x20 SHR JUMP JUMPDEST PUSH3 0x534 JUMP JUMPDEST PUSH0 PUSH2 0x3E8 PUSH1 0x6 SLOAD DUP4 PUSH3 0x3FA SWAP2 SWAP1 PUSH3 0xCDC JUMP JUMPDEST PUSH3 0x406 SWAP2 SWAP1 PUSH3 0xD53 JUMP JUMPDEST SWAP1 POP PUSH0 DUP2 DUP4 PUSH3 0x417 SWAP2 SWAP1 PUSH3 0xD8A JUMP JUMPDEST SWAP1 POP PUSH0 DUP1 PUSH1 0x8 DUP1 SLOAD SWAP1 POP SUB PUSH3 0x42F JUMPI PUSH1 0x1 PUSH3 0x443 JUMP JUMPDEST PUSH1 0x8 DUP1 SLOAD SWAP1 POP DUP4 PUSH3 0x442 SWAP2 SWAP1 PUSH3 0xD53 JUMP JUMPDEST JUMPDEST SWAP1 POP PUSH0 PUSH1 0x8 DUP1 SLOAD SWAP1 POP DUP3 PUSH3 0x459 SWAP2 SWAP1 PUSH3 0xCDC JUMP JUMPDEST DUP5 PUSH3 0x466 SWAP2 SWAP1 PUSH3 0xD8A JUMP JUMPDEST SWAP1 POP PUSH0 JUMPDEST PUSH1 0x8 DUP1 SLOAD SWAP1 POP DUP2 LT ISZERO PUSH3 0x4DD JUMPI PUSH3 0x4C9 DUP9 PUSH1 0x8 DUP4 DUP2 SLOAD DUP2 LT PUSH3 0x494 JUMPI PUSH3 0x493 PUSH3 0xDC4 JUMP JUMPDEST JUMPDEST SWAP1 PUSH0 MSTORE PUSH1 0x20 PUSH0 KECCAK256 ADD PUSH0 SWAP1 SLOAD SWAP1 PUSH2 0x100 EXP SWAP1 DIV PUSH20 0xFFFFFFFFFFFFFFFFFFFFFFFFFFFFFFFFFFFFFFFF AND DUP6 PUSH3 0x539 PUSH1 0x20 SHL PUSH1 0x20 SHR JUMP JUMPDEST DUP1 PUSH3 0x4D5 SWAP1 PUSH3 0xDF1 JUMP JUMPDEST SWAP1 POP PUSH3 0x46A JUMP JUMPDEST POP PUSH0 DUP2 GT ISZERO PUSH3 0x51C JUMPI PUSH3 0x51B DUP8 PUSH1 0xA PUSH0 SWAP1 SLOAD SWAP1 PUSH2 0x100 EXP SWAP1 DIV PUSH20 0xFFFFFFFFFFFFFFFFFFFFFFFFFFFFFFFFFFFFFFFF AND DUP4 PUSH3 0x539 PUSH1 0x20 SHL PUSH1 0x20 SHR JUMP JUMPDEST JUMPDEST PUSH3 0x52F DUP8 DUP8 DUP6 PUSH3 0x539 PUSH1 0x20 SHL PUSH1 0x20 SHR JUMP JUMPDEST POP POP POP POP JUMPDEST POP POP POP JUMP JUMPDEST PUSH0 PUSH20 0xFFFFFFFFFFFFFFFFFFFFFFFFFFFFFFFFFFFFFFFF AND DUP4 PUSH20 0xFFFFFFFFFFFFFFFFFFFFFFFFFFFFFFFFFFFFFFFF AND SUB PUSH3 0x58D JUMPI DUP1 PUSH1 0x2 PUSH0 DUP3 DUP3 SLOAD PUSH3 0x580 SWAP2 SWAP1 PUSH3 0xE3D JUMP JUMPDEST SWAP3 POP POP DUP2 SWAP1 SSTORE POP PUSH3 0x65E JUMP JUMPDEST PUSH0 DUP1 PUSH0 DUP6 PUSH20 0xFFFFFFFFFFFFFFFFFFFFFFFFFFFFFFFFFFFFFFFF AND PUSH20 0xFFFFFFFFFFFFFFFFFFFFFFFFFFFFFFFFFFFFFFFF AND DUP2 MSTORE PUSH1 0x20 ADD SWAP1 DUP2 MSTORE PUSH1 0x20 ADD PUSH0 KECCAK256 SLOAD SWAP1 POP DUP2 DUP2 LT ISZERO PUSH3 0x619 JUMPI DUP4 DUP2 DUP4 PUSH1 0x40 MLOAD PUSH32 0xE450D38C00000000000000000000000000000000000000000000000000000000 DUP2 MSTORE PUSH1 0x4 ADD PUSH3 0x610 SWAP4 SWAP3 SWAP2 SWAP1 PUSH3 0xE88 JUMP JUMPDEST PUSH1 0x40 MLOAD DUP1 SWAP2 SUB SWAP1 REVERT JUMPDEST DUP2 DUP2 SUB PUSH0 DUP1 DUP7 PUSH20 0xFFFFFFFFFFFFFFFFFFFFFFFFFFFFFFFFFFFFFFFF AND PUSH20 0xFFFFFFFFFFFFFFFFFFFFFFFFFFFFFFFFFFFFFFFF AND DUP2 MSTORE PUSH1 0x20 ADD SWAP1 DUP2 MSTORE PUSH1 0x20 ADD PUSH0 KECCAK256 DUP2 SWAP1 SSTORE POP POP JUMPDEST PUSH0 PUSH20 0xFFFFFFFFFFFFFFFFFFFFFFFFFFFFFFFFFFFFFFFF AND DUP3 PUSH20 0xFFFFFFFFFFFFFFFFFFFFFFFFFFFFFFFFFFFFFFFF AND SUB PUSH3 0x6A7 JUMPI DUP1 PUSH1 0x2 PUSH0 DUP3 DUP3 SLOAD SUB SWAP3 POP POP DUP2 SWAP1 SSTORE POP PUSH3 0x6F1 JUMP JUMPDEST DUP1 PUSH0 DUP1 DUP5 PUSH20 0xFFFFFFFFFFFFFFFFFFFFFFFFFFFFFFFFFFFFFFFF AND PUSH20 0xFFFFFFFFFFFFFFFFFFFFFFFFFFFFFFFFFFFFFFFF AND DUP2 MSTORE PUSH1 0x20 ADD SWAP1 DUP2 MSTORE PUSH1 0x20 ADD PUSH0 KECCAK256 PUSH0 DUP3 DUP3 SLOAD ADD SWAP3 POP POP DUP2 SWAP1 SSTORE POP JUMPDEST DUP2 PUSH20 0xFFFFFFFFFFFFFFFFFFFFFFFFFFFFFFFFFFFFFFFF AND DUP4 PUSH20 0xFFFFFFFFFFFFFFFFFFFFFFFFFFFFFFFFFFFFFFFF AND PUSH32 0xDDF252AD1BE2C89B69C2B068FC378DAA952BA7F163C4A11628F55A4DF523B3EF DUP4 PUSH1 0x40 MLOAD PUSH3 0x750 SWAP2 SWAP1 PUSH3 0xEC3 JUMP JUMPDEST PUSH1 0x40 MLOAD DUP1 SWAP2 SUB SWAP1 LOG3 POP POP POP JUMP JUMPDEST PUSH0 DUP2 MLOAD SWAP1 POP SWAP2 SWAP1 POP JUMP JUMPDEST PUSH32 0x4E487B7100000000000000000000000000000000000000000000000000000000 PUSH0 MSTORE PUSH1 0x41 PUSH1 0x4 MSTORE PUSH1 0x24 PUSH0 REVERT JUMPDEST PUSH32 0x4E487B7100000000000000000000000000000000000000000000000000000000 PUSH0 MSTORE PUSH1 0x22 PUSH1 0x4 MSTORE PUSH1 0x24 PUSH0 REVERT JUMPDEST PUSH0 PUSH1 0x2 DUP3 DIV SWAP1 POP PUSH1 0x1 DUP3 AND DUP1 PUSH3 0x7D9 JUMPI PUSH1 0x7F DUP3 AND SWAP2 POP JUMPDEST PUSH1 0x20 DUP3 LT DUP2 SUB PUSH3 0x7EF JUMPI PUSH3 0x7EE PUSH3 0x794 JUMP JUMPDEST JUMPDEST POP SWAP2 SWAP1 POP JUMP JUMPDEST PUSH0 DUP2 SWAP1 POP DUP2 PUSH0 MSTORE PUSH1 0x20 PUSH0 KECCAK256 SWAP1 POP SWAP2 SWAP1 POP JUMP JUMPDEST PUSH0 PUSH1 0x20 PUSH1 0x1F DUP4 ADD DIV SWAP1 POP SWAP2 SWAP1 POP JUMP JUMPDEST PUSH0 DUP3 DUP3 SHL SWAP1 POP SWAP3 SWAP2 POP POP JUMP JUMPDEST PUSH0 PUSH1 0x8 DUP4 MUL PUSH3 0x853 PUSH32 0xFFFFFFFFFFFFFFFFFFFFFFFFFFFFFFFFFFFFFFFFFFFFFFFFFFFFFFFFFFFFFFFF DUP3 PUSH3 0x816 JUMP JUMPDEST PUSH3 0x85F DUP7 DUP4 PUSH3 0x816 JUMP JUMPDEST SWAP6 POP DUP1 NOT DUP5 AND SWAP4 POP DUP1 DUP7 AND DUP5 OR SWAP3 POP POP POP SWAP4 SWAP3 POP POP POP JUMP JUMPDEST PUSH0 DUP2 SWAP1 POP SWAP2 SWAP1 POP JUMP JUMPDEST PUSH0 DUP2 SWAP1 POP SWAP2 SWAP1 POP JUMP JUMPDEST PUSH0 PUSH3 0x8A9 PUSH3 0x8A3 PUSH3 0x89D DUP5 PUSH3 0x877 JUMP JUMPDEST PUSH3 0x880 JUMP JUMPDEST PUSH3 0x877 JUMP JUMPDEST SWAP1 POP SWAP2 SWAP1 POP JUMP JUMPDEST PUSH0 DUP2 SWAP1 POP SWAP2 SWAP1 POP JUMP JUMPDEST PUSH3 0x8C4 DUP4 PUSH3 0x889 JUMP JUMPDEST PUSH3 0x8DC PUSH3 0x8D3 DUP3 PUSH3 0x8B0 JUMP JUMPDEST DUP5 DUP5 SLOAD PUSH3 0x822 JUMP JUMPDEST DUP3 SSTORE POP POP POP POP JUMP JUMPDEST PUSH0 SWAP1 JUMP JUMPDEST PUSH3 0x8F2 PUSH3 0x8E4 JUMP JUMPDEST PUSH3 0x8FF DUP2 DUP5 DUP5 PUSH3 0x8B9 JUMP JUMPDEST POP POP POP JUMP JUMPDEST JUMPDEST DUP2 DUP2 LT ISZERO PUSH3 0x926 JUMPI PUSH3 0x91A PUSH0 DUP3 PUSH3 0x8E8 JUMP JUMPDEST PUSH1 0x1 DUP2 ADD SWAP1 POP PUSH3 0x905 JUMP JUMPDEST POP POP JUMP JUMPDEST PUSH1 0x1F DUP3 GT ISZERO PUSH3 0x975 JUMPI PUSH3 0x93F DUP2 PUSH3 0x7F5 JUMP JUMPDEST PUSH3 0x94A DUP5 PUSH3 0x807 JUMP JUMPDEST DUP2 ADD PUSH1 0x20 DUP6 LT ISZERO PUSH3 0x95A JUMPI DUP2 SWAP1 POP JUMPDEST PUSH3 0x972 PUSH3 0x969 DUP6 PUSH3 0x807 JUMP JUMPDEST DUP4 ADD DUP3 PUSH3 0x904 JUMP JUMPDEST POP POP JUMPDEST POP POP POP JUMP JUMPDEST PUSH0 DUP3 DUP3 SHR SWAP1 POP SWAP3 SWAP2 POP POP JUMP JUMPDEST PUSH0 PUSH3 0x997 PUSH0 NOT DUP5 PUSH1 0x8 MUL PUSH3 0x97A JUMP JUMPDEST NOT DUP1 DUP4 AND SWAP2 POP POP SWAP3 SWAP2 POP POP JUMP JUMPDEST PUSH0 PUSH3 0x9B1 DUP4 DUP4 PUSH3 0x986 JUMP JUMPDEST SWAP2 POP DUP3 PUSH1 0x2 MUL DUP3 OR SWAP1 POP SWAP3 SWAP2 POP POP JUMP JUMPDEST PUSH3 0x9CC DUP3 PUSH3 0x75D JUMP JUMPDEST PUSH8 0xFFFFFFFFFFFFFFFF DUP2 GT ISZERO PUSH3 0x9E8 JUMPI PUSH3 0x9E7 PUSH3 0x767 JUMP JUMPDEST JUMPDEST PUSH3 0x9F4 DUP3 SLOAD PUSH3 0x7C1 JUMP JUMPDEST PUSH3 0xA01 DUP3 DUP3 DUP6 PUSH3 0x92A JUMP JUMPDEST PUSH0 PUSH1 0x20 SWAP1 POP PUSH1 0x1F DUP4 GT PUSH1 0x1 DUP2 EQ PUSH3 0xA37 JUMPI PUSH0 DUP5 ISZERO PUSH3 0xA22 JUMPI DUP3 DUP8 ADD MLOAD SWAP1 POP JUMPDEST PUSH3 0xA2E DUP6 DUP3 PUSH3 0x9A4 JUMP JUMPDEST DUP7 SSTORE POP PUSH3 0xA9D JUMP JUMPDEST PUSH1 0x1F NOT DUP5 AND PUSH3 0xA47 DUP7 PUSH3 0x7F5 JUMP JUMPDEST PUSH0 JUMPDEST DUP3 DUP2 LT ISZERO PUSH3 0xA70 JUMPI DUP5 DUP10 ADD MLOAD DUP3 SSTORE PUSH1 0x1 DUP3 ADD SWAP2 POP PUSH1 0x20 DUP6 ADD SWAP5 POP PUSH1 0x20 DUP2 ADD SWAP1 POP PUSH3 0xA49 JUMP JUMPDEST DUP7 DUP4 LT ISZERO PUSH3 0xA90 JUMPI DUP5 DUP10 ADD MLOAD PUSH3 0xA8C PUSH1 0x1F DUP10 AND DUP3 PUSH3 0x986 JUMP JUMPDEST DUP4 SSTORE POP JUMPDEST PUSH1 0x1 PUSH1 0x2 DUP9 MUL ADD DUP9 SSTORE POP POP POP JUMPDEST POP POP POP POP POP POP JUMP JUMPDEST PUSH0 PUSH20 0xFFFFFFFFFFFFFFFFFFFFFFFFFFFFFFFFFFFFFFFF DUP3 AND SWAP1 POP SWAP2 SWAP1 POP JUMP JUMPDEST PUSH0 PUSH3 0xAD0 DUP3 PUSH3 0xAA5 JUMP JUMPDEST SWAP1 POP SWAP2 SWAP1 POP JUMP JUMPDEST PUSH3 0xAE2 DUP2 PUSH3 0xAC4 JUMP JUMPDEST DUP3 MSTORE POP POP JUMP JUMPDEST PUSH0 PUSH1 0x20 DUP3 ADD SWAP1 POP PUSH3 0xAFD PUSH0 DUP4 ADD DUP5 PUSH3 0xAD7 JUMP JUMPDEST SWAP3 SWAP2 POP POP JUMP JUMPDEST PUSH32 0x4E487B7100000000000000000000000000000000000000000000000000000000 PUSH0 MSTORE PUSH1 0x11 PUSH1 0x4 MSTORE PUSH1 0x24 PUSH0 REVERT JUMPDEST PUSH0 DUP2 PUSH1 0x1 SHR SWAP1 POP SWAP2 SWAP1 POP JUMP JUMPDEST PUSH0 DUP1 DUP3 SWAP2 POP DUP4 SWAP1 POP JUMPDEST PUSH1 0x1 DUP6 GT ISZERO PUSH3 0xB8D JUMPI DUP1 DUP7 DIV DUP2 GT ISZERO PUSH3 0xB65 JUMPI PUSH3 0xB64 PUSH3 0xB03 JUMP JUMPDEST JUMPDEST PUSH1 0x1 DUP6 AND ISZERO PUSH3 0xB75 JUMPI DUP1 DUP3 MUL SWAP2 POP JUMPDEST DUP1 DUP2 MUL SWAP1 POP PUSH3 0xB85 DUP6 PUSH3 0xB30 JUMP JUMPDEST SWAP5 POP PUSH3 0xB45 JUMP JUMPDEST SWAP5 POP SWAP5 SWAP3 POP POP POP JUMP JUMPDEST PUSH0 DUP3 PUSH3 0xBA7 JUMPI PUSH1 0x1 SWAP1 POP PUSH3 0xC79 JUMP JUMPDEST DUP2 PUSH3 0xBB6 JUMPI PUSH0 SWAP1 POP PUSH3 0xC79 JUMP JUMPDEST DUP2 PUSH1 0x1 DUP2 EQ PUSH3 0xBCF JUMPI PUSH1 0x2 DUP2 EQ PUSH3 0xBDA JUMPI PUSH3 0xC10 JUMP JUMPDEST PUSH1 0x1 SWAP2 POP POP PUSH3 0xC79 JUMP JUMPDEST PUSH1 0xFF DUP5 GT ISZERO PUSH3 0xBEF JUMPI PUSH3 0xBEE PUSH3 0xB03 JUMP JUMPDEST JUMPDEST DUP4 PUSH1 0x2 EXP SWAP2 POP DUP5 DUP3 GT ISZERO PUSH3 0xC09 JUMPI PUSH3 0xC08 PUSH3 0xB03 JUMP JUMPDEST JUMPDEST POP PUSH3 0xC79 JUMP JUMPDEST POP PUSH1 0x20 DUP4 LT PUSH2 0x133 DUP4 LT AND PUSH1 0x4E DUP5 LT PUSH1 0xB DUP5 LT AND OR ISZERO PUSH3 0xC4A JUMPI DUP3 DUP3 EXP SWAP1 POP DUP4 DUP2 GT ISZERO PUSH3 0xC44 JUMPI PUSH3 0xC43 PUSH3 0xB03 JUMP JUMPDEST JUMPDEST PUSH3 0xC79 JUMP JUMPDEST PUSH3 0xC59 DUP5 DUP5 DUP5 PUSH1 0x1 PUSH3 0xB3C JUMP JUMPDEST SWAP3 POP SWAP1 POP DUP2 DUP5 DIV DUP2 GT ISZERO PUSH3 0xC73 JUMPI PUSH3 0xC72 PUSH3 0xB03 JUMP JUMPDEST JUMPDEST DUP2 DUP2 MUL SWAP1 POP JUMPDEST SWAP4 SWAP3 POP POP POP JUMP JUMPDEST PUSH0 PUSH1 0xFF DUP3 AND SWAP1 POP SWAP2 SWAP1 POP JUMP JUMPDEST PUSH0 PUSH3 0xC98 DUP3 PUSH3 0x877 JUMP JUMPDEST SWAP2 POP PUSH3 0xCA5 DUP4 PUSH3 0xC80 JUMP JUMPDEST SWAP3 POP PUSH3 0xCD4 PUSH32 0xFFFFFFFFFFFFFFFFFFFFFFFFFFFFFFFFFFFFFFFFFFFFFFFFFFFFFFFFFFFFFFFF DUP5 DUP5 PUSH3 0xB96 JUMP JUMPDEST SWAP1 POP SWAP3 SWAP2 POP POP JUMP JUMPDEST PUSH0 PUSH3 0xCE8 DUP3 PUSH3 0x877 JUMP JUMPDEST SWAP2 POP PUSH3 0xCF5 DUP4 PUSH3 0x877 JUMP JUMPDEST SWAP3 POP DUP3 DUP3 MUL PUSH3 0xD05 DUP2 PUSH3 0x877 JUMP JUMPDEST SWAP2 POP DUP3 DUP3 DIV DUP5 EQ DUP4 ISZERO OR PUSH3 0xD1F JUMPI PUSH3 0xD1E PUSH3 0xB03 JUMP JUMPDEST JUMPDEST POP SWAP3 SWAP2 POP POP JUMP JUMPDEST PUSH32 0x4E487B7100000000000000000000000000000000000000000000000000000000 PUSH0 MSTORE PUSH1 0x12 PUSH1 0x4 MSTORE PUSH1 0x24 PUSH0 REVERT JUMPDEST PUSH0 PUSH3 0xD5F DUP3 PUSH3 0x877 JUMP JUMPDEST SWAP2 POP PUSH3 0xD6C DUP4 PUSH3 0x877 JUMP JUMPDEST SWAP3 POP DUP3 PUSH3 0xD7F JUMPI PUSH3 0xD7E PUSH3 0xD26 JUMP JUMPDEST JUMPDEST DUP3 DUP3 DIV SWAP1 POP SWAP3 SWAP2 POP POP JUMP JUMPDEST PUSH0 PUSH3 0xD96 DUP3 PUSH3 0x877 JUMP JUMPDEST SWAP2 POP PUSH3 0xDA3 DUP4 PUSH3 0x877 JUMP JUMPDEST SWAP3 POP DUP3 DUP3 SUB SWAP1 POP DUP2 DUP2 GT ISZERO PUSH3 0xDBE JUMPI PUSH3 0xDBD PUSH3 0xB03 JUMP JUMPDEST JUMPDEST SWAP3 SWAP2 POP POP JUMP JUMPDEST PUSH32 0x4E487B7100000000000000000000000000000000000000000000000000000000 PUSH0 MSTORE PUSH1 0x32 PUSH1 0x4 MSTORE PUSH1 0x24 PUSH0 REVERT JUMPDEST PUSH0 PUSH3 0xDFD DUP3 PUSH3 0x877 JUMP JUMPDEST SWAP2 POP PUSH32 0xFFFFFFFFFFFFFFFFFFFFFFFFFFFFFFFFFFFFFFFFFFFFFFFFFFFFFFFFFFFFFFFF DUP3 SUB PUSH3 0xE32 JUMPI PUSH3 0xE31 PUSH3 0xB03 JUMP JUMPDEST JUMPDEST PUSH1 0x1 DUP3 ADD SWAP1 POP SWAP2 SWAP1 POP JUMP JUMPDEST PUSH0 PUSH3 0xE49 DUP3 PUSH3 0x877 JUMP JUMPDEST SWAP2 POP PUSH3 0xE56 DUP4 PUSH3 0x877 JUMP JUMPDEST SWAP3 POP DUP3 DUP3 ADD SWAP1 POP DUP1 DUP3 GT ISZERO PUSH3 0xE71 JUMPI PUSH3 0xE70 PUSH3 0xB03 JUMP JUMPDEST JUMPDEST SWAP3 SWAP2 POP POP JUMP JUMPDEST PUSH3 0xE82 DUP2 PUSH3 0x877 JUMP JUMPDEST DUP3 MSTORE POP POP JUMP JUMPDEST PUSH0 PUSH1 0x60 DUP3 ADD SWAP1 POP PUSH3 0xE9D PUSH0 DUP4 ADD DUP7 PUSH3 0xAD7 JUMP JUMPDEST PUSH3 0xEAC PUSH1 0x20 DUP4 ADD DUP6 PUSH3 0xE77 JUMP JUMPDEST PUSH3 0xEBB PUSH1 0x40 DUP4 ADD DUP5 PUSH3 0xE77 JUMP JUMPDEST SWAP5 SWAP4 POP POP POP POP JUMP JUMPDEST PUSH0 PUSH1 0x20 DUP3 ADD SWAP1 POP PUSH3 0xED8 PUSH0 DUP4 ADD DUP5 PUSH3 0xE77 JUMP JUMPDEST SWAP3 SWAP2 POP POP JUMP JUMPDEST PUSH2 0x2EB8 DUP1 PUSH3 0xEEC PUSH0 CODECOPY PUSH0 RETURN INVALID PUSH1 0x80 PUSH1 0x40 MSTORE CALLVALUE DUP1 ISZERO PUSH2 0xF JUMPI PUSH0 DUP1 REVERT JUMPDEST POP PUSH1 0x4 CALLDATASIZE LT PUSH2 0x156 JUMPI PUSH0 CALLDATALOAD PUSH1 0xE0 SHR DUP1 PUSH4 0x7CE3489B GT PUSH2 0xC1 JUMPI DUP1 PUSH4 0xA9059CBB GT PUSH2 0x7A JUMPI DUP1 PUSH4 0xA9059CBB EQ PUSH2 0x3DA JUMPI DUP1 PUSH4 0xAE91470D EQ PUSH2 0x40A JUMPI DUP1 PUSH4 0xDD62ED3E EQ PUSH2 0x43A JUMPI DUP1 PUSH4 0xDF8408FE EQ PUSH2 0x46A JUMPI DUP1 PUSH4 0xF2FDE38B EQ PUSH2 0x486 JUMPI DUP1 PUSH4 0xF9479FFA EQ PUSH2 0x4A2 JUMPI PUSH2 0x156 JUMP JUMPDEST DUP1 PUSH4 0x7CE3489B EQ PUSH2 0x318 JUMPI DUP1 PUSH4 0x7D5B6C60 EQ PUSH2 0x334 JUMPI DUP1 PUSH4 0x7FD6F15C EQ PUSH2 0x364 JUMPI DUP1 PUSH4 0x8DA5CB5B EQ PUSH2 0x382 JUMPI DUP1 PUSH4 0x95D89B41 EQ PUSH2 0x3A0 JUMPI DUP1 PUSH4 0xA8602FEA EQ PUSH2 0x3BE JUMPI PUSH2 0x156 JUMP JUMPDEST DUP1 PUSH4 0x42966C68 GT PUSH2 0x113 JUMPI DUP1 PUSH4 0x42966C68 EQ PUSH2 0x244 JUMPI DUP1 PUSH4 0x4618F6AC EQ PUSH2 0x260 JUMPI DUP1 PUSH4 0x4626402B EQ PUSH2 0x290 JUMPI DUP1 PUSH4 0x5342ACB4 EQ PUSH2 0x2AE JUMPI DUP1 PUSH4 0x70A08231 EQ PUSH2 0x2DE JUMPI DUP1 PUSH4 0x715018A6 EQ PUSH2 0x30E JUMPI PUSH2 0x156 JUMP JUMPDEST DUP1 PUSH4 0x6FDDE03 EQ PUSH2 0x15A JUMPI DUP1 PUSH4 0x95EA7B3 EQ PUSH2 0x178 JUMPI DUP1 PUSH4 0x18160DDD EQ PUSH2 0x1A8 JUMPI DUP1 PUSH4 0x23B872DD EQ PUSH2 0x1C6 JUMPI DUP1 PUSH4 0x313CE567 EQ PUSH2 0x1F6 JUMPI DUP1 PUSH4 0x3539C6B1 EQ PUSH2 0x214 JUMPI JUMPDEST PUSH0 DUP1 REVERT JUMPDEST PUSH2 0x162 PUSH2 0x4AC JUMP JUMPDEST PUSH1 0x40 MLOAD PUSH2 0x16F SWAP2 SWAP1 PUSH2 0x2040 JUMP JUMPDEST PUSH1 0x40 MLOAD DUP1 SWAP2 SUB SWAP1 RETURN JUMPDEST PUSH2 0x192 PUSH1 0x4 DUP1 CALLDATASIZE SUB DUP2 ADD SWAP1 PUSH2 0x18D SWAP2 SWAP1 PUSH2 0x20FE JUMP JUMPDEST PUSH2 0x53C JUMP JUMPDEST PUSH1 0x40 MLOAD PUSH2 0x19F SWAP2 SWAP1 PUSH2 0x2156 JUMP JUMPDEST PUSH1 0x40 MLOAD DUP1 SWAP2 SUB SWAP1 RETURN JUMPDEST PUSH2 0x1B0 PUSH2 0x55E JUMP JUMPDEST PUSH1 0x40 MLOAD PUSH2 0x1BD SWAP2 SWAP1 PUSH2 0x217E JUMP JUMPDEST PUSH1 0x40 MLOAD DUP1 SWAP2 SUB SWAP1 RETURN JUMPDEST PUSH2 0x1E0 PUSH1 0x4 DUP1 CALLDATASIZE SUB DUP2 ADD SWAP1 PUSH2 0x1DB SWAP2 SWAP1 PUSH2 0x2197 JUMP JUMPDEST PUSH2 0x567 JUMP JUMPDEST PUSH1 0x40 MLOAD PUSH2 0x1ED SWAP2 SWAP1 PUSH2 0x2156 JUMP JUMPDEST PUSH1 0x40 MLOAD DUP1 SWAP2 SUB SWAP1 RETURN JUMPDEST PUSH2 0x1FE PUSH2 0x595 JUMP JUMPDEST PUSH1 0x40 MLOAD PUSH2 0x20B SWAP2 SWAP1 PUSH2 0x2202 JUMP JUMPDEST PUSH1 0x40 MLOAD DUP1 SWAP2 SUB SWAP1 RETURN JUMPDEST PUSH2 0x22E PUSH1 0x4 DUP1 CALLDATASIZE SUB DUP2 ADD SWAP1 PUSH2 0x229 SWAP2 SWAP1 PUSH2 0x2347 JUMP JUMPDEST PUSH2 0x59D JUMP JUMPDEST PUSH1 0x40 MLOAD PUSH2 0x23B SWAP2 SWAP1 PUSH2 0x2156 JUMP JUMPDEST PUSH1 0x40 MLOAD DUP1 SWAP2 SUB SWAP1 RETURN JUMPDEST PUSH2 0x25E PUSH1 0x4 DUP1 CALLDATASIZE SUB DUP2 ADD SWAP1 PUSH2 0x259 SWAP2 SWAP1 PUSH2 0x23A1 JUMP JUMPDEST PUSH2 0x76E JUMP JUMPDEST STOP JUMPDEST PUSH2 0x27A PUSH1 0x4 DUP1 CALLDATASIZE SUB DUP2 ADD SWAP1 PUSH2 0x275 SWAP2 SWAP1 PUSH2 0x23CC JUMP JUMPDEST PUSH2 0x77B JUMP JUMPDEST PUSH1 0x40 MLOAD PUSH2 0x287 SWAP2 SWAP1 PUSH2 0x2040 JUMP JUMPDEST PUSH1 0x40 MLOAD DUP1 SWAP2 SUB SWAP1 RETURN JUMPDEST PUSH2 0x298 PUSH2 0x816 JUMP JUMPDEST PUSH1 0x40 MLOAD PUSH2 0x2A5 SWAP2 SWAP1 PUSH2 0x2406 JUMP JUMPDEST PUSH1 0x40 MLOAD DUP1 SWAP2 SUB SWAP1 RETURN JUMPDEST PUSH2 0x2C8 PUSH1 0x4 DUP1 CALLDATASIZE SUB DUP2 ADD SWAP1 PUSH2 0x2C3 SWAP2 SWAP1 PUSH2 0x23CC JUMP JUMPDEST PUSH2 0x83B JUMP JUMPDEST PUSH1 0x40 MLOAD PUSH2 0x2D5 SWAP2 SWAP1 PUSH2 0x2156 JUMP JUMPDEST PUSH1 0x40 MLOAD DUP1 SWAP2 SUB SWAP1 RETURN JUMPDEST PUSH2 0x2F8 PUSH1 0x4 DUP1 CALLDATASIZE SUB DUP2 ADD SWAP1 PUSH2 0x2F3 SWAP2 SWAP1 PUSH2 0x23CC JUMP JUMPDEST PUSH2 0x88D JUMP JUMPDEST PUSH1 0x40 MLOAD PUSH2 0x305 SWAP2 SWAP1 PUSH2 0x217E JUMP JUMPDEST PUSH1 0x40 MLOAD DUP1 SWAP2 SUB SWAP1 RETURN JUMPDEST PUSH2 0x316 PUSH2 0x8D2 JUMP JUMPDEST STOP JUMPDEST PUSH2 0x332 PUSH1 0x4 DUP1 CALLDATASIZE SUB DUP2 ADD SWAP1 PUSH2 0x32D SWAP2 SWAP1 PUSH2 0x23A1 JUMP JUMPDEST PUSH2 0x8E5 JUMP JUMPDEST STOP JUMPDEST PUSH2 0x34E PUSH1 0x4 DUP1 CALLDATASIZE SUB DUP2 ADD SWAP1 PUSH2 0x349 SWAP2 SWAP1 PUSH2 0x23A1 JUMP JUMPDEST PUSH2 0x93B JUMP JUMPDEST PUSH1 0x40 MLOAD PUSH2 0x35B SWAP2 SWAP1 PUSH2 0x2406 JUMP JUMPDEST PUSH1 0x40 MLOAD DUP1 SWAP2 SUB SWAP1 RETURN JUMPDEST PUSH2 0x36C PUSH2 0x976 JUMP JUMPDEST PUSH1 0x40 MLOAD PUSH2 0x379 SWAP2 SWAP1 PUSH2 0x217E JUMP JUMPDEST PUSH1 0x40 MLOAD DUP1 SWAP2 SUB SWAP1 RETURN JUMPDEST PUSH2 0x38A PUSH2 0x97C JUMP JUMPDEST PUSH1 0x40 MLOAD PUSH2 0x397 SWAP2 SWAP1 PUSH2 0x2406 JUMP JUMPDEST PUSH1 0x40 MLOAD DUP1 SWAP2 SUB SWAP1 RETURN JUMPDEST PUSH2 0x3A8 PUSH2 0x9A4 JUMP JUMPDEST PUSH1 0x40 MLOAD PUSH2 0x3B5 SWAP2 SWAP1 PUSH2 0x2040 JUMP JUMPDEST PUSH1 0x40 MLOAD DUP1 SWAP2 SUB SWAP1 RETURN JUMPDEST PUSH2 0x3D8 PUSH1 0x4 DUP1 CALLDATASIZE SUB DUP2 ADD SWAP1 PUSH2 0x3D3 SWAP2 SWAP1 PUSH2 0x23CC JUMP JUMPDEST PUSH2 0xA34 JUMP JUMPDEST STOP JUMPDEST PUSH2 0x3F4 PUSH1 0x4 DUP1 CALLDATASIZE SUB DUP2 ADD SWAP1 PUSH2 0x3EF SWAP2 SWAP1 PUSH2 0x20FE JUMP JUMPDEST PUSH2 0xC2D JUMP JUMPDEST PUSH1 0x40 MLOAD PUSH2 0x401 SWAP2 SWAP1 PUSH2 0x2156 JUMP JUMPDEST PUSH1 0x40 MLOAD DUP1 SWAP2 SUB SWAP1 RETURN JUMPDEST PUSH2 0x424 PUSH1 0x4 DUP1 CALLDATASIZE SUB DUP2 ADD SWAP1 PUSH2 0x41F SWAP2 SWAP1 PUSH2 0x241F JUMP JUMPDEST PUSH2 0xC4F JUMP JUMPDEST PUSH1 0x40 MLOAD PUSH2 0x431 SWAP2 SWAP1 PUSH2 0x2156 JUMP JUMPDEST PUSH1 0x40 MLOAD DUP1 SWAP2 SUB SWAP1 RETURN JUMPDEST PUSH2 0x454 PUSH1 0x4 DUP1 CALLDATASIZE SUB DUP2 ADD SWAP1 PUSH2 0x44F SWAP2 SWAP1 PUSH2 0x2466 JUMP JUMPDEST PUSH2 0xE26 JUMP JUMPDEST PUSH1 0x40 MLOAD PUSH2 0x461 SWAP2 SWAP1 PUSH2 0x217E JUMP JUMPDEST PUSH1 0x40 MLOAD DUP1 SWAP2 SUB SWAP1 RETURN JUMPDEST PUSH2 0x484 PUSH1 0x4 DUP1 CALLDATASIZE SUB DUP2 ADD SWAP1 PUSH2 0x47F SWAP2 SWAP1 PUSH2 0x24CE JUMP JUMPDEST PUSH2 0xEA8 JUMP JUMPDEST STOP JUMPDEST PUSH2 0x4A0 PUSH1 0x4 DUP1 CALLDATASIZE SUB DUP2 ADD SWAP1 PUSH2 0x49B SWAP2 SWAP1 PUSH2 0x23CC JUMP JUMPDEST PUSH2 0xF08 JUMP JUMPDEST STOP JUMPDEST PUSH2 0x4AA PUSH2 0xF8C JUMP JUMPDEST STOP JUMPDEST PUSH1 0x60 PUSH1 0x3 DUP1 SLOAD PUSH2 0x4BB SWAP1 PUSH2 0x2539 JUMP JUMPDEST DUP1 PUSH1 0x1F ADD PUSH1 0x20 DUP1 SWAP2 DIV MUL PUSH1 0x20 ADD PUSH1 0x40 MLOAD SWAP1 DUP2 ADD PUSH1 0x40 MSTORE DUP1 SWAP3 SWAP2 SWAP1 DUP2 DUP2 MSTORE PUSH1 0x20 ADD DUP3 DUP1 SLOAD PUSH2 0x4E7 SWAP1 PUSH2 0x2539 JUMP JUMPDEST DUP1 ISZERO PUSH2 0x532 JUMPI DUP1 PUSH1 0x1F LT PUSH2 0x509 JUMPI PUSH2 0x100 DUP1 DUP4 SLOAD DIV MUL DUP4 MSTORE SWAP2 PUSH1 0x20 ADD SWAP2 PUSH2 0x532 JUMP JUMPDEST DUP3 ADD SWAP2 SWAP1 PUSH0 MSTORE PUSH1 0x20 PUSH0 KECCAK256 SWAP1 JUMPDEST DUP2 SLOAD DUP2 MSTORE SWAP1 PUSH1 0x1 ADD SWAP1 PUSH1 0x20 ADD DUP1 DUP4 GT PUSH2 0x515 JUMPI DUP3 SWAP1 SUB PUSH1 0x1F AND DUP3 ADD SWAP2 JUMPDEST POP POP POP POP POP SWAP1 POP SWAP1 JUMP JUMPDEST PUSH0 DUP1 PUSH2 0x546 PUSH2 0x11B6 JUMP JUMPDEST SWAP1 POP PUSH2 0x553 DUP2 DUP6 DUP6 PUSH2 0x11BD JUMP JUMPDEST PUSH1 0x1 SWAP2 POP POP SWAP3 SWAP2 POP POP JUMP JUMPDEST PUSH0 PUSH1 0x2 SLOAD SWAP1 POP SWAP1 JUMP JUMPDEST PUSH0 DUP1 PUSH2 0x571 PUSH2 0x11B6 JUMP JUMPDEST SWAP1 POP PUSH2 0x57E DUP6 DUP3 DUP6 PUSH2 0x11CF JUMP JUMPDEST PUSH2 0x589 DUP6 DUP6 DUP6 PUSH2 0x1262 JUMP JUMPDEST PUSH1 0x1 SWAP2 POP POP SWAP4 SWAP3 POP POP POP JUMP JUMPDEST PUSH0 PUSH1 0x12 SWAP1 POP SWAP1 JUMP JUMPDEST PUSH0 PUSH2 0x5A6 PUSH2 0x1352 JUMP JUMPDEST PUSH0 PUSH20 0xFFFFFFFFFFFFFFFFFFFFFFFFFFFFFFFFFFFFFFFF AND DUP3 PUSH20 0xFFFFFFFFFFFFFFFFFFFFFFFFFFFFFFFFFFFFFFFF AND SUB PUSH2 0x614 JUMPI PUSH1 0x40 MLOAD PUSH32 0x8C379A000000000000000000000000000000000000000000000000000000000 DUP2 MSTORE PUSH1 0x4 ADD PUSH2 0x60B SWAP1 PUSH2 0x25B3 JUMP JUMPDEST PUSH1 0x40 MLOAD DUP1 SWAP2 SUB SWAP1 REVERT JUMPDEST PUSH0 JUMPDEST PUSH1 0x8 DUP1 SLOAD SWAP1 POP DUP2 LT ISZERO PUSH2 0x6D7 JUMPI DUP4 DUP1 MLOAD SWAP1 PUSH1 0x20 ADD KECCAK256 PUSH1 0x7 PUSH0 PUSH1 0x8 DUP5 DUP2 SLOAD DUP2 LT PUSH2 0x642 JUMPI PUSH2 0x641 PUSH2 0x25D1 JUMP JUMPDEST JUMPDEST SWAP1 PUSH0 MSTORE PUSH1 0x20 PUSH0 KECCAK256 ADD PUSH0 SWAP1 SLOAD SWAP1 PUSH2 0x100 EXP SWAP1 DIV PUSH20 0xFFFFFFFFFFFFFFFFFFFFFFFFFFFFFFFFFFFFFFFF AND PUSH20 0xFFFFFFFFFFFFFFFFFFFFFFFFFFFFFFFFFFFFFFFF AND PUSH20 0xFFFFFFFFFFFFFFFFFFFFFFFFFFFFFFFFFFFFFFFF AND DUP2 MSTORE PUSH1 0x20 ADD SWAP1 DUP2 MSTORE PUSH1 0x20 ADD PUSH0 KECCAK256 PUSH1 0x40 MLOAD PUSH2 0x6B0 SWAP2 SWAP1 PUSH2 0x269A JUMP JUMPDEST PUSH1 0x40 MLOAD DUP1 SWAP2 SUB SWAP1 KECCAK256 SUB PUSH2 0x6C6 JUMPI PUSH0 SWAP2 POP POP PUSH2 0x768 JUMP JUMPDEST DUP1 PUSH2 0x6D0 SWAP1 PUSH2 0x26DD JUMP JUMPDEST SWAP1 POP PUSH2 0x616 JUMP JUMPDEST POP DUP3 PUSH1 0x7 PUSH0 DUP5 PUSH20 0xFFFFFFFFFFFFFFFFFFFFFFFFFFFFFFFFFFFFFFFF AND PUSH20 0xFFFFFFFFFFFFFFFFFFFFFFFFFFFFFFFFFFFFFFFF AND DUP2 MSTORE PUSH1 0x20 ADD SWAP1 DUP2 MSTORE PUSH1 0x20 ADD PUSH0 KECCAK256 SWAP1 DUP2 PUSH2 0x722 SWAP2 SWAP1 PUSH2 0x28C1 JUMP JUMPDEST POP PUSH32 0xA06DDE3E644F7DA70B4461F791FF2766EBEACD8CAE66B3E6A98637A9DACBD900 DUP4 DUP4 PUSH1 0x40 MLOAD PUSH2 0x754 SWAP3 SWAP2 SWAP1 PUSH2 0x2990 JUMP JUMPDEST PUSH1 0x40 MLOAD DUP1 SWAP2 SUB SWAP1 LOG1 PUSH2 0x765 DUP3 PUSH2 0x13D9 JUMP JUMPDEST SWAP1 POP JUMPDEST SWAP3 SWAP2 POP POP JUMP JUMPDEST PUSH2 0x778 CALLER DUP3 PUSH2 0x15D7 JUMP JUMPDEST POP JUMP JUMPDEST PUSH1 0x7 PUSH1 0x20 MSTORE DUP1 PUSH0 MSTORE PUSH1 0x40 PUSH0 KECCAK256 PUSH0 SWAP2 POP SWAP1 POP DUP1 SLOAD PUSH2 0x797 SWAP1 PUSH2 0x2539 JUMP JUMPDEST DUP1 PUSH1 0x1F ADD PUSH1 0x20 DUP1 SWAP2 DIV MUL PUSH1 0x20 ADD PUSH1 0x40 MLOAD SWAP1 DUP2 ADD PUSH1 0x40 MSTORE DUP1 SWAP3 SWAP2 SWAP1 DUP2 DUP2 MSTORE PUSH1 0x20 ADD DUP3 DUP1 SLOAD PUSH2 0x7C3 SWAP1 PUSH2 0x2539 JUMP JUMPDEST DUP1 ISZERO PUSH2 0x80E JUMPI DUP1 PUSH1 0x1F LT PUSH2 0x7E5 JUMPI PUSH2 0x100 DUP1 DUP4 SLOAD DIV MUL DUP4 MSTORE SWAP2 PUSH1 0x20 ADD SWAP2 PUSH2 0x80E JUMP JUMPDEST DUP3 ADD SWAP2 SWAP1 PUSH0 MSTORE PUSH1 0x20 PUSH0 KECCAK256 SWAP1 JUMPDEST DUP2 SLOAD DUP2 MSTORE SWAP1 PUSH1 0x1 ADD SWAP1 PUSH1 0x20 ADD DUP1 DUP4 GT PUSH2 0x7F1 JUMPI DUP3 SWAP1 SUB PUSH1 0x1F AND DUP3 ADD SWAP2 JUMPDEST POP POP POP POP POP DUP2 JUMP JUMPDEST PUSH1 0xA PUSH0 SWAP1 SLOAD SWAP1 PUSH2 0x100 EXP SWAP1 DIV PUSH20 0xFFFFFFFFFFFFFFFFFFFFFFFFFFFFFFFFFFFFFFFF AND DUP2 JUMP JUMPDEST PUSH0 PUSH1 0x9 PUSH0 DUP4 PUSH20 0xFFFFFFFFFFFFFFFFFFFFFFFFFFFFFFFFFFFFFFFF AND PUSH20 0xFFFFFFFFFFFFFFFFFFFFFFFFFFFFFFFFFFFFFFFF AND DUP2 MSTORE PUSH1 0x20 ADD SWAP1 DUP2 MSTORE PUSH1 0x20 ADD PUSH0 KECCAK256 PUSH0 SWAP1 SLOAD SWAP1 PUSH2 0x100 EXP SWAP1 DIV PUSH1 0xFF AND SWAP1 POP SWAP2 SWAP1 POP JUMP JUMPDEST PUSH0 DUP1 PUSH0 DUP4 PUSH20 0xFFFFFFFFFFFFFFFFFFFFFFFFFFFFFFFFFFFFFFFF AND PUSH20 0xFFFFFFFFFFFFFFFFFFFFFFFFFFFFFFFFFFFFFFFF AND DUP2 MSTORE PUSH1 0x20 ADD SWAP1 DUP2 MSTORE PUSH1 0x20 ADD PUSH0 KECCAK256 SLOAD SWAP1 POP SWAP2 SWAP1 POP JUMP JUMPDEST PUSH2 0x8DA PUSH2 0x1352 JUMP JUMPDEST PUSH2 0x8E3 PUSH0 PUSH2 0x1656 JUMP JUMPDEST JUMP JUMPDEST PUSH2 0x8ED PUSH2 0x1352 JUMP JUMPDEST PUSH1 0x32 DUP2 GT ISZERO PUSH2 0x931 JUMPI PUSH1 0x40 MLOAD PUSH32 0x8C379A000000000000000000000000000000000000000000000000000000000 DUP2 MSTORE PUSH1 0x4 ADD PUSH2 0x928 SWAP1 PUSH2 0x2A08 JUMP JUMPDEST PUSH1 0x40 MLOAD DUP1 SWAP2 SUB SWAP1 REVERT JUMPDEST DUP1 PUSH1 0x6 DUP2 SWAP1 SSTORE POP POP JUMP JUMPDEST PUSH1 0x8 DUP2 DUP2 SLOAD DUP2 LT PUSH2 0x94A JUMPI PUSH0 DUP1 REVERT JUMPDEST SWAP1 PUSH0 MSTORE PUSH1 0x20 PUSH0 KECCAK256 ADD PUSH0 SWAP2 POP SLOAD SWAP1 PUSH2 0x100 EXP SWAP1 DIV PUSH20 0xFFFFFFFFFFFFFFFFFFFFFFFFFFFFFFFFFFFFFFFF AND DUP2 JUMP JUMPDEST PUSH1 0x6 SLOAD DUP2 JUMP JUMPDEST PUSH0 PUSH1 0x5 PUSH0 SWAP1 SLOAD SWAP1 PUSH2 0x100 EXP SWAP1 DIV PUSH20 0xFFFFFFFFFFFFFFFFFFFFFFFFFFFFFFFFFFFFFFFF AND SWAP1 POP SWAP1 JUMP JUMPDEST PUSH1 0x60 PUSH1 0x4 DUP1 SLOAD PUSH2 0x9B3 SWAP1 PUSH2 0x2539 JUMP JUMPDEST DUP1 PUSH1 0x1F ADD PUSH1 0x20 DUP1 SWAP2 DIV MUL PUSH1 0x20 ADD PUSH1 0x40 MLOAD SWAP1 DUP2 ADD PUSH1 0x40 MSTORE DUP1 SWAP3 SWAP2 SWAP1 DUP2 DUP2 MSTORE PUSH1 0x20 ADD DUP3 DUP1 SLOAD PUSH2 0x9DF SWAP1 PUSH2 0x2539 JUMP JUMPDEST DUP1 ISZERO PUSH2 0xA2A JUMPI DUP1 PUSH1 0x1F LT PUSH2 0xA01 JUMPI PUSH2 0x100 DUP1 DUP4 SLOAD DIV MUL DUP4 MSTORE SWAP2 PUSH1 0x20 ADD SWAP2 PUSH2 0xA2A JUMP JUMPDEST DUP3 ADD SWAP2 SWAP1 PUSH0 MSTORE PUSH1 0x20 PUSH0 KECCAK256 SWAP1 JUMPDEST DUP2 SLOAD DUP2 MSTORE SWAP1 PUSH1 0x1 ADD SWAP1 PUSH1 0x20 ADD DUP1 DUP4 GT PUSH2 0xA0D JUMPI DUP3 SWAP1 SUB PUSH1 0x1F AND DUP3 ADD SWAP2 JUMPDEST POP POP POP POP POP SWAP1 POP SWAP1 JUMP JUMPDEST PUSH2 0xA3C PUSH2 0x1352 JUMP JUMPDEST PUSH0 PUSH20 0xFFFFFFFFFFFFFFFFFFFFFFFFFFFFFFFFFFFFFFFF AND DUP2 PUSH20 0xFFFFFFFFFFFFFFFFFFFFFFFFFFFFFFFFFFFFFFFF AND SUB PUSH2 0xAAA JUMPI PUSH1 0x40 MLOAD PUSH32 0x8C379A000000000000000000000000000000000000000000000000000000000 DUP2 MSTORE PUSH1 0x4 ADD PUSH2 0xAA1 SWAP1 PUSH2 0x2A70 JUMP JUMPDEST PUSH1 0x40 MLOAD DUP1 SWAP2 SUB SWAP1 REVERT JUMPDEST PUSH0 PUSH20 0xFFFFFFFFFFFFFFFFFFFFFFFFFFFFFFFFFFFFFFFF AND PUSH1 0xA PUSH0 SWAP1 SLOAD SWAP1 PUSH2 0x100 EXP SWAP1 DIV PUSH20 0xFFFFFFFFFFFFFFFFFFFFFFFFFFFFFFFFFFFFFFFF AND PUSH20 0xFFFFFFFFFFFFFFFFFFFFFFFFFFFFFFFFFFFFFFFF AND EQ PUSH2 0xB74 JUMPI PUSH0 PUSH1 0x9 PUSH0 PUSH1 0xA PUSH0 SWAP1 SLOAD SWAP1 PUSH2 0x100 EXP SWAP1 DIV PUSH20 0xFFFFFFFFFFFFFFFFFFFFFFFFFFFFFFFFFFFFFFFF AND PUSH20 0xFFFFFFFFFFFFFFFFFFFFFFFFFFFFFFFFFFFFFFFF AND PUSH20 0xFFFFFFFFFFFFFFFFFFFFFFFFFFFFFFFFFFFFFFFF AND DUP2 MSTORE PUSH1 0x20 ADD SWAP1 DUP2 MSTORE PUSH1 0x20 ADD PUSH0 KECCAK256 PUSH0 PUSH2 0x100 EXP DUP2 SLOAD DUP2 PUSH1 0xFF MUL NOT AND SWAP1 DUP4 ISZERO ISZERO MUL OR SWAP1 SSTORE POP JUMPDEST DUP1 PUSH1 0xA PUSH0 PUSH2 0x100 EXP DUP2 SLOAD DUP2 PUSH20 0xFFFFFFFFFFFFFFFFFFFFFFFFFFFFFFFFFFFFFFFF MUL NOT AND SWAP1 DUP4 PUSH20 0xFFFFFFFFFFFFFFFFFFFFFFFFFFFFFFFFFFFFFFFF AND MUL OR SWAP1 SSTORE POP PUSH1 0x1 PUSH1 0x9 PUSH0 PUSH1 0xA PUSH0 SWAP1 SLOAD SWAP1 PUSH2 0x100 EXP SWAP1 DIV PUSH20 0xFFFFFFFFFFFFFFFFFFFFFFFFFFFFFFFFFFFFFFFF AND PUSH20 0xFFFFFFFFFFFFFFFFFFFFFFFFFFFFFFFFFFFFFFFF AND PUSH20 0xFFFFFFFFFFFFFFFFFFFFFFFFFFFFFFFFFFFFFFFF AND DUP2 MSTORE PUSH1 0x20 ADD SWAP1 DUP2 MSTORE PUSH1 0x20 ADD PUSH0 KECCAK256 PUSH0 PUSH2 0x100 EXP DUP2 SLOAD DUP2 PUSH1 0xFF MUL NOT AND SWAP1 DUP4 ISZERO ISZERO MUL OR SWAP1 SSTORE POP POP JUMP JUMPDEST PUSH0 DUP1 PUSH2 0xC37 PUSH2 0x11B6 JUMP JUMPDEST SWAP1 POP PUSH2 0xC44 DUP2 DUP6 DUP6 PUSH2 0x1262 JUMP JUMPDEST PUSH1 0x1 SWAP2 POP POP SWAP3 SWAP2 POP POP JUMP JUMPDEST PUSH0 PUSH2 0xC58 PUSH2 0x1352 JUMP JUMPDEST PUSH0 DUP1 JUMPDEST PUSH1 0x8 DUP1 SLOAD SWAP1 POP DUP2 LT ISZERO PUSH2 0xD56 JUMPI DUP4 DUP1 MLOAD SWAP1 PUSH1 0x20 ADD KECCAK256 PUSH1 0x7 PUSH0 PUSH1 0x8 DUP5 DUP2 SLOAD DUP2 LT PUSH2 0xC87 JUMPI PUSH2 0xC86 PUSH2 0x25D1 JUMP JUMPDEST JUMPDEST SWAP1 PUSH0 MSTORE PUSH1 0x20 PUSH0 KECCAK256 ADD PUSH0 SWAP1 SLOAD SWAP1 PUSH2 0x100 EXP SWAP1 DIV PUSH20 0xFFFFFFFFFFFFFFFFFFFFFFFFFFFFFFFFFFFFFFFF AND PUSH20 0xFFFFFFFFFFFFFFFFFFFFFFFFFFFFFFFFFFFFFFFF AND PUSH20 0xFFFFFFFFFFFFFFFFFFFFFFFFFFFFFFFFFFFFFFFF AND DUP2 MSTORE PUSH1 0x20 ADD SWAP1 DUP2 MSTORE PUSH1 0x20 ADD PUSH0 KECCAK256 PUSH1 0x40 MLOAD PUSH2 0xCF5 SWAP2 SWAP1 PUSH2 0x269A JUMP JUMPDEST PUSH1 0x40 MLOAD DUP1 SWAP2 SUB SWAP1 KECCAK256 SUB PUSH2 0xD45 JUMPI PUSH1 0x8 DUP2 DUP2 SLOAD DUP2 LT PUSH2 0xD16 JUMPI PUSH2 0xD15 PUSH2 0x25D1 JUMP JUMPDEST JUMPDEST SWAP1 PUSH0 MSTORE PUSH1 0x20 PUSH0 KECCAK256 ADD PUSH0 SWAP1 SLOAD SWAP1 PUSH2 0x100 EXP SWAP1 DIV PUSH20 0xFFFFFFFFFFFFFFFFFFFFFFFFFFFFFFFFFFFFFFFF AND SWAP2 POP PUSH2 0xD56 JUMP JUMPDEST DUP1 PUSH2 0xD4F SWAP1 PUSH2 0x26DD JUMP JUMPDEST SWAP1 POP PUSH2 0xC5B JUMP JUMPDEST POP PUSH0 PUSH20 0xFFFFFFFFFFFFFFFFFFFFFFFFFFFFFFFFFFFFFFFF AND DUP2 PUSH20 0xFFFFFFFFFFFFFFFFFFFFFFFFFFFFFFFFFFFFFFFF AND SUB PUSH2 0xD93 JUMPI PUSH0 SWAP2 POP POP PUSH2 0xE21 JUMP JUMPDEST PUSH1 0x7 PUSH0 DUP3 PUSH20 0xFFFFFFFFFFFFFFFFFFFFFFFFFFFFFFFFFFFFFFFF AND PUSH20 0xFFFFFFFFFFFFFFFFFFFFFFFFFFFFFFFFFFFFFFFF AND DUP2 MSTORE PUSH1 0x20 ADD SWAP1 DUP2 MSTORE PUSH1 0x20 ADD PUSH0 KECCAK256 PUSH0 PUSH2 0xDDB SWAP2 SWAP1 PUSH2 0x1F5E JUMP JUMPDEST PUSH32 0xF7CE65B9119570713C55642C7BA09904806C36EC3DA8FA5B1A8AA4A223132C2E DUP4 DUP3 PUSH1 0x40 MLOAD PUSH2 0xE0C SWAP3 SWAP2 SWAP1 PUSH2 0x2990 JUMP JUMPDEST PUSH1 0x40 MLOAD DUP1 SWAP2 SUB SWAP1 LOG1 PUSH2 0xE1D DUP2 PUSH2 0x1719 JUMP JUMPDEST SWAP2 POP POP JUMPDEST SWAP2 SWAP1 POP JUMP JUMPDEST PUSH0 PUSH1 0x1 PUSH0 DUP5 PUSH20 0xFFFFFFFFFFFFFFFFFFFFFFFFFFFFFFFFFFFFFFFF AND PUSH20 0xFFFFFFFFFFFFFFFFFFFFFFFFFFFFFFFFFFFFFFFF AND DUP2 MSTORE PUSH1 0x20 ADD SWAP1 DUP2 MSTORE PUSH1 0x20 ADD PUSH0 KECCAK256 PUSH0 DUP4 PUSH20 0xFFFFFFFFFFFFFFFFFFFFFFFFFFFFFFFFFFFFFFFF AND PUSH20 0xFFFFFFFFFFFFFFFFFFFFFFFFFFFFFFFFFFFFFFFF AND DUP2 MSTORE PUSH1 0x20 ADD SWAP1 DUP2 MSTORE PUSH1 0x20 ADD PUSH0 KECCAK256 SLOAD SWAP1 POP SWAP3 SWAP2 POP POP JUMP JUMPDEST PUSH2 0xEB0 PUSH2 0x1352 JUMP JUMPDEST DUP1 PUSH1 0x9 PUSH0 DUP5 PUSH20 0xFFFFFFFFFFFFFFFFFFFFFFFFFFFFFFFFFFFFFFFF AND PUSH20 0xFFFFFFFFFFFFFFFFFFFFFFFFFFFFFFFFFFFFFFFF AND DUP2 MSTORE PUSH1 0x20 ADD SWAP1 DUP2 MSTORE PUSH1 0x20 ADD PUSH0 KECCAK256 PUSH0 PUSH2 0x100 EXP DUP2 SLOAD DUP2 PUSH1 0xFF MUL NOT AND SWAP1 DUP4 ISZERO ISZERO MUL OR SWAP1 SSTORE POP POP POP JUMP JUMPDEST PUSH2 0xF10 PUSH2 0x1352 JUMP JUMPDEST PUSH0 PUSH20 0xFFFFFFFFFFFFFFFFFFFFFFFFFFFFFFFFFFFFFFFF AND DUP2 PUSH20 0xFFFFFFFFFFFFFFFFFFFFFFFFFFFFFFFFFFFFFFFF AND SUB PUSH2 0xF80 JUMPI PUSH0 PUSH1 0x40 MLOAD PUSH32 0x1E4FBDF700000000000000000000000000000000000000000000000000000000 DUP2 MSTORE PUSH1 0x4 ADD PUSH2 0xF77 SWAP2 SWAP1 PUSH2 0x2406 JUMP JUMPDEST PUSH1 0x40 MLOAD DUP1 SWAP2 SUB SWAP1 REVERT JUMPDEST PUSH2 0xF89 DUP2 PUSH2 0x1656 JUMP JUMPDEST POP JUMP JUMPDEST PUSH2 0xF94 PUSH2 0x1352 JUMP JUMPDEST PUSH0 PUSH20 0xFFFFFFFFFFFFFFFFFFFFFFFFFFFFFFFFFFFFFFFF AND PUSH1 0xA PUSH0 SWAP1 SLOAD SWAP1 PUSH2 0x100 EXP SWAP1 DIV PUSH20 0xFFFFFFFFFFFFFFFFFFFFFFFFFFFFFFFFFFFFFFFF AND PUSH20 0xFFFFFFFFFFFFFFFFFFFFFFFFFFFFFFFFFFFFFFFF AND SUB PUSH2 0x1023 JUMPI PUSH1 0x40 MLOAD PUSH32 0x8C379A000000000000000000000000000000000000000000000000000000000 DUP2 MSTORE PUSH1 0x4 ADD PUSH2 0x101A SWAP1 PUSH2 0x2AD8 JUMP JUMPDEST PUSH1 0x40 MLOAD DUP1 SWAP2 SUB SWAP1 REVERT JUMPDEST PUSH0 PUSH1 0x8 DUP1 SLOAD SWAP1 POP SWAP1 POP PUSH0 DUP2 GT PUSH2 0x106E JUMPI PUSH1 0x40 MLOAD PUSH32 0x8C379A000000000000000000000000000000000000000000000000000000000 DUP2 MSTORE PUSH1 0x4 ADD PUSH2 0x1065 SWAP1 PUSH2 0x2B40 JUMP JUMPDEST PUSH1 0x40 MLOAD DUP1 SWAP2 SUB SWAP1 REVERT JUMPDEST PUSH0 PUSH2 0x1099 PUSH1 0xA PUSH0 SWAP1 SLOAD SWAP1 PUSH2 0x100 EXP SWAP1 DIV PUSH20 0xFFFFFFFFFFFFFFFFFFFFFFFFFFFFFFFFFFFFFFFF AND PUSH2 0x88D JUMP JUMPDEST SWAP1 POP PUSH0 DUP2 GT PUSH2 0x10DD JUMPI PUSH1 0x40 MLOAD PUSH32 0x8C379A000000000000000000000000000000000000000000000000000000000 DUP2 MSTORE PUSH1 0x4 ADD PUSH2 0x10D4 SWAP1 PUSH2 0x2BA8 JUMP JUMPDEST PUSH1 0x40 MLOAD DUP1 SWAP2 SUB SWAP1 REVERT JUMPDEST PUSH0 DUP3 DUP3 PUSH2 0x10EA SWAP2 SWAP1 PUSH2 0x2BF3 JUMP JUMPDEST SWAP1 POP PUSH0 DUP2 GT PUSH2 0x112E JUMPI PUSH1 0x40 MLOAD PUSH32 0x8C379A000000000000000000000000000000000000000000000000000000000 DUP2 MSTORE PUSH1 0x4 ADD PUSH2 0x1125 SWAP1 PUSH2 0x2C93 JUMP JUMPDEST PUSH1 0x40 MLOAD DUP1 SWAP2 SUB SWAP1 REVERT JUMPDEST PUSH0 JUMPDEST DUP4 DUP2 LT ISZERO PUSH2 0x11B0 JUMPI PUSH2 0x119F PUSH1 0xA PUSH0 SWAP1 SLOAD SWAP1 PUSH2 0x100 EXP SWAP1 DIV PUSH20 0xFFFFFFFFFFFFFFFFFFFFFFFFFFFFFFFFFFFFFFFF AND PUSH1 0x8 DUP4 DUP2 SLOAD DUP2 LT PUSH2 0x1171 JUMPI PUSH2 0x1170 PUSH2 0x25D1 JUMP JUMPDEST JUMPDEST SWAP1 PUSH0 MSTORE PUSH1 0x20 PUSH0 KECCAK256 ADD PUSH0 SWAP1 SLOAD SWAP1 PUSH2 0x100 EXP SWAP1 DIV PUSH20 0xFFFFFFFFFFFFFFFFFFFFFFFFFFFFFFFFFFFFFFFF AND DUP5 PUSH2 0x183F JUMP JUMPDEST DUP1 PUSH2 0x11A9 SWAP1 PUSH2 0x26DD JUMP JUMPDEST SWAP1 POP PUSH2 0x1130 JUMP JUMPDEST POP POP POP POP JUMP JUMPDEST PUSH0 CALLER SWAP1 POP SWAP1 JUMP JUMPDEST PUSH2 0x11CA DUP4 DUP4 DUP4 PUSH1 0x1 PUSH2 0x1A58 JUMP JUMPDEST POP POP POP JUMP JUMPDEST PUSH0 PUSH2 0x11DA DUP5 DUP5 PUSH2 0xE26 JUMP JUMPDEST SWAP1 POP PUSH32 0xFFFFFFFFFFFFFFFFFFFFFFFFFFFFFFFFFFFFFFFFFFFFFFFFFFFFFFFFFFFFFFFF DUP2 LT ISZERO PUSH2 0x125C JUMPI DUP2 DUP2 LT ISZERO PUSH2 0x124D JUMPI DUP3 DUP2 DUP4 PUSH1 0x40 MLOAD PUSH32 0xFB8F41B200000000000000000000000000000000000000000000000000000000 DUP2 MSTORE PUSH1 0x4 ADD PUSH2 0x1244 SWAP4 SWAP3 SWAP2 SWAP1 PUSH2 0x2CB1 JUMP JUMPDEST PUSH1 0x40 MLOAD DUP1 SWAP2 SUB SWAP1 REVERT JUMPDEST PUSH2 0x125B DUP5 DUP5 DUP5 DUP5 SUB PUSH0 PUSH2 0x1A58 JUMP JUMPDEST JUMPDEST POP POP POP POP JUMP JUMPDEST PUSH0 PUSH20 0xFFFFFFFFFFFFFFFFFFFFFFFFFFFFFFFFFFFFFFFF AND DUP4 PUSH20 0xFFFFFFFFFFFFFFFFFFFFFFFFFFFFFFFFFFFFFFFF AND SUB PUSH2 0x12D2 JUMPI PUSH0 PUSH1 0x40 MLOAD PUSH32 0x96C6FD1E00000000000000000000000000000000000000000000000000000000 DUP2 MSTORE PUSH1 0x4 ADD PUSH2 0x12C9 SWAP2 SWAP1 PUSH2 0x2406 JUMP JUMPDEST PUSH1 0x40 MLOAD DUP1 SWAP2 SUB SWAP1 REVERT JUMPDEST PUSH0 PUSH20 0xFFFFFFFFFFFFFFFFFFFFFFFFFFFFFFFFFFFFFFFF AND DUP3 PUSH20 0xFFFFFFFFFFFFFFFFFFFFFFFFFFFFFFFFFFFFFFFF AND SUB PUSH2 0x1342 JUMPI PUSH0 PUSH1 0x40 MLOAD PUSH32 0xEC442F0500000000000000000000000000000000000000000000000000000000 DUP2 MSTORE PUSH1 0x4 ADD PUSH2 0x1339 SWAP2 SWAP1 PUSH2 0x2406 JUMP JUMPDEST PUSH1 0x40 MLOAD DUP1 SWAP2 SUB SWAP1 REVERT JUMPDEST PUSH2 0x134D DUP4 DUP4 DUP4 PUSH2 0x1C27 JUMP JUMPDEST POP POP POP JUMP JUMPDEST PUSH2 0x135A PUSH2 0x11B6 JUMP JUMPDEST PUSH20 0xFFFFFFFFFFFFFFFFFFFFFFFFFFFFFFFFFFFFFFFF AND PUSH2 0x1378 PUSH2 0x97C JUMP JUMPDEST PUSH20 0xFFFFFFFFFFFFFFFFFFFFFFFFFFFFFFFFFFFFFFFF AND EQ PUSH2 0x13D7 JUMPI PUSH2 0x139B PUSH2 0x11B6 JUMP JUMPDEST PUSH1 0x40 MLOAD PUSH32 0x118CDAA700000000000000000000000000000000000000000000000000000000 DUP2 MSTORE PUSH1 0x4 ADD PUSH2 0x13CE SWAP2 SWAP1 PUSH2 0x2406 JUMP JUMPDEST PUSH1 0x40 MLOAD DUP1 SWAP2 SUB SWAP1 REVERT JUMPDEST JUMP JUMPDEST PUSH0 DUP1 PUSH20 0xFFFFFFFFFFFFFFFFFFFFFFFFFFFFFFFFFFFFFFFF AND DUP3 PUSH20 0xFFFFFFFFFFFFFFFFFFFFFFFFFFFFFFFFFFFFFFFF AND SUB PUSH2 0x1448 JUMPI PUSH1 0x40 MLOAD PUSH32 0x8C379A000000000000000000000000000000000000000000000000000000000 DUP2 MSTORE PUSH1 0x4 ADD PUSH2 0x143F SWAP1 PUSH2 0x25B3 JUMP JUMPDEST PUSH1 0x40 MLOAD DUP1 SWAP2 SUB SWAP1 REVERT JUMPDEST PUSH0 ISZERO ISZERO PUSH1 0x9 PUSH0 DUP5 PUSH20 0xFFFFFFFFFFFFFFFFFFFFFFFFFFFFFFFFFFFFFFFF AND PUSH20 0xFFFFFFFFFFFFFFFFFFFFFFFFFFFFFFFFFFFFFFFF AND DUP2 MSTORE PUSH1 0x20 ADD SWAP1 DUP2 MSTORE PUSH1 0x20 ADD PUSH0 KECCAK256 PUSH0 SWAP1 SLOAD SWAP1 PUSH2 0x100 EXP SWAP1 DIV PUSH1 0xFF AND ISZERO ISZERO EQ PUSH2 0x14D7 JUMPI PUSH1 0x40 MLOAD PUSH32 0x8C379A000000000000000000000000000000000000000000000000000000000 DUP2 MSTORE PUSH1 0x4 ADD PUSH2 0x14CE SWAP1 PUSH2 0x2D56 JUMP JUMPDEST PUSH1 0x40 MLOAD DUP1 SWAP2 SUB SWAP1 REVERT JUMPDEST PUSH0 JUMPDEST PUSH1 0x8 DUP1 SLOAD SWAP1 POP DUP2 LT ISZERO PUSH2 0x156E JUMPI DUP3 PUSH20 0xFFFFFFFFFFFFFFFFFFFFFFFFFFFFFFFFFFFFFFFF AND PUSH1 0x8 DUP3 DUP2 SLOAD DUP2 LT PUSH2 0x1511 JUMPI PUSH2 0x1510 PUSH2 0x25D1 JUMP JUMPDEST JUMPDEST SWAP1 PUSH0 MSTORE PUSH1 0x20 PUSH0 KECCAK256 ADD PUSH0 SWAP1 SLOAD SWAP1 PUSH2 0x100 EXP SWAP1 DIV PUSH20 0xFFFFFFFFFFFFFFFFFFFFFFFFFFFFFFFFFFFFFFFF AND PUSH20 0xFFFFFFFFFFFFFFFFFFFFFFFFFFFFFFFFFFFFFFFF AND SUB PUSH2 0x155D JUMPI PUSH0 SWAP2 POP POP PUSH2 0x15D2 JUMP JUMPDEST DUP1 PUSH2 0x1567 SWAP1 PUSH2 0x26DD JUMP JUMPDEST SWAP1 POP PUSH2 0x14D9 JUMP JUMPDEST POP PUSH2 0x1578 DUP3 PUSH2 0x1E08 JUMP JUMPDEST PUSH1 0x1 PUSH1 0x9 PUSH0 DUP5 PUSH20 0xFFFFFFFFFFFFFFFFFFFFFFFFFFFFFFFFFFFFFFFF AND PUSH20 0xFFFFFFFFFFFFFFFFFFFFFFFFFFFFFFFFFFFFFFFF AND DUP2 MSTORE PUSH1 0x20 ADD SWAP1 DUP2 MSTORE PUSH1 0x20 ADD PUSH0 KECCAK256 PUSH0 PUSH2 0x100 EXP DUP2 SLOAD DUP2 PUSH1 0xFF MUL NOT AND SWAP1 DUP4 ISZERO ISZERO MUL OR SWAP1 SSTORE POP PUSH1 0x1 SWAP1 POP JUMPDEST SWAP2 SWAP1 POP JUMP JUMPDEST PUSH0 PUSH20 0xFFFFFFFFFFFFFFFFFFFFFFFFFFFFFFFFFFFFFFFF AND DUP3 PUSH20 0xFFFFFFFFFFFFFFFFFFFFFFFFFFFFFFFFFFFFFFFF AND SUB PUSH2 0x1647 JUMPI PUSH0 PUSH1 0x40 MLOAD PUSH32 0x96C6FD1E00000000000000000000000000000000000000000000000000000000 DUP2 MSTORE PUSH1 0x4 ADD PUSH2 0x163E SWAP2 SWAP1 PUSH2 0x2406 JUMP JUMPDEST PUSH1 0x40 MLOAD DUP1 SWAP2 SUB SWAP1 REVERT JUMPDEST PUSH2 0x1652 DUP3 PUSH0 DUP4 PUSH2 0x1C27 JUMP JUMPDEST POP POP JUMP JUMPDEST PUSH0 PUSH1 0x5 PUSH0 SWAP1 SLOAD SWAP1 PUSH2 0x100 EXP SWAP1 DIV PUSH20 0xFFFFFFFFFFFFFFFFFFFFFFFFFFFFFFFFFFFFFFFF AND SWAP1 POP DUP2 PUSH1 0x5 PUSH0 PUSH2 0x100 EXP DUP2 SLOAD DUP2 PUSH20 0xFFFFFFFFFFFFFFFFFFFFFFFFFFFFFFFFFFFFFFFF MUL NOT AND SWAP1 DUP4 PUSH20 0xFFFFFFFFFFFFFFFFFFFFFFFFFFFFFFFFFFFFFFFF AND MUL OR SWAP1 SSTORE POP DUP2 PUSH20 0xFFFFFFFFFFFFFFFFFFFFFFFFFFFFFFFFFFFFFFFF AND DUP2 PUSH20 0xFFFFFFFFFFFFFFFFFFFFFFFFFFFFFFFFFFFFFFFF AND PUSH32 0x8BE0079C531659141344CD1FD0A4F28419497F9722A3DAAFE3B4186F6B6457E0 PUSH1 0x40 MLOAD PUSH1 0x40 MLOAD DUP1 SWAP2 SUB SWAP1 LOG3 POP POP JUMP JUMPDEST PUSH0 DUP1 PUSH20 0xFFFFFFFFFFFFFFFFFFFFFFFFFFFFFFFFFFFFFFFF AND DUP3 PUSH20 0xFFFFFFFFFFFFFFFFFFFFFFFFFFFFFFFFFFFFFFFF AND SUB PUSH2 0x1788 JUMPI PUSH1 0x40 MLOAD PUSH32 0x8C379A000000000000000000000000000000000000000000000000000000000 DUP2 MSTORE PUSH1 0x4 ADD PUSH2 0x177F SWAP1 PUSH2 0x25B3 JUMP JUMPDEST PUSH1 0x40 MLOAD DUP1 SWAP2 SUB SWAP1 REVERT JUMPDEST PUSH0 JUMPDEST PUSH1 0x8 DUP1 SLOAD SWAP1 POP DUP2 PUSH4 0xFFFFFFFF AND LT ISZERO PUSH2 0x1835 JUMPI DUP3 PUSH20 0xFFFFFFFFFFFFFFFFFFFFFFFFFFFFFFFFFFFFFFFF AND PUSH1 0x8 DUP3 PUSH4 0xFFFFFFFF AND DUP2 SLOAD DUP2 LT PUSH2 0x17CE JUMPI PUSH2 0x17CD PUSH2 0x25D1 JUMP JUMPDEST JUMPDEST SWAP1 PUSH0 MSTORE PUSH1 0x20 PUSH0 KECCAK256 ADD PUSH0 SWAP1 SLOAD SWAP1 PUSH2 0x100 EXP SWAP1 DIV PUSH20 0xFFFFFFFFFFFFFFFFFFFFFFFFFFFFFFFFFFFFFFFF AND PUSH20 0xFFFFFFFFFFFFFFFFFFFFFFFFFFFFFFFFFFFFFFFF AND SUB PUSH2 0x1824 JUMPI PUSH2 0x181A DUP2 PUSH2 0x1E6B JUMP JUMPDEST PUSH1 0x1 SWAP2 POP POP PUSH2 0x183A JUMP JUMPDEST DUP1 PUSH2 0x182E SWAP1 PUSH2 0x2D83 JUMP JUMPDEST SWAP1 POP PUSH2 0x178A JUMP JUMPDEST POP PUSH0 SWAP1 POP JUMPDEST SWAP2 SWAP1 POP JUMP JUMPDEST PUSH0 PUSH20 0xFFFFFFFFFFFFFFFFFFFFFFFFFFFFFFFFFFFFFFFF AND DUP4 PUSH20 0xFFFFFFFFFFFFFFFFFFFFFFFFFFFFFFFFFFFFFFFF AND SUB PUSH2 0x188F JUMPI DUP1 PUSH1 0x2 PUSH0 DUP3 DUP3 SLOAD PUSH2 0x1883 SWAP2 SWAP1 PUSH2 0x2DAE JUMP JUMPDEST SWAP3 POP POP DUP2 SWAP1 SSTORE POP PUSH2 0x195D JUMP JUMPDEST PUSH0 DUP1 PUSH0 DUP6 PUSH20 0xFFFFFFFFFFFFFFFFFFFFFFFFFFFFFFFFFFFFFFFF AND PUSH20 0xFFFFFFFFFFFFFFFFFFFFFFFFFFFFFFFFFFFFFFFF AND DUP2 MSTORE PUSH1 0x20 ADD SWAP1 DUP2 MSTORE PUSH1 0x20 ADD PUSH0 KECCAK256 SLOAD SWAP1 POP DUP2 DUP2 LT ISZERO PUSH2 0x1918 JUMPI DUP4 DUP2 DUP4 PUSH1 0x40 MLOAD PUSH32 0xE450D38C00000000000000000000000000000000000000000000000000000000 DUP2 MSTORE PUSH1 0x4 ADD PUSH2 0x190F SWAP4 SWAP3 SWAP2 SWAP1 PUSH2 0x2CB1 JUMP JUMPDEST PUSH1 0x40 MLOAD DUP1 SWAP2 SUB SWAP1 REVERT JUMPDEST DUP2 DUP2 SUB PUSH0 DUP1 DUP7 PUSH20 0xFFFFFFFFFFFFFFFFFFFFFFFFFFFFFFFFFFFFFFFF AND PUSH20 0xFFFFFFFFFFFFFFFFFFFFFFFFFFFFFFFFFFFFFFFF AND DUP2 MSTORE PUSH1 0x20 ADD SWAP1 DUP2 MSTORE PUSH1 0x20 ADD PUSH0 KECCAK256 DUP2 SWAP1 SSTORE POP POP JUMPDEST PUSH0 PUSH20 0xFFFFFFFFFFFFFFFFFFFFFFFFFFFFFFFFFFFFFFFF AND DUP3 PUSH20 0xFFFFFFFFFFFFFFFFFFFFFFFFFFFFFFFFFFFFFFFF AND SUB PUSH2 0x19A4 JUMPI DUP1 PUSH1 0x2 PUSH0 DUP3 DUP3 SLOAD SUB SWAP3 POP POP DUP2 SWAP1 SSTORE POP PUSH2 0x19EE JUMP JUMPDEST DUP1 PUSH0 DUP1 DUP5 PUSH20 0xFFFFFFFFFFFFFFFFFFFFFFFFFFFFFFFFFFFFFFFF AND PUSH20 0xFFFFFFFFFFFFFFFFFFFFFFFFFFFFFFFFFFFFFFFF AND DUP2 MSTORE PUSH1 0x20 ADD SWAP1 DUP2 MSTORE PUSH1 0x20 ADD PUSH0 KECCAK256 PUSH0 DUP3 DUP3 SLOAD ADD SWAP3 POP POP DUP2 SWAP1 SSTORE POP JUMPDEST DUP2 PUSH20 0xFFFFFFFFFFFFFFFFFFFFFFFFFFFFFFFFFFFFFFFF AND DUP4 PUSH20 0xFFFFFFFFFFFFFFFFFFFFFFFFFFFFFFFFFFFFFFFF AND PUSH32 0xDDF252AD1BE2C89B69C2B068FC378DAA952BA7F163C4A11628F55A4DF523B3EF DUP4 PUSH1 0x40 MLOAD PUSH2 0x1A4B SWAP2 SWAP1 PUSH2 0x217E JUMP JUMPDEST PUSH1 0x40 MLOAD DUP1 SWAP2 SUB SWAP1 LOG3 POP POP POP JUMP JUMPDEST PUSH0 PUSH20 0xFFFFFFFFFFFFFFFFFFFFFFFFFFFFFFFFFFFFFFFF AND DUP5 PUSH20 0xFFFFFFFFFFFFFFFFFFFFFFFFFFFFFFFFFFFFFFFF AND SUB PUSH2 0x1AC8 JUMPI PUSH0 PUSH1 0x40 MLOAD PUSH32 0xE602DF0500000000000000000000000000000000000000000000000000000000 DUP2 MSTORE PUSH1 0x4 ADD PUSH2 0x1ABF SWAP2 SWAP1 PUSH2 0x2406 JUMP JUMPDEST PUSH1 0x40 MLOAD DUP1 SWAP2 SUB SWAP1 REVERT JUMPDEST PUSH0 PUSH20 0xFFFFFFFFFFFFFFFFFFFFFFFFFFFFFFFFFFFFFFFF AND DUP4 PUSH20 0xFFFFFFFFFFFFFFFFFFFFFFFFFFFFFFFFFFFFFFFF AND SUB PUSH2 0x1B38 JUMPI PUSH0 PUSH1 0x40 MLOAD PUSH32 0x94280D6200000000000000000000000000000000000000000000000000000000 DUP2 MSTORE PUSH1 0x4 ADD PUSH2 0x1B2F SWAP2 SWAP1 PUSH2 0x2406 JUMP JUMPDEST PUSH1 0x40 MLOAD DUP1 SWAP2 SUB SWAP1 REVERT JUMPDEST DUP2 PUSH1 0x1 PUSH0 DUP7 PUSH20 0xFFFFFFFFFFFFFFFFFFFFFFFFFFFFFFFFFFFFFFFF AND PUSH20 0xFFFFFFFFFFFFFFFFFFFFFFFFFFFFFFFFFFFFFFFF AND DUP2 MSTORE PUSH1 0x20 ADD SWAP1 DUP2 MSTORE PUSH1 0x20 ADD PUSH0 KECCAK256 PUSH0 DUP6 PUSH20 0xFFFFFFFFFFFFFFFFFFFFFFFFFFFFFFFFFFFFFFFF AND PUSH20 0xFFFFFFFFFFFFFFFFFFFFFFFFFFFFFFFFFFFFFFFF AND DUP2 MSTORE PUSH1 0x20 ADD SWAP1 DUP2 MSTORE PUSH1 0x20 ADD PUSH0 KECCAK256 DUP2 SWAP1 SSTORE POP DUP1 ISZERO PUSH2 0x1C21 JUMPI DUP3 PUSH20 0xFFFFFFFFFFFFFFFFFFFFFFFFFFFFFFFFFFFFFFFF AND DUP5 PUSH20 0xFFFFFFFFFFFFFFFFFFFFFFFFFFFFFFFFFFFFFFFF AND PUSH32 0x8C5BE1E5EBEC7D5BD14F71427D1E84F3DD0314C0F7B2291E5B200AC8C7C3B925 DUP5 PUSH1 0x40 MLOAD PUSH2 0x1C18 SWAP2 SWAP1 PUSH2 0x217E JUMP JUMPDEST PUSH1 0x40 MLOAD DUP1 SWAP2 SUB SWAP1 LOG3 JUMPDEST POP POP POP POP JUMP JUMPDEST PUSH1 0x9 PUSH0 DUP5 PUSH20 0xFFFFFFFFFFFFFFFFFFFFFFFFFFFFFFFFFFFFFFFF AND PUSH20 0xFFFFFFFFFFFFFFFFFFFFFFFFFFFFFFFFFFFFFFFF AND DUP2 MSTORE PUSH1 0x20 ADD SWAP1 DUP2 MSTORE PUSH1 0x20 ADD PUSH0 KECCAK256 PUSH0 SWAP1 SLOAD SWAP1 PUSH2 0x100 EXP SWAP1 DIV PUSH1 0xFF AND DUP1 PUSH2 0x1CC2 JUMPI POP PUSH1 0x9 PUSH0 DUP4 PUSH20 0xFFFFFFFFFFFFFFFFFFFFFFFFFFFFFFFFFFFFFFFF AND PUSH20 0xFFFFFFFFFFFFFFFFFFFFFFFFFFFFFFFFFFFFFFFF AND DUP2 MSTORE PUSH1 0x20 ADD SWAP1 DUP2 MSTORE PUSH1 0x20 ADD PUSH0 KECCAK256 PUSH0 SWAP1 SLOAD SWAP1 PUSH2 0x100 EXP SWAP1 DIV PUSH1 0xFF AND JUMPDEST DUP1 PUSH2 0x1CCE JUMPI POP PUSH0 PUSH1 0x6 SLOAD EQ JUMPDEST ISZERO PUSH2 0x1CE3 JUMPI PUSH2 0x1CDE DUP4 DUP4 DUP4 PUSH2 0x183F JUMP JUMPDEST PUSH2 0x1E03 JUMP JUMPDEST PUSH0 PUSH2 0x3E8 PUSH1 0x6 SLOAD DUP4 PUSH2 0x1CF5 SWAP2 SWAP1 PUSH2 0x2DE1 JUMP JUMPDEST PUSH2 0x1CFF SWAP2 SWAP1 PUSH2 0x2BF3 JUMP JUMPDEST SWAP1 POP PUSH0 DUP2 DUP4 PUSH2 0x1D0E SWAP2 SWAP1 PUSH2 0x2E22 JUMP JUMPDEST SWAP1 POP PUSH0 DUP1 PUSH1 0x8 DUP1 SLOAD SWAP1 POP SUB PUSH2 0x1D24 JUMPI PUSH1 0x1 PUSH2 0x1D36 JUMP JUMPDEST PUSH1 0x8 DUP1 SLOAD SWAP1 POP DUP4 PUSH2 0x1D35 SWAP2 SWAP1 PUSH2 0x2BF3 JUMP JUMPDEST JUMPDEST SWAP1 POP PUSH0 PUSH1 0x8 DUP1 SLOAD SWAP1 POP DUP3 PUSH2 0x1D4A SWAP2 SWAP1 PUSH2 0x2DE1 JUMP JUMPDEST DUP5 PUSH2 0x1D55 SWAP2 SWAP1 PUSH2 0x2E22 JUMP JUMPDEST SWAP1 POP PUSH0 JUMPDEST PUSH1 0x8 DUP1 SLOAD SWAP1 POP DUP2 LT ISZERO PUSH2 0x1DBD JUMPI PUSH2 0x1DAC DUP9 PUSH1 0x8 DUP4 DUP2 SLOAD DUP2 LT PUSH2 0x1D7E JUMPI PUSH2 0x1D7D PUSH2 0x25D1 JUMP JUMPDEST JUMPDEST SWAP1 PUSH0 MSTORE PUSH1 0x20 PUSH0 KECCAK256 ADD PUSH0 SWAP1 SLOAD SWAP1 PUSH2 0x100 EXP SWAP1 DIV PUSH20 0xFFFFFFFFFFFFFFFFFFFFFFFFFFFFFFFFFFFFFFFF AND DUP6 PUSH2 0x183F JUMP JUMPDEST DUP1 PUSH2 0x1DB6 SWAP1 PUSH2 0x26DD JUMP JUMPDEST SWAP1 POP PUSH2 0x1D59 JUMP JUMPDEST POP PUSH0 DUP2 GT ISZERO PUSH2 0x1DF3 JUMPI PUSH2 0x1DF2 DUP8 PUSH1 0xA PUSH0 SWAP1 SLOAD SWAP1 PUSH2 0x100 EXP SWAP1 DIV PUSH20 0xFFFFFFFFFFFFFFFFFFFFFFFFFFFFFFFFFFFFFFFF AND DUP4 PUSH2 0x183F JUMP JUMPDEST JUMPDEST PUSH2 0x1DFE DUP8 DUP8 DUP6 PUSH2 0x183F JUMP JUMPDEST POP POP POP POP JUMPDEST POP POP POP JUMP JUMPDEST PUSH1 0x8 DUP2 SWAP1 DUP1 PUSH1 0x1 DUP2 SLOAD ADD DUP1 DUP3 SSTORE DUP1 SWAP2 POP POP PUSH1 0x1 SWAP1 SUB SWAP1 PUSH0 MSTORE PUSH1 0x20 PUSH0 KECCAK256 ADD PUSH0 SWAP1 SWAP2 SWAP1 SWAP2 SWAP1 SWAP2 PUSH2 0x100 EXP DUP2 SLOAD DUP2 PUSH20 0xFFFFFFFFFFFFFFFFFFFFFFFFFFFFFFFFFFFFFFFF MUL NOT AND SWAP1 DUP4 PUSH20 0xFFFFFFFFFFFFFFFFFFFFFFFFFFFFFFFFFFFFFFFF AND MUL OR SWAP1 SSTORE POP POP JUMP JUMPDEST PUSH1 0x8 PUSH1 0x1 PUSH1 0x8 DUP1 SLOAD SWAP1 POP PUSH2 0x1E7F SWAP2 SWAP1 PUSH2 0x2E22 JUMP JUMPDEST DUP2 SLOAD DUP2 LT PUSH2 0x1E90 JUMPI PUSH2 0x1E8F PUSH2 0x25D1 JUMP JUMPDEST JUMPDEST SWAP1 PUSH0 MSTORE PUSH1 0x20 PUSH0 KECCAK256 ADD PUSH0 SWAP1 SLOAD SWAP1 PUSH2 0x100 EXP SWAP1 DIV PUSH20 0xFFFFFFFFFFFFFFFFFFFFFFFFFFFFFFFFFFFFFFFF AND PUSH1 0x8 DUP3 PUSH4 0xFFFFFFFF AND DUP2 SLOAD DUP2 LT PUSH2 0x1ED2 JUMPI PUSH2 0x1ED1 PUSH2 0x25D1 JUMP JUMPDEST JUMPDEST SWAP1 PUSH0 MSTORE PUSH1 0x20 PUSH0 KECCAK256 ADD PUSH0 PUSH2 0x100 EXP DUP2 SLOAD DUP2 PUSH20 0xFFFFFFFFFFFFFFFFFFFFFFFFFFFFFFFFFFFFFFFF MUL NOT AND SWAP1 DUP4 PUSH20 0xFFFFFFFFFFFFFFFFFFFFFFFFFFFFFFFFFFFFFFFF AND MUL OR SWAP1 SSTORE POP PUSH1 0x8 DUP1 SLOAD DUP1 PUSH2 0x1F29 JUMPI PUSH2 0x1F28 PUSH2 0x2E55 JUMP JUMPDEST JUMPDEST PUSH1 0x1 SWAP1 SUB DUP2 DUP2 SWAP1 PUSH0 MSTORE PUSH1 0x20 PUSH0 KECCAK256 ADD PUSH0 PUSH2 0x100 EXP DUP2 SLOAD SWAP1 PUSH20 0xFFFFFFFFFFFFFFFFFFFFFFFFFFFFFFFFFFFFFFFF MUL NOT AND SWAP1 SSTORE SWAP1 SSTORE POP JUMP JUMPDEST POP DUP1 SLOAD PUSH2 0x1F6A SWAP1 PUSH2 0x2539 JUMP JUMPDEST PUSH0 DUP3 SSTORE DUP1 PUSH1 0x1F LT PUSH2 0x1F7B JUMPI POP PUSH2 0x1F98 JUMP JUMPDEST PUSH1 0x1F ADD PUSH1 0x20 SWAP1 DIV SWAP1 PUSH0 MSTORE PUSH1 0x20 PUSH0 KECCAK256 SWAP1 DUP2 ADD SWAP1 PUSH2 0x1F97 SWAP2 SWAP1 PUSH2 0x1F9B JUMP JUMPDEST JUMPDEST POP JUMP JUMPDEST JUMPDEST DUP1 DUP3 GT ISZERO PUSH2 0x1FB2 JUMPI PUSH0 DUP2 PUSH0 SWAP1 SSTORE POP PUSH1 0x1 ADD PUSH2 0x1F9C JUMP JUMPDEST POP SWAP1 JUMP JUMPDEST PUSH0 DUP2 MLOAD SWAP1 POP SWAP2 SWAP1 POP JUMP JUMPDEST PUSH0 DUP3 DUP3 MSTORE PUSH1 0x20 DUP3 ADD SWAP1 POP SWAP3 SWAP2 POP POP JUMP JUMPDEST PUSH0 JUMPDEST DUP4 DUP2 LT ISZERO PUSH2 0x1FED JUMPI DUP1 DUP3 ADD MLOAD DUP2 DUP5 ADD MSTORE PUSH1 0x20 DUP2 ADD SWAP1 POP PUSH2 0x1FD2 JUMP JUMPDEST PUSH0 DUP5 DUP5 ADD MSTORE POP POP POP POP JUMP JUMPDEST PUSH0 PUSH1 0x1F NOT PUSH1 0x1F DUP4 ADD AND SWAP1 POP SWAP2 SWAP1 POP JUMP JUMPDEST PUSH0 PUSH2 0x2012 DUP3 PUSH2 0x1FB6 JUMP JUMPDEST PUSH2 0x201C DUP2 DUP6 PUSH2 0x1FC0 JUMP JUMPDEST SWAP4 POP PUSH2 0x202C DUP2 DUP6 PUSH1 0x20 DUP7 ADD PUSH2 0x1FD0 JUMP JUMPDEST PUSH2 0x2035 DUP2 PUSH2 0x1FF8 JUMP JUMPDEST DUP5 ADD SWAP2 POP POP SWAP3 SWAP2 POP POP JUMP JUMPDEST PUSH0 PUSH1 0x20 DUP3 ADD SWAP1 POP DUP2 DUP2 SUB PUSH0 DUP4 ADD MSTORE PUSH2 0x2058 DUP2 DUP5 PUSH2 0x2008 JUMP JUMPDEST SWAP1 POP SWAP3 SWAP2 POP POP JUMP JUMPDEST PUSH0 PUSH1 0x40 MLOAD SWAP1 POP SWAP1 JUMP JUMPDEST PUSH0 DUP1 REVERT JUMPDEST PUSH0 DUP1 REVERT JUMPDEST PUSH0 PUSH20 0xFFFFFFFFFFFFFFFFFFFFFFFFFFFFFFFFFFFFFFFF DUP3 AND SWAP1 POP SWAP2 SWAP1 POP JUMP JUMPDEST PUSH0 PUSH2 0x209A DUP3 PUSH2 0x2071 JUMP JUMPDEST SWAP1 POP SWAP2 SWAP1 POP JUMP JUMPDEST PUSH2 0x20AA DUP2 PUSH2 0x2090 JUMP JUMPDEST DUP2 EQ PUSH2 0x20B4 JUMPI PUSH0 DUP1 REVERT JUMPDEST POP JUMP JUMPDEST PUSH0 DUP2 CALLDATALOAD SWAP1 POP PUSH2 0x20C5 DUP2 PUSH2 0x20A1 JUMP JUMPDEST SWAP3 SWAP2 POP POP JUMP JUMPDEST PUSH0 DUP2 SWAP1 POP SWAP2 SWAP1 POP JUMP JUMPDEST PUSH2 0x20DD DUP2 PUSH2 0x20CB JUMP JUMPDEST DUP2 EQ PUSH2 0x20E7 JUMPI PUSH0 DUP1 REVERT JUMPDEST POP JUMP JUMPDEST PUSH0 DUP2 CALLDATALOAD SWAP1 POP PUSH2 0x20F8 DUP2 PUSH2 0x20D4 JUMP JUMPDEST SWAP3 SWAP2 POP POP JUMP JUMPDEST PUSH0 DUP1 PUSH1 0x40 DUP4 DUP6 SUB SLT ISZERO PUSH2 0x2114 JUMPI PUSH2 0x2113 PUSH2 0x2069 JUMP JUMPDEST JUMPDEST PUSH0 PUSH2 0x2121 DUP6 DUP3 DUP7 ADD PUSH2 0x20B7 JUMP JUMPDEST SWAP3 POP POP PUSH1 0x20 PUSH2 0x2132 DUP6 DUP3 DUP7 ADD PUSH2 0x20EA JUMP JUMPDEST SWAP2 POP POP SWAP3 POP SWAP3 SWAP1 POP JUMP JUMPDEST PUSH0 DUP2 ISZERO ISZERO SWAP1 POP SWAP2 SWAP1 POP JUMP JUMPDEST PUSH2 0x2150 DUP2 PUSH2 0x213C JUMP JUMPDEST DUP3 MSTORE POP POP JUMP JUMPDEST PUSH0 PUSH1 0x20 DUP3 ADD SWAP1 POP PUSH2 0x2169 PUSH0 DUP4 ADD DUP5 PUSH2 0x2147 JUMP JUMPDEST SWAP3 SWAP2 POP POP JUMP JUMPDEST PUSH2 0x2178 DUP2 PUSH2 0x20CB JUMP JUMPDEST DUP3 MSTORE POP POP JUMP JUMPDEST PUSH0 PUSH1 0x20 DUP3 ADD SWAP1 POP PUSH2 0x2191 PUSH0 DUP4 ADD DUP5 PUSH2 0x216F JUMP JUMPDEST SWAP3 SWAP2 POP POP JUMP JUMPDEST PUSH0 DUP1 PUSH0 PUSH1 0x60 DUP5 DUP7 SUB SLT ISZERO PUSH2 0x21AE JUMPI PUSH2 0x21AD PUSH2 0x2069 JUMP JUMPDEST JUMPDEST PUSH0 PUSH2 0x21BB DUP7 DUP3 DUP8 ADD PUSH2 0x20B7 JUMP JUMPDEST SWAP4 POP POP PUSH1 0x20 PUSH2 0x21CC DUP7 DUP3 DUP8 ADD PUSH2 0x20B7 JUMP JUMPDEST SWAP3 POP POP PUSH1 0x40 PUSH2 0x21DD DUP7 DUP3 DUP8 ADD PUSH2 0x20EA JUMP JUMPDEST SWAP2 POP POP SWAP3 POP SWAP3 POP SWAP3 JUMP JUMPDEST PUSH0 PUSH1 0xFF DUP3 AND SWAP1 POP SWAP2 SWAP1 POP JUMP JUMPDEST PUSH2 0x21FC DUP2 PUSH2 0x21E7 JUMP JUMPDEST DUP3 MSTORE POP POP JUMP JUMPDEST PUSH0 PUSH1 0x20 DUP3 ADD SWAP1 POP PUSH2 0x2215 PUSH0 DUP4 ADD DUP5 PUSH2 0x21F3 JUMP JUMPDEST SWAP3 SWAP2 POP POP JUMP JUMPDEST PUSH0 DUP1 REVERT JUMPDEST PUSH0 DUP1 REVERT JUMPDEST PUSH32 0x4E487B7100000000000000000000000000000000000000000000000000000000 PUSH0 MSTORE PUSH1 0x41 PUSH1 0x4 MSTORE PUSH1 0x24 PUSH0 REVERT JUMPDEST PUSH2 0x2259 DUP3 PUSH2 0x1FF8 JUMP JUMPDEST DUP2 ADD DUP2 DUP2 LT PUSH8 0xFFFFFFFFFFFFFFFF DUP3 GT OR ISZERO PUSH2 0x2278 JUMPI PUSH2 0x2277 PUSH2 0x2223 JUMP JUMPDEST JUMPDEST DUP1 PUSH1 0x40 MSTORE POP POP POP JUMP JUMPDEST PUSH0 PUSH2 0x228A PUSH2 0x2060 JUMP JUMPDEST SWAP1 POP PUSH2 0x2296 DUP3 DUP3 PUSH2 0x2250 JUMP JUMPDEST SWAP2 SWAP1 POP JUMP JUMPDEST PUSH0 PUSH8 0xFFFFFFFFFFFFFFFF DUP3 GT ISZERO PUSH2 0x22B5 JUMPI PUSH2 0x22B4 PUSH2 0x2223 JUMP JUMPDEST JUMPDEST PUSH2 0x22BE DUP3 PUSH2 0x1FF8 JUMP JUMPDEST SWAP1 POP PUSH1 0x20 DUP2 ADD SWAP1 POP SWAP2 SWAP1 POP JUMP JUMPDEST DUP3 DUP2 DUP4 CALLDATACOPY PUSH0 DUP4 DUP4 ADD MSTORE POP POP POP JUMP JUMPDEST PUSH0 PUSH2 0x22EB PUSH2 0x22E6 DUP5 PUSH2 0x229B JUMP JUMPDEST PUSH2 0x2281 JUMP JUMPDEST SWAP1 POP DUP3 DUP2 MSTORE PUSH1 0x20 DUP2 ADD DUP5 DUP5 DUP5 ADD GT ISZERO PUSH2 0x2307 JUMPI PUSH2 0x2306 PUSH2 0x221F JUMP JUMPDEST JUMPDEST PUSH2 0x2312 DUP5 DUP3 DUP6 PUSH2 0x22CB JUMP JUMPDEST POP SWAP4 SWAP3 POP POP POP JUMP JUMPDEST PUSH0 DUP3 PUSH1 0x1F DUP4 ADD SLT PUSH2 0x232E JUMPI PUSH2 0x232D PUSH2 0x221B JUMP JUMPDEST JUMPDEST DUP2 CALLDATALOAD PUSH2 0x233E DUP5 DUP3 PUSH1 0x20 DUP7 ADD PUSH2 0x22D9 JUMP JUMPDEST SWAP2 POP POP SWAP3 SWAP2 POP POP JUMP JUMPDEST PUSH0 DUP1 PUSH1 0x40 DUP4 DUP6 SUB SLT ISZERO PUSH2 0x235D JUMPI PUSH2 0x235C PUSH2 0x2069 JUMP JUMPDEST JUMPDEST PUSH0 DUP4 ADD CALLDATALOAD PUSH8 0xFFFFFFFFFFFFFFFF DUP2 GT ISZERO PUSH2 0x237A JUMPI PUSH2 0x2379 PUSH2 0x206D JUMP JUMPDEST JUMPDEST PUSH2 0x2386 DUP6 DUP3 DUP7 ADD PUSH2 0x231A JUMP JUMPDEST SWAP3 POP POP PUSH1 0x20 PUSH2 0x2397 DUP6 DUP3 DUP7 ADD PUSH2 0x20B7 JUMP JUMPDEST SWAP2 POP POP SWAP3 POP SWAP3 SWAP1 POP JUMP JUMPDEST PUSH0 PUSH1 0x20 DUP3 DUP5 SUB SLT ISZERO PUSH2 0x23B6 JUMPI PUSH2 0x23B5 PUSH2 0x2069 JUMP JUMPDEST JUMPDEST PUSH0 PUSH2 0x23C3 DUP5 DUP3 DUP6 ADD PUSH2 0x20EA JUMP JUMPDEST SWAP2 POP POP SWAP3 SWAP2 POP POP JUMP JUMPDEST PUSH0 PUSH1 0x20 DUP3 DUP5 SUB SLT ISZERO PUSH2 0x23E1 JUMPI PUSH2 0x23E0 PUSH2 0x2069 JUMP JUMPDEST JUMPDEST PUSH0 PUSH2 0x23EE DUP5 DUP3 DUP6 ADD PUSH2 0x20B7 JUMP JUMPDEST SWAP2 POP POP SWAP3 SWAP2 POP POP JUMP JUMPDEST PUSH2 0x2400 DUP2 PUSH2 0x2090 JUMP JUMPDEST DUP3 MSTORE POP POP JUMP JUMPDEST PUSH0 PUSH1 0x20 DUP3 ADD SWAP1 POP PUSH2 0x2419 PUSH0 DUP4 ADD DUP5 PUSH2 0x23F7 JUMP JUMPDEST SWAP3 SWAP2 POP POP JUMP JUMPDEST PUSH0 PUSH1 0x20 DUP3 DUP5 SUB SLT ISZERO PUSH2 0x2434 JUMPI PUSH2 0x2433 PUSH2 0x2069 JUMP JUMPDEST JUMPDEST PUSH0 DUP3 ADD CALLDATALOAD PUSH8 0xFFFFFFFFFFFFFFFF DUP2 GT ISZERO PUSH2 0x2451 JUMPI PUSH2 0x2450 PUSH2 0x206D JUMP JUMPDEST JUMPDEST PUSH2 0x245D DUP5 DUP3 DUP6 ADD PUSH2 0x231A JUMP JUMPDEST SWAP2 POP POP SWAP3 SWAP2 POP POP JUMP JUMPDEST PUSH0 DUP1 PUSH1 0x40 DUP4 DUP6 SUB SLT ISZERO PUSH2 0x247C JUMPI PUSH2 0x247B PUSH2 0x2069 JUMP JUMPDEST JUMPDEST PUSH0 PUSH2 0x2489 DUP6 DUP3 DUP7 ADD PUSH2 0x20B7 JUMP JUMPDEST SWAP3 POP POP PUSH1 0x20 PUSH2 0x249A DUP6 DUP3 DUP7 ADD PUSH2 0x20B7 JUMP JUMPDEST SWAP2 POP POP SWAP3 POP SWAP3 SWAP1 POP JUMP JUMPDEST PUSH2 0x24AD DUP2 PUSH2 0x213C JUMP JUMPDEST DUP2 EQ PUSH2 0x24B7 JUMPI PUSH0 DUP1 REVERT JUMPDEST POP JUMP JUMPDEST PUSH0 DUP2 CALLDATALOAD SWAP1 POP PUSH2 0x24C8 DUP2 PUSH2 0x24A4 JUMP JUMPDEST SWAP3 SWAP2 POP POP JUMP JUMPDEST PUSH0 DUP1 PUSH1 0x40 DUP4 DUP6 SUB SLT ISZERO PUSH2 0x24E4 JUMPI PUSH2 0x24E3 PUSH2 0x2069 JUMP JUMPDEST JUMPDEST PUSH0 PUSH2 0x24F1 DUP6 DUP3 DUP7 ADD PUSH2 0x20B7 JUMP JUMPDEST SWAP3 POP POP PUSH1 0x20 PUSH2 0x2502 DUP6 DUP3 DUP7 ADD PUSH2 0x24BA JUMP JUMPDEST SWAP2 POP POP SWAP3 POP SWAP3 SWAP1 POP JUMP JUMPDEST PUSH32 0x4E487B7100000000000000000000000000000000000000000000000000000000 PUSH0 MSTORE PUSH1 0x22 PUSH1 0x4 MSTORE PUSH1 0x24 PUSH0 REVERT JUMPDEST PUSH0 PUSH1 0x2 DUP3 DIV SWAP1 POP PUSH1 0x1 DUP3 AND DUP1 PUSH2 0x2550 JUMPI PUSH1 0x7F DUP3 AND SWAP2 POP JUMPDEST PUSH1 0x20 DUP3 LT DUP2 SUB PUSH2 0x2563 JUMPI PUSH2 0x2562 PUSH2 0x250C JUMP JUMPDEST JUMPDEST POP SWAP2 SWAP1 POP JUMP JUMPDEST PUSH32 0x496E76616C6964204E474F206164647265737300000000000000000000000000 PUSH0 DUP3 ADD MSTORE POP JUMP JUMPDEST PUSH0 PUSH2 0x259D PUSH1 0x13 DUP4 PUSH2 0x1FC0 JUMP JUMPDEST SWAP2 POP PUSH2 0x25A8 DUP3 PUSH2 0x2569 JUMP JUMPDEST PUSH1 0x20 DUP3 ADD SWAP1 POP SWAP2 SWAP1 POP JUMP JUMPDEST PUSH0 PUSH1 0x20 DUP3 ADD SWAP1 POP DUP2 DUP2 SUB PUSH0 DUP4 ADD MSTORE PUSH2 0x25CA DUP2 PUSH2 0x2591 JUMP JUMPDEST SWAP1 POP SWAP2 SWAP1 POP JUMP JUMPDEST PUSH32 0x4E487B7100000000000000000000000000000000000000000000000000000000 PUSH0 MSTORE PUSH1 0x32 PUSH1 0x4 MSTORE PUSH1 0x24 PUSH0 REVERT JUMPDEST PUSH0 DUP2 SWAP1 POP SWAP3 SWAP2 POP POP JUMP JUMPDEST PUSH0 DUP2 SWAP1 POP DUP2 PUSH0 MSTORE PUSH1 0x20 PUSH0 KECCAK256 SWAP1 POP SWAP2 SWAP1 POP JUMP JUMPDEST PUSH0 DUP2 SLOAD PUSH2 0x2626 DUP2 PUSH2 0x2539 JUMP JUMPDEST PUSH2 0x2630 DUP2 DUP7 PUSH2 0x25FE JUMP JUMPDEST SWAP5 POP PUSH1 0x1 DUP3 AND PUSH0 DUP2 EQ PUSH2 0x264A JUMPI PUSH1 0x1 DUP2 EQ PUSH2 0x265F JUMPI PUSH2 0x2691 JUMP JUMPDEST PUSH1 0xFF NOT DUP4 AND DUP7 MSTORE DUP2 ISZERO ISZERO DUP3 MUL DUP7 ADD SWAP4 POP PUSH2 0x2691 JUMP JUMPDEST PUSH2 0x2668 DUP6 PUSH2 0x2608 JUMP JUMPDEST PUSH0 JUMPDEST DUP4 DUP2 LT ISZERO PUSH2 0x2689 JUMPI DUP2 SLOAD DUP2 DUP10 ADD MSTORE PUSH1 0x1 DUP3 ADD SWAP2 POP PUSH1 0x20 DUP2 ADD SWAP1 POP PUSH2 0x266A JUMP JUMPDEST DUP4 DUP9 ADD SWAP6 POP POP POP JUMPDEST POP POP POP SWAP3 SWAP2 POP POP JUMP JUMPDEST PUSH0 PUSH2 0x26A5 DUP3 DUP5 PUSH2 0x261A JUMP JUMPDEST SWAP2 POP DUP2 SWAP1 POP SWAP3 SWAP2 POP POP JUMP JUMPDEST PUSH32 0x4E487B7100000000000000000000000000000000000000000000000000000000 PUSH0 MSTORE PUSH1 0x11 PUSH1 0x4 MSTORE PUSH1 0x24 PUSH0 REVERT JUMPDEST PUSH0 PUSH2 0x26E7 DUP3 PUSH2 0x20CB JUMP JUMPDEST SWAP2 POP PUSH32 0xFFFFFFFFFFFFFFFFFFFFFFFFFFFFFFFFFFFFFFFFFFFFFFFFFFFFFFFFFFFFFFFF DUP3 SUB PUSH2 0x2719 JUMPI PUSH2 0x2718 PUSH2 0x26B0 JUMP JUMPDEST JUMPDEST PUSH1 0x1 DUP3 ADD SWAP1 POP SWAP2 SWAP1 POP JUMP JUMPDEST PUSH0 DUP2 SWAP1 POP DUP2 PUSH0 MSTORE PUSH1 0x20 PUSH0 KECCAK256 SWAP1 POP SWAP2 SWAP1 POP JUMP JUMPDEST PUSH0 PUSH1 0x20 PUSH1 0x1F DUP4 ADD DIV SWAP1 POP SWAP2 SWAP1 POP JUMP JUMPDEST PUSH0 DUP3 DUP3 SHL SWAP1 POP SWAP3 SWAP2 POP POP JUMP JUMPDEST PUSH0 PUSH1 0x8 DUP4 MUL PUSH2 0x2780 PUSH32 0xFFFFFFFFFFFFFFFFFFFFFFFFFFFFFFFFFFFFFFFFFFFFFFFFFFFFFFFFFFFFFFFF DUP3 PUSH2 0x2745 JUMP JUMPDEST PUSH2 0x278A DUP7 DUP4 PUSH2 0x2745 JUMP JUMPDEST SWAP6 POP DUP1 NOT DUP5 AND SWAP4 POP DUP1 DUP7 AND DUP5 OR SWAP3 POP POP POP SWAP4 SWAP3 POP POP POP JUMP JUMPDEST PUSH0 DUP2 SWAP1 POP SWAP2 SWAP1 POP JUMP JUMPDEST PUSH0 PUSH2 0x27C5 PUSH2 0x27C0 PUSH2 0x27BB DUP5 PUSH2 0x20CB JUMP JUMPDEST PUSH2 0x27A2 JUMP JUMPDEST PUSH2 0x20CB JUMP JUMPDEST SWAP1 POP SWAP2 SWAP1 POP JUMP JUMPDEST PUSH0 DUP2 SWAP1 POP SWAP2 SWAP1 POP JUMP JUMPDEST PUSH2 0x27DE DUP4 PUSH2 0x27AB JUMP JUMPDEST PUSH2 0x27F2 PUSH2 0x27EA DUP3 PUSH2 0x27CC JUMP JUMPDEST DUP5 DUP5 SLOAD PUSH2 0x2751 JUMP JUMPDEST DUP3 SSTORE POP POP POP POP JUMP JUMPDEST PUSH0 SWAP1 JUMP JUMPDEST PUSH2 0x2806 PUSH2 0x27FA JUMP JUMPDEST PUSH2 0x2811 DUP2 DUP5 DUP5 PUSH2 0x27D5 JUMP JUMPDEST POP POP POP JUMP JUMPDEST JUMPDEST DUP2 DUP2 LT ISZERO PUSH2 0x2834 JUMPI PUSH2 0x2829 PUSH0 DUP3 PUSH2 0x27FE JUMP JUMPDEST PUSH1 0x1 DUP2 ADD SWAP1 POP PUSH2 0x2817 JUMP JUMPDEST POP POP JUMP JUMPDEST PUSH1 0x1F DUP3 GT ISZERO PUSH2 0x2879 JUMPI PUSH2 0x284A DUP2 PUSH2 0x2724 JUMP JUMPDEST PUSH2 0x2853 DUP5 PUSH2 0x2736 JUMP JUMPDEST DUP2 ADD PUSH1 0x20 DUP6 LT ISZERO PUSH2 0x2862 JUMPI DUP2 SWAP1 POP JUMPDEST PUSH2 0x2876 PUSH2 0x286E DUP6 PUSH2 0x2736 JUMP JUMPDEST DUP4 ADD DUP3 PUSH2 0x2816 JUMP JUMPDEST POP POP JUMPDEST POP POP POP JUMP JUMPDEST PUSH0 DUP3 DUP3 SHR SWAP1 POP SWAP3 SWAP2 POP POP JUMP JUMPDEST PUSH0 PUSH2 0x2899 PUSH0 NOT DUP5 PUSH1 0x8 MUL PUSH2 0x287E JUMP JUMPDEST NOT DUP1 DUP4 AND SWAP2 POP POP SWAP3 SWAP2 POP POP JUMP JUMPDEST PUSH0 PUSH2 0x28B1 DUP4 DUP4 PUSH2 0x288A JUMP JUMPDEST SWAP2 POP DUP3 PUSH1 0x2 MUL DUP3 OR SWAP1 POP SWAP3 SWAP2 POP POP JUMP JUMPDEST PUSH2 0x28CA DUP3 PUSH2 0x1FB6 JUMP JUMPDEST PUSH8 0xFFFFFFFFFFFFFFFF DUP2 GT ISZERO PUSH2 0x28E3 JUMPI PUSH2 0x28E2 PUSH2 0x2223 JUMP JUMPDEST JUMPDEST PUSH2 0x28ED DUP3 SLOAD PUSH2 0x2539 JUMP JUMPDEST PUSH2 0x28F8 DUP3 DUP3 DUP6 PUSH2 0x2838 JUMP JUMPDEST PUSH0 PUSH1 0x20 SWAP1 POP PUSH1 0x1F DUP4 GT PUSH1 0x1 DUP2 EQ PUSH2 0x2929 JUMPI PUSH0 DUP5 ISZERO PUSH2 0x2917 JUMPI DUP3 DUP8 ADD MLOAD SWAP1 POP JUMPDEST PUSH2 0x2921 DUP6 DUP3 PUSH2 0x28A6 JUMP JUMPDEST DUP7 SSTORE POP PUSH2 0x2988 JUMP JUMPDEST PUSH1 0x1F NOT DUP5 AND PUSH2 0x2937 DUP7 PUSH2 0x2724 JUMP JUMPDEST PUSH0 JUMPDEST DUP3 DUP2 LT ISZERO PUSH2 0x295E JUMPI DUP5 DUP10 ADD MLOAD DUP3 SSTORE PUSH1 0x1 DUP3 ADD SWAP2 POP PUSH1 0x20 DUP6 ADD SWAP5 POP PUSH1 0x20 DUP2 ADD SWAP1 POP PUSH2 0x2939 JUMP JUMPDEST DUP7 DUP4 LT ISZERO PUSH2 0x297B JUMPI DUP5 DUP10 ADD MLOAD PUSH2 0x2977 PUSH1 0x1F DUP10 AND DUP3 PUSH2 0x288A JUMP JUMPDEST DUP4 SSTORE POP JUMPDEST PUSH1 0x1 PUSH1 0x2 DUP9 MUL ADD DUP9 SSTORE POP POP POP JUMPDEST POP POP POP POP POP POP JUMP JUMPDEST PUSH0 PUSH1 0x40 DUP3 ADD SWAP1 POP DUP2 DUP2 SUB PUSH0 DUP4 ADD MSTORE PUSH2 0x29A8 DUP2 DUP6 PUSH2 0x2008 JUMP JUMPDEST SWAP1 POP PUSH2 0x29B7 PUSH1 0x20 DUP4 ADD DUP5 PUSH2 0x23F7 JUMP JUMPDEST SWAP4 SWAP3 POP POP POP JUMP JUMPDEST PUSH32 0x46656520746F6F20686967680000000000000000000000000000000000000000 PUSH0 DUP3 ADD MSTORE POP JUMP JUMPDEST PUSH0 PUSH2 0x29F2 PUSH1 0xC DUP4 PUSH2 0x1FC0 JUMP JUMPDEST SWAP2 POP PUSH2 0x29FD DUP3 PUSH2 0x29BE JUMP JUMPDEST PUSH1 0x20 DUP3 ADD SWAP1 POP SWAP2 SWAP1 POP JUMP JUMPDEST PUSH0 PUSH1 0x20 DUP3 ADD SWAP1 POP DUP2 DUP2 SUB PUSH0 DUP4 ADD MSTORE PUSH2 0x2A1F DUP2 PUSH2 0x29E6 JUMP JUMPDEST SWAP1 POP SWAP2 SWAP1 POP JUMP JUMPDEST PUSH32 0x496E76616C696420747265617375727920616464726573730000000000000000 PUSH0 DUP3 ADD MSTORE POP JUMP JUMPDEST PUSH0 PUSH2 0x2A5A PUSH1 0x18 DUP4 PUSH2 0x1FC0 JUMP JUMPDEST SWAP2 POP PUSH2 0x2A65 DUP3 PUSH2 0x2A26 JUMP JUMPDEST PUSH1 0x20 DUP3 ADD SWAP1 POP SWAP2 SWAP1 POP JUMP JUMPDEST PUSH0 PUSH1 0x20 DUP3 ADD SWAP1 POP DUP2 DUP2 SUB PUSH0 DUP4 ADD MSTORE PUSH2 0x2A87 DUP2 PUSH2 0x2A4E JUMP JUMPDEST SWAP1 POP SWAP2 SWAP1 POP JUMP JUMPDEST PUSH32 0x54726561737572792077616C6C6574206E6F7420736574000000000000000000 PUSH0 DUP3 ADD MSTORE POP JUMP JUMPDEST PUSH0 PUSH2 0x2AC2 PUSH1 0x17 DUP4 PUSH2 0x1FC0 JUMP JUMPDEST SWAP2 POP PUSH2 0x2ACD DUP3 PUSH2 0x2A8E JUMP JUMPDEST PUSH1 0x20 DUP3 ADD SWAP1 POP SWAP2 SWAP1 POP JUMP JUMPDEST PUSH0 PUSH1 0x20 DUP3 ADD SWAP1 POP DUP2 DUP2 SUB PUSH0 DUP4 ADD MSTORE PUSH2 0x2AEF DUP2 PUSH2 0x2AB6 JUMP JUMPDEST SWAP1 POP SWAP2 SWAP1 POP JUMP JUMPDEST PUSH32 0x4E6F204E474F7320726567697374657265640000000000000000000000000000 PUSH0 DUP3 ADD MSTORE POP JUMP JUMPDEST PUSH0 PUSH2 0x2B2A PUSH1 0x12 DUP4 PUSH2 0x1FC0 JUMP JUMPDEST SWAP2 POP PUSH2 0x2B35 DUP3 PUSH2 0x2AF6 JUMP JUMPDEST PUSH1 0x20 DUP3 ADD SWAP1 POP SWAP2 SWAP1 POP JUMP JUMPDEST PUSH0 PUSH1 0x20 DUP3 ADD SWAP1 POP DUP2 DUP2 SUB PUSH0 DUP4 ADD MSTORE PUSH2 0x2B57 DUP2 PUSH2 0x2B1E JUMP JUMPDEST SWAP1 POP SWAP2 SWAP1 POP JUMP JUMPDEST PUSH32 0x4E6F2066756E647320746F206469737472696275746500000000000000000000 PUSH0 DUP3 ADD MSTORE POP JUMP JUMPDEST PUSH0 PUSH2 0x2B92 PUSH1 0x16 DUP4 PUSH2 0x1FC0 JUMP JUMPDEST SWAP2 POP PUSH2 0x2B9D DUP3 PUSH2 0x2B5E JUMP JUMPDEST PUSH1 0x20 DUP3 ADD SWAP1 POP SWAP2 SWAP1 POP JUMP JUMPDEST PUSH0 PUSH1 0x20 DUP3 ADD SWAP1 POP DUP2 DUP2 SUB PUSH0 DUP4 ADD MSTORE PUSH2 0x2BBF DUP2 PUSH2 0x2B86 JUMP JUMPDEST SWAP1 POP SWAP2 SWAP1 POP JUMP JUMPDEST PUSH32 0x4E487B7100000000000000000000000000000000000000000000000000000000 PUSH0 MSTORE PUSH1 0x12 PUSH1 0x4 MSTORE PUSH1 0x24 PUSH0 REVERT JUMPDEST PUSH0 PUSH2 0x2BFD DUP3 PUSH2 0x20CB JUMP JUMPDEST SWAP2 POP PUSH2 0x2C08 DUP4 PUSH2 0x20CB JUMP JUMPDEST SWAP3 POP DUP3 PUSH2 0x2C18 JUMPI PUSH2 0x2C17 PUSH2 0x2BC6 JUMP JUMPDEST JUMPDEST DUP3 DUP3 DIV SWAP1 POP SWAP3 SWAP2 POP POP JUMP JUMPDEST PUSH32 0x496E73756666696369656E742066756E647320666F7220646973747269627574 PUSH0 DUP3 ADD MSTORE PUSH32 0x696F6E0000000000000000000000000000000000000000000000000000000000 PUSH1 0x20 DUP3 ADD MSTORE POP JUMP JUMPDEST PUSH0 PUSH2 0x2C7D PUSH1 0x23 DUP4 PUSH2 0x1FC0 JUMP JUMPDEST SWAP2 POP PUSH2 0x2C88 DUP3 PUSH2 0x2C23 JUMP JUMPDEST PUSH1 0x40 DUP3 ADD SWAP1 POP SWAP2 SWAP1 POP JUMP JUMPDEST PUSH0 PUSH1 0x20 DUP3 ADD SWAP1 POP DUP2 DUP2 SUB PUSH0 DUP4 ADD MSTORE PUSH2 0x2CAA DUP2 PUSH2 0x2C71 JUMP JUMPDEST SWAP1 POP SWAP2 SWAP1 POP JUMP JUMPDEST PUSH0 PUSH1 0x60 DUP3 ADD SWAP1 POP PUSH2 0x2CC4 PUSH0 DUP4 ADD DUP7 PUSH2 0x23F7 JUMP JUMPDEST PUSH2 0x2CD1 PUSH1 0x20 DUP4 ADD DUP6 PUSH2 0x216F JUMP JUMPDEST PUSH2 0x2CDE PUSH1 0x40 DUP4 ADD DUP5 PUSH2 0x216F JUMP JUMPDEST SWAP5 SWAP4 POP POP POP POP JUMP JUMPDEST PUSH32 0x546869732077616C6C657420697320616C726561647920726567697374657265 PUSH0 DUP3 ADD MSTORE PUSH32 0x6400000000000000000000000000000000000000000000000000000000000000 PUSH1 0x20 DUP3 ADD MSTORE POP JUMP JUMPDEST PUSH0 PUSH2 0x2D40 PUSH1 0x21 DUP4 PUSH2 0x1FC0 JUMP JUMPDEST SWAP2 POP PUSH2 0x2D4B DUP3 PUSH2 0x2CE6 JUMP JUMPDEST PUSH1 0x40 DUP3 ADD SWAP1 POP SWAP2 SWAP1 POP JUMP JUMPDEST PUSH0 PUSH1 0x20 DUP3 ADD SWAP1 POP DUP2 DUP2 SUB PUSH0 DUP4 ADD MSTORE PUSH2 0x2D6D DUP2 PUSH2 0x2D34 JUMP JUMPDEST SWAP1 POP SWAP2 SWAP1 POP JUMP JUMPDEST PUSH0 PUSH4 0xFFFFFFFF DUP3 AND SWAP1 POP SWAP2 SWAP1 POP JUMP JUMPDEST PUSH0 PUSH2 0x2D8D DUP3 PUSH2 0x2D74 JUMP JUMPDEST SWAP2 POP PUSH4 0xFFFFFFFF DUP3 SUB PUSH2 0x2DA3 JUMPI PUSH2 0x2DA2 PUSH2 0x26B0 JUMP JUMPDEST JUMPDEST PUSH1 0x1 DUP3 ADD SWAP1 POP SWAP2 SWAP1 POP JUMP JUMPDEST PUSH0 PUSH2 0x2DB8 DUP3 PUSH2 0x20CB JUMP JUMPDEST SWAP2 POP PUSH2 0x2DC3 DUP4 PUSH2 0x20CB JUMP JUMPDEST SWAP3 POP DUP3 DUP3 ADD SWAP1 POP DUP1 DUP3 GT ISZERO PUSH2 0x2DDB JUMPI PUSH2 0x2DDA PUSH2 0x26B0 JUMP JUMPDEST JUMPDEST SWAP3 SWAP2 POP POP JUMP JUMPDEST PUSH0 PUSH2 0x2DEB DUP3 PUSH2 0x20CB JUMP JUMPDEST SWAP2 POP PUSH2 0x2DF6 DUP4 PUSH2 0x20CB JUMP JUMPDEST SWAP3 POP DUP3 DUP3 MUL PUSH2 0x2E04 DUP2 PUSH2 0x20CB JUMP JUMPDEST SWAP2 POP DUP3 DUP3 DIV DUP5 EQ DUP4 ISZERO OR PUSH2 0x2E1B JUMPI PUSH2 0x2E1A PUSH2 0x26B0 JUMP JUMPDEST JUMPDEST POP SWAP3 SWAP2 POP POP JUMP JUMPDEST PUSH0 PUSH2 0x2E2C DUP3 PUSH2 0x20CB JUMP JUMPDEST SWAP2 POP PUSH2 0x2E37 DUP4 PUSH2 0x20CB JUMP JUMPDEST SWAP3 POP DUP3 DUP3 SUB SWAP1 POP DUP2 DUP2 GT ISZERO PUSH2 0x2E4F JUMPI PUSH2 0x2E4E PUSH2 0x26B0 JUMP JUMPDEST JUMPDEST SWAP3 SWAP2 POP POP JUMP JUMPDEST PUSH32 0x4E487B7100000000000000000000000000000000000000000000000000000000 PUSH0 MSTORE PUSH1 0x31 PUSH1 0x4 MSTORE PUSH1 0x24 PUSH0 REVERT INVALID LOG2 PUSH5 0x6970667358 0x22 SLT KECCAK256 DUP4 DUP4 EXP DUP5 0xC9 0x4B PUSH27 0xD75273C990D00669415092887EFAB0D413ABB59FD6BE6400426473 PUSH16 0x6C634300081400330000000000000000 "
				},
				"gasEstimates": {
					"creation": {
						"codeDepositCost": "2392000",
						"executionCost": "infinite",
						"totalCost": "infinite"
					},
					"external": {
						"allowance(address,address)": "infinite",
						"approve(address,uint256)": "infinite",
						"balanceOf(address)": "2940",
						"burn(uint256)": "infinite",
						"decimals()": "450",
						"distributeTreasuryToNGOs()": "infinite",
						"excludeFromFee(address,bool)": "infinite",
						"feePercent()": "2492",
						"isExcludedFromFee(address)": "2959",
						"name()": "infinite",
						"ngoNames(address)": "infinite",
						"ngoWallets(uint256)": "4989",
						"owner()": "2604",
						"registerNGO(string,address)": "infinite",
						"renounceOwnership()": "infinite",
						"setFeePercent(uint256)": "infinite",
						"setTreasuryWallet(address)": "infinite",
						"symbol()": "infinite",
						"totalSupply()": "2500",
						"transfer(address,uint256)": "infinite",
						"transferFrom(address,address,uint256)": "infinite",
						"transferOwnership(address)": "infinite",
						"treasuryWallet()": "2575",
						"unregisterNGO(string)": "infinite"
					},
					"internal": {
						"_update(address,address,uint256)": "infinite",
						"popFromNGOWallets(uint32)": "infinite",
						"pushToNGOWallets(address)": "48590",
						"registerNGOWallet(address)": "infinite",
						"unregisterNGOWallet(address)": "infinite"
					}
				},
				"methodIdentifiers": {
					"allowance(address,address)": "dd62ed3e",
					"approve(address,uint256)": "095ea7b3",
					"balanceOf(address)": "70a08231",
					"burn(uint256)": "42966c68",
					"decimals()": "313ce567",
					"distributeTreasuryToNGOs()": "f9479ffa",
					"excludeFromFee(address,bool)": "df8408fe",
					"feePercent()": "7fd6f15c",
					"isExcludedFromFee(address)": "5342acb4",
					"name()": "06fdde03",
					"ngoNames(address)": "4618f6ac",
					"ngoWallets(uint256)": "7d5b6c60",
					"owner()": "8da5cb5b",
					"registerNGO(string,address)": "3539c6b1",
					"renounceOwnership()": "715018a6",
					"setFeePercent(uint256)": "7ce3489b",
					"setTreasuryWallet(address)": "a8602fea",
					"symbol()": "95d89b41",
					"totalSupply()": "18160ddd",
					"transfer(address,uint256)": "a9059cbb",
					"transferFrom(address,address,uint256)": "23b872dd",
					"transferOwnership(address)": "f2fde38b",
					"treasuryWallet()": "4626402b",
					"unregisterNGO(string)": "ae91470d"
				}
			},
			"storageLayout": {
				"storage": [
					{
						"astId": 307,
						"contract": "HumAidToken.sol:HumAid",
						"label": "_balances",
						"offset": 0,
						"slot": "0",
						"type": "t_mapping(t_address,t_uint256)"
					},
					{
						"astId": 313,
						"contract": "HumAidToken.sol:HumAid",
						"label": "_allowances",
						"offset": 0,
						"slot": "1",
						"type": "t_mapping(t_address,t_mapping(t_address,t_uint256))"
					},
					{
						"astId": 315,
						"contract": "HumAidToken.sol:HumAid",
						"label": "_totalSupply",
						"offset": 0,
						"slot": "2",
						"type": "t_uint256"
					},
					{
						"astId": 317,
						"contract": "HumAidToken.sol:HumAid",
						"label": "_name",
						"offset": 0,
						"slot": "3",
						"type": "t_string_storage"
					},
					{
						"astId": 319,
						"contract": "HumAidToken.sol:HumAid",
						"label": "_symbol",
						"offset": 0,
						"slot": "4",
						"type": "t_string_storage"
					},
					{
						"astId": 8,
						"contract": "HumAidToken.sol:HumAid",
						"label": "_owner",
						"offset": 0,
						"slot": "5",
						"type": "t_address"
					},
					{
						"astId": 949,
						"contract": "HumAidToken.sol:HumAid",
						"label": "feePercent",
						"offset": 0,
						"slot": "6",
						"type": "t_uint256"
					},
					{
						"astId": 953,
						"contract": "HumAidToken.sol:HumAid",
						"label": "ngoNames",
						"offset": 0,
						"slot": "7",
						"type": "t_mapping(t_address,t_string_storage)"
					},
					{
						"astId": 956,
						"contract": "HumAidToken.sol:HumAid",
						"label": "ngoWallets",
						"offset": 0,
						"slot": "8",
						"type": "t_array(t_address)dyn_storage"
					},
					{
						"astId": 960,
						"contract": "HumAidToken.sol:HumAid",
						"label": "_isExcludedFromFee",
						"offset": 0,
						"slot": "9",
						"type": "t_mapping(t_address,t_bool)"
					},
					{
						"astId": 962,
						"contract": "HumAidToken.sol:HumAid",
						"label": "treasuryWallet",
						"offset": 0,
						"slot": "10",
						"type": "t_address"
					}
				],
				"types": {
					"t_address": {
						"encoding": "inplace",
						"label": "address",
						"numberOfBytes": "20"
					},
					"t_array(t_address)dyn_storage": {
						"base": "t_address",
						"encoding": "dynamic_array",
						"label": "address[]",
						"numberOfBytes": "32"
					},
					"t_bool": {
						"encoding": "inplace",
						"label": "bool",
						"numberOfBytes": "1"
					},
					"t_mapping(t_address,t_bool)": {
						"encoding": "mapping",
						"key": "t_address",
						"label": "mapping(address => bool)",
						"numberOfBytes": "32",
						"value": "t_bool"
					},
					"t_mapping(t_address,t_mapping(t_address,t_uint256))": {
						"encoding": "mapping",
						"key": "t_address",
						"label": "mapping(address => mapping(address => uint256))",
						"numberOfBytes": "32",
						"value": "t_mapping(t_address,t_uint256)"
					},
					"t_mapping(t_address,t_string_storage)": {
						"encoding": "mapping",
						"key": "t_address",
						"label": "mapping(address => string)",
						"numberOfBytes": "32",
						"value": "t_string_storage"
					},
					"t_mapping(t_address,t_uint256)": {
						"encoding": "mapping",
						"key": "t_address",
						"label": "mapping(address => uint256)",
						"numberOfBytes": "32",
						"value": "t_uint256"
					},
					"t_string_storage": {
						"encoding": "bytes",
						"label": "string",
						"numberOfBytes": "32"
					},
					"t_uint256": {
						"encoding": "inplace",
						"label": "uint256",
						"numberOfBytes": "32"
					}
				}
			},
			"userdoc": {
				"kind": "user",
				"methods": {},
				"version": 1
			}
		}
	}
}